:100000000C94C7000C9403120C94DC110C94EF00B8
:100010000C94EF000C94EF000C942A120C94EF0057
:100020000C94EF000C94EF000C94EF000C94EF0094
:100030000C94EF000C94EF000C94EF000C94EF0084
:100040000C9492110C94EF000C9460110C943A11E2
:100050000C94EF000C94EF000C94EF000C94EF0064
:100060000C94EF000C94EF0068775265626F6F7428
:100070000064626733206E6F7420706F73736962FF
:100080006C6500646267332031006462673320303E
:1000900000547820455252005478204F4B0053654D
:1000A000744D6574657256616C7565004877546966
:1000B0006D65004462675F52657475726E004462DC
:1000C000675F4C6576656C0052465F4368616E6E93
:1000D000656C0050415F4C6576656C0054585F520A
:1000E0005353490043707554656D7000436F6D70D4
:1000F000696C654461746500506172656E744E6F21
:10010000646500506173736976654E6F6465005075
:100110006F7765724D657465720053657020323774
:1001200020323032322031373A31333A33300052D4
:100130004632345F50415F4C4F57000000000024AE
:100140000027002A0000000000250028002B0004E2
:10015000040404040404040202020202020303036E
:100160000303030102040810204080010204081068
:100170002001020408102000000008000201000015
:1001800003040700000000000000000049121124D1
:100190001FBECFEFD8E0DEBFCDBF11E0A0E0B1E0E1
:1001A000E4E7F3E302C005900D92AE36B107D9F74C
:1001B00026E0AEE6B1E001C01D92A431B207E1F73E
:1001C00010E0C7ECD0E004C02197FE010E9477192F
:1001D000C63CD107C9F70E9478130C94B8190C9447
:1001E0000000942FEEECF5E03091B2013183828370
:1001F000668325834481487F492B477E4483CF0112
:100200000895AF92BF92CF92DF92EF92FF920F9339
:100210001F93CF93DF936C017B018B01040F151F9C
:10022000EB015E01AE18BF08C017D10759F0699104
:10023000D601ED91FC910190F081E02DC601099568
:10024000892B79F7C501DF91CF911F910F91FF9015
:10025000EF90DF90CF90BF90AF900895FC01538D49
:10026000448D252F30E0842F90E0821B930B541790
:1002700010F0CF96089501970895FC01918D828D1D
:10028000981761F0A28DAE0FBF2FB11D5D968C91B6
:10029000928D9F5F9F73928F90E008958FEF9FEFF5
:1002A0000895FC01918D828D981731F0828DE80FB1
:1002B000F11D858D90E008958FEF9FEF0895FC016B
:1002C000918D228D892F90E0805C9F4F821B910938
:1002D0008F739927089586EB91E00E945F0121E0DA
:1002E000892B09F420E0822F0895FC01A48DA80F2A
:1002F000B92FB11DA35ABF4F2C91848D90E0019668
:100300008F739927848FA689B7892C93A089B18987
:100310008C91837080648C93938D848D981306C028
:100320000288F389E02D80818F7D80830895EF928C
:10033000FF920F931F93CF93DF93EC0181E0888F9F
:100340009B8D8C8D98131AC0E889F989808185FF6F
:1003500015C09FB7F894EE89FF896083E889F98911
:1003600080818370806480839FBF81E090E0DF9113
:10037000CF911F910F91FF90EF900895F62E0B8D66
:1003800010E00F5F1F4F0F731127E02E8C8D8E1121
:100390000CC00FB607FCFACFE889F989808185FF88
:1003A000F5CFCE010E947501F1CFEB8DEC0FFD2F43
:1003B000F11DE35AFF4FF0829FB7F8940B8FEA8943
:1003C000FB8980818062CFCFCF93DF93EC01888D52
:1003D0008823B9F0AA89BB89E889F9898C9185FDC0
:1003E00003C0808186FD0DC00FB607FCF7CF8C914E
:1003F00085FFF2CF808185FFEDCFCE010E94750190
:10040000E9CFDF91CF91089580E090E0892B29F02A
:100410000E946B0181110C940000089590E0FC0192
:10042000E958FE4F2491FC01ED59FE4F3491FC0137
:10043000E15BFE4FE491EE23C9F0222339F0233033
:1004400001F1A8F4213019F1223029F1F0E0EE0F8A
:10045000FF1FEB5BFE4FA591B4918FB7F894EC9121
:10046000611126C030953E233C938FBF08952730FD
:10047000A9F02830C9F0243049F7809180008F7DA1
:1004800003C0809180008F7780938000DFCF84B598
:100490008F7784BDDBCF84B58F7DFBCF8091B0009B
:1004A0008F778093B000D2CF8091B0008F7DF9CF4D
:1004B0003E2BDACFCF93DF9390E0FC01ED59FE4F56
:1004C0002491815B9E4FFC0184918823D1F090E0C0
:1004D000880F991FFC01E55CFE4FA591B491FC01CA
:1004E000EB5BFE4FC591D491623071F49FB7F894E5
:1004F0003C91822F809583238C93E8812E2B288337
:100500009FBFDF91CF9108958FB7F894EC912E2B78
:100510002C938FBFF6CF3FB7F8948091AC019091A8
:10052000AD01A091AE01B091AF0126B5A89B05C069
:100530002F3F19F00196A11DB11D3FBFBA2FA92F62
:10054000982F8827BC01CD01620F711D811D911D5F
:1005500042E0660F771F881F991F4A95D1F70895CB
:100560008F929F92AF92BF92CF92DF92EF92FF92C3
:100570006B017C010E948B024B015C01C114D10410
:10058000E104F104B9F00E948B02681979098A0923
:100590009B09683E73408105910580F321E0C21AF2
:1005A000D108E108F10888EE880E83E0981EA11CAE
:1005B000B11CE4CFFF90EF90DF90CF90BF90AF9051
:1005C0009F908F9008952FB7F8946091A801709133
:1005D000A9018091AA019091AB012FBF08950895C0
:1005E000CF92DF92EF92FF920E94E3026B017C01B7
:1005F0008091A3019091A401A091A501B091A601C1
:10060000A7019601281B390B4A0B5B0BCA01B901E4
:100610006436710581059105B8F10E9441179B016F
:10062000AC0160E07AEB8BE59AE40E94CF180E945F
:10063000481960939F017093A0018093A10190934A
:10064000A201C092A301D092A401E092A501F09270
:10065000A60180919B0190919C01A0919D01B09178
:100660009E010196A11DB11D80939B0190939C0159
:10067000A0939D01B0939E0160E088E0FF90EF9011
:10068000DF90CF900C940E02FF90EF90DF90CF9010
:100690000895089561E088E00E945A0261E088E0D0
:1006A0000E940E0262E083E00E945A020E94E3026E
:1006B00060938201709383018093840190938501FC
:1006C0006093730170937401809375019093760128
:1006D0006093A3017093A4018093A5019093A60158
:1006E00060937D0170937E0180937F0190938001E0
:1006F00080EF92E09093270180932601E9E6F0E0F5
:1007000080818C608083E99A0895FC0193819770C1
:100710006A3108F069E188E0689FB0011124692B13
:100720006383CF0108950F931F93CF93DF93EC0161
:100730008B0162E00E9485038C818F7180648C83C1
:1007400018870F83CE01DF91CF911F910F910895EC
:10075000CF92DF92EF92FF92CF93DF93EC016A0189
:100760007B0164E00E9485038C818F71806A8C8399
:10077000CF82D886E986FA86CE01DF91CF91FF90AD
:10078000EF90DF90CF9008951F93CF93DF93EC010C
:10079000162F61E00E9485038C818F7180628C83AB
:1007A0001F83CE01DF91CF911F910895FC018381BA
:1007B0008695869586958A3108F089E10895E091BD
:1007C0008A01F0918B01309721F00280F381E02DB6
:1007D000099408950F931F930E94E30200918C01E6
:1007E00010918D0120918E0130918F01601B710B52
:1007F000820B930B1F910F9108959C0180918A01A8
:1008000090918B0182179307F1F0909194019F7161
:100810009093940130938B0120938A01E0918A0197
:10082000F0918B01309721F00190F081E02D099536
:100830000E94E30260938C0170938D0180938E017E
:1008400090938F01089580919401805E809394012C
:10085000E5CF0F931F930E94EA0320919501207723
:10086000203779F000E117E220E030E006171707A3
:100870002807390758F48EE191E01F910F910C94ED
:10088000FD0300E61AEE20E030E0F0CF1F910F915B
:100890000895809195018F708B3020F085E191E073
:1008A0000C94FD03089580919401846080939401D9
:1008B00080919501807880939501E0919701F09166
:1008C0009801309709F0099408958EBD00000DB489
:1008D00007FEFDCF8EB50895CF92DF92EF92FF9283
:1008E0006B017C018EE991E00E94F71799278F2D0B
:1008F0007E2D6D2D8FE991E00E94F717B7018827B3
:10090000992780EA91E00E94F7176F2D77278827B3
:10091000992781EA91E0FF90EF90DF90CF900C94BF
:10092000F717E4E9F1E08081877F8F7E8083109262
:1009300090011092910110929201109293010E94E5
:10094000E30260936F017093700180937101909343
:10095000720144E050E070E060E082EB91E00C94C2
:10096000CF170F931F93CF93DF938DE991E00E94F0
:10097000DF178A3008F05CC080937C018EE991E03B
:100980000E94DF17D82F8FE991E00E94DF17C82F50
:1009900080EA91E00E94DF17082F81EA91E00E942F
:1009A000DF17482F8C2F90E0B0E0A0E0BA2FA92FDE
:1009B000982F882710E030E020E0980111270027C9
:1009C000800F911FA21FB31F8D0F911DA11DB11D7F
:1009D00050E070E060E0742F662755274427840FAD
:1009E000951FA61FB71F8F3F2FEF9207A207B207D1
:1009F00051F46CE073ED82E191E00E946C048CE0B4
:100A000093EDA2E1B1E080939B0190939C01A093B0
:100A10009D01B0939E018093860190938701A093DE
:100A20008801B0938901DF91CF911F910F910895B3
:100A300010927C0160E08DE991E00E94F7179ECF53
:100A4000CF93C0919601CF3FA1F00E94E302609343
:100A50009001709391018093920190939301809102
:100A6000B401C813C093B40181E191E0CF910C941B
:100A7000FD030E94EA03613D77408105910568F01E
:100A800080919401803618F48DE091E0EFCF877F5C
:100A90008093940185E191E0E9CFCF910895809111
:100AA000B2018F3F21F08DE091E00C94FD030E9494
:100AB000EA03613D77408105910550F080919401F2
:100AC000803618F489E091E0F0CF89E191E0EDCF34
:100AD00008950E94EA03613D77408105910520F465
:100AE0008091940181FF17C08091B3018F3F49F03D
:100AF000809194018E7F8093940189E091E00C9421
:100B0000FD0380919401803618F485E191E0F7CFE0
:100B100089E191E0F4CF0895BF92CF92DF92EF92F6
:100B2000FF920F931F93CF93DF937B01042FB22E7D
:100B300091E59CBD91E09DBD2A98E3E2F0E03197FC
:100B4000F1F70E946504182FE7010150A8F0BB20BF
:100B500051F08FEF0E946504182FE114F104A9F3FE
:100B600088832196F2CF6E018FEFC81AD80A888148
:100B70000E946504E601E9CF2A9A83E290E001979A
:100B8000F1F7812FDF91CF911F910F91FF90EF909F
:100B9000DF90CF90BF900895CF93DF931F92CDB792
:100BA000DEB7698320E041E0BE016F5F7F4F0E94A6
:100BB0008C050F90DF91CF91089580919501982F2A
:100BC0009077903759F0982F92959F709F5F97700C
:100BD0009295907F8F78892B8093950180919401D5
:100BE0008B7F8F7E8093940129986CE080E20C9437
:100BF000CC056FE080E20E94CC05609108016F3F58
:100C000019F08AE20E94CC05299A089521E041E07A
:100C100070E060E00C948C0520E040E070E060E063
:100C20000C948C05FF920F931F93CF93DF938C014D
:100C3000FC01D2818091940180FF55C0DF3F09F013
:100C4000A3C0CFEF8091B201F8018083838182FD40
:100C500063C0C8010E94D60397E0F92EF80E809178
:100C6000B501D1E080FD03C0CF3F09F0D0E0809115
:100C70009A018F5F80939A010115110509F466C0EE
:100C8000299883E092E00197F1F76EE080E20E94FC
:100C9000CC058BE891E00197F1F76C2F8AE20E9476
:100CA000CC056C2F80E30E94CC0581EE0E940C06DF
:100CB000DD2321F060E584E20E94CC0520E04F2D89
:100CC000B80180EA0E948C05299A10E000E08FEFBD
:100CD0000E940C06807319F50F3F100701F1A895CB
:100CE0000F5F1F4FF4CFC091B301DD2309F4AACFEA
:100CF000DF3F09F4A6CF8D2F90E003960E94DF1707
:100D0000C82F8F3F09F09ECFC091B301F8018081B9
:100D1000C81398CFCD2F96CF80E2F82EA0CF299878
:100D200060E787E20E94CC05182F84FF03C081EEA4
:100D30000E940C06DD2321F06FE584E20E94CC05C1
:100D40000E94F90515FF03C0D1E001C0D0E08091F9
:100D5000B3018C1310C080919501D11113C09091F3
:100D600099019F5F9093990191E0980F9F70807F08
:100D7000892B809395018D2FDF91CF911F910F913A
:100D8000FF900895807FF5CFD0E0F5CF20919401BA
:100D900022FD0C94120680E00895FC018091B201BE
:100DA00081839481907F916094838091B10180FFD1
:100DB00003C0CF010C94C60680E008950C94C606CB
:100DC0008FEF80939601E4E9F1E080818860808371
:100DD00028E143E050E06FEF80E00E94F10061E025
:100DE0000E94C4030C941206CF93219A229A299848
:100DF0002A9ACFB7F89480916E01811127C0E9E556
:100E0000F1E08491EDE6F1E09491E82FF0E0EE0F4F
:100E1000FF1FE55CFE4FA591B491EC91E92321F40D
:100E200061E08AE00E940E0261E08AE00E945A02BC
:100E30008CB580618CBD8CB580648CBD61E08DE02B
:100E40000E945A0261E08BE00E945A0280916E017A
:100E50008F5F80936E01CFBF29986EE080E20E9481
:100E6000CC058BE496E40197F1F763E083E20E94FE
:100E7000CC056FE584E20E94CC0560E685E20E9425
:100E8000CC0563E286E20E94CC0564E08DE30E941B
:100E9000CC058DE10E940606843041F063E780E5D1
:100EA0000E94CC0564E08DE30E94CC0586E00E94A0
:100EB0000606833209F04DC085E00E9406068036A2
:100EC00009F047C062E082E20E94CC0560E081E266
:100ED0000E94CC0563E08CE30E94CC058FEF8093E9
:100EE000030120E045E063E071E08BE20E948C05A5
:100EF00020E045E063E071E08AE20E948C0520E09A
:100F000045E063E071E080E30E948C0582EE0E9480
:100F10000C0681EE0E940C0660E787E20E94CC0579
:100F2000809194018061809394018091B5018E7FBE
:100F30008093B50184E68093B20164E690E080E09E
:100F40000E94F717C091B201CF3F41F485E191E0D3
:100F500002C089E191E0CF910C94FD038FEF8C0FDB
:100F60008E3FB8F7C093080163E082E20E94CC058F
:100F700061E081E20E94CC050E94F9056C2F90E0AF
:100F800080E00E94F717E2CF0F931F93CF93DF9378
:100F9000EC018B0180E06115710519F0CB010E9415
:100FA0008E14682FCE010E9485038C818F718C83F3
:100FB000CE010E94D603482F50E0B801CE0107961B
:100FC0000E949714CE010E94D6038C0F9D2F911D75
:100FD000FC011782CE01DF91CF911F910F910895EF
:100FE000CF93DF93262FEA0150E040E0682F80E0A6
:100FF0000E94F100BE010E94C407DF91CF910C94C2
:10100000C6060F931F93CF93DF93EC018B0160E033
:101010000115110539F0F80101900020E9F7319729
:101020006E2F601BCE010E9485038C818F718C8393
:10103000CE010E94D603482F50E0B801CE0107969A
:101040000E948619CE010E94D6038C0F9D2F911D00
:10105000FC011782CE01DF91CF911F910F9108956E
:101060008F929F92AF92BF92CF92DF92EF92FF92B8
:101070000F931F93CF93DF93CDB7DEB760970FB673
:10108000F894DEBF0FBECDBF0E94E3026B017C016E
:1010900028EE33E040E050E00E944018CA01B90158
:1010A0002CE330E040E050E00E9440187F936F93C3
:1010B000C701B60120E63AEE40E050E00E94401839
:1010C00098E1892E912CA12CB12CCA01B901A5015E
:1010D00094010E9440187F936F93C701B60120E8E6
:1010E0003EEE46E350E00E944018CA01B901A50156
:1010F00094010E9440187F936F93C701B60120E0CE
:101100003CE546E255E00E9440183F932F938AE366
:1011100091E09F938F938E010F5F1F4F1F930F934B
:101120000E949519B8018BE593E00E9401080E9486
:10113000CD0688E00E9406068F7063EE7FEF98E090
:10114000899F601971091124209122013091230196
:1011500047E0429FC001439F900D1124680F791F03
:101160000FB6F894DEBF0FBECDBF77FF02C0695F38
:101170007F4F83E0759567958A95E1F7709323011A
:10118000609322018AE393E00E9493030E94CD06BC
:101190006FE271E089E193E00E94C4070E94CD06EE
:1011A00060E670E088EF92E00E9493030E94CD0613
:1011B00070E060E081E294E00E9493030E94CD061B
:1011C0006CE471E080E094E00E9401080E94CD068A
:1011D0006AE171E08CE793E00E94C4070E94CD06AB
:1011E00088EC80937C0080917A00806880937A00FC
:1011F00064E170E080E090E00E94B00280917A00AB
:10120000806480937A0080917A0086FDFCCF6091A3
:1012100078007091790090E080E00E9441172EEAFA
:1012200037E242EA53E40E94621826EF38E24CE9C2
:101230005FE30E94CF180E944119062E000C770B25
:101240008DE993E00E9493030E94CD0660919A017C
:101250008FED93E00E94C4030E94CD066091990136
:101260008EEB93E00E94C4030E94CD0610929A0177
:101270001092990160960FB6F894DEBF0FBECDBFF5
:10128000DF91CF911F910F91FF90EF90DF90CF9062
:10129000BF90AF909F908F9008952BE043E050E077
:1012A0006FEF80E00E94F10061E571E00E940108AB
:1012B0000E94C6062CE043E050E06FEF80E00E9401
:1012C000F1006DE571E00E9401080E94C60643E04E
:1012D00051E064E270E080E50E94F00748EF50E0E2
:1012E00064E270E081E50E94F0074CEE50E064E2B9
:1012F00070E089E50E94F00744EE50E064E270E09F
:1013000088E50E94F0074CED50E064E270E08BE568
:101310000E94F00743ED50E064E270E08CE50E942B
:10132000F00748EC50E064E270E08DE50E94F007C1
:101330004EEB50E064E270E086E40E94F00743EB7D
:1013400050E064E270E080E60E94F0074CEA50E072
:1013500064E270E08AE50E94F0074EE950E064E242
:1013600070E087E40E94F00748E950E064E270E032
:1013700082E50E94F00741E950E064E270E083E515
:101380000E94F0074FE051E06DE070E083E20E94C0
:10139000F00780911D01811102C00C94300808955E
:1013A0008091B2018F3F69F423E043E050E06FEF9A
:1013B00080E00E94F1006DE671E00E9401080C944B
:1013C00012060895E4E9F1E08081897F81608083DD
:1013D000E2EBF1E08FEF8283818327E043E050E08E
:1013E0006FEF0E94F1006DE671E00E9401080C941D
:1013F0001206FC012481229526952770213011F4D4
:1014000087810895211104C007960E944914089508
:1014100080E00895CF93DF93EC018E81873409F04B
:1014200049C08C8184FD46C08D818F3209F042C055
:10143000F8948C81829586958770853009F080C0FC
:101440006F81788589859A8560939B0170939C0153
:1014500080939D0190939E0180919B0190919C01AE
:10146000A0919D01B0919E01809386019093870188
:10147000A0938801B09389011092770110927801AE
:101480001092790110927A0110929F011092A0019E
:101490001092A1011092A20181E0809381016091DC
:1014A0009B0170919C0180919D0190919E010E94F1
:1014B0006C0478948E81863409F04DC08D818F3212
:1014C00009F049C0CE010E94F90980937C01811185
:1014D00008C06AE870E085E992E00E94C4070E94B3
:1014E000CD0680917C01813041F463E870E085E9AC
:1014F00092E00E94C4070E94CD0680917C01833057
:1015000041F461E770E085E992E00E94C4070E941F
:10151000CD0680917C018930F1F468E670E085E9C0
:1015200092E00E94C4070E94CD0688E198E00FB6C1
:10153000F894A895809360000FBE90936000FFCF51
:10154000811105C0CE0107960E9467147DCF60E02F
:1015500070E0CB0179CFDF91CF9108952F923F9228
:101560004F925F926F927F928F929F92AF92BF92B3
:10157000CF92DF92EF92FF920F931F93CF93DF935F
:10158000CDB7DEB7A3970FB6F894DEBF0FBECDBFC1
:101590008091940184FB222720F92BA384FFD6C3DA
:1015A0000E94E30200916F0110917001209171017E
:1015B00030917201601B710B820B930B613A7B4B74
:1015C0008D409105A0F00E94E30260936F0170933B
:1015D0007001809371019093720186E00E9406066B
:1015E000833209F49CC089E191E00E94FD0386E00A
:1015F0008AA3FE0131966F0144EB442E4BE2542E38
:1016000041E1642E712C50E0252E50E0352E87E10B
:101610000E94060680FD9AC3FAA1F150FAA3FF23A7
:1016200009F494C321E041E070E060E080E60E94AC
:101630008C05182F813220F082EE0E940C0610E0FB
:1016400021E0412F6FEE75E081E60E948C0560E499
:1016500087E20E94CC0581E2EFEEF5E0D601019031
:101660000D928A95E1F70C81802F8370823079F694
:10167000C6010E94D60302FD89E1895F1813C7CF16
:101680008FEE95E00E94D603A82E8091F305877017
:10169000F82E1091F4050091F005E090EF05909080
:1016A000F1058091B301E81651F08091B20108175D
:1016B00031F0802F90E06E2D03960E94F7178091F5
:1016C00095018068809395018091B201981250C273
:1016D000EA2DF0E0E151FA4F17828091F30583FF84
:1016E00015C091E2EFEEF5E0AEECB5E001900D92A1
:1016F0009A95E1F7877E80618093D2059092CF051D
:101700000093D0058EEC95E00E94C6069091F305FB
:1017100094FF0CC08FEE95E00E940A0A78CF85E016
:101720000E940606803609F05ECF61CF23E0F212F8
:10173000F1CF8091F40521EF280F233008F467CF13
:10174000143009F464CF1830D9F41091940110FFCB
:101750005ECF8FEE95E00E94F9098F3F09F457CFD5
:101760008F5F8F3F09F453CF9091B401891708F030
:101770004ECF11FD4CCF8093B4010093B30147CFFE
:10178000183159F429E143E050E06FEF802F0E94B7
:10179000F10061E00E94C40320C0193171F480910E
:1017A000940183FF34CF877F809394018FEE95E07F
:1017B0000E94F909809396012ACF1E3109F427CFA0
:1017C0001D3171F42FE143E050E06FEF80E00E94A3
:1017D000F10060E07FEF0E9493030E94120617CF92
:1017E0002091F0052111C0C18D3059F488E198E0B5
:1017F0000FB6F894A895809360000FBE9093600098
:10180000FFCF8B3179F48FEE95E00E94F90991E0DA
:10181000811101C090E08091B10190FB80F980932B
:10182000B101F5CE8630A1F49091F6058BA19923F4
:1018300021F081E09D3409F080E08093B00141E027
:1018400050E063E071E080EB91E00E94E717DFCEAB
:10185000833119F40E94F50EDACE823191F40E94A0
:10186000EA034B015C0126E143E050E06FEF80E0CA
:101870000E94F100B501A4010E94A8030E94C606BF
:10188000C6CE823081F422E043E050E06FEF80E08A
:101890000E94F1004FEF52E063E072E00E94A80363
:1018A0000E94DE06B4CE8130F9F42114310409F42B
:1018B000AECE929596959770953059F46091F60555
:1018C0007091F7058091F8059091F9050E9400004C
:1018D0009ECE911105C086EF95E00E946714F6CF69
:1018E00060E070E0CB01F2CF8A30E9F48091F60538
:1018F000833409F08CCE03E010E06FEFC8010E9442
:10190000F7170F5F1F4F033051E01507B1F72AE0BB
:1019100043E050E06FEF80E00E94F10065E671E087
:101920000E940108BDCF8C3109F0F4CE8091F605FC
:101930008235C1F533E0E32EF12CC7010E94DF1799
:101940008F3F39F19DEF9E0D99838A832CE143E00F
:1019500050E06FEF80E00E94F1008C0162E00E9495
:101960008503F80184818F71806C8483C8010E9493
:10197000D603482F50E0B601C80107960E947D1992
:10198000C8010E94DE0668EC70E080E090E00E94F2
:101990005A0FFFEFEF1AFF0A23E0E21621E0F206EA
:1019A00061F635CE863599F52CE143E050E06FEFD6
:1019B00080E00E94F1008C015EE450937C0066E4BC
:1019C00070E080E090E00E94B00280917A00806434
:1019D00080937A0080917A0086FDFCCFE0907800B9
:1019E000F090790062E0C8010E948503F8018481CB
:1019F0008F7180668483970150E040E0C301B2019B
:101A00000E944018F80130872783C80149CF8634E7
:101A100009F05FC02CE143E050E06FEF80E00E94EE
:101A2000F1008C01F8944091600030918000209189
:101A30008100909182008FEF86BB109285001092FA
:101A40008400109280001092820088E1FDE00FB6C1
:101A5000F894A895809360000FBEF0936000809189
:101A60006000806480936000A89555E050938100E9
:101A70008091600087FFFCCF10928100A895809133
:101A80006000886180936000409360007894E090EB
:101A90008400F09085003093800020938100909323
:101AA000820062E0C8010E948503F80184818F7181
:101AB00080668483B70190E080E02BE0660F771F9B
:101AC000881F991F2A95D1F720EA36E841E050E0B7
:101AD00097CF8D3411F52CE143E050E06FEF80E0BB
:101AE0000E94F1008C01E0901006F0901106E114C4
:101AF000F10421F484E1E82E86E0F82E62E0C801CA
:101B00000E948503F80184818F7180668483C601F9
:101B10008E199F099087878378CF853409F077CD18
:101B20002CE143E050E06FEF80E00E94F10065E6B9
:101B300071E00E9401080E94DE0610E000E06FEFF5
:101B4000C8010E94F7170F5F1F4F0D39F1E01F0703
:101B5000B1F788E198E00FB6F894A89580936000FB
:101B60000FBE90936000FFCF8A3109F0D3CD4FCDE7
:101B70002FEF9212CEC053E0F512B1C080919401C4
:101B800082FF90C0173009F08DC08091B301081713
:101B900009F43DCD0E94E302209190013091910122
:101BA0004091920150919301621B730B840B950B32
:101BB000603177428105910530F18091940183FB7A
:101BC000112710F983FD23CD9091B201911136C0F8
:101BD0001092960180919401877F809394011091D7
:101BE00096011F3F09F413CD0E94E3026093900118
:101BF0007093910180939201909393018091B4012D
:101C000081131093B4010E94E302609390017093DA
:101C1000910180939201909393010E94E30273706B
:101C2000882799270E94B00228E043E050E06FEF38
:101C3000802F0E94F1006091B401ACCD8860809348
:101C400094019092960128E143E050E06FEF80E02C
:101C50000E94F10061E00E94C4030E9412060E94EB
:101C6000E3024B015C011092F4050E94E302681943
:101C700079098A099B09603D77408105910508F043
:101C8000A9CF1111A7CF0E94AE0AA8958091F305A4
:101C90008770833051F711E08091F405893129F381
:101CA00010E0E3CF183009F4B2CC1431C1F48091C4
:101CB000B301E81214C00E94E302737088279927C9
:101CC0000E94B00225E143E050E06FEF802F0E94B8
:101CD000F1006091B3010E94C4030E94120680913A
:101CE000B301E81294CC8091B201081759F18091A8
:101CF000940182FF27C08FEE95E00E94120623E038
:101D0000F21609F484CC8091B301E81609F402CDEF
:101D10007ECC8091940182FF7ACC53E0F5120FC003
:101D20001851123060F48FEE95E00E94F9098E3F51
:101D300031F061E0680F8FEE95E00E94C4038FEEF2
:101D400095E04BCD83E0F812E5CC61CCA3960FB6BD
:101D5000F894DEBF0FBECDBFDF91CF911F910F91E1
:101D6000FF90EF90DF90CF90BF90AF909F908F90BB
:101D70007F906F905F904F903F902F900895CF92FB
:101D8000DF92EF92FF92CF93DF93D82F0E94E3026E
:101D90006B017C018091F30587608093F305C0E0BF
:101DA0000E94E3026C197D098E099F09603D77400E
:101DB0008105910590F4C11110C0A8950E94DF0320
:101DC0000E94AE0A8091F3058770833049F7C1E025
:101DD0008091F4058D13E3CFE3CF8C2FDF91CF916A
:101DE000FF90EF90DF90CF9008952FE043E050E018
:101DF0006FEF80E00E94F1006DE671E00E94010843
:101E000062E08EEC95E00E948503EEECF5E08481C3
:101E10008F71806C848381E087831086CF010E945C
:101E2000C6068FE00E94BF0E22E150E040E06FEF57
:101E300080E00E94F10068E671E00E9401080E94C3
:101E4000C60626E043E050E06FEF80E00E94F1001C
:101E50006091B3010E94C4030E94DE0686E00E94E6
:101E6000BF0E0C944D09CF938091B10181FD20C02C
:101E70000E94F50E8091B10181608093B101C4E0B0
:101E80002AE143E050E06FEF80E00E94F10062E061
:101E90000E94C4030E94DE068BE10E94BF0E8111E6
:101EA00002C0C15069F78091B10182608093B10195
:101EB000CF9108958F929F92AF92BF92CF92DF926F
:101EC000EF92FF924B015C010E94E3026B017C01E7
:101ED0000E94E3026C197D098E099F096815790536
:101EE0008A059B0530F4A8950E94DF030E94AE0A84
:101EF000EFCFFF90EF90DF90CF90BF90AF909F908B
:101F00008F900895CF92DF92EF92FF920F931F93DD
:101F100040919B0150919C0160919D0170919E01A7
:101F20008091860190918701A0918801B0918901EB
:101F3000481759076A077B0751F066E970E080E0AF
:101F400090E00E945A0F61E088E00E940E020E9419
:101F5000E3026B017C018091820190918301A09149
:101F60008401B091850197018601081B190B2A0B8A
:101F70003B0BD901C801813E9349A440B10540F40F
:101F800080911D01811104C080918101882309F194
:101F9000C0928201D0928301E0928401F092850187
:101FA00080918101882399F01092810188E18093CA
:101FB000EC0440919B0150919C0160919D017091B6
:101FC0009E0187EE94E00E94A8030E94CD060E9425
:101FD000300880911D0140917D0150917E016091FA
:101FE0007F017091800197018601041B150B260B60
:101FF000370BB901A80141385E4E6643710510F4F4
:10200000882319F1C0927D01D0927E01E0927F0178
:10201000F0928001882309F40FC110921D01609194
:102020007C0183E694E00E94C4030E94CD064091A7
:102030009B0150919C0160919D0170919E0182E4F1
:1020400094E00E94A8030E94CD0680917B0183301A
:1020500018F110927B011092770110927801109282
:10206000790110927A0110929F011092A0011092B2
:10207000A1011092A20181E18093EC0440919F01A3
:102080005091A0016091A1017091A20187EE94E0AE
:102090000E94A8030E94CD06809173019091740163
:1020A000A0917501B0917601A7019601281B390B0B
:1020B0004A0B5B0BDA01C90181339547A105B105D4
:1020C00008F4B3C0C0927301D0927401E09275011C
:1020D000F092760140919F015091A0016091A10181
:1020E0007091A2018091770190917801A09179017E
:1020F000B0917A01481759076A077B0779F18091F7
:102100009F019091A001A091A101B091A201803EF8
:102110009E42A105B10508F09CC081E18093EC04CA
:1021200040919F015091A0016091A1017091A20185
:1021300087EE94E00E94A8030E94CD0680919F0143
:102140009091A001A091A101B091A201809377018B
:1021500090937801A0937901B0937A0140919B010B
:1021600050919C0160919D0170919E01809186012A
:1021700090918701A0918801B09189014817590772
:102180006A077B0709F470C088E18093EC044091F2
:102190009B0150919C0160919D0170919E0187EE81
:1021A00094E00E94A8030E94CD06C0909B01D090AD
:1021B0009C01E0909D01F0909E0180919B01909187
:1021C0009C01A0919D01B0919E0180938601909306
:1021D0008701A0938801B093890182E18093EC0488
:1021E00065E087EE94E00E9485038091EB04806EA9
:1021F0008093EB04C701B6010E94411720E030E054
:102200004AE754E40E94CF186093EE047093EF0401
:102210008093F0049093F10483E08093F20487EEBE
:1022200094E00E94CD0610927B011F910F91FF90C8
:10223000EF90DF90CF90089560919B0170919C0189
:1022400080919D0190919E010E946C040E94300833
:10225000E6CE40919F015091A0016091A101709143
:10226000A20185E992E066CF80917B018F5F809328
:102270007B01DBCF1F920F920FB60F9211242F9389
:102280003F934F935F936F937F938F939F93AF93FE
:10229000BF93EF93FF9386EB91E00E947501FF914E
:1022A000EF91BF91AF919F918F917F916F915F91CE
:1022B0004F913F912F910F900FBE0F901F90189547
:1022C0001F920F920FB60F9211242F938F939F930B
:1022D000EF93FF93E091C601F091C7018081E091F7
:1022E000CC01F091CD0182FD1BC090818091CF0186
:1022F0008F5F8F732091D001821741F0E091CF0161
:10230000F0E0EA54FE4F958F8093CF01FF91EF915B
:102310009F918F912F910F900FBE0F901F90189546
:102320008081F4CF1F920F920FB60F9211242F933A
:102330003F938F939F93AF93BF938091A801909108
:10234000A901A091AA01B091AB013091A70123E0AE
:10235000230F2D3758F50196A11DB11D2093A7011C
:102360008093A8019093A901A093AA01B093AB0117
:102370008091AC019091AD01A091AE01B091AF01FF
:102380000196A11DB11D8093AC019093AD01A09366
:10239000AE01B093AF01BF91AF919F918F913F91EB
:1023A0002F910F900FBE0F901F90189526E8230FC6
:1023B0000296A11DB11DD2CF1F920F920FB60F92A0
:1023C00011242F933F934F935F936F937F938F933A
:1023D0009F93AF93BF93EF93FF93E0912601F0910A
:1023E00027010995FF91EF91BF91AF919F918F9137
:1023F0007F916F915F914F913F912F910F900FBE01
:102400000F901F9018951F920F920FB60F921124E4
:102410002F933F934F935F936F937F938F939F93EC
:10242000AF93BF93EF93FF93E0912401F0912501C7
:102430000995FF91EF91BF91AF919F918F917F91FE
:102440006F915F914F913F912F910F900FBE0F9021
:102450001F9018951F920F920FB60F9211240F9094
:102460000FBE0F901F901895CF93DF93FC01108241
:1024700011821282148215821682DC0117968AE17B
:10248000ED0119928A95E9F782E08383DF91CF917C
:102490000895CF93E6EBF1E01382128288EE93E089
:1024A000A0E0B0E084839583A683B7838CE291E0BB
:1024B0009183808385EC90E09587848784EC90E01D
:1024C0009787868780EC90E0918B808B81EC90E001
:1024D000938B828B82EC90E0958B848B86EC90E0E2
:1024E000978B868B118E128E138E148E8FEE95E045
:1024F0000E9434128EEC95E00E9434128DEA95E031
:102500000E943412EDEAF5E08AE0868315828CE8B9
:1025100095E00E943412ECE8F5E082E18683CFE298
:10252000C5838BE695E00E943412EBE6F5E083E18B
:102530008683C5838AE495E00E943412EAE4F5E0DC
:1025400084E18683C58389E295E00E943412E9E242
:10255000F5E08CE18683C58388E095E00E94341223
:10256000E8E0F5E08EE18683C58387EE94E00E9483
:102570003412E7EEF4E083E2868381E1858386EC22
:1025800094E00E943412E6ECF4E088E28683C5838E
:1025900085EA94E00E943412E5EAF4E082E386835F
:1025A00083E0858384E894E00E943412E4E8F4E058
:1025B00083E3868382E0858383E694E00E9434127D
:1025C000E3E6F4E086E48683C58382E494E00E9437
:1025D0003412E2E4F4E087E48683C58381E294E088
:1025E0000E943412E1E2F4E080E58683C58380E056
:1025F00094E00E943412E0E0F4E081E58683C58334
:102600008FED93E00E943412EFEDF3E082E58683D4
:10261000C5838EEB93E00E943412EEEBF3E083E58A
:102620008683C5838DE993E00E943412EDE9F3E0DF
:1026300088E58683C5838CE793E00E943412ECE73B
:10264000F3E089E58683C5838BE593E00E9434122D
:10265000EBE5F3E08AE58683C5838AE393E00E9495
:102660003412EAE3F3E08BE58683C58389E193E0E6
:102670000E943412E9E1F3E08CE58683C58388EF9C
:1026800092E00E943412E8EFF2E08DE58683C58384
:1026900087ED92E00E943412E7EDF2E08EE586834A
:1026A000C58386EB92E00E943412E6EBF2E08FE500
:1026B0008683C58385E992E00E943412E5E9F2E061
:1026C00080E68683C58384E792E00E943412E4E7C3
:1026D000F2E081E68683C58383E592E00E943412AE
:1026E000E3E5F2E083E6868386E28583CF91089571
:1026F000789484B5826084BD84B5816084BD85B5DD
:10270000826085BD85B5816085BD80916E008160E8
:1027100080936E001092810080918100826080938E
:102720008100809181008160809381008091800090
:102730008160809380008091B10084608093B100BB
:102740008091B00081608093B00080917A008460B5
:1027500080937A0080917A00826080937A008091E1
:102760007A00816080937A0080917A0080688093FB
:102770007A001092C100A895E091C601F091C701BE
:1027800082E08083E091C201F091C3011082E09168
:10279000C401F091C50180E180831092CE01E091E7
:1027A000CA01F091CB0186E08083E091C801F091ED
:1027B000C901808180618083E091C801F091C901E5
:1027C000808188608083E091C801F091C901808197
:1027D00080688083E091C801F091C90180818F7D7C
:1027E00080838091B1018D7F8093B1010E94B104FB
:1027F00041E050E063E071E080EB91E00E94CF1790
:102800006FEF81E090E00E94F717809195018F783B
:102810008093950110928B0110928A018EE191E0D4
:102820000E94FD0383E39FE09093980180939701BA
:102830000E94E3026B017C010E94E3026C197D0996
:102840008E099F096838734181059105A8F00E949F
:102850004A03A895C0E0D0E0A8950E94DF030E943B
:10286000AE0A0E94820F2097B9F30E946B01882361
:1028700099F30E940000F0CF0E94DF030E94AE0A8D
:102880008091940182FB882780F9A8958111DFCF80
:10289000D3CFFC0188279927E89421912032E9F3CE
:1028A000293010F02E30C8F32B3241F02D3239F49C
:1028B000689404C00E94BB14820F911D2191205383
:1028C0002A30C0F31EF4909581959F4F08951F9371
:1028D000FC0199278827BC01E89411911032E9F393
:1028E000193010F01E30C8F31B3251F01D3249F47C
:1028F000689406C00E94A614610F711D811D911D70
:10290000119110531A30B0F33EF490958095709564
:1029100061957F4F8F4F9F4F1F910895FC01059048
:102920000020E9F7809590958E0F9F1F0895FB0179
:10293000DC014150504048F005900D920020C9F74D
:1029400001C01D9241505040E0F70895592F482F83
:10295000372F262F660F771F881F991F660F771F47
:10296000881F991F620F731F841F951F660F771FA3
:10297000881F991F08957AE0979F902D879F802D3B
:10298000910D11240895ABE0B0E0E9ECF4E10C9472
:1029900009187C013B018A01FC01178216828381A0
:1029A00081FFC8C1CE0101965C01F7019381F3015B
:1029B00093FD859193FF81913F01882309F453C1D1
:1029C000853239F493FD859193FF81913F018532E2
:1029D00029F4B70190E00E94B316E7CF912C212C87
:1029E000312CFFE1F31538F08B3211F190F4803285
:1029F00009F1833229F137FC3CC020ED280F2A3041
:102A000050F536FE20C08AE0989E200D1124922EAB
:102A100006C08D3291F0803371F7689430F8F3017D
:102A200093FD859193FF81913F018111DACF21C000
:102A3000689431F8689432F8F2CF689433F8EFCFA5
:102A4000689434F8ECCFEAE02E9E200D1124222E5B
:102A5000689435F8E4CF8E3229F436FC04C16894CA
:102A600036F8DDCF8C3619F4689437F8D8CF88362D
:102A7000B1F2982F9F7D95549330E0F08336A1F109
:102A80008337C1F1833509F063C02801F2E04F0EAE
:102A9000511CF801C080D180692D70E036FC02C065
:102AA0006FEF7FEFC6010E949D164C01689437F8C6
:102AB00082010AC00C5F1F4FFFE3F98388248394CF
:102AC000912C6501E89437F833FE2DC0522C811407
:102AD000910471F5552009F468CFB70180E290E0C8
:102AE0000E94B3165A94F6CFF801808189830E5F55
:102AF0001F4FE4CF2801F2E04F0E511CF801C080B7
:102B0000D180692D70E036FC02C06FEF7FEFC60107
:102B10000E94A8164C018201D5CFB70180E290E057
:102B20000E94B3162A942814190409F0B0F7CECFE6
:102B3000F60137FC859137FE81916F01B70190E076
:102B40000E94B31651105A94F1E08F1A9108BFCF2A
:102B5000843619F0893609F077C0F80137FE6BC06A
:102B600060817181828193810C5F1F4FF32DFF760D
:102B70003F2E97FF09C090958095709561957F4F86
:102B80008F4F9F4F689437F82AE030E0A5010E94EC
:102B9000E316C82ECA188C2C432C36FE0CC0E894C1
:102BA00040F8C91440F434FE05C032FC03C0F32DD4
:102BB000FE7E4F2E892C44FE95C0FE01EC0DF11DCA
:102BC0008081803309F087C0242D297E422E842DF8
:102BD0008870582E43FC95C040FE8FC09C2C8214F8
:102BE00018F42C0C922C981844FE91C0B70180E385
:102BF00090E00E94B31642FE09C088E790E041FED3
:102C000002C088E590E0B7010E94B316C91408F429
:102C10008AC0CA94D12C9FEFC91AD90ACA0CDB1CEE
:102C2000F60182916F01B70190E00E94B316AC14D7
:102C3000BD04B1F74FCF60817181072E000C880B66
:102C4000990B0E5F1F4F92CFD32CE894D4F82AE053
:102C500030E0853739F1232D297FD22E8F3601F1CF
:102C600048F48835A9F0F701868197812B96E2E137
:102C70000C942518803749F08837A9F7D4FE02C094
:102C80006894D2F820E130E00DC06894D4F8F6CF13
:102C900034FE03C0822F8660D82E20E132E002C0CD
:102CA00028E030E0F801D7FE0FC060817181828199
:102CB00093810C5F1F4FA5010E94E316C82ECA180E
:102CC0003D2CE89437F867CF6081718190E080E017
:102CD0000E5F1F4FF0CF42FC02C0839478CF8394E5
:102CE000839475CF842D867809F471CFF6CFB70120
:102CF00080E290E00E94B31683948214C0F3512CBA
:102D000073CF522C5818821408F46ECFF8CF842D4C
:102D1000867809F47BCF8BE241FE80E247FC8DE2AE
:102D2000B70190E071CFB70180E390E00E94B31645
:102D30009A946CCF8FEF9FEF99CFFC010590615073
:102D400070400110D8F7809590958E0F9F1F0895C1
:102D5000FC016150704001900110D8F7809590956A
:102D60008E0F9F1F08950F931F93CF93DF93182FFC
:102D7000092FEB018B8181FD09C01FEF0FEF812F20
:102D8000902FDF91CF911F910F91089582FF14C072
:102D90002E813F818C819D81281739073CF4E88181
:102DA000F981CF0101969983888310838E819F8159
:102DB00001969F838E83E3CFE885F985812F09955E
:102DC000892BA1F3DACFFA01AA27283051F120315B
:102DD00081F1E8946F936E7F6E5F7F4F8F4F9F4FAF
:102DE000AF4FB1E03ED0B4E03CD0670F781F891FF1
:102DF0009A1FA11D680F791F8A1F911DA11D6A0FBF
:102E0000711D811D911DA11D20D009F468943F9171
:102E10002AE0269F11243019305D3193DEF6CF0170
:102E20000895462F4770405D4193B3E00FD0C9F736
:102E3000F6CF462F4F70405D4A3318F0495D31FDA3
:102E40004052419302D0A9F7EACFB4E0A6959795F6
:102E5000879577956795BA95C9F7009761057105CC
:102E600008959B01AC010A2E069457954795379516
:102E70002795BA95C9F7620F731F841F951FA01D70
:102E80000895E89409C097FB3EF49095809570955D
:102E900061957F4F8F4F9F4F9923A9F0F92F96E9A6
:102EA000BB279395F695879577956795B795F1111B
:102EB000F8CFFAF4BB0F11F460FF1BC06F5F7F4FB8
:102EC0008F4F9F4F16C0882311F096E911C07723CA
:102ED00021F09EE8872F762F05C0662371F096E8D3
:102EE000862F70E060E02AF09A95660F771F881FA2
:102EF000DAF7880F9695879597F9089597F99F6760
:102F000080E870E060E008959FEF80EC0895002471
:102F10000A941616170618060906089500240A943E
:102F200012161306140605060895092E0394000CC4
:102F300011F4882352F0BB0F40F4BF2B11F460FF53
:102F400004C06F5F7F4F8F4F9F4F089557FD90587C
:102F5000440F551F59F05F3F71F04795880F97FB5D
:102F6000991F61F09F3F79F0879508951216130617
:102F70001406551FF2CF4695F1DF08C01616170646
:102F80001806991FF1CF869571056105089408957B
:102F9000E894BB2766277727CB0197F90895DC01D2
:102FA000CB01FC01F999FECF06C0F2BDE1BDF89A54
:102FB000319600B40D9241505040B8F70895F999F8
:102FC000FECF92BD81BDF89A992780B50895DC01A6
:102FD000A40FB51F4150504048F0CB01840F951FFE
:102FE0002E910E94F81741505040D0F70895262F97
:102FF000F999FECF92BD81BDF89A019700B40216EF
:1030000039F01FBA20BD0FB6F894FA9AF99A0FBE9C
:1030100008952F923F924F925F926F927F928F927C
:103020009F92AF92BF92CF92DF92EF92FF920F9357
:103030001F93CF93DF93CDB7DEB7CA1BDB0B0FB661
:10304000F894DEBF0FBECDBF09942A88398848881E
:103050005F846E847D848C849B84AA84B984C884B4
:10306000DF80EE80FD800C811B81AA81B981CE0FAB
:10307000D11D0FB6F894DEBF0FBECDBFED01089590
:10308000A1E21A2EAA1BBB1BFD010DC0AA1FBB1F6C
:10309000EE1FFF1FA217B307E407F50720F0A21BDE
:1030A000B30BE40BF50B661F771F881F991F1A944B
:1030B00069F760957095809590959B01AC01BD0175
:1030C000CF0108955058BB27AA270E947A180C9464
:1030D00095170E94871738F00E948E1720F039F458
:1030E0009F3F19F426F40C9484170EF4E095E7FB47
:1030F0000C947E17E92F0E94A61758F3BA1762079F
:1031000073078407950720F079F4A6F50C94C81787
:103110000EF4E0950B2EBA2FA02D0B01B9019001F2
:103120000C01CA01A0011124FF27591B99F0593F36
:1031300050F4503E68F11A16F040A22F232F342F7E
:103140004427585FF3CF469537952795A795F040CC
:103150005395C9F77EF41F16BA0B620B730B840BE1
:10316000BAF09150A1F0FF0FBB1F661F771F881F99
:10317000C2F70EC0BA0F621F731F841F48F48795F1
:1031800077956795B795F7959E3F08F0B0CF9395E3
:10319000880F08F09927EE0F9795879508950E945C
:1031A000E3180C9495170E948E1758F00E94871709
:1031B00040F029F45F3F29F00C947E1751110C94D4
:1031C000C9170C9484170E94A61768F39923B1F3CA
:1031D000552391F3951B550BBB27AA27621773073D
:1031E000840738F09F5F5F4F220F331F441FAA1FD1
:1031F000A9F335D00E2E3AF0E0E832D0915050408D
:10320000E695001CCAF72BD0FE2F29D0660F771F3A
:10321000881FBB1F261737074807AB07B0E809F020
:10322000BB0B802DBF01FF2793585F4F3AF09E3FA5
:10323000510578F00C947E170C94C9175F3FE4F3A6
:10324000983ED4F3869577956795B795F7959F5FE8
:10325000C9F7880F911D9695879597F90895E1E034
:10326000660F771F881FBB1F621773078407BA0793
:1032700020F0621B730B840BBA0BEE1F88F7E095EE
:1032800008950E9448196894B1110C94C9170895C3
:103290000E94AE1788F09F5798F0B92F9927B75121
:1032A000B0F0E1F0660F771F881F991F1AF0BA95EA
:1032B000C9F714C0B13091F00E94C817B1E0089569
:1032C0000C94C817672F782F8827B85F39F0B93F5B
:1032D000CCF3869577956795B395D9F73EF490959D
:1032E0008095709561957F4F8F4F9F4F0895EE0F9A
:1032F000FF1F0590F491E02D0994FB01DC0102C051
:1033000001900D9241505040D8F70895FB01DC0127
:103310004150504048F001900D920020C9F701C083
:103320001D9241505040E0F70895AEE0B0E0EBE967
:10333000F9E10C9417180D891E8986E08C831A8395
:1033400009838FEF9FE79E838D83AE01475E5F4FBA
:103350006F89788DCE0101960E94C3142F81388524
:10336000020F131FF80110822E96E4E00C9433181C
:04337000F894FFCFFF
:10337400FFFFFF00FCE1A8A8FFD0094F05E00620ED
:103384000553044904E2096905DD05290401910492
:10339400F406E3FFEF02EF020000000097010101D1
:1033A4002E01E4015F013D015101256420253032E5
:1033B400643A253032643A25303264004155544F22
:1033C40000456E657267794D6574657200312E35FE
:0E33D4002D303038004F4B00322E332E320099
:00000001FF
