:100000000C94A5000C94B5100C948E100C94CD009B
:100010000C94CD000C94CD000C94DC100C94CD000D
:100020000C94CD000C94CD000C94CD000C94CD001C
:100030000C94CD000C94CD000C94CD000C94CD000C
:100040000C9444100C94CD000C9412100C94EC0FF2
:100050000C94CD000C94CD000C94CD000C94CD00EC
:100060000C94CD000C94CD0068775265626F6F746C
:100070000064626733206E6F7420706F73736962FF
:100080006C6500646267332031006462673320303E
:1000900000547820455252005478204F4B0053654D
:1000A000744765744D6574657256616C756500487A
:1000B0007754696D65004462675F52657475726E4E
:1000C000004462675F4C6576656C00436F6D7069D4
:1000D0006C654461746500506F7765724D65746539
:1000E00072004E6F76203235203230323220303975
:1000F0003A35363A34390000000000240027002A3F
:100100000000000000250028002B00040404040463
:1001100004040402020202020203030303030301B4
:10012000020408102040800102040810200102048B
:10013000081020000000080002010000030407006E
:100140000000000000000000FB1011241FBECFEFD4
:10015000D8E0DEBFCDBF11E0A0E0B1E0E2EDF8E213
:1001600002C005900D92A635B107D9F723E0A6E5A8
:10017000B1E001C01D92A836B207E1F710E0C5EA70
:10018000D0E004C02197FE010E944914C43AD1076F
:10019000C9F70E9473110C9467140C940000942FFB
:1001A000E2E2F3E030919A01318382836683258312
:1001B0004481487F492B477E4483CF010895AF9205
:1001C000BF92CF92DF92EF92FF920F931F93CF9344
:1001D000DF936C017B018B01040F151FEB015E01A6
:1001E000AE18BF08C017D10759F06991D601ED913B
:1001F000FC910190F081E02DC6010995892B79F7DA
:10020000C501DF91CF911F910F91FF90EF90DF908B
:10021000CF90BF90AF900895FC01538D448D252F52
:1002200030E0842F90E0821B930B541710F0CF9690
:10023000089501970895FC01918D828D981761F0C2
:10024000A28DAE0FBF2FB11D5D968C91928D9F5FD9
:100250009F73928F90E008958FEF9FEF0895FC01B8
:10026000918D828D981731F0828DE80FF11D858D6B
:1002700090E008958FEF9FEF0895FC01918D228DFE
:10028000892F90E0805C9F4F821B91098F73992783
:1002900008958EE991E00E943D0121E0892B09F447
:1002A00020E0822F0895FC01A48DA80FB92FB11D65
:1002B000A35ABF4F2C91848D90E001968F7399279C
:1002C000848FA689B7892C93A089B1898C9183707A
:1002D00080648C93938D848D981306C00288F38973
:1002E000E02D80818F7D80830895EF92FF920F93A0
:1002F0001F93CF93DF93EC0181E0888F9B8D8C8DD2
:1003000098131AC0E889F989808185FF15C09FB7C5
:10031000F894EE89FF896083E889F9898081837088
:10032000806480839FBF81E090E0DF91CF911F9137
:100330000F91FF90EF900895F62E0B8D10E00F5F58
:100340001F4F0F731127E02E8C8D8E110CC00FB62E
:1003500007FCFACFE889F989808185FFF5CFCE01C6
:100360000E945301F1CFEB8DEC0FFD2FF11DE35AED
:10037000FF4FF0829FB7F8940B8FEA89FB89808149
:100380008062CFCFCF93DF93EC01888D8823B9F0C3
:10039000AA89BB89E889F9898C9185FD03C0808190
:1003A00086FD0DC00FB607FCF7CF8C9185FFF2CF0D
:1003B000808185FFEDCFCE010E945301E9CFDF910F
:1003C000CF91089580E090E0892B29F00E944901A7
:1003D00081110C940000089590E0FC01ED5CFE4F4B
:1003E0002491FC01E15EFE4F3491FC01E55FFE4F7C
:1003F000E491EE23C9F0222339F0233001F1A8F46F
:10040000213019F1223029F1F0E0EE0FFF1FEF5FEC
:10041000FE4FA591B4918FB7F894EC91611126C06D
:1004200030953E233C938FBF08952730A9F02830A4
:10043000C9F0243049F7809180008F7D03C08091FE
:1004400080008F7780938000DFCF84B58F7784BD65
:10045000DBCF84B58F7DFBCF8091B0008F77809309
:10046000B000D2CF8091B0008F7DF9CF3E2BDACF94
:10047000CF93DF9390E0FC01E15EFE4F2491855F16
:100480009E4FFC0184918823D1F090E0880F991F42
:10049000FC01E950FF4FA591B491FC01EF5FFE4FC5
:1004A000C591D491623071F49FB7F8943C91822F3A
:1004B000809583238C93E8812E2B28839FBFDF9127
:1004C000CF9108958FB7F894EC912E2B2C938FBF7A
:1004D000F6CF3FB7F8948091940190919501A09147
:1004E0009601B091970126B5A89B05C02F3F19F042
:1004F0000196A11DB11D3FBFBA2FA92F982F8827A4
:10050000BC01CD01620F711D811D911D42E0660F7E
:10051000771F881F991F4A95D1F708958F929F9250
:10052000AF92BF92CF92DF92EF92FF926B017C016C
:100530000E9469024B015C01C114D104E104F10481
:10054000B9F00E946902681979098A099B09683E15
:1005500073408105910580F321E0C21AD108E108BA
:10056000F10888EE880E83E0981EA11CB11CE4CF30
:10057000FF90EF90DF90CF90BF90AF909F908F90C3
:1005800008952FB7F8946091900170919101809136
:100590009201909193012FBF08950895CF92DF9219
:1005A000EF92FF920E94C1026B017C0180918B014E
:1005B00090918C01A0918D01B0918E01A7019601BF
:1005C000281B390B4A0B5B0BCA01B9016436710554
:1005D00081059105B8F10E94BE129B01AC0160E05B
:1005E00078EC8FEA98E40E9486130E94F8136093D7
:1005F0008701709388018093890190938A01C0924A
:100600008B01D0928C01E0928D01F0928E0180914D
:10061000830190918401A0918501B091860101969A
:10062000A11DB11D8093830190938401A093850146
:10063000B093860160E088E0FF90EF90DF90CF906C
:100640000C94EC01FF90EF90DF90CF900895089507
:1006500061E088E00E94380261E088E00E94EC01DD
:1006600062E083E00E9438020E94C10260936A0146
:1006700070936B0180936C0190936D0160935B01AB
:1006800070935C0180935D0190935E0160938B0198
:1006900070938C0180938D0190938E01609365011E
:1006A0007093660180936701909368018EEC92E0ED
:1006B0009093250180932401E9E6F0E080818C602D
:1006C0008083E99A0895FC01938197706A3108F05C
:1006D00069E188E0689FB0011124692B6383CF0131
:1006E0000895CF92DF92EF92FF92CF93DF93EC01C8
:1006F0006A017B0164E00E9463038C818F71806AD0
:100700008C83CF82D886E986FA86CE01DF91CF919D
:10071000FF90EF90DF90CF9008951F93CF93DF93DA
:10072000EC01162F61E00E9463038C818F7180625F
:100730008C831F83CE01DF91CF911F910895FC011F
:1007400083818695869586958A3108F089E108959A
:10075000E0917201F0917301309721F00280F381F2
:10076000E02D099408950F931F930E94C1020091F8
:100770007401109175012091760130917701601B11
:10078000710B820B930B1F910F9108959C01809127
:1007900072019091730182179307F1F090917C019F
:1007A0009F7190937C013093730120937201E091CB
:1007B0007201F0917301309721F00190F081E02DEA
:1007C00009950E94C1026093740170937501809332
:1007D000760190937701089580917C01805E8093EB
:1007E0007C01E5CF0F931F930E94B30320917D01FD
:1007F0002077203779F000E117E220E030E006179B
:1008000017072807390758F48EE191E01F910F91DF
:100810000C94C60300E61AEE20E030E0F0CF1F9102
:100820000F91089580917D018F708B3020F085E1CC
:1008300091E00C94C603089580917C0184608093BC
:100840007C0180917D01807880937D01E0917F0122
:10085000F0918001309709F0099408958EBD000051
:100860000DB407FEFDCF8EB50895CF92DF92EF92C3
:10087000FF926B017C018EE991E00E94741399272D
:100880008F2D7E2D6D2D8FE991E00E947413B7019D
:100890008827992780EA91E00E9474136F2D7727AB
:1008A0008827992781EA91E0FF90EF90DF90CF9021
:1008B0000C947413ECE7F1E08081877F8F7E808356
:1008C000109278011092790110927A0110927B01B6
:1008D0000E94C1026093570170935801809359019F
:1008E00090935A0144E050E070E060E08AE991E0C2
:1008F0000C944C130F931F93CF93DF938DE991E0EA
:100900000E945C138A3008F05CC0809364018EE919
:1009100091E00E945C13D82F8FE991E00E945C1354
:10092000C82F80EA91E00E945C13082F81EA91E0D1
:100930000E945C13482F8C2F90E0B0E0A0E0BA2F0B
:10094000A92F982F882710E030E020E09801112788
:100950000027800F911FA21FB31F8D0F911DA11D96
:10096000B11D50E070E060E0742F662755274427E2
:10097000840F951FA61FB71F8F3F2FEF9207A20767
:10098000B20751F46CE073ED82E191E00E9435040E
:100990008CE093EDA2E1B1E0809383019093840118
:1009A000A0938501B093860180936E0190936F01AF
:1009B000A0937001B0937101DF91CF911F910F91BE
:1009C00008951092640160E08DE991E00E94741333
:1009D0009ECFCF93C0917E01CF3FA1F00E94C10274
:1009E000609378017093790180937A0190937B01F1
:1009F00080919C01C813C0939C0181E191E0CF914B
:100A00000C94C6030E94B303613D774081059105B4
:100A100068F080917C01803618F48DE091E0EFCF92
:100A2000877F80937C0185E191E0E9CFCF910895A4
:100A300080919A018F3F21F08DE091E00C94C603E4
:100A40000E94B303613D77408105910550F080918C
:100A50007C01803618F489E091E0F0CF89E191E0E3
:100A6000EDCF08950E94B303613D77408105910564
:100A700020F480917C0181FF17C080919B018F3F02
:100A800049F080917C018E7F80937C0189E091E028
:100A90000C94C60380917C01803618F485E191E0C6
:100AA000F7CF89E191E0F4CF0895BF92CF92DF9222
:100AB000EF92FF920F931F93CF93DF937B01042F4D
:100AC000B22E91E59CBD91E09DBD2A98E3E2F0E055
:100AD0003197F1F70E942E04182FE7010150A8F07A
:100AE000BB2051F08FEF0E942E04182FE114F10467
:100AF000A9F388832196F2CF6E018FEFC81AD80A26
:100B000088810E942E04E601E9CF2A9A83E290E0D0
:100B10000197F1F7812FDF91CF911F910F91FF90F6
:100B2000EF90DF90CF90BF900895CF93DF931F9207
:100B3000CDB7DEB7698320E041E0BE016F5F7F4F34
:100B40000E9455050F90DF91CF91089580917D010E
:100B5000982F9077903759F0982F92959F709F5FBC
:100B600097709295907F8F78892B80937D018091EB
:100B70007C018B7F8F7E80937C0129986CE080E2E2
:100B80000C9495056FE080E20E9495056091080144
:100B90006F3F19F08AE20E949505299A089521E095
:100BA00041E070E060E00C94550520E040E070E02A
:100BB00060E00C945505FF920F931F93CF93DF9342
:100BC0008C01FC01D28180917C0180FF55C0DF3F08
:100BD00009F0A3C0CFEF80919A01F801808383814F
:100BE00082FD63C0C8010E949F0397E0F92EF80EB2
:100BF00080919D01D1E080FD03C0CF3F09F0D0E09E
:100C0000809182018F5F809382010115110509F4A3
:100C100066C0299883E092E00197F1F76EE080E2E8
:100C20000E9495058BE891E00197F1F76C2F8AE21D
:100C30000E9495056C2F80E30E94950581EE0E942D
:100C4000D505DD2321F060E584E20E94950520E0D2
:100C50004F2DB80180EA0E945505299A10E000E066
:100C60008FEF0E94D505807319F50F3F100701F132
:100C7000A8950F5F1F4FF4CFC0919B01DD2309F4AE
:100C8000AACFDF3F09F4A6CF8D2F90E003960E94F4
:100C90005C13C82F8F3F09F09ECFC0919B01F801D4
:100CA0008081C81398CFCD2F96CF80E2F82EA0CFA9
:100CB000299860E787E20E949505182F84FF03C0FA
:100CC00081EE0E94D505DD2321F06FE584E20E94CC
:100CD00095050E94C20515FF03C0D1E001C0D0E018
:100CE00080919B018C1310C080917D01D11113C0A4
:100CF000909181019F5F9093810191E0980F9F7087
:100D0000807F892B80937D018D2FDF91CF911F9163
:100D10000F91FF900895807FF5CFD0E0F5CF20911F
:100D20007C0122FD0C94DB0580E00895FC0180919C
:100D30009A0181839481907F91609483809199013D
:100D400080FF03C0CF010C948F0680E00895CF92FE
:100D5000DF92EF92FF920E94B3036B017C0126E1C8
:100D600043E050E06FEF80E00E94CF00B701A601A2
:100D70000E947103FF90EF90DF90CF900C948F064C
:100D80000C948F068FEF80937E01ECE7F1E0808179
:100D90008860808328E143E050E06FEF80E00E94AC
:100DA000CF0061E00E948D030C94DB05CF93219A64
:100DB000229A29982A9ACFB7F894809156018111E6
:100DC00027C0E5E1F1E08491E9E2F1E09491E82FB8
:100DD000F0E0EE0FFF1FE950FF4FA591B491EC91A9
:100DE000E92321F461E08AE00E94EC0161E08AE0FD
:100DF0000E9438028CB580618CBD8CB580648CBD3E
:100E000061E08DE00E94380261E08BE00E943802D0
:100E1000809156018F5F80935601CFBF29986EE075
:100E200080E20E9495058BE496E40197F1F763E078
:100E300083E20E9495056FE584E20E94950560E6D5
:100E400085E20E94950563E286E20E94950564E0D2
:100E50008DE30E9495058DE10E94CF05843041F01D
:100E600063E780E50E94950564E08DE30E949505A7
:100E700086E00E94CF05833209F04DC085E00E94D4
:100E8000CF05803609F047C062E082E20E949505F6
:100E900060E081E20E94950563E08CE30E94950585
:100EA0008FEF8093030120E045E063E071E08BE287
:100EB0000E94550520E045E063E071E08AE20E946F
:100EC000550520E045E063E071E080E30E945505B0
:100ED00082EE0E94D50581EE0E94D50560E787E28B
:100EE0000E94950580917C01806180937C018091B6
:100EF0009D018E7F80939D0184E680939A0164E634
:100F000090E080E00E947413C0919A01CF3F41F4B9
:100F100085E191E002C089E191E0CF910C94C60394
:100F20008FEF8C0F8E3FB8F7C093080163E082E229
:100F30000E94950561E081E20E9495050E94C2052C
:100F40006C2F90E080E00E947413E2CF0F931F9308
:100F5000CF93DF93EC018B0180E06115710519F0EF
:100F6000CB010E948912682FCE010E9463038C81FD
:100F70008F718C83CE010E949F03482F50E0B801EF
:100F8000CE0107960E949212CE010E949F038C0F01
:100F90009D2F911DFC011782CE01DF91CF911F91F2
:100FA0000F910895CF93DF93262FEA0150E040E0A0
:100FB000682F80E00E94CF00BE010E94A607DF914B
:100FC000CF910C948F060E94A70662EE70E08CE52C
:100FD00092E00E94A6070E949606609182018EE927
:100FE00092E00E948D030E949606609181018DE738
:100FF00092E00E948D030E94960610928201109248
:10100000810108950F931F93CF93DF93EC018B0120
:1010100060E00115110539F0F80101900020E9F7B1
:1010200031976E2F601BCE010E9463038C818F71FC
:101030008C83CE010E949F03482F50E0B801CE015F
:1010400007960E945814CE010E949F038C0F9D2F7B
:10105000911DFC011782CE01DF91CF911F910F915D
:1010600008952BE043E050E06FEF80E00E94CF0056
:1010700068E371E00E9402080E948F062CE043E0C2
:1010800050E06FEF80E00E94CF0064E471E00E94C6
:1010900002080E948F064BEC50E064E270E089E5A4
:1010A0000E94D20741EC50E064E270E086E40E94C6
:1010B000D20746EB50E064E270E080E60E94D2077F
:1010C0004FEA50E064E270E08AE50E94D2074EE900
:1010D00050E064E270E087E40E94D20748E950E003
:1010E00064E270E082E50E94D20741E950E064E2E8
:1010F00070E083E50E94D20747ED50E06DE070E0BC
:1011000083E20E94D20780911D01811102C00C94DC
:10111000E307089580919A018F3F69F423E043E04B
:1011200050E06FEF80E00E94CF006BE471E00E941E
:1011300002080C94DB050895ECE7F1E08081897FDB
:1011400081608083EAE9F1E08FEF8283818327E089
:1011500043E050E06FEF0E94CF006BE471E00E942B
:1011600002080C94DB05FC0124812295269527704A
:10117000213011F487810895211104C007960E943F
:101180004412089580E00895CF93DF93EC018E819F
:10119000873409F049C08C8184FD46C08D818F322F
:1011A00009F042C0F8948C818295869587708530CD
:1011B00009F080C06F81788589859A856093830165
:1011C00070938401809385019093860180918301BF
:1011D00090918401A0918501B091860180936E0168
:1011E00090936F01A0937001B093710110925F0111
:1011F00010926001109261011092620110928701B9
:10120000109288011092890110928A0181E08093E6
:1012100069016091830170918401809185019091B1
:1012200086010E94350478948E81863409F04DC081
:101230008D818F3209F049C0CE010E94B30880939E
:101240006401811108C06AE870E08BE392E00E94BB
:10125000A6070E94960680916401813041F463E8FC
:1012600070E08BE392E00E94A6070E9496068091B0
:101270006401833041F461E770E08BE392E00E9407
:10128000A6070E949606809164018930F1F468E611
:1012900070E08BE392E00E94A6070E94960688E128
:1012A00098E00FB6F894A895809360000FBE9093D5
:1012B0006000FFCF811105C0CE0107960E94621227
:1012C0007DCF60E070E0CB0179CFDF91CF910895C1
:1012D0002F923F924F925F926F927F928F929F9246
:1012E000AF92BF92CF92DF92EF92FF920F931F9334
:1012F000CF93DF93CDB7DEB7A2970FB6F894DEBFDA
:101300000FBECDBF80917C0184FB222420F884FF96
:10131000CFC30E94C1020091570110915801209142
:10132000590130915A01601B710B820B930B613A8A
:101330007B4B8D409105A0F00E94C1026093570144
:10134000709358018093590190935A0186E00E944E
:10135000CF05833209F49AC089E191E00E94C60367
:1013600036E03AA3CE0101966C014DE0342E54EBE9
:10137000452E5BE2552E51E1652E712C87E10E94CE
:10138000CF0580FD95C39AA191509AA3992309F4A2
:101390008FC321E041E070E060E080E60E945505E7
:1013A000182F813220F082EE0E94D50510E021E056
:1013B000412F63E473E081E60E94550560E487E213
:1013C0000E94950581E2E3E4F3E0D60101900D92DD
:1013D0008A95E1F70C81802F8370823079F6C601FF
:1013E0000E949F0302FD89E1895F1813C7CF83E440
:1013F00093E00E949F03A82E809147038770F82EE8
:101400001091480300914403E090430390904503FA
:1014100080919B01E81651F080919A01081731F0F4
:10142000802F90E06E2D03960E94741380917D01B1
:10143000806880937D0180919A0198124BC2EA2DB9
:10144000F0E0ED5BFC4F17828091470383FF15C0EE
:1014500091E2E3E4F3E0A2E2B3E001900D929A9509
:10146000E1F7877E806180932603909223030093A7
:10147000240382E293E00E948F069091470394FF39
:101480000CC083E493E00E94C40878CF85E00E94FA
:10149000CF05803609F060CF63CFE3E0FE12F1CFD5
:1014A0008091480321EF280F233008F467CF1430D0
:1014B00009F464CF1830D9F410917C0110FF5ECF8D
:1014C00083E493E00E94B3088F3F09F457CF8F5F06
:1014D0008F3F09F453CF90919C01891708F04ECFAC
:1014E00011FD4CCF80939C0100939B0147CF183195
:1014F00059F429E143E050E06FEF802F0E94CF00C4
:1015000061E00E948D032AC0193171F480917C0141
:1015100083FF34CF877F80937C0183E493E00E9434
:10152000B30880937E012ACF1E3109F427CF1D31E5
:10153000C1F42FE143E050E06FEF80E00E94CF0064
:101540008C0162E00E946303F80184818F718064E2
:10155000848320E03FEF30872783C8010E94DB05AA
:101560000DCF209144032111B1C18D3059F488E190
:1015700098E00FB6F894A895809360000FBE909302
:101580006000FFCF8B3179F483E493E00E94B308CD
:1015900091E0811101C090E08091990190FB80F968
:1015A00080939901EBCE8630A1F490914A03822D6D
:1015B000992321F081E09D3409F080E08093980127
:1015C00041E050E063E071E088E991E00E9464133B
:1015D000D5CE833119F40E94A70DD0CE823119F4F3
:1015E0000E94A706CBCE823081F422E043E050E097
:1015F0006FEF80E00E94CF004FEF52E063E072E0B7
:101600000E9471030E94C006B9CE813001F5E0E06E
:10161000F0E0EF2B09F4B2CE929596959770953045
:1016200059F460914A0370914B0380914C0390915F
:101630004D030E940000A2CE911105C08AE493E000
:101640000E946212F6CF60E070E0CB01F2CF8A30E8
:10165000E9F480914A03833409F090CE03E010E06E
:101660006FEFC8010E9474130F5F1F4F0330F1E04A
:101670001F07B1F72AE043E050E06FEF80E00E94DF
:10168000CF006CE471E00E940208BCCF8C3109F0FD
:10169000F8CE80914A038235C1F533E0E32EF12C78
:1016A000C7010E945C138F3F39F19DEF9E0D998316
:1016B0008A832CE143E050E06FEF80E00E94CF008E
:1016C0008C0162E00E946303F80184818F71806C59
:1016D0008483C8010E949F03482F50E0B601C801CF
:1016E00007960E944F14C8010E94C00668EC70E083
:1016F00080E090E00E940C0EFFEFEF1AFF0A23E05B
:10170000E21621E0F20661F639CE863599F52CE134
:1017100043E050E06FEF80E00E94CF008C018EE448
:1017200080937C0066E470E080E090E00E948E028E
:1017300080917A00806480937A0080917A0086FD9F
:10174000FCCFE0907800F090790062E0C8010E9440
:101750006303F80184818F7180668483970150E070
:1017600040E0C301B2010E942714F80130872783AB
:10177000C80148CF863409F05EC02CE143E050E058
:101780006FEF80E00E94CF008C01F89440916000E0
:101790003091800020918100909182008FEF86BB74
:1017A00010928500109284001092800010928200A6
:1017B00088E10FB6F894A895809360000FBE309230
:1017C000600080916000806480936000A895F5E0DF
:1017D000F09381008091600087FFFCCF1092810020
:1017E000A8958091600088618093600040936000BC
:1017F0007894E0908400F0908500309380002093EE
:1018000081009093820062E0C8010E946303F801A6
:1018100084818F7180668483B70190E080E02BE043
:10182000660F771F881F991F2A95D1F720EA36E89F
:1018300041E050E098CF8D3411F52CE143E050E0C9
:101840006FEF80E00E94CF008C01E0906403F09085
:101850006503E114F10421F488E6E82E83E0F82E14
:1018600062E0C8010E946303F80184818F71806681
:101870008483C6018E199F099087878379CF853429
:1018800009F07CCD2CE143E050E06FEF80E00E9456
:10189000CF006CE471E00E9402080E94C00610E0D4
:1018A00000E06FEFC8010E9474130F5F1F4F0D39E6
:1018B000F1E01F07B1F788E198E00FB6F894A8951A
:1018C000809360000FBE90936000FFCF8A3109F0D3
:1018D000D8CD54CD2FEF9212CEC033E0F312B1C069
:1018E00080917C0182FF90C0173009F08DC08091FB
:1018F0009B01081709F442CD0E94C1022091780192
:101900003091790140917A0150917B01621B730BF8
:10191000840B950B603177428105910530F1809100
:101920007C0183FB112710F983FD28CD90919A014A
:10193000911136C010927E0180917C01877F809347
:101940007C0110917E011F3F09F418CD0E94C10255
:10195000609378017093790180937A0190937B0171
:1019600080919C01811310939C010E94C10260939D
:1019700078017093790180937A0190937B010E94A2
:10198000C1027370882799270E948E0228E043E0E5
:1019900050E06FEF802F0E94CF0060919C01B1CD8D
:1019A000886080937C0190927E0128E143E050E0C2
:1019B0006FEF80E00E94CF0061E00E948D030E94E3
:1019C000DB050E94C1024B015C01109248030E949A
:1019D000C102681979098A099B09603D7740810530
:1019E000910508F0A9CF1111A7CF0E946809A89509
:1019F000809147038770833051F711E0809148034D
:101A0000893129F310E0E3CF183009F4B7CC143151
:101A1000C1F480919B01E81214C00E94C10273704E
:101A2000882799270E948E0225E143E050E06FEF5E
:101A3000802F0E94CF0060919B010E948D030E9425
:101A4000DB0580919B01E81299CC80919A010817DF
:101A500059F180917C0182FF27C083E493E00E94CA
:101A6000DB0523E0F21609F489CC80919B01E8168E
:101A700009F407CD83CC80917C0182FF7FCC33E0D9
:101A8000F3120FC01851123060F483E493E00E9407
:101A9000B3088E3F31F061E0680F83E493E00E9469
:101AA0008D0383E493E05ACD83E0F812EACC66CC50
:101AB000A2960FB6F894DEBF0FBECDBFDF91CF91D7
:101AC0001F910F91FF90EF90DF90CF90BF90AF905C
:101AD0009F908F907F906F905F904F903F902F904E
:101AE0000895CF92DF92EF92FF92CF93DF93D82F9A
:101AF0000E94C1026B017C01809147038760809343
:101B00004703C0E00E94C1026C197D098E099F093C
:101B1000603D77408105910590F4C11110C0A895F2
:101B20000E94A8030E946809809147038770833050
:101B300049F7C1E0809148038D13E3CFE3CF8C2FA9
:101B4000DF91CF91FF90EF90DF90CF9008952FE03D
:101B500043E050E06FEF80E00E94CF006BE471E063
:101B60000E94020862E082E293E00E946303E2E2E4
:101B7000F3E084818F71806C848381E08783108699
:101B8000CF010E948F068FE00E94710D22E150E08C
:101B900040E06FEF80E00E94CF006FE471E00E94B0
:101BA00002080E948F0626E043E050E06FEF80E0DD
:101BB0000E94CF0060919B010E948D030E94C0068D
:101BC00086E00E94710D0C943108CF9380919901A9
:101BD00081FD20C00E94A70D8091990181608093B2
:101BE0009901C4E02AE143E050E06FEF80E00E94F9
:101BF000CF0062E00E948D030E94C0068BE10E942C
:101C0000710D811102C0C15069F780919901826004
:101C100080939901CF9108958F929F92AF92BF9236
:101C2000CF92DF92EF92FF924B015C010E94C102C2
:101C30006B017C010E94C1026C197D098E099F090C
:101C4000681579058A059B0530F4A8950E94A803BC
:101C50000E946809EFCFFF90EF90DF90CF90BF9088
:101C6000AF909F908F900895CF92DF92EF92FF9266
:101C70000F931F93409183015091840160918501DE
:101C80007091860180916E0190916F01A091700119
:101C9000B0917101481759076A077B0751F066E94F
:101CA00070E080E090E00E940C0E61E088E00E940D
:101CB000EC010E94C1026B017C0180916A0190914C
:101CC0006B01A0916C01B0916D0197018601081B19
:101CD000190B2A0B3B0BD901C801813E9349A44043
:101CE000B10540F480911D01811104C0809169010A
:101CF000882309F1C0926A01D0926B01E0926C01D5
:101D0000F0926D0180916901882399F01092690128
:101D100088E1809306034091830150918401609192
:101D200085017091860181E093E00E9471030E9419
:101D300096060E94E30780911D0140916501509134
:101D40006601609167017091680197018601041B2B
:101D5000150B260B370BB901A80141385E4E6643BF
:101D6000710510F4882319F1C0926501D0926601C3
:101D7000E0926701F0926801882309F40FC1109284
:101D80001D016091640180EE92E00E948D030E942B
:101D90009606409183015091840160918501709174
:101DA00086018FEB92E00E9471030E94960680915B
:101DB0006301833018F11092630110925F01109259
:101DC00060011092610110926201109287011092DD
:101DD00088011092890110928A0181E180930603A3
:101DE00040918701509188016091890170918A0129
:101DF00081E093E00E9471030E94960680915B014E
:101E000090915C01A0915D01B0915E01A7019601E6
:101E1000281B390B4A0B5B0BDA01C901813395474B
:101E2000A105B10508F4B3C0C0925B01D0925C017A
:101E3000E0925D01F0925E0140918701509188012E
:101E40006091890170918A0180915F019091600198
:101E5000A0916101B0916201481759076A077B0799
:101E600079F18091870190918801A0918901B091C9
:101E70008A01803E9E42A105B10508F09CC081E127
:101E800080930603409187015091880160918901F8
:101E900070918A0181E093E00E9471030E9496068E
:101EA0008091870190918801A0918901B0918A0168
:101EB00080935F0190936001A0936101B0936201F0
:101EC0004091830150918401609185017091860158
:101ED00080916E0190916F01A0917001B09171019C
:101EE000481759076A077B0709F470C088E1809397
:101EF00006034091830150918401609185017091A6
:101F0000860181E093E00E9471030E949606C090D2
:101F10008301D0908401E0908501F090860180914A
:101F2000830190918401A0918501B09186018093F5
:101F30006E0190936F01A0937001B093710182E1E3
:101F40008093060365E081E093E00E946303809143
:101F50000503806E80930503C701B6010E94BE127F
:101F600020E030E44CE156E40E94861360930803BD
:101F70007093090380930A0390930B0383E080938B
:101F80000C0381E093E00E949606109263011F917A
:101F90000F91FF90EF90DF90CF90089560918301B3
:101FA0007091840180918501909186010E94350491
:101FB0000E94E307E6CE409187015091880160912D
:101FC000890170918A018BE392E066CF8091630171
:101FD0008F5F80936301DBCF1F920F920FB60F923A
:101FE00011242F933F934F935F936F937F938F931E
:101FF0009F93AF93BF93EF93FF938EE991E00E947D
:102000005301FF91EF91BF91AF919F918F917F917C
:102010006F915F914F913F912F910F900FBE0F9055
:102020001F9018951F920F920FB60F9211242F93A5
:102030008F939F93EF93FF93E091AE01F091AF01E7
:102040008081E091B401F091B50182FD1BC09081C7
:102050008091B7018F5F8F732091B801821741F093
:10206000E091B701F0E0E256FE4F958F8093B70103
:10207000FF91EF919F918F912F910F900FBE0F9035
:102080001F9018958081F4CF1F920F920FB60F9278
:1020900011242F933F938F939F93AF93BF9380917E
:1020A000900190919101A0919201B0919301309192
:1020B0008F0123E0230F2D3758F50196A11DB11D87
:1020C00020938F018093900190939101A0939201AE
:1020D000B09393018091940190919501A091960104
:1020E000B09197010196A11DB11D80939401909329
:1020F0009501A0939601B0939701BF91AF919F91E5
:102100008F913F912F910F900FBE0F901F901895B8
:1021100026E8230F0296A11DB11DD2CF1F920F9268
:102120000FB60F9211242F933F934F935F936F93AA
:102130007F938F939F93AF93BF93EF93FF93E09120
:102140002401F09125010995FF91EF91BF91AF9185
:102150009F918F917F916F915F914F913F912F91BF
:102160000F900FBE0F901F9018951F920F920FB6F1
:102170000F9211242F933F934F935F936F937F930D
:102180008F939F93AF93BF93EF93FF93E0912201BF
:10219000F09123010995FF91EF91BF91AF919F912C
:1021A0008F917F916F915F914F913F912F910F9000
:1021B0000FBE0F901F9018951F920F920FB60F929F
:1021C00011240F900FBE0F901F901895CF93DF939F
:1021D000FC01108211821282148215821682DC01A7
:1021E00017968AE1ED0119928A95E9F782E08383D7
:1021F000DF91CF910895CF93EEE9F1E0138212823F
:1022000088EE93E0A0E0B0E084839583A683B78353
:102210008AE291E09183808385EC90E095878487C2
:1022200084EC90E09787868780EC90E0918B808BA0
:1022300081EC90E0938B828B82EC90E0958B848B89
:1022400086EC90E0978B868B118E128E138E148EF7
:1022500083E493E00E94E61082E293E00E94E6109D
:1022600081E093E00E94E610E1E0F3E083E2868300
:1022700081E1858380EE92E00E94E610E0EEF2E0DC
:1022800086E48683CFE2C5838FEB92E00E94E6105E
:10229000EFEBF2E087E48683C5838EE992E00E944B
:1022A000E610EEE9F2E082E58683C5838DE792E0F1
:1022B0000E94E610EDE7F2E083E58683C5838CE5B6
:1022C00092E00E94E610ECE5F2E089E58683C583A2
:1022D0008BE392E00E94E610EBE3F2E080E6868377
:1022E000C583CF910895789484B5826084BD84B508
:1022F000816084BD85B5826085BD85B5816085BD01
:1023000080916E00816080936E00109281008091B8
:102310008100826080938100809181008160809340
:102320008100809180008160809380008091B10065
:1023300084608093B1008091B00081608093B00090
:1023400080917A00846080937A0080917A00826024
:1023500080937A0080917A00816080937A008091E6
:102360007A00806880937A001092C100A895E0916D
:10237000AE01F091AF0182E08083E091AA01F0917B
:10238000AB011082E091AC01F091AD0180E180835E
:102390001092B601E091B201F091B30186E0808322
:1023A000E091B001F091B101808180618083E09182
:1023B000B001F091B101808188608083E091B0012B
:1023C000F091B101808180688083E091B001F0914B
:1023D000B10180818F7D8083809199018D7F809371
:1023E00099010E947A0441E050E063E071E088E9DD
:1023F00091E00E944C136FEF81E090E00E94741313
:1024000080917D018F7880937D01109273011092ED
:1024100072018EE191E00E94C60385EE9DE09093EB
:10242000800180937F010E94C1026B017C010E94A8
:10243000C1026C197D098E099F09683873418105B5
:102440009105A8F00E942803A895C0E0D0E0A895C7
:102450000E94A8030E9468090E94340E2097B9F3D5
:102460000E944901882399F30E940000F0CF0E9446
:10247000A8030E94680980917C0182FB882780F96B
:10248000A8958111DFCFD3CFFC0188279927E89445
:1024900021912032E9F3293010F02E30C8F32B328D
:1024A00041F02D3239F4689404C00E94B612820FB4
:1024B000911D219120532A30C0F31EF490958195EF
:1024C0009F4F08951F93FC0199278827BC01E8942A
:1024D00011911032E9F3193010F01E30C8F31B329D
:1024E00051F01D3249F4689406C00E94A112610F98
:1024F000711D811D911D119110531A30B0F33EF4DE
:1025000090958095709561957F4F8F4F9F4F1F914C
:102510000895FC0105900020E9F7809590958E0FB5
:102520009F1F0895FB01DC014150504048F0059089
:102530000D920020C9F701C01D9241505040E0F7B4
:102540000895592F482F372F262F660F771F881F82
:10255000991F660F771F881F991F620F731F841FB3
:10256000951F660F771F881F991F08957AE0979F20
:10257000902D879F802D910D11240895E89409C016
:1025800097FB3EF490958095709561957F4F8F4FA6
:102590009F4F9923A9F0F92F96E9BB279395F695BC
:1025A000879577956795B795F111F8CFFAF4BB0F3A
:1025B00011F460FF1BC06F5F7F4F8F4F9F4F16C09E
:1025C000882311F096E911C0772321F09EE8872F28
:1025D000762F05C0662371F096E8862F70E060E0E4
:1025E0002AF09A95660F771F881FDAF7880F96955D
:1025F000879597F9089597F99F6780E870E060E004
:1026000008959FEF80EC089500240A94161617068B
:1026100018060906089500240A94121613061406D3
:1026200005060895092E0394000C11F4882352F036
:10263000BB0F40F4BF2B11F460FF04C06F5F7F4FEE
:102640008F4F9F4F089557FD9058440F551F59F0D5
:102650005F3F71F04795880F97FB991F61F09F3F8F
:1026600079F087950895121613061406551FF2CFB8
:102670004695F1DF08C0161617061806991FF1CF08
:1026800086957105610508940895E894BB2766272F
:102690007727CB0197F90895DC01CB01FC01F9996B
:1026A000FECF06C0F2BDE1BDF89A319600B40D929E
:1026B00041505040B8F70895F999FECF92BD81BDC1
:1026C000F89A992780B50895DC01A40FB51F4150F1
:1026D000504048F0CB01840F951F2E910E94751336
:1026E00041505040D0F70895262FF999FECF92BD62
:1026F00081BDF89A019700B4021639F01FBA20BDC7
:102700000FB6F894FA9AF99A0FBE08950E949A1398
:102710000C9412130E940B1358F00E94041340F003
:1027200029F45F3F29F00C94FB1251110C944613CD
:102730000C9401130E94231368F39923B1F35523DA
:1027400091F3951B550BBB27AA27621773078407C4
:1027500038F09F5F5F4F220F331F441FAA1FA9F35A
:1027600035D00E2E3AF0E0E832D091505040E69548
:10277000001CCAF72BD0FE2F29D0660F771F881FA9
:10278000BB1F261737074807AB07B0E809F0BB0B9C
:10279000802DBF01FF2793585F4F3AF09E3F5105B0
:1027A00078F00C94FB120C9446135F3FE4F3983ED0
:1027B000D4F3869577956795B795F7959F5FC9F799
:1027C000880F911D9695879597F90895E1E0660F1A
:1027D000771F881FBB1F621773078407BA0720F093
:1027E000621B730B840BBA0BEE1F88F7E0950895FC
:1027F0000E942B1388F09F5798F0B92F9927B75153
:10280000B0F0E1F0660F771F881F991F1AF0BA9594
:10281000C9F714C0B13091F00E944513B1E008959A
:102820000C944513672F782F8827B85F39F0B93F8C
:10283000CCF3869577956795B395D9F73EF4909547
:102840008095709561957F4F8F4F9F4F0895A1E2BE
:102850001A2EAA1BBB1BFD010DC0AA1FBB1FEE1F1A
:10286000FF1FA217B307E407F50720F0A21BB30B65
:10287000E40BF50B661F771F881F991F1A9469F7E1
:1028800060957095809590959B01AC01BD01CF013D
:102890000895EE0FFF1F0590F491E02D0994FB01C0
:1028A000DC0102C001900D9241505040D8F70895CC
:1028B000FB01DC014150504048F001900D92002096
:1028C000C9F701C01D9241505040E0F70895F894B7
:0228D000FFCF38
:1028D200FFFFFF00FCE1A8A8FF8A081805C206E96D
:1028E200041C0412049C083205A605F203015A04D2
:1028F200D606CD02CD02000000007501DF000C01FA
:10290200C2013D011B012F01456E657267794D655C
:1029120074657200312E352D303130004F4B00324C
:062922002E332E320000EE
:00000001FF
