:100000000C94F6010C9461140C943A140C941E0296
:100010000C941E020C941E020C9488140C941E0264
:100020000C941E020C941E020C941E020C941E02D0
:100030000C941E020C941E020C941E020C941E02C0
:100040000C94F0130C941E020C94BE130C94981391
:100050000C941E020C941E020C941E020C941E02A0
:100060000C941E020C941E02000000080002010005
:1000700000030407000000000000000068775265DC
:10008000626F6F740064626733206E6F7420706FEC
:10009000737369626C650064626731006462673023
:1000A000004D7953656E736F727320616C72656178
:1000B0006479206163746976617465642053657244
:1000C00069616C20496E746572666163650054589D
:1000D0005F4552520054585F4F4B0053657447655B
:1000E000744D6574657256616C7565004877546926
:1000F0006D65004462675F52657475726E0044629C
:10010000675F4C6576656C0052465F4368616E6E52
:10011000656C0050415F4C6576656C0054585F52C9
:100120005353490043707554656D7000506172659A
:100130006E744E6F646500506173736976654E6FBF
:10014000646500436F6D70696C654461746500504F
:100150006F776572506861736500506F7765724D97
:10016000657465720053656E736F72204F66666CBE
:10017000696E65002D2D2D00534D4C5F46494E4153
:100180004C004D6172203234203230323320313510
:100190003A31363A3439004175746F5265626F6F87
:1001A0007400524632345F50415F4D4158000000A8
:1001B000891112239B322446AD573665BF74488C93
:1001C000C19D5AAFD3BE6CCAE5DB7EE9F7F881105A
:1001D000080193331A22A5562C47B7753E64C99C73
:1001E000408DDBBF52AEEDDA64CBFFF976E8022139
:1001F0008B30100299132667AF763444BD554AAD53
:10020000C3BC588ED19F6EEBE7FA7CC8F5D9833119
:100210000A2091121803A7772E66B5543C45CBBD32
:1002200042ACD99E508FEFFB66EAFDD874C90442F8
:100230008D5316619F702004A9153227BB364CCE12
:10024000C5DF5EEDD7FC6888E1997AABF3BA8552D9
:100250000C4397711E60A1142805B3373A26CDDEF2
:1002600044CFDFFD56ECE9986089FBBB72AA0663B8
:100270008F7214409D512225AB343006B9174EEFD2
:10028000C7FE5CCCD5DD6AA9E3B8788AF19B877399
:100290000E6295501C41A3352A24B1163807CFFFB2
:1002A00046EEDDDC54CDEBB962A8F99A708B088478
:1002B00081951AA793B62CC2A5D33EE1B7F04008AA
:1002C000C919522BDB3A644EED5F766DFF7C899441
:1002D00000859BB712A6ADD224C3BFF136E0C1188A
:1002E0004809D33B5A2AE55E6C4FF77D7E6C0AA520
:1002F00083B4188691972EE3A7F23CC0B5D142296A
:10030000CB38500AD91B666FEF7E744CFD5D8BB500
:1003100002A499961087AFF326E2BDD034C1C33949
:100320004A28D11A580BE77F6E6EF55C7C4D0CC6DF
:1003300085D71EE597F42880A1913AA3B3B2444A29
:10034000CD5B5669DF78600CE91D722FFB3E8DD6C0
:1003500004C79FF516E4A9902081BBB332A2C55A09
:100360004C4BD7795E68E11C680DF33F7A2E0EE79F
:1003700087F61CC495D52AA1A3B03882B193466BE9
:10038000CF7A5448DD59622DEB3C700EF91F8FF780
:1003900006E69DD414C5ABB122A0B9923083C77BC9
:1003A0004E6AD5585C49E33D6A2CF11E780F000077
:1003B0000000250028002B0000000000240027007A
:1003C0002A000404040404040404020202020202D7
:1003D0000303030303030102040810204080010209
:1003E00004081020010204081020A71411241FBEC5
:1003F000CFEFD8E0DEBFCDBF11E0A0E0B1E0EEE48A
:10040000F8E302C005900D92A83BB107D9F725E0AB
:10041000A8EBB1E001C01D92AA30B207E1F711E0EC
:10042000C6EFD1E004C02197FE010E949A1BC53F90
:10043000D107C9F70E945F150C94251C0C9400008D
:10044000CF92DF92EF92FF920F931F93CF938C0185
:10045000C0915802C7FF24C08AE0C82ED12CE12CDD
:10046000F12CCF5FC130F1F0F801608171818281A0
:100470009381A70196010E947B1BF80120833183A1
:1004800042835383EECFF801208131814281538131
:10049000AAE0B0E00E94F3196083718382839383A2
:1004A000C15088F7C0935802CF911F910F91FF90D0
:1004B000EF90DF90CF9008958F929F92AF92BF926E
:1004C000CF92DF92EF92FF920F931F93CF93DF9320
:1004D000FC017B018FEF808381838283838384830C
:1004E000858386838783C0905702D090580210E09E
:1004F000A0E0AC1568F51F5FCA2FD0E0C95FDD4FE3
:10050000D881C2E0CA0FAF5FB0E0A95FBD4F8C9148
:1005100090E08430910591F4DD2381F0AC2FB0E0C0
:10052000A95FBD4F9C919E5FA1E0AC0FB0E0A95FB9
:10053000BD4F8C91C90FD15089F790E01430B9F4B8
:10054000AC2FB0E0A95FBD4F8C918E151F04B1F0A8
:10055000D0925802DF91CF911F910F91FF90EF90B1
:10056000DF90CF90BF90AF909F908F9008951530FF
:1005700041F4AC2FB0E0A95FBD4FDC90AC2FAD0FC4
:10058000B8CF1630D9F7AC2EB12C4097D9F5C501AC
:10059000895F9D4FDC012C91922F990F990B392F78
:1005A000492F592F692F792F892F0FE30E94CB1BD9
:1005B0000E94A01B2083318342835383648375830D
:1005C00086839783C501895F9D4F5C01912CD91566
:1005D000A9F2D5018D905D01208131814281538145
:1005E000648175818681978108E00E94B01B28296B
:1005F0002083318342835383648375838683978307
:100600009394E5CF20E030E040E050E060E070E01F
:1006100080E090E0CFCF90E0FC01EA52FC4F2491C3
:100620008E539C4FFC018491882399F090E0880FB1
:10063000991FFC01E854FC4FA591B491FC01E255CF
:10064000FC4F859194918FB7F894EC91E22BEC9349
:100650008FBF0895942FE4ECF4E0309103023183CE
:100660008283668325834481487F492B477E448368
:10067000CF010895AF92BF92CF92DF92EF92FF9297
:100680000F931F93CF93DF936C017B018B01040FBA
:10069000151FEB015E01AE18BF08C017D10759F056
:1006A0006991D601ED91FC910190F081E02DC60198
:1006B0000995892B79F7C501DF91CF911F910F9192
:1006C000FF90EF90DF90CF90BF90AF900895FC0126
:1006D000538D448D252F30E0842F90E0821B930BA7
:1006E000541710F0CF96089501970895FC01918D4D
:1006F000828D981761F0A28DAE0FBF2FB11D5D9650
:100700008C91928D9F5F9F73928F90E008958FEFF1
:100710009FEF0895FC01918D828D981731F0828DA5
:10072000E80FF11D858D90E008958FEF9FEF0895FC
:10073000FC01918D228D892F90E0805C9F4F821B60
:1007400091098F739927089589E592E00E94980393
:1007500021E0892B09F420E0822F0895FC01A48D6B
:10076000A80FB92FB11DA35ABF4F2C91848D90E0D3
:1007700001968F739927848FA689B7892C93A089B6
:10078000B1898C91837080648C93938D848D981340
:1007900006C00288F389E02D80818F7D80830895D3
:1007A000EF92FF920F931F93CF93DF93EC0181E0C1
:1007B000888F9B8D8C8D98131AC0E889F989808168
:1007C00085FF15C09FB7F894EE89FF896083E8899B
:1007D000F98980818370806480839FBF81E090E08D
:1007E000DF91CF911F910F91FF90EF900895F62E1A
:1007F0000B8D10E00F5F1F4F0F731127E02E8C8DB4
:100800008E110CC00FB607FCFACFE889F9898081F8
:1008100085FFF5CFCE010E94AE03F1CFEB8DEC0F3B
:10082000FD2FF11DE35AFF4FF0829FB7F8940B8F15
:10083000EA89FB8980818062CFCF0F931F93CF938A
:10084000DF938C01D0E0C0E0F801EC0FFD1F649154
:10085000662341F089E592E00E94D003892B11F0D4
:100860002196F2CF42E050E063E871E089E592E042
:100870000E943A038C0F9D1FDF91CF911F910F9122
:100880000895CF93DF93EC01888D8823B9F0AA896E
:10089000BB89E889F9898C9185FD03C0808186FD3B
:1008A0000DC00FB607FCF7CF8C9185FFF2CF80818A
:1008B00085FFEDCFCE010E94AE03E9CFDF91CF914E
:1008C000089580E090E0892B29F00E94A403811113
:1008D0000C94000008953FB7F8948091FD01909129
:1008E000FE01A091FF01B091000226B5A89B05C0B2
:1008F0002F3F19F00196A11DB11D3FBFBA2FA92F9F
:10090000982F8827BC01CD01620F711D811D911D9B
:1009100042E0660F771F881F991F4A95D1F7089507
:100920008F929F92AF92BF92CF92DF92EF92FF92FF
:100930006B017C010E946B044B015C01C114D1046A
:10094000E104F104B9F00E946B04681979098A097D
:100950009B09683E73408105910580F321E0C21A2E
:10096000D108E108F10888EE880E83E0981EA11CEA
:10097000B11CE4CFFF90EF90DF90CF90BF90AF908D
:100980009F908F9008952FB7F8946091F90170911E
:10099000FA018091FB019091FC012FBF0895089509
:1009A0000F931F93CF93DF93CDB7DEB728970FB682
:1009B000F894DEBF0FBECDBF8C016BE170E0CE01BD
:1009C00001960E945C0289819A81AB81BC81F80109
:1009D00080839183A283B383C8010E94200228965A
:1009E0000FB6F894DEBF0FBECDBFDF91CF911F9140
:1009F0000F9108950F931F93CF93DF93CDB7DEB779
:100A000028970FB6F894DEBF0FBECDBF8C016EE104
:100A100070E0CE0101960E945C0289819A81AB81CF
:100A2000BC81F80180839183A283B383C8010E94B3
:100A3000200228960FB6F894DEBF0FBECDBFDF911F
:100A4000CF911F910F910895E091F701F0E0E351EC
:100A5000FE4F8081181614F4815080830895E09130
:100A60005702E03540F491E09E0F90935702F0E07A
:100A7000E95FFD4F8083089520916A0130916B01F9
:100A8000FC018081F901E827FF27EE0FFF1FE255E7
:100A9000FE4F85919491232F3327282739273093B0
:100AA0006B0120936A01089586E691E00C94FA04A4
:100AB00082E691E00C94FA0489ED91E00C94D00464
:100AC00085ED91E00C94D00481ED91E00C94D0047C
:100AD0008DEC91E00C94D00408950F931F930E9425
:100AE000C3046093BF017093C0018093C1019093D0
:100AF000C2018B019C0108591A4321093109009355
:100B0000C6011093C7012093C8013093C9016093B7
:100B1000BB017093BC018093BD019093BE011F91F6
:100B20000F910895FC01938197706A3108F069E193
:100B300088E0689FB0011124692B6383CF01089579
:100B40000F931F93CF93DF93EC018B0162E00E9420
:100B500092058C818F7180648C8318870F83CE01FE
:100B6000DF91CF911F910F9108951F93CF93DF9342
:100B7000EC01162F61E00E9492058C818F718062DA
:100B80008C831F83CE01DF91CF911F910895FC01CB
:100B900083818695869586958A3108F089E1089546
:100BA000E091DE01F091DF01309721F00280F381C6
:100BB000E02D099408950F931F930E94C3040091A0
:100BC000E0011091E1012091E2013091E301601B0D
:100BD000710B820B930B1F910F9108959C018091D3
:100BE000DE019091DF0182179307F1F09091E80107
:100BF0009F719093E8013093DF012093DE01E09133
:100C0000DE01F091DF01309721F00190F081E02DBD
:100C100009950E94C3046093E0017093E101809301
:100C2000E2019093E30108958091E801805E809352
:100C3000E801E5CF0F931F930E94DB052091E901A6
:100C40002077203779F000E117E220E030E0061746
:100C500017072807390758F48CE591E01F910F9189
:100C60000C94EE0500E61AEE20E030E0F0CF1F9184
:100C70000F9108958091E901982F9F70963018F098
:100C8000807F8093E90108958091E80184608093DA
:100C9000E8018091E90180788093E901E091CA013F
:100CA000F091CB01309709F0099408958EBD0000B2
:100CB0000DB407FEFDCF8EB50895CF93C82F0E94C7
:100CC00024058091F7018A3018F48F5F8093F70133
:100CD000E091F701F0E0E351FE4FC08384E090E043
:100CE0009093EC018093EB01C0936C01C63058F0F7
:100CF00010925702E7E0F2E080E5DF011D928A954D
:100D0000E9F7CF9108958C2F0E942F0584E0CF91B1
:100D10000C942F05CF93C091EA01CF3FA1F00E9420
:100D2000C3046093E4017093E5018093E60190931E
:100D3000E70180910502C813C093050289E191E0A3
:100D4000CF910C94EE050E94DB05613D7740810553
:100D5000910568F08091E801803618F485E191E012
:100D6000EFCF877F8093E80181E191E0E9CFCF91D8
:100D70000895809103028F3F21F085E191E00C946A
:100D8000EE050E94DB05613D77408105910550F03D
:100D90008091E801803618F48DE091E0F0CF89E091
:100DA00091E0EDCF08958DE091E00C94EE05E8EE32
:100DB000F1E08081897F8E7F8083E3E0F2E081E053
:100DC0008283118260E081E090E00C94E119E8EE0A
:100DD000F1E08081877F8F7E80831092E401109202
:100DE000E5011092E6011092E70144E050E070E066
:100DF00060E083E092E00C94B91981EA90E00E94EF
:100E00001D048DE991E00E94C9198A3018F480937D
:100E1000C30108951092C30160E08DE991E00C9444
:100E2000E1190F931F93CF93DF93EC018B0180E0C7
:100E30006115710519F0CB010E947816682FCE015B
:100E40000E9492058C818F718C83CE010E94C70510
:100E5000482F50E0B801CE0107960E948116CE01BE
:100E60000E94C7058C0F9D2F911DFC011782CE019A
:100E7000DF91CF911F910F910895BF92CF92DF9292
:100E8000EF92FF920F931F93CF93DF937B01042F79
:100E9000B22E91E59CBD91E09DBD2A98E3E2F0E081
:100EA0003197F1F70E945606182FE7010150A8F07C
:100EB000BB2051F08FEF0E945606182FE114F10469
:100EC000A9F388832196F2CF6E018FEFC81AD80A52
:100ED00088810E945606E601E9CF2A9A83E290E0D3
:100EE0000197F1F7812FDF91CF911F910F91FF9023
:100EF000EF90DF90CF90BF900895CF93DF931F9234
:100F0000CDB7DEB7698320E041E0BE016F5F7F4F60
:100F10000E943D070F90DF91CF9108958091E901E4
:100F2000982F9077903759F0982F92959F709F5FE8
:100F300097709295907F8F78892B8093E9018091AB
:100F4000E8018B7F8F7E8093E80129986CE080E236
:100F50000C947D076FE080E20E947D07609108019C
:100F60006F3F19F08AE20E947D07299A089521E0D7
:100F700041E070E060E00C943D0720E040E070E06C
:100F800060E00C943D07FF920F931F93CF93DF9384
:100F9000D82F8B0180910302FB018083838182FD26
:100FA0004AC0CB010E94C70597E0F92EF80E809148
:100FB0000602C1E080FD03C0DF3F09F0C0E0809180
:100FC000CC018F5F8093CC010115110509F44DC050
:100FD000299883E092E00197F1F76EE080E20E94A9
:100FE0007D078BE891E00197F1F76D2F8AE20E946F
:100FF0007D076D2F80E30E947D0781EE0E94BD0773
:10100000CC2321F060E584E20E947D0720E04F2D93
:10101000B80180EA0E943D07299A10E000E08FEFB6
:101020000E94BD07807351F40F3F100739F0A89557
:101030000F5F1F4FF4CF80E2F82EB9CF299860E7F9
:1010400087E20E947D07D82F84FF03C081EE0E94B3
:10105000BD07CC2321F06FE584E20E947D070E944A
:10106000AA07D5FF03C0C1E001C0C0E08C2FDF910B
:10107000CF911F910F91FF9008950F931F93CF93DE
:101080008C01FC0182819091E80190FF04C08F3FA8
:1010900079F5CFEF04C081111BC0C0910402B801E3
:1010A0008C2F0E94C307909104029C1318C090914A
:1010B000E901811118C02091DD012F5F2093DD012E
:1010C00021E0290F2F70907F922B9093E90107C0A8
:1010D0008F3FF9F2B8010E94C3078823F1F2CF9144
:1010E0001F910F910895907F9093E90181E0F7CFD0
:1010F00080E0F5CF2091E80122FD0C943D0880E0CE
:101100000895FC018091030281839481907F916016
:1011100094838091020280FF03C0CF010C947A086F
:1011200080E00895CF92DF92EF92FF92CF93DF930A
:101130000E94DB056B017C0126E143E050E06FEF8C
:1011400080E00E942A03EC0164E00E9492058C81F9
:101150008F71806A8C83CF82D886E986FA86CE0129
:10116000DF91CF91FF90EF90DF90CF900C947A08B1
:10117000CF93DF93262FEA0150E040E0682F80E014
:101180000E942A03BE010E941107DF91CF910C94A7
:101190007A080C947A088FEF8093EA01E8EEF1E088
:1011A00080818860808328E143E050E06FEF80E039
:1011B0000E942A0361E00E94B5050C943D08CF937C
:1011C000219A229A29982A9ACFB7F8948091B80147
:1011D000811146C08CEC93E0FC01249140EE53E079
:1011E000FA013491E22FF0E0EE0FFF1FE854FC4FBC
:1011F000A591B4912C91322321F5E2E7F0E02491FE
:10120000FA014491FC0194919923D9F0222359F0D9
:10121000233009F4B3C008F0A6C0213009F4B4C0EB
:10122000223009F4B5C0E92FF0E0EE0FFF1FE255C0
:10123000FC4FA591B4918FB7F8949C91492B4C9396
:101240008FBF8AE00E940B038CB580618CBD8CB58A
:1012500080648CBD8DE00E940B038BE00E940B0329
:101260008091B8018F5F8093B801CFBF29986EE05D
:1012700080E20E947D078BE496E40197F1F763E03A
:1012800083E20E947D076FE584E20E947D0760E6AD
:1012900085E20E947D0767E286E20E947D0764E0A6
:1012A0008DE30E947D078DE10E94B707843041F0F5
:1012B00063E780E50E947D0764E08DE30E947D077F
:1012C00086E00E94B707873209F06FC085E00E9470
:1012D000B707803609F069C062E082E20E947D07AC
:1012E00060E081E20E947D0763E08CE30E947D075D
:1012F0008FEF8093030120E045E063E071E08BE233
:101300000E943D0720E045E063E071E08AE20E9430
:101310003D0720E045E063E071E080E30E943D0787
:1013200082EE0E94BD0781EE0E94BD0760E787E262
:101330000E947D078091E80180618093E80180919F
:1013400006028E7F8093060284E68093030264E6A1
:1013500090E080E00E94E119C0910302CF3F51F577
:1013600081E191E024C02730B1F02830D1F0243061
:1013700009F059CF809180008F7D03C0809180005B
:101380008F77809380004FCF84B58F7784BD4BCF0C
:1013900084B58F7DFBCF8091B0008F778093B000B4
:1013A00042CF8091B0008F7DF9CF89E091E0CF915D
:1013B0000C94EE058FEF8C0F8E3FB8F7C0930801A9
:1013C00063E082E20E947D0761E081E20E947D0786
:1013D0000E94AA076C2F90E080E00E94E119C0CF24
:1013E0000F931F93CF93DF93EC018B0160E0011506
:1013F000110539F0F80101900020E9F731976E2FBF
:10140000601BCE010E9492058C818F718C83CE016E
:101410000E94C705482F50E0B801CE0107960E94F0
:10142000F31BCE010E94C7058C0F9D2F911DFC015F
:101430001782CE01DF91CF911F910F910895809176
:1014400003028F3F69F423E043E050E06FEF80E058
:101450000E942A0365E871E00E94F0090C943D089F
:101460000895FC012481229526952770213011F4DE
:1014700087810895211104C007960E9433160895AC
:1014800080E00895FC012681263409F065C025819D
:101490002F3209F061C00E94310A8093C30181118B
:1014A0001AC088E99AE3A0E0B0E0809358019093D5
:1014B0005901A0935A01B0935B016CE970E086EF8B
:1014C00092E00E9411070E9481086091C3018DE99A
:1014D00091E00E94E1198091C3018130D1F480E351
:1014E00095E7A0E0B0E08093580190935901A09354
:1014F0005A01B0935B0167E970E086EF92E00E94C9
:1015000011070E9481086091C3018DE991E00E945A
:10151000E1198091C301833041F465E870E086EF02
:1015200092E00E9411070E9481088091C3018930D6
:1015300099F46CE770E086EF92E00E9411070E9438
:10154000810888E198E00FB6F894A8958093600030
:101550000FBE90936000FFCF08952F923F924F925D
:101560005F926F927F928F929F92AF92BF92CF9233
:10157000DF92EF92FF920F931F93CF93DF93CDB73C
:10158000DEB7A1970FB6F894DEBF0FBECDBF36E031
:10159000D32E9E012F5F3F4F19014EE4C42E54EB12
:1015A000452E5BE2552E51E1652E712C88248A94DC
:1015B00062E0962E63E0A62EB92C87E10E94B70761
:1015C00080FD43C2DA94DD2009F43FC221E041E00E
:1015D00070E060E080E60E943D07182F813220F025
:1015E00082EE0E94BD0710E021E0412F65EE74E01D
:1015F00081E60E943D0760E487E20E947D0781E268
:10160000E5EEF4E0D10101900D928A95E1F70C81AD
:10161000802F8370823089F6C1010E94C70502FDC8
:1016200089E1895F1813C9CF85EE94E00E94C70550
:101630009091E904392F3770F32E1091EA0400914C
:10164000E6043091E5042091E7044091E901406807
:101650004093E901409103022413CDC1E82FF0E04B
:10166000EB51FB4F178293FF15C081E2E5EEF4E0EA
:10167000A4ECB4E001900D928A95E1F7977E906119
:101680009093C8042093C5040093C60484EC94E0AE
:101690000E947A089091E90494FDA8C153E0F512E4
:1016A000A5C18091EA0421EF280F233008F485CFEB
:1016B000143009F482CF183159F429E143E050E0A5
:1016C0006FEF802F0E942A0361E00E94B50520C0C1
:1016D000193171F48091E80183FF6FCF877F809388
:1016E000E80185EE94E00E94310A8093EA0165CF1B
:1016F0001E3109F462CF1D3171F42FE143E050E057
:101700006FEF80E00E942A0360E07FEF0E94A00557
:101710000E943D0852CF2091E604211164C18D3012
:1017200059F488E198E00FB6F894A895809360008A
:101730000FBE90936000FFCF8B3179F485EE94E07B
:101740000E94310A91E0811101C090E08091020273
:1017500090FB80F98093020230CF863099F490910B
:10176000EC0481E0992319F09D3409F080E0809326
:10177000010241E050E063E071E081E092E00E940C
:10178000D1191BCF833119F40E94331316CF823144
:1017900019F40E94920811CF8230C1F422E043E094
:1017A00050E06FEF80E00E942A038C0164E00E9409
:1017B0009205F80184818F71806A84838782908684
:1017C000A186B286C8010E94C908F7CE813001F512
:1017D00020E030E0232B09F4F0CE92959695977097
:1017E000953059F46091EC047091ED048091EE0411
:1017F0009091EF040E940000E0CE911105C08CEEA4
:1018000094E00E945116F6CF60E070E0CB01F2CF79
:101810008A3009F4D2CE8C3109F0E8C08091EC0412
:10182000823509F4CACE863589F52CE143E050E0D3
:101830006FEF80E00E942A038C01C0927C0066E476
:1018400070E080E090E00E94900480917A008064D3
:1018500080937A0080917A0086FDFCCFE09078003A
:10186000F090790062E0C8010E949205F80184813D
:101870008F7180668483970150E040E0C301B2011C
:101880000E94591BF801308727839CCF863409F0CA
:101890005FC02CE143E050E06FEF80E00E942A033C
:1018A0008C01F8944091600030918000209181007B
:1018B000909182008FEF86BB109285001092840079
:1018C0001092800010928200F8E15DE00FB6F8946B
:1018D000A895F09360000FBE509360008091600067
:1018E000806480936000A89585E08093810080915A
:1018F000600087FFFCCF10928100A8958091600066
:10190000886180936000409360007894E090840048
:10191000F0908500309380002093810090938200A6
:1019200062E0C8010E949205F80184818F7180668F
:101930008483B70190E080E02BE0660F771F881F5B
:10194000991F2A95D1F720EA36E841E050E098CF78
:101950008D3411F52CE143E050E06FEF80E00E9400
:101960002A038C01E0900605F0900705E114F104CC
:1019700021F48AE0E82E85E0F82E62E0C8010E949A
:101980009205F80184818F7180668483C1018E196C
:101990009F099087878316CF853409F00ECE2CE1FE
:1019A00043E050E06FEF80E00E942A0366E871E0B8
:1019B0000E94F0090E94C90810E000E06FEFC80122
:1019C0000E94E1190F5F1F4F0D39F1E01F07B1F7BA
:1019D00088E198E00FB6F894A895809360000FBE58
:1019E00090936000FFCF8A3109F4E7CD85EE94E053
:1019F0000E94420AE2CD2F3F09F0DFCD23E0F21230
:101A00001FC08091E80182FF03C0173009F4D5CDD3
:101A1000143109F0D2CD809104023813CECD0E944A
:101A2000C3047370882799270E94900425E143E03E
:101A300050E06FEF802F0E942A036091040245CE90
:101A4000809104023813B9CDD1CFA1960FB6F89486
:101A5000DEBF0FBECDBFDF91CF911F910F91FF90E1
:101A6000EF90DF90CF90BF90AF909F908F907F903E
:101A70006F905F904F903F902F9008958091E80174
:101A800084FD0C94AD0A0895CF92DF92EF92FF92FD
:101A9000CF93DF93D82F0E94C3046B017C01809108
:101AA000E90487608093E904C0E00E94C3046C19D4
:101AB0007D098E099F09603D77408105910590F46D
:101AC000C11110C0A8950E94D0050E943E0D8091C2
:101AD000E9048770833049F7C1E08091EA048D13EF
:101AE000E3CFE3CF8C2FDF91CF91FF90EF90DF908A
:101AF000CF900895CF92DF92EF92FF920E94C3049D
:101B00006B017C010E94C3046C197D098E099F0939
:101B1000643671058105910530F4A8950E94D005C1
:101B20000E943E0DEFCFFF90EF90DF90CF90089591
:101B30008F929F92AF92BF92CF92DF92EF92FF92DD
:101B40000F931F93CF93DF93CDB7DEB760970FB698
:101B5000F894DEBF0FBECDBF0E9492080E94C3045E
:101B60006B017C0128EE33E040E050E00E94591BFD
:101B7000CA01B9012CE330E040E050E00E94591B5B
:101B80007F936F93C701B60120E63AEE40E050E044
:101B90000E94591B98E1892E912CA12CB12CCA01CD
:101BA000B901A50194010E94591B7F936F93C7014E
:101BB000B60120E83EEE46E350E00E94591BCA0100
:101BC000B901A50194010E94591B7F936F93C7012E
:101BD000B60120E03CE546E255E00E94591B3F93E8
:101BE0002F9389E891E09F938F938E010F5F1F4F92
:101BF0001F930F930E94021CB8018BE993E00E948F
:101C0000F0090E9481080E947A0D88E00E94B707BF
:101C10008F7063EE7FEF28E0829F601971091124B5
:101C20002091600130916101C901880F991F820FD5
:101C3000931F680F791F0FB6F894DEBF0FBECDBF9C
:101C400077FF02C06D5F7F4F7595679575956795B6
:101C500070936101609360018AE793E00E94A005A0
:101C60000E9481080E947A0D62EA71E089E593E0A2
:101C70000E9411070E9481080E947A0D60E670E0C0
:101C800088E393E00E94A0050E9481080E947A0DDB
:101C900080916001909161018A3B9F4FACF467E9AC
:101CA00071E086EF92E00E9411070E9481080E9475
:101CB0007A0D88E198E00FB6F894A89580936000BB
:101CC0000FBE90936000FFCF70E060E081E694E08B
:101CD0000E94A0050E9481086BE971E080E494E015
:101CE0000E94F0090E9481080E947A0D88EC80937E
:101CF0007C0080917A00806880937A0064E170E0D3
:101D000080E090E00E94900480917A00806480934B
:101D10007A0080917A0086FDFCCF60917800709106
:101D2000790090E080E00E942B192EEA37E242EA27
:101D300053E40E94441A26EF38E24CE95FE30E9424
:101D4000B11A0E94231B062E000C770B8FE194E042
:101D50000E94A0050E9481080E947A0D62E871E04D
:101D60008EEF93E00E9411070E9481086091CC01E0
:101D70008DED93E00E94B5050E9481080E947A0DC6
:101D80006091DD018CEB93E00E94B5050E94810813
:101D90000E947A0D1092CC011092DD0160960FB670
:101DA000F894DEBF0FBECDBFDF91CF911F910F9191
:101DB000FF90EF90DF90CF90BF90AF909F908F906B
:101DC00008958F929F92AF92BF92CF92DF92EF923F
:101DD000FF920F931F93CF93DF931F92CDB7DEB780
:101DE0000E94C3046B017C018091C6019091C701E0
:101DF000A091C801B091C901B701A601481B590BB8
:101E00006A0B7B0B8091580190915901A0915A0166
:101E1000B0915B0184179507A607B70708F4A3C123
:101E20008091C4019091C5010F9709F01EC188E708
:101E300091E00E941D0481E18093A8048090CD016F
:101E40009090CE01A090CF01B090D00164E083EAE1
:101E500094E00E9492058091A7048F71806880931E
:101E6000A7048092AA049092AB04A092AC04B09212
:101E7000AD0483EA94E00E9481080E947A0D18E183
:101E80001093A8048090620190906301A090640177
:101E9000B090650164E083EA94E00E94920580912D
:101EA000A7048F7180688093A7048092AA049092FF
:101EB000AB04A092AC04B092AD0483EA94E00E941B
:101EC00081080E947A0D8091C301882309F48FC094
:101ED00086E38093A8048090660190906701A090AB
:101EE0006801B090690164E083EA94E00E94920581
:101EF0008091A7048F7180688093A7048092AA04C0
:101F00009092AB04A092AC04B092AD0483EA94E04A
:101F10000E9481080E947A0D109387048090D1015D
:101F20009090D201A090D301B090D40164E082E8F7
:101F300094E00E949205809186048F71806880935E
:101F400086048092890490928A04A0928B04B092B5
:101F50008C0482E894E00E9481080E947A0D89E155
:101F6000809387048090D5019090D601A090D701EE
:101F7000B090D80164E082E894E00E9492058091DC
:101F800086048F7180688093860480928904909281
:101F90008A04A0928B04B0928C0482E894E00E94A0
:101FA00081080E947A0D8AE1809387048090D9018C
:101FB0009090DA01A090DB01B090DC0164E082E84F
:101FC00094E00E949205809186048F7180688093CE
:101FD00086048092890490928A04A0928B04B09225
:101FE0008C0482E894E00E9481080E947A0D60913E
:101FF00062017091630180916401909165010E947A
:102000002D1920E030E04AE754E40E94B11A4B0158
:102010005C0182E18093A80465E083EA94E00E9479
:1020200092058091A704806E8093A7048092AA04F1
:102030009092AB04A092AC04B092AD0483E0809384
:10204000AE0483EA94E00E9481080E947A0DC09257
:10205000C601D092C701E092C801F092C9018EE09A
:1020600090E09093C5018093C4018091BF0190914D
:10207000C001A091C101B091C201A7019601281B26
:10208000390B4A0B5B0BDA01C901813E9349A4402D
:10209000B10550F0C092BF01D092C001E092C101E1
:1020A000F092C2010E94980D8091BB019091BC01F9
:1020B000A091BD01B091BE01A7019601281B390B6B
:1020C0004A0B5B0BDA01C90181389E4EA643B1056C
:1020D00020F480915701882391F010925701C0920B
:1020E000BB01D092BC01E092BD01F092BE016091B3
:1020F000C30187E193E00E94B5050E9481088091A9
:10210000C6019091C701A091C801B091C901A70172
:102110009601281B390B4A0B5B0BDA01C90181328E
:102120009F4BA240B10508F403C1C092C601D092F2
:10213000C701E092C801F092C90181E18093A8042F
:1021400064E771E083EA94E00E9411070E9481082D
:102150000E947A0D65E671E086EF92E00E94110719
:102160000E948108E5C089E592E00E949803181654
:1021700019060CF055CE89E592E00E94760389831A
:1021800080916C01882319F0815080936C01CE01FD
:1021900001960E943C05B090EB01EB2DF091EC0113
:1021A000E331F10508F09EC0E852FF4E0C949A1BF3
:1021B000031151113911EB10EB10EB10EE11F3116B
:1021C000DB11EB10EB10EB10641103110311031181
:1021D000F311F311F311A090F701EA2DF0E0E251B1
:1021E000FE4FAA2009F41CC18291882309F416C16C
:1021F000A092F70109818FE8800F8E3008F013C19B
:10220000802F8F70EDC01092EC011092EB011092B4
:10221000F70189818B3149F08EE090E09093EC01D9
:102220008093EB0184E080936C0180916C018111BB
:1022300059C08FEF9FEF90936B0180936A018BE100
:102240008983CE0101960E943C05CE0101960E9431
:102250003C05CE0101960E943C05CE0101960E94EC
:102260003C0582E090E09093EC018093EB0184E0E8
:1022700050C18981813049F08EE090E09093EC016B
:102280008093EB0184E080936C0180916C0181115B
:1022900029C08AE090E09093EC018093EB0181E00B
:1022A00038C189818B3149F08EE090E09093EC0148
:1022B0008093EB0184E080936C0180916C0181112B
:1022C00011C08CE090E0CFCF80916C018230F1F5AD
:1022D00080916A0190916B018095909590931E0179
:1022E00080931D018091EB019091EC019093C501C9
:1022F0008093C4010597A9F40FE111E0F801A680CD
:10230000B780A114B10469F046E050E069E072E0E2
:10231000C8010E94E61B085F1F4F892B79F7F50162
:1023200009958091C4019091C5010F9709F478CD6A
:102330000F90DF91CF911F910F91FF90EF90DF9061
:10234000CF90BF90AF909F908F900895813069F4A7
:1023500089812091B9013091BA01820F932F911D8B
:102360009093BA018093B901BDCF8111DDC029815D
:102370008091B9019091BA01922B20911D01309169
:102380001E0182179307A1F48FE090E09093EC0177
:102390008093EB0184E080936C018FEF9FEF90932B
:1023A0006B0180936A011092BA011092B9019ACF21
:1023B0008DE090E0EBCF898190916C01890F815085
:1023C00027E030E03093EC012093EB0180936C0127
:1023D0000E942F0587E00E942F0584CF8981805FAE
:1023E0000E945D067FCF89810E942F0580916C013C
:1023F000E091F701F0E0E351FE4F9081911109C0A7
:10240000811170CF85E090E09093EC018093EB0117
:1024100069CF811167CF89E090E0F6CFAA94E1CE31
:102420001092F701E7CE8FEF800F8F3608F049C08A
:10243000EA2DF0E0E351FE4F108111160CF04DC073
:102440000130E1F480E00E942F058B2D0E942F05C2
:10245000113059F485E090E09093EC018093EB010A
:1024600010936C010E9424053DCF83E090E090938F
:10247000EC018093EB0100936C01F4CF87E090E0D6
:102480009093EC018093EB01802F8F7081508093AB
:102490006C01007F20E130E0003541F021E130E0C7
:1024A000003621F0011106C022E130E03093EC014A
:1024B0002093EB010E942F058091EB010E942F05D4
:1024C000D1CF01110AC00E94240583E090E0AA2028
:1024D00009F4E1CE8BE090E0DECE80E8800F803121
:1024E00068F488E090E09093EC018093EB0120E1A8
:1024F000029F8001112400936C01F4CE0B3161F432
:10250000A1100FC081E090E09093EC018093EB016B
:1025100083E080936C01E6CE013F19F486E090E001
:10252000BACE8EE090E09FCE8091EB019091EC01CD
:102530009093C5018093C401F4CE2BE043E050E0BA
:102540006FEF80E00E942A0361EA71E00E94F009C7
:102550000E947A082CE043E050E06FEF80E00E9498
:102560002A036DEA71E00E94F0090E947A0843E4B0
:1025700051E064E270E089E50E94B8080E947A0D9B
:1025800047E351E064E270E080E50E94B8084CE265
:1025900051E064E270E081E50E94B80844E251E055
:1025A00064E270E088E50E94B8084CE151E064E222
:1025B00070E08BE50E94B8080E947A0D43E151E07B
:1025C00064E270E08CE50E94B8080E947A0D48E051
:1025D00051E064E270E08DE50E94B8084EEF50E0F3
:1025E00064E270E086E40E94B8080E947A0D43EF2E
:1025F00050E064E270E080E60E94B8084CEE50E0E3
:1026000064E270E08AE50E94B8080E947A0D4BED02
:1026100050E064E270E087E40E94B80845ED50E0C5
:1026200064E270E082E50E94B8080E947A0D4EECE8
:1026300050E064E270E083E50E94B8084AE551E0AA
:102640006DE070E083E20E94B8084FE451E067E17A
:1026500070E084E20E94B80880915701811102C0A5
:102660000C94980D08952FE043E050E06FEF80E068
:102670000E942A0365E871E00E94F00962E084ECA0
:1026800094E00E949205E4ECF4E084818F71806C08
:10269000848381E087831086CF010E947A088FE0CF
:1026A0000E94440D21E150E040E06FEF80E00E9485
:1026B0002A0362EB71E00E94F0090E947A0826E08A
:1026C00043E050E06FEF80E00E942A036091040233
:1026D0000E94B5050E94C90886E00E94440D0C9432
:1026E0009D12CF938091020281FD20C00E9433137E
:1026F00080910202816080930202C4E02AE143E0FB
:1027000050E06FEF80E00E942A0362E00E94B5056E
:102710000E94C9088BE10E94440D811102C0C15082
:1027200069F780910202826080930202CF9108953E
:102730001F920F920FB60F9211242F933F934F9336
:102740005F936F937F938F939F93AF93BF93EF9319
:10275000FF9389E592E00E94AE03FF91EF91BF9154
:10276000AF919F918F917F916F915F914F913F9129
:102770002F910F900FBE0F901F9018951F920F92E0
:102780000FB60F9211242F938F939F93EF93FF9384
:10279000E0916902F0916A028081E0916F02F0910C
:1027A000700282FD1BC09081809172028F5F8F73D7
:1027B00020917302821741F0E0917202F0E0E75A33
:1027C000FD4F958F80937202FF91EF919F918F91B2
:1027D0002F910F900FBE0F901F9018958081F4CF0E
:1027E0001F920F920FB60F9211242F933F938F9346
:1027F0009F93AF93BF938091F9019091FA01A091BB
:10280000FB01B091FC013091F80123E0230F2D373B
:1028100058F50196A11DB11D2093F8018093F9018F
:102820009093FA01A093FB01B093FC018091FD010C
:102830009091FE01A091FF01B09100020196A11DAF
:10284000B11D8093FD019093FE01A093FF01B09311
:102850000002BF91AF919F918F913F912F910F9067
:102860000FBE0F901F90189526E8230F0296A11D0A
:10287000B11DD2CF1F920F920FB60F9211242F933A
:102880003F934F935F936F937F938F939F93AF93F8
:10289000BF93EF93FF93E0916F01F0917001099561
:1028A000FF91EF91BF91AF919F918F917F916F9128
:1028B0005F914F913F912F910F900FBE0F901F90FE
:1028C00018951F920F920FB60F9211242F933F93DA
:1028D0004F935F936F937F938F939F93AF93BF9328
:1028E000EF93FF93E0916D01F0916E010995FF91D7
:1028F000EF91BF91AF919F918F917F916F915F9178
:102900004F913F912F910F900FBE0F901F901895F0
:102910001F920F920FB60F9211240F900FBE0F90BF
:102920001F901895CF93DF93FC01108211821282C1
:10293000148215821682DC0117968AE1ED01199244
:102940008A95E9F782E08383DF91CF910895CF9351
:10295000E9E5F2E01382128288EE93E0A0E0B0E0B5
:1029600084839583A683B78385E791E091838083F1
:1029700085EC90E09587848784EC90E09787868744
:1029800080EC90E0918B808B81EC90E0938B828B3C
:1029900082EC90E0958B848B86EC90E0978B868B15
:1029A000118E128E138E148E85EE94E00E94921476
:1029B00084EC94E00E94921483EA94E00E949214C2
:1029C000E3EAF4E083E2868381E1858382E894E0B0
:1029D0000E949214E2E8F4E084E2868388E1858331
:1029E00081E694E00E949214E1E6F4E080E58683BB
:1029F000CFE2C58380E494E00E949214E0E4F4E026
:102A000081E58683C5838FE194E00E949214EFE113
:102A1000F4E088E58683C5838EEF93E00E949214EC
:102A2000EEEFF3E089E58683C5838DED93E00E94A8
:102A30009214EDEDF3E082E58683C5838CEB93E0A1
:102A40000E949214ECEBF3E083E58683C5838BE967
:102A500093E00E949214EBE9F3E08AE58683C58354
:102A60008AE793E00E949214EAE7F3E08BE586831D
:102A7000C58389E593E00E949214E9E5F3E08CE5D3
:102A80008683C58388E393E00E949214E8E3F3E031
:102A90008DE58683C58387E193E00E949214E7E188
:102AA000F3E086E48683C58386EF92E00E94921469
:102AB000E6EFF2E080E68683C583CF9108957894AF
:102AC00084B5826084BD84B5816084BD85B5826033
:102AD00085BD85B5816085BD80916E0081608093E4
:102AE0006E0010928100809181008260809381004D
:102AF000809181008160809381008091800081605D
:102B0000809380008091B10084608093B1008091B7
:102B1000B00081608093B00080917A0084608093DF
:102B20007A0080917A00826080937A0080917A00A6
:102B3000816080937A0080917A00806880937A0027
:102B40001092C100A895E0916902F0916A0282E0BA
:102B50008083E0916502F09166021082E091670245
:102B6000F09168028FEC808310927102E0916D0207
:102B7000F0916E0286E08083E0916B02F0916C022E
:102B8000808180618083E0916B02F0916C02808192
:102B900088608083E0916B02F0916C028081806894
:102BA0008083E0916B02F0916C0280818F7D808345
:102BB000809102028D7F809302020E94FD0641E017
:102BC00050E063E071E081E092E00E94B91960E0BA
:102BD00081E090E00E94E1198091E9018F78809373
:102BE000E9011092DF011092DE018CE591E00E9474
:102BF000EE0581E793E19093CB018093CA010E9497
:102C0000C3046B017C010E94C3046C197D098E0909
:102C10009F096838734181059105C0F00E946D05D8
:102C2000A895C0E0D0E0A8950E94D0058091E80169
:102C300084FD0E94AD0A0E94E10E2097A1F30E943C
:102C4000A403882381F30E940000EDCF0E94D005E9
:102C50000E943E0D8091E80182FB882780F9A895AB
:102C60008111DCCFD0CFFC0188279927E8942191EE
:102C70002032E9F3293010F02E30C8F32B3241F026
:102C80002D3239F4689404C00E94A516820F911D5C
:102C9000219120532A30C0F31EF4909581959F4FC7
:102CA00008951F93FC0199278827BC01E89411918E
:102CB0001032E9F3193010F01E30C8F31B3251F016
:102CC0001D3249F4689406C00E949016610F711D70
:102CD000811D911D119110531A30B0F33EF490955F
:102CE0008095709561957F4F8F4F9F4F1F910895ED
:102CF000FC0105900020E9F7809590958E0F9F1FAD
:102D00000895FB01DC014150504048F005900D92C0
:102D10000020C9F701C01D9241505040E0F70895CE
:102D2000592F482F372F262F660F771F881F991F7F
:102D3000660F771F881F991F620F731F841F951FCF
:102D4000660F771F881F991F08957AE0979F902D2F
:102D5000879F802D910D11240895ABE0B0E0E3EB47
:102D6000F6E10C94FE197C013B018A01FC011782FB
:102D70001682838181FFC8C1CE0101965C01F701F3
:102D80009381F30193FD859193FF81913F01882306
:102D900009F453C1853239F493FD859193FF8191F4
:102DA0003F01853229F4B70190E00E949D18E7CFDA
:102DB000912C212C312CFFE1F31538F08B3211F1DD
:102DC00090F4803209F1833229F137FC3CC020EDC8
:102DD000280F2A3050F536FE20C08AE0989E200D3C
:102DE0001124922E06C08D3291F0803371F76894D1
:102DF00030F8F30193FD859193FF81913F0181119B
:102E0000DACF21C0689431F8689432F8F2CF689430
:102E100033F8EFCF689434F8ECCFEAE02E9E200D23
:102E20001124222E689435F8E4CF8E3229F436FC32
:102E300004C1689436F8DDCF8C3619F4689437F8FD
:102E4000D8CF8836B1F2982F9F7D95549330E0F01B
:102E50008336A1F18337C1F1833509F063C02801BE
:102E6000F2E04F0E511CF801C080D180692D70E056
:102E700036FC02C06FEF7FEFC6010E9487184C013D
:102E8000689437F882010AC00C5F1F4FFFE3F98393
:102E900088248394912C6501E89437F833FE2DC083
:102EA000522C8114910471F5552009F468CFB701B3
:102EB00080E290E00E949D185A94F6CFF80180813C
:102EC00089830E5F1F4FE4CF2801F2E04F0E511CA3
:102ED000F801C080D180692D70E036FC02C06FEF30
:102EE0007FEFC6010E9492184C018201D5CFB70135
:102EF00080E290E00E949D182A942814190409F099
:102F0000B0F7CECFF60137FC859137FE81916F0186
:102F1000B70190E00E949D1851105A94F1E08F1A69
:102F20009108BFCF843619F0893609F077C0F801CF
:102F300037FE6BC060817181828193810C5F1F4F6E
:102F4000F32DFF763F2E97FF09C0909580957095E1
:102F500061957F4F8F4F9F4F689437F82AE030E09C
:102F6000A5010E94CD18C82ECA188C2C432C36FE01
:102F70000CC0E89440F8C91440F434FE05C032FC9B
:102F800003C0F32DFE7E4F2E892C44FE95C0FE011A
:102F9000EC0DF11D8081803309F087C0242D297E3E
:102FA000422E842D8870582E43FC95C040FE8FC061
:102FB0009C2C821418F42C0C922C981844FE91C06E
:102FC000B70180E390E00E949D1842FE09C088E7A7
:102FD00090E041FE02C088E590E0B7010E949D1894
:102FE000C91408F48AC0CA94D12C9FEFC91AD90A0F
:102FF000CA0CDB1CF60182916F01B70190E00E94C0
:103000009D18AC14BD04B1F74FCF60817181072EBC
:10301000000C880B990B0E5F1F4F92CFD32CE894B6
:10302000D4F82AE030E0853739F1232D297FD22EDC
:103030008F3601F148F48835A9F0F7018681978130
:103040002B96E2E10C941A1A803749F08837A9F7D9
:10305000D4FE02C06894D2F820E130E00DC068943C
:10306000D4F8F6CF34FE03C0822F8660D82E20E13C
:1030700032E002C028E030E0F801D7FE0FC06081E6
:103080007181828193810C5F1F4FA5010E94CD1831
:10309000C82ECA183D2CE89437F867CF608171813B
:1030A00090E080E00E5F1F4FF0CF42FC02C083949F
:1030B00078CF8394839475CF842D867809F471CF6B
:1030C000F6CFB70180E290E00E949D1883948214AD
:1030D000C0F3512C73CF522C5818821408F46ECFC1
:1030E000F8CF842D867809F47BCF8BE241FE80E215
:1030F00047FC8DE2B70190E071CFB70180E390E02B
:103100000E949D189A946CCF8FEF9FEF99CFFC018E
:103110000590615070400110D8F7809590958E0F02
:103120009F1F0895FC016150704001900110D8F775
:10313000809590958E0F9F1F08950F931F93CF93A7
:10314000DF93182F092FEB018B8181FD09C01FEF41
:103150000FEF812F902FDF91CF911F910F91089545
:1031600082FF14C02E813F818C819D8128173907F1
:103170003CF4E881F981CF0101969983888310831B
:103180008E819F8101969F838E83E3CFE885F985A9
:10319000812F0995892BA1F3DACFFA01AA272830CC
:1031A00051F1203181F1E8946F936E7F6E5F7F4F14
:1031B0008F4F9F4FAF4FB1E03ED0B4E03CD0670F90
:1031C000781F891F9A1FA11D680F791F8A1F911DE3
:1031D000A11D6A0F711D811D911DA11D20D009F433
:1031E00068943F912AE0269F11243019305D319375
:1031F000DEF6CF010895462F4770405D4193B3E05E
:103200000FD0C9F7F6CF462F4F70405D4A3318F004
:10321000495D31FD4052419302D0A9F7EACFB4E0B5
:10322000A6959795879577956795BA95C9F700976D
:103230006105710508959B01AC010A2E069457950E
:10324000479537952795BA95C9F7620F731F841F65
:10325000951FA01D0895E89409C097FB3EF4909532
:103260008095709561957F4F8F4F9F4F9923A9F05F
:10327000F92F96E9BB279395F695879577956795EE
:10328000B795F111F8CFFAF4BB0F11F460FF1BC032
:103290006F5F7F4F8F4F9F4F16C0882311F096E9C5
:1032A00011C0772321F09EE8872F762F05C0662373
:1032B00071F096E8862F70E060E02AF09A95660F2C
:1032C000771F881FDAF7880F9695879597F90895E5
:1032D00097F99F6780E870E060E008959FEF80ECC9
:1032E000089500240A94161617061806090608956C
:1032F00000240A9412161306140605060895092ED2
:103300000394000C11F4882352F0BB0F40F4BF2B40
:1033100011F460FF04C06F5F7F4F8F4F9F4F089580
:1033200057FD9058440F551F59F05F3F71F0479576
:10333000880F97FB991F61F09F3F79F0879508955B
:10334000121613061406551FF2CF4695F1DF08C07A
:10335000161617061806991FF1CF86957105610597
:1033600008940895E894BB2766277727CB0197F93F
:103370000895DC01CB01FC01F999FECF06C0F2BD36
:10338000E1BDF89A319600B40D9241505040B8F723
:103390000895F999FECF92BD81BDF89A992780B51D
:1033A0000895DC01A40FB51F4150504048F0CB01F7
:1033B000840F951F2E910E94E21941505040D0F782
:1033C0000895262FF999FECF92BD81BDF89A0197F5
:1033D00000B4021639F01FBA20BD0FB6F894FA9A5D
:1033E000F99A0FBE08950E94351AA59F900DB49FBB
:1033F000900DA49F800D911D112408952F923F924E
:103400004F925F926F927F928F929F92AF92BF92F4
:10341000CF92DF92EF92FF920F931F93CF93DF93A0
:10342000CDB7DEB7CA1BDB0B0FB6F894DEBF0FBEFD
:10343000CDBF09942A88398848885F846E847D844A
:103440008C849B84AA84B984C884DF80EE80FD804C
:103450000C811B81AA81B981CE0FD11D0FB6F894C2
:10346000DEBF0FBECDBFED010895A29FB001B39F97
:10347000C001A39F700D811D1124911DB29F700D7D
:10348000811D1124911D08955058BB27AA270E9421
:103490005C1A0C947F190E94711938F00E947819F7
:1034A00020F039F49F3F19F426F40C946E190EF4B1
:1034B000E095E7FB0C946819E92F0E94901958F3E6
:1034C000BA17620773078407950720F079F4A6F509
:1034D0000C94B2190EF4E0950B2EBA2FA02D0B010F
:1034E000B90190010C01CA01A0011124FF27591B49
:1034F00099F0593F50F4503E68F11A16F040A22F4F
:10350000232F342F4427585FF3CF469537952795BF
:10351000A795F0405395C9F77EF41F16BA0B620BBE
:10352000730B840BBAF09150A1F0FF0FBB1F661F05
:10353000771F881FC2F70EC0BA0F621F731F841F48
:1035400048F4879577956795B795F7959E3F08F06E
:10355000B0CF9395880F08F09927EE0F9795879530
:1035600008950E94C51A0C947F190E94781958F08A
:103570000E94711940F029F45F3F29F00C946819FA
:1035800051110C94B3190C946E190E94901968F3A0
:103590009923B1F3552391F3951B550BBB27AA270C
:1035A00062177307840738F09F5F5F4F220F331F46
:1035B000441FAA1FA9F335D00E2E3AF0E0E832D00E
:1035C00091505040E695001CCAF72BD0FE2F29D011
:1035D000660F771F881FBB1F261737074807AB07E3
:1035E000B0E809F0BB0B802DBF01FF2793585F4F58
:1035F0003AF09E3F510578F00C9468190C94B31979
:103600005F3FE4F3983ED4F3869577956795B79539
:10361000F7959F5FC9F7880F911D9695879597F944
:103620000895E1E0660F771F881FBB1F62177307BD
:103630008407BA0720F0621B730B840BBA0BEE1FD2
:1036400088F7E09508950E942A1B6894B1110C94A4
:10365000B31908950E94981988F09F5798F0B92FD0
:103660009927B751B0F0E1F0660F771F881F991FB7
:103670001AF0BA95C9F714C0B13091F00E94B2198E
:10368000B1E008950C94B219672F782F8827B85F9E
:1036900039F0B93FCCF3869577956795B395D9F70F
:1036A0003EF490958095709561957F4F8F4F9F4F19
:1036B0000895A1E21A2EAA1BBB1BFD010DC0AA1F73
:1036C000BB1FEE1FFF1FA217B307E407F50720F08B
:1036D000A21BB30BE40BF50B661F771F881F991F06
:1036E0001A9469F760957095809590959B01AC014F
:1036F000BD01CF010895052E97FB1EF400940E9492
:10370000921B57FD07D00E94591B07FC03D04EF4B3
:103710000C94921B50954095309521953F4F4F4FFB
:103720005F4F089590958095709561957F4F8F4F6D
:103730009F4F0895EE0FFF1F0590F491E02D09941F
:103740006095709580959095309540955095219510
:103750003F4F4F4F5F4F6F4F7F4F8F4F9F4F08959A
:10376000002E083090F0982F872F762F652F542F3A
:10377000432F322F22270850F4CF220F331F441F2C
:10378000551F661F771F881F991F0A95B2F7002DD6
:10379000089597FD1094002E083098F00850232FBC
:1037A000342F452F562F672F782F892F912DF4CF47
:1037B000159497958795779567955795479537957C
:1037C00027950A95AAF71124002D0895FB01DC0125
:1037D00004C08D910190801921F441505040C8F7E8
:1037E000881B990B0895FB01DC014150504048F0C3
:1037F00001900D920020C9F701C01D924150504028
:10380000E0F70895AEE0B0E0E8E0FCE10C940C1ABB
:103810000D891E8986E08C831A8309838FEF9FE7C9
:103820009E838D83AE01475E5F4F6F89788DCE0199
:1038300001960E94AD162F813885020F131FF801E3
:0E38400010822E96E4E00C94281AF894FFCF24
:10384E00FFFFFF00FCE1A8A8FF8E071A061F0AB9AA
:10385E0006D706D306CB088A0644063A06FFFF01B2
:10386E0000100700FF68050100240700FF64050132
:10387E0000380700FF600501004C0700FF5C0501E2
:10388E0000010800FF58050100020800FF54050062
:10389E000000000000000001983A0000E706DF0873
:1038AE00E3FFFEFFFFFFFEFFFFFFFFFF04CF04CF8E
:1038BE000400000000D0033A036703410498037626
:1038CE00038A030D0A004F4B002564202530326415
:1038DE003A253032643A2530326400666978656480
:1038EE0000456E657267794D6574657200322E30D3
:0838FE003500322E332E32009A
:00000001FF
