:100000000C94F9000C947C100C9455100C94210164
:100010000C9421010C9421010C94460D0C942101A7
:100020000C9421010C9421010C9421010C942101C8
:100030000C9421010C9421010C9421010C942101B8
:100040000C940B100C9421010C94C9100C94A31067
:100050000C9421010C9421010C9421010C94210198
:100060000C9421010C9421016364696E6F707375A7
:1000700078585B004462675F52657475726E005316
:1000800065744D6574657256616C75650044626790
:100090005F4C6576656C0052465F4368616E6E65C5
:1000A0006C0050415F4C6576656C0054585F52534C
:1000B000534900487754696D6500506172656E74EC
:1000C0004E6F646500506173736976654E6F646549
:1000D00000506F7765724D6574657200322E332E55
:1000E000310A00207C5F5C2F602C0A07022002206E
:1000F000B2871003400120002402221002220202D3
:100100002002220022200202202227101341010196
:1001100001032220304020305203402214020310F9
:10012000522402217101001010121012221010022C
:1001300024010103220300200101003220371210A4
:1001400001213226012840322212101212224322AB
:1001500024121001222470C122240F0F524632347F
:100160005F50415F4C4F570068775265626F6F7404
:100170000064626733206E6F7420706F73736962FE
:100180006C650000000000240027002A0000000029
:1001900000250028002B00040404040404040402C5
:1001A0000202020202030303030303010204081014
:1001B00020408001020408102001020408102000E1
:1001C0000000080002010000030407000000000016
:1001D000000000204D5953454E534F52535F4C4938
:1001E00042524152595F56455253494F4E200000EA
:1001F0000D1211241FBECFEFD8E0DEBFCDBF11E03E
:10020000A0E0B1E0EAE0F7E302C005900D92AE3A5B
:10021000B107D9F725E0AEEAB1E001C01D92A938D7
:10022000B207E1F710E0C9EFD0E004C02197FE016A
:100230000E940518C83FD107C9F70E94FB100C9413
:10024000831B0C940000CF92DF92EF92FF920E94EA
:10025000680F6B017C018091DD019091DE01A0911E
:10026000DF01B091E001A7019601281B390B4A0B71
:100270005B0BCA01B901603137E273078105910553
:1002800078F10E9418169B01AC0164EA73E986E5D7
:100290009FE40E943C170E94AE176093CD017093BB
:1002A000CE018093CF019093D001C092DD01D09216
:1002B000DE01E092DF01F092E0018091C9019091AE
:1002C000CA01A091CB01B091CC010196A11DB11D35
:1002D0008093C9019093CA01A093CB01B093CC0144
:1002E000FF90EF90DF90CF9008958F929F92AF9202
:1002F000BF92CF92DF92EF92FF920F931F93CF9313
:10030000DF93CDB7DEB760970FB6F894DEBF0FBEB0
:10031000CDBF0E94C70F6B017C0128EE33E040E0A7
:1003200050E00E941A17CA01B9012CE330E040E006
:1003300050E00E941A177F936F93C701B60120E621
:100340003AEE40E050E00E941A1768E1862E912CA8
:10035000A12CB12CCA01B901A50194010E941A1760
:100360007F936F93C701B60120E83EEE46E350E06D
:100370000E941A17CA01B901A50194010E941A1717
:100380007F936F93C701B60120E03CE546E255E05C
:100390000E941A173F932F938FE591E09F938F93BD
:1003A0008E010F5F1F4F1F930F930E943918B801E2
:1003B0008DE093E00E94F1060E94720E88E00E9498
:1003C000670C482F4F70809105019091060157E00E
:1003D000589F9001599F300D112483EE9FEF58E0F4
:1003E000459F801991091124820F931F0FB6F8942D
:1003F000DEBF0FBECDBF97FD079623E0959587958D
:100400002A95E1F790930601809305012091F0026F
:100410002F7120642093F0022091EF022770206159
:100420002093EF029093F4028093F3028CEE92E01B
:100430000E94720E6CE571E08BEC92E00E94300637
:100440000E94720E8091AE028F7180648093AE0222
:100450008091AD02877080618093AD0280E690E06C
:100460009093B2028093B1028AEA92E00E94720EE7
:10047000809153038F718064809353038091520362
:100480008770806180935203109257031092560335
:100490008FE493E00E94720E61E771E08EE293E0D8
:1004A0000E94F1060E94720E60960FB6F894DEBFAD
:1004B0000FBECDBFDF91CF911F910F91FF90EF90B5
:1004C000DF90CF90BF90AF909F908F900895CF9284
:1004D000DF92EF92FF920F931F930E94C70F6B0161
:1004E0007C018091D9019091DA01A091DB01B0915A
:1004F000DC01B701A601481B590B6A0B7B0B8091ED
:10050000B701413E53496440710530F490910001B8
:10051000911102C0882399F1C092D901D092DA01D9
:10052000E092DB01F092DC01882329F11092B701FF
:100530004091C9015091CA016091CB017091CC01E9
:1005400088E18093B7038091B6038F71806A8093AE
:10055000B6038091B503877080628093B5034093A2
:10056000B9035093BA036093BB037093BC0382EB4F
:1005700093E00E94720E0E94830E0E94750180918A
:10058000D5019091D601A091D701B091D801B701C2
:10059000A601481B590B6A0B7B0B80910001413867
:1005A0005E4E6643710518F4882309F441C0882320
:1005B00019F0109200010CC06091C9017091CA013C
:1005C0008091CB019091CC010E94BA0E0E947501DE
:1005D0006091B60181E993E00E9424060E94720EA8
:1005E0004091C9015091CA016091CB017091CC0139
:1005F000809174038F71806A809374038091730378
:1006000087708062809373034093770350937803DD
:100610006093790370937A0380E793E00E94720EEF
:10062000C092D501D092D601E092D701F092D801C4
:100630008091D1019091D201A091D301B091D401C8
:10064000A7019601281B390B4A0B5B0BDA01C90184
:1006500081329E44A105B10508F4DDC04091CD0171
:100660005091CE016091CF017091D0018091B20183
:100670009091B301A091B401B091B5014817590709
:100680006A077B0709F440C08091CD019091CE01AB
:10069000A091CF01B091D001803E9E42A105B1054D
:1006A00018F54091CD015091CE016091CF0170912C
:1006B000D00181E18093B7038091B6038F71806A86
:1006C0008093B6038091B503877080628093B503F1
:1006D0004093B9035093BA036093BB037093BC0378
:1006E00082EB93E00E94720E8091CD019091CE0139
:1006F000A091CF01B091D0018093B2019093B3014A
:10070000A093B401B093B5014091C9015091CA01C1
:100710006091CB017091CC018091AE019091AF01BD
:10072000A091B001B091B101481759076A077B0742
:1007300009F465C061E085E00E94DF0E4091C901C7
:100740005091CA016091CB017091CC0188E18093F6
:10075000B7038091B6038F71806A8093B60380914E
:10076000B503877080628093B5034093B9035093BB
:10077000BA036093BB037093BC0382EB93E00E94C7
:10078000720E6091C9017091CA018091CB01909164
:10079000CC010091C9011091CA012091CB01309187
:1007A000CC010093AE011093AF012093B0013093C0
:1007B000B10122E12093B7032091B503277028628D
:1007C0002093B5032091B603206E2093B6030E94B8
:1007D000181620E030E04AE754E40E943C1760938A
:1007E000B9037093BA038093BB039093BC0383E077
:1007F0008093BD0382EB93E00E94720E04C060E020
:1008000085E00E94DF0EC092D101D092D201E09229
:10081000D301F092D4011F910F91FF90EF90DF90E0
:10082000CF90089562E370E080E090E00C948D0F2B
:100830000F931F93CF93DF938DE991E00E94B91638
:100840008A3018F48093B60107C01092B60160E0B8
:100850008DE991E00E94D1168EE991E00E94B916CF
:10086000D82F8FE991E00E94B916082F80EA91E015
:100870000E94B916C82F81EA91E00E94B916402F54
:1008800050E060E070E00027142F252F362F4C2F0A
:1008900050E060E070E0BA0155274427400F511F37
:1008A000621F731F4D0F511D611D711D90E0A0E06F
:1008B000B0E0B82FAA2799278827840F951FA61F75
:1008C000B71F8F3F2FEF9207A207B20751F469EBD2
:1008D0007DEB81E790E00E94BA0E89EB9DEBA1E7EA
:1008E000B0E08093C9019093CA01A093CB01B0936B
:1008F000CC018093AE019093AF01A093B001B0936F
:10090000B101DF91CF911F910F91089561E085E0D2
:100910000E942C0F62E083E00E942C0F83E291E0A2
:100920009093270180932601E9E6F0E080818C60B6
:100930008083E99A0E94C70F6093D9017093DA010E
:100940008093DB019093DC016093D1017093D2011D
:100950008093D3019093D4016093DD017093DE0105
:100960008093DF019093E0016093D5017093D601ED
:100970008093D7019093D8010895CF92DF92EF92A0
:10098000FF920F931F93CF93DF93CDB7DEB7A3975B
:100990000FB6F894DEBF0FBECDBF9E012F5F3F4F55
:1009A00079013F932F93CE0182969F938F938E016F
:1009B000065E1F4F1F930F9386E791E09F938F93DF
:1009C0008FE791E09F938F930E945B18B80188E2B4
:1009D00091E00E941F182BA12F932AA12F938852D8
:1009E000914063E070E00E94DD176F5F7F4F7F935F
:1009F0006F938A818F9389818F938BE891E09F9386
:100A00008F931F930F930E943918FE01339687E14D
:100A1000DF011D928A95E9F781E389838EE28A835B
:100A200085E38B839DE29C8390E39D839E838F83EC
:100A300080E28887F801DE011996CE0141960FB653
:100A4000F894DEBF0FBECDBF21912D93A817B90733
:100A5000D9F780E2898B81E38A8B80E38B8B8AE3F1
:100A60008C8B82E38D8B83E38E8B2BE043E06FEFE7
:100A700080E00E94630E66E971E00E94F1060E9428
:100A8000BD072CE043E06FEF80E00E94630EB701EA
:100A90000E94F1060E94BD0745EC50E064E280E54B
:100AA0000E94A50E4AEB50E064E281E50E94A50E8B
:100AB00043EB50E064E28AE50E94A50E4BEA50E069
:100AC00064E28BE50E94A50E42EA50E064E28CE508
:100AD0000E94A50E47E950E064E28DE50E94A50E54
:100AE0004DE850E064E286E40E94A50E4FE750E036
:100AF00064E287E40E94A50E44E750E064E280E6E9
:100B00000E94A50E41ED50E06DE083E20E94A50E2B
:100B10000E94C70F6B017C010E94C70FDC01CB0153
:100B20008C199D09AE09BF0984369105A105B1054F
:100B300030F4A8950E94C4070E940E08EDCF0E94D1
:100B40007501A3960FB6F894DEBF0FBECDBFDF913F
:100B5000CF911F910F91FF90EF90DF90CF9008956C
:100B6000CF932FE043E06FEF80E00E94630E64EAD2
:100B700071E00E94F106E3EDF3E08381877080610C
:100B8000838384818F71806C848381E08783108666
:100B9000CF010E94BD078FE00E94D30F22E140E009
:100BA0006FEF80E00E94630E65EA71E00E94F1063B
:100BB0000E94BD07C091E90126E043E06FEF80E0AD
:100BC0000E94630E6C2F0E9424060E94BD0786E0DF
:100BD0000E94D30FCF910C94BD04CF938091E70175
:100BE00081FD1FC00E94B0058091E7018160809364
:100BF000E701C4E02AE143E06FEF80E00E94630E6A
:100C000062E00E9424060E94BD078BE10E94D30F80
:100C1000811102C0C15071F78091E7018260809319
:100C2000E701CF910895FC01248122952695277034
:100C3000213011F487810895211104C007960E9484
:100C40000413089580E00895FC0183818770886013
:100C5000838384818F71806284836783CF01089549
:100C6000EF92FF920F931F93CF93DF93EC017B01E1
:100C70006115710541F0CB010E944913893191053D
:100C800018F089E101C080E0082F10E02B81922F3D
:100C90009770980143E0220F331F4A95E1F7292B03
:100CA0002B839C819F719C83882331F0A801B7011D
:100CB000CE0107960E945213FE01E00FF11F17822A
:100CC000CE01DF91CF911F910F91FF90EF9008958A
:100CD000CF93DF93EC018E81873409F053C08C8170
:100CE00084FD50C08D818F3209F04CC0F8948C8106
:100CF000829586958770853029F46F8178858985FE
:100D00009A850AC0811105C0CE0107960E94221360
:100D100003C060E070E0CB016093C9017093CA0129
:100D20008093CB019093CC018091C9019091CA012D
:100D3000A091CB01B091CC018093AE019093AF0113
:100D4000A093B001B093B1011092B2011092B3011F
:100D50001092B4011092B5011092CD011092CE0103
:100D60001092CF011092D00181E08093B701609181
:100D7000C9017091CA018091CB019091CC010E9470
:100D8000BA0E78948E81863449F58D818F3231F593
:100D9000CE010E9413068093B601833041F461E7CF
:100DA00071E089E892E00E9430060E94720E809104
:100DB000B601893099F468E671E089E892E00E9412
:100DC00030060E94720E98E088E10FB6F894A8955C
:100DD000809360000FBE90936000FFCFDF91CF91B2
:100DE00008950F931F93CF93DF93EC016115710565
:100DF00061F0FB0101900020E9F73197E61BF70B4A
:100E0000E931F10518F0E9E101C0E0E00E2F10E052
:100E10008B81282F2770C80133E0880F991F3A95DE
:100E2000E1F7822B8B838C818F718C83EE2329F0E9
:100E3000A801CE0107960E941018FE01E00FF11FD5
:100E40001782CE01DF91CF911F910F910895EF92FC
:100E5000FF921F93CF93DF937C01FC01C2818091AD
:100E6000C20180FF04C0CF3F09F05BC014C0C111B4
:100E700003C0C091E9010FC0CF3F69F08C2F90E013
:100E800003960E94B9168F3F29F48091E901F7017A
:100E900090819813C82F8091E801F70180834381E6
:100EA00042FD06C046954695469517E0140F01C0D1
:100EB00010E2D091EB01D170299883E092E0019784
:100EC000F1F76EE080E20E942D0C8BE891E0019733
:100ED000F1F76C2F8AE20E942D0C6C2F80E30E94A8
:100EE0002D0C81EE0E946D0CCF3F11F0DD2311F02F
:100EF00080EB01C080EA412F113208F040E220E08F
:100F0000B7010E94FB0B299AE12CF12C8FEF0E9474
:100F10006D0C182F807339F4F1E0EF1AF108B1F776
:100F200002C080E024C0299860E387E20E942D0C73
:100F300014FF03C081EE0E946D0C0E945A0C15FD37
:100F4000D1E081E0CF3F09F080E08D2B9091E90165
:100F5000C9130DC09091C301811106C021E0290F72
:100F60002F70907F922B01C0907F9093C301DF91EF
:100F7000CF911F91FF90EF9008952091C20122FD23
:100F80000C94270780E00895E091B801F091B90131
:100F9000309721F00280F381E02D099408950F939A
:100FA0001F930E94C70F0091BA011091BB012091BD
:100FB000BC013091BD01601B710B820B930B1F9123
:100FC0000F9108959C018091B8019091B901821709
:100FD000930751F09091C2019F719093C201309399
:100FE000B9012093B80105C08091C201805E809351
:100FF000C201E091B801F091B901309721F0019060
:10100000F081E02D09950E94C70F6093BA0170939B
:10101000BB018093BC019093BD0108953F924F9214
:101020005F926F927F928F929F92AF92BF92CF9278
:10103000DF92EF92FF920F931F93CF93DF938091F4
:10104000C20184FB332430F884FFC3C20E94C70F5F
:101050000091E1011091E2012091E3013091E4015E
:10106000DC01CB01801B910BA20BB30B813A9B4B94
:10107000AD40B105A0F00E94C70F6093E1017093ED
:10108000E2018093E3019093E40186E00E94670C03
:101090008332E1F485E00E94670C8036B9F426E0E3
:1010A000E22E30E0C32E30E0D32E44244A9455245F
:1010B000539443E0642E42E0742E87E10E94670C53
:1010C00080FD87C2EA94E11006C083C287E091E008
:1010D0000E94E207E4CF21E041E060E070E080E6BA
:1010E0000E94FB0BC82F813220F082EE0E946D0C13
:1010F000C0E021E04C2F64EF73E081E60E94FB0B1F
:1011000060E487E20E942D0C8091F703B82EB6941C
:10111000B694B69439E13B1510F499E1B92E82FDED
:1011200003C097E09B0D01C090E29C13C6CF837073
:10113000823019F61091F803C091F903D091F503AC
:101140000091F403F090F6038091E901081751F043
:101150008091E801D81731F08D2F90E0602F039631
:101160000E94D11617708091C30180688093C301DB
:101170008091E801F81242C02091F703822F8695F2
:10118000869586958A3108F089E138E0839FC00111
:1011900011242770282B2093F703EB2DF0E0EC505F
:1011A000FC4F17828091F80383FF15C091E2E4EFB2
:1011B000F3E0A3EDB3E001900D929A95E1F7877FFC
:1011C00080618093D703F092D403D093D50383ED4D
:1011D00093E00E94BD079091F80394FF05C084EF4F
:1011E00093E00E94680669CF1330C9F78091F90334
:1011F00021EF280F233008F06CC05FCF2FEFF212E1
:1012000050C0133009F03FC08091C20182FF1EC060
:10121000C730E1F48091E901D81709F44ECF0E945C
:10122000C70F0091BE011091BF012091C001309104
:10123000C101DC01CB01801B910BA20BB30B8031F0
:101240009742A105B10508F494C139C1C83009F429
:1012500034CFC431C1F48091E901081314C00E9455
:10126000C70F7370882799270E948D0FC091E901DD
:1012700025E143E06FEF8D2F0E94630E6C2F0E94DB
:1012800024060E9427078091E901081316CF809158
:10129000E801D81709F499C18091C20182FD88C183
:1012A00094C18091C20182FF08CF133079F4C851F4
:1012B000C23060F484EF93E00E9413068E3F31F059
:1012C00061E0680F84EF93E00E94240684EF93E0CE
:1012D0006CC1C43009F4F1CEC830D9F4C091C20158
:1012E000C0FFEBCE84EF93E00E9413068F3F09F41A
:1012F000E4CE8F5F8F3F09F4E0CE9091EA01891729
:1013000008F0DBCEC1FDD9CE8093EA01D093E9018C
:10131000D4CEC83141F429E143E06FEF8D2F0E9414
:10132000630E61E040C1C93171F48091C20183FF55
:10133000C4CE877F8093C20184EF93E00E9413069E
:101340008093C401BACECE3109F4B7CECD31A9F421
:101350002FE143E06FEF80E00E94630EFC01848187
:101360008F7180648483838187708061838380E050
:101370009FEF90878783CF0118C12091F50321113A
:101380009AC08D3059F498E088E10FB6F894A8958A
:10139000809360000FBE90936000FFCF8B3179F493
:1013A00084EF93E00E94130691E0811101C090E068
:1013B0008091E70190FB80F98093E7017ECE863033
:1013C000A9F49091FB03992329F081E09D3419F051
:1013D00080E001C0832D8093E60141E050E063E0AE
:1013E00071E086EE91E00E94C11667CE833119F458
:1013F0000E94B00562CE823119F40E94830E5DCE48
:101400008230A9F422E043E06FEF80E00E94630E97
:10141000FC0184818F71806A8483838187708062FC
:1014200083834782508661867286CF013DC08130BA
:10143000F9F4C114D10409F440CE929596959770B1
:10144000953049F46091FB037091FC038091FD039A
:101450009091FE030AC0911105C08BEF93E00E94AA
:10146000221303C060E070E0CB010E94000025CE93
:101470008A30E9F48091FB03833409F01ECEC3E087
:10148000D0E06FEFCE010E94D1162196C33091E0DB
:10149000D907B9F72AE043E06FEF80E00E94630EBE
:1014A0006BEA71E00E94F1060E94BD0706CE8C3106
:1014B00009F095CE02CE8A3109F091CEFECD809111
:1014C000C20183FDFACD9091E801911103C0109201
:1014D000C40126C088608093C201F092C40128E153
:1014E00043E06FEF80E00E94630E61E00E942406FB
:1014F0000E9427070E94C70F4B015C011092F9035D
:10150000C0E00E94C70FDC01CB0188199909AA0924
:10151000BB09803D9740A105B10510F4CC23D9F05B
:101520008091C201877F8093C201C091C401CF3FE7
:1015300009F4C3CD0E94C70F6093BE017093BF0131
:101540008093C0019093C1018091EA018C1789F0CA
:10155000C093EA010EC00E940E08A8958091F8037E
:101560008770833071F6C1E08091F903893141F6CB
:10157000C8CF0E94C70F6093BE017093BF018093D4
:10158000C0019093C1010E94C70F737088279927EB
:101590000E948D0FC091EA0128E043E06FEF8D2F8C
:1015A0000E94630E6C2F0E9424060E94270785CD9F
:1015B00084EF93E00E942707133009F47ECD8091D9
:1015C000E901081709F40BCE78CD133009F007CEE6
:1015D00074CDDF91CF911F910F91FF90EF90DF902D
:1015E000CF90BF90AF909F908F907F906F905F90C3
:1015F0004F903F9008958091C20184608093C20112
:101600008091C30180788093C301E091C701F0917C
:10161000C801309709F0099408958091C3018F7033
:101620008B3020F080E291E00C94E20708950F9354
:101630001F930E94CF072091C3012077203729F004
:1016400000E117E220E030E004C000E61AEE20E0FE
:1016500030E0061717072807390730F481E091E0DA
:101660001F910F910C94E2071F910F9108958091A3
:10167000E8018F3F19F088E191E010C00E94CF0788
:10168000613D77408105910558F08091C201803617
:1016900018F484E191E002C087E091E00C94E20745
:1016A00008950E94CF07613D77408105910520F4A0
:1016B0008091C20181FF08958091E9018F3F41F03F
:1016C0008091C2018E7F8093C20184E191E009C0C4
:1016D0008091C201803618F480E291E002C087E078
:1016E00091E00C94E2078091C4018F3FA1F00E9429
:1016F000C70F6093BE017093BF018093C0019093A8
:10170000C1018091C4019091EA0189138093EA019B
:101710008CE191E013C00E94CF07613D77408105C5
:10172000910570F08091C201803618F488E191E053
:1017300005C0877F8093C20180E291E00C94E207AC
:1017400008958FEF8093C401E2ECF1E0808188601E
:10175000808328E143E06FEF80E00E94630E61E048
:101760000E9424060C9427078091E8018F3F61F4C2
:1017700023E043E06FEF80E00E94630E64EA71E0D3
:101780000E94F1060C9427070895E2ECF1E08081B5
:10179000897F81608083E8EEF1E08FEF828381832F
:1017A00027E043E06FEF0E94630E64EA71E00E945D
:1017B000F1060C942707E2ECF1E08081877F8F7EB1
:1017C00080831092BE011092BF011092C00110924E
:1017D000C1010E94C70F6093E1017093E201809301
:1017E000E3019093E40144E050E060E070E088EEB3
:1017F00091E00C94A91691E59CBD91E09DBD2A98BD
:10180000E3E2F0E03197F1F78EBD00000DB407FE82
:10181000FDCF8EB5FB019FEF4150C8F0222361F050
:101820009EBD00000DB407FEFDCF8EB5611571059C
:1018300099F380833196F0CFDF01119680818EBDC0
:1018400000000DB407FEFDCF8EB5FD01E5CF2A9A4D
:10185000E3E2F0E03197F1F70895CF93DF931F9221
:10186000CDB7DEB7698320E041E0BE016F5F7F4FF7
:101870000E94FB0B0F90DF91CF9108958091C301DF
:10188000982F9077903759F0982F92959F709F5F7F
:1018900097709295907F8F78892B8093C301809168
:1018A000C2018B7F8F7E8093C20129986CE080E219
:1018B0000C942D0C6FE080E20E942D0C60911301BE
:1018C0006F3F19F08AE20E942D0C299A089521E0B9
:1018D00041E060E070E00C94FB0B20E040E060E051
:1018E00070E00C94FB0BCF93DF93219A229A2998F6
:1018F0002A9ACFB7F8948091E501811127C0E1EAD7
:10190000F1E08491E5EBF1E09491E82FF0E0EE0F47
:10191000FF1FED57FE4FA591B491EC91E92321F4FF
:1019200061E08AE00E94DF0E61E08AE00E942C0FF5
:101930008CB580618CBD8CB580648CBD61E08DE020
:101940000E942C0F61E08BE00E942C0F8091E5013A
:101950008F5F8093E501CFBF29986EE080E20E94FF
:101960002D0C8BE496E40197F1F763E083E20E948B
:101970002D0C6FE584E20E942D0C60E685E20E944A
:101980002D0C63E286E20E942D0C64E08DE30E9440
:101990002D0C8DE10E94670C843041F063E780E5F7
:1019A0000E942D0C64E08DE30E942D0C86E00E94C5
:1019B000670C833241F485E00E94670C803619F48D
:1019C00008C0D093E80187E091E0DF91CF910C94BB
:1019D000E20762E082E20E942D0C60E081E20E9458
:1019E0002D0C63E08CE30E942D0CDFEFD0930E01F1
:1019F00020E045E06EE071E08BE20E94FB0B20E00E
:101A000045E06EE071E08AE20E94FB0B20E045E0D9
:101A10006EE071E080E30E94FB0B82EE0E946D0C91
:101A200081EE0E946D0C60E787E20E942D0C809190
:101A3000C20180618093C2018091EB018E7F80930F
:101A4000EB0184E68093E80164E680E090E00E9488
:101A5000D116C091E801CF3FB1F08FEF8C0F8E3FD0
:101A600008F0AFCFC093130163E082E20E942D0C17
:101A700061E081E20E942D0C0E945A0C6C2F80E0E4
:101A800090E00E94D11680E291E09FCF1F920F92CA
:101A90000FB60F9211240F900FBE0F901F90189544
:101AA0000895CF92DF92EF92FF920F931F93CF93FF
:101AB000DF936C017A018B01C0E0D0E0CE15DF0529
:101AC00081F0D8016D918D01D601ED91FC910190CD
:101AD000F081E02DC6010995892B11F02196EECFFA
:101AE0007E01C701DF91CF911F910F91FF90EF9081
:101AF000DF90CF900895089580E090E00895FC0174
:101B0000538D448D252F30E0842F90E0821B930B62
:101B1000541710F0CF96089501970895FC01918D08
:101B2000828D981761F0828DDF01A80FB11D5D963F
:101B30008C91928D9F5F9F73928F90E008958FEFAD
:101B40009FEF0895FC01918D828D981731F0828D61
:101B5000E80FF11D858D90E008958FEF9FEF0895B8
:101B6000FC01918D228D892F90E0805C9F4F821B1C
:101B700091098F73992708958CEE91E00E94B00D22
:101B800021E0892B09F420E0822F0895FC01848D47
:101B9000DF01A80FB11DA35ABF4F2C91848D90E097
:101BA00001968F739927848FA689B7892C93A08972
:101BB000B1898C91837080648C93938D848D9813FC
:101BC00006C00288F389E02D80818F7D808308958F
:101BD000EF92FF920F931F93CF93DF93EC0181E07D
:101BE000888F9B8D8C8D981305C0E889F989808139
:101BF00085FD26C0F62E0B8D10E00F5F1F4F0F7373
:101C00001127E02E8C8DE8120CC00FB607FCFACF1E
:101C1000E889F989808185FFF5CFCE010E94C60D44
:101C2000F1CF8B8DFE01E80FF11DE35AFF4FF082DB
:101C30009FB7F8940B8FEA89FB89808180620AC084
:101C40009FB7F894EE89FF896083E889F9898081DC
:101C50008370806480839FBF81E090E0DF91CF91AB
:101C60001F910F91FF90EF900895CF93DF93EC01B8
:101C7000888D8823C9F0EA89FB89808185FD05C0AC
:101C8000A889B9898C9186FD0FC00FB607FCF5CFE6
:101C9000808185FFF2CFA889B9898C9185FFEDCF2E
:101CA000CE010E94C60DE7CFDF91CF91089580E06D
:101CB00090E0892B29F00E94BC0D81110C9400004A
:101CC00008950E940B18E3EDF3E09091E8019183F1
:101CD00082836683258384814770807E482B44837A
:101CE000CF010895FC018091E80181839481907F68
:101CF000916094838091E70180FF03C0CF010C9431
:101D0000BD0780E00895CF92DF92EF92FF920E948C
:101D1000CF076B017C0126E143E06FEF80E00E947A
:101D2000630EFC0184818F71806A84838381877054
:101D300080628383C782D086E186F286CF01FF90DE
:101D4000EF90DF90CF900C94BD07CF93DF93262FB9
:101D50008F3F11F0EA0102C0C3EDD1E040E0682FEF
:101D600080E00E94630EBE010E943006DF91CF9199
:101D70000C94BD07CF92DF92EF92FF926B017C0132
:101D80008EE991E00E94D11699278F2D7E2D6D2D21
:101D90008FE991E00E94D116B7018827992780EA40
:101DA00091E00E94D1166F2D77278827992781EA25
:101DB00091E0FF90EF90DF90CF900C94D11690E0DF
:101DC000FC01E154FE4F2491FC01E555FE4F349196
:101DD000FC01E956FE4FE491EE2309F43CC02223B6
:101DE00039F1233091F038F42130A9F0223001F597
:101DF00084B58F7D12C0273091F02830A1F02430B7
:101E0000B9F4809180008F7D03C0809180008F772E
:101E1000809380000DC084B58F7784BD09C0809108
:101E2000B0008F7703C08091B0008F7D8093B000A9
:101E3000F0E0EE0FFF1FE357FE4FA591B4919FB75F
:101E4000F894611104C08C913095382302C0EC9154
:101E50003E2B3C939FBF0895CF93DF9390E0FC010E
:101E6000E555FE4F2491FC01E956FE4F84918823ED
:101E700061F190E0880F991FFC01ED57FE4FC5916D
:101E8000D491FC01E357FE4FA591B491611109C0B3
:101E90009FB7F8948881209582238883EC912E2324
:101EA0000BC0623061F49FB7F8948881322F30956F
:101EB00083238883EC912E2B2C939FBF06C08FB772
:101EC000F894E8812E2B28838FBFDF91CF9108955E
:101ED0003FB7F89480911A0490911B04A0911C04C0
:101EE000B0911D0426B5A89B05C02F3F19F001969F
:101EF000A11DB11D3FBFBA2FA92F982F8827820F90
:101F0000911DA11DB11DBC01CD0142E0660F771FDF
:101F1000881F991F4A95D1F708958F929F92AF928B
:101F2000BF92CF92DF92EF92FF926B017C010E94F1
:101F3000680F4B015C01C114D104E104F104F1F01C
:101F40000E94680FDC01CB0188199909AA09BB0915
:101F5000883E9340A105B10570F321E0C21AD10873
:101F6000E108F10888EE880E83E0981EA11CB11CE0
:101F7000C114D104E104F10419F7DDCFFF90EF9013
:101F8000DF90CF90BF90AF909F908F9008952FB724
:101F9000F894609116047091170480911804909140
:101FA00019042FBF0895CF92DF92EF92FF92CF9343
:101FB000DF93D82F0E94C70F6B017C0181E0D11104
:101FC00080E08093F903C0E00E94C70FDC01CB01E1
:101FD0008C199D09AE09BF09803D9740A105B10547
:101FE00090F4C11110C0A8950E94C4070E940E0869
:101FF0008091F8038770833039F7C1E08091F9034D
:102000008D13E1CFE1CF8C2FDF91CF91FF90EF9037
:10201000DF90CF9008951F920F920FB60F92112468
:102020002F933F938F939F93AF93BF938091160409
:1020300090911704A0911804B091190430911504DF
:1020400023E0230F2D3720F40196A11DB11D05C0FB
:1020500026E8230F0296A11DB11D2093150480933D
:10206000160490931704A0931804B0931904809158
:102070001A0490911B04A0911C04B0911D040196B8
:10208000A11DB11D80931A0490931B04A0931C04FE
:10209000B0931D04BF91AF919F918F913F912F916C
:1020A0000F900FBE0F901F9018951F920F920FB6B2
:1020B0000F9211242F933F934F935F936F937F93CE
:1020C0008F939F93AF93BF93EF93FF93E09126017C
:1020D000F09127010995FF91EF91BF91AF919F91E9
:1020E0008F917F916F915F914F913F912F910F90C1
:1020F0000FBE0F901F9018951F920F920FB60F9260
:1021000011242F933F934F935F936F937F938F93FC
:102110009F93AF93BF93EF93FF93E0912401F091CE
:1021200025010995FF91EF91BF91AF919F918F91FB
:102130007F916F915F914F913F912F910F900FBEC3
:102140000F901F9018951F920F920FB60F921124A7
:102150002F933F934F935F936F937F938F939F93AF
:10216000AF93BF93EF93FF938CEE91E00E94C60D67
:10217000FF91EF91BF91AF919F918F917F916F915F
:102180005F914F913F912F910F900FBE0F901F9035
:1021900018951F920F920FB60F9211242F938F93C1
:1021A0009F93EF93FF93E091FC01F091FD018081FB
:1021B000E0910202F091030282FD12C090818091B1
:1021C00005028F5F8F7320910602821751F0E09114
:1021D0000502F0E0E451FE4F958F8093050201C0A7
:1021E0008081FF91EF919F918F912F910F900FBE62
:1021F0000F901F901895789484B5826084BD84B543
:10220000816084BD85B5826085BD85B5816085BDF1
:1022100080916E00816080936E00109281008091A9
:102220008100826080938100809181008160809331
:102230008100809180008160809380008091B10056
:1022400084608093B1008091B00081608093B00081
:1022500080917A00846080937A0080917A00826015
:1022600080937A0080917A00816080937A008091D7
:102270007A00806880937A001092C100A8950E942D
:102280001204E091FC01F091FD0182E08083E09175
:10229000F801F091F9011082E091FA01F091FB014F
:1022A00080E1808310920402E0910002F09101022B
:1022B00086E08083E091FE01F091FF0180818061E2
:1022C0008083E091FE01F091FF018081886080832E
:1022D000E091FE01F091FF01808180688083E091B0
:1022E000FE01F091FF0180818F7D8083C0E1D0E00D
:1022F000F12CFE01F595E795ED51FF4FE491C0FFFC
:10230000E295EF70E83008F05AC0F0E0ED51FF4F71
:10231000F4906F2D8CEE91E00E94E80D2196C23F63
:10232000D10539F7CCEDD0E0FE016491611132C0E6
:1023300042E050E062EA71E08CEE91E00E94510DC3
:102340008091E7018D7F8093E7010E94180441E0AE
:1023500050E063E071E086EE91E00E94A9166FEF15
:1023600081E090E00E94D1168091C3018F78809324
:10237000C3011092B9011092B80181E091E00E946E
:10238000E2078DEE95E09093C8018093C7010E940B
:10239000C70F09C08CEE91E00E94E80D2196892BB1
:1023A00009F0C2CFC5CF0E94C70F0E94C4070E9488
:1023B0000E08A8958091C20182FFF5CF0CC01BEFDB
:1023C0001E0F00E06F2D8CEE91E00E94E80D0F5F74
:1023D0000117C0F3A3CF0E948604A895A8950E9478
:1023E000C4070E940E080E9467020E94570EF6CF93
:1023F000CF93DF93FC011082118212821482158226
:102400001682DC0117968AE1ED0119928A95E9F7A7
:1024100082E08383DF91CF910895CF93ECEEF1E0DA
:102420001382128288EE93E0A0E0B0E0848395836B
:10243000A683B78381E591E09183808385EC90E06A
:102440009587848784EC90E09787868780EC90E07E
:10245000918B808B81EC90E0938B828B82EC90E06F
:10246000958B848B86EC90E0978B868B118E128EE9
:10247000138E148E84EF93E00E94F81183ED93E0A5
:102480000E94F81188E695E00E94F811E8E6F5E070
:102490008AE08683158287E495E00E94F811E7E4DC
:1024A000F5E082E18683CFE2C58386E295E00E9473
:1024B000F811E6E2F5E083E18683C58385E095E0E7
:1024C0000E94F811E5E0F5E084E18683C58384EE9F
:1024D00094E00E94F811E4EEF4E08CE18683C58379
:1024E00083EC94E00E94F811E3ECF4E08EE1868343
:1024F000C58382EB93E00E94F811E2EBF3E083E204
:10250000868381E1858382EA94E00E94F811E2EA01
:10251000F4E088E28683C58381E993E00E94F811A4
:10252000E1E9F3E086E48683C58380E793E00E94D7
:10253000F811E0E7F3E087E48683C5838FE493E056
:102540000E94F811EFE4F3E080E58683C5838EE214
:1025500093E00E94F811EEE2F3E081E58683C58303
:102560008DE093E00E94F811EDE0F3E08AE58683C8
:10257000C5838CEE92E00E94F811ECEEF2E08BE560
:102580008683C5838BEC92E00E94F811EBECF2E0BD
:102590008CE58683C5838AEA92E00E94F811EAEA14
:1025A000F2E08DE58683C58381E894E00E94F8110E
:1025B000E1E8F4E08EE58683C58380E694E00E943E
:1025C000F811E0E6F4E08FE58683C58389E892E0C0
:1025D0000E94F811E9E8F2E080E68683C5838FE384
:1025E00094E00E94F811EFE3F4E081E68683C5836E
:1025F0008EE194E00E94F811EEE1F4E083E6868338
:1026000086E28583CF910895FC0188279927E89475
:1026100021912032E9F3293010F02E30C8F32B320B
:1026200041F02D3239F4689404C00E947613820F71
:10263000911D219120532A30C0F31EF4909581956D
:102640009F4F08951F93FC0199278827BC01E894A8
:1026500011911032E9F3193010F01E30C8F31B321B
:1026600051F01D3249F4689406C00E946113610F55
:10267000711D811D911D119110531A30B0F33EF45C
:1026800090958095709561957F4F8F4F9F4F1F91CB
:102690000895FC0105900020E9F7809590958E0F34
:1026A0009F1F0895FB01DC014150504048F0059008
:1026B0000D920020C9F701C01D9241505040E0F733
:1026C0000895592F482F372F262F660F771F881F01
:1026D000991F660F771F881F991F620F731F841F32
:1026E000951F660F771F881F991F08957AE0979F9F
:1026F000902D879F802D910D11240895ABE0B0E0BF
:10270000E4E8F3E10C94E3166C017B018A01FC011F
:1027100017821682838181FFCCC1CE0101963C01D4
:10272000F6019381F70193FD859193FF81917F01DC
:10273000882309F4BAC1853239F493FD859193FF5A
:1027400081917F01853229F4B60190E00E947E15C7
:10275000E7CF912C212C312CFFE1F315D8F08B32EF
:1027600079F038F4803279F08332A1F4232D20619E
:102770001DC08D3261F0803369F4232D216016C0B5
:10278000832D8260382EE32DE4603E2E2AC0F32D87
:10279000F8601DC037FC2DC020ED280F2A3040F016
:1027A0008E32B9F436FC81C1232D2064322E19C03B
:1027B00036FE06C08AE0989E200D1124922E11C08C
:1027C000EAE02E9E200D1124222EF32DF0623F2EE2
:1027D00008C08C3621F4832D8068382E02C08836DC
:1027E00041F4F70193FD859193FF81917F01811160
:1027F000B3CF982F9F7D9554933028F40C5F1F4FD3
:102800009FE399830DC0833631F0833771F08335B0
:1028100009F059C021C0F801808189830E5F1F4FE4
:1028200088248394912C530113C02801F2E04F0EA9
:10283000511CF801A080B18036FE03C0692D70E004
:1028400002C06FEF7FEFC5010E9473154C0182013A
:10285000F32DFF773F2E16C0280122E0420E511CB7
:10286000F801A080B18036FE03C0692D70E002C07F
:102870006FEF7FEFC5010E9468154C01F32DF068E2
:102880003F2E820133FC1BC0822D90E088169906F2
:10289000B0F4B60180E290E00E947E152A94F4CF55
:1028A000F50137FC859137FE81915F01B60190E01B
:1028B0000E947E1521102A9421E0821A9108811429
:1028C000910471F7E8C0843611F0893641F5F801BA
:1028D00037FE07C060817181828193810C5F1F4F39
:1028E00008C060817181072E000C880B990B0E5F68
:1028F0001F4FF32DFF763F2E97FF09C090958095CF
:10290000709561957F4F8F4F9F4FF0683F2E2AE063
:1029100030E0A3010E94BA15882E861845C085377D
:1029200031F4232D2F7EB22E2AE030E025C0932DE6
:10293000997FB92E8F36C1F018F4883579F0B5C07B
:10294000803719F0883721F0B0C0E92FE061BE2E42
:10295000B4FE0DC0FB2DF460BF2E09C034FE0AC0CA
:10296000292F2660B22E06C028E030E005C020E105
:1029700030E002C020E132E0F801B7FE07C060811C
:102980007181828193810C5F1F4F06C060817181CC
:1029900080E090E00E5F1F4FA3010E94BA15882EC1
:1029A0008618FB2DFF773F2E36FE0DC0232D2E7F80
:1029B000A22E891458F434FE0BC032FC09C0832DBA
:1029C0008E7EA82E05C0B82CA32C03C0B82C01C045
:1029D000B92CA4FE0FC0FE01E80DF11D80818033EB
:1029E00021F49A2D997EA92E09C0A2FE06C0B394A7
:1029F000B39404C08A2D867809F0B394A3FC11C067
:102A0000A0FE06C0B21488F4280C922C9B180EC0AD
:102A1000B21460F4B60180E290E00E947E15B39497
:102A2000F7CFB21418F42B1802C0982C212CA4FE56
:102A300010C0B60180E390E00E947E15A2FE17C090
:102A4000A1FC03C088E790E002C088E590E0B601F1
:102A50000CC08A2D867859F0A1FE02C08BE201C01D
:102A600080E2A7FC8DE2B60190E00E947E158914F9
:102A700038F4B60180E390E00E947E159A94F7CF77
:102A80008A94F301E80DF11D8081B60190E00E9467
:102A90007E158110F5CF222009F442CEB60180E2E6
:102AA00090E00E947E152A94F6CFF60186819781E8
:102AB00002C08FEF9FEF2B96E2E10C94FF1691116D
:102AC0000C945516803219F089508550C8F7089536
:102AD000FC010590615070400110D8F780959095E9
:102AE0008E0F9F1F0895FC016150704001900110EE
:102AF000D8F7809590958E0F9F1F08950F931F9381
:102B0000CF93DF93FB01238121FD03C08FEF9FEF64
:102B10002CC022FF16C0468157812481358142177F
:102B2000530744F4A081B1819D012F5F3F4F318352
:102B300020838C93268137812F5F3F4F37832683F5
:102B400014C08B01EC01FB010084F185E02D099597
:102B5000892BE1F6D80116968D919C9117970196D5
:102B600017969C938E931697CE01DF91CF911F916C
:102B70000F910895FA01AA27283051F1203181F1EF
:102B8000E8946F936E7F6E5F7F4F8F4F9F4FAF4F75
:102B9000B1E03ED0B4E03CD0670F781F891F9A1F88
:102BA000A11D680F791F8A1F911DA11D6A0F711D3C
:102BB000811D911DA11D20D009F468943F912AE048
:102BC000269F11243019305D3193DEF6CF01089530
:102BD000462F4770405D4193B3E00FD0C9F7F6CF61
:102BE000462F4F70405D4A3318F0495D31FD405229
:102BF000419302D0A9F7EACFB4E0A69597958795BF
:102C000077956795BA95C9F700976105710508959D
:102C10009B01AC010A2E0694579547953795279549
:102C2000BA95C9F7620F731F841F951FA01D0895E1
:102C3000E89409C097FB3EF4909580957095619556
:102C40007F4F8F4F9F4F9923A9F0F92F96E9BB270C
:102C50009395F695879577956795B795F111F8CF88
:102C6000FAF4BB0F11F460FF1BC06F5F7F4F8F4FF3
:102C70009F4F16C0882311F096E911C0772321F0E9
:102C80009EE8872F762F05C0662371F096E8862F81
:102C900070E060E02AF09A95660F771F881FDAF7D8
:102CA000880F9695879597F908959927882708950D
:102CB00097F99F6780E870E060E008959FEF80ECEF
:102CC000089500240A941616170618060906089592
:102CD00000240A9412161306140605060895092EF8
:102CE0000394000C11F4882352F0BB0F40F4BF2B67
:102CF00011F460FF04C06F5F7F4F8F4F9F4F0895A7
:102D000057FD9058440F551F59F05F3F71F047959C
:102D1000880F97FB991F61F09F3F79F08795089581
:102D2000121613061406551FF2CF4695F1DF08C0A0
:102D3000161617061806991FF1CF869571056105BD
:102D400008940895E894BB2766277727CB0197F965
:102D50000895DC01CB01FC01F999FECF06C0F2BD5C
:102D6000E1BDF89A319600B40D9241505040B8F749
:102D70000895F999FECF92BD81BDF89A992780B543
:102D80000895DC01A40FB51F4150504048F0CB011D
:102D9000840F951F2E910E94D21641505040D0F7BB
:102DA0000895262FF999FECF92BD81BDF89A01971B
:102DB00000B4021639F01FBA20BD0FB6F894FA9A83
:102DC000F99A0FBE08952F923F924F925F926F92A1
:102DD0007F928F929F92AF92BF92CF92DF92EF92AB
:102DE000FF920F931F93CF93DF93CDB7DEB7CA1B2C
:102DF000DB0B0FB6F894DEBF0FBECDBF09942A8857
:102E0000398848885F846E847D848C849B84AA84FE
:102E1000B984C884DF80EE80FD800C811B81AA818B
:102E2000B981CE0FD11D0FB6F894DEBF0FBECDBF56
:102E3000ED010895A1E21A2EAA1BBB1BFD010DC0D6
:102E4000AA1FBB1FEE1FFF1FA217B307E407F5075A
:102E500020F0A21BB30BE40BF50B661F771F881F36
:102E6000991F1A9469F760957095809590959B01CC
:102E7000AC01BD01CF0108950E9450170C946F164C
:102E80000E94681658F00E94611640F029F45F3FD6
:102E900029F00C94581651110C94A3160C945E163C
:102EA0000E94801668F39923B1F3552391F3951B83
:102EB000550BBB27AA2762177307840738F09F5F5B
:102EC0005F4F220F331F441FAA1FA9F335D00E2EC8
:102ED0003AF0E0E832D091505040E695001CCAF735
:102EE0002BD0FE2F29D0660F771F881FBB1F2617F8
:102EF00037074807AB07B0E809F0BB0B802DBF01CF
:102F0000FF2793585F4F3AF09E3F510578F00C949D
:102F100058160C94A3165F3FE4F3983ED4F38695BD
:102F200077956795B795F7959F5FC9F7880F911DBE
:102F30009695879597F90895E1E0660F771F881FAA
:102F4000BB1F621773078407BA0720F0621B730B5D
:102F5000840BBA0BEE1F88F7E09508950E9488163F
:102F600088F09F5798F0B92F9927B751B0F0E1F04A
:102F7000660F771F881F991F1AF0BA95C9F714C0FA
:102F8000B13091F00E94A216B1E008950C94A216FF
:102F9000672F782F8827B85F39F0B93FCCF3869533
:102FA00077956795B395D9F73EF490958095709590
:102FB00061957F4F8F4F9F4F089597FB072E16F413
:102FC000009407D077FD09D00E94F11707FC05D0C7
:102FD0003EF4909581959F4F0895709561957F4F30
:102FE0000895AA1BBB1B51E107C0AA1FBB1FA61750
:102FF000B70710F0A61BB70B881F991F5A95A9F7A2
:1030000080959095BC01CD010895EE0FFF1F0590AE
:10301000F491E02D099481E090E0F8940C94831BE6
:10302000FB01DC014150504048F001900D9200201E
:10303000C9F701C01D9241505040E0F70895FB01CF
:1030400051915523A9F0BF01DC014D914517411164
:10305000E1F759F4CD010190002049F04D91401560
:103060004111C9F3FB014111EFCF81E090E00197DD
:103070000895AEE0B0E0EFE3F8E10C94F1160D89AD
:103080001E8986E08C831A8309838FEF9FE79E83D6
:103090008D83AE01475E5F4F6F89788DCE010196BB
:1030A0000E947E13EF81F885E00FF11F10822E96AB
:1030B000E4E00C940D17AEE0B0E0E1E6F8E10C942A
:1030C000F31685E08C838B899C899A838983AE0172
:1030D000495E5F4F6D897E89CE0101960E94101A6C
:1030E0002E96E2E00C940F1720FD09C0FC0123FD91
:1030F00005C022FF02C07383628351834083089519
:1031000044FD17C046FD17C0AB01BC01DA01FB014D
:10311000AA0FBB1FEE1FFF1F1094D1F74A0F5B1FB2
:103120006E1F7F1FCB01BA01660F771F881F991F83
:1031300009C033E001C034E0660F771F881F991F74
:103140003150D1F7620F711D811D911D08950F93AC
:103150001F93CF93DF938C01C8010E942C1BEC01BD
:1031600097FD08C00E945F15892BB1F7B801CE0109
:103170000E946A1BCE01DF91CF911F910F9108959C
:103180008F929F92AF92BF92EF92FF920F931F93F5
:10319000CF93DF938C01D62F7A01B22E0E942C1B85
:1031A0009C0133272B32310531F02D32310561F48A
:1031B0008B2D8068B82ED15011F480E068C0C80112
:1031C0000E942C1B97FDF9CFCB2DCD7F2B2D20738B
:1031D00009F58033F9F4AA24AA94AD0E09F443C08A
:1031E000C8010E942C1B97FD3EC09C012F7D3327F8
:1031F0002835310549F4C264D250A9F1C8010E94B2
:103200002C1B97FF07C02FC0B6FE02C0C26001C0D2
:10321000C261DA2D812C912C540120ED280F283029
:1032200080F0C4FF04C0B8010E946A1B19C02A3094
:1032300040F0C6FFF8CF2F7D3FEE320F363098F7C3
:1032400027504C2FC501B4010E9480184B015C012E
:10325000C260D15059F0C8010E942C1B97FFDDCFEE
:10326000C1FD04C0AACF812C912C5401C7FF08C016
:10327000B094A09490948094811C911CA11CB11CCA
:103280002C2FB501A401C7010E94741881E0DF91C1
:10329000CF911F910F91FF90EF90BF90AF909F90B3
:1032A0008F900895A0E2B0E0E8E5F9E10C94E6160D
:1032B0005C01962E7A01F9018E010F5F1F4F6801A4
:1032C00080E2D8011D928A95E9F7D50113968C907A
:1032D00080E090E0612C712C30E061E070E083FCD4
:1032E000259183FE21918F01522E211103C080E090
:1032F00090E092C02E3511F4009751F1432F50E029
:10330000481759073CF42D3559F12D3219F477201F
:1033100009F103C0772009F46AC0452D469546950A
:103320004695D601A40FB11D452D47708B0102C0F3
:10333000000F111F4A95E2F7A8015C91452B4C93B1
:10334000651459F0561410F45394E7CF5A94E5CF0E
:1033500031E004C07724739401C0712C0196BFCF73
:10336000772019F08E8180628E83311103C088240A
:10337000839417C0F6019E012F5D3F4F8081809599
:1033800081932E173F07D1F7F2CFE114F10429F012
:10339000D7018C93F70131967F019A94812C992063
:1033A000F9F0C5010E942C1B97FD18C0FC01FF27F6
:1033B00023E0F595E7952A95E1F7EC0DFD1D2081B9
:1033C00030E0AC014770552702C0359527954A95E6
:1033D000E2F720FDDACFB5010E946A1B811087CF8A
:1033E000E114F10411F0D7011C92C80115C0422F5D
:1033F000469546954695D601A40FB11D422F4770BC
:103400008B0102C0000F111F4A95E2F7A8015C91E1
:10341000452B4C93622EA2CFA096EFE00C9402179E
:10342000A0E0B0E0E6E1FAE10C94E6166C01EB01F5
:103430005A01FC0117821682512CF601E380FE012D
:10344000E3FC8591E3FE8191182FEF01882309F4B5
:10345000EEC090E00E945F15892B21F0C6010E940A
:10346000A718EBCF153241F4FE01E3FC1591E3FE02
:103470001191EF01153281F4C6010E942C1B97FDBA
:10348000D4C0412F50E09C01332724173507A9F2FF
:10349000B6010E946A1BCBC01A3239F4E3FC1591C5
:1034A000E3FE1191EF0101E001C000E0F12C20EDFD
:1034B000210F2A3080F402606F2D70E080E090E0F0
:1034C00040E20E948018F62EFE01E3FC1591E3FE17
:1034D0001191EF01ECCF01FF03C0F11003C0A7C0B1
:1034E000FF24FA94183619F01C3651F010C0FE0172
:1034F000E3FC1591E3FE1191EF01183641F40860E9
:103500000460FE01E3FC1591E3FE1191EF0111232C
:1035100009F48DC0612F70E088E690E00E94211BC5
:10352000892B09F484C000FD07C0F50180809180DB
:10353000C50102965C0102C0812C912C1E3651F40B
:10354000F6014681578160E070E0202FC4010E949F
:10355000741873CF1336A9F401FD02C0FF24F3944D
:10356000C6010E942C1B97FD60C08114910429F0B4
:10357000F4018083C40101964C01FA94F110F0CF5C
:1035800050C01B3559F49E01A4016F2DC6010E9445
:103590005219EC01892B09F044C03EC0C6010E94BB
:1035A000A71897FD42C01F3661F128F4143639F18F
:1035B000193651F128C0133771F0153701F123C0C6
:1035C0008114910429F0F4016082C40101964C0138
:1035D000FA94FF2071F0C6010E942C1B3C0197FD5C
:1035E00008C00E945F15892B59F3B601C3010E94E0
:1035F0006A1B81149104A9F0F401108212C00062C8
:1036000003C0006101C00064202FA4016F2DC6011A
:103610000E94C018811105C0F6018381807329F4CE
:1036200006C000FD0ACF539408CF552019F0852D10
:1036300090E002C08FEF9FEFCDB7DEB7EFE00C94C4
:103640000217FC010590061621F00020D9F7C001F1
:1036500008953197CF010895CF93DF93EC012B812B
:1036600020FF33C026FF0AC02F7B2B838E819F81D2
:1036700001969F838E838A8190E029C022FF0FC02C
:10368000E881F9818081082E000C990B009719F4CC
:1036900020622B831AC03196F983E8830EC0EA8535
:1036A000FB85099597FF09C02B81019611F080E2F7
:1036B00001C080E1822B8B8308C02E813F812F5F68
:1036C0003F4F3F832E83992702C08FEF9FEFDF91FB
:1036D000CF910895FB01238120FF12C026FD10C069
:1036E0008F3F3FEF930761F082832F7D2064238318
:1036F0002681378121503109378326839927089500
:0A3700008FEF9FEF0895F894FFCFBC
:10370A0001DB0B730CE3FF3E0C170BFFFFFF00FC02
:10371A00E1A8A8FFB40B370BA10B730BFB0A0D0B27
:10372A00C50B510B500D500D4A616E4665624D61D5
:10373A00724170724D61794A756E4A756C4175674E
:10374A005365704F63744E6F7644656300000000E2
:10375A0000E80D510D7F0D350EB00D8E0DA20D2511
:10376A006420253032643A253032643A2530326496
:10377A00004155544F0025732025642025640046D6
:10378A0065622032322032303139002564253032E8
:10379A00642530326400456E657267794D657465DB
:0E37AA0072000D0A00322E332E31004F4B00FC
:00000001FF
