:100000000C94EC010C94F5150C94CE150C94140280
:100010000C9414020C9414020C941C160C941402EC
:100020000C9414020C9414020C9414020C941402F8
:100030000C9414020C9414020C9414020C941402E8
:100040000C9484150C9414020C9452150C942C15D9
:100050000C9414020C9414020C9414020C941402C8
:100060000C9414020C941402000000080002010019
:1000700000030407000000000000000068775265DC
:10008000626F6F740064626733206E6F7420706FEC
:10009000737369626C650064626731006462673023
:1000A000007374617274696E672073657269616C44
:1000B00020696E7465726661636520776974686F24
:1000C000757420646562756767696E67005478208F
:1000D000455252005478204F4B0053657447657465
:1000E0004D6574657256616C756500487754696D2D
:1000F00065004462675F52657475726E00446267A2
:100100005F4C6576656C0052465F4368616E6E6554
:100110006C0050415F4C6576656C0054585F5253DB
:10012000534900506172656E744E6F646500506192
:1001300073736976654E6F646500436F6D70696CAB
:10014000654461746500506F7765725068617365CE
:1001500000506F7765724D657465720053656E73FC
:100160006F72204F66666C696E65002D2D2D0053F1
:100170004D4C5F46494E414C004A616E202035206F
:10018000323032332031313A30303A353300524652
:1001900032345F50415F4C4F5700000089111223E9
:1001A0009B322446AD573665BF74488CC19D5AAF0B
:1001B000D3BE6CCAE5DB7EE9F7F881100801933302
:1001C0001A22A5562C47B7753E64C99C408DDBBFEB
:1001D00052AEEDDA64CBFFF976E802218B301002E3
:1001E00099132667AF763444BD554AADC3BC588ECB
:1001F000D19F6EEBE7FA7CC8F5D983310A209112C2
:100200001803A7772E66B5543C45CBBD42ACD99EAA
:10021000508FEFFB66EAFDD874C904428D53166116
:100220009F702004A9153227BB364CCEC5DF5EED8A
:10023000D7FC6888E1997AABF3BA85520C43977181
:100240001E60A1142805B3373A26CDDE44CFDFFD6A
:1002500056ECE9986089FBBB72AA06638F72144062
:100260009D512225AB343006B9174EEFC7FE5CCC4A
:10027000D5DD6AA9E3B8788AF19B87730E62955041
:100280001C41A3352A24B1163807CFFF46EEDDDC2A
:1002900054CDEBB962A8F99A708B088481951AA79E
:1002A00093B62CC2A5D33EE1B7F04008C919522B32
:1002B000DB3A644EED5F766DFF7C899400859BB7D9
:1002C00012A6ADD224C3BFF136E0C1184809D33B12
:1002D0005A2AE55E6C4FF77D7E6C0AA583B41886BA
:1002E00091972EE3A7F23CC0B5D14229CB38500AF2
:1002F000D91B666FEF7E744CFD5D8BB502A4999699
:100300001087AFF326E2BDD034C1C3394A28D11AD1
:10031000580BE77F6E6EF55C7C4D0CC685D71EE5ED
:1003200097F42880A1913AA3B3B2444ACD5B5669B1
:10033000DF78600CE91D722FFB3E8DD604C79FF558
:1003400016E4A9902081BBB332A2C55A4C4BD77991
:100350005E68E11C680DF33F7A2E0EE787F61CC439
:1003600095D52AA1A3B03882B193466BCF7A544871
:10037000DD59622DEB3C700EF91F8FF706E69DD418
:1003800014C5ABB122A0B9923083C77B4E6AD55851
:100390005C49E33D6A2CF11E780F00000000250047
:1003A00028002B0000000000240027002A0004047D
:1003B000040404040404020202020202030303030D
:1003C00003030102040810204080010204081020E9
:1003D0000102040810203B1611241FBECFEFD8E005
:1003E000DEBFCDBF11E0A0E0B1E0E6EDF9E302C071
:1003F00005900D92A63BB107D9F725E0A6EBB1E039
:1004000001C01D92AC30B207E1F711E0CCEED1E0B3
:1004100004C02197FE010E94551CCB3ED107C9F7AD
:100420000E94F3160C94E91C0C940000CF92DF920A
:10043000EF92FF920F931F93CF938C01C0915A02BA
:10044000C7FF24C08AE0C82ED12CE12CF12CCF5F4D
:10045000C130F1F0F8016081718182819381A7013F
:1004600096010E94361CF801208331834283538316
:10047000EECFF8012081318142815381AAE0B0E0C2
:100480000E94511B6083718382839383C15088F7DC
:10049000C0935A02CF911F910F91FF90EF90DF9080
:1004A000CF9008958F929F92AF92BF92CF92DF929A
:1004B000EF92FF920F931F93CF93DF93FC017B0189
:1004C0008FEF808381838283838384838583868384
:1004D0008783C0905902D0905A0210E0A0E0AC157A
:1004E00068F51F5FCA2FD0E0C75FDD4FD881C2E03B
:1004F000CA0FAF5FB0E0A75FBD4F8C9190E0843032
:10050000910591F4DD2381F0AC2FB0E0A75FBD4FE2
:100510009C919E5FA1E0AC0FB0E0A75FBD4F8C91B6
:10052000C90FD15089F790E01430B9F4AC2FB0E086
:10053000A75FBD4F8C918E151F04B1F0D0925A0267
:10054000DF91CF911F910F91FF90EF90DF90CF90AF
:10055000BF90AF909F908F900895153041F4AC2FCD
:10056000B0E0A75FBD4FDC90AC2FAD0FB8CF163019
:10057000D9F7AC2EB12C4097D9F5C501875F9D4FB7
:10058000DC012C91922F990F990B392F492F592F5C
:10059000692F792F892F0FE30E94861C0E945B1C14
:1005A0002083318342835383648375838683978357
:1005B000C501875F9D4F5C01912CD915A9F2D5012A
:1005C0008D905D01208131814281538164817581EB
:1005D0008681978108E00E946B1C28292083318343
:1005E0004283538364837583868397839394E5CF93
:1005F00020E030E040E050E060E070E080E090E03B
:10060000CFCFEBE5F2E0A089B18982E08C93A4859D
:10061000B5851C92A685B7858FEC8C93108EA48926
:10062000B58986E08C93A289B3898C9180618C9383
:10063000A289B3898C9188608C93A289B3898C91AB
:1006400080688C930288F389E02D80818F7D808380
:10065000089590E0FC01EE53FC4F249182559C4F8D
:10066000FC018491882399F090E0880F991FFC0188
:10067000EC55FC4FA591B491FC01E656FC4F8591D9
:1006800094918FB7F894EC91E22BEC938FBF08957F
:10069000942FE6ECF4E03091050231838283668387
:1006A00025834481487F492B477E4483CF010895A9
:1006B000AF92BF92CF92DF92EF92FF920F931F9370
:1006C000CF93DF936C017B018B01040F151FEB01AE
:1006D0005E01AE18BF08C017D10759F06991D60165
:1006E000ED91FC910190F081E02DC6010995892BD7
:1006F00079F7C501DF91CF911F910F91FF90EF9096
:10070000DF90CF90BF90AF900895FC01538D448D42
:10071000252F30E0842F90E0821B930B541710F0AC
:10072000CF96089501970895FC01918D828D9817B9
:1007300061F0A28DAE0FBF2FB11D5D968C91928D91
:100740009F5F9F73928F90E008958FEF9FEF0895C2
:10075000FC01918D828D981731F0828DE80FF11D8B
:10076000858D90E008958FEF9FEF0895FC01918DA6
:10077000228D892F90E0805C9F4F821B91098F739F
:10078000992708958BE592E00E94B60321E0892B1A
:1007900009F420E0822F0895FC01A48DA80FB92F41
:1007A000B11DA35ABF4F2C91848D90E001968F7399
:1007B0009927848FA689B7892C93A089B1898C91B8
:1007C000837080648C93938D848D981306C0028807
:1007D000F389E02D80818F7D80830895EF92FF92D1
:1007E0000F931F93CF93DF93EC0181E0888F9B8D54
:1007F0008C8D98131AC0E889F989808185FF15C00E
:100800009FB7F894EE89FF896083E889F989808130
:100810008370806480839FBF81E090E0DF91CF91FF
:100820001F910F91FF90EF900895F62E0B8D10E021
:100830000F5F1F4F0F731127E02E8C8D8E110CC090
:100840000FB607FCFACFE889F989808185FFF5CFDB
:10085000CE010E94CC03F1CFEB8DEC0FFD2FF11DEB
:10086000E35AFF4FF0829FB7F8940B8FEA89FB8918
:1008700080818062CFCF0F931F93CF93DF938C0142
:10088000D0E0C0E0F801EC0FFD1F6491662341F059
:100890008BE592E00E94EE03892B11F02196F2CFB6
:1008A00042E050E06FE771E08BE592E00E94580370
:1008B0008C0F9D1FDF91CF911F910F910895CF93C2
:1008C000DF93EC01888D8823B9F0AA89BB89E88978
:1008D000F9898C9185FD03C0808186FD0DC00FB61E
:1008E00007FCF7CF8C9185FFF2CF808185FFEDCF9C
:1008F000CE010E94CC03E9CFDF91CF91089580E033
:1009000090E0892B29F00E94C20381110C94000011
:1009100008953FB7F8948091FF0190910002A09153
:100920000102B091020226B5A89B05C02F3F19F025
:100930000196A11DB11D3FBFBA2FA92F982F88275F
:10094000BC01CD01620F711D811D911D42E0660F3A
:10095000771F881F991F4A95D1F708958F929F920C
:10096000AF92BF92CF92DF92EF92FF926B017C0128
:100970000E9489044B015C01C114D104E104F1041B
:10098000B9F00E948904681979098A099B09683EAF
:1009900073408105910580F321E0C21AD108E10876
:1009A000F10888EE880E83E0981EA11CB11CE4CFEC
:1009B000FF90EF90DF90CF90BF90AF909F908F907F
:1009C00008952FB7F8946091FB017091FC0180911C
:1009D000FD019091FE012FBF089508950F931F937D
:1009E000CF93DF93CDB7DEB728970FB6F894DEBF6D
:1009F0000FBECDBF8C016BE170E0CE0101960E946D
:100A0000520289819A81AB81BC81F80180839183F4
:100A1000A283B383C8010E94160228960FB6F894E9
:100A2000DEBF0FBECDBFDF91CF911F910F91089513
:100A30000F931F93CF93DF93CDB7DEB728970FB6F1
:100A4000F894DEBF0FBECDBF8C016EE170E0CE0129
:100A500001960E94520289819A81AB81BC81F80182
:100A600080839183A283B383C8010E9416022896D3
:100A70000FB6F894DEBF0FBECDBFDF91CF911F91AF
:100A80000F910895E091F901F0E0E151FE4F80816E
:100A9000181614F4815080830895E0915902E035CE
:100AA00040F491E09E0F90935902F0E0E75FFD4F14
:100AB000808308952091660130916701FC01808157
:100AC000F901E827FF27EE0FFF1FE656FE4F85913D
:100AD0009491232F332728273927309367012093B8
:100AE0006601089582E691E00C9418058EE591E088
:100AF0000C94180589EE91E00C94EE0485EE91E0DB
:100B00000C94EE0481EE91E00C94EE048DED91E0F6
:100B10000C94EE0408950F931F930E94E1046093D8
:100B2000C2017093C3018093C4019093C5018B01EE
:100B30009C0100531547210931090093C801109306
:100B4000C9012093CA013093CB016093BE01709319
:100B5000BF018093C0019093C1011F910F9108952F
:100B6000FC01938197706A3108F069E188E0689F21
:100B7000B0011124692B6383CF0108950F931F9354
:100B8000CF93DF93EC018B0162E00E94B0058C8172
:100B90008F7180648C8318870F83CE01DF91CF9192
:100BA0001F910F9108951F93CF93DF93EC01162FA0
:100BB00061E00E94B0058C818F7180628C831F83FD
:100BC000CE01DF91CF911F910895FC01838186951D
:100BD000869586958A3108F089E10895E091CC01E7
:100BE000F091CD01309721F00280F381E02D09943E
:100BF00008950F931F930E94E1040091CE0110917C
:100C0000CF012091D0013091D101601B710B820B7B
:100C1000930B1F910F9108959C018091CC019091AD
:100C2000CD0182179307F1F09091D6019F719093B7
:100C3000D6013093CD012093CC01E091CC01F0910D
:100C4000CD01309721F00190F081E02D09950E94AF
:100C5000E1046093CE017093CF018093D001909313
:100C6000D10108958091D601805E8093D601E5CFB1
:100C70000F931F930E94F9052091D7012077203709
:100C800079F000E117E220E030E0061717072807A7
:100C9000390758F488E591E01F910F910C940C06E8
:100CA00000E61AEE20E030E0F0CF1F910F9108959A
:100CB0008091D7018F708B3020F085E191E00C940A
:100CC0000C0608958091D60184608093D6018091AE
:100CD000D70180788093D701E091D901F091DA01B2
:100CE000309709F0099408958EBD00000DB407FEF9
:100CF000FDCF8EB50895CF93C82F0E9442058091F5
:100D0000F9018A3018F48F5F8093F901E091F901BD
:100D1000F0E0E151FE4FC08384E090E09093EE015B
:100D20008093ED01C0936801C63058F010925902CB
:100D3000E9E0F2E080E5DF011D928A95E9F7CF91C5
:100D400008958C2F0E944D0584E0CF910C944D05A1
:100D5000E6EDF1E08081877F8F7E80831092D20163
:100D60001092D3011092D4011092D5010E94E10497
:100D70006093B7017093B8018093B9019093BA0161
:100D800044E050E070E060E085E092E00C94171BD6
:100D90000E94010381EA90E00E943B048DE991E00A
:100DA0000E94271B8A3018F48093BD010895109289
:100DB000BD0160E08DE991E00C943F1BCF93C091A1
:100DC000D801CF3FA1F00E94E1046093D20170935B
:100DD000D3018093D4019093D50180910702C81369
:100DE000C093070281E191E0CF910C940C060E9420
:100DF000F905613D77408105910568F08091D60144
:100E0000803618F48DE091E0EFCF877F8093D60194
:100E100085E191E0E9CFCF910895809105028F3F60
:100E200021F08DE091E00C940C060E94F905613DE3
:100E300077408105910550F08091D601803618F4F5
:100E400089E091E0F0CF89E191E0EDCF08950E9433
:100E5000F905613D77408105910520F48091D60127
:100E600081FF17C0809106028F3F49F08091D60123
:100E70008E7F8093D60189E091E00C940C068091DE
:100E8000D601803618F485E191E0F7CF89E191E051
:100E9000F4CF08950F931F93CF93DF93EC018B0151
:100EA00080E06115710519F0CB010E94D617682FFB
:100EB000CE010E94B0058C818F718C83CE010E947F
:100EC000E505482F50E0B801CE0107960E94DF17D4
:100ED000CE010E94E5058C0F9D2F911DFC0117820C
:100EE000CE01DF91CF911F910F910895BF92CF92C4
:100EF000DF92EF92FF920F931F93CF93DF937B01CB
:100F0000042FB22E91E59CBD91E09DBD2A98E3E2AD
:100F1000F0E03197F1F70E947406182FE7010150B5
:100F2000A8F0BB2051F08FEF0E947406182FE11437
:100F3000F104A9F388832196F2CF6E018FEFC81ACE
:100F4000D80A88810E947406E601E9CF2A9A83E2D2
:100F500090E00197F1F7812FDF91CF911F910F91D1
:100F6000FF90EF90DF90CF90BF900895CF93DF93E5
:100F70001F92CDB7DEB7698320E041E0BE016F5F0D
:100F80007F4F0E9476070F90DF91CF910895809157
:100F9000D701982F9077903759F0982F92959F709E
:100FA0009F5F97709295907F8F78892B8093D70160
:100FB0008091D6018B7F8F7E8093D60129986CE03B
:100FC00080E20C94B6076FE080E20E94B607609161
:100FD00008016F3F19F08AE20E94B607299A089526
:100FE00021E041E070E060E00C94760720E040E012
:100FF00070E060E00C947607FF920F931F93CF93FD
:10100000DF938C01FC01D2818091D60180FF55C015
:10101000DF3F09F0A3C0CFEF80910502F801808384
:10102000838182FD63C0C8010E94E50597E0F92E27
:10103000F80E80910802D1E080FD03C0CF3F09F097
:10104000D0E08091DC018F5F8093DC0101151105F8
:1010500009F466C0299883E092E00197F1F76EE009
:1010600080E20E94B6078BE891E00197F1F76C2FC0
:101070008AE20E94B6076C2F80E30E94B60781EED9
:101080000E94F607DD2321F060E584E20E94B607A6
:1010900020E04F2DB80180EA0E947607299A10E0DF
:1010A00000E08FEF0E94F607807319F50F3F1007DD
:1010B00001F1A8950F5F1F4FF4CFC0910602DD2309
:1010C00009F4AACFDF3F09F4A6CF8D2F90E0039655
:1010D0000E94271BC82F8F3F09F09ECFC0910602A8
:1010E000F8018081C81398CFCD2F96CF80E2F82EDB
:1010F000A0CF299860E787E20E94B607182F84FFE7
:1011000003C081EE0E94F607DD2321F06FE584E243
:101110000E94B6070E94E30715FF03C0D1E001C09B
:10112000D0E0809106028C1310C08091D701D111BC
:1011300013C09091DB019F5F9093DB0191E0980FCA
:101140009F70807F892B8093D7018D2FDF91CF9166
:101150001F910F91FF900895807FF5CFD0E0F5CFDC
:101160002091D60122FD0C94FC0780E00895FC013B
:101170008091050281839481907F91609483809116
:10118000040280FF03C0CF010C94B00880E00895F2
:10119000CF92DF92EF92FF92CF93DF930E94F905F7
:1011A0006B017C0126E143E050E06FEF80E00E949C
:1011B0004803EC0164E00E94B0058C818F71806A65
:1011C0008C83CF82D886E986FA86CE01DF91CF91D3
:1011D000FF90EF90DF90CF900C94B008CF93DF9307
:1011E000262FEA0150E040E0682F80E00E9448038B
:1011F000BE010E944A07DF91CF910C94B0080C9475
:10120000B0088FEF8093D801E6EDF1E0808188602F
:10121000808328E143E050E06FEF80E00E944803C4
:1012200061E00E94D3050C94FC07CF93219A229A87
:1012300029982A9ACFB7F8948091B601811146C0B7
:1012400088EB93E0FC0124914CEC53E0FA013491DB
:10125000E22FF0E0EE0FFF1FEC55FC4FA591B4918B
:101260002C91322321F5E2E7F0E02491FA01449138
:10127000FC0194919923D9F0222359F0233009F4E9
:10128000B3C008F0A6C0213009F4B4C0223009F47C
:10129000B5C0E92FF0E0EE0FFF1FE656FC4FA59119
:1012A000B4918FB7F8949C91492B4C938FBF8AE0EF
:1012B0000E9429038CB580618CBD8CB580648CBD87
:1012C0008DE00E9429038BE00E9429038091B601E2
:1012D0008F5F8093B601CFBF29986EE080E20E94B5
:1012E000B6078BE496E40197F1F763E083E20E948E
:1012F000B6076FE584E20E94B60760E685E20E94C9
:10130000B60763E286E20E94B60764E08DE30E94BE
:10131000B6078DE10E94F007843041F063E780E575
:101320000E94B60764E08DE30E94B60786E00E9443
:10133000F007833209F06FC085E00E94F007803625
:1013400009F069C062E082E20E94B60760E081E2D3
:101350000E94B60763E08CE30E94B6078FEF80938C
:10136000030120E045E063E071E08BE20E94760734
:1013700020E045E063E071E08AE20E94760720E029
:1013800045E063E071E080E30E94760782EE0E9410
:10139000F60781EE0E94F60760E787E20E94B60733
:1013A0008091D60180618093D601809108028E7F62
:1013B0008093080284E68093050264E690E080E072
:1013C0000E943F1BC0910502CF3F51F585E191E09E
:1013D00024C02730B1F02830D1F0243009F059CFA3
:1013E000809180008F7D03C0809180008F778093F3
:1013F00080004FCF84B58F7784BD4BCF84B58F7D70
:10140000FBCF8091B0008F778093B00042CF809166
:10141000B0008F7DF9CF89E191E0CF910C940C065B
:101420008FEF8C0F8E3FB8F7C093080163E082E224
:101430000E94B60761E081E20E94B6070E94E307BE
:101440006C2F90E080E00E943F1BC0CF0F931F9352
:10145000CF93DF93EC018B0160E00115110539F0AA
:10146000F80101900020E9F731976E2F601BCE0143
:101470000E94B0058C818F718C83CE010E94E5059E
:10148000482F50E0B801CE0107960E94B71CCE014C
:101490000E94E5058C0F9D2F911DFC011782CE0146
:1014A000DF91CF911F910F910895809105028F3F99
:1014B00069F423E043E050E06FEF80E00E944803CE
:1014C00061E871E00E94260A0C94FC070895E6ED9D
:1014D000F1E08081897F81608083E5E0F2E08FEF39
:1014E0008283818327E043E050E06FEF0E9448034E
:1014F00061E871E00E94260A0C94FC07FC0124813B
:10150000229526952770213011F4878108952111A5
:1015100004C007960E949117089580E00895FC0189
:101520002681263409F041C025812F3209F03DC0C3
:101530000E947E0A8093BD01811108C06CE970E0B1
:1015400088EF92E00E944A070E94B7088091BD018F
:10155000813041F467E970E088EF92E00E944A0729
:101560000E94B7088091BD01833041F465E870E0C6
:1015700088EF92E00E944A070E94B7088091BD015F
:10158000893099F46CE770E088EF92E00E944A0796
:101590000E94B70888E198E00FB6F894A895809368
:1015A00060000FBE90936000FFCF08952F923F928E
:1015B0004F925F926F927F928F929F92AF92BF9263
:1015C000CF92DF92EF92FF920F931F93CF93DF930F
:1015D000CDB7DEB7A2970FB6F894DEBF0FBECDBF72
:1015E0008091D60184FB222420F884FFCEC30E9480
:1015F000E1040091B7011091B8012091B901309137
:10160000BA01601B710B820B930B613A7B4B8D40CF
:101610009105A0F00E94E1046093B7017093B801B6
:101620008093B9019093BA0186E00E94F00783325B
:1016300009F49AC089E191E00E940C0636E03AA3D1
:10164000CE0101966C014DE0342E44244A9452E0C0
:10165000552E53E0652E752C87E10E94F00780FD22
:1016600094C39AA191509AA3992309F48EC321E0BF
:1016700041E070E060E080E60E947607182F81323A
:1016800020F082EE0E94F60710E021E0412F67EE85
:1016900074E081E60E94760760E487E20E94B60764
:1016A00081E2E7EEF4E0D60101900D928A95E1F730
:1016B0000C81802F8370823079F6C6010E94E50587
:1016C00002FD89E1895F1813C7CF87EE94E00E947D
:1016D000E505A82E8091EB048770F82E1091EC049C
:1016E0000091E804E090E7049090E90480910602FC
:1016F000E81651F080910502081731F0802F90E034
:101700006E2D03960E943F1B8091D70180688093C5
:10171000D7018091050298124AC2EA2DF0E0E95102
:10172000FB4F17828091EB0483FF15C091E2E7EE37
:10173000F4E0A6ECB4E001900D929A95E1F7877E73
:1017400080618093CA049092C7040093C80486EC19
:1017500094E00E94B0089091EB0494FF0CC087EED7
:1017600094E00E948F0A78CF85E00E94F0078036CF
:1017700009F060CF63CFE3E0FE12F1CF8091EC047B
:1017800021EF280F233008F467CF143009F464CF19
:101790001830D9F41091D60110FF5ECF87EE94E097
:1017A0000E947E0A8F3F09F457CF8F5F8F3F09F465
:1017B00053CF90910702891708F04ECF11FD4CCFFF
:1017C000809307020093060247CF183159F429E1AC
:1017D00043E050E06FEF802F0E94480361E00E94D9
:1017E000D30520C0193171F48091D60183FF34CF25
:1017F000877F8093D60187EE94E00E947E0A8093D3
:10180000D8012ACF1E3109F427CF1D3171F42FE101
:1018100043E050E06FEF80E00E94480360E07FEF1C
:101820000E94BE050E94FC0717CF2091E8042111F9
:10183000BAC18D3059F488E198E00FB6F894A895B4
:10184000809360000FBE90936000FFCF8B3179F4DE
:1018500087EE94E00E947E0A91E0811101C090E041
:101860008091040290FB80F980930402F5CE8630CB
:10187000A1F49091EE04822D992321F081E09D3412
:1018800009F080E08093030241E050E063E071E002
:1018900083E092E00E942F1BDFCE833119F40E9477
:1018A000C714DACE823119F40E94C808D5CE82302E
:1018B000B1F422E043E050E06FEF80E00E94480383
:1018C0008C0164E00E94B005F80184818F71806A08
:1018D00084834782508661867286C80140C0813009
:1018E00001F520E030E0232B09F4B6CE92959695D1
:1018F0009770953059F46091EE047091EF048091E7
:10190000F0049091F1040E940000A6CE911105C050
:101910008EEE94E00E94AF17F6CF60E070E0CB014E
:10192000F2CF8A30F9F48091EE04833409F094CE3A
:1019300003E010E06FEFC8010E943F1B0F5F1F4FD5
:10194000033031E01307B1F72AE043E050E06FEFD6
:1019500080E00E94480362E871E00E94260A0E942B
:10196000FF087ACE8C3109F0FACE8091EE048235F0
:10197000C1F533E0E32EF12CC7010E94271B8F3FF6
:1019800039F19DEF9E0D99838A832CE143E050E06D
:101990006FEF80E00E9448038C0162E00E94B00576
:1019A000F80184818F71806C8483C8010E94E505F1
:1019B000482F50E0B601C80107960E94AE1CC8012E
:1019C0000E94FF0868EC70E080E090E00E94140F35
:1019D000FFEFEF1AFF0A23E0E21621E0F20661F6BC
:1019E0003BCE8635A1F52CE143E050E06FEF80E07F
:1019F0000E9448038C018EE480937C0066E470E0D2
:101A000080E090E00E94AE0480917A008064809330
:101A10007A0080917A0086FDFCCFE0907800F0900B
:101A2000790062E0C8010E94B005F80184818F71DD
:101A300080668483970150E040E064EB7BE281E1C3
:101A400090E00E94141CF8013087278346CF86342B
:101A500009F05EC02CE143E050E06FEF80E00E94AF
:101A600048038C01F89440916000309180002091EF
:101A70008100909182008FEF86BB109285001092BA
:101A80008400109280001092820088E10FB6F894D2
:101A9000A895809360000FBE309260008091600036
:101AA000806480936000A895F5E0F09381008091B8
:101AB000600087FFFCCF10928100A89580916000A4
:101AC000886180936000409360007894E090840087
:101AD000F0908500309380002093810090938200E5
:101AE00062E0C8010E94B005F80184818F718066B0
:101AF0008483B70190E080E02BE0660F771F881F9A
:101B0000991F2A95D1F720EA36E841E050E099CFB5
:101B10008D3411F52CE143E050E06FEF80E00E943E
:101B200048038C01E0900805F0900905E114F104E8
:101B300021F48CE0E82E85E0F82E62E0C8010E94D6
:101B4000B005F80184818F7180668483C6018E1987
:101B50009F0990878783C1CE853409F07DCD2CE124
:101B600043E050E06FEF80E00E94480362E871E0DC
:101B70000E94260A0E94FF0810E000E06FEFC801F3
:101B80000E943F1B0F5F1F4F0D39F1E01F07B1F798
:101B900088E198E00FB6F894A895809360000FBE96
:101BA00090936000FFCF8A3109F0D9CD55CD2FEF4A
:101BB0009212CEC033E0F312B1C08091D60182FF01
:101BC00090C0173009F08DC080910602081709F403
:101BD00043CD0E94E1042091D2013091D301409184
:101BE000D4015091D501621B730B840B950B6031AE
:101BF00077428105910530F18091D60183FB112751
:101C000010F983FD29CD90910502911136C01092F3
:101C1000D8018091D601877F8093D6011091D80199
:101C20001F3F09F419CD0E94E1046093D201709323
:101C3000D3018093D4019093D50180910702811341
:101C4000109307020E94E1046093D2017093D301C4
:101C50008093D4019093D5010E94E104737088278A
:101C600099270E94AE0428E043E050E06FEF802FF8
:101C70000E94480360910702B2CD88608093D6012C
:101C80009092D80128E143E050E06FEF80E00E949D
:101C9000480361E00E94D3050E94FC070E94E10412
:101CA0004B015C011092EC040E94E104681979096F
:101CB0008A099B09603D77408105910508F0A9CF0D
:101CC0001111A7CF0E94D60AA8958091EB048770C6
:101CD000833051F711E08091EC04893129F310E051
:101CE000E3CF183009F4B8CC1431C1F48091060266
:101CF000E81214C00E94E1047370882799270E949B
:101D0000AE0425E143E050E06FEF802F0E944803CE
:101D1000609106020E94D3050E94FC078091060292
:101D2000E8129ACC80910502081759F18091D601EA
:101D300082FF27C087EE94E00E94FC0723E0F216A2
:101D400009F48ACC80910602E81609F408CD84CC07
:101D50008091D60182FF80CC33E0F3120FC018517E
:101D6000123060F487EE94E00E947E0A8E3F31F0DC
:101D700061E0680F87EE94E00E94D30587EE94E05F
:101D800051CD83E0F812EBCC67CCA2960FB6F89455
:101D9000DEBF0FBECDBFDF91CF911F910F91FF909E
:101DA000EF90DF90CF90BF90AF909F908F907F90FB
:101DB0006F905F904F903F902F900895CF92DF9259
:101DC000EF92FF92CF93DF93D82F0E94E1046B0133
:101DD0007C018091EB0487608093EB04C0E00E945B
:101DE000E1046C197D098E099F09603D77408105EA
:101DF000910590F4C11110C0A8950E94EE050E94B3
:101E0000D60A8091EB048770833049F7C1E0809156
:101E1000EC048D13E3CFE3CF8C2FDF91CF91FF90B4
:101E2000EF90DF90CF9008958F929F92AF92BF92E4
:101E3000CF92DF92EF92FF924B015C010E94E1048E
:101E40006B017C010E94E1046C197D098E099F09D8
:101E5000681579058A059B0530F4A8950E94EE0562
:101E60000E94D60AEFCFFF90EF90DF90CF90BF9007
:101E7000AF909F908F9008958F929F92AF92BF9254
:101E8000CF92DF92EF92FF920F931F93CF93DF9346
:101E9000CDB7DEB760970FB6F894DEBF0FBECDBFEB
:101EA0000E94C8080E94E1046B017C0128EE33E027
:101EB00040E050E00E94141CCA01B9012CE330E05C
:101EC00040E050E00E94141C7F936F93C701B6015D
:101ED00020E63AEE40E050E00E94141C98E1892E82
:101EE000912CA12CB12CCA01B901A50194010E9429
:101EF000141C7F936F93C701B60120E83EEE46E3C2
:101F000050E00E94141CCA01B901A50194010E946D
:101F1000141C7F936F93C701B60120E03CE546E2B5
:101F200055E00E94141C3F932F9385E891E09F9306
:101F30008F938E010F5F1F4F1F930F930E94C61C3C
:101F4000B8018CE793E00E94260A0E94B70864E675
:101F500070E080E090E00E94140F88E00E94F0079B
:101F60008F7063EE7FEF98E0899F601971091124EB
:101F700020915C0130915D0147E0429FC001439F89
:101F8000900D1124680F791F0FB6F894DEBF0FBEB5
:101F9000CDBF77FF02C0695F7F4F83E0759567957E
:101FA0008A95E1F770935D0160935C018BE593E0A6
:101FB0000E94BE050E94B70864E670E080E090E0F1
:101FC0000E94140F6EE871E08AE393E00E944A07D2
:101FD0000E94B70864E670E080E090E00E94140F71
:101FE00060E670E089E193E00E94BE050E94B708B8
:101FF00064E670E080E090E00E94140F70E060E022
:1020000081E294E00E94BE050E94B70867E971E092
:1020100080E094E00E94260A0E94B70864E670E01F
:1020200080E090E00E94140F69E771E08DE993E091
:102030000E944A070E94B7086091DC018FED93E08F
:102040000E94D3050E94B70864E670E080E090E04B
:102050000E94140F6091DB018EEB93E00E94D30588
:102060000E94B70864E670E080E090E00E94140FE0
:102070001092DC011092DB0160960FB6F894DEBF7F
:102080000FBECDBFDF91CF911F910F91FF90EF90C9
:10209000DF90CF90BF90AF909F908F9008958F92D8
:1020A0009F92AF92BF92CF92DF92EF92FF920F93E7
:1020B0001F93CF93DF931F92CDB7DEB70E94E10449
:1020C0006B017C018091C8019091C901A091CA0166
:1020D000B091CB01A7019601281B390B4A0B5B0B72
:1020E000DA01C90181339547A105B10508F0BEC1E8
:1020F0008091C6019091C7010F9709F035C18FE615
:1021000091E00E943B0481E18093AA048090DD016C
:102110009090DE01A090DF01B090E00164E085EADC
:1021200094E00E94B0058091A9048F71806880932B
:10213000A9048092AC049092AD04A092AE04B09237
:10214000AF0485EA94E00E94B70864E670E080E09E
:1021500090E00E94140F18E11093AA0480905E0191
:1021600090905F01A0906001B090610164E085EA09
:1021700094E00E94B0058091A9048F7180688093DB
:10218000A9048092AC049092AD04A092AE04B092E7
:10219000AF0485EA94E00E94B70864E670E080E04E
:1021A00090E00E94140F86E38093AA04809062015D
:1021B00090906301A0906401B090650164E085EAAD
:1021C00094E00E94B0058091A9048F71806880938B
:1021D000A9048092AC049092AD04A092AE04B09297
:1021E000AF0485EA94E00E94B70864E670E080E0FE
:1021F00090E00E94140F109389048090E101909068
:10220000E201A090E301B090E40164E084E894E08E
:102210000E94B005809188048F7180688093880443
:1022200080928B0490928C04A0928D04B0928E04C4
:1022300084E894E00E94B70864E670E080E090E0F3
:102240000E94140F89E1809389048090E5019090A9
:10225000E601A090E701B090E80164E084E894E032
:102260000E94B005809188048F71806880938804F3
:1022700080928B0490928C04A0928D04B0928E0474
:1022800084E894E00E94B70864E670E080E090E0A3
:102290000E94140F8AE1809389048090E901909054
:1022A000EA01A090EB01B090EC0164E084E894E0D6
:1022B0000E94B005809188048F71806880938804A3
:1022C00080928B0490928C04A0928D04B0928E0424
:1022D00084E894E00E94B70864E670E080E090E053
:1022E0000E94140F60915E0170915F018091600106
:1022F000909161010E948B1A20E030E04AE754E49B
:102300000E94A21B4B015C0182E18093AA0465E05C
:1023100085EA94E00E94B0058091A904806E8093C4
:10232000A9048092AC049092AD04A092AE04B09245
:10233000AF0483E08093B00485EA94E00E94B7087C
:1023400064E670E080E090E00E94140FC092C80143
:10235000D092C901E092CA01F092CB018EE090E0E8
:102360009093C7018093C6018091C2019091C301EF
:10237000A091C401B091C501A7019601281B390B9A
:102380004A0B5B0BDA01C901813E9349A440B105B8
:1023900050F0C092C201D092C301E092C401F09209
:1023A000C5010E943C0F8091BE019091BF01A09198
:1023B000C001B091C101A7019601281B390B4A0B3E
:1023C0005B0BDA01C90181389E4EA643B10520F4AA
:1023D00080915701882391F010925701C092BE015D
:1023E000D092BF01E092C001F092C1016091BD01A5
:1023F00083E694E00E94D3050E94B7088091C8014B
:102400009091C901A091CA01B091CB01A701960199
:10241000281B390B4A0B5B0BDA01C90181329F4B38
:10242000A240B10508F407C1C092C801D092C90109
:10243000E092CA01F092CB0181E18093AA046BE69D
:1024400071E085EA94E00E944A070E94B70864E6BA
:1024500070E080E090E00E94140F6CE571E088EF7E
:1024600092E00E944A070E94B708E5C08BE592E01F
:102470000E94B603181619060CF03ACE8BE592E0CE
:102480000E949403898380916801882319F0815008
:1024900080936801CE0101960E945A05B090ED012B
:1024A000EB2DF091EE01E331F10508F09EC0E55A05
:1024B000FD4E0C94551C8612D412BC126E126E1274
:1024C0006E12711376135E136E126E126E12E71295
:1024D000861286128612761376137613A090F9016F
:1024E000EA2DF0E0E051FE4FAA2009F41CC18291D0
:1024F000882309F416C1A092F90109818FE8800FA1
:102500008E3008F013C1802F8F70EDC01092EE0155
:102510001092ED011092F90189818B3149F08EE022
:1025200090E09093EE018093ED0184E08093680148
:1025300080916801811159C08FEF9FEF90936701DF
:10254000809366018BE18983CE0101960E945A0532
:10255000CE0101960E945A05CE0101960E945A05AD
:10256000CE0101960E945A0582E090E09093EE0120
:102570008093ED0184E050C18981813049F08EE083
:1025800090E09093EE018093ED0184E080936801E8
:1025900080916801811129C08AE090E09093EE015A
:1025A0008093ED0181E038C189818B3149F08EE063
:1025B00090E09093EE018093ED0184E080936801B8
:1025C00080916801811111C08CE090E0CFCF8091A3
:1025D00068018230F1F580916601909167018095E4
:1025E000909590931E0180931D018091ED01909133
:1025F000EE019093C7018093C6010597A9F40FE1FE
:1026000011E0F801A680B780A114B10469F046E09A
:1026100050E06BE072E0C8010E94A11C085F1F4FF0
:10262000892B79F7F50109958091C6019091C70131
:102630000F9709F45DCD0F90DF91CF911F910F910E
:10264000FF90EF90DF90CF90BF90AF909F908F90D2
:102650000895813069F489812091BB013091BC01DA
:10266000820F932F911D9093BC018093BB01BDCF2E
:102670008111DDC029818091BB019091BC01922B19
:1026800020911D0130911E0182179307A1F48FE064
:1026900090E09093EE018093ED0184E080936801D7
:1026A0008FEF9FEF90936701809366011092BC01BA
:1026B0001092BB019ACF8DE090E0EBCF8981909191
:1026C0006801890F815027E030E03093EE012093BC
:1026D000ED01809368010E944D0587E00E944D0541
:1026E00084CF8981805F0E947B067FCF89810E9491
:1026F0004D0580916801E091F901F0E0E151FE4F54
:102700009081911109C0811170CF85E090E0909384
:10271000EE018093ED0169CF811167CF89E090E0F0
:10272000F6CFAA94E1CE1092F901E7CE8FEF800F99
:102730008F3608F049C0EA2DF0E0E151FE4F1081DC
:1027400011160CF04DC00130E1F480E00E944D05FF
:102750008B2D0E944D05113059F485E090E0909347
:10276000EE018093ED01109368010E9442053DCF78
:1027700083E090E09093EE018093ED010093680177
:10278000F4CF87E090E09093EE018093ED01802FED
:102790008F70815080936801007F20E130E0003528
:1027A00041F021E130E0003621F0011106C022E1C4
:1027B00030E03093EE012093ED010E944D058091B1
:1027C000ED010E944D05D1CF01110AC00E944205C2
:1027D00083E090E0AA2009F4E1CE8BE090E0DECE29
:1027E00080E8800F803168F488E090E09093EE01FB
:1027F0008093ED0140E1049F800111240093680162
:10280000F4CE0B3161F4A1100FC081E090E0909301
:10281000EE018093ED0183E080936801E6CE013FF5
:1028200019F486E090E0BACE8EE090E09FCE8091E1
:10283000ED019091EE019093C7018093C601F4CE13
:102840002BE043E050E06FEF80E00E9448036CE92A
:1028500071E00E94260A0E94B0082CE043E050E09C
:102860006FEF80E00E94480368EA71E00E94260A48
:102870000E94B0084AE351E064E270E089E50E94FA
:10288000EE0864E670E080E090E00E94140F4EE2F3
:1028900051E064E270E080E50E94EE0843E251E01E
:1028A00064E270E081E50E94EE084BE151E064E2F1
:1028B00070E08BE50E94EE0864E670E080E090E056
:1028C0000E94140F42E151E064E270E08CE50E9446
:1028D000EE0864E670E080E090E00E94140F47E0AC
:1028E00051E064E270E08DE50E94EE084DEF50E0AB
:1028F00064E270E086E40E94EE0864E670E080E046
:1029000090E00E94140F42EF50E064E270E080E635
:102910000E94EE084BEE50E064E270E08AE50E940F
:10292000EE0864E670E080E090E00E94140F4AED4B
:1029300050E064E270E087E40E94EE0844ED50E06D
:1029400064E270E082E50E94EE0864E670E080E0F8
:1029500090E00E94140F4DEC50E064E270E083E5DB
:102960000E94EE0841E551E06DE070E083E20E94D4
:10297000EE0846E451E067E170E084E20E94EE0870
:1029800080915701811102C00C943C0F08952FE0F3
:1029900043E050E06FEF80E00E94480361E871E09F
:1029A0000E94260A62E086EC94E00E94B005E6EC04
:1029B000F4E084818F71806C848381E0878310864A
:1029C000CF010E94B0088FE00E94DE0E22E150E0AD
:1029D00040E06FEF80E00E94480360EB71E00E94EE
:1029E000260A0E94B00826E043E050E06FEF80E046
:1029F0000E944803609106020E94D3050E94FF08CE
:102A000086E00E94DE0E0C942014CF938091040285
:102A100081FD20C00E94C7148091040281608093D0
:102A20000402C4E02AE143E050E06FEF80E00E943E
:102A3000480362E00E94D3050E94FF088BE10E94D8
:102A4000DE0E811102C0C15069F7809104028260DC
:102A500080930402CF9108951F920F920FB60F92A8
:102A600011242F933F934F935F936F937F938F9393
:102A70009F93AF93BF93EF93FF938BE592E00E94F8
:102A8000CC03FF91EF91BF91AF919F918F917F9177
:102A90006F915F914F913F912F910F900FBE0F90CB
:102AA0001F9018951F920F920FB60F9211242F931B
:102AB0008F939F93EF93FF93E0916B02F0916C02E1
:102AC0008081E0917102F091720282FD1BC09081C1
:102AD000809174028F5F8F7320917502821741F08D
:102AE000E0917402F0E0E55AFD4F958F80937402F7
:102AF000FF91EF919F918F912F910F900FBE0F90AB
:102B00001F9018958081F4CF1F920F920FB60F92ED
:102B100011242F933F938F939F93AF93BF938091F3
:102B2000FB019091FC01A091FD01B091FE0130915B
:102B3000FA0123E0230F2D3758F50196A11DB11D91
:102B40002093FA018093FB019093FC01A093FD0177
:102B5000B093FE018091FF0190910002A0910102CB
:102B6000B09102020196A11DB11D8093FF019093C7
:102B70000002A0930102B0930202BF91AF919F9116
:102B80008F913F912F910F900FBE0F901F9018952E
:102B900026E8230F0296A11DB11DD2CF1F920F92DE
:102BA0000FB60F9211242F933F934F935F936F9320
:102BB0007F938F939F93AF93BF93EF93FF93E09196
:102BC0006B01F0916C010995FF91EF91BF91AF916D
:102BD0009F918F917F916F915F914F913F912F9135
:102BE0000F900FBE0F901F9018951F920F920FB667
:102BF0000F9211242F933F934F935F936F937F9383
:102C00008F939F93AF93BF93EF93FF93E0916901ED
:102C1000F0916A010995FF91EF91BF91AF919F915A
:102C20008F917F916F915F914F913F912F910F9075
:102C30000FBE0F901F9018951F920F920FB60F9214
:102C400011240F900FBE0F901F901895CF93DF9314
:102C5000FC01108211821282148215821682DC011C
:102C600017968AE1ED0119928A95E9F782E083834C
:102C7000DF91CF910895CF93EBE5F2E013821282BA
:102C800088EE93E0A0E0B0E084839583A683B783C9
:102C900081E791E09183808385EC90E0958784873C
:102CA00084EC90E09787868780EC90E0918B808B16
:102CB00081EC90E0938B828B82EC90E0958B848BFF
:102CC00086EC90E0978B868B118E128E138E148E6D
:102CD00087EE94E00E94261686EC94E00E94261669
:102CE00085EA94E00E942616E5EAF4E083E2868312
:102CF00081E1858384E894E00E942616E4E8F4E00C
:102D000084E2868388E1858383E694E00E94261628
:102D1000E3E6F4E086E48683CFE2C58382E494E0D0
:102D20000E942616E2E4F4E087E48683C58381E20C
:102D300094E00E942616E1E2F4E080E58683C583F4
:102D400080E094E00E942616E0E0F4E081E58683CE
:102D5000C5838FED93E00E942616EFEDF3E082E548
:102D60008683C5838EEB93E00E942616EEEBF3E09C
:102D700083E58683C5838DE993E00E942616EDE9FD
:102D8000F3E089E58683C5838CE793E00E942616ED
:102D9000ECE7F3E08AE58683C5838BE593E00E9448
:102DA0002616EBE5F3E08BE58683C5838AE393E0A3
:102DB0000E942616EAE3F3E08CE58683C58389E169
:102DC00093E00E942616E9E1F3E08DE58683C58352
:102DD00088EF92E00E942616E8EFF2E080E6868314
:102DE000C583CF910895789484B5826084BD84B5FD
:102DF000816084BD85B5826085BD85B5816085BDF6
:102E000080916E00816080936E00109281008091AD
:102E10008100826080938100809181008160809335
:102E20008100809180008160809380008091B1005A
:102E300084608093B1008091B00081608093B00085
:102E400080917A00846080937A0080917A00826019
:102E500080937A0080917A00816080937A008091DB
:102E60007A00806880937A001092C100A8950E9431
:102E70000103809104028D7F809304020E94C806A2
:102E800041E050E063E071E083E092E00E94171BB4
:102E90006FEF81E090E00E943F1B8091D7018F7817
:102EA0008093D7011092CD011092CC0188E591E07A
:102EB0000E940C0685E095E19093DA018093D90198
:102EC0000E94E1046B017C010E94E1046C197D0900
:102ED0008E099F096838734181059105A8F00E9409
:102EE0008B05A895C0E0D0E0A8950E94EE050E9451
:102EF000D60A0E944F102097B9F30E94C20388237C
:102F000099F30E940000F0CF0E94EE050E94D60ABD
:102F10008091D60182FB882780F9A8958111DFCFA7
:102F2000D3CFFC0188279927E89421912032E9F337
:102F3000293010F02E30C8F32B3241F02D3239F405
:102F4000689404C00E940318820F911D21912053A0
:102F50002A30C0F31EF4909581959F4F08951F93DA
:102F6000FC0199278827BC01E89411911032E9F3FC
:102F7000193010F01E30C8F31B3251F01D3249F4E5
:102F8000689406C00E94EE17610F711D811D911D8E
:102F9000119110531A30B0F33EF4909580957095CE
:102FA00061957F4F8F4F9F4F1F910895FC010590B2
:102FB0000020E9F7809590958E0F9F1F0895FB01E3
:102FC000DC014150504048F005900D920020C9F7B7
:102FD00001C01D9241505040E0F70895592F482FED
:102FE000372F262F660F771F881F991F660F771FB1
:102FF000881F991F620F731F841F951F660F771F0D
:10300000881F991F08957AE0979F902D879F802DA4
:10301000910D11240895ABE0B0E0E1E1F8E10C94EA
:103020005C1B7C013B018A01FC01178216828381B3
:1030300081FFC8C1CE0101965C01F7019381F301C4
:1030400093FD859193FF81913F01882309F453C13A
:10305000853239F493FD859193FF81913F0185324B
:1030600029F4B70190E00E94FB19E7CF912C212CA5
:10307000312CFFE1F31538F08B3211F190F48032EE
:1030800009F1833229F137FC3CC020ED280F2A30AA
:1030900050F536FE20C08AE0989E200D1124922E15
:1030A00006C08D3291F0803371F7689430F8F301E7
:1030B00093FD859193FF81913F018111DACF21C06A
:1030C000689431F8689432F8F2CF689433F8EFCF0F
:1030D000689434F8ECCFEAE02E9E200D1124222EC5
:1030E000689435F8E4CF8E3229F436FC04C1689434
:1030F00036F8DDCF8C3619F4689437F8D8CF883697
:10310000B1F2982F9F7D95549330E0F08336A1F172
:103110008337C1F1833509F063C02801F2E04F0E17
:10312000511CF801C080D180692D70E036FC02C0CE
:103130006FEF7FEFC6010E94E5194C01689437F8E4
:1031400082010AC00C5F1F4FFFE3F9838824839438
:10315000912C6501E89437F833FE2DC0522C811470
:10316000910471F5552009F468CFB70180E290E031
:103170000E94FB195A94F6CFF801808189830E5F73
:103180001F4FE4CF2801F2E04F0E511CF801C08020
:10319000D180692D70E036FC02C06FEF7FEFC60171
:1031A0000E94F0194C018201D5CFB70180E290E076
:1031B0000E94FB192A942814190409F0B0F7CECF05
:1031C000F60137FC859137FE81916F01B70190E0E0
:1031D0000E94FB1951105A94F1E08F1A9108BFCF49
:1031E000843619F0893609F077C0F80137FE6BC0D4
:1031F00060817181828193810C5F1F4FF32DFF7677
:103200003F2E97FF09C090958095709561957F4FEF
:103210008F4F9F4F689437F82AE030E0A5010E9455
:103220002B1AC82ECA188C2C432C36FE0CC0E894DE
:1032300040F8C91440F434FE05C032FC03C0F32D3D
:10324000FE7E4F2E892C44FE95C0FE01EC0DF11D33
:103250008081803309F087C0242D297E422E842D61
:103260008870582E43FC95C040FE8FC09C2C821461
:1032700018F42C0C922C981844FE91C0B70180E3EE
:1032800090E00E94FB1942FE09C088E790E041FEF1
:1032900002C088E590E0B7010E94FB19C91408F448
:1032A0008AC0CA94D12C9FEFC91AD90ACA0CDB1C58
:1032B000F60182916F01B70190E00E94FB19AC14F6
:1032C000BD04B1F74FCF60817181072E000C880BD0
:1032D000990B0E5F1F4F92CFD32CE894D4F82AE0BD
:1032E00030E0853739F1232D297FD22E8F3601F139
:1032F00048F48835A9F0F701868197812B96E2E1A1
:103300000C94781B803749F08837A9F7D4FE02C0A7
:103310006894D2F820E130E00DC06894D4F8F6CF7C
:1033200034FE03C0822F8660D82E20E132E002C036
:1033300028E030E0F801D7FE0FC060817181828102
:1033400093810C5F1F4FA5010E942B1AC82ECA182B
:103350003D2CE89437F867CF6081718190E080E080
:103360000E5F1F4FF0CF42FC02C0839478CF83944E
:10337000839475CF842D867809F471CFF6CFB70189
:1033800080E290E00E94FB1983948214C0F3512CD8
:1033900073CF522C5818821408F46ECFF8CF842DB6
:1033A000867809F47BCF8BE241FE80E247FC8DE218
:1033B000B70190E071CFB70180E390E00E94FB1964
:1033C0009A946CCF8FEF9FEF99CFFC0105906150DD
:1033D00070400110D8F7809590958E0F9F1F08952B
:1033E000FC016150704001900110D8F780959095D4
:1033F0008E0F9F1F08950F931F93CF93DF93182F66
:10340000092FEB018B8181FD09C01FEF0FEF812F89
:10341000902FDF91CF911F910F91089582FF14C0DB
:103420002E813F818C819D81281739073CF4E881EA
:10343000F981CF0101969983888310838E819F81C2
:1034400001969F838E83E3CFE885F985812F0995C7
:10345000892BA1F3DACFFA01AA27283051F12031C4
:1034600081F1E8946F936E7F6E5F7F4F8F4F9F4F18
:10347000AF4FB1E03ED0B4E03CD0670F781F891F5A
:103480009A1FA11D680F791F8A1F911DA11D6A0F28
:10349000711D811D911DA11D20D009F468943F91DB
:1034A0002AE0269F11243019305D3193DEF6CF01DA
:1034B0000895462F4770405D4193B3E00FD0C9F7A0
:1034C000F6CF462F4F70405D4A3318F0495D31FD0D
:1034D0004052419302D0A9F7EACFB4E0A695979560
:1034E000879577956795BA95C9F700976105710536
:1034F00008959B01AC010A2E069457954795379580
:103500002795BA95C9F7620F731F841F951FA01DD9
:103510000895E89409C097FB3EF4909580957095C6
:1035200061957F4F8F4F9F4F9923A9F0F92F96E90F
:10353000BB279395F695879577956795B795F11184
:10354000F8CFFAF4BB0F11F460FF1BC06F5F7F4F21
:103550008F4F9F4F16C0882311F096E911C0772333
:1035600021F09EE8872F762F05C0662371F096E83C
:10357000862F70E060E02AF09A95660F771F881F0B
:10358000DAF7880F9695879597F9089597F99F67C9
:1035900080E870E060E008959FEF80EC08950024DB
:1035A0000A941616170618060906089500240A94A8
:1035B00012161306140605060895092E0394000C2E
:1035C00011F4882352F0BB0F40F4BF2B11F460FFBD
:1035D00004C06F5F7F4F8F4F9F4F089557FD9058E6
:1035E000440F551F59F05F3F71F04795880F97FBC7
:1035F000991F61F09F3F79F0879508951216130681
:103600001406551FF2CF4695F1DF08C016161706AF
:103610001806991FF1CF86957105610508940895E4
:10362000E894BB2766277727CB0197F90895DC013B
:10363000CB01FC01F999FECF06C0F2BDE1BDF89ABD
:10364000319600B40D9241505040B8F70895F99961
:10365000FECF92BD81BDF89A992780B50895DC010F
:10366000A40FB51F4150504048F0CB01840F951F67
:103670002E910E94401B41505040D0F70895262FB4
:10368000F999FECF92BD81BDF89A019700B4021658
:1036900039F01FBA20BD0FB6F894FA9AF99A0FBE06
:1036A00008950E94931BA59F900DB49F900DA49F19
:1036B000800D911D112408952F923F924F925F9299
:1036C0006F927F928F929F92AF92BF92CF92DF9232
:1036D000EF92FF920F931F93CF93DF93CDB7DEB797
:1036E000CA1BDB0B0FB6F894DEBF0FBECDBF09942B
:1036F0002A88398848885F846E847D848C849B8482
:10370000AA84B984C884DF80EE80FD800C811B818F
:10371000AA81B981CE0FD11D0FB6F894DEBF0FBEBE
:10372000CDBFED010895A29FB001B39FC001A39F3B
:10373000700D811D1124911DB29F700D811D1124EA
:10374000911D08950E94B61B0C94DD1A0E94D61A92
:1037500058F00E94CF1A40F029F45F3F29F00C94F2
:10376000C61A51110C94111B0C94CC1A0E94EE1A1B
:1037700068F39923B1F3552391F3951B550BBB27A0
:10378000AA2762177307840738F09F5F5F4F220FE5
:10379000331F441FAA1FA9F335D00E2E3AF0E0E8DC
:1037A00032D091505040E695001CCAF72BD0FE2F26
:1037B00029D0660F771F881FBB1F261737074807BA
:1037C000AB07B0E809F0BB0B802DBF01FF27935872
:1037D0005F4F3AF09E3F510578F00C94C61A0C9456
:1037E000111B5F3FE4F3983ED4F386957795679578
:1037F000B795F7959F5FC9F7880F911D96958795A7
:1038000097F90895E1E0660F771F881FBB1F6217C5
:1038100073078407BA0720F0621B730B840BBA0B83
:10382000EE1F88F7E0950895A1E21A2EAA1BBB1B94
:10383000FD010DC0AA1FBB1FEE1FFF1FA217B3077C
:10384000E407F50720F0A21BB30BE40BF50B661F92
:10385000771F881F991F1A9469F760957095809556
:1038600090959B01AC01BD01CF010895052E97FBFA
:103870001EF400940E944D1C57FD07D00E94141C9A
:1038800007FC03D04EF40C944D1C50954095309598
:1038900021953F4F4F4F5F4F0895909580957095BC
:1038A00061957F4F8F4F9F4F0895EE0FFF1F05903B
:1038B000F491E02D099460957095809590953095E0
:1038C0004095509521953F4F4F4F5F4F6F4F7F4F22
:1038D0008F4F9F4F0895002E083090F0982F872F1C
:1038E000762F652F542F432F322F22270850F4CFE5
:1038F000220F331F441F551F661F771F881F991FF4
:103900000A95B2F7002D089597FD1094002E083007
:1039100098F00850232F342F452F562F672F782FDC
:10392000892F912DF4CF1594979587957795679565
:1039300057954795379527950A95AAF71124002D95
:103940000895FB01DC0104C08D910190801921F4E0
:1039500041505040C8F7881B990B0895FB01DC01CA
:1039600002C001900D9241505040D8F70895FB01DC
:10397000DC014150504048F001900D920020C9F701
:1039800001C01D9241505040E0F70895AEE0B0E014
:10399000ECECFCE10C946A1B0D891E8986E08C839B
:1039A0001A8309838FEF9FE79E838D83AE01475E65
:1039B0005F4F6F89788DCE0101960E940B182F8181
:1039C0003885020F131FF80110822E96E4E00C9444
:0639D000861BF894FFCFF6
:1039D600FFFFFF00FCE1A8A8FF550A0D070109DE5D
:1039E6000662065806670A2707C7073806FFFF015B
:1039F60000100700FF86050100240700FF8205016D
:103A060000380700FF7E0501004C0700FF7A05011C
:103A160000010800FF76050100020800FF7205009C
:103A26000000000000000001A8061509E3FFFEFFE4
:103A3600FFFFFEFFFFFFFFFF04ED04ED04000000A3
:103A460000EE03580385035F04B6039403A8030D31
:103A56000A004F4B00256420253032643A25303267
:103A6600643A25303264004155544F00456E657204
:103A760067794D6574657200322E302D3030340012
:063A8600322E332E320047
:00000001FF
