:100000000C94C7000C94D9110C94B2110C94EF000D
:100010000C94EF000C94EF000C9400120C94EF0081
:100020000C94EF000C94EF000C94EF000C94EF0094
:100030000C94EF000C94EF000C94EF000C94EF0084
:100040000C9468110C94EF000C9436110C94101160
:100050000C94EF000C94EF000C94EF000C94EF0064
:100060000C94EF000C94EF0068775265626F6F7428
:100070000064626733206E6F7420706F73736962FF
:100080006C6500646267332031006462673320303E
:1000900000547820455252005478204F4B0053654D
:1000A000744D6574657256616C7565004877546966
:1000B0006D65004462675F52657475726E004462DC
:1000C000675F4C6576656C0052465F4368616E6E93
:1000D000656C0050415F4C6576656C0054585F520A
:1000E0005353490043707554656D7000436F6D70D4
:1000F000696C654461746500506172656E744E6F21
:10010000646500506173736976654E6F6465005075
:100110006F7765724D65746572004D617920313875
:1001200020323032322030363A35323A31360052CF
:100130004632345F50415F4C4F57000000000024AE
:100140000027002A0000000000250028002B0004E2
:10015000040404040404040202020202020303036E
:100160000303030102040810204080010204081068
:100170002001020408102000000008000201000015
:100180000304070000000000000000001F121124FB
:100190001FBECFEFD8E0DEBFCDBF11E0A0E0B1E0E1
:1001A000E0E2F3E302C005900D92AE36B107D9F755
:1001B00026E0AEE6B1E001C01D92A331B207E1F73F
:1001C00010E0C7ECD0E004C02197FE010E944D1959
:1001D000C63CD107C9F70E944E130C948E190C949B
:1001E0000000942FEDECF5E03091B1013183828372
:1001F000668325834481487F492B477E4483CF0112
:100200000895AF92BF92CF92DF92EF92FF920F9339
:100210001F93CF93DF936C017B018B01040F151F9C
:10022000EB015E01AE18BF08C017D10759F0699104
:10023000D601ED91FC910190F081E02DC601099568
:10024000892B79F7C501DF91CF911F910F91FF9015
:10025000EF90DF90CF90BF90AF900895FC01538D49
:10026000448D252F30E0842F90E0821B930B541790
:1002700010F0CF96089501970895FC01918D828D1D
:10028000981761F0A28DAE0FBF2FB11D5D968C91B6
:10029000928D9F5F9F73928F90E008958FEF9FEFF5
:1002A0000895FC01918D828D981731F0828DE80FB1
:1002B000F11D858D90E008958FEF9FEF0895FC016B
:1002C000918D228D892F90E0805C9F4F821B910938
:1002D0008F739927089585EB91E00E945F0121E0DB
:1002E000892B09F420E0822F0895FC01A48DA80F2A
:1002F000B92FB11DA35ABF4F2C91848D90E0019668
:100300008F739927848FA689B7892C93A089B18987
:100310008C91837080648C93938D848D981306C028
:100320000288F389E02D80818F7D80830895EF928C
:10033000FF920F931F93CF93DF93EC0181E0888F9F
:100340009B8D8C8D98131AC0E889F989808185FF6F
:1003500015C09FB7F894EE89FF896083E889F98911
:1003600080818370806480839FBF81E090E0DF9113
:10037000CF911F910F91FF90EF900895F62E0B8D66
:1003800010E00F5F1F4F0F731127E02E8C8D8E1121
:100390000CC00FB607FCFACFE889F989808185FF88
:1003A000F5CFCE010E947501F1CFEB8DEC0FFD2F43
:1003B000F11DE35AFF4FF0829FB7F8940B8FEA8943
:1003C000FB8980818062CFCFCF93DF93EC01888D52
:1003D0008823B9F0AA89BB89E889F9898C9185FDC0
:1003E00003C0808186FD0DC00FB607FCF7CF8C914E
:1003F00085FFF2CF808185FFEDCFCE010E94750190
:10040000E9CFDF91CF91089580E090E0892B29F02A
:100410000E946B0181110C940000089590E0FC0192
:10042000E958FE4F2491FC01ED59FE4F3491FC0137
:10043000E15BFE4FE491EE23C9F0222339F0233033
:1004400001F1A8F4213019F1223029F1F0E0EE0F8A
:10045000FF1FEB5BFE4FA591B4918FB7F894EC9121
:10046000611126C030953E233C938FBF08952730FD
:10047000A9F02830C9F0243049F7809180008F7DA1
:1004800003C0809180008F7780938000DFCF84B598
:100490008F7784BDDBCF84B58F7DFBCF8091B0009B
:1004A0008F778093B000D2CF8091B0008F7DF9CF4D
:1004B0003E2BDACFCF93DF9390E0FC01ED59FE4F56
:1004C0002491815B9E4FFC0184918823D1F090E0C0
:1004D000880F991FFC01E55CFE4FA591B491FC01CA
:1004E000EB5BFE4FC591D491623071F49FB7F894E5
:1004F0003C91822F809583238C93E8812E2B288337
:100500009FBFDF91CF9108958FB7F894EC912E2B78
:100510002C938FBFF6CF3FB7F8948091AB019091A9
:10052000AC01A091AD01B091AE0126B5A89B05C06C
:100530002F3F19F00196A11DB11D3FBFBA2FA92F62
:10054000982F8827BC01CD01620F711D811D911D5F
:1005500043E0660F771F881F991F4A95D1F70895CA
:100560008F929F92AF92BF92CF92DF92EF92FF92C3
:100570006B017C010E948B024B015C01C114D10410
:10058000E104F104B9F00E948B02681979098A0923
:100590009B09683E73408105910580F321E0C21AF2
:1005A000D108E108F10888EE880E83E0981EA11CAE
:1005B000B11CE4CFFF90EF90DF90CF90BF90AF9051
:1005C0009F908F9008952FB7F8946091A701709134
:1005D000A8018091A9019091AA012FBF08950895C3
:1005E000CF92DF92EF92FF920E94E3026B017C01B7
:1005F0008091A2019091A301A091A401B091A501C5
:10060000A7019601281B390B4A0B5B0BCA01B901E4
:100610006436710581059105B8F10E9417179B0199
:10062000AC0160E07AEB8BE59AE40E94A5180E9489
:100630001E1960939E0170939F018093A001909377
:10064000A101C092A201D092A301E092A401F09274
:10065000A50180919A0190919B01A0919C01B0917C
:100660009D010196A11DB11D80939A0190939B015C
:10067000A0939C01B0939D0160E088E0FF90EF9013
:10068000DF90CF900C940E02FF90EF90DF90CF9010
:100690000895089561E088E00E945A0261E088E0D0
:1006A0000E940E0262E083E00E945A020E94E3026E
:1006B0006093810170938201809383019093840100
:1006C00060937701709378018093790190937A0118
:1006D0006093A2017093A3018093A4019093A5015C
:1006E00060937C0170937D0180937E0190937F01E4
:1006F00080EF92E09093270180932601E9E6F0E0F5
:1007000080818C608083E99A0895FC0193819770C1
:100710006A3108F069E188E0689FB0011124692B13
:100720006383CF0108950F931F93CF93DF93EC0161
:100730008B0162E00E9485038C818F7180648C83C1
:1007400018870F83CE01DF91CF911F910F910895EC
:10075000CF92DF92EF92FF92CF93DF93EC016A0189
:100760007B0164E00E9485038C818F71806A8C8399
:10077000CF82D886E986FA86CE01DF91CF91FF90AD
:10078000EF90DF90CF9008951F93CF93DF93EC010C
:10079000162F61E00E9485038C818F7180628C83AB
:1007A0001F83CE01DF91CF911F910895FC018381BA
:1007B0008695869586958A3108F089E10895E091BD
:1007C0008901F0918A01309721F00280F381E02DB8
:1007D000099408950F931F930E94E30200918B01E7
:1007E00010918C0120918D0130918E01601B710B55
:1007F000820B930B1F910F9108959C0180918901A9
:1008000090918A0182179307F1F0909193019F7163
:100810009093930130938A0120938901E09189019B
:10082000F0918A01309721F00190F081E02D099537
:100830000E94E30260938B0170938C0180938D0181
:1008400090938E01089580919301805E809393012F
:10085000E5CF0F931F930E94EA0320919401207724
:10086000203779F000E117E220E030E006171707A3
:100870002807390758F48EE191E01F910F910C94ED
:10088000FD0300E61AEE20E030E0F0CF1F910F915B
:100890000895809194018F708B3020F085E191E074
:1008A0000C94FD03089580919301846080939301DB
:1008B00080919401807880939401E0919601F09169
:1008C0009701309709F0099408958EBD00000DB48A
:1008D00007FEFDCF8EB50895CF92DF92EF92FF9283
:1008E0006B017C018EE991E00E94CD1799278F2D35
:1008F0007E2D6D2D8FE991E00E94CD17B7018827DD
:10090000992780EA91E00E94CD176F2D77278827DD
:10091000992781EA91E0FF90EF90DF90CF900C94BF
:10092000CD17E3E9F1E08081877F8F7E808310928D
:100930008F011092900110929101109292010E94E9
:10094000E30260936F017093700180937101909343
:10095000720144E050E070E060E081EB91E00C94C3
:10096000A5170F931F93CF93DF938DE991E00E941A
:10097000B5178A3008F05CC080937B018EE991E066
:100980000E94B517D82F8FE991E00E94B517C82FA4
:1009900080EA91E00E94B517082F81EA91E00E9459
:1009A000B517482F8C2F90E0B0E0A0E0BA2FA92F08
:1009B000982F882710E030E020E0980111270027C9
:1009C000800F911FA21FB31F8D0F911DA11DB11D7F
:1009D00050E070E060E0742F662755274427840FAD
:1009E000951FA61FB71F8F3F2FEF9207A207B207D1
:1009F00051F46CE073ED82E191E00E946C048CE0B4
:100A000093EDA2E1B1E080939A0190939B01A093B2
:100A10009C01B0939D018093850190938601A093E2
:100A20008701B0938801DF91CF911F910F910895B5
:100A300010927B0160E08DE991E00E94CD179ECF7E
:100A4000CF93C0919501CF3FA1F00E94E302609344
:100A50008F01709390018093910190939201809106
:100A6000B301C813C093B30181E191E0CF910C941D
:100A7000FD030E94EA03613D77408105910568F01E
:100A800080919301803618F48DE091E0EFCF877F5D
:100A90008093930185E191E0E9CFCF910895809112
:100AA000B1018F3F21F08DE091E00C94FD030E9495
:100AB000EA03613D77408105910550F080919301F3
:100AC000803618F489E091E0F0CF89E191E0EDCF34
:100AD00008950E94EA03613D77408105910520F465
:100AE0008091930181FF17C08091B2018F3F49F03F
:100AF000809193018E7F8093930189E091E00C9423
:100B0000FD0380919301803618F485E191E0F7CFE1
:100B100089E191E0F4CF0895BF92CF92DF92EF92F6
:100B2000FF920F931F93CF93DF937B01042FB22E7D
:100B300090E59CBD1DBC2A98E0E1F0E03197F1F70B
:100B40000E946504182FE7010150A8F0BB2051F066
:100B50008FEF0E946504182FE114F104A9F3888334
:100B60002196F2CF6E018FEFC81AD80A88810E94B1
:100B70006504E601E9CF2A9A80E190E00197F1F758
:100B8000812FDF91CF911F910F91FF90EF90DF9018
:100B9000CF90BF900895CF93DF931F92CDB7DEB76C
:100BA000698320E041E0BE016F5F7F4F0E948C05AA
:100BB0000F90DF91CF91089580919401982F9077B5
:100BC000903759F0982F92959F709F5F97709295EC
:100BD000907F8F78892B80939401809193018B7FF4
:100BE0008F7E8093930129986CE080E20C94CB0572
:100BF0006FE080E20E94CB05609108016F3F19F021
:100C00008AE20E94CB05299A089521E041E070E034
:100C100060E00C948C0520E040E070E060E00C9413
:100C20008C05FF920F931F93CF93DF938C01FC01F0
:100C3000D2818091930180FF55C0DF3F09F0A3C0AE
:100C4000CFEF8091B101F8018083838182FD63C081
:100C5000C8010E94D60397E0F92EF80E8091B401E6
:100C6000D1E080FD03C0CF3F09F0D0E08091990131
:100C70008F5F809399010115110509F466C02998C9
:100C800080E091E00197F1F76EE080E20E94CB05F1
:100C900084EC90E00197F1F76C2F8AE20E94CB057B
:100CA0006C2F80E30E94CB0581EE0E940B06DD23B2
:100CB00021F060E584E20E94CB0520E04F2DB801D1
:100CC00080EA0E948C05299A10E000E08FEF0E94D4
:100CD0000B06807319F50F3F100701F1A8950F5F00
:100CE0001F4FF4CFC091B201DD2309F4AACFDF3F3B
:100CF00009F4A6CF8D2F90E003960E94B517C82F58
:100D00008F3F09F09ECFC091B201F8018081C813D6
:100D100098CFCD2F96CF80E2F82EA0CF299860E70C
:100D200087E20E94CB05182F84FF03C081EE0E944A
:100D30000B06DD2321F06FE584E20E94CB050E94C3
:100D4000F80515FF03C0D1E001C0D0E08091B201E9
:100D50008C1310C080919401D11113C0909198010F
:100D60009F5F9093980191E0980F9F70807F892BEF
:100D7000809394018D2FDF91CF911F910F91FF9060
:100D80000895807FF5CFD0E0F5CF2091930122FD2B
:100D90000C94110680E00895FC018091B1018183DB
:100DA0009481907F916094838091B00180FF03C013
:100DB000CF010C94C50680E008950C94C5068FEF12
:100DC00080939501E3E9F1E080818860808328E1E8
:100DD00043E050E06FEF80E00E94F10061E00E948C
:100DE000C4030C941106CF93219A229A29982A9A27
:100DF000CFB7F89480916E01811127C0E9E5F1E049
:100E00008491EDE6F1E09491E82FF0E0EE0FFF1F02
:100E1000E55CFE4FA591B491EC91E92321F461E0EA
:100E20008AE00E940E0261E08AE00E945A028CB5BC
:100E300080618CBD8CB580648CBD61E08DE00E94CA
:100E40005A0261E08BE00E945A0280916E018F5F2E
:100E500080936E01CFBF29986EE080E20E94CB059F
:100E600084E293E20197F1F763E083E20E94CB050D
:100E70006FE584E20E94CB0560E685E20E94CB0527
:100E800063E286E20E94CB0564E08DE30E94CB051D
:100E90008DE10E940506843041F063E780E50E9401
:100EA000CB0564E08DE30E94CB0586E00E94050639
:100EB000833209F04DC085E00E940506803609F0B6
:100EC00047C062E082E20E94CB0560E081E20E94BE
:100ED000CB0563E08CE30E94CB058FEF8093030189
:100EE00020E045E063E071E08BE20E948C0520E0A9
:100EF00045E063E071E08AE20E948C0520E045E075
:100F000063E071E080E30E948C0582EE0E940B0694
:100F100081EE0E940B0660E787E20E94CB0580917C
:100F200093018061809393018091B4018E7F8093BF
:100F3000B40184E68093B10164E690E080E00E9411
:100F4000CD17C091B101CF3F41F485E191E002C0DE
:100F500089E191E0CF910C94FD038FEF8C0F8E3FD0
:100F6000B8F7C093080163E082E20E94CB0561E01C
:100F700081E20E94CB050E94F8056C2F90E080E092
:100F80000E94CD17E2CF0F931F93CF93DF93EC0115
:100F90008B0180E06115710519F0CB010E9464148A
:100FA000682FCE010E9485038C818F718C83CE01C6
:100FB0000E94D603482F50E0B801CE0107960E9448
:100FC0006D14CE010E94D6038C0F9D2F911DFC0144
:100FD0001782CE01DF91CF911F910F910895CF938A
:100FE000DF93262FEA0150E040E0682F80E00E9466
:100FF000F100BE010E94C307DF91CF910C94C5069A
:101000000F931F93CF93DF93EC018B0160E00115E9
:10101000110539F0F80101900020E9F731976E2FA2
:10102000601BCE010E9485038C818F718C83CE0161
:101030000E94D603482F50E0B801CE0107960E94C7
:101040005C19CE010E94D6038C0F9D2F911DFC01CF
:101050001782CE01DF91CF911F910F9108958F924A
:101060009F92AF92BF92CF92DF92EF92FF920F9337
:101070001F93CF93DF93CDB7DEB760970FB6F89489
:10108000DEBF0FBECDBF0E94E3026B017C0128EEE4
:1010900033E040E050E00E941618CA01B9012CE389
:1010A00030E040E050E00E9416187F936F93C70134
:1010B000B60120E63AEE40E050E00E94161898E1B2
:1010C000892E912CA12CB12CCA01B901A501940142
:1010D0000E9416187F936F93C701B60120E83EEE79
:1010E00046E350E00E941618CA01B901A501940117
:1010F0000E9416187F936F93C701B60120E03CE56C
:1011000046E255E00E9416183F932F938AE391E040
:101110009F938F938E010F5F1F4F1F930F930E941A
:101120006B19B8018AE593E00E9400080E94CC0682
:1011300088E00E9405068F7063EE7FEF98E0899F3C
:10114000601971091124209122013091230147E097
:10115000429FC001439F900D1124680F791F0FB665
:10116000F894DEBF0FBECDBF77FF02C0695F7F4F2F
:1011700083E0759567958A95E1F7709323016093F5
:10118000220189E393E00E9493030E94CC066FE260
:1011900071E088E193E00E94C3070E94CC0660E6FC
:1011A00070E087EF92E00E9493030E94CC0670E00B
:1011B00060E080E294E00E9493030E94CC066CE41D
:1011C00071E08FEF93E00E9400080E94CC066AE174
:1011D00071E08BE793E00E94C3070E94CC0688EC85
:1011E00080937C0080917A00806880937A0064E12B
:1011F00070E080E090E00E94B00280917A0080640C
:1012000080937A0080917A0086FDFCCF609178000F
:101210007091790090E080E00E9417172EEA37E283
:1012200042EA53E40E94381826EF38E24CE95FE3C3
:101230000E94A5180E941719062E000C770B8CE946
:1012400093E00E9493030E94CC06609199018EED79
:1012500093E00E94C4030E94CC06609198018DEB3C
:1012600093E00E94C4030E94CC0610929901109250
:10127000980160960FB6F894DEBF0FBECDBFDF9128
:10128000CF911F910F91FF90EF90DF90CF90BF9083
:10129000AF909F908F9008952BE043E050E06FEF68
:1012A00080E00E94F10061E571E00E9400080E9468
:1012B000C5062CE043E050E06FEF80E00E94F100B3
:1012C0006DE571E00E9400080E94C50643E051E010
:1012D00064E270E080E50E94EF0748EF50E064E2CE
:1012E00070E081E50E94EF074CEE50E064E270E0B0
:1012F00089E50E94EF0744EE50E064E270E088E583
:101300000E94EF074CED50E064E270E08BE50E9434
:10131000EF0743ED50E064E270E08CE50E94EF07D8
:1013200048EC50E064E270E08DE50E94EF074EEB80
:1013300050E064E270E086E40E94EF0743EB50E087
:1013400064E270E080E60E94EF074CEA50E064E25D
:1013500070E08AE50E94EF074EE950E064E270E039
:1013600087E40E94EF0748E950E064E270E082E51C
:101370000E94EF0741E950E064E270E083E50E94DB
:10138000EF074FE051E06DE070E083E20E94EF076D
:1013900080911D01811102C00C942F080895809145
:1013A000B1018F3F69F423E043E050E06FEF80E04C
:1013B0000E94F1006DE671E00E9400080C94110695
:1013C0000895E3E9F1E08081897F81608083E1EB2A
:1013D000F1E08FEF8283818327E043E050E06FEFFD
:1013E0000E94F1006DE671E00E9400080C94110665
:1013F000FC012481229526952770213011F48781E4
:101400000895211104C007960E941F14089580E0DA
:101410000895CF93DF93EC018E81873409F049C0A2
:101420008C8184FD46C08D818F3209F042C0F894D2
:101430008C81829586958770853009F080C06F8198
:10144000788589859A8560939A0170939B01809332
:101450009C0190939D0180919A0190919B01A09194
:101460009C01B0919D018093850190938601A0938A
:101470008701B09388011092730110927401109249
:1014800075011092760110929E0110929F011092A8
:10149000A0011092A10181E08093800160919A01E6
:1014A00070919B0180919C0190919D010E946C0420
:1014B00078948E81863409F04DC08D818F3209F089
:1014C00049C0CE010E94F80980937B01811108C0B8
:1014D0006AE870E084E992E00E94C3070E94CC06AB
:1014E00080917B01813041F463E870E084E992E00F
:1014F0000E94C3070E94CC0680917B01833041F497
:1015000061E770E084E992E00E94C3070E94CC0684
:1015100080917B018930F1F468E670E084E992E023
:101520000E94C3070E94CC0688E198E00FB6F894A9
:10153000A895809360000FBE90936000FFCF81114B
:1015400005C0CE0107960E943D147DCF60E070E09B
:10155000CB0179CFDF91CF9108952F923F924F9297
:101560005F926F927F928F929F92AF92BF92CF9233
:10157000DF92EF92FF920F931F93CF93DF93CDB73C
:10158000DEB7A3970FB6F894DEBF0FBECDBF809134
:10159000930184FB222720F92BA384FFD6C30E944A
:1015A000E30200916F01109170012091710130915F
:1015B0007201601B710B820B930B613A7B4B8D4068
:1015C0009105A0F00E94E30260936F017093700197
:1015D000809371019093720186E00E940506833228
:1015E00009F49CC089E191E00E94FD0386E08AA392
:1015F000FE0131966F0144EB442E4BE2542E41E143
:10160000642E712C50E0252E50E0352E87E10E948B
:10161000050680FD9AC3FAA1F150FAA3FF2309F44D
:1016200094C321E041E070E060E080E60E948C0518
:10163000182F813220F082EE0E940B0610E021E08C
:10164000412F6EEE75E081E60E948C0560E487E232
:101650000E94CB0581E2EEEEF5E0D60101900D92FD
:101660008A95E1F70C81802F8370823079F6C6016C
:101670000E94D60302FD89E1895F1813C7CF8EEE61
:1016800095E00E94D603A82E8091F2058770F82E6F
:101690001091F3050091EF05E090EE059090F005B4
:1016A0008091B201E81651F08091B101081731F034
:1016B000802F90E06E2D03960E94CD1780919401AB
:1016C0008068809394018091B101981250C2EA2DF4
:1016D000F0E0E251FA4F17828091F20583FF15C0C6
:1016E00091E2EEEEF5E0ADECB5E001900D929A9549
:1016F000E1F7877E80618093D1059092CE050093BB
:10170000CF058DEC95E00E94C5069091F20594FFFF
:101710000CC08EEE95E00E94090A78CF85E00E9409
:101720000506803609F05ECF61CF23E0F212F1CFDB
:101730008091F30521EF280F233008F467CF143090
:1017400009F464CF1830D9F41091930110FF5ECFE3
:101750008EEE95E00E94F8098F3F09F457CF8F5F16
:101760008F3F09F453CF9091B301891708F04ECF02
:1017700011FD4CCF8093B3010093B20147CF1831D4
:1017800059F429E143E050E06FEF802F0E94F1000F
:1017900061E00E94C40320C0193171F4809193016B
:1017A00083FF34CF877F809393018EEE95E00E9474
:1017B000F809809395012ACF1E3109F427CF1D31F6
:1017C00071F42FE143E050E06FEF80E00E94F10000
:1017D00060E07FEF0E9493030E94110617CF2091D3
:1017E000EF052111C0C18D3059F488E198E00FB6A2
:1017F000F894A895809360000FBE90936000FFCF8F
:101800008B3179F48EEE95E00E94F80991E0811118
:1018100001C090E08091B00190FB80F98093B0010D
:10182000F5CE8630A1F49091F5058BA1992321F096
:1018300081E09D3409F080E08093AF0141E050E009
:1018400063E071E08FEA91E00E94BD17DFCE833143
:1018500019F40E94F40EDACE823191F40E94EA0368
:101860004B015C0126E143E050E06FEF80E00E9415
:10187000F100B501A4010E94A8030E94C506C6CECE
:10188000823081F422E043E050E06FEF80E00E947C
:10189000F1004FEF52E063E072E00E94A8030E9463
:1018A000DD06B4CE8130F9F42114310409F4AECE52
:1018B000929596959770953059F46091F5057091D1
:1018C000F6058091F7059091F8050E9400009ECEE4
:1018D000911105C085EF95E00E943D14F6CF60E0C0
:1018E00070E0CB01F2CF8A30E9F48091F5058334C2
:1018F00009F08CCE03E010E06FEFC8010E94CD1715
:101900000F5F1F4F033051E01507B1F72AE043E0A6
:1019100050E06FEF80E00E94F10065E671E00E9408
:101920000008BDCF8C3109F0F4CE8091F5058235E9
:10193000C1F533E0E32EF12CC7010E94B5178F3FAC
:1019400039F19DEF9E0D99838A832CE143E050E0AD
:101950006FEF80E00E94F1008C0162E00E9485033D
:10196000F80184818F71806C8483C8010E94D60342
:10197000482F50E0B601C80107960E945319C801CC
:101980000E94DD0668EC70E080E090E00E94590F54
:10199000FFEFEF1AFF0A23E0E21621E0F20661F6FC
:1019A00035CE863599F52CE143E050E06FEF80E0CD
:1019B0000E94F1008C015EE450937C0066E470E0CC
:1019C00080E090E00E94B00280917A008064809371
:1019D0007A0080917A0086FDFCCFE0907800F0904C
:1019E000790062E0C8010E948503F80184818F714B
:1019F00080668483970150E040E0C301B2010E94F9
:101A00001618F80130872783C80149CF863409F0BA
:101A10005FC02CE143E050E06FEF80E00E94F100F6
:101A20008C01F894409160003091800020918100F9
:101A3000909182008FEF86BB1092850010928400F7
:101A4000109280001092820088E1FDE00FB6F894B9
:101A5000A895809360000FBEF093600080916000B5
:101A6000806480936000A89555E050938100809138
:101A7000600087FFFCCF10928100A89580916000E4
:101A8000886180936000409360007894E0908400C7
:101A9000F090850030938000209381009093820025
:101AA00062E0C8010E948503F80184818F7180661D
:101AB0008483B70190E080E02BE0660F771F881FDA
:101AC000991F2A95D1F720EA36E841E050E097CFF8
:101AD0008D3411F52CE143E050E06FEF80E00E947F
:101AE000F1008C01E0900F06F0901006E114F10473
:101AF00021F483E1E82E86E0F82E62E0C8010E941E
:101B00008503F80184818F7180668483C6018E19F4
:101B10009F099087878378CF853409F077CD2CE1B2
:101B200043E050E06FEF80E00E94F10065E671E075
:101B30000E9400080E94DD0610E000E06FEFC8017F
:101B40000E94CD170F5F1F4F0D39F1E01F07B1F74E
:101B500088E198E00FB6F894A895809360000FBED6
:101B600090936000FFCF8A3109F0D3CD4FCD2FEF96
:101B70009212CEC053E0F512B1C08091930182FF62
:101B800090C0173009F08DC08091B201081709F498
:101B90003DCD0E94E30220918F0130919001409150
:101BA000910150919201621B730B840B950B603174
:101BB00077428105910530F18091930183FB1127D4
:101BC00010F983FD23CD9091B101911136C010928F
:101BD000950180919301877F8093930110919501E6
:101BE0001F3F09F413CD0E94E30260938F017093AD
:101BF000900180939101909392018091B3018113A0
:101C00001093B3010E94E30260938F0170939001DF
:101C100080939101909392010E94E3027370882750
:101C200099270E94B00228E043E050E06FEF802F38
:101C30000E94F1006091B301ACCD88608093930164
:101C40009092950128E143E050E06FEF80E00E9420
:101C5000F10061E00E94C4030E9411060E94E302A9
:101C60004B015C011092F3050E94E30268197909A7
:101C70008A099B09603D77408105910508F0A9CF4D
:101C80001111A7CF0E94AD0AA8958091F205877027
:101C9000833051F711E08091F305893129F310E089
:101CA000E3CF183009F4B2CC1431C1F48091B20101
:101CB000E81214C00E94E3027370882799270E94DB
:101CC000B00225E143E050E06FEF802F0E94F10069
:101CD0006091B2010E94C4030E9411068091B2017A
:101CE000E81294CC8091B101081759F180919301C9
:101CF00082FF27C08EEE95E00E94110623E0F216C7
:101D000009F484CC8091B201E81609F402CD7ECCAE
:101D10008091930182FF7ACC53E0F5120FC01851E5
:101D2000123060F48EEE95E00E94F8098E3F31F09B
:101D300061E0680F8EEE95E00E94C4038EEE95E0A0
:101D40004BCD83E0F812E5CC61CCA3960FB6F894A6
:101D5000DEBF0FBECDBFDF91CF911F910F91FF90DE
:101D6000EF90DF90CF90BF90AF909F908F907F903B
:101D70006F905F904F903F902F900895CF92DF9299
:101D8000EF92FF92CF93DF93D82F0E94E3026B0173
:101D90007C018091F20587608093F205C0E00E948B
:101DA000E3026C197D098E099F09603D774081052A
:101DB000910590F4C11110C0A8950E94DF030E9404
:101DC000AD0A8091F2058770833049F7C1E08091B8
:101DD000F3058D13E3CFE3CF8C2FDF91CF91FF90ED
:101DE000EF90DF90CF9008952FE043E050E06FEF49
:101DF00080E00E94F1006DE671E00E94000862E060
:101E00008DEC95E00E948503EDECF5E084818F7107
:101E1000806C848381E087831086CF010E94C50691
:101E20008FE00E94BE0E22E150E040E06FEF80E0C4
:101E30000E94F10068E671E00E9400080E94C50659
:101E400026E043E050E06FEF80E00E94F1006091F7
:101E5000B2010E94C4030E94DD0686E00E94BE0E0D
:101E60000C944C09CF938091B00181FD20C00E9459
:101E7000F40E8091B00181608093B001C4E02AE14A
:101E800043E050E06FEF80E00E94F10062E00E94CA
:101E9000C4030E94DD068BE10E94BE0E811102C0C8
:101EA000C15069F78091B00182608093B001CF91F9
:101EB00008958F929F92AF92BF92CF92DF92EF924E
:101EC000FF924B015C010E94E3026B017C010E94C6
:101ED000E3026C197D098E099F09681579058A0549
:101EE0009B0530F4A8950E94DF030E94AD0AEFCF56
:101EF000FF90EF90DF90CF90BF90AF909F908F902A
:101F00000895CF92DF92EF92FF920F931F9340912B
:101F10009A0150919B0160919C0170919D0180916B
:101F2000850190918601A0918701B09188014817A1
:101F300059076A077B0751F066E970E080E090E09E
:101F40000E94590F61E088E00E940E020E94E302A5
:101F50006B017C018091810190918201A0918301AC
:101F6000B091840197018601081B190B2A0B3B0BCA
:101F7000D901C801813E9349A440B10540F4809144
:101F80001D01811104C080918001882309F1C09254
:101F90008101D0928201E0928301F09284018091CC
:101FA0008001882399F01092800188E18093EB04EE
:101FB00040919A0150919B0160919C0170919D010B
:101FC00086EE94E00E94A8030E94CC060E942F088F
:101FD00080911D0140917C0150917D0160917E01B5
:101FE00070917F0197018601041B150B260B370B9F
:101FF000B901A80141385E4E6643710510F488238B
:1020000019F1C0927C01D0927D01E0927E01F092A4
:102010007F01882309F4E5C010921D0160917B01C6
:1020200082E694E00E94C4030E94CC0640919A018B
:1020300050919B0160919C0170919D0181E494E01D
:102040000E94A8030E94CC068091770190917801AC
:10205000A0917901B0917A01A7019601281B390B53
:102060004A0B5B0BDA01C90181339547A105B10524
:1020700008F4CFC0C0927701D0927801E092790144
:10208000F0927A0140919E0150919F016091A001D0
:102090007091A1018091730190917401A0917501DB
:1020A000B0917601481759076A077B0779F180914B
:1020B0009E0190919F01A091A001B091A101803E4D
:1020C0009E42A105B10508F099C081E18093EB041F
:1020D00040919E0150919F016091A0017091A101DA
:1020E00086EE94E00E94A8030E94CC0680919E0197
:1020F00090919F01A091A001B091A10180937301E3
:1021000090937401A0937501B093760140919A0168
:1021100050919B0160919C0170919D01809185017E
:1021200090918601A0918701B091880148175907C5
:102130006A077B0709F46DC088E18093EB04409146
:102140009A0150919B0160919C0170919D0186EED6
:1021500094E00E94A8030E94CC06C0909A01D090FF
:102160009B01E0909C01F0909D0180919A019091DB
:102170009B01A0919C01B0919D018093850190935A
:102180008601A0938701B093880182E18093EB04DC
:1021900065E086EE94E00E9485038091EA04806EFB
:1021A0008093EA04C701B6010E94171720E030E0CF
:1021B0004AE754E40E94A5186093ED047093EE047E
:1021C0008093EF049093F00483E08093F10486EE13
:1021D00094E01F910F91FF90EF90DF90CF900C94BF
:1021E000CC0660919A0170919B0180919C01909125
:1021F0009D010E946C040E942F0810CF40919E0107
:1022000050919F016091A0017091A10184E992E039
:1022100069CF1F910F91FF90EF90DF90CF900895BD
:102220001F920F920FB60F9211242F933F934F934B
:102230005F936F937F938F939F93AF93BF93EF932E
:10224000FF9385EB91E00E947501FF91EF91BF91A3
:10225000AF919F918F917F916F915F914F913F913E
:102260002F910F900FBE0F901F9018951F920F92F5
:102270000FB60F9211242F938F939F93EF93FF9399
:10228000E091C501F091C6018081E091CB01F09110
:10229000CC0182FD1BC090818091CE018F5F8F7336
:1022A0002091CF01821741F0E091CE01F0E0EB5494
:1022B000FE4F958F8093CE01FF91EF919F918F916B
:1022C0002F910F900FBE0F901F9018958081F4CF23
:1022D0001F920F920FB60F9211242F933F938F935B
:1022E0009F93AF93BF938091A7019091A801A09174
:1022F000A901B091AA013091A60126E0230F2D3744
:1023000058F50296A11DB11D2093A6018093A70147
:102310009093A801A093A901B093AA018091AB0169
:102320009091AC01A091AD01B091AE010196A11DBB
:10233000B11D8093AB019093AC01A093AD01B0931C
:10234000AE01BF91AF919F918F913F912F910F90CF
:102350000FBE0F901F90189529E8230F0396A11D1B
:10236000B11DD2CF1F920F920FB60F9211242F934F
:102370003F934F935F936F937F938F939F93AF930D
:10238000BF93EF93FF93E0912601F0912701099508
:10239000FF91EF91BF91AF919F918F917F916F913D
:1023A0005F914F913F912F910F900FBE0F901F9013
:1023B00018951F920F920FB60F9211242F933F93EF
:1023C0004F935F936F937F938F939F93AF93BF933D
:1023D000EF93FF93E0912401F09125010995FF917E
:1023E000EF91BF91AF919F918F917F916F915F918D
:1023F0004F913F912F910F900FBE0F901F90189506
:102400001F920F920FB60F9211240F900FBE0F90D4
:102410001F901895CF93DF93FC01108211821282D6
:10242000148215821682DC0117968AE1ED01199259
:102430008A95E9F782E08383DF91CF910895CF9366
:10244000E5EBF1E01382128288EE93E0A0E0B0E0C9
:1024500084839583A683B7838CE291E09183808304
:1024600085EC90E09587848784EC90E09787868759
:1024700080EC90E0918B808B81EC90E0938B828B51
:1024800082EC90E0958B848B86EC90E0978B868B2A
:10249000118E128E138E148E8EEE95E00E940A120B
:1024A0008DEC95E00E940A128CEA95E00E940A12D7
:1024B000ECEAF5E08AE0868315828BE895E00E94DD
:1024C0000A12EBE8F5E082E18683CFE2C5838AE673
:1024D00095E00E940A12EAE6F5E083E18683C5836F
:1024E00089E495E00E940A12E9E4F5E084E186833C
:1024F000C58388E295E00E940A12E8E2F5E08CE1EB
:102500008683C58387E095E00E940A12E7E0F5E044
:102510008EE18683C58386EE94E00E940A12E6EE81
:10252000F4E083E2868381E1858385EC94E00E9478
:102530000A12E5ECF4E088E28683C58384EA94E03D
:102540000E940A12E4EAF4E082E3868383E0858352
:1025500083E894E00E940A12E3E8F4E083E38683D0
:1025600082E0858382E694E00E940A12E2E6F4E0CB
:1025700086E48683C58381E494E00E940A12E1E444
:10258000F4E087E48683C58380E294E00E940A1227
:10259000E0E2F4E080E58683C5838FEF93E00E945C
:1025A0000A12EFEFF3E081E58683C5838EED93E0B9
:1025B0000E940A12EEEDF3E082E58683C5838DEB7F
:1025C00093E00E940A12EDEBF3E083E58683C58376
:1025D0008CE993E00E940A12ECE9F3E088E5868337
:1025E000C5838BE793E00E940A12EBE7F3E089E5ED
:1025F0008683C5838AE593E00E940A12EAE5F3E048
:102600008AE58683C58389E393E00E940A12E9E3A1
:10261000F3E08BE58683C58388E193E00E940A128C
:10262000E8E1F3E08CE58683C58387EF92E00E94C2
:102630000A12E7EFF2E08DE58683C58386ED92E02E
:102640000E940A12E6EDF2E08EE58683C58385EBF3
:1026500092E00E940A12E5EBF2E08FE58683C583E3
:1026600084E992E00E940A12E4E9F2E080E68683BF
:10267000C58383E792E00E940A12E3E7F2E081E675
:102680008683C58382E592E00E940A12E2E5F2E0C9
:1026900083E6868386E28583CF910895789484B516
:1026A000826084BD84B5816084BD85B5826085BD4E
:1026B00085B5816085BD80916E00816080936E00DC
:1026C00010928100809181008260809381008091CE
:1026D000810081608093810080918000816080937F
:1026E00080008091B10084608093B1008091B0003F
:1026F00081608093B00080917A00846080937A003A
:1027000080917A00826080937A0080917A008E7F37
:1027100080937A0080917A00806880937A0010928A
:10272000C100A895E091C501F091C60182E08083C7
:10273000E091C101F091C2011082E091C301F091DA
:10274000C40188E080831092CD01E091C901F0912D
:10275000CA0186E08083E091C701F091C8018081C1
:1027600080618083E091C701F091C8018081886019
:102770008083E091C701F091C801808180688083E7
:10278000E091C701F091C80180818F7D80838091A5
:10279000B0018D7F8093B0010E94B10441E050E010
:1027A00063E071E08FEA91E00E94A5176FEF81E08E
:1027B00090E00E94CD17809194018F7880939401CE
:1027C00010928A01109289018EE191E00E94FD032E
:1027D00082E39FE090939701809396010E94E30229
:1027E0006B017C010E94E3026C197D098E099F092F
:1027F0006838734181059105A8F00E944A03A895A5
:10280000C0E0D0E0A8950E94DF030E94AD0A0E94BC
:10281000810F2097B9F30E946B01882399F30E94DE
:102820000000F0CF0E94DF030E94AD0A8091930167
:1028300082FB882780F9A8958111DFCFD3CFFC01D7
:1028400088279927E89421912032E9F3293010F064
:102850002E30C8F32B3241F02D3239F4689404C085
:102860000E949114820F911D219120532A30C0F3B0
:102870001EF4909581959F4F08951F93FC01992711
:102880008827BC01E89411911032E9F3193010F057
:102890001E30C8F31B3251F01D3249F4689406C053
:1028A0000E947C14610F711D811D911D11911053A7
:1028B0001A30B0F33EF490958095709561957F4FF6
:1028C0008F4F9F4F1F910895FC0105900020E9F75D
:1028D000809590958E0F9F1F0895FB01DC0141505C
:1028E000504048F005900D920020C9F701C01D929C
:1028F00041505040E0F70895592F482F372F262F89
:10290000660F771F881F991F660F771F881F991FF3
:10291000620F731F841F951F660F771F881F991FF3
:1029200008957AE0979F902D879F802D910D112417
:102930000895ABE0B0E0EFE9F4E10C94DF177C011F
:102940003B018A01FC0117821682838181FFC8C185
:10295000CE0101965C01F7019381F30193FD85910E
:1029600093FF81913F01882309F453C1853239F4E3
:1029700093FD859193FF81913F01853229F4B70141
:1029800090E00E948916E7CF912C212C312CFFE199
:10299000F31538F08B3211F190F4803209F1833263
:1029A00029F137FC3CC020ED280F2A3050F536FEC7
:1029B00020C08AE0989E200D1124922E06C08D32F0
:1029C00091F0803371F7689430F8F30193FD8591AD
:1029D00093FF81913F018111DACF21C0689431F8D2
:1029E000689432F8F2CF689433F8EFCF689434F8F3
:1029F000ECCFEAE02E9E200D1124222E689435F8AB
:102A0000E4CF8E3229F436FC04C1689436F8DDCF69
:102A10008C3619F4689437F8D8CF8836B1F2982FED
:102A20009F7D95549330E0F08336A1F18337C1F157
:102A3000833509F063C02801F2E04F0E511CF80104
:102A4000C080D180692D70E036FC02C06FEF7FEF4F
:102A5000C6010E9473164C01689437F882010AC0BF
:102A60000C5F1F4FFFE3F98388248394912C650149
:102A7000E89437F833FE2DC0522C8114910471F57F
:102A8000552009F468CFB70180E290E00E948916D2
:102A90005A94F6CFF801808189830E5F1F4FE4CFEF
:102AA0002801F2E04F0E511CF801C080D180692D41
:102AB00070E036FC02C06FEF7FEFC6010E947E1609
:102AC0004C018201D5CFB70180E290E00E948916C7
:102AD0002A942814190409F0B0F7CECFF60137FC78
:102AE000859137FE81916F01B70190E00E948916B0
:102AF00051105A94F1E08F1A9108BFCF843619F023
:102B0000893609F077C0F80137FE6BC060817181AA
:102B1000828193810C5F1F4FF32DFF763F2E97FF2D
:102B200009C090958095709561957F4F8F4F9F4F0D
:102B3000689437F82AE030E0A5010E94B916C82E43
:102B4000CA188C2C432C36FE0CC0E89440F8C914EB
:102B500040F434FE05C032FC03C0F32DFE7E4F2E40
:102B6000892C44FE95C0FE01EC0DF11D808180335F
:102B700009F087C0242D297E422E842D8870582E7E
:102B800043FC95C040FE8FC09C2C821418F42C0C82
:102B9000922C981844FE91C0B70180E390E00E9407
:102BA000891642FE09C088E790E041FE02C088E530
:102BB00090E0B7010E948916C91408F48AC0CA942B
:102BC000D12C9FEFC91AD90ACA0CDB1CF6018291DD
:102BD0006F01B70190E00E948916AC14BD04B1F7F3
:102BE0004FCF60817181072E000C880B990B0E5F0F
:102BF0001F4F92CFD32CE894D4F82AE030E08537E9
:102C000039F1232D297FD22E8F3601F148F48835F2
:102C1000A9F0F701868197812B96E2E10C94FB17CE
:102C2000803749F08837A9F7D4FE02C06894D2F8FB
:102C300020E130E00DC06894D4F8F6CF34FE03C034
:102C4000822F8660D82E20E132E002C028E030E0FA
:102C5000F801D7FE0FC060817181828193810C5F82
:102C60001F4FA5010E94B916C82ECA183D2CE89422
:102C700037F867CF6081718190E080E00E5F1F4F71
:102C8000F0CF42FC02C0839478CF8394839475CFB5
:102C9000842D867809F471CFF6CFB70180E290E0F9
:102CA0000E94891683948214C0F3512C73CF522C46
:102CB0005818821408F46ECFF8CF842D867809F462
:102CC0007BCF8BE241FE80E247FC8DE2B70190E0D2
:102CD00071CFB70180E390E00E9489169A946CCF7F
:102CE0008FEF9FEF99CFFC0105906150704001106C
:102CF000D8F7809590958E0F9F1F0895FC01615025
:102D0000704001900110D8F7809590958E0F9F1F0D
:102D100008950F931F93CF93DF93182F092FEB0183
:102D20008B8181FD09C01FEF0FEF812F902FDF9165
:102D3000CF911F910F91089582FF14C02E813F8182
:102D40008C819D81281739073CF4E881F981CF01F6
:102D500001969983888310838E819F8101969F833A
:102D60008E83E3CFE885F985812F0995892BA1F31F
:102D7000DACFFA01AA27283051F1203181F1E89405
:102D80006F936E7F6E5F7F4F8F4F9F4FAF4FB1E05E
:102D90003ED0B4E03CD0670F781F891F9A1FA11D59
:102DA000680F791F8A1F911DA11D6A0F711D811D5A
:102DB000911DA11D20D009F468943F912AE0269F1F
:102DC00011243019305D3193DEF6CF010895462F7E
:102DD0004770405D4193B3E00FD0C9F7F6CF462F5F
:102DE0004F70405D4A3318F0495D31FD40524193C8
:102DF00002D0A9F7EACFB4E0A69597958795779585
:102E00006795BA95C9F700976105710508959B010B
:102E1000AC010A2E06945795479537952795BA9594
:102E2000C9F7620F731F841F951FA01D0895E894B2
:102E300009C097FB3EF490958095709561957F4F02
:102E40008F4F9F4F9923A9F0F92F96E9BB279395B0
:102E5000F695879577956795B795F111F8CFFAF4C0
:102E6000BB0F11F460FF1BC06F5F7F4F8F4F9F4FF1
:102E700016C0882311F096E911C0772321F09EE84F
:102E8000872F762F05C0662371F096E8862F70E0B5
:102E900060E02AF09A95660F771F881FDAF7880F8F
:102EA0009695879597F9089597F99F6780E870E060
:102EB00060E008959FEF80EC089500240A941616B0
:102EC000170618060906089500240A941216130618
:102ED000140605060895092E0394000C11F48823A6
:102EE00052F0BB0F40F4BF2B11F460FF04C06F5FC2
:102EF0007F4F8F4F9F4F089557FD9058440F551F98
:102F000059F05F3F71F04795880F97FB991F61F06B
:102F10009F3F79F087950895121613061406551FE2
:102F2000F2CF4695F1DF08C0161617061806991F4E
:102F3000F1CF86957105610508940895E894BB2743
:102F400066277727CB0197F90895DC01CB01FC01B7
:102F5000F999FECF06C0F2BDE1BDF89A319600B4F2
:102F60000D9241505040B8F70895F999FECF92BDA7
:102F700081BDF89A992780B50895DC01A40FB51F8B
:102F80004150504048F0CB01840F951F2E910E9474
:102F9000CE1741505040D0F70895262FF999FECF13
:102FA00092BD81BDF89A019700B4021639F01FBA9C
:102FB00020BD0FB6F894FA9AF99A0FBE08952F9291
:102FC0003F924F925F926F927F928F929F92AF92B9
:102FD000BF92CF92DF92EF92FF920F931F93CF9306
:102FE000DF93CDB7DEB7CA1BDB0B0FB6F894DEBF9D
:102FF0000FBECDBF09942A88398848885F846E84C3
:103000007D848C849B84AA84B984C884DF80EE800C
:10301000FD800C811B81AA81B981CE0FD11D0FB615
:10302000F894DEBF0FBECDBFED010895A1E21A2EC8
:10303000AA1BBB1BFD010DC0AA1FBB1FEE1FFF1F5C
:10304000A217B307E407F50720F0A21BB30BE40BAC
:10305000F50B661F771F881F991F1A9469F76095F3
:103060007095809590959B01AC01BD01CF010895AD
:103070005058BB27AA270E9450180C946B170E9427
:103080005D1738F00E94641720F039F49F3F19F45F
:1030900026F40C945A170EF4E095E7FB0C945417A1
:1030A000E92F0E947C1758F3BA1762077307840749
:1030B000950720F079F4A6F50C949E170EF4E09590
:1030C0000B2EBA2FA02D0B01B90190010C01CA01E2
:1030D000A0011124FF27591B99F0593F50F4503E8D
:1030E00068F11A16F040A22F232F342F4427585F7F
:1030F000F3CF469537952795A795F0405395C9F797
:103100007EF41F16BA0B620B730B840BBAF091504E
:10311000A1F0FF0FBB1F661F771F881FC2F70EC0ED
:10312000BA0F621F731F841F48F4879577956795C0
:10313000B795F7959E3F08F0B0CF9395880F08F0AC
:103140009927EE0F9795879508950E94B9180C94CA
:103150006B170E94641758F00E945D1740F029F425
:103160005F3F29F00C94541751110C949F170C9445
:103170005A170E947C1768F39923B1F3552391F3F2
:10318000951B550BBB27AA2762177307840738F0D6
:103190009F5F5F4F220F331F441FAA1FA9F335D033
:1031A0000E2E3AF0E0E832D091505040E695001CE7
:1031B000CAF72BD0FE2F29D0660F771F881FBB1FA1
:1031C000261737074807AB07B0E809F0BB0B802D7F
:1031D000BF01FF2793585F4F3AF09E3F510578F0AB
:1031E0000C9454170C949F175F3FE4F3983ED4F36C
:1031F000869577956795B795F7959F5FC9F7880F7F
:10320000911D9695879597F90895E1E0660F771FD0
:10321000881FBB1F621773078407BA0720F0621B61
:10322000730B840BBA0BEE1F88F7E09508950E948C
:103230001E196894B1110C949F1708950E94841769
:1032400088F09F5798F0B92F9927B751B0F0E1F067
:10325000660F771F881F991F1AF0BA95C9F714C017
:10326000B13091F00E949E17B1E008950C949E1722
:10327000672F782F8827B85F39F0B93FCCF3869550
:1032800077956795B395D9F73EF4909580957095AD
:1032900061957F4F8F4F9F4F0895EE0FFF1F059051
:1032A000F491E02D0994FB01DC0102C001900D9224
:1032B00041505040D8F70895FB01DC014150504087
:1032C00048F001900D920020C9F701C01D924150B5
:1032D0005040E0F70895AEE0B0E0E1E7F9E10C948A
:1032E000ED170D891E8986E08C831A8309838FEF81
:1032F0009FE79E838D83AE01475E5F4F6F89788D18
:10330000CE0101960E9499142F813885020F131F58
:10331000F80110822E96E4E00C940918F894FFCF7F
:10332000FFFFFF00FCE1A8A8FFCF094F05DF062043
:103330000553044904E1096905DC052904019104E8
:10334000F306E3FFEF02EF02000000009701010126
:103350002E01E4015F013D01510125642025303239
:10336000643A253032643A25303264004155544F76
:1033700000456E657267794D6574657200312E3552
:0E3380002D303037004F4B00322E332E3200EE
:00000001FF
