:100000000C9401040C94C1190C949A190C942904B1
:100010000C9429040C9429040C94E8190C942904D8
:100020000C9429040C9429040C9429040C9429049C
:100030000C9429040C9429040C9429040C9429048C
:100040000C9450190C9429040C941E190C94F81853
:100050000C9429040C9429040C9429040C9429046C
:100060000C9429040C94290400407A10F35A00A03F
:10007000724E18090010A5D4E80000E87648170071
:1000800000E40B54020000CA9A3B000000E1F505B1
:10009000000080969800000040420F000000A086FB
:1000A00001000000102700000000E803000000002D
:1000B0006400000000000A000000000001000000D1
:1000C00000002C76D888DC674F0823DFC1DFAE59EB
:1000D000E1B1B796E5E3E453C63AE651997696E87E
:1000E000E6C28426EB898C9B62ED407C6FFCEFBC02
:1000F0009C9F40F2BAA56FA5F490055A2AF75C932D
:100100006B6CF9676DC11BFCE0E40D47FEF520E662
:10011000B500D0ED902E0300943577050080841E45
:10012000080000204E0A000000C80C333333330FA0
:10013000986E12831141EF8D2114893BE65516CF3D
:10014000FEE6DB18D1844B381BF77C1D901DA4BB49
:10015000E424203284725E228100C9F124ECA1E5FE
:100160003D2754534D3A494E49540A0000000008B7
:10017000000201000003040700000000000000006E
:100180002154534D3A494E49543A54535020464114
:10019000494C0A005453463A5349443A4F4B2C4970
:1001A000443D25750A00215453463A5349443A4682
:1001B00041494C2C49443D25750A0054534D3A4958
:1001C0004E49543A5354415449443D25750A00540C
:1001D000534D3A494E49543A545350204F4B0A001C
:1001E00054534D3A465041523A53544154503D2590
:1001F000750A0054534D3A465041520A0054534D2B
:100200003A49443A5245510A0054534D3A49440A36
:10021000002154534D3A49443A4641494C0A00544E
:10022000534D3A49443A4F4B0A0054534D3A5550B6
:100230004C0A002154534D3A55504C3A4641494CD2
:100240000A0054534D3A55504C3A444757432C4FAB
:100250003D25752C4E3D25750A0054534D3A555099
:100260004C3A4F4B0A0054534D3A52454144593A87
:1002700049443D25752C5041523D25752C44495328
:100280003D25750A002154534D3A52454144593A8F
:1002900055504C204641494C2C53544154500A006F
:1002A0005453463A5444493A54534C0A0054534D1B
:1002B0003A4641494C3A4449530A0054534D3A4650
:1002C00041494C3A434E543D25750A0054534D3A2A
:1002D0004641494C3A52452D494E49540A00215451
:1002E00053463A5254453A4E324E204641494C0A02
:1002F000005453463A5254453A4E324E204F4B0A20
:1003000000215453463A5254453A465041522041F6
:1003100043544956450A00215453463A534E443AF1
:10032000544E520A00536176653A206465627567DF
:100330004C6576656C20746F200068775265626F3B
:100340006F740073686F77454570726F6D4865789C
:1003500000646267332073656E642064756D6D7927
:1003600000646267322073656E6420565F564152A6
:10037000332D3500646267312073656E6420565FEB
:10038000564152350064626720300025735453464D
:100390003A4D53473A53454E442C25752D25752D1E
:1003A00025752D25752C733D25752C633D25752CE4
:1003B000743D25752C70743D25752C6C3D25752C70
:1003C00073673D25752C66743D25752C73743D252A
:1003D000733A25730A004D434F3A5245473A524506
:1003E000510A00214D434F3A50524F3A52433D2556
:1003F000750A006265666F72650064656275674CB8
:100400006576656C206C6576656C206665746368DE
:1004100065642066726F6D20454550524F4D200037
:10042000536176653A2064656275674C6576656CE4
:1004300020746F20300072656164456570726F6D65
:1004400033323A20454550524F4D5F4D4554455249
:100450005F56414C55452000454550524F4D5F4D2C
:10046000455445525F56414C554520746F20646594
:100470006661756C740073657475700053657447BC
:1004800065744D6574657256616C75650048775486
:10049000696D65004462675F52657475726E0044F1
:1004A00062675F4C6576656C0052465F4368616EBB
:1004B0006E656C0050415F4C6576656C0054585F0A
:1004C0005253534900506172656E744E6F646500FB
:1004D000506173736976654E6F646500436F6D702C
:1004E000696C6544617465006D7950726573656E01
:1004F000746174696F6E00416E616C6F674462670E
:10050000004761736D657465720050726573656E46
:10051000742047617300214D434F3A5741493A5285
:10052000433D25750A004E6F76203131203230323E
:10053000322031353A33373A303800524632345F60
:1005400050415F4C4F57006D794865617274426548
:1005500061744C6F6F7000466C7730002D2D2D004C
:1005600049553A20577269746520454550524F4DA0
:100570005F4D455445525F56414C554500466C6FA2
:100580007720746F20686967680020666C6F775405
:100590006F5A65726F4379636C653A200053454E1C
:1005A000445F4652455155454E43592048423A20F2
:1005B00000322E332E320A00207C5F5C2F602C0A22
:1005C0000702200220B287100340012000240222EB
:1005D00010022202022002220022200202202227F0
:1005E000101341010101032220304020305203400A
:1005F0002214020310522402217101001010121063
:100600001222101002240101032203002001010024
:1006100032203712100121322601284032221210D6
:10062000121222432224121001222470C122240F0C
:100630000F5453463A5755523A4D533D256C750A5F
:10064000004D434F3A42474E3A494E4954204F4B92
:100650002C5453503D25750A004D434F3A42474EA6
:100660003A5354500A004D434F3A42474E3A42469D
:10067000520A004D434F3A42474E3A494E495420A0
:100680004E4F44452C43503D524E4E4E412D2D2D44
:100690002C46513D25752C52454C3D25752C564513
:1006A000523D322E332E320A004D434F3A50494DBF
:1006B0003A4E4F4445205245473D25750A00215486
:1006C00053463A4D53473A52454C204D53472C4ED2
:1006D0005245500A005453463A4D53473A524356F6
:1006E0002043420A005453463A4D53473A42430A84
:1006F000005453463A4D53473A4543484F0A002168
:100700005453463A4D53473A504F4E472052454373
:10071000562C494E4143544956450A005453463AD3
:100720004D53473A504F4E4720524543562C485060
:100730003D25750A005453463A4D53473A50494EA9
:100740004745442C49443D25752C48503D25750AA4
:10075000005453463A4D53473A4543484F2052457B
:10076000510A005453463A4D53473A524541442C9E
:1007700025752D25752D25752C733D25752C633D0F
:1007800025752C743D25752C70743D25752C6C3D9C
:1007900025752C73673D25753A25730A00214D4355
:1007A0004F3A5741493A52433D25750A00214D437E
:1007B0004F3A534E443A4E4F4445204E4F542052E8
:1007C00045470A0000000000250028002B0000001B
:1007D0000000240027002A00040404040404040484
:1007E00002020202020203030303030301020408DC
:1007F000102040800102040810200102040810208B
:10080000071A11241FBECFEFD8E0DEBFCDBF12E024
:10081000A0E0B1E0E0E9FDE402C005900D92A63150
:10082000B107D9F724E0A6E1B2E001C01D92A33FD1
:10083000B207E1F714E0C1E0D4E004C02197FE0163
:100840000E94C125C030D107C9F70E94AD1A0C948F
:10085000C6260C94000090E0FC01E451F84F24916E
:100860008852984FFC018491882399F090E0880F7A
:10087000991FFC01E253F84FA591B491FC01EC5390
:10088000F84F859194918FB7F894EC91E22BEC930B
:100890008FBF0895942FEDEAF4E030918002318308
:1008A0008283668325834481487F492B477E448326
:1008B000CF01089580E480937C0080917A00806469
:1008C00080937A0080917A0086FDFCCF8091780039
:1008D000909179000895AF92BF92CF92DF92EF92FC
:1008E000FF920F931F93CF93DF936C017B018B01DA
:1008F000040F151FEB015E01AE18BF08C017D1072A
:1009000059F06991D601ED91FC910190F081E02DB3
:10091000C6010995892B79F7C501DF91CF911F9108
:100920000F91FF90EF90DF90CF90BF90AF90089520
:10093000FC01538D448D252F30E0842F90E0821BE5
:10094000930B541710F0CF96089501970895FC016A
:10095000918D828D981761F0A28DAE0FBF2FB11DC2
:100960005D968C91928D9F5F9F73928F90E008951A
:100970008FEF9FEF0895FC01918D828D981731F0D4
:10098000828DE80FF11D858D90E008958FEF9FEF28
:100990000895FC01918D228D892F90E0805C9F4FFE
:1009A000821B91098F739927089584E892E00E9431
:1009B000C90421E0892B09F420E0822F0895FC016D
:1009C000A48DA80FB92FB11DA35ABF4F2C91848DB0
:1009D00090E001968F739927848FA689B7892C930D
:1009E000A089B1898C91837080648C93938D848D60
:1009F000981306C00288F389E02D80818F7D808363
:100A00000895EF92FF920F931F93CF93DF93EC0122
:100A100081E0888F9B8D8C8D98131AC0E889F989A5
:100A2000808185FF15C09FB7F894EE89FF896083A8
:100A3000E889F98980818370806480839FBF81E029
:100A400090E0DF91CF911F910F91FF90EF9008956B
:100A5000F62E0B8D10E00F5F1F4F0F731127E02E46
:100A60008C8D8E110CC00FB607FCFACFE889F9897E
:100A7000808185FFF5CFCE010E94DF04F1CFEB8DA1
:100A8000EC0FFD2FF11DE35AFF4FF0829FB7F89452
:100A90000B8FEA89FB8980818062CFCF0F931F93F0
:100AA000CF93DF938C01D0E0C0E0F801EC0FFD1F85
:100AB0006491662341F084E892E00E940105892B4D
:100AC00011F02196F2CFCE01DF91CF911F910F91BE
:100AD0000895CF93DF93EC01888D8823B9F0AA891C
:100AE000BB89E889F9898C9185FD03C0808186FDE9
:100AF0000DC00FB607FCF7CF8C9185FFF2CF808138
:100B000085FFEDCFCE010E94DF04E9CFDF91CF91C9
:100B1000089580E090E0892B29F00E94D50481118E
:100B20000C94000008953FB7F8948091460290918C
:100B30004702A0914802B091490226B5A89B05C082
:100B40002F3F19F00196A11DB11D3FBFBA2FA92F4C
:100B5000982F8827BC01CD01620F711D811D911D49
:100B600043E0660F771F881F991F4A95D1F70895B4
:100B70008F929F92AF92BF92CF92DF92EF92FF92AD
:100B80006B017C010E9493054B015C01C114D104EF
:100B9000E104F104B9F00E949305681979098A0902
:100BA0009B09683E73408105910580F321E0C21ADC
:100BB000D108E108F10888EE880E83E0981EA11C98
:100BC000B11CE4CFFF90EF90DF90CF90BF90AF903B
:100BD0009F908F9008952FB7F89460914202709182
:100BE000430280914402909145022FBF08950895D9
:100BF0000895FC01938197706A3108F069E188E0FB
:100C0000689FB0011124692B6383CF0108950F936E
:100C10001F93CF93DF93EC018B0162E00E94F905F3
:100C20008C818F7180648C8318870F83CE01DF9154
:100C3000CF911F910F9108950F931F93CF93DF933F
:100C4000EC018B0162E00E94F9058C818F71806656
:100C50008C8318870F83CE01DF91CF911F910F9165
:100C600008951F93CF93DF93EC01162F61E00E944C
:100C7000F9058C818F7180628C831F83CE01DF9197
:100C8000CF911F910895FC01838186958695869565
:100C90008A3108F089E10895E0913402F09135023B
:100CA000309721F00280F381E02D099408950F938D
:100CB0001F930E94EB05009136021091370220919C
:100CC000380230913902601B710B820B930B1F911C
:100CD0000F9108959C018091340290913502821702
:100CE0009307F1F090913E029F7190933E023093F2
:100CF000350220933402E0913402F09135023097AE
:100D000021F00190F081E02D09950E94EB056093A0
:100D10003602709337028093380290933902089517
:100D200080913E02805E80933E02E5CF8DE091E0AF
:100D30000C946A068EBD00000DB407FEFDCF8EB583
:100D40000895FC0101900020E9F73197AF01481B9D
:100D5000590BBC0184E892E00C946B04CF93DF93B1
:100D60000E944E05EC0183E491E00E94A1068C0FE5
:100D70009D1FDF91CF91089583EF93E00C94AE0611
:100D80008F929F92AF92BF920F931F93CF93DF9357
:100D9000CDB7DEB7A1970FB6F894DEBF0FBECDBFBB
:100DA00019A2423008F44AE08E010F5D1F4F842ED5
:100DB000912CB12CA12CA50194010E949F25E62F16
:100DC000B901CA01EA30F4F4E05DD801EE938D0177
:100DD000232B242B252B79F790E080E0109719F036
:100DE000CD010E94A106A1960FB6F894DEBF0FBEFA
:100DF000CDBFDF91CF911F910F91BF90AF909F908A
:100E00008F900895E95CE1CF0C94A1060F931F9396
:100E1000CF93DF93EC018B0160E00115110539F0F0
:100E2000F80101900020E9F731976E2F601BCE0189
:100E30000E94F9058C818F718C83CE010E9443063C
:100E4000482F50E0B801CE0107960E949426CE01AB
:100E50000E9443068C0F9D2F911DFC011782CE012D
:100E6000DF91CF911F910F9108950F931F93CF930F
:100E7000DF93EC018C81829586958770A9F4CE0171
:100E80000E944306482F50E0BE01695F7F4F8DE40A
:100E900092E00E949426CE010E944306E82FF0E0E3
:100EA000E35BFD4F108209C0813071F48F814AE00D
:100EB0006DE472E090E00E948E1D8DE492E0DF917F
:100EC000CF911F910F910895823031F44AE06DE483
:100ED00072E08F819885EFCF833041F44AE06DE472
:100EE00072E08F8198850E94E71DE7CF843051F42E
:100EF0006F81788589859A852AE04DE452E00E94C9
:100F0000991DDBCF853051F46F81788589859A856D
:100F10002AE04DE452E00E94C51DCFCF10E087309B
:100F200071F42B85293008F028E06F817885898558
:100F30009A850DE412E042E00E94EE1BBECFCE0186
:100F40000E944306181738F5E12FF0E09F01220FA9
:100F5000331FD901A35BBD4FEC0FFD1F8781082E06
:100F6000000C990B44E0959587954A95E1F78F70B1
:100F70008A3068F4805D8C93225B3D4F87818F704F
:100F80008A3038F4805DF90180831F5FD8CF895C97
:100F9000F2CF895CF8CFE82FF0E0EE0FFF1F80CF93
:100FA000CF92DF92EF92FF926B017C0182EA91E097
:100FB0000E943E2499278F2D7E2D6D2D83EA91E08E
:100FC0000E943E24B7018827992784EA91E00E9475
:100FD0003E246F2D77278827992785EA91E0FF9097
:100FE000EF90DF90CF900C943E24CF93DF93C82FE7
:100FF000D62F672F90E083569E4F0E943E24CF5FEE
:101000008C2F90E06D2F83569E4FDF91CF910C94E3
:101010003E24CF93DF93682F70E090E080E04AE0B9
:101020000E94C006EC0183E491E00E94A1068C0FAF
:101030009D1FDF91CF9108958F929F92AF92BF92A3
:10104000CF92DF92EF92FF920E94EB054B015C0181
:101050008091300290913102A0913202B09133021E
:1010600075016401C81AD90AEA0AFB0A81E0809373
:101070002F0210922E02C701B6010E94F7229B0197
:10108000AC0160E070E68AE697E40E94F42420E078
:1010900030E040E251E40E94582360932A027093AA
:1010A0002B0280932C0290932D028092300290921A
:1010B0003102A0923202B0923302809126029091C6
:1010C0002702A0912802B09129020196A11DB11D0D
:1010D0008093260290932702A0932802B0932902BE
:1010E00086E491E00E940407609126027091270235
:1010F00080912802909129024AE00E94C00681E571
:1011000091E00E9404074AE0C701B6010E94C006B0
:101110008DE591E00E940407C0902A02D0902B0236
:10112000E0902C02F0902D02A7019601C701B601B4
:101130000E949A25882381F085E691E00E94A1060D
:1011400083E491E0FF90EF90DF90CF90BF90AF905D
:101150009F908F900C94A10646015701E894B7F830
:101160002FEF3FEF4FE75FE7C501B4010E949A25DB
:1011700081110DC02FEF3FEF4FE75FE7C501B401CD
:101180000E94F22218161CF489E691E0D7CF2FEFC7
:101190003FEF4FE75FE4C701B6010E94952518169F
:1011A0001CF48DE691E0CACF2FEF3FEF4FE75FECE5
:1011B000C701B6010E94F22287FDF3CF20E030E0A4
:1011C000A901C701B6010E94F22287FF09C06DE2A2
:1011D00084E892E00E940105F7FAF094F7F8F094A1
:1011E0002AE037ED43EA5BE3C701B6010E94882499
:1011F0004B015C010E9466256B017C010E94F72275
:101200009B01AC01C501B4010E9487244B015C0124
:101210004AE0C701B6010E94C0066EE284E892E08F
:101220000E94010520E030E040E251E4C501B40134
:101230000E9458234B015C010E9466256B01F12C32
:10124000E12C4AE0C701B6010E94C006C701B60101
:101250000E94F7229B01AC01C501B4010E948724C2
:1012600020E030E040E251E40E9458230E946625CD
:1012700090E080E04AE00E94C00662CFCF93DF9307
:10128000C82F90E083569E4F0E942624D82FCF5F10
:101290008C2F90E083569E4F0E9426249D2FDF9135
:1012A000CF910895BF92CF92DF92EF92FF920F936A
:1012B0001F93CF93DF937B01042FB22E90E59CBD4B
:1012C0001DBC2A98E0E1F0E03197F1F70E949A0600
:1012D000182FE7010150A8F0BB2051F08FEF0E94BA
:1012E0009A06182FE114F104A9F388832196F2CF0E
:1012F0006E018FEFC81AD80A88810E949A06E6010B
:10130000E9CF2A9A80E190E00197F1F7812FDF91F0
:10131000CF911F910F91FF90EF90DF90CF90BF90F2
:101320000895CF93DF931F92CDB7DEB7698320E096
:1013300041E0BE016F5F7F4F0E9452090F90DF9125
:10134000CF9108956FE080E20E94910960910801B9
:101350006F3F19F08AE20E949109299A089521E0CD
:1013600041E070E060E00C94520986E00E94AF0911
:10137000833231F485E00E94AF0991E0803609F0B4
:1013800090E0892F089520E040E070E060E00C9448
:1013900052099F92AF92BF92CF92DF92EF92FF924B
:1013A0000F931F93CF93DF93CDB7DEB729970FB677
:1013B000F894DEBF0FBECDBF80E1C82E912CCE01C8
:1013C00001965C01D12C892D8D0D90E083569E4FA6
:1013D0000E942624182F803120F481E791E00E949A
:1013E000040740E1B501812F90E00E94E71DF5015F
:1013F00001900020E9F731978F010A191B09B80104
:101400006F5F7F4F90E080E00E94C7257C010097CE
:10141000D1F1FC011082B5010E948D26A801B7010F
:1014200084E892E00E946B04E114F10419F0C70112
:101430000E94A81CFFE0DF1621F083E791E00E94E4
:101440000407D39480E1D812BECF980E85E491E0D2
:101450000E94A10683E491E00E94A106CA94C110F3
:10146000B1CF29960FB6F894DEBF0FBECDBFDF9186
:10147000CF911F910F91FF90EF90DF90CF90BF9091
:10148000AF909F90089510E000E0C8CFCF92DF9218
:10149000EF92FF92CF93DF9386E794E00E94AE062F
:1014A00082EA91E00E942624C82F83EA91E00E94FC
:1014B0002624C82E84EA91E00E942624D82F85EAAB
:1014C00091E00E942624D12CF12CE12CFE2CED2C55
:1014D000DC2CCC244D2F50E070E060E0BA015527A1
:1014E0004427C40ED51EE61EF71ECC0ED11CE11CEF
:1014F000F11C90E0B0E0A0E0B82FAA279927882738
:10150000C80ED91EEA1EFB1E2FEFC216D206E20637
:10151000F20689F461EA74E689E090E00E94D0075F
:1015200088E594E00E944E0581EAC82E84E6D82E14
:1015300089E0E82EF12C86E394E00E944E054AE013
:10154000C701B6010E94C00683E491E00E94A10693
:10155000C0922602D0922702E0922802F09229023D
:1015600081EA91E00E9426248A3030F580931D02A2
:101570008AEF93E00E944E0580911D020E940908A7
:1015800082E00E943E09019629F464EF71E082E056
:101590000E94F50780E00E943E09019629F46EEE54
:1015A00071E080E00E94F507DF91CF91FF90EF900E
:1015B000DF90CF900C94C90910921D0280E294E054
:1015C0000E94AE0660911D0281EA91E00E943E24D5
:1015D000CFCF0F931F93CF93DF93EC018B0180E06C
:1015E0006115710519F0CB010E94761D682FCE019F
:1015F0000E94F9058C818F718C83CE010E94430675
:10160000482F50E0B801CE0107960E947F1DCE0101
:101610000E9443068C0F9D2F911DFC011782CE0165
:10162000DF91CF911F910F910895FC0194819295C4
:1016300096959770953029F467817085818592859C
:101640000895911104C0CF0107960C944F1D60E0DE
:1016500070E0CB010895FC01248122952695277026
:10166000213011F487810895211104C007960E944A
:10167000311D089580E00895EF92FF920F931F931C
:10168000CF93DF93CDB7DEB7C857D1090FB6F89423
:10169000DEBF0FBECDBF8E010F571F4FF801E19087
:1016A000F1908F010E94EB054AE00E94C0068AEE8D
:1016B00091E00E9404079801A70168E770E0CE015D
:1016C00001960E94011ECE0101960E94040784E843
:1016D00092E00E946905C858DF4F0FB6F894DEBF4C
:1016E0000FBECDBFDF91CF911F910F91FF90EF9073
:1016F00008959F92AF92BF92CF92DF92EF92FF92A6
:101700000F931F93CF93DF93F82EEB01809180020C
:1017100088838B8100E282FD05C0CB010E944306D5
:1017200007E0080F8091830211E080FD03C08FEF76
:10173000F81210E0209709F4BBC0299880E091E0EE
:101740000197F1F76EE080E20E94910984EC90E04D
:101750000197F1F76F2D8AE20E9491096F2D80E3C6
:101760000E94910981EE0E94C309112321F060E5D6
:1017700084E20E94910920E0402FBE0180EA0E948D
:101780005209299AD12CC12C8FEF0E94C309807372
:1017900049F49FEFC916D90629F0A8958FEFC81A0A
:1017A000D80AF2CF299860E787E20E949109082FB2
:1017B00084FF03C081EE0E94C309112321F06FE56D
:1017C00084E20E9491090E94A20905FD73C0012FC5
:1017D0008C818770833039F48D8125E7A22E21E03A
:1017E000B22E813121F0CE010E9435075C0190E8D4
:1017F000C92E91E0D92E002321F08DE7C82E81E07B
:10180000D82E80913F028F70982EEB80E2FAEE2462
:10181000E0F8CE010E9443069C81F92FF295F695DF
:10182000F770ED8197707E816A815881498125E842
:1018300031E0111106C027E831E0002311F025E462
:1018400031E0BF92AF92DF92CF921F929F921F9290
:10185000EF921F928F931F92FF931F92EF931F920D
:101860009F931F927F931F926F931F92FF921F92DD
:101870005F931F924F933F932F938BE893E09F9337
:101880008F930E943C0B8DB79EB74E960FB6F8947F
:101890009EBF0FBE8DBF802FDF91CF911F910F9103
:1018A000FF90EF90DF90CF90BF90AF909F90089502
:1018B00000E08ECF01E08CCF0F931F93CF93DF9387
:1018C0008C01FC01828190913E0290FF12C08F3FFB
:1018D00009F443C081E093E09F938F930E943C0BF7
:1018E0000F900F90C0E08C2FDF91CF911F910F913F
:1018F0000895D09181028823D9F08F3F71F1B8010A
:101900000E94790BC82F882349F081EF92E09F93C2
:101910008F930E943C0B0F900F90E5CF8EED92E0DD
:101920009F938F930E943C0BD09181020F900F9058
:10193000B8018D2F0E94790BC82F809181028D13E1
:10194000D2CF80913F02C1110AC091E0980F9F70E1
:10195000807F892B80933F02C6CFDFEFE9CF807F66
:1019600080933F02C1E0BFCF20913E0222FD0C9444
:101970005C0C87E193E09F938F930E943C0B0F9048
:101980000F9080E00895CF92DF92EF92FF92CF9375
:10199000DF930E9457066B017C0126E143E050E093
:1019A0006FEF80E00E944A04EC0164E00E94F905B8
:1019B0008C818F71806A8C83CF82D886E986FA8683
:1019C000CE01DF91CF91FF90EF90DF90CF900C94FC
:1019D000B40CCF93DF93262FEA0150E040E0682F4C
:1019E00080E00E944A04BE010E94E90ADF91CF9183
:1019F0000C94B40CFC018091800281839481907FCF
:101A00009160948380914C0280FF03C0CF010C94BD
:101A1000B40C8DEA97E09F938F930E943C0B0F903C
:101A20000F9080E00895CF93FC012681263441F485
:101A3000248124FD03C025812F32B1F1CF91089577
:101A4000273409F0A4C0248124FDF8CF25812F324A
:101A5000A9F70E94150B60932602709327028093CA
:101A600028029093290289E891E00E94040760917E
:101A700026027091270280912802909129024AE063
:101A80000E94C00683E491E00E94A10681E0809359
:101A90002201609126027091270280912802909184
:101AA0002902CF910C94D0070E942B0B80931D022A
:101AB000811108C065E873E083E693E00E94E90ABB
:101AC0000E94FA0C80911D02813041F464E773E0BA
:101AD00083E693E00E94E90A0E94FA0C80911D02BD
:101AE000823041F461E673E083E693E00E94E90A04
:101AF0000E94FA0C80911D02833041F461E573E08D
:101B000083E693E00E94E90A0E94FA0C80911D028C
:101B1000843061F463E473E083E693E00E94E90AB1
:101B20000E94FA0C0E94C90910921D0280911D02A8
:101B3000853029F488E780931E0210921D02C0911F
:101B40001D02C93099F46AE373E083E693E00E94D2
:101B5000E90A0E94FA0C88E198E00FB6F894A8957B
:101B6000809360000FBE90936000FFCFC43008F0F8
:101B700065CF85E293E00E944E058C2F0E940908F4
:101B800060911D0281EA91E0CF910C943E242230B5
:101B900009F054CF248124FD51CF2581283139F01B
:101BA000293109F04BCF0E94150B82E003C00E943F
:101BB000150B80E00E94F50788E780931E023ECF58
:101BC0000C94B40C2BE043E050E06FEF80E00E94F7
:101BD0004A0460EA71E00E9406070E94B40C2CE0FF
:101BE00043E050E06FEF80E00E944A046AEA71E04F
:101BF0000E9406070E94B40C8AE095E00E94AE069F
:101C000041E055E065E270E081E00E94E90C47EFB9
:101C100054E067E170E082E00E94E90C88EE94E015
:101C20000E94AE0681E0809323024CED54E064E212
:101C300070E089E50E94E90C40ED54E064E270E058
:101C400080E50E94E90C45EC54E064E270E081E537
:101C50000E94E90C4DEB54E064E270E08BE50E94D9
:101C6000E90C44EB54E064E270E08CE50E94E90C7E
:101C700049EA54E064E270E08DE50E94E90C4FE926
:101C800054E064E270E086E40E94E90C44E954E028
:101C900064E270E080E60E94E90C4DE854E064E202
:101CA00070E08AE50E94E90C4CE754E064E270E0E1
:101CB00087E40C94E90C2FE043E050E06FEF80E004
:101CC0000E944A0465E471E00E94060762E08DEA22
:101CD00094E00E94F905EDEAF4E084818F71806C54
:101CE000848381E087831086CF010E94B40C8FE04B
:101CF0000E94AE1121E150E040E06FEF80E00E94D1
:101D00004A0462EB71E00E9406070E94B40C26E0D0
:101D100043E050E06FEF80E00E944A04609181024E
:101D20000E9431060E94E00D86E00E94AE110C94E4
:101D3000E20D2F923F924F925F926F927F928F921D
:101D40009F92AF92BF92CF92DF92EF92FF920F934A
:101D50001F93CF93DF93CDB7DEB7A4970FB6F89458
:101D6000DEBF0FBECDBF36E0E32E9E012F5F3F4F9B
:101D7000190140EA842E46E8942EAA24A394B12C9B
:101D800044244A9452E0552E53E0652E752C87E189
:101D90000E94AF0980FDA6C2EA94EE2009F4A2C217
:101DA00021E041E070E060E080E60E945209182FD7
:101DB000813220F082EE0E94C30910E021E0412F21
:101DC0006EEC74E081E60E94520960E487E20E94B2
:101DD000910981E2EEECF4E0D10101900D928A9537
:101DE000E1F70C81802F8370823089F6C1010E9457
:101DF000430602FD89E1895F1813C9CF8EEC94E098
:101E00000E9443068AA30091D20407701091D30464
:101E1000F090CF04D090CE04C090D004033021F4D1
:101E200085E791E0113121F08EEC94E00E943507B6
:101E3000FAA1EF2FF0E0FCA3EBA39F938F93809187
:101E4000D10482FB882780F91F928F931F922AA1C9
:101E50002F938091D2048295869587701F928F93DD
:101E60001F921F931F920F938091D4041F928F9300
:101E70001F92CF921F92DF921F92FF9283E697E00C
:101E80009F938F930E943C0B80913F0280688093C8
:101E90003F020FB6F894DEBF0FBECDBF8091800227
:101EA000C812DFC1EBA1FCA1E253FB4F1782809166
:101EB000D20483FF21C081E597E09F938F930E9416
:101EC0003C0B81E2EEECF4E0ADEAB4E001900D925F
:101ED0008A95E1F78091B104877E80618093B10497
:101EE000809180028093AE04F092AF048DEA94E07A
:101EF0000E94B40C0F900F908091D20484FDA8C171
:101F0000033009F0A0C18091D30491EF980F933072
:101F100008F43DCF143009F43ACF183109F58EECAE
:101F200094E00E942B0B1F928F931F92FF9285E3E8
:101F300097E09F938F930E943C0B29E143E050E090
:101F40006FEF8F2D0E944A0461E00E9431060E94CB
:101F50005C0C0F900F900F900F900F900F9017CF79
:101F6000193109F580913E0283FF16C0877F809367
:101F70003E028EEC94E00E942B0B809340021F9255
:101F80008F938CE197E09F938F930E943C0B0F906F
:101F90000F900F900F90FBCE8FEF96E09F938F9353
:101FA0000E943C0B9CC11E3109F4F1CE1D3171F42D
:101FB0002FE143E050E06FEF80E00E944A0460E0D0
:101FC0007FEF0E9407060E945C0CE1CE9091CF0447
:101FD000911136C18D3059F488E198E00FB6F8942C
:101FE000A895809360000FBE90936000FFCF8B3167
:101FF000A9F48EEC94E00E942B0B91E0811101C0BA
:1020000090E080914C0290FB80F980934C021F92EB
:102010009F9329EA36E03F932F93B7CF863099F408
:102020009091D50481E0992319F09D3409F080E066
:1020300080934B0241E050E063E071E08BE492E07A
:102040000E942E24A4CE833119F40E945B0E9FCEF1
:10205000823119F40E94C30C9ACE8230C1F422E07E
:1020600043E050E06FEF80E00E944A048C0164E09E
:102070000E94F905F80184818F71806A8483478208
:10208000508661867286C8010E94E00D80CE813044
:1020900061F420E030E0232B09F479CE8EEC94E05B
:1020A0000E94150B0E94000072CE8A3009F46FCE98
:1020B0008C3109F0C8C08091D504823509F467CE0F
:1020C000863559F52CE143E050E06FEF80E00E9447
:1020D0004A048C018EE480937C0066E470E080E02A
:1020E00090E00E94B80580917A00806480937A0025
:1020F00080917A0086FDFCCF2091780030917900A4
:1021000050E040E064EB7BE281E190E00E949F259B
:10211000B901C8010E941C06B7CF863409F053C02C
:102120002CE143E050E06FEF80E00E944A048C0114
:10213000F89440916000309180002091810090914E
:1021400082008FEF86BB109285001092840010925F
:1021500080001092820088E15DE00FB6F894A895A7
:10216000809360000FBE5093600080916000806497
:1021700080936000A89585E0809381008091600045
:1021800087FFFCCF10928100A89580916000886144
:102190008093600040936000789460918400709117
:1021A000850030938000209381009093820090E01E
:1021B00080E02BE0660F771F881F991F2A95D1F7C3
:1021C000A5019401A3CF8D34A1F42CE143E050E0AC
:1021D0006FEF80E00E944A042091EF043091F004F8
:1021E0002115310511F423EF34E0B101621B730BAB
:1021F00091CF853409F0CBCD2CE143E050E06FEF77
:1022000080E00E944A046DE771E00E9406070E9488
:10221000E00D10E000E06FEFC8010E943E240F5F68
:102220001F4F0D3931E01307B1F788E198E00FB681
:10223000F894A895809360000FBE90936000FFCF44
:102240008A3109F4A4CD8EEC94E00E94130D9FCD49
:1022500081EF96E09F938F930E943C0B0F900F901D
:10226000F2CFFFEF8EEB96E0CF1298CE25EE36E060
:102270003F932F930E943C0B0F900F90033009F572
:1022800080913E0282FF03C0173009F480CD1431E3
:1022900009F07DCD80918102D81279CD0E94EB05A5
:1022A0007370882799270E94B80525E143E050E024
:1022B0006FEF8F2D0E944A04609181020E943106C7
:1022C00082CE80918102D81262CDE5EDF6E0FF93D7
:1022D000EF930E943C0B8EEC94E00E94130D0F9044
:1022E0000F9055CDA4960FB6F894DEBF0FBECDBFAC
:1022F000DF91CF911F910F91FF90EF90DF90CF90E2
:10230000BF90AF909F908F907F906F905F904F9015
:102310003F902F90089580911702882361F01F92BB
:102320008F9383EE93E09F938F930E943C0B0F90CB
:102330000F900F900F90809117028F5F809317027C
:10234000A8950E944C0680913E0284FD0E94990E41
:10235000809117028150809317020895CF92DF92E7
:10236000EF92FF92CF93DF93D82F80914A02882378
:1023700061F01F928F938DE997E09F938F930E9456
:102380003C0B0F900F900F900F9080914A028F5F3F
:1023900080934A020E94EB056B017C018091D2047C
:1023A00087608093D204C0E00E94EB056C197D0920
:1023B0008E099F09603D77408105910578F4C11130
:1023C0000DC00E948B118091D2048770833061F719
:1023D000C1E08091D3048D13E6CFE6CF80914A020D
:1023E000815080934A028C2FDF91CF91FF90EF9024
:1023F000DF90CF9008958F929F92AF92BF92CF922D
:10240000DF92EF92FF924B015C0180914A02882398
:1024100061F01F928F9386E195E09F938F930E94C6
:102420003C0B0F900F900F900F9080914A028F5F9E
:1024300080934A020E94EB056B017C010E94EB0530
:102440006C197D098E099F09681579058A059B0518
:1024500018F40E948B11F2CF80914A028150809330
:102460004A02FF90EF90DF90CF90BF90AF909F9087
:102470008F9008958F929F92AF92BF92CF92DF92EA
:10248000EF92FF920F931F93CF93DF93CDB7DEB7F9
:1024900060970FB6F894DEBF0FBECDBF0E945A04FE
:1024A0008C0180E00E943E097C0182E00E943E098E
:1024B0006C0137E0B32E0E945A04080F191FBA941A
:1024C000B110F9CF23E0169507952A95E1F7809191
:1024D0001F01909120018017910720F01093200197
:1024E00000931F0180911B0290911C02081719078D
:1024F00020F010931C0200931B0280911A02882383
:1025000039F00E151F0520F40E941C0810921A02C3
:1025100080911A02811106C0C016D10618F481E01C
:1025200080931A02809118029091190208171907D6
:1025300009F446C09801281B390B2230310508F4F4
:102540003FC088EB91E00E940407B80190E080E072
:102550004AE00E94C00689EC91E00E940407609165
:1025600018027091190290E080E04AE00E94C006D3
:1025700085ED91E00E94040760911A0270E090E0FE
:1025800080E04AE00E94C00684EE91E00E940407C9
:10259000B60190E080E04AE00E94C0068CEE91E037
:1025A0000E940407B70190E080E04AE00E94C00664
:1025B00083E491E00E94A10610931902009318028F
:1025C00080911D02882309F452C0813081F48CE18E
:1025D00080932603B80181E293E00E941C060E94CA
:1025E000FA0C62E370E080E090E00E94FB118091C1
:1025F0001D02823051F58AE18093260360911F010C
:102600007091200181E293E00E941C060E94FA0C66
:102610008BE18093260360911B0270911C0281E282
:1026200093E00E941C060E94FA0C8CE18093260322
:10263000B80181E293E00E941C060E94FA0C62E35A
:1026400070E080E090E00E94FB1180911D028330D9
:1026500041F40E941C0860E47FE180E090E00E9469
:10266000FB116CE271E080E090E00E94FB110E949F
:10267000EB0520912302222309F48DC200911F0251
:102680001091200220912102309122026B017C01E5
:10269000C01AD10AE20AF30A9701860101331547ED
:1026A0002105310528F420912201222309F4DAC002
:1026B00060931F0270932002809321029093220264
:1026C0006091210111E0160F1093210180911E02EB
:1026D0008F5F80931E0280912E028F5F80932E0267
:1026E0008DE995E00E944E05612F70E090E080E05A
:1026F0004AE00E94C0068AE895E00E944E0580915B
:102700002E020E94090880912F02882309F47DC0BF
:1027100010922F02C0902602D0902702E09028024B
:10272000F090290264E08BE694E00E94F905809124
:102730006F048F71806A80936F04C0927204D0928C
:102740007304E0927404F09275048BE694E00E94A6
:10275000FA0CC0902602D0902702E0902802F09058
:10276000290283E28093470365E082E493E00E94BC
:10277000F90580914603806E80934603C701B60138
:102780000E94F72220E030E048EC52E40E94F4245A
:102790006093490370934A0380934B0390934C03D7
:1027A00082E080934D0382E493E00E94FA0CC09093
:1027B0002A02D0902B02E0902C02F0902D0220E013
:1027C00030E048E952E4C701B6010E94F22287FFD7
:1027D000F5C182E28093470365E082E493E00E94C2
:1027E000F90580914603806E80934603C0924903A9
:1027F000D0924A03E0924B03F0924C0381E0809325
:102800004D0382E493E00E94FA0C80912201882318
:1028100049F184EF91E00E94A10683E491E00E94D7
:10282000A10610922201C0902602D0902702E090CB
:102830002802F090290264E08BE694E00E94F905FA
:1028400080916F048F71806A80936F04C0927204CC
:10285000D0927304E0927404F09275048BE694E0D5
:102860000E94FA0C809121018A3008F4B4C01092C1
:1028700021010E94C30C87E495E00E94AE060E94ED
:10288000EB056B017C0128EE33E040E050E00E9454
:102890009F25CA01B9012CE330E040E050E00E94DE
:1028A0009F257F936F93C701B60120E63AEE40E083
:1028B00050E00E949F2598E1892E912CA12CB12CEB
:1028C000CA01B901A50194010E949F257F936F93CE
:1028D000C701B60120E83EEE46E350E00E949F2586
:1028E000CA01B901A50194010E949F257F936F93AE
:1028F000C701B60120E03CE546E255E00E949F2575
:102900003F932F938DEF91E09F938F938E010F5FF5
:102910001F4F1F930F930E94A326B80187EE93E0E9
:102920000E9406070E94FA0C88E00E94AF098F708F
:1029300063EE7FEF98E0899F60197109112420915F
:102940001D0130911E0147E0429FC001439F900D41
:102950001124680F791F0FB6F894DEBF0FBECDBFEC
:1029600077FF02C0695F7F4F83E0759567958A9511
:10297000E1F770931E0160931D0186EC93E00E94C5
:1029800007060E94FA0C6BE375E085EA93E00E946B
:10299000E90A0E94FA0C60E670E084E893E00E9485
:1029A00007060E94FA0C70E060E08AE494E00E945E
:1029B00007060E94FA0C6FE072E089E294E00E9440
:1029C00006070E94FA0C66E275E088E094E00E9437
:1029D000E90A0E94FA0C80911E02883708F4A1C00F
:1029E00010921E0280E695E00E94AE0660912602DB
:1029F0007091270280912802909129020E94D007AD
:102A000060911D028CE894E00E9431060E94FA0C4D
:102A1000C0902602D0902702E0902802F090290270
:102A200064E08BE694E00E94F90580916F048F7159
:102A3000806A80936F04C0927204D0927304E09213
:102A40007404F09275048BE694E00E94FA0CC09036
:102A50002602D0902702E0902802F090290283E21B
:102A60008093470365E082E493E00E94F90580913A
:102A70004603806E80934603C701B6010E94F72289
:102A800020E030E048EC52E40E94F42460934903D3
:102A900070934A0380934B0390934C0382E080939E
:102AA0004D0382E493E00E94FA0C88E180932603B0
:102AB00080E00E943E09BC0181E293E00E941C0676
:102AC0000E94FA0C89E18093260382E00E943E096D
:102AD000BC0181E293E00E941C060E94FA0C8AE18C
:102AE0008093260360911F017091200181E293E0A1
:102AF0000E941C060E94FA0C8BE1809326036091D1
:102B00001B0270911C0281E293E00E941C060E944D
:102B1000FA0C6CE575E083E693E00E94E90A0E94F6
:102B2000FA0C80912E028430B0F110922E02109295
:102B30002A0210922B0210922C0210922D0267E5AD
:102B400075E083E693E00E94E90A0E94FA0C82E2B3
:102B500080934703C0902A02D0902B02E0902C0271
:102B6000F0902D0265E082E493E00E94F9058091E7
:102B70004603806E80934603C0924903D0924A0375
:102B8000E0924B03F0924C0381E080934D0382E48A
:102B900093E00E94FA0C60960FB6F894DEBF0FBE69
:102BA000CDBFDF91CF911F910F91FF90EF90DF90FC
:102BB000CF90BF90AF909F908F9008956DE775E094
:102BC00083E693E00E94E90A1ECECF9380914C02E7
:102BD00081FD28C00E945B0E86ED93E09F938F934A
:102BE0000E943C0B80914C02816080934C020F90BC
:102BF0000F90C4E02AE143E050E06FEF80E00E94D4
:102C00004A0462E00E9431060E94E00D8BE10E94BE
:102C1000AE11811102C0C15069F780914C028260EF
:102C200080934C02CF9108950F931F930E945706F3
:102C300020913F0220772037B9F000E117E220E031
:102C400030E0061717072807390798F48CEC92E054
:102C50009F938F930E943C0B0F900F9083E291E023
:102C60001F910F910C946A0600E61AEE20E030E006
:102C7000E8CF1F910F91089580913F02982F907790
:102C8000903759F0982F92959F709F5F977092950B
:102C9000907F8F78892B80933F0280913F028295AD
:102CA00087701F928F938BEB92E09F938F930E947C
:102CB0003C0B80913E028B7F8F7E80933E028DEA9B
:102CC00092E09F938F930E943C0B80EA92E09F9347
:102CD0008F930E943C0B29988DB79EB708960FB62C
:102CE000F8949EBF0FBE8DBF6CE080E20C949109FA
:102CF00080913F028F70863068F085E892E09F9364
:102D00008F930E943C0B80913F02807F80933F0213
:102D10000F900F900895809182021F928F9380915F
:102D200081021F928F93809180021F928F9386E67B
:102D300092E09F938F930E943C0B80913E028460AF
:102D400080933E0280913F02807880933F02E09121
:102D50002402F09125028DB79EB708960FB6F8941D
:102D60009EBF0FBE8DBF309709F0099408958091E2
:102D700040028F3F81F10E94EB0560933A0270930D
:102D80003B0280933C0290933D028AE592E09F9340
:102D90008F930E943C0B90914002809182020F9091
:102DA0000F909817A1F01F929F931F928F9382E428
:102DB00092E09F938F930E943C0B809140028093FE
:102DC00082020F900F900F900F900F900F9089E15B
:102DD00091E00C946A060E945706613D7740810598
:102DE0009105B8F080913E02803618F485E191E0BB
:102DF000F0CF83E392E09F938F930E943C0B8091EE
:102E00003E02877F80933E020F900F9081E191E018
:102E1000E0CF08958AE292E09F938F930E943C0B4B
:102E20008FEF80934002EEE3F2E080818860808340
:102E300028E143E050E06FEF80E00E944A0461E047
:102E40000E9431060F900F900C945C0C80918002D0
:102E50008F3F61F08FE192E09F938F930E943C0B34
:102E60000F900F9085E191E00C946A060E9457063E
:102E7000613D77408105910590F080913E0280365A
:102E800018F48DE091E0F0CF81E192E09F938F9371
:102E90000E943C0B0F900F9089E091E0E5CF0895E0
:102EA00089E092E09F938F930E943C0B0F900F90CC
:102EB000809180028F3FA9F48DEF91E09F938F93D3
:102EC0000E943C0B23E043E050E06FEF80E00E9463
:102ED0004A0465E471E00E9406070F900F900C947D
:102EE0005C0C0895CF93DF9383EF91E09F938F93D2
:102EF0000E943C0BCEE3D2E088818B7F8D7F88835C
:102F00001F921F9280EE91E09F938F930E943C0B43
:102F100088818E7F8883E0E8F2E081E082831182FD
:102F20000F900F900F900F900F900F9060E081E046
:102F300090E0DF91CF910C943E24CF93219A229A76
:102F400029982A9ACFB7F89480911602811146C029
:102F500082EE97E0FC01249146EF57E0FA013491AC
:102F6000E22FF0E0EE0FFF1FE253F84FA591B4916E
:102F70002C91322321F5E6E7F1E02491FA01449106
:102F8000FC0194919923D9F0222359F0233009F4BC
:102F900071C008F064C0213009F472C0223009F415
:102FA00073C0E92FF0E0EE0FFF1FEC53F84FA5912F
:102FB000B4918FB7F8949C91492B4C938FBF8AE0C2
:102FC0000E942B048CB580618CBD8CB580648CBD57
:102FD0008DE00E942B048BE00E942B04809116024E
:102FE0008F5F80931602CFBF29986EE080E20E9427
:102FF000910984E293E20197F1F763E083E20E9492
:1030000091096FE584E20E94910960E685E20E94E1
:10301000910963E286E20E94910964E08DE30E94D7
:1030200091098DE10E94AF09843041F063E780E5AA
:103030000E94910964E08DE30E9491090E94B50904
:1030400081112FC080E891E09F938F930E943C0BE9
:103050000F900F9089E091E0CF910C946A06273091
:10306000B1F02830D1F0243009F09BCF809180005E
:103070008F7D03C0809180008F778093800091CFF7
:1030800084B58F7784BD8DCF84B58F7DFBCF809144
:10309000B0008F778093B00084CF8091B0008F7D97
:1030A000F9CF62E082E20E94910960E081E20E9431
:1030B000910963E08CE30E9491098FEF80930301F3
:1030C00020E045E063E071E08BE20E94520920E0DD
:1030D00045E063E071E08AE20E94520920E045E0A9
:1030E00063E071E080E30E94520982EE0E94C3090E
:1030F00081EE0E94C30960E787E20E9491098FEC8C
:1031000091E09F938F930E943C0B80913E028061DF
:1031100080933E02809183028E7F809383021F9270
:10312000C6E6CF938BEB91E09F938F930E943C0B6D
:10313000C093800266E690E080E00E943E24C09149
:1031400080020F900F900F900F900F900F90CF3F35
:1031500009F18FEF8C0F8E3F00F5C093080163E0FB
:1031600082E20E94910961E081E20E9491090E943D
:10317000A2096C2F90E080E00E943E241F92CF9322
:1031800084E991E09F938F930E943C0B0F900F90E6
:103190000F900F9081E191E05FCF1F921F9286EA1E
:1031A00091E09F938F930E943C0B0F900F900F9094
:1031B0000F9050CF82E691E09F938F930E943C0B3B
:1031C000EEE3F2E08081877F8F7E808310923A0267
:1031D00010923B0210923C0210923D020F900F9011
:1031E00044E050E070E060E080E892E00C94162447
:1031F0001F920F920FB60F9211242F933F934F936C
:103200005F936F937F938F939F93AF93BF93EF934E
:10321000FF9384E892E00E94DF04FF91EF91BF9159
:10322000AF919F918F917F916F915F914F913F915E
:103230002F910F900FBE0F901F9018951F920F9215
:103240000FB60F9211242F938F939F93EF93FF93B9
:10325000E0919402F09195028081E0919A02F091C0
:103260009B0282FD1BC0908180919D028F5F8F73B6
:1032700020919E02821741F0E0919D02F0E0EC5710
:10328000FD4F958F80939D02FF91EF919F918F91BC
:103290002F910F900FBE0F901F9018958081F4CF43
:1032A0001F920F920FB60F9211242F933F938F937B
:1032B0009F93AF93BF938091420290914302A0915C
:1032C0004402B09145023091410226E0230F2D3790
:1032D00058F50296A11DB11D209341028093420230
:1032E00090934302A0934402B0934502809146021A
:1032F00090914702A0914802B09149020196A11D08
:10330000B11D8093460290934702A0934802B09368
:103310004902BF91AF919F918F913F912F910F9053
:103320000FBE0F901F90189529E8230F0396A11D3B
:10333000B11DD2CF1F920F920FB60F9211242F936F
:103340003F934F935F936F937F938F939F93AF932D
:10335000BF93EF93FF93E0912901F0912A01099522
:10336000FF91EF91BF91AF919F918F917F916F915D
:103370005F914F913F912F910F900FBE0F901F9033
:1033800018951F920F920FB60F9211242F933F930F
:103390004F935F936F937F938F939F93AF93BF935D
:1033A000EF93FF93E0912701F09128010995FF9198
:1033B000EF91BF91AF919F918F917F916F915F91AD
:1033C0004F913F912F910F900FBE0F901F90189526
:1033D0001F920F920FB60F9211240F900FBE0F90F5
:1033E0001F901895CF93DF93FC01108211821282F7
:1033F000148215821682DC0117968AE1ED0119927A
:103400008A95E9F782E08383DF91CF910895CF9386
:10341000E4E8F2E01382128288EE93E0A0E0B0E0EC
:1034200084839583A683B78385E391E0918380832A
:1034300085EC90E09587848784EC90E09787868779
:1034400080EC90E0918B808B81EC90E0938B828B71
:1034500082EC90E0958B848B86EC90E0978B868B4A
:10346000118E128E138E148E8EEC94E00E94F2193F
:103470008DEA94E00E94F2198CE894E00E94F2191F
:10348000ECE8F4E086E48683CFE2C5838BE694E043
:103490000E94F219EBE6F4E087E48683C5838AE4B0
:1034A00094E00E94F219EAE4F4E080E58683C583A3
:1034B00089E294E00E94F219E9E2F4E081E5868372
:1034C000C58388E094E00E94F219E8E0F4E089E521
:1034D0008683C58387EE93E00E94F219E7EEF3E05E
:1034E0008AE58683C58386EC93E00E94F219E6ECB8
:1034F000F3E08BE58683C58385EA93E00E94F219A9
:10350000E5EAF3E08CE58683C58384E893E00E94D6
:10351000F219E4E8F3E08DE58683C58383E693E062
:103520000E94F219E3E6F3E080E68683C58382E435
:1035300093E00E94F219E2E4F3E081E0868383E203
:10354000858381E293E00E94F219E1E2F3E082E0F8
:10355000868388E18583CF910895789484B58260CD
:1035600084BD84B5816084BD85B5826085BD85B527
:10357000816085BD80916E00816080936E001092A5
:103580008100809181008260809381008091810020
:1035900081608093810080918000816080938000B1
:1035A0008091B10084608093B1008091B00081600F
:1035B0008093B00080917A00846080937A0080913B
:1035C0007A00826080937A0080917A008E7F809367
:1035D0007A0080917A00806880937A001092C1000E
:1035E000A895E0919402F091950282E08083E091A9
:1035F0009002F09191021082E0919202F091930278
:1036000088E0808310929C02E0919802F0919902E8
:1036100086E08083E0919602F0919702808180613C
:103620008083E0919602F091970280818860808388
:10363000E0919602F0919702808180688083E0910A
:103640009602F091970280818F7D8083C0E1D0E067
:10365000F12CFE01F595E795E854FA4FE491C0FF8F
:103660009FC0EF70E83008F0ADC0F0E0E854FA4FCA
:10367000F4906F2D84E892E00E9401052196C23FEC
:10368000D10539F781EB95E00E94AE061F928FEFCE
:103690008F931F9288E08F9383E796E09F938F9399
:1036A0000E943C0B80914C028D7F80934C0286E6F9
:1036B00096E09F938F930E943C0B0E94BC0641E0D2
:1036C00050E063E071E08BE492E00E94162460E039
:1036D00081E090E00E943E2480913F028F788093A9
:1036E0003F02109235021092340283E291E00E9470
:1036F0006A0685EE95E190932502809324021F923D
:103700001F9283E18F9388E88F9381E396E09F93E4
:103710008F930E943C0B0E94EB056B017C018DB7DF
:103720009EB70E960FB6F8949EBF0FBE8DBF0E9437
:10373000EB056C197D098E099F0968387341810575
:10374000910580F189E596E09F938F930E943C0B51
:103750000E94460A90913E020F900F9092FB88279C
:1037600080F992FD0E94B5091F928F9381E496E043
:103770009F938F930E943C0BA8950F900F900F90F2
:103780000F90C0E0D0E00E948B110E943A12209767
:10379000D1F30E94D5048823B1F30E940000F3CF37
:1037A000E2955FCF0E944C0680913E0284FD0E940C
:1037B000990E80913E0282FB882780F9A89581119D
:1037C000C1CFB5CF1BEF1E0F00E06F2D84E892E054
:1037D0000E9401050F5F0117C0F350CFEF920F93C6
:1037E0001F93CF93DF93E80134E047FD34E1042ECB
:1037F000000C550B57FF03C0519541955109E32E1D
:10380000022F242FAE010E940720CE01DF91CF911D
:103810001F910F91EF9008950F931F93CF93DF9314
:103820008230910510F482E090E0E091F104F09193
:10383000F20430E020E0B0E0A0E0309799F42115E8
:10384000310509F44AC0281B390B24303105D8F55D
:103850008A819B816115710589F1FB0193838283C4
:10386000FE0111C04081518102811381481759071F
:10387000E0F04817590799F4109761F012960C93ED
:10388000129713961C933296CF01DF91CF911F911F
:103890000F9108950093F1041093F204F4CF2115D1
:1038A000310551F04217530738F0A901DB019A01A5
:1038B000BD01DF01F801C1CFEF01F9CF9093F20410
:1038C0008093F104CDCFFE01E20FF31F819391931A
:1038D0002250310939832883D7CF2091EF043091CA
:1038E000F004232B41F420912D0130912E013093CF
:1038F000F0042093EF0420912B0130912C0121152D
:10390000310541F42DB73EB740912F015091300160
:10391000241B350BE091EF04F091F004E217F3075C
:10392000A0F42E1B3F0B2817390778F0AC014E5F2F
:103930005F4F2417350748F04E0F5F1F5093F00478
:103940004093EF04819391939FCFF0E0E0E09CCF10
:10395000CF93DF930097E9F0FC0132971382128234
:10396000A091F104B091F204ED0130E020E0109755
:10397000A1F420813181820F931F2091EF043091B7
:10398000F0042817390709F061C0F093F004E093C0
:10399000EF04DF91CF910895EA01CE17DF07E8F534
:1039A0004A815B819E0141155105B1F7E901FB8315
:1039B000EA8349915991C40FD51FEC17FD0761F4B3
:1039C000808191810296840F951FE90199838883F4
:1039D000828193819B838A83F0E0E0E012968D914F
:1039E0009C9113970097B9F52D913C911197CD01BA
:1039F0000296820F931F2091EF043091F004281754
:103A0000390739F6309751F51092F2041092F1040B
:103A1000B093F004A093EF04BCCFD383C283408162
:103A20005181840F951FC817D90761F44E5F5F4F0E
:103A300088819981480F591F518340838A819B81D6
:103A4000938382832115310509F0B0CFF093F204FE
:103A5000E093F1049ECFFD01DC01C0CF13821282FE
:103A6000D7CFFC0188279927E89421912032E9F3E8
:103A7000293010F02E30C8F32B3241F02D3239F4BA
:103A8000689404C00E94BD1D820F911D2191205396
:103A90002A30C0F31EF4909581959F4F08951F938F
:103AA000FC0199278827BC01E89411911032E9F3B1
:103AB000193010F01E30C8F31B3251F01D3249F49A
:103AC000689406C00E94A81D610F711D811D911D83
:103AD000119110531A30B0F33EF490958095709583
:103AE00061957F4F8F4F9F4F1F910895FC01059067
:103AF0000020E9F7809590958E0F9F1F0895FB0198
:103B0000DC014150504048F005900D920020C9F76B
:103B100001C01D9241505040E0F70895BB274A3044
:103B200031F4992322F4BDE2909581959F4F0C9436
:103B3000E81DBB272A3051F4992342F4BDE2909549
:103B40008095709561957F4F8F4F9F4F0C94C61D48
:103B5000592F482F372F262F660F771F881F991F41
:103B6000660F771F881F991F620F731F841F951F91
:103B7000660F771F881F991F08957AE0979F902DF1
:103B8000879F802D910D11240895BB27FA01A62F40
:103B90006217710581059105330B30FB66F0AA278A
:103BA000660F771F881F991FAA1FA21710F0A21B6C
:103BB00063953850A9F7A05DAA3308F0A95DA193D9
:103BC00036F7B111B1931082CA010C945422BB276D
:103BD000FB015527AA27880F991FAA1FA41710F0C9
:103BE000A41B83955051B9F7A05DAA3308F0A95DD5
:103BF000A193009779F7B111B1931192CB010C9475
:103C00005422AEE0B0E0E7E0FEE10C945E248C01CB
:103C1000FA018EE08C831A83098377FF02C060E08B
:103C200070E8615071097E836D83A901BF01CE01E7
:103C300001960E942D1E4D815E8157FD0AC02F8185
:103C40003885421753070CF49A01020F131FF8012D
:103C500010822E96E4E00C947A24ABE0B0E0E3E32B
:103C6000FEE10C9450247C013B018A01FC01178287
:103C70001682838181FFC8C1CE0101965C01F701E4
:103C80009381F30193FD859193FF81913F018823F7
:103C900009F453C1853239F493FD859193FF8191E5
:103CA0003F01853229F4B70190E00E946422E7CFFA
:103CB000912C212C312CFFE1F31538F08B3211F1CE
:103CC00090F4803209F1833229F137FC3CC020EDB9
:103CD000280F2A3050F536FE20C08AE0989E200D2D
:103CE0001124922E06C08D3291F0803371F76894C2
:103CF00030F8F30193FD859193FF81913F0181118C
:103D0000DACF21C0689431F8689432F8F2CF689421
:103D100033F8EFCF689434F8ECCFEAE02E9E200D14
:103D20001124222E689435F8E4CF8E3229F436FC23
:103D300004C1689436F8DDCF8C3619F4689437F8EE
:103D4000D8CF8836B1F2982F9F7D95549330E0F00C
:103D50008336A1F18337C1F1833509F063C02801AF
:103D6000F2E04F0E511CF801C080D180692D70E047
:103D700036FC02C06FEF7FEFC6010E943E224C016D
:103D8000689437F882010AC00C5F1F4FFFE3F98384
:103D900088248394912C6501E89437F833FE2DC074
:103DA000522C8114910471F5552009F468CFB701A4
:103DB00080E290E00E9464225A94F6CFF80180815C
:103DC00089830E5F1F4FE4CF2801F2E04F0E511C94
:103DD000F801C080D180692D70E036FC02C06FEF21
:103DE0007FEFC6010E9449224C018201D5CFB70165
:103DF00080E290E00E9464222A942814190409F0B9
:103E0000B0F7CECFF60137FC859137FE81916F0177
:103E1000B70190E00E94642251105A94F1E08F1A89
:103E20009108BFCF843619F0893609F077C0F801C0
:103E300037FE6BC060817181828193810C5F1F4F5F
:103E4000F32DFF763F2E97FF09C0909580957095D2
:103E500061957F4F8F4F9F4F689437F82AE030E08D
:103E6000A5010E949422C82ECA188C2C432C36FE21
:103E70000CC0E89440F8C91440F434FE05C032FC8C
:103E800003C0F32DFE7E4F2E892C44FE95C0FE010B
:103E9000EC0DF11D8081803309F087C0242D297E2F
:103EA000422E842D8870582E43FC95C040FE8FC052
:103EB0009C2C821418F42C0C922C981844FE91C05F
:103EC000B70180E390E00E94642242FE09C088E7C7
:103ED00090E041FE02C088E590E0B7010E946422B4
:103EE000C91408F48AC0CA94D12C9FEFC91AD90A00
:103EF000CA0CDB1CF60182916F01B70190E00E94B1
:103F00006422AC14BD04B1F74FCF60817181072EDC
:103F1000000C880B990B0E5F1F4F92CFD32CE894A7
:103F2000D4F82AE030E0853739F1232D297FD22ECD
:103F30008F3601F148F48835A9F0F7018681978121
:103F40002B96E2E10C946C24803749F08837A9F76E
:103F5000D4FE02C06894D2F820E130E00DC068942D
:103F6000D4F8F6CF34FE03C0822F8660D82E20E12D
:103F700032E002C028E030E0F801D7FE0FC06081D7
:103F80007181828193810C5F1F4FA5010E94942251
:103F9000C82ECA183D2CE89437F867CF608171812C
:103FA00090E080E00E5F1F4FF0CF42FC02C0839490
:103FB00078CF8394839475CF842D867809F471CF5C
:103FC000F6CFB70180E290E00E94642283948214CD
:103FD000C0F3512C73CF522C5818821408F46ECFB2
:103FE000F8CF842D867809F47BCF8BE241FE80E206
:103FF00047FC8DE2B70190E071CFB70180E390E01C
:104000000E9464229A946CCF8FEF9FEF99CFA9E022
:10401000B0E0EDE0F0E20C9456246A01F22EB02EEE
:10402000102FFBE3AF2EA01608F41BE31F5F012F38
:1040300027E0AE014F5F5F4F0E946621BC0189817E
:10404000982F9970913009F43FC09BE2E1FC04C0C5
:104050009E2D9170E0FC3AC05E2D5071E82FE87003
:1040600083FF46C084E0911101C083E0EF2DE81B7F
:104070008F1508F0E0E0D6018E2F20E2552351F194
:10408000992329F0D6019C93C60101966C019601F3
:104090002D5F3F4FE2FE24C08EE4D6018C9391E465
:1040A00011969C93119712968C93D9018E2F90E2C2
:1040B00081111BC0E20FF32FF11D10828EEF9FEFD5
:1040C0002996ECE00C9472249DE2C6CF90E2C4CF16
:1040D0002D9381508111FCCFCE0ED11CE0E0D0CFCA
:1040E0008EE6D6018C9391E6DBCF9D938150E0CF95
:1040F000482F447082FF3DC084E0911101C083E0ED
:104100008F1510F4EF2DE81BD6018E2F20E25523DA
:1041100009F1992329F0D6019C93C60101966C01FF
:1041200096012D5F3F4FE2FE1BC089E4D6018C93C0
:104130008EE411968C93119786E412968C93D90194
:104140008E2F90E2882309F4B5CF9D938150FACF4A
:104150002D9381508111FCCFCE0ED11CE0E0D9CF40
:1041600089E6D6018C938EE611968C93119786E69C
:10417000E4CF9B0177FF02C030E020E0A1E0B0E097
:10418000911102C0B0E0A0E0F9013196AE0FBF1F5F
:104190008B2C912CBB2009F461C05401EFEFAE1AB7
:1041A000BE0AAA0DBB1DFA161B0619F014F04F2DFE
:1041B0004A1B511188C0E3FC59C07601A42FB0E21C
:1041C000A1114FC0C40ED11C992309F45BC040E07B
:1041D000D6011196F60190836D01552309F448C06C
:1041E000012F060F9A81582F507184FF03C091331D
:1041F00009F4015010160CF047C0093008F008E02F
:10420000EEE2FE2E5B01A01AB10885019194819423
:1042100091082F3F320729F4D601FC92F60131961E
:104220006F016217730794F1021713077CF5DB0126
:10423000A21BB30BAA24A394B12CAC0EBD1EAA0DD5
:10424000BB1D11968C9121503109D601119628156C
:104250003905F4F0F60180836D01DBCFB12CA12C80
:10426000A0CFF701B1937F01A150AACF9111B0CF98
:10427000D601942F50E302C05D9391509111FCCF71
:10428000C40ED11C40E0ACCF01E0BACF80E3DBCF5D
:104290006217730731F4963388F4953311F455237C
:1042A00069F0F6018083FD01842F90E2811108C03E
:1042B000A40FB11D1C9290E080E002CF81E3F1CF0A
:1042C00091938150F3CF911183CF8ACF283008F09A
:1042D00027E03327DA01990F311D87FD91600096A1
:1042E0006105710539F432602E5F3D9330E32A9504
:1042F000E1F708959F3F30F080387105610509F0BE
:104300003C5F3C5F3D93913008F08068911DDF93E6
:10431000CF931F930F93FF92EF92192F987F96954B
:10432000E92F96959695E90FFF27EE53FF4F9927B2
:104330003327EE24FF24A701E70105900894079492
:1043400028F4360FE71EF81E491F511D660F771F10
:10435000881F991F0694A1F70590079428F4E70E8B
:10436000F81E491F561FC11D770F881F991F661F12
:104370000694A1F70590079428F4F80E491F561FDC
:10438000C71FD11D880F991F661F771F0694A1F7BD
:104390000590079420F4490F561FC71FD81F990F87
:1043A000661F771F881F0694A9F7849110951770D0
:1043B00041F0D695C79557954795F794E7941A9588
:1043C000C1F7E8E6F0E06894159015913591659194
:1043D000959105907FE27395E118F10A430B560B16
:1043E000C90BD009C0F7E10CF11E431F561FC91FAE
:1043F000D01D7EF4703311F48A95E6CFE894015015
:1044000030F0080F0AF40027021708F4202F239534
:10441000022F7A3328F079E37D932A95E9F710C0CB
:104420007D932A9589F60694979567953795179504
:104430001794E118F10A430B560BC90BD00998F0F9
:1044400023957E9173957A3308F070E37C93201363
:10445000B8F77E9170617D9330F0839571E37D9321
:1044600070E32A95E1F71124EF90FF900F911F91CF
:10447000CF91DF91992787FD90950895FC010590D4
:10448000615070400110D8F7809590958E0F9F1F56
:104490000895FC016150704001900110D8F780959B
:1044A00090958E0F9F1F0895DC01FC01672F71917D
:1044B0007723E1F7329704C07C916D93708362910A
:1044C000AE17BF07C8F308950F931F93CF93DF93E1
:1044D000182F092FEB018B8181FD09C01FEF0FEF12
:1044E000812F902FDF91CF911F910F91089582FF1F
:1044F00014C02E813F818C819D81281739073CF49F
:10450000E881F981CF0101969983888310838E8198
:104510009F8101969F838E83E3CFE885F985812F64
:104520000995892BA1F3DACFFA01AA27283051F196
:10453000203181F1E8946F936E7F6E5F7F4F8F4FD4
:104540009F4FAF4FB1E03ED0B4E03CD0670F781F33
:10455000891F9A1FA11D680F791F8A1F911DA11D18
:104560006A0F711D811D911DA11D20D009F4689451
:104570003F912AE0269F11243019305D3193DEF6F9
:10458000CF010895462F4770405D4193B3E00FD0AF
:10459000C9F7F6CF462F4F70405D4A3318F0495D9A
:1045A00031FD4052419302D0A9F7EACFB4E0A6957D
:1045B0009795879577956795BA95C9F7009761059F
:1045C000710508959B01AC010A2E069457954795F5
:1045D00037952795BA95C9F7620F731F841F951FEA
:1045E000A01D08950E94342308F481E00895E89402
:1045F00009C097FB3EF490958095709561957F4F2B
:104600008F4F9F4F9923A9F0F92F96E9BB279395D8
:10461000F695879577956795B795F111F8CFFAF4E8
:10462000BB0F11F460FF1BC06F5F7F4F8F4F9F4F19
:1046300016C0882311F096E911C0772321F09EE877
:10464000872F762F05C0662371F096E8862F70E0DD
:1046500060E02AF09A95660F771F881FDAF7880FB7
:104660009695879597F90895990F0008550FAA0B0D
:10467000E0E8FEEF16161706E807F907C0F0121675
:104680001306E407F50798F0621B730B840B950B78
:1046900039F40A2661F0232B242B252B21F40895CD
:1046A0000A2609F4A140A6958FEF811D811D08956A
:1046B0000E946B230C94DC230E94CE2338F00E94CE
:1046C000D52320F0952311F00C94C5230C94CB2313
:1046D00011240C9410240E94ED2370F3959FC1F3D4
:1046E000950F50E0551F629FF001729FBB27F00DA0
:1046F000B11D639FAA27F00DB11DAA1F649F6627F5
:10470000B00DA11D661F829F2227B00DA11D621F43
:10471000739FB00DA11D621F839FA00D611D221FFD
:10472000749F3327A00D611D231F849F600D211DE1
:10473000822F762F6A2F11249F5750409AF0F1F064
:1047400088234AF0EE0FFF1FBB1F661F771F881FCD
:1047500091505040A9F79E3F510580F00C94C5231D
:104760000C9410245F3FE4F3983ED4F3869577953C
:104770006795B795F795E7959F5FC1F7FE2B880F73
:10478000911D9695879597F9089597F99F6780E809
:1047900070E060E008959FEF80EC089500240A9493
:1047A0001616170618060906089500240A9412160C
:1047B0001306140605060895092E0394000C11F43F
:1047C000882352F0BB0F40F4BF2B11F460FF04C0EC
:1047D0006F5F7F4F8F4F9F4F089557FD9058440F45
:1047E000551F59F05F3F71F04795880F97FB991F50
:1047F00061F09F3F79F0879508951216130614060D
:10480000551FF2CF4695F1DF08C016161706180699
:10481000991FF1CF86957105610508940895E89474
:10482000BB2766277727CB0197F90895DC01CB01D9
:10483000FC01F999FECF06C0F2BDE1BDF89A3196B0
:1048400000B40D9241505040B8F70895F999FECF49
:1048500092BD81BDF89A992780B50895DC01A40F17
:10486000B51F4150504048F0CB01840F951F2E9149
:104870000E943F2441505040D0F70895262FF999C7
:10488000FECF92BD81BDF89A019700B4021639F0AF
:104890001FBA20BD0FB6F894FA9AF99A0FBE089580
:1048A0002F923F924F925F926F927F928F929F9240
:1048B000AF92BF92CF92DF92EF92FF920F931F932E
:1048C000CF93DF93CDB7DEB7CA1BDB0B0FB6F894DF
:1048D000DEBF0FBECDBF09942A88398848885F841F
:1048E0006E847D848C849B84AA84B984C884DF8090
:1048F000EE80FD800C811B81AA81B981CE0FD11D74
:104900000FB6F894DEBF0FBECDBFED01089550582D
:10491000BB27AA270E949F240C94DC230E94CE234D
:1049200038F00E94D52320F039F49F3F19F426F483
:104930000C94CB230EF4E095E7FB0C94C523E92FF0
:104940000E94ED2358F3BA1762077307840795078F
:1049500020F079F4A6F50C940F240EF4E0950B2EBC
:10496000BA2FA02D0B01B90190010C01CA01A001C1
:104970001124FF27591B99F0593F50F4503E68F11C
:104980001A16F040A22F232F342F4427585FF3CF5D
:10499000469537952795A795F0405395C9F77EF42E
:1049A0001F16BA0B620B730B840BBAF09150A1F077
:1049B000FF0FBB1F661F771F881FC2F70EC0BA0FFD
:1049C000621F731F841F48F4879577956795B79585
:1049D000F7959E3F08F0B0CF9395880F08F0992780
:1049E000EE0F9795879508950E9408250C94DC2377
:1049F0000E94D52358F00E94CE2340F029F45F3F57
:104A000029F00C94C52351110C9410240C94CB2341
:104A10000E94ED2368F39923B1F3552391F3951B7D
:104A2000550BBB27AA2762177307840738F09F5FCF
:104A30005F4F220F331F441FAA1FA9F335D00E2E3C
:104A40003AF0E0E832D091505040E695001CCAF7A9
:104A50002BD0FE2F29D0660F771F881FBB1F26176C
:104A600037074807AB07B0E809F0BB0B802DBF0143
:104A7000FF2793585F4F3AF09E3F510578F00C9412
:104A8000C5230C9410245F3FE4F3983ED4F386953D
:104A900077956795B795F7959F5FC9F7880F911D33
:104AA0009695879597F90895E1E0660F771F881F1F
:104AB000BB1F621773078407BA0720F0621B730BD2
:104AC000840BBA0BEE1F88F7E09508950E94F5233A
:104AD00088F09F5798F0B92F9927B751B0F0E1F0BF
:104AE000660F771F881F991F1AF0BA95C9F714C06F
:104AF000B13091F00E940F24B1E008950C940F247E
:104B0000672F782F8827B85F39F0B93FCCF38695A7
:104B100077956795B395D9F73EF490958095709504
:104B200061957F4F8F4F9F4F08950E94342308F463
:104B30008FEF08950E943423880B990B0895A1E20A
:104B40001A2EAA1BBB1BFD010DC0AA1FBB1FEE1F07
:104B5000FF1FA217B307E407F50720F0A21BB30B52
:104B6000E40BF50B661F771F881F991F1A9469F7CE
:104B700060957095809590959B01AC01BD01CF012A
:104B80000895EE0FFF1F0590F491E02D0994B0E019
:104B9000A0E0EDECF5E20C9452248C01009751F466
:104BA000CB010E940C1C8C01C801CDB7DEB7E0E13F
:104BB0000C946E24FC01E60FF71F9C012250310972
:104BC000E217F30708F49DC0D901CD91DC9111974C
:104BD000C617D70798F0C530D10530F3CE0104973A
:104BE0008617970708F3C61BD70B2297C193D1935B
:104BF0006D937C93CF010E94A81CD6CF5B01AC1AA9
:104C0000BD0A4C018C0E9D1EA091F104B091F204DE
:104C1000512C412CF12CE12C109731F58091EF04AF
:104C20009091F0048815990509F05CC04616570666
:104C300008F058C080912B0190912C01009741F40D
:104C40008DB79EB740912F0150913001841B950B79
:104C5000E817F90708F055C0F093F004E093EF046B
:104C6000F90171836083A0CF8D919C911197129669
:104C70006C90129713967C901397A815B90559F567
:104C80006C0142E0C40ED11CCA14DB0420F1AC015B
:104C90004A195B09DA011296159780F062827382D5
:104CA00051834083D9016D937C93E114F10471F039
:104CB000D7011396FC93EE93129776CF22968C0F22
:104CC0009D1FF90191838083F301EFCFF093F204EC
:104CD000E093F10469CF4816590608F42C017D01D0
:104CE000D3019ACFCB010E940C1C7C01009749F0A4
:104CF000AE01B8010E948426C8010E94A81C870149
:104D000053CF10E000E050CFFB01DC0102C0019066
:104D10000D9241505040D8F70895FB01DC010190FD
:104D20000D920020E1F70895FB01DC014150504055
:104D300048F001900D920020C9F701C01D9241502A
:104D40005040E0F70895AEE0B0E0E9EAF6E20C94F6
:104D50005E240D891E8986E08C831A8309838FEF78
:104D60009FE79E838D83AE01475E5F4F6F89788D8D
:104D7000CE0101960E942D1E2F813885020F131F30
:104D8000F80110822E96E4E00C947A24F894FFCF78
:104D9000FFFFFF00FCE1A8A8FF3C161416501726E1
:104DA00017721796060A17B7168B167816E3FF00C8
:104DB000040A01DA189D17F705F7050000F30480CF
:104DC000000000000001056B0498046905C904A7F0
:104DD00004BB040D0A006E657750756C73653A204C
:104DE0000020696E74657276616C3A200020666CF2
:104DF0006F773A20006E616E00696E66006F7666AE
:104E00000030002D003C4E4F4E43453E004F4B00BE
:104E10004E41434B003F0021006E6577204D657485
:104E2000657256616C75652066726F6D204757001C
:104E3000476173204D6574657200332E302D30301C
:104E40003100322E332E3200636865636B54687212
:104E50006573686F6C643A2000206F6C6456616CF7
:104E600075653A20002073656E736F7253746174B8
:104E7000653A200020686954483A2000204C6F545D
:104E8000483A2000696E666F726D475700256420AE
:104E9000253032643A253032643A25303264006677
:064EA00069786564000062
:00000001FF
