:100000000C941B030C94A0140C9479140C944303CB
:100010000C9443030C9443030C9466090C9443031F
:100020000C9443030C9443030C9443030C94430338
:100030000C9443030C9443030C9443030C94430328
:100040000C942F140C9443030C94ED140C94C714CB
:100050000C9443030C9443030C9443030C94430308
:100060000C9443030C94430300407A10F35A00A00D
:10007000724E18090010A5D4E80000E87648170071
:1000800000E40B54020000CA9A3B000000E1F505B1
:10009000000080969800000040420F000000A086FB
:1000A00001000000102700000000E803000000002D
:1000B0006400000000000A000000000001000000D1
:1000C00000002C76D888DC674F0823DFC1DFAE59EB
:1000D000E1B1B796E5E3E453C63AE651997696E87E
:1000E000E6C28426EB898C9B62ED407C6FFCEFBC02
:1000F0009C9F40F2BAA56FA5F490055A2AF75C932D
:100100006B6CF9676DC11BFCE0E40D47FEF520E662
:10011000B500D0ED902E0300943577050080841E45
:10012000080000204E0A000000C80C333333330FA0
:10013000986E12831141EF8D2114893BE65516CF3D
:10014000FEE6DB18D1844B381BF77C1D901DA4BB49
:10015000E424203284725E228100C9F124ECA1E5FE
:100160003D27200054534D3A494E49540A0021542A
:10017000534D3A494E49543A545350204641494C04
:100180000A005453463A5349443A4F4B2C49443D94
:1001900025750A00215453463A5349443A46414989
:1001A0004C2C49443D25750A0054534D3A494E495B
:1001B000543A5354415449443D25750A0054534D13
:1001C0003A494E49543A545350204F4B0A00545325
:1001D0004D3A465041520A002154534D3A4650413F
:1001E000523A4E4F205245504C590A002154534D1B
:1001F0003A465041523A4641494C0A0054534D3A0E
:10020000465041523A4F4B0A0054534D3A49443AF2
:100210005245510A0054534D3A49440A002154535F
:100220004D3A49443A4641494C0A0054534D3A49E3
:10023000443A4F4B0A0054534D3A55504C0A002152
:1002400054534D3A55504C3A4641494C0A00545388
:100250004D3A55504C3A444757432C4F3D25752C49
:100260004E3D25750A0054534D3A55504C3A4F4B6C
:100270000A0054534D3A52454144593A49443D25A8
:10028000752C5041523D25752C4449533D25750A26
:10029000002154534D3A52454144593A55504C204F
:1002A0004641494C2C534E500A005453463A54444C
:1002B000493A54534C0A0054534D3A4641494C3A3A
:1002C0004449530A0054534D3A4641494C3A434E2F
:1002D000543D25750A0054534D3A4641494C3A5213
:1002E000452D494E49540A00215453463A5254452B
:1002F0003A4E324E204641494C0A005453463A5237
:1003000054453A4E324E204F4B0A00215453463A40
:100310005254453A46504152204143544956450AA9
:1003200000215453463A534E443A544E520A002543
:10033000735453463A4D53473A53454E442C257512
:100340002D25752D25752D25752C733D25752C6353
:100350003D25752C743D25752C70743D25752C6CD0
:100360003D25752C73673D25752C66743D25752CD0
:1003700073743D25733A25730A004D434F3A524535
:10038000473A5245510A00214D434F3A534E443AA1
:100390004E4F4445204E4F54205245470A0000001E
:1003A0000008000201000003040700000000000034
:1003B000000000000000250028002B0000000000C5
:1003C000240027002A000404040404040404020294
:1003D00002020202030303030303010204081020C4
:1003E0004080010204081020010204081020322E6F
:1003F000332E310A00207C5F5C2F602C0A0702201C
:100400000220B287100340012000240222100222A1
:100410000202200222002220020220222710134181
:1004200001010103222030402030520340221402F7
:100430000310522402217101001010121012221018
:1004400010022401010322030020010100322037A1
:1004500012100121322601284032221210121222DB
:10046000432224121001222470C122240F0F54535E
:10047000463A5755523A4D533D256C750A004D4347
:100480004F3A42474E3A494E4954204F4B2C545311
:10049000503D25750A004D434F3A42474E3A53545A
:1004A000500A004D434F3A42474E3A4246520A00E4
:1004B0004D434F3A42474E3A494E4954204E4F44DD
:1004C000452C43503D524E4E4E412D2D2D2C524524
:1004D0004C3D25752C5645523D322E332E310A00A7
:1004E0004D434F3A50494D3A4E4F444520524547AF
:1004F0003D25750A00215453463A4D53473A52451B
:100500004C204D53472C4E5245500A005453463A06
:100510004D53473A5243562043420A005453463AF9
:100520004D53473A42430A005453463A4D53473AD3
:1005300041434B0A00215453463A4D53473A504FDA
:100540004E4720524543562C494E41435449564547
:100550000A005453463A4D53473A504F4E472052A3
:100560004543562C48503D25750A005453463A4D94
:1005700053473A50494E4745442C49443D25752C34
:1005800048503D25750A00215453463A4D53473A89
:100590004650415220494E4143544956450A005461
:1005A00053463A4D53473A46504152204F4B2C49FF
:1005B000443D25752C443D25750A005453463A4D5B
:1005C00053473A41434B205245510A002154534668
:1005D0003A4D53473A505645522C2575213D2575C5
:1005E0000A00215453463A4D53473A4C454E3D2557
:1005F000752C4558503D25750A005453463A4D53C5
:10060000473A524541442C25752D25752D25752CCD
:10061000733D25752C633D25752C743D25752C7017
:10062000743D25752C6C3D25752C73673D25753AF9
:1006300025730A00D51711241FBECFEFD8E0DEBF07
:10064000CDBF12E0A0E0B1E0EEE0F5E402C005901D
:100650000D92A634B107D9F725E0A6E4B2E001C0B7
:100660001D92AB32B207E1F713E0CBE1D3E004C057
:100670002197FE010E946B22CA31D107C9F70E945F
:10068000A4180C9485220C9400000E945C1182E452
:1006900091E00C944E11FC0184818F7180668483FB
:1006A000838187708061838370876783CF0108951A
:1006B000FC0184818F71806A84838381877080626A
:1006C00083834783508761877287CF010895FC0138
:1006D000838187708860838384818F718062848343
:1006E0006783CF0108950F931F93CF93DF93EC019E
:1006F0006115710561F0FB0101900020E9F7319768
:10070000E61BF70BE931F10518F0E9E101C0E0E083
:100710000E2F10E08B81282F2770C80133E0880F3F
:10072000991F3A95E1F7822B8B838C818F718C8393
:10073000EE2329F0A801CE0107960E947622FE0141
:10074000E00FF11F1782CE01DF91CF911F910F9122
:100750000895FC019481929596959770953029F4AF
:1007600067817085818592850895911104C0CF01BC
:1007700007960C94EF1960E070E0CB010895FC013E
:100780002681223091F5248124FD68C025812C31F9
:1007900009F064C00E94A90360935202709353024F
:1007A00080935402909355028EE491E00E944E1182
:1007B00010924702109248021092490210924A0287
:1007C00010924B0210924C0210924D0210924E0267
:1007D00081E08093560260915202709153028091A1
:1007E0005402909155020C9479132330B9F5FC0111
:1007F000248124FD33C02581293161F02A3191F013
:10080000283161F50E94A90360934F0281EA91E0CB
:100810000C94D4200E94A9037093250160932401B5
:1008200082E007C00E94A903709323016093220114
:1008300080E00E94AC1781E0809356022091240151
:10084000309125018091220190912301820F931F05
:1008500096958795909351028093500208958091C8
:10086000260584FD0C941F150895E0911C05F09158
:100870001D05309721F00280F381E02D0994089541
:100880000F931F930E94EB1300911E0510911F05FB
:100890002091200530912105601B710B820B930B79
:1008A0001F910F9108959C0180911C0590911D0549
:1008B0008217930751F0909126059F71909326051A
:1008C00030931D0520931C0505C080912605805E90
:1008D00080932605E0911C05F0911D05309721F0CD
:1008E0000190F081E02D09950E94EB1360931E05A5
:1008F00070931F058093200590932105089590E53E
:100900009CBD1DBC2A98E0E1F0E03197F1F78EBD67
:1009100000000DB407FEFDCF8EB5FB019FEF4150E7
:10092000C8F0222361F09EBD00000DB407FEFDCF8C
:100930008EB56115710599F380833196F0CFDF0193
:10094000119680818EBD00000DB407FEFDCF8EB5DF
:10095000FD01E5CF2A9AE0E1F0E03197F1F7089543
:10096000CF93DF931F92CDB7DEB7698320E041E0DC
:10097000BE016F5F7F4F0E947F040F90DF91CF9188
:1009800008956FE080E20E94B004609108016F3F1B
:1009900019F08AE20E94B004299A089521E041E00A
:1009A00060E070E00C947F0486E00E94CE04853203
:1009B00031F485E00E94CE0491E0803609F090E0A9
:1009C000892F089520E040E060E070E00C947F04FF
:1009D000EF92FF920F931F93CF93DF93CDB7DEB7C4
:1009E000C857D1090FB6F894DEBF0FBECDBF8E0138
:1009F0000F571F4FF801E190F1908F010E94EB1308
:100A00004AE00E946D1282E691E00E945212980123
:100A1000A70168E770E0CE0101960E94891ACE0115
:100A200001960E943C1184EA92E00E94F510C85899
:100A3000DF4F0FB6F894DEBF0FBECDBFDF91CF9171
:100A40001F910F91FF90EF900895CF92DF92EF9258
:100A5000FF920F931F93CF93DF93F82EEB018091BA
:100A6000A00288834B8142FD06C046954695469577
:100A700007E0040F01C000E21091A3021170299851
:100A800080E091E00197F1F76EE080E20E94B0040F
:100A900084EC90E00197F1F76F2D8AE20E94B00498
:100AA0006F2D80E30E94B00481EE0E94E2048FEF7C
:100AB000F81611F0112311F080EB01C080EA402FED
:100AC000013208F040E220E0BE010E947F04299A32
:100AD000C12CD12C8FEF0E94E204082F807321F4E7
:100AE00091E0C91AD108B1F7299860E387E20E9422
:100AF000B00404FF03C081EE0E94E2040E94C1041E
:100B000005FD11E081E09FEFF91280E0182B8C8148
:100B10008770833019F48D81813129F0CE010E94D4
:100B2000A311FC0102C0E9E6F1E0111103C064E782
:100B300071E002C061E771E0509127055F709B8111
:100B400092FBEE24E0F8492F4695469546959C8108
:100B5000C92EC294C69487E0C822DD8097700E81AA
:100B6000BA81A88189812091A30220FD05C01111BD
:100B700006C02BE731E005C029E731E002C029E1DA
:100B800032E0FF93EF937F936F931F925F931F92D7
:100B9000EF921F924F931F92CF921F92DF921F925C
:100BA0009F931F920F931F92BF931F92FF921F92CA
:100BB000AF931F928F933F932F938FE293E09F9376
:100BC0008F930E94E8048DB79EB74E960FB6F894A7
:100BD0009EBF0FBE8DBF812FDF91CF911F910F91CF
:100BE000FF90EF90DF90CF9008950F931F93CF93D6
:100BF0008C01FC0182819091260590FF0BC08F3FF4
:100C000051F18BE093E09F938F930E94E8040F9043
:100C10000F9035C0811103C0C091A1021DC08F3F4C
:100C2000D1F0B8010E942505C82F882349F08BEF29
:100C300092E09F938F930E94E8040F900F9027C03B
:100C400088EE92E09F938F930E94E804C091A102E6
:100C50000F900F9001C0CFEFB8018C2F0E94250597
:100C60009091A102C91312C090912705811109C06A
:100C700081E0890F8F70907F982B90932705C0E0BB
:100C800006C0907F90932705C1E001C0C82F8C2F2C
:100C9000CF911F910F9108952091260522FD0C946C
:100CA000F50581E293E09F938F930E94E8040F90F3
:100CB0000F9080E008950F93CF9380911B0581FDE5
:100CC00028C00E94D50F8AE793E09F938F930E94DC
:100CD000E80480911B05816080931B050F900F90A5
:100CE000C4E000E02AE143E06FEF80E00E942311BE
:100CF00062E00E9467030E944C068BE10E94F7139A
:100D0000811102C0C15069F780911B0582608093F8
:100D10001B05CF910F9108950F931F930E944004DC
:100D2000209127052077203729F000E117E220E005
:100D300030E004C000E61AEE20E030E006171707A6
:100D40002807390770F486ED92E09F938F930E94F5
:100D5000E8040F900F908CE291E01F910F910C949A
:100D600053041F910F91089580912705982F907734
:100D7000903759F0982F92959F709F5F977092953A
:100D8000907F8F78892B8093270580912705829506
:100D900087701F928F9385EC92E09F938F930E94B0
:100DA000E804809126058B7F8F7E8093260587EB54
:100DB00092E09F938F930E94E8048AEA92E09F93C7
:100DC0008F930E94E80429988DB79EB708960FB6B6
:100DD000F8949EBF0FBE8DBF6CE080E20C94B0040F
:100DE000809127058F70863060F081E992E09F93B3
:100DF0008F930E94E8040F900F9089E191E00C948A
:100E0000530408958091A2021F928F938091A102B2
:100E10001F928F938091A0021F928F9382E792E09E
:100E20009F938F930E94E8048091260584608093AD
:100E3000260580912705807880932705E091180585
:100E4000F09119058DB79EB708960FB6F8949EBF1E
:100E50000FBE8DBF309709F0099408958091280541
:100E60008F3F79F10E94EB13609322057093230565
:100E7000809324059093250586E692E09F938F93B7
:100E80000E94E804909128058091A2020F900F9093
:100E90009817A1F01F929F931F928F938EE492E078
:100EA0009F938F930E94E804809128058093A2026B
:100EB0000F900F900F900F900F900F9085E191E0A1
:100EC0001DC00E944004613D774081059105C0F03E
:100ED00080912605803618F481E191E00FC08FE300
:100EE00092E09F938F930E94E80480912605877F6C
:100EF000809326050F900F9089E191E00C945304A4
:100F000008950F9386E392E09F938F930E94E804E5
:100F10008FEF80932805E6E2F5E08081886080838A
:100F200000E028E143E06FEF80E00E94231161E0E0
:100F30000E9467030F900F900F910C94F50580911C
:100F4000A0028F3F59F08BE292E09F938F930E9413
:100F5000E8040F900F9081E191E018C00E944004D6
:100F6000613D77408105910598F080912605803696
:100F700018F48DE091E00AC08DE192E09F938F9389
:100F80000E94E8040F900F9089E091E00C945304C4
:100F900008950F9385E192E09F938F930E94E80458
:100FA0000F900F908091A0028F3FB1F489E092E002
:100FB0009F938F930E94E80400E023E043E06FEFEB
:100FC00080E00E94231169E172E00E9473030F9098
:100FD0000F900F910C94F5050F9108950E94400415
:100FE000613D77408105910520F48091260581FFC0
:100FF00008958091A1028F3F81F08CEF91E09F9343
:101000008F930E94E804809126058E7F80932605A9
:101010000F900F908DE091E019C0809126058036E9
:1010200058F488ED91E09F938F930E94E8040F900D
:101030000F9089E191E00AC08CEE91E09F938F932D
:101040000E94E8040F900F9089E091E00C94530403
:101050000F938EEC91E09F938F930E94E804E6E259
:10106000F5E08081897F81608083E0EAF2E08FEFA4
:101070008283818300E027E043E06FEF0E94231129
:1010800069E172E00E9473030F900F900F910C942E
:10109000F505CF93DF93219A229A29982A9ACFB700
:1010A000F89480914602811124C0E0EDF3E0849130
:1010B000E4EEF3E09491E82FF0E0EE0FFF1FE4542C
:1010C000FC4FA591B491EC91E92321F461E08AE011
:1010D0000E949E138AE00E9484118CB580618CBDB1
:1010E0008CB580648CBD8DE00E9484118BE00E94E1
:1010F0008411809146028F5F80934602CFBF29986A
:101100006EE080E20E94B00484E293E20197F1F77E
:1011100063E083E20E94B0046FE584E20E94B004C1
:1011200060E685E20E94B00465E286E20E94B004B7
:1011300064E08DE30E94B0048DE10E94CE0484300F
:1011400041F063E780E50E94B00464E08DE30E9413
:10115000B0040E94D404882309F48CC062E082E2C7
:101160000E94B00460E081E20E94B00463E08CE37E
:101170000E94B004DFEFD093030120E045E063E07C
:1011800071E08BE20E947F0420E045E063E071E0C3
:101190008AE20E947F0420E045E063E071E080E3A2
:1011A0000E947F0482EE0E94E20481EE0E94E2042B
:1011B00060E787E20E94B0048DEB91E09F938F93EC
:1011C0000E94E80480912605806180932605809125
:1011D000A3028E7F8093A3021F92C5E6CF9389EA74
:1011E00091E09F938F930E94E804C093A00265E66C
:1011F00080E090E00E94D420C091A0020F900F9058
:101200000F900F900F900F90CF3F89F18FEF8C0FC1
:101210008E3FF0F4C093080163E082E20E94B004C4
:1012200061E081E20E94B0040E94C1046C2F80E062
:1012300090E00E94D4201F92CF9382E891E09F9388
:101240008F930E94E8040F900F900F900F900FC0A3
:101250001F921F9284E991E09F938F930E94E8046C
:10126000D093A0020F900F900F900F900BC089E1C8
:1012700091E00AC08EE691E09F938F930E94E8046C
:101280000F900F9089E091E0DF91CF910C9453047F
:1012900084E691E09F938F930E94E804E6E2F5E0F4
:1012A0008081877F8F7E8083109222051092230594
:1012B00010922405109225050F900F9044E050E005
:1012C00060E070E080EA92E00C94AC201F920F92F4
:1012D0000FB60F9211240F900FBE0F901F9018950C
:1012E0008DE791E00E944E1186E891E00E943C114A
:1012F00084E891E00E943C1182E991E00C944E1147
:101300008F929F92AF92BF92CF92DF92EF92FF9215
:101310004B015C010E94EB136B017C010E94EB13FB
:10132000DC01CB018C199D09AE09BF09881599050F
:10133000AA05BB0530F4A8950E9435040E942F042D
:10134000EDCFFF90EF90DF90CF90BF90AF909F9048
:101350008F9008950F93CF93DF938F3F11F0EA01A1
:1013600002C0CCE9D1E0022F262F40E0682F80E0B8
:101370000E942311BE010E947303DF91CF910F9150
:101380000C944C060F9300E02BE043E06FEF80E0FD
:101390000E94231166E871E00E9473030E944C06CC
:1013A0002CE043E06FEF80E00E94231162EA71E0DD
:1013B0000E9473030E944C0621E041EC51E065E17C
:1013C00081E00E94AA0920E04CEC51E067E182E054
:1013D0000E94AA0920E041EE51E067E183E00F910D
:1013E0000C94AA09FC01962F8091A002818364814C
:1013F000607F262F216088E0989FB0011124622B26
:10140000648380911B0580FF03C0CF010C944C06C0
:1014100087E893E09F938F930E94E8040F900F90CA
:1014200080E008954F925F926F927F928F929F9289
:10143000AF92BF92CF92DF92EF92FF920F931F93E2
:10144000CF93DF9314E0C0E0D0E000E43AE0E32E75
:10145000F12C4AE080E090E000937C0020917A003B
:10146000206420937A0020917A0026FDFCCF209101
:1014700078005091790030E0352B820F931F415056
:1014800059F7B7010E943522C60FD71F65E070E0FB
:1014900080E090E00E9480091150D9F6CE01969527
:1014A0008795969587959093600280935F0220912F
:1014B0002001309121012817390720F09093210154
:1014C0008093200120911E0130911F018217930704
:1014D00020F090931F0180931E0160914F026623BC
:1014E00009F4A5C085EC93E00E94670360E00E94C8
:1014F000F209609124017091250184EA93E00E9431
:101500004B0360E00E94F209609122017091230177
:1015100083E893E00E944B0360E00E94F20980910F
:101520004F02813089F460915F027091600289E41A
:1015300094E00E944B0360E00E94F20960E273E0D5
:1015400080E090E00E94800980914F02823039F55E
:1015500060915F027091600289E494E00E944B0305
:1015600060E00E94F209609120017091210188E2FF
:1015700094E00E944B0360E00E94F20960911E011A
:1015800070911F0187E094E00E944B0360E00E948D
:10159000F20960E273E080E090E00E94800990919F
:1015A0004F02933009F043C080918E0487708862A7
:1015B00080938E0480918F04806E80938F044AEF15
:1015C0005EE366EF72E44093920450939304609359
:1015D0009404709395049093960460E08BE894E0F3
:1015E0000E94F2098091AF04877088628093AF04F3
:1015F0008091B004806E8093B0048AE999E3A4EEF0
:10160000B3E48093B3049093B404A093B504B0936F
:10161000B60482E08093B70460E08CEA94E00E9414
:10162000F20960E273E080E090E00E94800980911E
:101630001D01882309F477C020915F023091600278
:1016400080912401909125012817390708F06BC07B
:101650000E94EB136B017C01809165029091660200
:10166000A0916702B0916802A7019601281B390B6F
:101670004A0B5B0BCA01B901603137E27307810580
:10168000910508F44AC00E948D1F9B01AC0160E0E7
:1016900070E68AE697E40E948A2160934B02709379
:1016A0004C0280934D0290934E02C0926502D092FC
:1016B0006602E0926702F092680280915202909175
:1016C0005302A0915402B09155020196A11DB11D83
:1016D0008093520290935302A0935402B093550208
:1016E00085EF91E00E943C1160915202709153028B
:1016F00080915402909155024AE00E946D1280E060
:1017000092E00E943C1160914B0270914C028091DA
:101710004D0290914E020E94AE1290911D0181E007
:10172000892780931D0180911D0181110EC0209198
:101730005F02309160028091220190912301821713
:10174000930718F481E080931D010E94EB136B0155
:101750007C018091690290916A02A0916B02B09124
:101760006C0226013701481A590A6A0A7B0A8091DD
:10177000650290916602A0916702B09168024601ED
:101780005701881A990AAA0ABB0A8091270188235F
:1017900011F061E001C060E085E00E949E1341EE1F
:1017A000441643E9540644E06406710448F4809109
:1017B0002601811105C080915602882309F47FC05B
:1017C000B701A60182E693E00E94580361E00E94FF
:1017D000F2098093270188E092E00E943C11609119
:1017E000270170E080E090E04AE00E946D1287E1FE
:1017F00092E00E943C1162E370E080E090E00E9481
:1018000080099091270180914403877088608093BC
:101810004403809145038F718062809345039093C8
:10182000480360E081E493E00E94F209C0926902FB
:10183000D0926A02E0926B02F0926C0280915602A2
:101840008823E9F18AE192E00E944E11109256023B
:10185000409152025091530260915402709155028E
:101860008AE694E00E94580361E00E94F20962E374
:1018700070E080E090E00E94800960912401709106
:10188000250184EA93E00E944B0361E00E94F20983
:1018900062E370E080E090E00E94800960912201A4
:1018A0007091230183E893E00E944B0361E00E9462
:1018B000F20962E370E080E090E00E94800980918C
:1018C000610290916202A0916302B0916402B7013B
:1018D000A601481B590B6A0B7B0B809126014138EE
:1018E0005E4E6643710518F4882309F418C18823F5
:1018F00019F0109226010AC06091520270915302B1
:1019000080915402909155020E94791320915002C7
:10191000309151028091200190912101A901445000
:1019200051098417950728F401969093210180931B
:10193000200180911E0190911F012C5F3F4F2817BD
:10194000390728F4019790931F0180931E0160913D
:101950004F0285EC93E00E94670361E00E94F20968
:1019600062E370E080E090E00E94800960912401D1
:101970007091250184EA93E00E944B0361E00E948C
:10198000F20962E370E080E090E00E9480096091DB
:1019900022017091230183E893E00E944B0361E0F0
:1019A0000E94F20962E370E080E090E00E9480090A
:1019B00060915F027091600289E494E00E944B03A1
:1019C00061E00E94F20962E370E080E090E00E9432
:1019D0008009609120017091210188E294E00E94C9
:1019E0004B0361E00E94F20962E370E080E090E066
:1019F0000E94800960911E0170911F0187E094E0B0
:101A00000E944B0361E00E94F20962E370E080E013
:101A100090E00E94800940914B0250914C026091ED
:101A20004D0270914E028091AF048770886280935E
:101A3000AF048091B004806E8093B0044093B304EF
:101A40005093B4046093B5047093B60482E080931D
:101A5000B70461E08CEA94E00E94F20962E370E06E
:101A600080E090E00E948009409152025091530220
:101A700060915402709155028AE694E00E945803E6
:101A800061E00E94F20962E370E080E090E00E9471
:101A9000800940915B0250915C0260915D027091FF
:101AA0005E0280918E048770886280938E0480919C
:101AB0008F04806E80938F0440939204509393041C
:101AC000609394047093950483E08093960461E09E
:101AD0008BE894E00E94F20962E370E080E090E01D
:101AE0000E94800940915202509153026091540229
:101AF0007091550286EE93E00E94580361E00E94C7
:101B0000F20962E370E080E090E00E948009C092F8
:101B10006102D0926202E0926302F0926402C0908D
:101B20004B02D0904C02E0904D02F0904E0220917A
:101B30004702309148024091490250914A02C70140
:101B4000B6010E941D212B013C0120E030E0A901DB
:101B50000E942B2218165CF42DEC3CEC4CEC5DE35F
:101B6000C301B2010E942B2218165CF08FC02DEC2D
:101B70003CEC4CEC5DEBC301B2010E94881F87FF77
:101B800085C0C0924702D0924802E0924902F0928A
:101B90004A0220E030E040E252E4C701B6010E9470
:101BA000881F87FF65C08091AF048770886280932B
:101BB000AF048091B004806E8093B004C092B304EF
:101BC000D092B404E092B504F092B60482E080931F
:101BD000B70460E08CEA94E00E94F20962E370E0EE
:101BE00080E090E00E9480096091200170912101C5
:101BF00088E294E00E944B0360E00E94F20962E3F5
:101C000070E080E090E00E94800960911E01709178
:101C10001F0187E094E00E944B0360E00E94F209FC
:101C200062E370E080E090E00E9480092091500221
:101C3000309151028091200190912101A9014450DD
:101C400051098417950728F40196909321018093F8
:101C5000200180911E0190911F012C5F3F4F28179A
:101C60003907A0F4019790931F0180931E010EC0C5
:101C700083E292E00E943C1160914B0270914C0211
:101C800080914D0290914E020E94AE1221EC82167C
:101C900024ED920621E0A206B104B8F020E030E085
:101CA000A90160914B0270914C0280914D0290917C
:101CB0004E020E94881F882341F010924B0210921E
:101CC0004C0210924D0210924E02409152025091DD
:101CD0005302609154027091550280915702909185
:101CE0005802A0915902B0915A02481759076A0741
:101CF0007B0709F466C061E086E00E949E13809134
:101D0000520290915302A0915402B09155028093D7
:101D1000570290935802A0935902B0935A024091EF
:101D200052025091530260915402709155028AE61A
:101D300094E00E94580360E00E94F2096091520210
:101D40007091530280915402909155020E948D1F10
:101D500020E030E04AE754E40E948A2160935B026D
:101D600070935C0280935D0290935E0220918E04DA
:101D70002770286220938E0420918F04206E209378
:101D80008F046093920470939304809394049093CF
:101D9000950483E08093960460E08BE894E0DF9103
:101DA000CF911F910F91FF90EF90DF90CF90BF9058
:101DB000AF909F908F907F906F905F904F900C941A
:101DC000F20960E086E0DF91CF911F910F91FF90C3
:101DD000EF90DF90CF90BF90AF909F908F907F90CB
:101DE0006F905F904F900C949E130F931F93CF931F
:101DF000DF9382E392E00E944E11559A569A82EA4E
:101E000091E00E94BC20C82F83EA91E00E94BC2090
:101E1000D82F84EA91E00E94BC20082F85EA91E047
:101E20000E94BC204D2F50E060E070E0762F652FBF
:101E3000542F442710E020E030E0980111270027BC
:101E4000400F511F621F731F4C0F511D611D711DEB
:101E500090E0A0E0B0E0B82FAA2799278827480F84
:101E6000591F6A1F7B1F4093520250935302609385
:101E70005402709355024093570250935802609356
:101E8000590270935A0260915202709153028091EC
:101E90005402909155020E948D1F20E030E04AE7E5
:101EA00054E40E948A2160935B0270935C028093E9
:101EB0005D0290935E020E94EB136093690270933F
:101EC0006A0280936B0290936C0260936502709338
:101ED0006602809367029093680260936102709338
:101EE0006202809363029093640281EA91E00E940F
:101EF000BC2080934F028F3F39F410924F0260E074
:101F000081EA91E00E94D4208DE991E00E94BC20FA
:101F1000C82F8EE991E00E94BC20D0E0DC2FCC27B6
:101F2000C82B8FE991E00E94BC20082F80EA91E045
:101F30000E94BC2010E0102F0027082BCE01019733
:101F40008E3F9F4F40F0609122017091230180E00D
:101F50000E94AC1704C0D0932301C0932201C80192
:101F600001978E3F9F4F40F06091240170912501B1
:101F700082E00E94AC1704C0109325010093240155
:101F8000209124013091250180912201909123011B
:101F9000820F931F969587959093510280935002DC
:101FA000DF91CF911F910F9108950F93CF9300E090
:101FB0002FE043E06FEF80E00E94231169E172E0BF
:101FC0000E947303EDECF4E083818770806183836A
:101FD00084818F71806C848381E087831086CF0138
:101FE0000E944C068FE00E94F71320E049E152E086
:101FF00061E18FEF0E94AA09C091A10226E043E0AF
:102000006FEF80E00E9423116C2F0E9467030E94F3
:102010004C0686E00E94F713CF910F910C94C209F1
:102020000895CF92DF92EF92FF920F931F93CF9379
:10203000DF936C017A018B01C0E0D0E0CE15DF05A3
:1020400081F0D8016D918D01D601ED91FC91019047
:10205000F081E02DC6010995892B11F02196EECF74
:102060007E01C701DF91CF911F910F91FF90EF90FB
:10207000DF90CF900895089580E090E00895FC01EE
:10208000538D448D252F30E0842F90E0821B930BDD
:10209000541710F0CF96089501970895FC01918D83
:1020A000828D981761F0828DDF01A80FB11D5D96BA
:1020B0008C91928D9F5F9F73928F90E008958FEF28
:1020C0009FEF0895FC01918D828D981731F0828DDC
:1020D000E80FF11D858D90E008958FEF9FEF089533
:1020E000FC01918D228D892F90E0805C9F4F821B97
:1020F00091098F739927089584EA92E00E947010E5
:1021000021E0892B09F420E0822F0895FC01848DC1
:10211000DF01A80FB11DA35ABF4F2C91848D90E011
:1021200001968F739927848FA689B7892C93A089EC
:10213000B1898C91837080648C93938D848D981376
:1021400006C00288F389E02D80818F7D8083089509
:10215000EF92FF920F931F93CF93DF93EC0181E0F7
:10216000888F9B8D8C8D981305C0E889F9898081B3
:1021700085FD26C0F62E0B8D10E00F5F1F4F0F73ED
:102180001127E02E8C8DE8120CC00FB607FCFACF99
:10219000E889F989808185FFF5CFCE010E948610FC
:1021A000F1CF8B8DFE01E80FF11DE35AFF4FF08256
:1021B0009FB7F8940B8FEA89FB89808180620AC0FF
:1021C0009FB7F894EE89FF896083E889F989808157
:1021D0008370806480839FBF81E090E0DF91CF9126
:1021E0001F910F91FF90EF900895CF93DF93EC0133
:1021F000888D8823C9F0EA89FB89808185FD05C027
:10220000A889B9898C9186FD0FC00FB607FCF5CF60
:10221000808185FFF2CFA889B9898C9185FFEDCFA8
:10222000CE010E948610E7CFDF91CF91089580E024
:1022300090E0892B29F00E947C1081110C94000001
:1022400008950E9471220F931F93EDECF4E090919A
:10225000A002918382836683258384814770807F77
:10226000482B88E0089F80011124042B0F7E0483F3
:10227000CF011F910F910895009769F0FC01019023
:102280000020E9F73197AF01481B590BBC0184EAE4
:1022900092E00C94111080E090E00895CF93DF93CA
:1022A0000E943C11EC0187E192E00E943C118C0FEE
:1022B0009D1FDF91CF910895E4EAF2E0A089B189F2
:1022C00082E08C93A485B5851C92A685B78588E0AD
:1022D0008C93108EA489B58986E08C93A289B389EA
:1022E0008C9180618C93A289B3898C9188608C9346
:1022F000A289B3898C9180688C930288F389E02D40
:1023000080818F7D8083089590E0FC01E652FC4F30
:102310002491FC01EA53FC4F8491882399F090E0CA
:10232000880F991FFC01E454FC4FA591B491FC0166
:10233000EE54FC4F859194918FB7F894EC91E22B79
:10234000EC938FBF08950F931F93CF93DF93EC010E
:102350008C8182958695877091F44B814695469540
:10236000469550E0BE01695F7F4F8DE692E00E9486
:102370007622EB81E695E695E695F0E076C0813031
:1023800031F48F814AE06DE672E090E007C0823060
:1023900041F44AE06DE672E08F8198850E94161A3A
:1023A00067C0833041F44AE06DE672E08F81988522
:1023B0000E946F1A5DC0843051F46F8178858985E1
:1023C0009A852AE04DE652E00E94211A51C08530DC
:1023D00051F46F81788589859A852AE04DE652E02F
:1023E0000E944D1A45C0873011F020E030C02B8587
:1023F000293008F028E06F81788589859A850DE677
:1024000012E042E00E94B11933C0E22FF0E0AF01C8
:10241000440F551FDA01A359BD4FEC0FFD1F8781F3
:10242000082E000C990B34E0959587953A95E1F7C5
:102430008F708A3098F4805D8C93DA01A259BD4F79
:1024400087818F708A3060F4805D8C932F5FEB8181
:10245000E695E695E6952E17C0F204C0895CECCFB0
:10246000895CF3CFF0E0EE0FFF1FE359FD4F1082C0
:102470008DE692E0DF91CF911F910F9108958091A9
:10248000F204829586958770813019F48091F50465
:102490000895811105C085EF94E00E94D119089537
:1024A00080E008950F931F93CF93DF938C01C0E0DA
:1024B000D0E0F801EC0FFD1F6491662341F084EA3F
:1024C00092E00E94A810892B11F02196F2CFCE0144
:1024D000DF91CF911F910F9108958F929F92AF92AC
:1024E000BF920F931F93CF93DF93CDB7DEB7A19722
:1024F0000FB6F894DEBF0FBECDBF19A2423008F46C
:102500004AE08E010F5D1F4F842E912CA12CB12C1F
:10251000A50194010E944922E62FB901CA01015088
:102520001109EA3014F4E05D01C0E95CD801EC93D4
:10253000232B242B252B61F7C8010E943C11A19667
:102540000FB6F894DEBF0FBECDBFDF91CF911F91C4
:102550000F91BF90AF909F908F9008954F925F9290
:102560006F927F928F929F92AF92BF92CF92DF92A3
:10257000EF92FF926B017C019B01AC010E94302223
:10258000882319F08AE392E01AC046015701E894C3
:10259000B7F82FEF3FEF4FE75FE7C501B4010E94A7
:1025A0003022811110C02FEF3FEF4FE75FE7C501E9
:1025B000B4010E94881F181634F48EE392E00E9442
:1025C0003C117C0183C02FEF3FEF4FE75FE4C70171
:1025D000B6010E942B2218161CF482E492E0EFCF81
:1025E0002FEF3FEF4FE75FECC701B6010E94881F56
:1025F00087FDF3CF20E030E0A901C701B6010E94BA
:10260000881F87FF0BC06DE284EA92E00E94A81049
:102610005C01F7FAF094F7F8F09402C0A12CB12C09
:102620002AE037ED43EA5BE3C701B6010E941E21B1
:102630002B013C010E94FC216B017C010E948D1F3B
:102640009B01AC01C301B2010E941D212B013C0181
:102650004AE0C701B6010E946D127C01EA0CFB1C26
:102660006EE284EA92E00E94A810E80EF91E20E0D3
:1026700030E040E251E4C301B2010E94EE1F2B01A1
:102680003C010E94FC214B01A12CB12C4AE0C50168
:10269000B4010E946D12E80EF91EC501B4010E943A
:1026A0008D1F9B01AC01C301B2010E941D2120E0DE
:1026B00030E040E251E40E94EE1F0E94FC2180E0E5
:1026C00090E04AE00E946D12E80EF91E87E192E068
:1026D0000E943C118E0D9F1DFF90EF90DF90CF90D8
:1026E000BF90AF909F908F907F906F905F904F9032
:1026F0000895CF92DF92EF92FF926B017C0182EA04
:1027000091E00E94D42099278F2D7E2D6D2D83EA94
:1027100091E00E94D420B7018827992784EA91E0AC
:102720000E94D4206F2D77278827992785EA91E08A
:10273000FF90EF90DF90CF900C94D42090E0FC01BC
:10274000E256FC4F2491FC01E652FC4F3491FC010F
:10275000EA53FC4FE491EE2309F43CC0222339F103
:10276000233091F038F42130A9F0223001F584B5FE
:102770008F7D12C0273091F02830A1F02430B9F4B9
:10278000809180008F7D03C0809180008F7780933F
:1027900080000DC084B58F7784BD09C08091B000E2
:1027A0008F7703C08091B0008F7D8093B000F0E000
:1027B000EE0FFF1FEE54FC4FA591B4919FB7F89414
:1027C000611104C08C913095382302C0EC913E2BEE
:1027D0003C939FBF08952FB7F894609110057091B6
:1027E000110580911205909113052FBF0895CF9286
:1027F000DF92EF92FF92CF93DF93D82F0E94EB13DB
:102800006B017C0181E0D11180E08093F304C0E092
:102810000E94EB13DC01CB018C199D09AE09BF09A5
:10282000803D9740A105B10590F4C11110C0A89555
:102830000E9435040E942F048091F2048770833037
:1028400039F7C1E08091F3048D13E1CFE1CF8C2FF4
:10285000DF91CF91FF90EF90DF90CF9008951F927E
:102860000F920FB60F9211242F933F938F939F9344
:10287000AF93BF938091100590911105A09112051F
:10288000B091130530910F0526E0230F2D3720F46A
:102890000296A11DB11D05C029E8230F0396A11DB5
:1028A000B11D20930F058093100590931105A093FF
:1028B0001205B09313058091140590911505A09110
:1028C0001605B09117050196A11DB11D8093140541
:1028D00090931505A0931605B0931705BF91AF917E
:1028E0009F918F913F912F910F900FBE0F901F904E
:1028F00018951F920F920FB60F9211242F933F93AA
:102900004F935F936F937F938F939F93AF93BF93F7
:10291000EF93FF93E0912A01F0912B010995FF912C
:10292000EF91BF91AF919F918F917F916F915F9147
:102930004F913F912F910F900FBE0F901F901895C0
:102940001F920F920FB60F9211242F933F934F9324
:102950005F936F937F938F939F93AF93BF93EF9307
:10296000FF93E0912801F09129010995FF91EF91E2
:10297000BF91AF919F918F917F916F915F914F9197
:102980003F912F910F900FBE0F901F9018951F929F
:102990000F920FB60F9211242F933F934F935F9393
:1029A0006F937F938F939F93AF93BF93EF93FF9317
:1029B00084EA92E00E948610FF91EF91BF91AF915F
:1029C0009F918F917F916F915F914F913F912F9147
:1029D0000F900FBE0F901F9018951F920F920FB679
:1029E0000F9211242F938F939F93EF93FF93E09176
:1029F000B402F091B5028081E091BA02F091BB027D
:102A000082FD12C090818091BD028F5F8F732091F3
:102A1000BE02821751F0E091BD02F0E0EC55FD4F8F
:102A2000958F8093BD0201C08081FF91EF919F91AE
:102A30008F912F910F900FBE0F901F9018952F928E
:102A40003F924F925F927F928F929F92AF92BF92EE
:102A5000CF92DF92EF92FF920F931F93CF93DF936A
:102A600036E0732E4BE6A42E45E0B42E57E8852EB3
:102A700055E0952E87E10E94CE0480FD5BC27A94DA
:102A8000772009F457C221E041E060E070E080E681
:102A90000E947F04082F813220F082EE0E94E2041F
:102AA00000E021E0402F6EEE74E081E60E947F049A
:102AB00060E487E20E94B0048091F104D82ED6949D
:102AC000D694D69429E12D1510F429E1D22E82FD59
:102AD00004C097E0492E4D0C02C080E2482E1091B0
:102AE000F2041770C091F304D091EF04C090EE048B
:102AF0005090F004133011F4C13129F08EEE94E0BF
:102B00000E94A31102C089E691E0ED2CF12C9F9365
:102B10008F938091F10482FB882780F91F928F9315
:102B20001F92DF928091F2048295869587701F92A2
:102B30008F931F92CF931F921F938091F4041F9243
:102B40008F931F925F921F92CF921F92DF938AEF13
:102B500095E09F938F930E94E8048DB79EB74696A9
:102B60000FB6F8949EBF0FBE8DBF401639F01F926E
:102B70004F921F920F9382EE95E00DC02091F104C9
:102B8000822F8370823091F01F9292E09F931F9268
:102B90008F938CEC95E09F938F930E94E8040F90A5
:102BA0000F900F900F900F900F9064CF809127059A
:102BB0008068809327058091A002581253C0822F0D
:102BC0008695869586958A3108F089E138E0839F5D
:102BD000C00111242770822B8093F104F701E25188
:102BE000FB4F17828091F20483FF21C08BEB95E0AD
:102BF0009F938F930E94E80481E2EEEEF4E0ADEC47
:102C0000B4E001900D928A95E1F78091D104877F1D
:102C100080618093D1048091A0028093CE04D093F0
:102C2000CF048DEC94E00E944C060F900F908091A1
:102C3000F20484FD0AC0133081F48091F30491EF13
:102C4000980F933008F083C015CF88E295E09F93EA
:102C50008F930E94E8040F900F908EEE94E00E94F4
:102C6000BF0308CF3FEF531269C08CE195E09F93FB
:102C70008F930E94E8040F900F90133009F04FC01B
:102C80008091260582FF03C0C73009F4F3CEC83017
:102C900009F4F0CEC43109F0EDCE8091A102C81242
:102CA000E9CE0E94EB136B017C0133E0D322EE24CA
:102CB000FF240E947F181B012C01C114D104E104E0
:102CC000F104F1F00E947F18DC01CB018219930915
:102CD000A409B509883E9340A105B10570F381E0D0
:102CE000C81AD108E108F10898EE290E93E0391EC0
:102CF000411C511CC114D104E104F10419F7DDCFCA
:102D0000C091A10200E025E143E06FEF8D2F0E940A
:102D100023116C2F0E9467030E94F505ABCE8091B2
:102D2000A102C812A7CE8CE095E09F938F930E94DA
:102D3000E8048EEE94E00E94BF0306C085EF94E0A5
:102D40009F938F930E94E8040F900F9093CEC4300E
:102D500009F490CEC83011F5C0912605C0FF1BC004
:102D60000E943F128F3F09F485CE8F5F8F3F09F499
:102D700081CE9091A202891708F07CCEC1FD7ACE57
:102D80008093A202D093A1021F928F931F92DF9390
:102D90008FE995E000CF9F928F92D4CFC831B9F4DC
:102DA0000E943F121F928F931F92DF93BF92AF92A8
:102DB0000E94E80400E029E143E06FEF8D2F0E94BC
:102DC000231161E00E9467030E94F505E8CEC93136
:102DD000A9F48091260583FF0EC0877F8093260586
:102DE0000E943F12809328051F928F9382E595E001
:102DF0009F938F9343C085E395E0A2CFCE3109F432
:102E000039CECD31B1F400E02FE143E06FEF80E047
:102E10000E942311FC0184818F71806484838381EB
:102E200087708061838380E09FEF90878783CF01E5
:102E300073CF9091EF04911179C08D3059F498E0DF
:102E400088E10FB6F894A895809360000FBE909328
:102E50006000FFCF8B31C9F40E943F1291E08111D5
:102E600001C090E080911B0590FB80F980931B05C9
:102E70001F929F9320EE34E03F932F930E94E8042B
:102E80000F900F900F900F90F5CD863099F49091A0
:102E9000F50481E0992319F09D3409F080E08093D6
:102EA0001A0541E050E063E071E08AE195E00E949C
:102EB000C420E0CD833119F40E94D50FDBCD8231DF
:102EC00071F40E9440046B017C0100E026E143E0C4
:102ED0006FEF80E00E942311B701A6010DC0823080
:102EE00081F400E022E043E06FEF80E00E942311D4
:102EF0004FEF51E063E072E00E9458030E944C06DD
:102F0000B9CD813061F420E030E0232B09F4B2CD5B
:102F10008EEE94E00E94A9030E940000ABCD8A309F
:102F200009F4A8CD8C3109F098CEA4CD8A3109F0EE
:102F300094CEA0CDDF91CF911F910F91FF90EF9094
:102F4000DF90CF90BF90AF909F908F907F905F90D9
:102F50004F903F902F900895CF93DF93C82FD62F97
:102F6000672F90E083569E4F0E94D420CF5F8C2F16
:102F700090E06D2F83569E4FDF91CF910C94D4201B
:102F8000CF93DF93FC01108211821282148215828A
:102F90001682DC0117968AE1ED0119928A95E9F70C
:102FA00082E08383DF91CF910895FF920F931F9367
:102FB000CF93DF93E4EAF2E01382128288EE93E08B
:102FC000A0E0B0E084839583A683B78384E391E097
:102FD0009183808385EC90E09587848784EC90E0F2
:102FE0009787868780EC90E0918B808B81EC90E0D6
:102FF000938B828B82EC90E0958B848B86EC90E0B7
:10300000978B868B118E128E138E148E8EEE94E01B
:103010000E94C0178DEC94E00E94C0178CEA94E0E7
:103020000E94C017ECEAF4E0C1E0C68382E2858327
:103030008BE894E00E94C017EBE8F4E0C68383E2DB
:1030400085838AE694E00E94C017EAE6F4E0C6832E
:10305000D8E1D58389E494E00E94C017E9E4F4E064
:10306000C2E0C683D58388E294E00E94C017E8E2FC
:10307000F4E0C68389E1F82EF58287E094E00E94AF
:10308000C017E7E0F4E0C6830AE1058386EE93E02B
:103090000E94C017E6EEF3E0C6831CE1158385ECC1
:1030A00093E00E94C017E5ECF3E0C3E0C683D5834C
:1030B00084EA93E00E94C017E4EAF3E0C683F58255
:1030C00083E893E00E94C017E3E8F3E0C68305833A
:1030D00082E693E00E94C017E2E6F3E0C6838BE14C
:1030E000858381E493E00E94C017E1E4F3E0C683A6
:1030F0001583DF91CF911F910F91FF9008953FB7F6
:10310000F8948091140590911505A0911605B09141
:10311000170526B5A89B05C02F3F19F00196A11DE4
:10312000B11D3FBFBA2FA92F982F8827820F911D5D
:10313000A11DB11DBC01CD0143E0660F771F881FA3
:10314000991F4A95D1F70895789484B5826084BD1B
:1031500084B5816084BD85B5826085BD85B581609B
:1031600085BD80916E00816080936E001092810019
:1031700080918100826080938100809181008160D4
:103180008093810080918000816080938000809195
:10319000B10084608093B1008091B0008160809321
:1031A000B00080917A00846080937A0080917A00E8
:1031B000826080937A0080917A008E7F80937A007B
:1031C00080917A00806880937A001092C100A8955F
:1031D0000E9445030E945C11C0E1D0E0F12CFE0189
:1031E000F595E795EB50FC4FE491C0FFE295EF7049
:1031F000E83008F0A0C0F0E0EB50FC4FF4906F2DE9
:1032000084EA92E00E94A8102196C23FD10539F7C6
:103210008EEE93E00E94521287E192E00E943C11F0
:103220001F928FEF8F9380EB94E09F938F930E9478
:10323000E80480911B058D7F80931B050F900F90F4
:103240000F900F9083EA94E09F938F930E94E8047D
:103250000E9470090F900F9041E050E063E071E030
:103260008AE195E00E94AC206FEF81E090E00E943F
:10327000D420809127058F788093270510921D0513
:1032800010921C058CE291E00E9453048BE596E0BD
:1032900090931905809318051F921F9283E18F93D5
:1032A00088E88F938EE694E09F938F930E94E804C2
:1032B0000E94EB136B017C010F900F900F900F9009
:1032C0000F900F900E94EB13DC01CB018C199D092C
:1032D000AE09BF0988389341A105B105C0F186E95F
:1032E00094E09F938F930E94E8040E94F50E0F9044
:1032F0000F909091260592FB882780F992FD0E94FD
:10330000D4041F928F938EE794E09F938F930E9433
:10331000E804A8950F900F900F900F90A8950E9429
:1033200035048091260584FD0E941F150E94120A13
:103330000E941711F3CF1BEF1E0F00E06F2D84EAE0
:1033400092E00E94A8100F5F0117C0F35DCF0E94AA
:1033500035040E942F04A8958091260582FFB2CFE4
:10336000BECFEF920F931F93CF93DF93E80147FDFA
:1033700002C034E001C034E1042E000C550B57FFAD
:1033800003C0519541955109E32E022F242FAE0120
:103390000E94961CCE01DF91CF911F910F91EF906B
:1033A0000895FC0188279927E89421912032E9F3B8
:1033B000293010F02E30C8F32B3241F02D3239F481
:1033C000689404C00E94451A820F911D21912053D8
:1033D0002A30C0F31EF4909581959F4F08951F9356
:1033E000FC0199278827BC01E89411911032E9F378
:1033F000193010F01E30C8F31B3251F01D3249F461
:10340000689406C00E94301A610F711D811D911DC4
:10341000119110531A30B0F33EF490958095709549
:1034200061957F4F8F4F9F4F1F910895BB274A3063
:1034300031F4992322F4BDE2909581959F4F0C942D
:10344000701ABB272A3051F4992342F4BDE29095BB
:103450008095709561957F4F8F4F9F4F0C944E1ABA
:10346000592F482F372F262F660F771F881F991F38
:10347000660F771F881F991F620F731F841F951F88
:10348000660F771F881F991F08957AE0979F902DE8
:10349000879F802D910D11240895BB27FA01A62F37
:1034A0006217710581059105330B30FB66F0AA2781
:1034B000660F771F881F991FAA1FA21710F0A21B63
:1034C00063953850A9F7A05DAA3308F0A95DA193D0
:1034D00036F7B111B1931082CA010C94DE1EBB27DE
:1034E000FB015527AA27880F991FAA1FA41710F0C0
:1034F000A41B83955051B9F7A05DAA3308F0A95DCC
:10350000A193009779F7B111B1931192CB010C946B
:10351000DE1EAEE0B0E0EFE8FAE10C94F4208C019E
:10352000FA018EE08C831A83098377FF02C060E082
:1035300070E8CB0101979E838D83A901BF01CE0165
:1035400001960E94B51A4D815E8157FD0AC02F81F8
:103550003885421753070CF49A01F801E20FF31F64
:1035600010822E96E4E00C941021ABE0B0E0EBEB7F
:10357000FAE10C94E6206C017B018A01FC011782C0
:103580001682838181FFCCC1CE0101963C01F601F8
:103590009381F70193FD859193FF81917F018823AA
:1035A00009F4BAC1853239F493FD859193FF819175
:1035B0007F01853229F4B60190E00E94EE1EE7CF2C
:1035C000912C212C312CFFE1F315D8F08B3279F0BE
:1035D00038F4803279F08332A1F4232D20611DC0AC
:1035E0008D3261F0803369F4232D216016C0832D64
:1035F0008260382EE32DE4603E2E2AC0F32DF86061
:103600001DC037FC2DC020ED280F2A3040F08E322F
:10361000B9F436FC81C1232D2064322E19C036FE48
:1036200006C08AE0989E200D1124922E11C0EAE077
:103630002E9E200D1124222EF32DF0623F2E08C065
:103640008C3621F4832D8068382E02C0883641F4F0
:10365000F70193FD859193FF81917F018111B3CF94
:10366000982F9F7D9554933028F40C5F1F4F9FE354
:1036700099830DC0833631F0833771F0833509F0BB
:1036800059C021C0F801808189830E5F1F4F8824B3
:103690008394912C530113C02801F2E04F0E511C6A
:1036A000F801A080B18036FE03C0692D70E002C031
:1036B0006FEF7FEFC5010E94D31E4C018201F32DF5
:1036C000FF773F2E16C0280122E0420E511CF80160
:1036D000A080B18036FE03C0692D70E002C06FEF9C
:1036E0007FEFC5010E94C81E4C01F32DF0683F2EEC
:1036F000820133FC1BC0822D90E088169906B0F43D
:10370000B60180E290E00E94EE1E2A94F4CFF5010B
:1037100037FC859137FE81915F01B60190E00E94F0
:10372000EE1E21102A9421E0821A9108811491043E
:1037300071F7E8C0843611F0893641F5F80137FE9B
:1037400007C060817181828193810C5F1F4F08C027
:1037500060817181072E000C880B990B0E5F1F4F43
:10376000F32DFF763F2E97FF09C0909580957095B9
:1037700061957F4F8F4F9F4FF0683F2E2AE030E0DA
:10378000A3010E942A1F882E861845C0853731F470
:10379000232D2F7EB22E2AE030E025C0932D997F75
:1037A000B92E8F36C1F018F4883579F0B5C080375E
:1037B00019F0883721F0B0C0E92FE061BE2EB4FEC9
:1037C0000DC0FB2DF460BF2E09C034FE0AC0292FA6
:1037D0002660B22E06C028E030E005C020E130E0CF
:1037E00002C020E132E0F801B7FE07C060817181BC
:1037F000828193810C5F1F4F06C06081718180E0E0
:1038000090E00E5F1F4FA3010E942A1F882E86188A
:10381000FB2DFF773F2E36FE0DC0232D2E7FA22ECF
:10382000891458F434FE0BC032FC09C0832D8E7EFF
:10383000A82E05C0B82CA32C03C0B82C01C0B92CED
:10384000A4FE0FC0FE01E80DF11D8081803321F43C
:103850009A2D997EA92E09C0A2FE06C0B394B394F6
:1038600004C08A2D867809F0B394A3FC11C0A0FE91
:1038700006C0B21488F4280C922C9B180EC0B21407
:1038800060F4B60180E290E00E94EE1EB394F7CFA0
:10389000B21418F42B1802C0982C212CA4FE10C0CE
:1038A000B60180E390E00E94EE1EA2FE17C0A1FCCC
:1038B00003C088E790E002C088E590E0B6010CC044
:1038C0008A2D867859F0A1FE02C08BE201C080E209
:1038D000A7FC8DE2B60190E00E94EE1E891438F438
:1038E000B60180E390E00E94EE1E9A94F7CF8A948E
:1038F000F301E80DF11D8081B60190E00E94EE1EFB
:103900008110F5CF222009F442CEB60180E290E08A
:103910000E94EE1E2A94F6CFF6018681978102C09E
:103920008FEF9FEF2B96E2E10C940221A9E0B0E02B
:10393000ECE9FCE10C94EC206A01122FB02E2BE391
:10394000201720F0FF24F394F00E02C02CE3F22E97
:103950000F2D27E0AE014F5F5F4F0E94F01DBC01AD
:103960004981842F8970813031F0E1FC06C0E0FE8E
:1039700006C090E205C09DE203C09BE201C090E05A
:103980005E2D507143FF3CC0911102C083E001C025
:1039900084E0811718F4212F281B01C020E0511169
:1039A0000BC0F601822F30E2882319F03193815049
:1039B000FBCFC20ED11C20E0992329F0D6019C93A5
:1039C000F60131966F01C6010396E2FE0AC03EE49D
:1039D000D6013C9341E411964C93119712963C9377
:1039E00006C03EE6F601308341E641833283FC01A6
:1039F000322F40E2332309F442C041933150FACFD1
:103A000042FF44C0911102C083E001C084E08117ED
:103A100018F4212F281B01C020E051110BC0F60122
:103A2000822F30E2882319F031938150FBCFC20EF0
:103A3000D11C20E0992329F0D6019C93F601319600
:103A40006F01C6010396E2FE0BC039E4D6013C9338
:103A50003EE411963C93119736E412963C9307C0CE
:103A600039E6F60130833EE6318336E63283FC01E7
:103A7000322F40E2332319F041933150FBCFFC0148
:103A8000E20FF11D10828EEF9FEFA6C021E030E023
:103A9000911102C020E030E0161617061CF4FB015D
:103AA000319602C0E1E0F0E02E0F3F1FBB2021F075
:103AB000EB2DF0E0319602C0E0E0F0E02E0F3F1F6A
:103AC000E12FF0E02E173F071CF4121B212F01C03D
:103AD00020E08E2D887159F4F601822F30E2882380
:103AE00019F031938150FBCFC20ED11C20E09923F5
:103AF00029F0D6019C93F60131966F0151110BC04C
:103B0000F601822F90E3882319F091938150FBCF27
:103B1000C20ED11C20E00F2D060F9A81342F307178
:103B200044FF03C0913309F40150101624F4093006
:103B300018F008E001C001E0AB0177FF02C040E0EF
:103B400050E0FB01E41BF50BA1E0B0E0AC0FBD1FA2
:103B5000EA0FFB1F8EE2A82E4B01801A91080B2D55
:103B600010E01195019511094F3FBFEF5B0721F45C
:103B7000D601AC9211966D01641775072CF084166E
:103B8000950614F4818101C080E3415051093196BA
:103B9000D60111967D014017510724F0D6018C9370
:103BA0006701E2CF6417750739F4963320F4953333
:103BB00019F4311101C081E3F6018083F701822FEE
:103BC00090E2882319F091938150FBCFF701E20F27
:103BD000F11D108280E090E02996ECE00C94082121
:103BE000283008F027E03327DA01990F311D87FDCF
:103BF000916000966105710539F432602E5F3D9346
:103C000030E32A95E1F708959F3F30F08038710541
:103C1000610509F03C5F3C5F3D93913008F080689E
:103C2000911DDF93CF931F930F93FF92EF92192F64
:103C3000987F9695E92F96959695E90FFF27EE5375
:103C4000FF4F99273327EE24FF24A701E7010590B2
:103C50000894079428F4360FE71EF81E491F511DDB
:103C6000660F771F881F991F0694A1F70590079488
:103C700028F4E70EF81E491F561FC11D770F881F35
:103C8000991F661F0694A1F70590079428F4F80E73
:103C9000491F561FC71FD11D880F991F661F771F09
:103CA0000694A1F70590079420F4490F561FC71FEB
:103CB000D81F990F661F771F881F0694A9F7849154
:103CC0001095177041F0D695C79557954795F7947D
:103CD000E7941A95C1F7E8E6F0E06894159015911D
:103CE00035916591959105907FE27395E118F10A00
:103CF000430B560BC90BD009C0F7E10CF11E431F53
:103D0000561FC91FD01D7EF4703311F48A95E6CF7B
:103D1000E894015030F0080F0AF40027021708F465
:103D2000202F2395022F7A3328F079E37D932A956B
:103D3000E9F710C07D932A9589F6069497956795C3
:103D4000379517951794E118F10A430B560BC90BD9
:103D5000D00998F023957E9173957A3308F070E33B
:103D60007C932013B8F77E9170617D9330F083953A
:103D700071E37D9370E32A95E1F71124EF90FF90B2
:103D80000F911F91CF91DF91992787FD909508950D
:103D9000FC010590615070400110D8F78095909516
:103DA0008E0F9F1F0895FC0161507040019001101B
:103DB000D8F7809590958E0F9F1F0895DC01FC0128
:103DC000672F71917723E1F7329704C07C916D934F
:103DD00070836291AE17BF07C8F308950F931F93C6
:103DE000CF93DF93FB01238121FD03C08FEF9FEF72
:103DF0002CC022FF16C0468157812481358142178D
:103E0000530744F4A081B1819D012F5F3F4F31835F
:103E100020838C93268137812F5F3F4F3783268302
:103E200014C08B01EC01FB010084F185E02D0995A4
:103E3000892BE1F6D80116968D919C9117970196E2
:103E400017969C938E931697CE01DF91CF911F9179
:103E50000F910895FA01AA27283051F1203181F1FC
:103E6000E8946F936E7F6E5F7F4F8F4F9F4FAF4F82
:103E7000B1E03ED0B4E03CD0670F781F891F9A1F95
:103E8000A11D680F791F8A1F911DA11D6A0F711D49
:103E9000811D911DA11D20D009F468943F912AE055
:103EA000269F11243019305D3193DEF6CF0108953D
:103EB000462F4770405D4193B3E00FD0C9F7F6CF6E
:103EC000462F4F70405D4A3318F0495D31FD405236
:103ED000419302D0A9F7EACFB4E0A69597958795CC
:103EE00077956795BA95C9F70097610571050895AB
:103EF0009B01AC010A2E0694579547953795279557
:103F0000BA95C9F7620F731F841F951FA01D0895EE
:103F10000E94CA1F08F481E00895E89409C097FB45
:103F20003EF490958095709561957F4F8F4F9F4F90
:103F30009923A9F0F92F96E9BB279395F6958795D4
:103F400077956795B795F111F8CFFAF4BB0F11F497
:103F500060FF1BC06F5F7F4F8F4F9F4F16C088233E
:103F600011F096E911C0772321F09EE8872F762F74
:103F700005C0662371F096E8862F70E060E02AF0B5
:103F80009A95660F771F881FDAF7880F96958795A1
:103F900097F90895990F0008550FAA0BE0E8FEEF76
:103FA00016161706E807F907C0F012161306E407FD
:103FB000F50798F0621B730B840B950B39F40A26F6
:103FC00061F0232B242B252B21F408950A2609F4D4
:103FD000A140A6958FEF811D811D08950E940120AB
:103FE0000C9472200E94642038F00E946B2020F014
:103FF000952311F00C945B200C94612011240C94F7
:10400000A6200E94832070F3959FC1F3950F50E086
:10401000551F629FF001729FBB27F00DB11D639F7A
:10402000AA27F00DB11DAA1F649F6627B00DA11D20
:10403000661F829F2227B00DA11D621F739FB00DC6
:10404000A11D621F839FA00D611D221F749F332736
:10405000A00D611D231F849F600D211D822F762FCF
:104060006A2F11249F5750409AF0F1F088234AF0AC
:10407000EE0FFF1FBB1F661F771F881F9150504018
:10408000A9F79E3F510580F00C945B200C94A6206C
:104090005F3FE4F3983ED4F3869577956795B7959F
:1040A000F795E7959F5FC1F7FE2B880F911D9695B9
:1040B000879597F9089597F99F6780E870E060E029
:1040C00008959FEF80EC089500240A9416161706B1
:1040D00018060906089500240A94121613061406F9
:1040E00005060895092E0394000C11F4882352F05C
:1040F000BB0F40F4BF2B11F460FF04C06F5F7F4F14
:104100008F4F9F4F089557FD9058440F551F59F0FA
:104110005F3F71F04795880F97FB991F61F09F3FB4
:1041200079F087950895121613061406551FF2CFDD
:104130004695F1DF08C0161617061806991FF1CF2D
:1041400086957105610508940895E894BB27662754
:104150007727CB0197F90895DC01CB01FC01F99990
:10416000FECF06C0F2BDE1BDF89A319600B40D92C3
:1041700041505040B8F70895F999FECF92BD81BDE6
:10418000F89A992780B50895DC01A40FB51F415016
:10419000504048F0CB01840F951F2E910E94D520EE
:1041A00041505040D0F70895262FF999FECF92BD87
:1041B00081BDF89A019700B4021639F01FBA20BDEC
:1041C0000FB6F894FA9AF99A0FBE08952F923F927B
:1041D0004F925F926F927F928F929F92AF92BF9217
:1041E000CF92DF92EF92FF920F931F93CF93DF93C3
:1041F000CDB7DEB7CA1BDB0B0FB6F894DEBF0FBE20
:10420000CDBF09942A88398848885F846E847D846C
:104210008C849B84AA84B984C884DF80EE80FD806E
:104220000C811B81AA81B981CE0FD11D0FB6F894E4
:10423000DEBF0FBECDBFED0108955058BB27AA27A2
:104240000E9435210C9472200E94642038F00E9454
:104250006B2020F039F49F3F19F426F40C94612070
:104260000EF4E095E7FB0C945B20E92F0E9483207D
:1042700058F3BA17620773078407950720F079F49B
:10428000A6F50C94A5200EF4E0950B2EBA2FA02DC8
:104290000B01B90190010C01CA01A0011124FF27F3
:1042A000591B99F0593F50F4503E68F11A16F040EE
:1042B000A22F232F342F4427585FF3CF46953795ED
:1042C0002795A795F0405395C9F77EF41F16BA0BB2
:1042D000620B730B840BBAF09150A1F0FF0FBB1F60
:1042E000661F771F881FC2F70EC0BA0F621F731FA9
:1042F000841F48F4879577956795B795F7959E3F06
:1043000008F0B0CF9395880F08F09927EE0F979596
:10431000879508950E949E210C9472200E946B2024
:1043200058F00E94642040F029F45F3F29F00C947B
:104330005B2051110C94A6200C9461200E948320D4
:1043400068F39923B1F3552391F3951B550BBB27C4
:10435000AA2762177307840738F09F5F5F4F220F09
:10436000331F441FAA1FA9F335D00E2E3AF0E0E800
:1043700032D091505040E695001CCAF72BD0FE2F4A
:1043800029D0660F771F881FBB1F261737074807DE
:10439000AB07B0E809F0BB0B802DBF01FF27935896
:1043A0005F4F3AF09E3F510578F00C945B200C94DF
:1043B000A6205F3FE4F3983ED4F386957795679502
:1043C000B795F7959F5FC9F7880F911D96958795CB
:1043D00097F90895E1E0660F771F881FBB1F6217EA
:1043E00073078407BA0720F0621B730B840BBA0BA8
:1043F000EE1F88F7E09508950E948B2088F09F5764
:1044000098F0B92F9927B751B0F0E1F0660F771FF8
:10441000881F991F1AF0BA95C9F714C0B13091F0EE
:104420000E94A520B1E008950C94A520672F782F55
:104430008827B85F39F0B93FCCF3869577956795B3
:10444000B395D9F73EF490958095709561957F4F1F
:104450008F4F9F4F08950E94CA1F08F48FEF089551
:104460000E94CA1F880B990B0895AA1BBB1B51E120
:1044700007C0AA1FBB1FA617B70710F0A61BB70BD4
:10448000881F991F5A95A9F780959095BC01CD0179
:104490000895A1E21A2EAA1BBB1BFD010DC0AA1F85
:1044A000BB1FEE1FFF1FA217B307E407F50720F09D
:1044B000A21BB30BE40BF50B661F771F881F991F18
:1044C0001A9469F760957095809590959B01AC0161
:1044D000BD01CF010895EE0FFF1F0590F491E02D6F
:1044E000099481E090E0F8940C948522FB01DC01B2
:1044F0004150504048F001900D920020C9F701C092
:0E4500001D9241505040E0F70895F894FFCF0F
:10450E00FFFFFF00FCE1A8A8FFB4068C06C9079FB9
:10451E000781072E070207F0062808EE0701D200D2
:10452E00280096005000010110101010480949088B
:10453E0000000000A81011103F10F51070104E1062
:10454E0062107072654877496E69743A20006E6524
:10455E00772070756C7365436F756E743A20736552
:10456E007420666C6F772030003C4E4F4E43453EB4
:10457E00004F4B004E41434B003F002100626566E9
:10458E006F72653A20005761746572204D657465CF
:10459E007200322E342E312D30313800322E332E21
:1045AE003100322E342E312D3031382032313A3224
:1045BE00373A32312046656220313320323031397C
:1045CE000057617465726D6574657200416E616C41
:1045DE006F67205365742F476574204368696C6458
:1045EE00004465627567205365742F4765742043D8
:1045FE0068696C64006E657750756C73653A20005F
:10460E0020666C6F773A200055706C696E6B204394
:10461E006865636B3A20000D0A00696E666F726DF5
:10462E00475700466C6F7720746F20686967683A49
:10463E00200073657475703A20006E616E00696EAD
:06464E0066006F766600B5
:00000001FF
