:100000000C9433010C9491120C946A120C945B01C1
:100010000C945B010C945B010C94B8120C945B0182
:100020000C945B010C945B010C945B010C945B01E0
:100030000C945B010C945B010C945B010C945B01D0
:100040000C9420120C945B010C94EE110C94C811CA
:100050000C945B010C945B010C945B010C945B01B0
:100060000C945B010C945B0100000008000201008D
:1000700000030407000000000000000068775265DC
:10008000626F6F740064626734206E6F7420706FEB
:10009000737369626C6500646267332073656E64B4
:1000A0002064756D6D7900646267322073656E64DB
:1000B00020565F564152332D3500646267312073FC
:1000C000656E6420565F5641523500646267203089
:1000D0000054585F4552520054585F4F4B005365CF
:1000E000744765744D6574657256616C756500483A
:1000F0007754696D65004462675F52657475726E0E
:10010000004462675F4C6576656C0052465F4368E9
:10011000616E6E656C0050415F4C6576656C005495
:10012000585F525353490043707554656D700050C9
:100130006172656E744E6F646500506173736976A9
:10014000654E6F646500436F6D70696C65446174E2
:100150006500416E616C6F67446267004761736D53
:1001600065746572004D617220323720323032334F
:100170002031373A34393A3437004175746F52655B
:10018000626F6F7400524632345F50415F4D415888
:1001900000466C7730002D2D2D00466C6F77207453
:1001A0006F206869676800322E332E320A00207C87
:1001B0005F5C2F602C0A0702200220B287100340E8
:1001C0000120002402221002220202200222002228
:1001D00020020220222710134101010103222030B6
:1001E0004020305203402214020310522402217195
:1001F000010010101210122210100224010103221B
:1002000003002001010032203712100121322601A3
:1002100028403222121012122243222412100122EC
:100220002470C122240F0F00000000250028002B9D
:100230000000000000240027002A00040404040435
:100240000404040202020202020303030303030183
:10025000020408102040800102040810200102045A
:1002600008102000D71211241FBECFEFD8E0DEBF48
:10027000CDBF11E0A0E0B1E0EEE4F5E302C00590EF
:100280000D92A037B107D9F724E0A0E7B1E001C093
:100290001D92AB37B207E1F711E0C3E3D1E004C030
:1002A0002197FE010E946D1AC233D107C9F70E943F
:1002B00098130C94A51A0C94000090E0FC01E15BEB
:1002C000FD4F2491855C9D4FFC018491882399F01A
:1002D00090E0880F991FFC01EF5CFD4FA591B49150
:1002E000FC01E95DFD4F859194918FB7F894EC91F5
:1002F000E22BEC938FBF0895942FE5E3F4E0309167
:10030000A50131838283668325834481487F492BFD
:10031000477E4483CF01089580E480937C008091E0
:100320007A00806480937A0080917A0086FDFCCF09
:1003300080917800909179000895AF92BF92CF920A
:10034000DF92EF92FF920F931F93CF93DF936C0195
:100350007B018B01040F151FEB015E01AE18BF0876
:10036000C017D10759F06991D601ED91FC91019028
:10037000F081E02DC6010995892B79F7C501DF9140
:10038000CF911F910F91FF90EF90DF90CF90BF9092
:10039000AF900895FC01538D448D252F30E0842FBC
:1003A00090E0821B930B541710F0CF96089501979D
:1003B0000895FC01918D828D981761F0A28DAE0F8A
:1003C000BF2FB11D5D968C91928D9F5F9F73928F11
:1003D00090E008958FEF9FEF0895FC01918D828D3D
:1003E000981731F0828DE80FF11D858D90E008950A
:1003F0008FEF9FEF0895FC01918D228D892F90E062
:10040000805C9F4F821B91098F739927089589EA19
:1004100091E00E94FB0121E0892B09F420E0822F6A
:100420000895FC01A48DA80FB92FB11DA35ABF4F89
:100430002C91848D90E001968F739927848FA689E3
:10044000B7892C93A089B1898C91837080648C9337
:10045000938D848D981306C00288F389E02D8081E6
:100460008F7D80830895EF92FF920F931F93CF9318
:10047000DF93EC0181E0888F9B8D8C8D98131AC0DF
:10048000E889F989808185FF15C09FB7F894EE89C6
:10049000FF896083E889F989808183708064808323
:1004A0009FBF81E090E0DF91CF911F910F91FF906E
:1004B000EF900895F62E0B8D10E00F5F1F4F0F7316
:1004C0001127E02E8C8D8E110CC00FB607FCFACFD1
:1004D000E889F989808185FFF5CFCE010E9411025C
:1004E000F1CFEB8DEC0FFD2FF11DE35AFF4FF082A2
:1004F0009FB7F8940B8FEA89FB8980818062CFCF08
:10050000CF93DF93EC01888D8823B9F0AA89BB894A
:10051000E889F9898C9185FD03C0808186FD0DC035
:100520000FB607FCF7CF8C9185FFF2CF808185FF56
:10053000EDCFCE010E941102E9CFDF91CF91089556
:1005400080E090E0892B29F00E94070281110C9431
:10055000000008953FB7F89480919F019091A00109
:10056000A091A101B091A20126B5A89B05C02F3F83
:1005700019F00196A11DB11D3FBFBA2FA92F982FC9
:100580008827BC01CD01620F711D811D911D43E0C3
:10059000660F771F881F991F4A95D1F708958F928C
:1005A0009F92AF92BF92CF92DF92EF92FF926B0138
:1005B0007C010E94AA024B015C01C114D104E10438
:1005C000F104B9F00E94AA02681979098A099B0905
:1005D000683E73408105910580F321E0C21AD1087D
:1005E000E108F10888EE880E83E0981EA11CB11C7A
:1005F000E4CFFF90EF90DF90CF90BF90AF909F90AF
:100600008F9008952FB7F89460919B0170919C0191
:1006100080919D0190919E012FBF08950895CF92E2
:10062000DF92EF92FF920E9402036B017C018091A6
:10063000880190918901A0918A01B0918B01A70155
:100640009601281B390B4A0B5B0BCA01B90121E04B
:1006500020938701109286010E94A6179B01AC018E
:1006600060E070E68AE697E40E94A31920E030E09B
:1006700040E251E40E940718609382017093830165
:100680008093840190938501C0928801D092890162
:10069000E0928A01F0928B0180917E0190917F011E
:1006A000A0918001B09181010196A11DB11D80939F
:1006B0007E0190937F01A0938001B0938101FF9010
:1006C000EF90DF90CF90089508950895FC019381F5
:1006D00097706A3108F069E188E0689FB0011124E1
:1006E000692B6383CF0108950F931F93CF93DF93FB
:1006F000EC018B0162E00E9466038C818F71806443
:100700008C8318870F83CE01DF91CF911F910F91BA
:1007100008950F931F93CF93DF93EC018B0162E059
:100720000E9466038C818F7180668C8318870F838B
:10073000CE01DF91CF911F910F9108951F93CF9319
:10074000DF93EC01162F61E00E9466038C818F71AC
:1007500080628C831F83CE01DF91CF911F9108951A
:10076000FC0183818695869586958A3108F089E11A
:100770000895E0918D01F0918E01309721F0028073
:10078000F381E02D099408950F931F930E940203B3
:1007900000918F011091900120919101309192016F
:1007A000601B710B820B930B1F910F9108959C019D
:1007B00080918D0190918E0182179307F1F09091B5
:1007C00097019F719093970130938E0120938D0133
:1007D000E0918D01F0918E01309721F00190F08130
:1007E000E02D09950E94020360938F0170939001A0
:1007F0008093910190939201089580919701805E7A
:1008000080939701E5CF0F931F930E94C40320911B
:1008100098012077203779F000E117E220E030E0FE
:10082000061717072807390758F483E291E01F914C
:100830000F910C94D70300E61AEE20E030E0F0CFE1
:100840001F910F91089580919801982F9F70963075
:1008500018F0807F809398010895809197018460BB
:100860008093970180919801807880939801E0911E
:100870007C01F0917D01309709F0099408958EBDB7
:1008800000000DB407FEFDCF8EB50895CF92DF9224
:10089000EF92FF926B017C0182EA91E00E94ED18D9
:1008A00099278F2D7E2D6D2D83EA91E00E94ED1802
:1008B000B7018827992784EA91E00E94ED186F2DEF
:1008C00077278827992785EA91E0FF90EF90DF90BE
:1008D000CF900C94ED18CF93DF93C82FD62F672FAE
:1008E00090E083569E4F0E94ED18CF5F8C2F90E0D2
:1008F0006D2F83569E4FDF91CF910C94ED18CF93BF
:10090000C0919901CF3FA1F00E940203609393012F
:100910007093940180939501909396018091A70123
:10092000C813C093A70189E191E0CF910C94D7033C
:100930000E94C403613D77408105910568F0809174
:100940009701803618F485E191E0EFCF877F80939F
:10095000970181E191E0E9CFCF9108958091A501C0
:100960008F3F21F085E191E00C94D7030E94C403EE
:10097000613D77408105910550F080919701803667
:1009800018F48DE091E0F0CF89E091E0EDCF08958B
:100990008DE091E00C94D703E7E9F1E08081897F55
:1009A0008E7F8083E5EAF1E081E08283118260E05E
:1009B00081E090E00C94ED18CF93DF93C82F90E086
:1009C00083569E4F0E94D518D82FCF5F8C2F90E072
:1009D00083569E4F0E94D5189D2FDF91CF91089589
:1009E0000F931F93CF93DF9382EA91E00E94D51873
:1009F000D82F83EA91E00E94D518C82F84EA91E0AD
:100A00000E94D518082F85EA91E00E94D518482F3A
:100A10008C2F90E0B0E0A0E0BA2FA92F982F882764
:100A200010E030E020E0980111270027800F911F8F
:100A3000A21FB31F8D0F911DA11DB11D50E070E0CD
:100A400060E0742F662755274427840F951FA61F43
:100A5000B71F8F3F2FEF9207A207B20751F461EA49
:100A600074E689E090E00E94460481EA94E6A9E0F9
:100A7000B0E080937E0190937F01A0938001B093BA
:100A8000810181EA91E00E94D5188A30D0F48093E8
:100A9000750182E00E94DC04019629F464EF71E0A4
:100AA00082E00E946B0480E00E94DC04019689F4DD
:100AB0006EEE71E080E0DF91CF911F910F910C9469
:100AC0006B041092750160E081EA91E00E94ED18DC
:100AD000E0CFDF91CF911F910F910895E7E9F1E009
:100AE0008081877F8F7E8083109293011092940182
:100AF000109295011092960144E050E070E060E0A1
:100B000085EA91E00C94C5180F931F93CF93DF9360
:100B1000EC018B0180E06115710519F0CB010E9499
:100B2000EE14682FCE010E9466038C818F718C8336
:100B3000CE010E94B003482F50E0B801CE010796C5
:100B40000E94F714CE010E94B0038C0F9D2F911DBF
:100B5000FC011782CE01DF91CF911F910F91089573
:100B6000BF92CF92DF92EF92FF920F931F93CF939A
:100B7000DF937B01042FB22E90E59CBD1DBC2A980B
:100B8000E0E1F0E03197F1F70E943F04182FE70110
:100B90000150A8F0BB2051F08FEF0E943F04182FA6
:100BA000E114F104A9F388832196F2CF6E018FEF4F
:100BB000C81AD80A88810E943F04E601E9CF2A9A20
:100BC00080E190E00197F1F7812FDF91CF911F91A4
:100BD0000F91FF90EF90DF90CF90BF900895CF934B
:100BE000DF931F92CDB7DEB7698320E041E0BE01FD
:100BF0006F5F7F4F0E94B0050F90DF91CF910895F6
:100C000080919801982F9077903759F0982F92956E
:100C10009F709F5F97709295907F8F78892B8093BC
:100C20009801809197018B7F8F7E809397012998FF
:100C30006CE080E20C94EF056FE080E20E94EF052B
:100C4000609108016F3F19F08AE20E94EF05299A2E
:100C5000089521E041E070E060E00C94B00520E0F0
:100C600040E070E060E00C94B005FF920F931F939A
:100C7000CF93DF93D82F8B018091A501FB01808357
:100C8000838182FD4AC0CB010E94B00397E0F92E18
:100C9000F80E8091A801C1E080FD03C0DF3F09F09C
:100CA000C0E0809172018F5F809372010115110580
:100CB00009F44DC0299880E091E00197F1F76EE0CA
:100CC00080E20E94EF0584EC90E00197F1F76D2F30
:100CD0008AE20E94EF056D2F80E30E94EF0581EE0E
:100CE0000E942F06CC2321F060E584E20E94EF05EC
:100CF00020E04F2DB80180EA0E94B005299A10E04B
:100D000000E08FEF0E942F06807351F40F3F100711
:100D100039F0A8950F5F1F4FF4CF80E2F82EB9CFBE
:100D2000299860E787E20E94EF05D82F84FF03C06F
:100D300081EE0E942F06CC2321F06FE584E20E9411
:100D4000EF050E941C06D5FF03C0C1E001C0C0E052
:100D50008C2FDF91CF911F910F91FF9008950F93EA
:100D60001F93CF938C01FC0182819091970190FF9A
:100D700004C08F3F79F5CFEF04C081111BC0C09133
:100D8000A601B8018C2F0E9435069091A6019C13F4
:100D900018C090919801811118C020918C012F5F8B
:100DA00020938C0121E0290F2F70907F922B90933C
:100DB000980107C08F3FF9F2B8010E9435068823D9
:100DC000F1F2CF911F910F910895907F9093980128
:100DD00081E0F7CF80E0F5CF2091970122FD0C94C0
:100DE000AF0680E00895FC018091A5018183948184
:100DF000907F916094838091A40180FF03C0CF0114
:100E00000C94EC0680E00895CF92DF92EF92FF926F
:100E1000CF93DF930E94C4036B017C0126E143E082
:100E200050E06FEF80E00E947C01EC0164E00E94E2
:100E300066038C818F71806A8C83CF82D886E98625
:100E4000FA86CE01DF91CF91FF90EF90DF90CF90A7
:100E50000C94EC06CF93DF93262FEA0150E040E09C
:100E6000682F80E00E947C01BE010E948405DF9112
:100E7000CF910C94EC060C94EC068FEF80939901C3
:100E8000E7E9F1E080818860808328E143E050E079
:100E90006FEF80E00E947C0161E00E949E030C9451
:100EA000AF06CF93219A229A29982A9ACFB7F8941D
:100EB00080917001811146C085E492E0FC0124918B
:100EC00049E552E0FA013491E22FF0E0EE0FFF1F06
:100ED000EF5CFD4FA591B4912C91322321F5E2E70F
:100EE000F0E02491FA014491FC0194919923D9F006
:100EF000222359F0233009F4B3C008F0A6C02130F2
:100F000009F4B4C0223009F4B5C0E92FF0E0EE0FC7
:100F1000FF1FE95DFD4FA591B4918FB7F8949C91A7
:100F2000492B4C938FBF8AE00E945D018CB5806194
:100F30008CBD8CB580648CBD8DE00E945D018BE022
:100F40000E945D01809170018F5F80937001CFBF1F
:100F500029986EE080E20E94EF0584E293E2019717
:100F6000F1F763E083E20E94EF056FE584E20E94FF
:100F7000EF0560E685E20E94EF0567E286E20E94E7
:100F8000EF0564E08DE30E94EF058DE10E942906E4
:100F9000843041F063E780E50E94EF0564E08DE373
:100FA0000E94EF0586E00E942906873209F06FC093
:100FB00085E00E942906803609F069C062E082E27D
:100FC0000E94EF0560E081E20E94EF0563E08CE3A0
:100FD0000E94EF058FEF8093030120E045E063E07E
:100FE00071E08BE20E94B00520E045E063E071E033
:100FF0008AE20E94B00520E045E063E071E080E312
:101000000E94B00582EE0E942F0681EE0E942F06FC
:1010100060E787E20E94EF058091970180618093ED
:1010200097018091A8018E7F8093A80186E6809326
:10103000A50166E690E080E00E94ED18C091A50150
:10104000CF3F51F581E191E024C02730B1F0283045
:10105000D1F0243009F059CF809180008F7D03C0FA
:10106000809180008F77809380004FCF84B58F77F9
:1010700084BD4BCF84B58F7DFBCF8091B0008F773F
:101080008093B00042CF8091B0008F7DF9CF89E08E
:1010900091E0CF910C94D7038FEF8C0F8E3FB8F770
:1010A000C093080163E082E20E94EF0561E081E203
:1010B0000E94EF050E941C066C2F90E080E00E94C9
:1010C000ED18C0CF0F931F93CF93DF93EC018B01EB
:1010D00060E00115110539F0F80101900020E9F7F1
:1010E00031976E2F601BCE010E9466038C818F7139
:1010F0008C83CE010E94B003482F50E0B801CE018E
:1011000007960E94731ACE010E94B0038C0F9D2F88
:10111000911DFC011782CE01DF91CF911F910F919C
:1011200008958091A5018F3F69F423E043E050E0EA
:101130006FEF80E00E947C016FE671E00E94620820
:101140000C94AF060895FC01948192959695977042
:10115000953029F467817085818592850895911174
:1011600004C0CF0107960C94C71460E070E0CB0177
:101170000895FC012481229526952770213011F4D1
:1011800087810895211104C007960E94A91408952B
:1011900080E00895FC012681263439F4248124FD61
:1011A0009FC025812F3241F00895273409F06AC08D
:1011B000248124FF6AC008950E94B90880937501B4
:1011C000811108C06BEC70E088E892E00E94840511
:1011D0000E94F30680917501813041F46AEB70E062
:1011E00088E892E00E9484050E94F30680917501D0
:1011F000823041F467EA70E088E892E00E9484055A
:101200000E94F30680917501833041F467E970E034
:1012100088E892E00E9484050E94F306809175019F
:10122000843051F465E870E088E892E00E9484051B
:101230000E94F3061092750180917501853029F4A2
:1012400084EB80937601109275016091750169308D
:1012500099F46CE770E088E892E00E9484050E94AF
:10126000F30688E198E00FB6F894A89580936000A3
:101270000FBE90936000FFCF643090F581EA91E05B
:101280000C94ED182230D9F0089525812F3241F5C4
:101290000E94A30860937E0170937F018093800178
:1012A0009093810181E08093220160917E01709191
:1012B0007F0180918001909181010C9446042481EA
:1012C00024FD0EC02581283119F0293151F00895EF
:1012D0000E94A30880E00E946B0484EB8093760157
:1012E00008950E94A30882E0F6CF2F923F924F927A
:1012F0005F926F927F928F929F92AF92BF92CF92A6
:10130000DF92EF92FF920F931F93CF93DF93CDB7AE
:10131000DEB7A2970FB6F894DEBF0FBECDBF36E0A2
:10132000F32ECE0101966C014EE4E42E54EB852E93
:101330005BE2952E51E1A52EB12C60E0262E60E0F7
:10134000362E44244A9472E0572E73E0672E752C93
:1013500087E10E94290680FD0EC2FA94FF2009F45D
:101360000AC221E041E070E060E080E60E94B00542
:10137000182F813220F082EE0E942F0610E021E02B
:10138000412F66E574E081E60E94B00560E487E2E3
:101390000E94EF0581E2E6E5F4E0D60101900D92AE
:1013A0008A95E1F70C81802F8370823089F6C6011F
:1013B0000E94B00302FD89E1895F1813C9CF86E559
:1013C00094E00E94B00390915A04E92FE770EAA3D9
:1013D00010915B04009157043091560420915804F9
:1013E000409198014068409398014091A5012413D1
:1013F00098C1E82FF0E0EA5AFB4F178293FF15C01F
:1014000081E2E6E5F4E0A5E3B4E001900D928A956F
:10141000E1F7977E9061909339042093360400930E
:10142000370485E394E00E94EC0680915A0484FD21
:1014300073C1FAA1F33009F06FC180915B0491EFA1
:10144000980F933008F484CF143009F481CF183109
:1014500059F429E143E050E06FEF802F0E947C01B6
:1014600061E00E949E0320C0193171F480919701C0
:1014700083FF6ECF877F8093970186E594E00E947B
:10148000B9088093990164CF1E3109F461CF1D31F1
:1014900071F42FE143E050E06FEF80E00E947C01A7
:1014A00060E07FEF0E9474030E94AF0651CF9091DD
:1014B000570491112EC18D3059F488E198E00FB690
:1014C000F894A895809360000FBE90936000FFCFC2
:1014D0008B3179F486E594E00E94B90891E081119E
:1014E00001C090E08091A40190FB80F98093A40159
:1014F0002FCF863099F490915D0481E0992319F003
:101500009D3409F080E08093A30141E050E063E066
:1015100071E083EA91E00E94DD181ACF833119F45B
:101520000E94631115CF823119F40E94040710CF75
:101530008230C1F422E043E050E06FEF80E00E948F
:101540007C018C0164E00E946603F80184818F7144
:10155000806A84834782508661867286C8010E94B1
:101560003B07F6CE813059F42114310409F4F0CE52
:1015700086E594E00E94A3080E940000E9CE8A302C
:1015800009F4E6CE8C3109F0C7C080915D04823544
:1015900009F4DECE863541F52CE143E050E06FEFF3
:1015A00080E00E947C018C01E0927C0066E470E0A7
:1015B00080E090E00E94CF0280917A008064809366
:1015C0007A0080917A0086FDFCCF209178003091DE
:1015D000790050E040E0C501B4010E944B1AB90106
:1015E000C8010E948903BBCF863409F055C02CE1A5
:1015F00043E050E06FEF80E00E947C018C01F894A2
:101600004091600030918000209181009091820093
:101610008FEF86BB1092850010928400109280009C
:1016200010928200F8E15DE00FB6F894A895F0936F
:1016300060000FBE509360008091600080648093D2
:101640006000A89585E0809381008091600087FF0D
:10165000FCCF10928100A8958091600088618093F2
:1016600060004093600078946091840070918500E0
:1016700030938000209381009093820090E080E07E
:101680002BE0660F771F881F991F2A95D1F720EA54
:1016900036E841E050E0A1CF8D34A1F42CE143E0E5
:1016A00050E06FEF80E00E947C0120917704309140
:1016B00078042115310511F42BE734E0B601621BE3
:1016C000730B8FCF853409F043CE2CE143E050E01B
:1016D0006FEF80E00E947C016DE371E00E94620880
:1016E0000E943B0710E000E06FEFC8010E94ED1878
:1016F0000F5F1F4F0D3991E01907B1F788E198E0AE
:101700000FB6F894A895809360000FBE9093600088
:10171000FFCF8A3109F41CCE86E594E00E94CA0806
:1017200017CE2F3F09F014CEEAA1E330F9F48091EF
:10173000970182FF03C0173009F40ACE143109F073
:1017400007CE8091A601381303CE0E940203737066
:10175000882799270E94CF0225E143E050E06FEFF0
:10176000802F0E947C016091A6017BCE8091A60112
:101770003813EECDD1CFA2960FB6F894DEBF0FBED0
:10178000CDBFDF91CF911F910F91FF90EF90DF9030
:10179000CF90BF90AF909F908F907F906F905F9011
:1017A0004F903F902F9008958091970184FD0C9465
:1017B00075090895CF92DF92EF92FF92CF93DF9356
:1017C000D82F0E9402036B017C0180915A0487602C
:1017D00080935A04C0E00E9402036C197D098E09AF
:1017E0009F09603D77408105910590F4C11110C0BB
:1017F000A8950E94B9030E94D40B80915A04877067
:10180000833049F7C1E080915B048D13E3CFE3CFD0
:101810008C2FDF91CF91FF90EF90DF90CF900895C4
:101820008F929F92AF92BF92CF92DF92EF92FF92F0
:101830004B015C010E9402036B017C010E940203C8
:101840006C197D098E099F09681579058A059B0524
:1018500030F4A8950E94B9030E94D40BEFCFFF90FB
:10186000EF90DF90CF90BF90AF909F908F900895B2
:101870008F929F92AF92BF92CF92DF92EF92FF92A0
:101880000F931F93CF93DF93CDB7DEB760970FB65B
:10189000F894DEBF0FBECDBF0E948C018C0180E0AA
:1018A0000E94DC045C0182E00E94DC046C0167E0C1
:1018B000F62E0E948C01080F191FFA94F110F9CF2F
:1018C00053E0169507955A95E1F780911F01909185
:1018D00020018017910720F01093200100931F0131
:1018E00080917301909174010817190720F01093EB
:1018F00074010093730180917101882339F00A15F6
:101900001B0520F40E940F03109271018091710158
:10191000811106C0C016D10618F481E080937101D0
:1019200080917501882309F452C0813081F48CE1E3
:1019300080934B02B80186E492E00E9489030E94E2
:10194000F30662E370E080E090E00E94100C80916A
:101950007501823051F58AE180934B0260911F013D
:101960007091200186E492E00E9489030E94F306B0
:101970008BE180934B02609173017091740186E456
:1019800092E00E9489030E94F3068CE180934B024F
:10199000B80186E492E00E9489030E94F30662E3A4
:1019A00070E080E090E00E94100C8091750183301F
:1019B00041F40E940F0360E47FE180E090E00E9428
:1019C000100C6CE271E080E090E00E94100C0E942C
:1019D000020320917B01222309F4B8C3009177010F
:1019E000109178012091790130917A016B017C018D
:1019F000C01AD10AE20AF30A9701860101321E4495
:101A00002105310528F420912201222309F4BEC0CA
:101A100060937701709378018093790190937A01B4
:101A2000809121018F5F80932101809176018F5FEA
:101A300080937601809186018F5F809386018091EB
:101A40008701882309F47DC010928701C0907E0130
:101A5000D0907F01E0908001F090810164E084E10A
:101A600094E00E946603809118048F71806A8093CD
:101A70001804C0921B04D0921C04E0921D04F09242
:101A80001E0484E194E00E94F306C0907E01D09091
:101A90007F01E0908001F090810183E280936C02ED
:101AA00065E087E692E00E94660380916B02806E9B
:101AB00080936B02C701B6010E94A61720E030E0B8
:101AC00048EC52E40E94A31960936E0270936F0277
:101AD000809370029093710282E08093720287E695
:101AE00092E00E94F306C0908201D0908301E090C2
:101AF0008401F090850120E030E048E952E4C7011C
:101B0000B6010E94A11787FF47C182E280936C0251
:101B100065E087E692E00E94660380916B02806E2A
:101B200080936B02C0926E02D0926F02E0927002BC
:101B3000F092710281E08093720287E692E00E9447
:101B4000F30680912201882309F110922201C090AE
:101B50007E01D0907F01E0908001F090810164E0EF
:101B600084E194E00E946603809118048F71806A7A
:101B700080931804C0921B04D0921C04E0921D04B0
:101B8000F0921E0484E194E00E94F306809121010A
:101B90008E3108F482C1C0908201D0908301E09020
:101BA0008401F090850120E030E0A901C701B60171
:101BB0000E94A117811122C082E280936C0265E02D
:101BC00087E692E00E94660380916B02806E8093AC
:101BD0006B02C0926E02D0926F02E0927002F0929D
:101BE000710281E08093720287E692E00E94F30620
:101BF00064E670E080E090E00E94100C10922101F9
:101C00000E9404070E9402036B017C0128EE33E06E
:101C100040E050E00E944B1ACA01B9012CE330E0C9
:101C200040E050E00E944B1A7F936F93C701B601CA
:101C300020E63AEE40E050E00E944B1A98E1892EEF
:101C4000912CA12CB12CCA01B901A50194010E94CB
:101C50004B1A7F936F93C701B60120E83EEE46E32F
:101C600050E00E944B1ACA01B901A50194010E94DB
:101C70004B1A7F936F93C701B60120E03CE546E223
:101C800055E00E944B1A3F932F9380E491E09F937D
:101C90008F938E010F5F1F4F1F930F930E94821A25
:101CA000B8018DE293E00E9462080E94F30664E6A8
:101CB00070E080E090E00E94100C88E00E9429060D
:101CC0008F7063EE7FEF98E0899F6019710911248E
:101CD00020911D0130911E01C901880F991F820FAB
:101CE000931F680F791F0FB6F894DEBF0FBECDBFEC
:101CF00077FF02C06D5F7F4F759567957595679506
:101D000070931E0160931D018CE093E00E947403A8
:101D10000E94F30664E670E080E090E00E94100C00
:101D200065E871E08BEE92E00E9484050E94F30664
:101D300064E670E080E090E00E94100C60E670E0E5
:101D40008AEC92E00E9474030E94F30664E670E05D
:101D500080E090E00E94100C80911D0190911E0186
:101D60008A3B9F4F04F56AE771E088E892E00E94A1
:101D700084050E94F30664E670E080E090E00E9433
:101D8000100C88E198E00FB6F894A8958093600055
:101D90000FBE90936000FFCF6AE971E088E892E09F
:101DA0000E948405CCCE70E060E083EF93E00E9457
:101DB00074030E94F30662E571E082ED93E00E94F5
:101DC00062080E94F30664E670E080E090E00E9402
:101DD000100C88EC80937C0080917A00806880935E
:101DE0007A0064E170E080E090E00E94CF02809190
:101DF0007A00806480937A0080917A0086FDFCCF1F
:101E0000609178007091790090E080E00E94A617C0
:101E10002EEA37E242EA53E40E94361926EF38E20E
:101E20004CE95FE30E94A3190E94151A062E000CCC
:101E3000770B81EB93E00E9474030E94F30664E643
:101E400070E080E090E00E94100C65E671E080E9AF
:101E500093E00E9484050E94F306609172018FE670
:101E600093E00E949E030E94F30664E670E080E027
:101E700090E00E94100C60918C018EE493E00E942F
:101E80009E030E94F30664E670E080E090E00E940A
:101E9000100C1092720110928C0180917601843B9B
:101EA00008F4FDC01092760160917E0170917F016F
:101EB00080918001909181010E944604609175019A
:101EC00089EA92E00E949E030E94F30664E670E0B5
:101ED00080E090E00E94100CC0907E01D0907F01C5
:101EE000E0908001F090810164E084E194E00E9440
:101EF0006603809118048F71806A80931804C092E1
:101F00001B04D0921C04E0921D04F0921E0484E194
:101F100094E00E94F30664E670E080E090E00E94A6
:101F2000100CC0907E01D0907F01E0908001F09075
:101F3000810164E670E080E090E00E94100C83E292
:101F400080936C0265E087E692E00E9466038091D0
:101F50006B02806E80936B02C701B6010E94A617C8
:101F600020E030E048EC52E40E94A31960936E0236
:101F700070936F02809370029093710282E080935D
:101F8000720287E692E00E94F30664E670E080E069
:101F900090E00E94100C82E280936C02C09082015B
:101FA000D0908301E0908401F090850165E087E6A0
:101FB00092E00E94660380916B02806E80936B02B8
:101FC000C0926E02D0926F02E0927002F0927102A3
:101FD00081E08093720287E692E00E94F30664E655
:101FE00070E080E090E00E94100C88E180934B024A
:101FF00080E00E94DC04BC0186E492E00E94890338
:102000000E94F30664E670E080E090E00E94100C0D
:1020100089E180934B0282E00E94DC04BC0186E4EB
:1020200092E00E9489030E94F30664E670E080E07B
:1020300090E00E94100C8AE180934B0260911F0196
:102040007091200186E492E00E9489030E94F306C9
:1020500064E670E080E090E00E94100C8BE18093D9
:102060004B02609173017091740186E492E00E94CA
:1020700089030E94F30664E670E080E090E00E942D
:10208000100C66E971E088E892E00E9484050E94E5
:10209000F30664E670E080E090E00E94100C80910E
:1020A0008601863008F452C01092860120E030E0AC
:1020B000A9016091820170918301809184019091C6
:1020C00085010E94A117882309F440C01092820163
:1020D00010928301109284011092850161E971E0F0
:1020E00088E892E00E9484050E94F30664E670E0AE
:1020F00080E090E00E94100C82E280936C02C0901D
:102100008201D0908301E0908401F090850165E028
:1021100087E692E00E94660380916B02806E809356
:102120006B02C0926E02D0926F02E0927002F09247
:10213000710281E08093720287E692E00E94F306CA
:1021400064E670E080E090E00E94100C60960FB6AC
:10215000F894DEBF0FBECDBFDF91CF911F910F91DD
:10216000FF90EF90DF90CF90BF90AF909F908F90B7
:1021700008952BE043E050E06FEF80E00E947C0187
:1021800068E571E00E9462080E94EC062CE043E0E2
:1021900050E06FEF80E00E947C0162E671E00E94F7
:1021A00062080E94EC064CE551E065E270E081E0D7
:1021B0000E942A0742E551E067E170E082E00E9458
:1021C0002A0781E080937B0146E451E064E270E0FD
:1021D00089E50E942A0764E670E080E090E00E94B2
:1021E000100C4AE351E064E270E080E50E942A07A7
:1021F0004FE251E064E270E081E50E942A0747E285
:1022000051E064E270E088E50E942A074FE151E066
:1022100064E270E08BE50E942A0764E670E080E0EB
:1022200090E00E94100C46E151E064E270E08CE521
:102230000E942A0764E670E080E090E00E94100CA3
:102240004BE051E064E270E08DE50E942A0741E036
:1022500051E064E270E086E40E942A0764E670E0E0
:1022600080E090E00E94100C46EF50E064E270E0E5
:1022700080E60E942A074FEE50E064E270E08AE5B3
:102280000E942A0764E670E080E090E00E94100C53
:102290004EED50E064E270E087E40E942A0748EDCA
:1022A00050E064E270E082E50E942A0764E670E094
:1022B00080E090E00E94100C41ED50E064E270E09C
:1022C00083E50C942A072FE043E050E06FEF80E0B5
:1022D0000E947C016FE671E00E94620862E085E383
:1022E00094E00E946603E5E3F4E084818F71806CE2
:1022F000848381E087831086CF010E94EC068FE003
:102300000E94DA0B21E150E040E06FEF80E00E9494
:102310007C0167E671E00E9462080E94EC0626E0FC
:1023200043E050E06FEF80E00E947C016091A601E5
:102330000E949E030E943B0786E00E94DA0B0C94E9
:10234000B910CF938091A40181FD20C00E94631138
:102350008091A40181608093A401C4E02AE143E05C
:1023600050E06FEF80E00E947C0162E00E949E03DB
:102370000E943B078BE10E94DA0B811102C0C15021
:1023800069F78091A40182608093A401CF910895A0
:102390001F920F920FB60F9211242F933F934F93DA
:1023A0005F936F937F938F939F93AF93BF93EF93BD
:1023B000FF9389EA91E00E941102FF91EF91BF9192
:1023C000AF919F918F917F916F915F914F913F91CD
:1023D0002F910F900FBE0F901F9018951F920F9284
:1023E0000FB60F9211242F938F939F93EF93FF9328
:1023F000E091B901F091BA018081E091BF01F091C3
:10240000C00182FD1BC090818091C2018F5F8F73DC
:102410002091C301821741F0E091C201F0E0E7553D
:10242000FE4F958F8093C201FF91EF919F918F9105
:102430002F910F900FBE0F901F9018958081F4CFB1
:102440001F920F920FB60F9211242F933F938F93E9
:102450009F93AF93BF9380919B0190919C01A0911A
:102460009D01B0919E0130919A0126E0230F2D37F6
:1024700058F50296A11DB11D20939A0180939B01EE
:1024800090939C01A0939D01B0939E0180919F0128
:102490009091A001A091A101B091A2010196A11D6E
:1024A000B11D80939F019093A001A093A101B093CF
:1024B000A201BF91AF919F918F913F912F910F906A
:1024C0000FBE0F901F90189529E8230F0396A11DAA
:1024D000B11DD2CF1F920F920FB60F9211242F93DE
:1024E0003F934F935F936F937F938F939F93AF939C
:1024F000BF93EF93FF93E0912901F0912A01099591
:10250000FF91EF91BF91AF919F918F917F916F91CB
:102510005F914F913F912F910F900FBE0F901F90A1
:1025200018951F920F920FB60F9211242F933F937D
:102530004F935F936F937F938F939F93AF93BF93CB
:10254000EF93FF93E0912701F09128010995FF9106
:10255000EF91BF91AF919F918F917F916F915F911B
:102560004F913F912F910F900FBE0F901F90189594
:102570001F920F920FB60F9211240F900FBE0F9063
:102580001F901895CF93DF93FC0110821182128265
:10259000148215821682DC0117968AE1ED011992E8
:1025A0008A95E9F782E08383DF91CF910895CF93F5
:1025B000E9EAF1E01382128288EE93E0A0E0B0E055
:1025C00084839583A683B7838FE291E09183808390
:1025D00085EC90E09587848784EC90E097878687E8
:1025E00080EC90E0918B808B81EC90E0938B828BE0
:1025F00082EC90E0958B848B86EC90E0978B868BB9
:10260000118E128E138E148E86E594E00E94C212F3
:1026100085E394E00E94C21284E194E00E94C21219
:10262000E4E1F4E087E48683CFE2C58383EF93E0BF
:102630000E94C212E3EFF3E080E58683C58382ED5A
:1026400093E00E94C212E2EDF3E081E58683C58348
:1026500081EB93E00E94C212E1EBF3E088E5868310
:10266000C58380E993E00E94C212E0E9F3E089E5C6
:102670008683C5838FE693E00E94C212EFE6F3E003
:1026800082E58683C5838EE493E00E94C212EEE465
:10269000F3E083E58683C5838DE293E00E94C21256
:1026A000EDE2F3E08AE58683C5838CE093E00E9447
:1026B000C212ECE0F3E08BE58683C5838BEE92E0FB
:1026C0000E94C212EBEEF2E08CE58683C5838AECB1
:1026D00092E00E94C212EAECF2E08DE58683C583A7
:1026E00089EA92E00E94C212E9EAF2E086E4868377
:1026F000C58388E892E00E94C212E8E8F2E080E632
:102700008683C58387E692E00E94C212E7E6F2E084
:1027100081E0868383E2858386E492E00E94C21290
:10272000E6E4F2E082E0868388E18583CF91089534
:10273000789484B5826084BD84B5816084BD85B59C
:10274000826085BD85B5816085BD80916E008160A8
:1027500080936E001092810080918100826080934E
:102760008100809181008160809381008091800050
:102770008160809380008091B10084608093B1007B
:102780008091B00081608093B00080917A00846075
:1027900080937A0080917A00826080937A008091A1
:1027A0007A008E7F80937A0080917A00806880938F
:1027B0007A001092C100A895E091B901F091BA0198
:1027C00082E08083E091B501F091B6011082E09142
:1027D000B701F091B80188E080831092C101E091C7
:1027E000BD01F091BE0186E08083E091BB01F091D4
:1027F000BC01808180618083E091BB01F091BC01CC
:10280000808188608083E091BB01F091BC01808170
:1028100080688083E091BB01F091BC0180818F7D55
:102820008083C0E1D0E0F12CFE01F595E795E255FB
:10283000FE4FE491C0FF72C0EF70E83008F07DC039
:10284000F0E0E255FE4FF4906F2D89EA91E00E948E
:1028500033022196C23FD10539F7C7EAD1E0FE0124
:102860006491662339F089EA91E00E94330221964F
:10287000892BA9F742E050E06DE671E089EA91E02A
:102880000E949D018091A4018D7F8093A40141E06D
:1028900050E063E071E083EA91E00E94C51860E0D7
:1028A00081E090E00E94ED18809198018F788093EC
:1028B000980110928E0110928D0183E291E00E94A6
:1028C000D70381EA91E190937D0180937C010E947E
:1028D00002036B017C010E9402036C197D098E09C1
:1028E0009F096838734181059105D0F00E94F0047A
:1028F000A895C0E0D0E0A8950E94B9038091970107
:1029000084FD0E9475090E94380C2097A1F30E9453
:102910000702882381F30E940000EDCFE2958CCF5F
:102920000E94B9030E94D40B8091970182FB8827F3
:1029300080F9A8958111DACFCECF1BEF1E0F00E0F2
:102940006F2D89EA91E00E9433020F5F0117C0F3F7
:1029500080CFFC0188279927E89421912032E9F360
:10296000293010F02E30C8F32B3241F02D3239F4DB
:10297000689404C00E941B15820F911D2191205361
:102980002A30C0F31EF4909581959F4F08951F93B0
:10299000FC0199278827BC01E89411911032E9F3D2
:1029A000193010F01E30C8F31B3251F01D3249F4BB
:1029B000689406C00E940615610F711D811D911D4E
:1029C000119110531A30B0F33EF4909580957095A4
:1029D00061957F4F8F4F9F4F1F910895FC01059088
:1029E0000020E9F7809590958E0F9F1F0895FB01B9
:1029F000DC014150504048F005900D920020C9F78D
:102A000001C01D9241505040E0F70895592F482FC2
:102A1000372F262F660F771F881F991F660F771F86
:102A2000881F991F620F731F841F951F660F771FE2
:102A3000881F991F08957AE0979F902D879F802D7A
:102A4000910D11240895ABE0B0E0E9E2F5E10C94BA
:102A5000FF187C013B018A01FC01178216828381E9
:102A600081FFC8C1CE0101965C01F7019381F3019A
:102A700093FD859193FF81913F01882309F453C110
:102A8000853239F493FD859193FF81913F01853221
:102A900029F4B70190E00E941317E7CF912C212C65
:102AA000312CFFE1F31538F08B3211F190F48032C4
:102AB00009F1833229F137FC3CC020ED280F2A3080
:102AC00050F536FE20C08AE0989E200D1124922EEB
:102AD00006C08D3291F0803371F7689430F8F301BD
:102AE00093FD859193FF81913F018111DACF21C040
:102AF000689431F8689432F8F2CF689433F8EFCFE5
:102B0000689434F8ECCFEAE02E9E200D1124222E9A
:102B1000689435F8E4CF8E3229F436FC04C1689409
:102B200036F8DDCF8C3619F4689437F8D8CF88366C
:102B3000B1F2982F9F7D95549330E0F08336A1F148
:102B40008337C1F1833509F063C02801F2E04F0EED
:102B5000511CF801C080D180692D70E036FC02C0A4
:102B60006FEF7FEFC6010E94FD164C01689437F8A5
:102B700082010AC00C5F1F4FFFE3F983882483940E
:102B8000912C6501E89437F833FE2DC0522C811446
:102B9000910471F5552009F468CFB70180E290E007
:102BA0000E9413175A94F6CFF801808189830E5F33
:102BB0001F4FE4CF2801F2E04F0E511CF801C080F6
:102BC000D180692D70E036FC02C06FEF7FEFC60147
:102BD0000E9408174C018201D5CFB70180E290E036
:102BE0000E9413172A942814190409F0B0F7CECFC5
:102BF000F60137FC859137FE81916F01B70190E0B6
:102C00000E94131751105A94F1E08F1A9108BFCF08
:102C1000843619F0893609F077C0F80137FE6BC0A9
:102C200060817181828193810C5F1F4FF32DFF764C
:102C30003F2E97FF09C090958095709561957F4FC5
:102C40008F4F9F4F689437F82AE030E0A5010E942B
:102C50004317C82ECA188C2C432C36FE0CC0E8949F
:102C600040F8C91440F434FE05C032FC03C0F32D13
:102C7000FE7E4F2E892C44FE95C0FE01EC0DF11D09
:102C80008081803309F087C0242D297E422E842D37
:102C90008870582E43FC95C040FE8FC09C2C821437
:102CA00018F42C0C922C981844FE91C0B70180E3C4
:102CB00090E00E94131742FE09C088E790E041FEB1
:102CC00002C088E590E0B7010E941317C91408F408
:102CD0008AC0CA94D12C9FEFC91AD90ACA0CDB1C2E
:102CE000F60182916F01B70190E00E941317AC14B6
:102CF000BD04B1F74FCF60817181072E000C880BA6
:102D0000990B0E5F1F4F92CFD32CE894D4F82AE092
:102D100030E0853739F1232D297FD22E8F3601F10E
:102D200048F48835A9F0F701868197812B96E2E176
:102D30000C941B19803749F08837A9F7D4FE02C0DC
:102D40006894D2F820E130E00DC06894D4F8F6CF52
:102D500034FE03C0822F8660D82E20E132E002C00C
:102D600028E030E0F801D7FE0FC0608171818281D8
:102D700093810C5F1F4FA5010E944317C82ECA18EC
:102D80003D2CE89437F867CF6081718190E080E056
:102D90000E5F1F4FF0CF42FC02C0839478CF839424
:102DA000839475CF842D867809F471CFF6CFB7015F
:102DB00080E290E00E94131783948214C0F3512C98
:102DC00073CF522C5818821408F46ECFF8CF842D8C
:102DD000867809F47BCF8BE241FE80E247FC8DE2EE
:102DE000B70190E071CFB70180E390E00E94131724
:102DF0009A946CCF8FEF9FEF99CFFC0105906150B3
:102E000070400110D8F7809590958E0F9F1F089500
:102E1000FC016150704001900110D8F780959095A9
:102E20008E0F9F1F08950F931F93CF93DF93182F3B
:102E3000092FEB018B8181FD09C01FEF0FEF812F5F
:102E4000902FDF91CF911F910F91089582FF14C0B1
:102E50002E813F818C819D81281739073CF4E881C0
:102E6000F981CF0101969983888310838E819F8198
:102E700001969F838E83E3CFE885F985812F09959D
:102E8000892BA1F3DACFFA01AA27283051F120319A
:102E900081F1E8946F936E7F6E5F7F4F8F4F9F4FEE
:102EA000AF4FB1E03ED0B4E03CD0670F781F891F30
:102EB0009A1FA11D680F791F8A1F911DA11D6A0FFE
:102EC000711D811D911DA11D20D009F468943F91B1
:102ED0002AE0269F11243019305D3193DEF6CF01B0
:102EE0000895462F4770405D4193B3E00FD0C9F776
:102EF000F6CF462F4F70405D4A3318F0495D31FDE3
:102F00004052419302D0A9F7EACFB4E0A695979535
:102F1000879577956795BA95C9F70097610571050B
:102F200008959B01AC010A2E069457954795379555
:102F30002795BA95C9F7620F731F841F951FA01DAF
:102F400008950E94E31708F481E00895E89409C009
:102F500097FB3EF490958095709561957F4F8F4FCC
:102F60009F4F9923A9F0F92F96E9BB279395F695E2
:102F7000879577956795B795F111F8CFFAF4BB0F60
:102F800011F460FF1BC06F5F7F4F8F4F9F4F16C0C4
:102F9000882311F096E911C0772321F09EE8872F4E
:102FA000762F05C0662371F096E8862F70E060E00A
:102FB0002AF09A95660F771F881FDAF7880F969583
:102FC000879597F90895990F0008550FAA0BE0E827
:102FD000FEEF16161706E807F907C0F012161306DB
:102FE000E407F50798F0621B730B840B950B39F41B
:102FF0000A2661F0232B242B252B21F408950A2681
:1030000009F4A140A6958FEF811D811D08950E94AE
:103010001A180C948B180E947D1838F00E9484189E
:1030200020F0952311F00C9474180C947A18112444
:103030000C94BF180E949C1870F3959FC1F3950FD4
:1030400050E0551F629FF001729FBB27F00DB11D2C
:10305000639FAA27F00DB11DAA1F649F6627B00DBC
:10306000A11D661F829F2227B00DA11D621F739FA5
:10307000B00DA11D621F839FA00D611D221F749FB3
:103080003327A00D611D231F849F600D211D822FFA
:10309000762F6A2F11249F5750409AF0F1F0882321
:1030A0004AF0EE0FFF1FBB1F661F771F881F91504E
:1030B0005040A9F79E3F510580F00C9474180C9471
:1030C000BF185F3FE4F3983ED4F3869577956795F4
:1030D000B795F795E7959F5FC1F7FE2B880F911D78
:1030E0009695879597F9089597F99F6780E870E01E
:1030F00060E008959FEF80EC089500240A9416166E
:10310000170618060906089500240A9412161306D5
:10311000140605060895092E0394000C11F4882363
:1031200052F0BB0F40F4BF2B11F460FF04C06F5F7F
:103130007F4F8F4F9F4F089557FD9058440F551F55
:1031400059F05F3F71F04795880F97FB991F61F029
:103150009F3F79F087950895121613061406551FA0
:10316000F2CF4695F1DF08C0161617061806991F0C
:10317000F1CF86957105610508940895E894BB2701
:1031800066277727CB0197F90895DC01CB01FC0175
:10319000F999FECF06C0F2BDE1BDF89A319600B4B0
:1031A0000D9241505040B8F70895F999FECF92BD65
:1031B00081BDF89A992780B50895DC01A40FB51F49
:1031C0004150504048F0CB01840F951F2E910E9432
:1031D000EE1841505040D0F70895262FF999FECFB0
:1031E00092BD81BDF89A019700B4021639F01FBA5A
:1031F00020BD0FB6F894FA9AF99A0FBE08952F924F
:103200003F924F925F926F927F928F929F92AF9276
:10321000BF92CF92DF92EF92FF920F931F93CF93C3
:10322000DF93CDB7DEB7CA1BDB0B0FB6F894DEBF5A
:103230000FBECDBF09942A88398848885F846E8480
:103240007D848C849B84AA84B984C884DF80EE80CA
:10325000FD800C811B81AA81B981CE0FD11D0FB6D3
:10326000F894DEBF0FBECDBFED0108955058BB27C7
:10327000AA270E944E190C948B180E947D1838F0D2
:103280000E94841820F039F49F3F19F426F40C941E
:103290007A180EF4E095E7FB0C947418E92F0E945D
:1032A0009C1858F3BA17620773078407950720F034
:1032B00079F4A6F50C94BE180EF4E0950B2EBA2FF7
:1032C000A02D0B01B90190010C01CA01A00111242C
:1032D000FF27591B99F0593F50F4503E68F11A16D8
:1032E000F040A22F232F342F4427585FF3CF469569
:1032F00037952795A795F0405395C9F77EF41F168B
:10330000BA0B620B730B840BBAF09150A1F0FF0F54
:10331000BB1F661F771F881FC2F70EC0BA0F621F40
:10332000731F841F48F4879577956795B795F79530
:103330009E3F08F0B0CF9395880F08F09927EE0FC5
:103340009795879508950E94B7190C948B180E9441
:10335000841858F00E947D1840F029F45F3F29F04E
:103360000C94741851110C94BF180C947A180E9484
:103370009C1868F39923B1F3552391F3951B550BD2
:10338000BB27AA2762177307840738F09F5F5F4F38
:10339000220F331F441FAA1FA9F335D00E2E3AF077
:1033A000E0E832D091505040E695001CCAF72BD08F
:1033B000FE2F29D0660F771F881FBB1F26173707E0
:1033C0004807AB07B0E809F0BB0B802DBF01FF2712
:1033D00093585F4F3AF09E3F510578F00C94741863
:1033E0000C94BF185F3FE4F3983ED4F3869577952D
:1033F0006795B795F7959F5FC9F7880F911D9695CB
:10340000879597F90895E1E0660F771F881FBB1F26
:10341000621773078407BA0720F0621B730B840BD3
:10342000BA0BEE1F88F7E09508950E941C1A689465
:10343000B1110C94BF1808950E94A41888F09F57EA
:1034400098F0B92F9927B751B0F0E1F0660F771FC8
:10345000881F991F1AF0BA95C9F714C0B13091F0BE
:103460000E94BE18B1E008950C94BE18672F782F03
:103470008827B85F39F0B93FCCF386957795679583
:10348000B395D9F73EF490958095709561957F4FEF
:103490008F4F9F4F0895A1E21A2EAA1BBB1BFD015F
:1034A0000DC0AA1FBB1FEE1FFF1FA217B307E40723
:1034B000F50720F0A21BB30BE40BF50B661F771F7B
:1034C000881F991F1A9469F760957095809590955B
:1034D0009B01AC01BD01CF010895EE0FFF1F0590C8
:1034E000F491E02D0994FB01DC014150504048F07B
:1034F00001900D920020C9F701C01D92415050402B
:10350000E0F70895AEE0B0E0E8E8FAE10C940D19B8
:103510000D891E8986E08C831A8309838FEF9FE7CC
:103520009E838D83AE01475E5F4F6F89788DCE019C
:1035300001960E9423152F813885020F131FF80171
:0E35400010822E96E4E00C942919F894FFCF27
:10354E00FFFFFF00FCE1A8A8FF000603049108AEF0
:10355E0004CC04C8043D077F042D042304E3FF00BC
:10356E00041E016E0551070E030E0300000000330A
:10357E00029D01CA018002FB01D901ED014F4B00F2
:10358E00256420253032643A253032643A253032B3
:10359E006400666978656400476173204D657465E3
:1035AE007200332E303500322E332E32000D0A00CB
:00000001FF
