:100000000C9429040C94771A0C94501A0C945104F3
:100010000C9451040C9451040C949E1A0C945104A9
:100020000C9451040C9451040C9451040C945104FC
:100030000C9451040C9451040C9451040C945104EC
:100040000C94061A0C9451040C94D4190C94AE1907
:100050000C9451040C9451040C9451040C945104CC
:100060000C9451040C94510400407A10F35A00A0EF
:10007000724E18090010A5D4E80000E87648170071
:1000800000E40B54020000CA9A3B000000E1F505B1
:10009000000080969800000040420F000000A086FB
:1000A00001000000102700000000E803000000002D
:1000B0006400000000000A000000000001000000D1
:1000C00000002C76D888DC674F0823DFC1DFAE59EB
:1000D000E1B1B796E5E3E453C63AE651997696E87E
:1000E000E6C28426EB898C9B62ED407C6FFCEFBC02
:1000F0009C9F40F2BAA56FA5F490055A2AF75C932D
:100100006B6CF9676DC11BFCE0E40D47FEF520E662
:10011000B500D0ED902E0300943577050080841E45
:10012000080000204E0A000000C80C333333330FA0
:10013000986E12831141EF8D2114893BE65516CF3D
:10014000FEE6DB18D1844B381BF77C1D901DA4BB49
:10015000E424203284725E228100C9F124ECA1E5FE
:100160003D2754534D3A494E49540A0000000008B7
:10017000000201000003040700000000000000006E
:100180002154534D3A494E49543A54535020464114
:10019000494C0A005453463A5349443A4F4B2C4970
:1001A000443D25750A00215453463A5349443A4682
:1001B00041494C2C49443D25750A0054534D3A4958
:1001C0004E49543A5354415449443D25750A00540C
:1001D000534D3A494E49543A545350204F4B0A001C
:1001E00054534D3A465041520A002154534D3A4619
:1001F0005041523A4E4F205245504C590A0021541A
:10020000534D3A465041523A4641494C0A005453E4
:100210004D3A465041523A4F4B0A0054534D3A49D9
:10022000443A5245510A0054534D3A49440A002178
:1002300054534D3A49443A4641494C0A0054534DAF
:100240003A49443A4F4B0A0054534D3A55504C0AE0
:10025000002154534D3A55504C3A4641494C0A00FE
:1002600054534D3A55504C3A444757432C4F3D2533
:10027000752C4E3D25750A0054534D3A55504C3A55
:100280004F4B0A0054534D3A52454144593A494460
:100290003D25752C5041523D25752C4449533D2533
:1002A000750A002154534D3A52454144593A55502C
:1002B0004C204641494C2C534E500A005453463A68
:1002C0005444493A54534C0A0054534D3A46414918
:1002D0004C3A4449530A0054534D3A4641494C3A2A
:1002E000434E543D25750A0054534D3A4641494CFE
:1002F0003A52452D494E49540A00215453463A5228
:1003000054453A4E324E204641494C0A0054534619
:100310003A5254453A4E324E204F4B0A0021545324
:10032000463A5254453A4650415220414354495668
:10033000450A00215453463A534E443A544E520A09
:1003400000536176653A2064656275674C65766531
:100350006C20746F200068775265626F6F74007351
:10036000686F77454570726F6D48657800646267A5
:10037000332073656E642064756D6D790064626707
:10038000322073656E6420565F564152332D35001E
:10039000646267312073656E6420565F5641523542
:1003A0000064626720300025735453463A4D53472A
:1003B0003A53454E442C25752D25752D25752D2533
:1003C000752C733D25752C633D25752C743D257565
:1003D0002C70743D25752C6C3D25752C73673D255F
:1003E000752C66743D25752C73743D25733A257301
:1003F0000A004D434F3A5245473A5245510A0021AF
:100400004D434F3A50524F3A52433D25750A0062D0
:1004100065666F72650064656275674C6576656CCC
:10042000206C6576656C206665746368656420661B
:10043000726F6D20454550524F4D200053617665D7
:100440003A2064656275674C6576656C20746F2030
:10045000300072656164456570726F6D33323A20A9
:10046000454550524F4D5F4D455445525F56414CA6
:1004700055452000454550524F4D5F4D455445521E
:100480005F56414C554520746F2064656661756CFC
:1004900074007365747570005365744765744D65B9
:1004A00074657256616C756500487754696D6500B6
:1004B0004462675F52657475726E004462675F4C98
:1004C0006576656C0052465F4368616E6E656C00D0
:1004D00050415F4C6576656C0054585F52535349E8
:1004E00000506172656E744E6F6465005061737385
:1004F0006976654E6F646500436F6D70696C654425
:10050000617465006D7950726573656E74617469AC
:100510006F6E00416E616C6F674462670047617384
:100520006D657465720050726573656E7420476105
:100530007300214D434F3A5741493A52433D257587
:100540000A004E6F7620313420323032322031337F
:100550003A31313A343200524632345F50415F4CC6
:100560004F57006D794865617274426561744C6FD4
:100570006F7000466C7730002D2D2D0049553A20C4
:10058000577269746520454550524F4D5F4D455433
:1005900045525F56414C554500466C6F7720746F4D
:1005A00020686967680020666C6F77546F5A6572BF
:1005B0006F4379636C653A200053454E445F465261
:1005C000455155454E43592048423A2000322E337A
:1005D0002E320A00207C5F5C2F602C0A070220026A
:1005E00020B28710034001200024022210022202C0
:1005F00002200222002220020220222710134101A1
:100600000101032220304020305203402214020313
:100610001052240221710100101012101222101029
:1006200002240101032203002001010032203712BD
:1006300010012132260128403222121012122243C8
:100640002224121001222470C122240F0F54534679
:100650003A5755523A4D533D256C750A004D434F5C
:100660003A42474E3A494E4954204F4B2C5453502E
:100670003D25750A004D434F3A42474E3A53545078
:100680000A004D434F3A42474E3A4246520A004D05
:10069000434F3A42474E3A494E4954204E4F444503
:1006A0002C43503D524E4E4E412D2D2D2C46513D4A
:1006B00025752C52454C3D25752C5645523D322E04
:1006C000332E320A004D434F3A50494D3A4E4F4473
:1006D00045205245473D25750A00215453463A4D61
:1006E00053473A52454C204D53472C4E5245500AE1
:1006F000005453463A4D53473A5243562043420A18
:10070000005453463A4D53473A42430A0054534625
:100710003A4D53473A4543484F0A00215453463A0D
:100720004D53473A504F4E4720524543562C494E61
:100730004143544956450A005453463A4D53473AAB
:10074000504F4E4720524543562C48503D25750A80
:10075000005453463A4D53473A50494E4745442C6E
:1007600049443D25752C48503D25750A00215453B8
:10077000463A4D53473A4650415220494E41435420
:100780004956450A005453463A4D53473A4650415C
:1007900052204F4B2C49443D25752C443D25750A6C
:1007A000005453463A4D53473A4543484F2052452B
:1007B000510A005453463A4D53473A524541442C4E
:1007C00025752D25752D25752C733D25752C633DBF
:1007D00025752C743D25752C70743D25752C6C3D4C
:1007E00025752C73673D25753A25730A00214D4305
:1007F0004F3A5741493A52433D25750A00214D432E
:100800004F3A534E443A4E4F4445204E4F54205297
:1008100045470A0000000000250028002B000000CA
:100820000000240027002A00040404040404040433
:10083000020202020202030303030303010204088B
:10084000102040800102040810200102040810203A
:10085000BD1A11241FBECFEFD8E0DEBFCDBF12E01E
:10086000A0E0B1E0ECEFFEE402C005900D92A231F1
:10087000B107D9F724E0A2E1B2E001C01D92AF3E7A
:10088000B207E1F714E0C9E2D4E004C02197FE0109
:100890000E947726C832D107C9F70E94631B0C94C7
:1008A0007C270C94000090E0FC01E45CF74F24915D
:1008B000885D974FFC018491882399F090E0880F20
:1008C000991FFC01E25EF74FA591B491FC01EC5E2B
:1008D000F74F859194918FB7F894EC91E22BEC93BC
:1008E0008FBF0895942FE9EAF4E030917C023183C0
:1008F0008283668325834481487F492B477E4483D6
:10090000CF01089580E480937C0080917A00806418
:1009100080937A0080917A0086FDFCCF80917800E8
:10092000909179000895AF92BF92CF92DF92EF92AB
:10093000FF920F931F93CF93DF936C017B018B0189
:10094000040F151FEB015E01AE18BF08C017D107D9
:1009500059F06991D601ED91FC910190F081E02D63
:10096000C6010995892B79F7C501DF91CF911F91B8
:100970000F91FF90EF90DF90CF90BF90AF900895D0
:10098000FC01538D448D252F30E0842F90E0821B95
:10099000930B541710F0CF96089501970895FC011A
:1009A000918D828D981761F0A28DAE0FBF2FB11D72
:1009B0005D968C91928D9F5F9F73928F90E00895CA
:1009C0008FEF9FEF0895FC01918D828D981731F084
:1009D000828DE80FF11D858D90E008958FEF9FEFD8
:1009E0000895FC01918D228D892F90E0805C9F4FAE
:1009F000821B91098F739927089580E892E00E94E5
:100A0000F10421E0892B09F420E0822F0895FC01F4
:100A1000A48DA80FB92FB11DA35ABF4F2C91848D5F
:100A200090E001968F739927848FA689B7892C93BC
:100A3000A089B1898C91837080648C93938D848D0F
:100A4000981306C00288F389E02D80818F7D808312
:100A50000895EF92FF920F931F93CF93DF93EC01D2
:100A600081E0888F9B8D8C8D98131AC0E889F98955
:100A7000808185FF15C09FB7F894EE89FF89608358
:100A8000E889F98980818370806480839FBF81E0D9
:100A900090E0DF91CF911F910F91FF90EF9008951B
:100AA000F62E0B8D10E00F5F1F4F0F731127E02EF6
:100AB0008C8D8E110CC00FB607FCFACFE889F9892E
:100AC000808185FFF5CFCE010E940705F1CFEB8D28
:100AD000EC0FFD2FF11DE35AFF4FF0829FB7F89402
:100AE0000B8FEA89FB8980818062CFCF0F931F93A0
:100AF000CF93DF938C01D0E0C0E0F801EC0FFD1F35
:100B00006491662341F080E892E00E942905892BD8
:100B100011F02196F2CFCE01DF91CF911F910F916D
:100B20000895CF93DF93EC01888D8823B9F0AA89CB
:100B3000BB89E889F9898C9185FD03C0808186FD98
:100B40000DC00FB607FCF7CF8C9185FFF2CF8081E7
:100B500085FFEDCFCE010E940705E9CFDF91CF9150
:100B6000089580E090E0892B29F00E94FD04811116
:100B70000C94000008953FB7F89480914202909140
:100B80004302A0914402B091450226B5A89B05C03E
:100B90002F3F19F00196A11DB11D3FBFBA2FA92FFC
:100BA000982F8827BC01CD01620F711D811D911DF9
:100BB00043E0660F771F881F991F4A95D1F7089564
:100BC0008F929F92AF92BF92CF92DF92EF92FF925D
:100BD0006B017C010E94BB054B015C01C114D10477
:100BE000E104F104B9F00E94BB05681979098A098A
:100BF0009B09683E73408105910580F321E0C21A8C
:100C0000D108E108F10888EE880E83E0981EA11C47
:100C1000B11CE4CFFF90EF90DF90CF90BF90AF90EA
:100C20009F908F9008952FB7F89460913E02709135
:100C30003F0280914002909141022FBF0895089594
:100C40000895FC01938197706A3108F069E188E0AA
:100C5000689FB0011124692B6383CF0108950F931E
:100C60001F93CF93DF93EC018B0162E00E9421067A
:100C70008C818F7180648C8318870F83CE01DF9104
:100C8000CF911F910F9108950F931F93CF93DF93EF
:100C9000EC018B0162E00E9421068C818F718066DD
:100CA0008C8318870F83CE01DF91CF911F910F9115
:100CB00008951F93CF93DF93EC01162F61E00E94FC
:100CC00021068C818F7180628C831F83CE01DF911E
:100CD000CF911F910895FC01838186958695869515
:100CE0008A3108F089E10895E0913002F0913102F3
:100CF000309721F00280F381E02D099408950F933D
:100D00001F930E941306009132021091330220912A
:100D1000340230913502601B710B820B930B1F91D3
:100D20000F9108959C0180913002909131028217B9
:100D30009307F1F090913A029F7190933A023093A9
:100D4000310220933002E0913002F091310230976D
:100D500021F00190F081E02D09950E941306609327
:100D600032027093330280933402909335020895D7
:100D700080913A02805E80933A02E5CF8EBD0000FA
:100D80000DB407FEFDCF8EB50895FC010190002043
:100D9000E9F73197AF01481B590BBC0180E892E09D
:100DA0000C949304CF93DF930E947605EC0183E4C7
:100DB00091E00E94C5068C0F9D1FDF91CF91089591
:100DC0008FE094E00C94D2068F929F92AF92BF92E4
:100DD0000F931F93CF93DF93CDB7DEB7A1970FB6D5
:100DE000F894DEBF0FBECDBF19A2423008F44AE02E
:100DF0008E010F5D1F4F842E912CB12CA12CA501CB
:100E000094010E945526E62FB901CA01EA30F4F494
:100E1000E05DD801EE938D01232B242B252B79F750
:100E200090E080E0109719F0CD010E94C506A196D0
:100E30000FB6F894DEBF0FBECDBFDF91CF911F91EB
:100E40000F91BF90AF909F908F900895E95CE1CF94
:100E50000C94C5060F931F93CF93DF93EC018B0186
:100E600060E00115110539F0F80101900020E9F763
:100E700031976E2F601BCE010E9421068C818F71ED
:100E80008C83CE010E946B06482F50E0B801CE0142
:100E900007960E944A27CE010E946B068C0F9D2F59
:100EA000911DFC011782CE01DF91CF911F910F910F
:100EB00008950F931F93CF93DF93EC018C8182955C
:100EC00086958770A9F4CE010E946B06482F50E0EA
:100ED000BE01695F7F4F89E492E00E944A27CE01FC
:100EE0000E946B06E82FF0E0E75BFD4F108209C01F
:100EF000813071F48F814AE069E472E090E00E94F1
:100F0000441E89E492E0DF91CF911F910F910895E3
:100F1000823031F44AE069E472E08F819885EFCF46
:100F2000833041F44AE069E472E08F8198850E9441
:100F30009D1EE7CF843051F46F81788589859A852D
:100F40002AE049E452E00E944F1EDBCF853051F485
:100F50006F81788589859A852AE049E452E00E946C
:100F60007B1ECFCF10E0873071F42B85293008F03D
:100F700028E06F81788589859A8509E412E042E04E
:100F80000E94A41CBECFCE010E946B06181738F534
:100F9000E12FF0E09F01220F331FD901A75BBD4F66
:100FA000EC0FFD1F8781082E000C990B44E09595EE
:100FB00087954A95E1F78F708A3068F4805D8C934D
:100FC000265B3D4F87818F708A3038F4805DF90150
:100FD00080831F5FD8CF895CF2CF895CF8CFE82F80
:100FE000F0E0EE0FFF1F80CFCF92DF92EF92FF92E3
:100FF0006B017C0182EA91E00E94F42499278F2DF5
:101000007E2D6D2D83EA91E00E94F424B70188279C
:10101000992784EA91E00E94F4246F2D772788278E
:10102000992785EA91E0FF90EF90DF90CF900C94A4
:10103000F424CF93DF93C82FD62F672F90E08356E9
:101040009E4F0E94F424CF5F8C2F90E06D2F83562B
:101050009E4FDF91CF910C94F424CF93DF93682FB0
:1010600070E090E080E04AE00E94E406EC0183E456
:1010700091E00E94C5068C0F9D1FDF91CF910895CE
:101080008F929F92AF92BF92CF92DF92EF92FF9298
:101090000E9413064B015C0180912C0290912D025D
:1010A000A0912E02B0912F0275016401C81AD90ACD
:1010B000EA0AFB0A81E080932B0210922A02C70100
:1010C000B6010E94AD239B01AC0160E070E68AE6A8
:1010D00097E40E94AA2520E030E040E251E40E941B
:1010E0000E24609326027093270280932802909327
:1010F000290280922C0290922D02A0922E02B09290
:101100002F028091220290912302A0912402B0919B
:1011100025020196A11DB11D809322029093230206
:10112000A0932402B093250286E491E00E94280750
:1011300060912202709123028091240290912502F5
:101140004AE00E94E40681E591E00E9428074AE017
:10115000C701B6010E94E4068DE591E00E942807D0
:10116000C0902602D0902702E0902802F090290239
:10117000A7019601C701B6010E945026882381F07D
:1011800085E691E00E94C50683E491E0FF90EF9030
:10119000DF90CF90BF90AF909F908F900C94C5063A
:1011A00046015701E894B7F82FEF3FEF4FE75FE7AD
:1011B000C501B4010E94502681110DC02FEF3FEFF1
:1011C0004FE75FE7C501B4010E94A82318161CF47D
:1011D00089E691E0D7CF2FEF3FEF4FE75FE4C701FC
:1011E000B6010E944B2618161CF48DE691E0CACF7A
:1011F0002FEF3FEF4FE75FECC701B6010E94A82336
:1012000087FDF3CF20E030E0A901C701B6010E94BD
:10121000A82387FF09C06DE280E892E00E942905BB
:10122000F7FAF094F7F8F0942AE037ED43EA5BE33D
:10123000C701B6010E943E254B015C010E941C269D
:101240006B017C010E94AD239B01AC01C501B4017F
:101250000E943D254B015C014AE0C701B6010E9496
:10126000E4066EE280E892E00E94290520E030E08A
:1012700040E251E4C501B4010E940E244B015C011F
:101280000E941C266B01F12CE12C4AE0C701B6013B
:101290000E94E406C701B6010E94AD239B01AC0188
:1012A000C501B4010E943D2520E030E040E251E458
:1012B0000E940E240E941C2690E080E04AE00E94DA
:1012C000E40662CFCF93DF93C82F90E083569E4F02
:1012D0000E94DC24D82FCF5F8C2F90E083569E4F46
:1012E0000E94DC249D2FDF91CF910895BF92CF9271
:1012F000DF92EF92FF920F931F93CF93DF937B01C7
:10130000042FB22E90E59CBD1DBC2A98E0E1F0E0D0
:101310003197F1F70E94BE06182FE7010150A8F09F
:10132000BB2051F08FEF0E94BE06182FE114F1048C
:10133000A9F388832196F2CF6E018FEFC81AD80ADD
:1013400088810E94BE06E601E9CF2A9A80E190E0FA
:101350000197F1F7812FDF91CF911F910F91FF90AE
:10136000EF90DF90CF90BF900895CF93DF931F92BF
:10137000CDB7DEB7698320E041E0BE016F5F7F4FEC
:101380000E9476090F90DF91CF9108956FE080E27F
:101390000E94B509609108016F3F19F08AE20E942E
:1013A000B509299A089521E041E070E060E00C94CD
:1013B000760986E00E94D309833231F485E00E94E9
:1013C000D30991E0803609F090E0892F089520E05C
:1013D00040E070E060E00C9476099F92AF92BF927B
:1013E000CF92DF92EF92FF920F931F93CF93DF93F1
:1013F000CDB7DEB729970FB6F894DEBF0FBECDBFCD
:1014000080E1C82E912CCE0101965C01D12C892D52
:101410008D0D90E083569E4F0E94DC24182F803162
:1014200020F481E791E00E94280740E1B501812F77
:1014300090E00E949D1EF50101900020E9F7319790
:101440008F010A191B09B8016F5F7F4F90E080E0A0
:101450000E947D267C010097D1F1FC011082B5012C
:101460000E944327A801B70180E892E00E949304FC
:10147000E114F10419F0C7010E945E1DFFE0DF16C0
:1014800021F083E791E00E942807D39480E1D812ED
:10149000BECF980E85E491E00E94C50683E491E0FA
:1014A0000E94C506CA94C110B1CF29960FB6F89410
:1014B000DEBF0FBECDBFDF91CF911F910F91FF9087
:1014C000EF90DF90CF90BF90AF909F90089510E085
:1014D00000E0C8CFCF92DF92EF92FF92CF93DF93DD
:1014E00082E994E00E94D20682EA91E00E94DC2424
:1014F000C82F83EA91E00E94DC24C82E84EA91E0A0
:101500000E94DC24D82F85EA91E00E94DC24D12CB3
:10151000F12CE12CFE2CED2CDC2CCC244D2F50E0BA
:1015200070E060E0BA0155274427C40ED51EE61EC0
:10153000F71ECC0ED11CE11CF11C90E0B0E0A0E045
:10154000B82FAA2799278827C80ED91EEA1EFB1E86
:101550002FEFC216D206E206F20689F461EA74E6BB
:1015600089E090E00E94F40784E794E00E94760509
:1015700081EAC82E84E6D82E89E0E82EF12C82E597
:1015800094E00E9476054AE0C701B6010E94E40695
:1015900083E491E00E94C506C0922202D092230209
:1015A000E0922402F092250281EA91E00E94DC247C
:1015B0008A3030F58093190286E194E00E94760526
:1015C000809119020E942D0882E00E946209019612
:1015D00029F464EF71E082E00E94190880E00E9423
:1015E0006209019629F46EEE71E080E00E9419080C
:1015F000DF91CF91FF90EF90DF90CF900C94ED09A9
:10160000109219028CE394E00E94D20660911902B4
:1016100081EA91E00E94F424CFCF0F931F93CF93E0
:10162000DF93EC018B0180E06115710519F0CB01AE
:101630000E942C1E682FCE010E9421068C818F7182
:101640008C83CE010E946B06482F50E0B801CE017A
:1016500007960E94351ECE010E946B068C0F9D2FAF
:10166000911DFC011782CE01DF91CF911F910F9147
:101670000895FC019481929596959770953029F480
:1016800067817085818592850895911104C0CF018D
:1016900007960C94051E60E070E0CB010895FC01F4
:1016A0002481229526952770213011F48781089591
:1016B000211104C007960E94E71D089580E0089557
:1016C000EF92FF920F931F93CF93DF93CDB7DEB7C7
:1016D000C857D1090FB6F894DEBF0FBECDBF8E013B
:1016E0000F571F4FF801E190F1908F010E941306F0
:1016F0004AE00E94E40687EE91E00E9428079801E4
:10170000A70168E770E0CE0101960E94B71ECE01E6
:1017100001960E94280780E892E00E949105C8582F
:10172000DF4F0FB6F894DEBF0FBECDBFDF91CF9174
:101730001F910F91FF90EF9008959F92AF92BF92EB
:10174000CF92DF92EF92FF920F931F93CF93DF938D
:10175000F82EEB0180917C0288838B8100E282FD70
:1017600005C0CB010E946B0607E0080F80917F0245
:1017700011E080FD03C08FEFF81210E0209709F40C
:10178000BBC0299880E091E00197F1F76EE080E21C
:101790000E94B50984EC90E00197F1F76F2D8AE281
:1017A0000E94B5096F2D80E30E94B50981EE0E9469
:1017B000E709112321F060E584E20E94B50920E0E9
:1017C000402FBE0180EA0E947609299AD12CC12CB3
:1017D0008FEF0E94E709807349F49FEFC916D9067D
:1017E00029F0A8958FEFC81AD80AF2CF299860E798
:1017F00087E20E94B509082F84FF03C081EE0E9492
:10180000E709112321F06FE584E20E94B5090E94E7
:10181000C60905FD73C0012F8C818770833039F4B0
:101820008D8125E7A22E21E0B22E813121F0CE015B
:101830000E9459075C0190E8C92E91E0D92E00233F
:1018400021F08DE7C82E81E0D82E80913B028F7069
:10185000982EEB80E2FAEE24E0F8CE010E946B06AF
:101860009C81F92FF295F695F770ED8197707E8146
:101870006A815881498125E831E0111106C027E8C5
:1018800031E0002311F025E431E0BF92AF92DF9206
:10189000CF921F929F921F92EF921F928F931F924F
:1018A000FF931F92EF931F929F931F927F931F921C
:1018B0006F931F92FF921F925F931F924F933F93DC
:1018C0002F9387EA93E09F938F930E94600B8DB7CD
:1018D0009EB74E960FB6F8949EBF0FBE8DBF802F59
:1018E000DF91CF911F910F91FF90EF90DF90CF90FC
:1018F000BF90AF909F90089500E08ECF01E08CCF15
:101900000F931F93CF93DF938C01FC018281909101
:101910003A0290FF12C08F3F09F443C08DE193E07B
:101920009F938F930E94600B0F900F90C0E08C2FBD
:10193000DF91CF911F910F910895D0917D0288235F
:10194000D9F08F3F71F1B8010E949D0BC82F8823F9
:1019500049F08DE093E09F938F930E94600B0F906E
:101960000F90E5CF8AEF92E09F938F930E94600BD8
:10197000D0917D020F900F90B8018D2F0E949D0B8A
:10198000C82F80917D028D13D2CF80913B02C1116F
:101990000AC091E0980F9F70807F892B80933B0253
:1019A000C6CFDFEFE9CF807F80933B02C1E0BFCF9E
:1019B00020913A0222FD0C94800C83E393E09F93E4
:1019C0008F930E94600B0F900F9080E00895CF924C
:1019D000DF92EF92FF92CF93DF930E947F066B011D
:1019E0007C0126E143E050E06FEF80E00E9472044A
:1019F000EC0164E00E9421068C818F71806A8C83E7
:101A0000CF82D886E986FA86CE01DF91CF91FF900A
:101A1000EF90DF90CF900C94D80CCF93DF93262FCC
:101A2000EA0150E040E0682F80E00E947204BE01AD
:101A30000E940D0BDF91CF910C94D80CFC0180918A
:101A40007C0281839481907F91609483809148028D
:101A500080FF03C0CF010C94D80C8DEF97E09F93CB
:101A60008F930E94600B0F900F9080E00895CF93AA
:101A7000FC012681263441F4248124FD03C0258104
:101A80002F32B1F1CF910895273409F0A4C02481F9
:101A900024FDF8CF25812F32A9F70E94390B6093DE
:101AA000220270932302809324029093250289E8F6
:101AB00091E00E9428076091220270912302809198
:101AC0002402909125024AE00E94E40683E491E01A
:101AD0000E94C50681E080932201609122027091EC
:101AE00023028091240290912502CF910C94F40757
:101AF0000E944F0B80931902811108C061EA73E0C4
:101B00008FE593E00E940D0B0E941E0D809119023B
:101B1000813041F460E973E08FE593E00E940D0BA2
:101B20000E941E0D80911902823041F46DE773E02E
:101B30008FE593E00E940D0B0E941E0D809119020B
:101B4000833041F46DE673E08FE593E00E940D0B66
:101B50000E941E0D80911902843061F46FE573E0DC
:101B60008FE593E00E940D0B0E941E0D0E94ED096F
:101B70001092190280911902853029F484EB809328
:101B80001A0210921902C0911902C93099F466E53F
:101B900073E08FE593E00E940D0B0E941E0D88E11B
:101BA00098E00FB6F894A895809360000FBE9093CC
:101BB0006000FFCFC43008F065CF81E493E00E945D
:101BC00076058C2F0E942D086091190281EA91E020
:101BD000CF910C94F424223009F054CF248124FDB9
:101BE00051CF2581283139F0293109F04BCF0E949E
:101BF000390B82E003C00E94390B80E00E94190873
:101C000084EB80931A023ECF0C94D80C2BE043E077
:101C100050E06FEF80E00E94720460EA71E00E9481
:101C20002A070E94D80C2CE043E050E06FEF80E0E0
:101C30000E9472046AEA71E00E942A070E94D80C8E
:101C400086E295E00E94D2064DE155E065E270E043
:101C500081E00E940D0D43E155E067E170E082E014
:101C60000E940D0D84E095E00E94D20681E08093F1
:101C70001F0248EF54E064E270E089E50E940D0D18
:101C80004CEE54E064E270E080E50E940D0D41EE00
:101C900054E064E270E081E50E940D0D49ED54E0EE
:101CA00064E270E08BE50E940D0D40ED54E064E2CB
:101CB00070E08CE50E940D0D45EC54E064E270E0AC
:101CC0008DE50E940D0D4BEB54E064E270E086E47C
:101CD0000E940D0D40EB54E064E270E080E60E944B
:101CE0000D0D49EA54E064E270E08AE50E940D0DB2
:101CF00048E954E064E270E087E40C940D0D2FE0B5
:101D000043E050E06FEF80E00E94720465E471E010
:101D10000E942A0762E089EA94E00E942106E9EA2B
:101D2000F4E084818F71806C848381E087831086E6
:101D3000CF010E94D80C8FE00E94021221E150E0F6
:101D400040E06FEF80E00E9472046FEA71E00E9451
:101D50002A070E94D80C26E043E050E06FEF80E0B5
:101D60000E94720460917D020E9459060E94040E36
:101D700086E00E9402120C94060E2F923F924F9220
:101D80005F926F927F928F929F92AF92BF92CF920B
:101D9000DF92EF92FF920F931F93CF93DF93CDB714
:101DA000DEB7A4970FB6F894DEBF0FBECDBF36E006
:101DB000E32E9E012F5F3F4F190140EA842E46E833
:101DC000942EAA24A394B12C44244A9452E0552E74
:101DD00053E0652E752C87E10E94D30980FDD6C2A1
:101DE000EA94EE2009F4D2C221E041E070E060E024
:101DF00080E60E947609182F813220F082EE0E9440
:101E0000E70910E021E0412F6AEC74E081E60E94CE
:101E1000760960E487E20E94B50981E2EAECF4E029
:101E2000D10101900D928A95E1F70C81802F83708A
:101E3000823089F6C1010E946B0602FD89E1895F4B
:101E40001813C9CF8AEC94E00E946B06F82E80919B
:101E5000CE0487708AA31091CF040091CB04D09058
:101E6000CA04C090CC04833021F485E791E011319D
:101E700021F08AEC94E00E945907EF2DF0E0FCA3DA
:101E8000EBA39F938F938091CD0482FB882780F9E9
:101E90001F928F931F92FF928091CE048295869518
:101EA00087701F928F931F921F931F92FAA1FF9327
:101EB0008091D0041F928F931F92CF921F92DF9236
:101EC0001F920F9323EB37E03F932F930E94600BF9
:101ED00080913B02806880933B020FB6F894DEBF8E
:101EE0000FBECDBF80917C02C8120CC2EBA1FCA139
:101EF000E653FB4F17828091CE0483FF21C081EA15
:101F000097E09F938F930E94600B81E2EAECF4E0EC
:101F1000A9EAB4E001900D928A95E1F78091AD04B1
:101F2000877E80618093AD0480917C028093AA04B7
:101F30000093AB0489EA94E00E94D80C0F900F90B4
:101F40008091CE0484FDD5C1FAA1F33009F0CCC153
:101F50008091CF0491EF980F933008F43CCF143068
:101F600009F439CF183081F510913A0210FF27C0DB
:101F70008AEC94E00E944F0B8F3F09F42CCF8F5FC7
:101F80008F3F09F428CF90917E02891708F023CF64
:101F900011FD21CF80937E0200937D021F928F93CB
:101FA0001F920F9385E897E09F938F930E94600B99
:101FB0000F900F900F900F900F900F900CCF8DE619
:101FC00097E09F938F933DC01831D9F48AEC94E049
:101FD0000E944F0B1F928F931F920F9381E597E002
:101FE0009F938F930E94600B29E143E050E06FEFD5
:101FF000802F0E94720461E00E9459060E94800CAA
:10200000D7CF193109F580913A0283FF16C0877F37
:1020100080933A028AEC94E00E944F0B80933C023A
:102020001F928F9388E397E09F938F930E94600B9A
:102030000F900F900F900F90CECE2BE137E03F9393
:102040002F930E94600B9FC11E3109F4C4CE1D3135
:1020500071F42FE143E050E06FEF80E00E947204E2
:1020600060E07FEF0E942F060E94800CB4CE90911A
:10207000CB04911136C18D3059F488E198E00FB648
:10208000F894A895809360000FBE90936000FFCFF6
:102090008B31A9F48AEC94E00E944F0B91E08111FE
:1020A00001C090E08091480290FB80F98093480243
:1020B0001F929F93E5ECF6E0FF93EF93B7CF863046
:1020C00099F49091D10481E0992319F09D3409F09D
:1020D00080E08093470241E050E063E071E087E4F4
:1020E00092E00E94E42477CE833119F40E947F0E9F
:1020F00072CE823119F40E94E70C6DCE8230C1F4A9
:1021000022E043E050E06FEF80E00E9472048C0117
:1021100064E00E942106F80184818F71806A8483C3
:102120004782508661867286C8010E94040E53CE93
:10213000813061F420E030E0232B09F44CCE8AECAE
:1021400094E00E94390B0E94000045CE8A3009F4C9
:1021500042CE8C3109F0C8C08091D104823509F497
:102160003ACE863559F52CE143E050E06FEF80E040
:102170000E9472048C018EE480937C0066E470E01F
:1021800080E090E00E94E00580917A008064809376
:102190007A0080917A0086FDFCCF20917800309102
:1021A000790050E040E064EB7BE281E190E00E9446
:1021B0005526B901C8010E944406B7CF863409F0FC
:1021C00053C02CE143E050E06FEF80E00E947204C6
:1021D0008C01F89440916000309180002091810042
:1021E000909182008FEF86BB109285001092840040
:1021F000109280001092820088E15DE00FB6F894A2
:10220000A895809360000FBE50936000809160009D
:10221000806480936000A89585E080938100809120
:10222000600087FFFCCF10928100A895809160002C
:10223000886180936000409360007894609184008E
:1022400070918500309380002093810090938200EC
:1022500090E080E02BE0660F771F881F991F2A957A
:10226000D1F7A5019401A3CF8D34A1F42CE143E073
:1022700050E06FEF80E00E9472042091EB043091F7
:10228000EC042115310511F42FEE34E0B101621B8D
:10229000730B91CF853409F09ECD2CE143E050E0E3
:1022A0006FEF80E00E9472046DE771E00E942A07E0
:1022B0000E94040E10E000E06FEFC8010E94F424B9
:1022C0000F5F1F4F0D3931E01307B1F788E198E038
:1022D0000FB6F894A895809360000FBE90936000AD
:1022E000FFCF8A3109F477CD8AEC94E00E94370D54
:1022F00072CD8DE097E09F938F930E94600B0F90BB
:102300000F90F2CFFFEFCF122CC021E037E03F93C8
:102310002F930E94600B0F900F909AA1933029F594
:1023200080913A0282FF03C0173009F454CD143172
:1023300009F051CD80917D02D8124DCD0E94130637
:102340007370882799270E94E00525E143E050E05B
:102350006FEF802F0E94720460917D020E945906E7
:1023600083CE8AED96E09F932DCE80917D02D81288
:1023700032CDE1EFF6E0FF93EF930E94600B8AEC21
:1023800094E00E94370D0F900F9025CDA4960FB6C4
:10239000F894DEBF0FBECDBFDF91CF911F910F919B
:1023A000FF90EF90DF90CF90BF90AF909F908F9075
:1023B0007F906F905F904F903F902F900895809105
:1023C0001302882361F01F928F938FEF93E09F9306
:1023D0008F930E94600B0F900F900F900F90809141
:1023E00013028F5F80931302A8950E947406809158
:1023F0003A0284FD0E94BD0E8091130281508093A9
:1024000013020895CF92DF92EF92FF92CF93DF9362
:10241000D82F80914602882361F01F928F938DEE12
:1024200097E09F938F930E94600B0F900F900F90F7
:102430000F90809146028F5F809346020E941306A0
:102440006B017C018091CE0487608093CE04C0E054
:102450000E9413066C197D098E099F09603D774023
:102460008105910578F4C1110DC00E94DF118091A2
:10247000CE048770833061F7C1E08091CF048D1363
:10248000E6CFE6CF809146028150809346028C2FA2
:10249000DF91CF91FF90EF90DF90CF9008958F92D2
:1024A0009F92AF92BF92CF92DF92EF92FF924B0139
:1024B0005C0180914602882361F01F928F9382E332
:1024C00095E09F938F930E94600B0F900F900F9059
:1024D0000F90809146028F5F809346020E94130600
:1024E0006B017C010E9413066C197D098E099F09FE
:1024F000681579058A059B0518F40E94DF11F2CF53
:1025000080914602815080934602FF90EF90DF90C9
:10251000CF90BF90AF909F908F9008958F929F9291
:10252000AF92BF92CF92DF92EF92FF920F931F93E1
:10253000CF93DF93CDB7DEB760970FB6F894DEBFC9
:102540000FBECDBF0E9482048C0180E00E94620910
:102550007C0182E00E9462096C0137E0B32E0E9488
:102560008204080F191FBA94B110F9CF23E0169511
:1025700007952A95E1F780911F019091200180171E
:10258000910720F01093200100931F018091170202
:10259000909118020817190720F010931802009361
:1025A000170280911602882339F00E151F0520F4BA
:1025B0000E9440081092160280911602811106C0F6
:1025C000C016D10618F481E080931602809114029F
:1025D000909115020817190709F446C09801281BA5
:1025E000390B2230310508F43FC085EB91E00E94A1
:1025F0002807B80190E080E04AE00E94E40686ECFB
:1026000091E00E942807609114027091150290E0F9
:1026100080E04AE00E94E40682ED91E00E942807F3
:102620006091160270E090E080E04AE00E94E406CB
:1026300081EE91E00E942807B60190E080E04AE038
:102640000E94E40689EE91E00E942807B70190E01D
:1026500080E04AE00E94E40683E491E00E94C5061F
:10266000109315020093140280911902882309F433
:1026700052C0813081F48CE180932203B8018DE156
:1026800093E00E9444060E941E0D62E370E080E029
:1026900090E00E944F1280911902823051F58AE138
:1026A0008093220360911F01709120018DE193E0DE
:1026B0000E9444060E941E0D8BE1809322036091CC
:1026C0001702709118028DE193E00E9444060E9467
:1026D0001E0D8CE180932203B8018DE193E00E94EE
:1026E00044060E941E0D62E370E080E090E00E94CC
:1026F0004F1280911902833041F40E94400860E437
:102700007FE180E090E00E944F126CE271E080E097
:1027100090E00E944F120E94130620911F02222374
:1027200009F4C1C200911B0210911C0220911D02EC
:1027300030911E026B017C01C01AD10AE20AF30A31
:102740009701860101321E442105310528F42091AC
:102750002201222309F4DAC060931B0270931C0249
:1027600080931D0290931E026091210111E0160FCB
:102770001093210180911A028F5F80931A02809139
:102780002A028F5F80932A0289EB95E00E947605EA
:10279000612F70E090E080E04AE00E94E40686EA63
:1027A00095E00E94760580912A020E942D08809172
:1027B0002B02882309F47DC010922B02C0902202C4
:1027C000D0902302E0902402F090250264E087E696
:1027D00094E00E94210680916B048F71806A80933F
:1027E0006B04C0926E04D0926F04E0927004F09279
:1027F000710487E694E00E941E0DC0902202D090E2
:102800002302E0902402F090250283E280934303A8
:1028100065E08EE393E00E94210680914203806E82
:1028200080934203C701B6010E94AD2320E030E04F
:1028300048EC52E40E94AA25609345037093460336
:10284000809347039093480382E0809349038EE38B
:1028500093E00E941E0DC0902602D0902702E090C7
:102860002802F090290220E030E048E952E4C70154
:10287000B6010E94A82387FF29C282E28093430306
:1028800065E08EE393E00E94210680914203806E12
:1028900080934203C0924503D0924603E0924703DF
:1028A000F092480381E0809349038EE393E00E9415
:1028B0001E0D80912201882349F181EF91E00E9451
:1028C000C50683E491E00E94C50610922201C090E3
:1028D0002202D0902302E0902402F090250264E0CE
:1028E00087E694E00E94210680916B048F71806AD4
:1028F00080936B04C0926E04D0926F04E0927004D7
:10290000F092710487E694E00E941E0D80912101EF
:102910008F3008F4B4C0109221010E94E70C83E6C6
:1029200095E00E94D2060E9413066B017C0128EEFE
:1029300033E040E050E00E945526CA01B9012CE383
:1029400030E040E050E00E9455267F936F93C7012E
:10295000B60120E63AEE40E050E00E94552698E1AC
:10296000892E912CA12CB12CCA01B901A501940189
:102970000E9455267F936F93C701B60120E83EEE73
:1029800046E350E00E945526CA01B901A501940111
:102990000E9455267F936F93C701B60120E03CE566
:1029A00046E255E00E9455263F932F938AEF91E02F
:1029B0009F938F938E010F5F1F4F1F930F930E9462
:1029C0005927B80183EE93E00E942A070E941E0D4A
:1029D00088E00E94D3098F7063EE7FEF98E0899FB3
:1029E00060197109112420911D0130911E0147E0E9
:1029F000429FC001439F900D1124680F791F0FB6AD
:102A0000F894DEBF0FBECDBF77FF02C0695F7F4F76
:102A100083E0759567958A95E1F770931E01609341
:102A20001D0182EC93E00E942F060E941E0D67E5B7
:102A300075E081EA93E00E940D0B0E941E0D60E696
:102A400070E080E893E00E942F060E941E0D70E067
:102A500060E086E494E00E942F060E941E0D6CE068
:102A600072E085E294E00E942A070E941E0D62E453
:102A700075E084E094E00E940D0B0E941E0D809191
:102A80001A02843B08F4C5C010921A028CE795E044
:102A90000E94D2066091220270912302809124024A
:102AA000909125020E94F4076091190288E894E051
:102AB0000E9459060E941E0DC0902202D09023024F
:102AC000E0902402F090250264E087E694E00E9402
:102AD000210680916B048F71806A80936B04C09291
:102AE0006E04D0926F04E0927004F092710487E655
:102AF00094E00E941E0DC0902202D0902302E0902C
:102B00002402F090250283E28093430365E08EE384
:102B100093E00E94210680914203806E80934203DD
:102B2000C701B6010E94AD2320E030E048EC52E43A
:102B30000E94AA2560934503709346038093470340
:102B40009093480382E0809349038EE393E00E94D0
:102B50001E0D82E280934303C0902602D09027028C
:102B6000E0902802F090290265E08EE393E00E9455
:102B7000210680914203806E80934203C0924503F8
:102B8000D0924603E0924703F092480381E080939D
:102B900049038EE393E00E941E0D88E18093220397
:102BA00080E00E946209BC018DE193E00E9444062E
:102BB0000E941E0D89E18093220382E00E94620937
:102BC000BC018DE193E00E9444060E941E0D8AE143
:102BD0008093220360911F01709120018DE193E0A9
:102BE0000E9444060E941E0D8BE180932203609197
:102BF0001702709118028DE193E00E9444060E9432
:102C00001E0D68E775E08FE593E00E940D0B0E94B2
:102C10001E0D80912A02863008F445C010922A02C7
:102C200020E030E0A9016091260270912702809196
:102C30002802909129020E94A8238823A1F11092D2
:102C4000260210922702109228021092290263E7AE
:102C500075E08FE593E00E940D0B0E941E0D82E24D
:102C600080934303C0902602D0902702E090280270
:102C7000F090290265E08EE393E00E9421068091A6
:102C80004203806E80934203C0924503D092460374
:102C9000E0924703F092480381E0809349038EE37A
:102CA00093E00E941E0D60960FB6F894DEBF0FBE33
:102CB000CDBFDF91CF911F910F91FF90EF90DF90EB
:102CC000CF90BF90AF909F908F90089569E975E085
:102CD0008FE593E00E940D0BEACDCF9380914802DF
:102CE00081FD28C00E947F0E82EF93E09F938F9317
:102CF0000E94600B809148028160809348020F908F
:102D00000F90C4E02AE143E050E06FEF80E00E94C2
:102D1000720462E00E9459060E94040E8BE10E9438
:102D20000212811102C0C15069F78091480282608D
:102D300080934802CF9108950F931F930E947F06BE
:102D400020913B0220772037B9F000E117E220E024
:102D500030E0061717072807390798F488EE92E045
:102D60009F938F930E94600B0F900F9083E291E0EE
:102D70001F910F910C94920600E61AEE20E030E0CD
:102D8000E8CF1F910F91089580913B02982F907783
:102D9000903759F0982F92959F709F5F97709295FA
:102DA000907F8F78892B80933B0280913B028295A4
:102DB00087701F928F9387ED92E09F938F930E946D
:102DC000600B80913A028B7F8F7E80933A0289EC70
:102DD00092E09F938F930E94600B8CEB92E09F9305
:102DE0008F930E94600B29988DB79EB708960FB6F7
:102DF000F8949EBF0FBE8DBF6CE080E20C94B509C5
:102E000080913B028F70863060F083EA92E09F935E
:102E10008F930E94600B0F900F9089E191E00C94CA
:102E20009206089580917E021F928F9380917D0279
:102E30001F928F9380917C021F928F9384E892E07F
:102E40009F938F930E94600B80913A0284608093DD
:102E50003A0280913B02807880933B02E09120020D
:102E6000F09121028DB79EB708960FB6F8949EBFD9
:102E70000FBE8DBF309709F00994089580913C02F0
:102E80008F3F81F10E9413066093360270933702E0
:102E9000809338029093390288E792E09F938F9352
:102EA0000E94600B90913C0280917E020F900F90E7
:102EB0009817A1F01F929F931F928F9380E692E044
:102EC0009F938F930E94600B80913C0280937E02BF
:102ED0000F900F900F900F900F900F9085E191E061
:102EE0000C9492060E947F06613D77408105910512
:102EF000B8F080913A02803618F481E191E0F0CF89
:102F000081E592E09F938F930E94600B80913A023B
:102F1000877F80933A020F900F9089E191E0E0CF94
:102F2000089588E492E09F938F930E94600B8FEF47
:102F300080933C02EAE3F2E080818860808328E1AC
:102F400043E050E06FEF80E00E94720461E00E9475
:102F500059060F900F900C94800C80917C028F3F4B
:102F600061F08DE392E09F938F930E94600B0F902E
:102F70000F9081E191E00C9492060E947F06613DE2
:102F800077408105910590F080913A02803618F4DF
:102F90008DE091E0F0CF8FE292E09F938F930E94BB
:102FA000600B0F900F9089E091E0E5CF089587E2E4
:102FB00092E09F938F930E94600B0F900F908091EF
:102FC0007C028F3FA9F48BE192E09F938F930E9444
:102FD000600B23E043E050E06FEF80E00E9472045A
:102FE00065E471E00E942A070F900F900C94800C0A
:102FF00008950E947F06613D77408105910520F488
:1030000080913A0281FF2FC080917D028F3F89F02D
:103010008EE092E09F938F930E94600B80913A0222
:103020008E7F80933A020F900F908DE091E00C9488
:10303000920680913A02803658F48AEE91E09F938E
:103040008F930E94600B0F900F9089E191E0EFCF7A
:103050008EEF91E09F938F930E94600B0F900F90E3
:1030600089E091E0E4CF089580EE91E09F938F9303
:103070000E94600BEAE3F2E08081897F81608083B7
:10308000ECE7F2E08FEF8283818327E043E050E0BA
:103090006FEF0E94720465E471E00E942A070F90AE
:1030A0000F900C94800CCF93219A229A29982A9AF7
:1030B000CFB7F89480911202811146C082E398E064
:1030C000FC01249146E458E0FA013491E22FF0E04B
:1030D000EE0FFF1FE25EF74FA591B4912C913223C2
:1030E00021F5E6E7F1E02491FA014491FC01949185
:1030F0009923D9F0222359F0233009F471C008F044
:1031000064C0213009F472C0223009F473C0E92F81
:10311000F0E0EE0FFF1FEC5EF74FA591B4918FB773
:10312000F8949C91492B4C938FBF8AE00E945304E2
:103130008CB580618CBD8CB580648CBD8DE00E94A7
:1031400053048BE00E945304809112028F5F80939E
:103150001202CFBF29986EE080E20E94B50984E296
:1031600093E20197F1F763E083E20E94B5096FE50E
:1031700084E20E94B50960E685E20E94B50963E237
:1031800086E20E94B50964E08DE30E94B5098DE1F5
:103190000E94D309843041F063E780E50E94B509BD
:1031A00064E08DE30E94B5090E94D90981112FC006
:1031B00080E891E09F938F930E94600B0F900F9097
:1031C00089E091E0CF910C9492062730B1F028303D
:1031D000D1F0243009F09BCF809180008F7D03C017
:1031E000809180008F778093800091CF84B58F7716
:1031F00084BD8DCF84B58F7DFBCF8091B0008F775C
:103200008093B00084CF8091B0008F7DF9CF62E0D1
:1032100082E20E94B50960E081E20E94B50963E0A4
:103220008CE30E94B5098FEF8093030120E045E015
:1032300063E071E08BE20E94760920E045E063E004
:1032400071E08AE20E94760920E045E063E071E0E7
:1032500080E30E94760982EE0E94E70981EE0E94D7
:10326000E70960E787E20E94B5098FEC91E09F9340
:103270008F930E94600B80913A02806180933A02A2
:1032800080917F028E7F80937F021F92C6E6CF934C
:103290008BEB91E09F938F930E94600BC0937C0215
:1032A00066E690E080E00E94F424C0917C020F90DA
:1032B0000F900F900F900F900F90CF3F09F18FEF6D
:1032C0008C0F8E3F00F5C093080163E082E20E94FC
:1032D000B50961E081E20E94B5090E94C6096C2F20
:1032E00090E080E00E94F4241F92CF9384E991E063
:1032F0009F938F930E94600B0F900F900F900F90F1
:1033000089E191E05FCF1F921F9286EA91E09F933F
:103310008F930E94600B0F900F900F900F9050CFE3
:1033200082E691E09F938F930E94600BEAE3F2E0C4
:103330008081877F8F7E80831092360210923702C1
:1033400010923802109239020F900F9044E050E032
:1033500070E060E08CE792E00C94CC241F920F9216
:103360000FB60F9211242F933F934F935F936F9358
:103370007F938F939F93AF93BF93EF93FF9380E8D7
:1033800092E00E940705FF91EF91BF91AF919F914D
:103390008F917F916F915F914F913F912F910F90FE
:1033A0000FBE0F901F9018951F920F920FB60F929D
:1033B00011242F938F939F93EF93FF93E0919002AB
:1033C000F09191028081E0919602F091970282FD46
:1033D0001BC09081809199028F5F8F7320919A0218
:1033E000821741F0E0919902F0E0E058FD4F958F8F
:1033F00080939902FF91EF919F918F912F910F9060
:103400000FBE0F901F9018958081F4CF1F920F92DE
:103410000FB60F9211242F933F938F939F93AF93E7
:10342000BF9380913E0290913F02A0914002B091E3
:10343000410230913D0226E0230F2D3758F50296C8
:10344000A11DB11D20933D0280933E0290933F0247
:10345000A0934002B09341028091420290914302B6
:10346000A0914402B09145020196A11DB11D809327
:10347000420290934302A0934402B0934502BF914D
:10348000AF919F918F913F912F910F900FBE0F9011
:103490001F90189529E8230F0396A11DB11DD2CFC7
:1034A0001F920F920FB60F9211242F933F934F93B9
:1034B0005F936F937F938F939F93AF93BF93EF939C
:1034C000FF93E0912901F0912A010995FF91EF9175
:1034D000BF91AF919F918F917F916F915F914F912C
:1034E0003F912F910F900FBE0F901F9018951F9234
:1034F0000F920FB60F9211242F933F934F935F9328
:103500006F937F938F939F93AF93BF93EF93FF93AB
:10351000E0912701F09128010995FF91EF91BF916A
:10352000AF919F918F917F916F915F914F913F915B
:103530002F910F900FBE0F901F9018951F920F9212
:103540000FB60F9211240F900FBE0F901F90189579
:10355000CF93DF93FC0110821182128214821582B4
:103560001682DC0117968AE1ED0119928A95E9F736
:1035700082E08383DF91CF910895CF93E0E8F2E07A
:103580001382128288EE93E0A0E0B0E084839583FA
:10359000A683B78385E391E09183808385EC90E0F7
:1035A0009587848784EC90E09787868780EC90E00D
:1035B000918B808B81EC90E0938B828B82EC90E0FE
:1035C000958B848B86EC90E0978B868B118E128E78
:1035D000138E148E8AEC94E00E94A81A89EA94E073
:1035E0000E94A81A88E894E00E94A81AE8E8F4E08B
:1035F00086E48683CFE2C58387E694E00E94A81A1A
:10360000E7E6F4E087E48683C58386E494E00E94DD
:10361000A81AE6E4F4E080E58683C58385E294E0B9
:103620000E94A81AE5E2F4E081E58683C58384E080
:1036300094E00E94A81AE4E0F4E089E58683C5835B
:1036400083EE93E00E94A81AE3EEF3E08AE5868316
:10365000C58382EC93E00E94A81AE2ECF3E08BE5CC
:103660008683C58381EA93E00E94A81AE1EAF3E029
:103670008CE58683C58380E893E00E94A81AE0E881
:10368000F3E08DE58683C5838FE593E00E94A81A59
:10369000EFE5F3E080E68683C5838EE393E00E9446
:1036A000A81AEEE3F3E081E0868383E285838DE16F
:1036B00093E00E94A81AEDE1F3E082E0868388E1BE
:1036C0008583CF910895789484B5826084BD84B554
:1036D000816084BD85B5826085BD85B5816085BD0D
:1036E00080916E00816080936E00109281008091C5
:1036F000810082608093810080918100816080934D
:103700008100809180008160809380008091B10071
:1037100084608093B1008091B00081608093B0009C
:1037200080917A00846080937A0080917A00826030
:1037300080937A0080917A008E7F80937A008091C6
:103740007A00806880937A001092C100A895E09179
:103750009002F091910282E08083E0918C02F091DE
:103760008D021082E0918E02F0918F0288E08083BA
:1037700010929802E0919402F091950286E0808385
:10378000E0919202F0919302808180618083E091C8
:103790009202F0919302808188608083E09192028E
:1037A000F0919302808180688083E0919202F09191
:1037B000930280818F7D8083C0E1D0E0F12CFE01F7
:1037C000F595E795EC52FA4FE491C0FF9FC0EF707A
:1037D000E83008F0ADC0F0E0EC52FA4FF4906F2DF5
:1037E00080E892E00E9429052196C23FD10539F771
:1037F0008DEC95E00E94D2061F928FEF8F931F925F
:1038000088E08F938FE896E09F938F930E94600BE0
:10381000809148028D7F8093480282E896E09F93D2
:103820008F930E94600B0E94E00641E050E063E04D
:1038300071E087E492E00E94CC246FEF81E090E099
:103840000E94F42480913B028F7880933B02109277
:1038500031021092300283E291E00E9492068DE6DE
:1038600096E190932102809320021F921F9283E1A0
:103870008F9388E88F938DE496E09F938F930E94B7
:10388000600B0E9413066B017C018DB79EB70E96EC
:103890000FB6F8949EBF0FBE8DBF0E9413066C1921
:1038A0007D098E099F09683873418105910580F172
:1038B00085E796E09F938F930E94600B0E946A0AAF
:1038C00090913A020F900F9092FB882780F992FD19
:1038D0000E94D9091F928F938DE596E09F938F9355
:1038E0000E94600BA8950F900F900F900F90C0E072
:1038F000D0E00E94DF110E948E122097D1F30E9427
:10390000FD048823B1F30E940000F3CFE2955FCF5E
:103910000E94740680913A0284FD0E94BD0E80913F
:103920003A0282FB882780F9A8958111C1CFB5CFD3
:103930001BEF1E0F00E06F2D80E892E00E9429052A
:103940000F5F0117C0F350CFEF920F931F93CF93E8
:10395000DF93E80134E047FD34E1042E000C550B01
:1039600057FF03C0519541955109E32E022F242F93
:10397000AE010E94BD20CE01DF91CF911F910F912A
:10398000EF9008950F931F93CF93DF9382309105AB
:1039900010F482E090E0E091ED04F091EE0430E06C
:1039A00020E0B0E0A0E0309799F42115310509F44A
:1039B0004AC0281B390B24303105D8F58A819B81F8
:1039C0006115710589F1FB0193838283FE0111C0AA
:1039D000408151810281138148175907E0F048174F
:1039E000590799F4109761F012960C931297139659
:1039F0001C933296CF01DF91CF911F910F910895C3
:103A00000093ED041093EE04F4CF2115310551F02D
:103A10004217530738F0A901DB019A01BD01DF010C
:103A2000F801C1CFEF01F9CF9093EE048093ED043C
:103A3000CDCFFE01E20FF31F819391932250310904
:103A400039832883D7CF2091EB043091EC04232BCA
:103A500041F420912D0130912E013093EC042093FC
:103A6000EB0420912B0130912C012115310541F4FB
:103A70002DB73EB740912F0150913001241B350BDB
:103A8000E091EB04F091EC04E217F307A0F42E1B95
:103A90003F0B2817390778F0AC014E5F5F4F2417B2
:103AA000350748F04E0F5F1F5093EC044093EB0432
:103AB000819391939FCFF0E0E0E09CCFCF93DF9391
:103AC0000097E9F0FC01329713821282A091ED0475
:103AD000B091EE04ED0130E020E01097A1F42081D8
:103AE0003181820F931F2091EB043091EC04281751
:103AF000390709F061C0F093EC04E093EB04DF9127
:103B0000CF910895EA01CE17DF07E8F54A815B817E
:103B10009E0141155105B1F7E901FB83EA83499103
:103B20005991C40FD51FEC17FD0761F48081918175
:103B30000296840F951FE90199838883828193817E
:103B40009B838A83F0E0E0E012968D919C9113971D
:103B50000097B9F52D913C911197CD010296820FF6
:103B6000931F2091EB043091EC042817390739F6A4
:103B7000309751F51092EE041092ED04B093EC04DE
:103B8000A093EB04BCCFD383C28340815181840FC7
:103B9000951FC817D90761F44E5F5F4F88819981DF
:103BA000480F591F518340838A819B81938382836D
:103BB0002115310509F0B0CFF093EE04E093ED0448
:103BC0009ECFFD01DC01C0CF13821282D7CFFC0152
:103BD00088279927E89421912032E9F3293010F0C1
:103BE0002E30C8F32B3241F02D3239F4689404C0E2
:103BF0000E94731E820F911D219120532A30C0F321
:103C00001EF4909581959F4F08951F93FC0199276D
:103C10008827BC01E89411911032E9F3193010F0B3
:103C20001E30C8F31B3251F01D3249F4689406C0AF
:103C30000E945E1E610F711D811D911D1191105317
:103C40001A30B0F33EF490958095709561957F4F52
:103C50008F4F9F4F1F910895FC0105900020E9F7B9
:103C6000809590958E0F9F1F0895FB01DC014150B8
:103C7000504048F005900D920020C9F701C01D92F8
:103C800041505040E0F70895BB274A3031F4992362
:103C900022F4BDE2909581959F4F0C949E1EBB2708
:103CA0002A3051F4992342F4BDE2909580957095A5
:103CB00061957F4F8F4F9F4F0C947C1E592F482F3B
:103CC000372F262F660F771F881F991F660F771FC4
:103CD000881F991F620F731F841F951F660F771F20
:103CE000881F991F08957AE0979F902D879F802DB8
:103CF000910D11240895BB27FA01A62F62177105B3
:103D000081059105330B30FB66F0AA27660F771FFC
:103D1000881F991FAA1FA21710F0A21B6395385085
:103D2000A9F7A05DAA3308F0A95DA19336F7B111F8
:103D3000B1931082CA010C940A23BB27FB015527BB
:103D4000AA27880F991FAA1FA41710F0A41B8395F8
:103D50005051B9F7A05DAA3308F0A95DA19300976F
:103D600079F7B111B1931192CB010C940A23AEE013
:103D7000B0E0EDEBFEE10C9414258C01FA018EE02D
:103D80008C831A83098377FF02C060E070E861507A
:103D900071097E836D83A901BF01CE0101960E9446
:103DA000E31E4D815E8157FD0AC02F813885421781
:103DB00053070CF49A01020F131FF80110822E967C
:103DC000E4E00C943025ABE0B0E0E9EEFEE10C94C9
:103DD00006257C013B018A01FC0117821682838142
:103DE00081FFC8C1CE0101965C01F7019381F30107
:103DF00093FD859193FF81913F01882309F453C17D
:103E0000853239F493FD859193FF81913F0185328D
:103E100029F4B70190E00E941A23E7CF912C212CBE
:103E2000312CFFE1F31538F08B3211F190F4803230
:103E300009F1833229F137FC3CC020ED280F2A30EC
:103E400050F536FE20C08AE0989E200D1124922E57
:103E500006C08D3291F0803371F7689430F8F30129
:103E600093FD859193FF81913F018111DACF21C0AC
:103E7000689431F8689432F8F2CF689433F8EFCF51
:103E8000689434F8ECCFEAE02E9E200D1124222E07
:103E9000689435F8E4CF8E3229F436FC04C1689476
:103EA00036F8DDCF8C3619F4689437F8D8CF8836D9
:103EB000B1F2982F9F7D95549330E0F08336A1F1B5
:103EC0008337C1F1833509F063C02801F2E04F0E5A
:103ED000511CF801C080D180692D70E036FC02C011
:103EE0006FEF7FEFC6010E94F4224C01689437F80F
:103EF00082010AC00C5F1F4FFFE3F983882483947B
:103F0000912C6501E89437F833FE2DC0522C8114B2
:103F1000910471F5552009F468CFB70180E290E073
:103F20000E941A235A94F6CFF801808189830E5F8C
:103F30001F4FE4CF2801F2E04F0E511CF801C08062
:103F4000D180692D70E036FC02C06FEF7FEFC601B3
:103F50000E94FF224C018201D5CFB70180E290E0A0
:103F60000E941A232A942814190409F0B0F7CECF1E
:103F7000F60137FC859137FE81916F01B70190E022
:103F80000E941A2351105A94F1E08F1A9108BFCF62
:103F9000843619F0893609F077C0F80137FE6BC016
:103FA00060817181828193810C5F1F4FF32DFF76B9
:103FB0003F2E97FF09C090958095709561957F4F32
:103FC0008F4F9F4F689437F82AE030E0A5010E9498
:103FD0004A23C82ECA188C2C432C36FE0CC0E894F9
:103FE00040F8C91440F434FE05C032FC03C0F32D80
:103FF000FE7E4F2E892C44FE95C0FE01EC0DF11D76
:104000008081803309F087C0242D297E422E842DA3
:104010008870582E43FC95C040FE8FC09C2C8214A3
:1040200018F42C0C922C981844FE91C0B70180E330
:1040300090E00E941A2342FE09C088E790E041FE0A
:1040400002C088E590E0B7010E941A23C91408F461
:104050008AC0CA94D12C9FEFC91AD90ACA0CDB1C9A
:10406000F60182916F01B70190E00E941A23AC140F
:10407000BD04B1F74FCF60817181072E000C880B12
:10408000990B0E5F1F4F92CFD32CE894D4F82AE0FF
:1040900030E0853739F1232D297FD22E8F3601F17B
:1040A00048F48835A9F0F701868197812B96E2E1E3
:1040B0000C942225803749F08837A9F7D4FE02C036
:1040C0006894D2F820E130E00DC06894D4F8F6CFBF
:1040D00034FE03C0822F8660D82E20E132E002C079
:1040E00028E030E0F801D7FE0FC060817181828145
:1040F00093810C5F1F4FA5010E944A23C82ECA1846
:104100003D2CE89437F867CF6081718190E080E0C2
:104110000E5F1F4FF0CF42FC02C0839478CF839490
:10412000839475CF842D867809F471CFF6CFB701CB
:1041300080E290E00E941A2383948214C0F3512CF1
:1041400073CF522C5818821408F46ECFF8CF842DF8
:10415000867809F47BCF8BE241FE80E247FC8DE25A
:10416000B70190E071CFB70180E390E00E941A237D
:104170009A946CCF8FEF9FEF99CFA9E0B0E0E3EC7A
:10418000F0E20C940C256A01F22EB02E102FFBE306
:10419000AF2EA01608F41BE31F5F012F27E0AE012E
:1041A0004F5F5F4F0E941C22BC018981982F99703C
:1041B000913009F43FC09BE2E1FC04C09E2D917058
:1041C000E0FC3AC05E2D5071E82FE87083FF46C0D6
:1041D00084E0911101C083E0EF2DE81B8F1508F0FA
:1041E000E0E0D6018E2F20E2552351F1992329F0EA
:1041F000D6019C93C60101966C0196012D5F3F4F3D
:10420000E2FE24C08EE4D6018C9391E411969C9337
:10421000119712968C93D9018E2F90E281111BC0B9
:10422000E20FF32FF11D10828EEF9FEF2996ECE045
:104230000C9428259DE2C6CF90E2C4CF2D938150E7
:104240008111FCCFCE0ED11CE0E0D0CF8EE6D6019E
:104250008C9391E6DBCF9D938150E0CF482F447043
:1042600082FF3DC084E0911101C083E08F1510F4FE
:10427000EF2DE81BD6018E2F20E2552309F199235B
:1042800029F0D6019C93C60101966C0196012D5F21
:104290003F4FE2FE1BC089E4D6018C938EE4119659
:1042A0008C93119786E412968C93D9018E2F90E20D
:1042B000882309F4B5CF9D938150FACF2D93815077
:1042C0008111FCCFCE0ED11CE0E0D9CF89E6D6011A
:1042D0008C938EE611968C93119786E6E4CF9B0122
:1042E00077FF02C030E020E0A1E0B0E0911102C011
:1042F000B0E0A0E0F9013196AE0FBF1F8B2C912CDE
:10430000BB2009F461C05401EFEFAE1ABE0AAA0D3A
:10431000BB1DFA161B0619F014F04F2D4A1B511144
:1043200088C0E3FC59C07601A42FB0E2A1114FC0B0
:10433000C40ED11C992309F45BC040E0D60111964C
:10434000F60190836D01552309F448C0012F060F33
:104350009A81582F507184FF03C0913309F40150A2
:1043600010160CF047C0093008F008E0EEE2FE2E0F
:104370005B01A01AB10885019194819491082F3FA7
:10438000320729F4D601FC92F60131966F016217CB
:10439000730794F1021713077CF5DB01A21BB30B23
:1043A000AA24A394B12CAC0EBD1EAA0DBB1D119660
:1043B0008C9121503109D601119628153905F4F058
:1043C000F60180836D01DBCFB12CA12CA0CFF701CA
:1043D000B1937F01A150AACF9111B0CFD601942FF4
:1043E00050E302C05D9391509111FCCFC40ED11CDB
:1043F00040E0ACCF01E0BACF80E3DBCF62177307B8
:1044000031F4963388F4953311F4552369F0F601AD
:104410008083FD01842F90E2811108C0A40FB11D9B
:104420001C9290E080E002CF81E3F1CF9193815024
:10443000F3CF911183CF8ACF283008F027E03327BC
:10444000DA01990F311D87FD9160009661057105B4
:1044500039F432602E5F3D9330E32A95E1F70895F9
:104460009F3F30F080387105610509F03C5F3C5F8B
:104470003D93913008F08068911DDF93CF931F9397
:104480000F93FF92EF92192F987F9695E92F9695AB
:104490009695E90FFF27EE53FF4F99273327EE2418
:1044A000FF24A701E70105900894079428F4360F2C
:1044B000E71EF81E491F511D660F771F881F991FA1
:1044C0000694A1F70590079428F4E70EF81E491FFB
:1044D000561FC11D770F881F991F661F0694A1F7ED
:1044E0000590079428F4F80E491F561FC71FD11DC9
:1044F000880F991F661F771F0694A1F705900794F0
:1045000020F4490F561FC71FD81F990F661F771F2A
:10451000881F0694A9F784911095177041F0D695DD
:10452000C79557954795F794E7941A95C1F7E8E62C
:10453000F0E06894159015913591659195910590ED
:104540007FE27395E118F10A430B560BC90BD009B2
:10455000C0F7E10CF11E431F561FC91FD01D7EF48A
:10456000703311F48A95E6CFE894015030F0080FCB
:104570000AF40027021708F4202F2395022F7A331C
:1045800028F079E37D932A95E9F710C07D932A9569
:1045900089F6069497956795379517951794E118BE
:1045A000F10A430B560BC90BD00998F023957E9165
:1045B00073957A3308F070E37C932013B8F77E91FB
:1045C00070617D9330F0839571E37D9370E32A955C
:1045D000E1F71124EF90FF900F911F91CF91DF91A0
:1045E000992787FD90950895FC01059061507040D2
:1045F0000110D8F7809590958E0F9F1F0895FC01AC
:104600006150704001900110D8F7809590958E0F01
:104610009F1F0895DC01FC01672F71917723E1F75B
:10462000329704C07C916D9370836291AE17BF077F
:10463000C8F308950F931F93CF93DF93182F092F7B
:10464000EB018B8181FD09C01FEF0FEF812F902FB0
:10465000DF91CF911F910F91089582FF14C02E8199
:104660003F818C819D81281739073CF4E881F981CD
:10467000CF0101969983888310838E819F81019653
:104680009F838E83E3CFE885F985812F0995892B58
:10469000A1F3DACFFA01AA27283051F1203181F1B4
:1046A000E8946F936E7F6E5F7F4F8F4F9F4FAF4F3A
:1046B000B1E03ED0B4E03CD0670F781F891F9A1F4D
:1046C000A11D680F791F8A1F911DA11D6A0F711D01
:1046D000811D911DA11D20D009F468943F912AE00D
:1046E000269F11243019305D3193DEF6CF010895F5
:1046F000462F4770405D4193B3E00FD0C9F7F6CF26
:10470000462F4F70405D4A3318F0495D31FD4052ED
:10471000419302D0A9F7EACFB4E0A6959795879583
:1047200077956795BA95C9F7009761057105089562
:104730009B01AC010A2E069457954795379527950E
:10474000BA95C9F7620F731F841F951FA01D0895A6
:104750000E94EA2308F481E00895E89409C097FBD9
:104760003EF490958095709561957F4F8F4F9F4F48
:104770009923A9F0F92F96E9BB279395F69587958C
:1047800077956795B795F111F8CFFAF4BB0F11F44F
:1047900060FF1BC06F5F7F4F8F4F9F4F16C08823F6
:1047A00011F096E911C0772321F09EE8872F762F2C
:1047B00005C0662371F096E8862F70E060E02AF06D
:1047C0009A95660F771F881FDAF7880F9695879559
:1047D00097F90895990F0008550FAA0BE0E8FEEF2E
:1047E00016161706E807F907C0F012161306E407B5
:1047F000F50798F0621B730B840B950B39F40A26AE
:1048000061F0232B242B252B21F408950A2609F48B
:10481000A140A6958FEF811D811D08950E9421243E
:104820000C9492240E94842438F00E948B2420F05F
:10483000952311F00C947B240C94812411240C9466
:10484000C6240E94A32470F3959FC1F3950F50E0F6
:10485000551F629FF001729FBB27F00DB11D639F32
:10486000AA27F00DB11DAA1F649F6627B00DA11DD8
:10487000661F829F2227B00DA11D621F739FB00D7E
:10488000A11D621F839FA00D611D221F749F3327EE
:10489000A00D611D231F849F600D211D822F762F87
:1048A0006A2F11249F5750409AF0F1F088234AF064
:1048B000EE0FFF1FBB1F661F771F881F91505040D0
:1048C000A9F79E3F510580F00C947B240C94C624DC
:1048D0005F3FE4F3983ED4F3869577956795B79557
:1048E000F795E7959F5FC1F7FE2B880F911D969571
:1048F000879597F9089597F99F6780E870E060E0E1
:1049000008959FEF80EC089500240A941616170668
:1049100018060906089500240A94121613061406B0
:1049200005060895092E0394000C11F4882352F013
:10493000BB0F40F4BF2B11F460FF04C06F5F7F4FCB
:104940008F4F9F4F089557FD9058440F551F59F0B2
:104950005F3F71F04795880F97FB991F61F09F3F6C
:1049600079F087950895121613061406551FF2CF95
:104970004695F1DF08C0161617061806991FF1CFE5
:1049800086957105610508940895E894BB2766270C
:104990007727CB0197F90895DC01CB01FC01F99948
:1049A000FECF06C0F2BDE1BDF89A319600B40D927B
:1049B00041505040B8F70895F999FECF92BD81BD9E
:1049C000F89A992780B50895DC01A40FB51F4150CE
:1049D000504048F0CB01840F951F2E910E94F52482
:1049E00041505040D0F70895262FF999FECF92BD3F
:1049F00081BDF89A019700B4021639F01FBA20BDA4
:104A00000FB6F894FA9AF99A0FBE08952F923F9232
:104A10004F925F926F927F928F929F92AF92BF92CE
:104A2000CF92DF92EF92FF920F931F93CF93DF937A
:104A3000CDB7DEB7CA1BDB0B0FB6F894DEBF0FBED7
:104A4000CDBF09942A88398848885F846E847D8424
:104A50008C849B84AA84B984C884DF80EE80FD8026
:104A60000C811B81AA81B981CE0FD11D0FB6F8949C
:104A7000DEBF0FBECDBFED0108955058BB27AA275A
:104A80000E9455250C9492240E94842438F00E94A0
:104A90008B2420F039F49F3F19F426F40C948124E0
:104AA0000EF4E095E7FB0C947B24E92F0E94A324ED
:104AB00058F3BA17620773078407950720F079F453
:104AC000A6F50C94C5240EF4E0950B2EBA2FA02D5C
:104AD0000B01B90190010C01CA01A0011124FF27AB
:104AE000591B99F0593F50F4503E68F11A16F040A6
:104AF000A22F232F342F4427585FF3CF46953795A5
:104B00002795A795F0405395C9F77EF41F16BA0B69
:104B1000620B730B840BBAF09150A1F0FF0FBB1F17
:104B2000661F771F881FC2F70EC0BA0F621F731F60
:104B3000841F48F4879577956795B795F7959E3FBD
:104B400008F0B0CF9395880F08F09927EE0F97954E
:104B5000879508950E94BE250C9492240E948B2470
:104B600058F00E94842440F029F45F3F29F00C940F
:104B70007B2451110C94C6240C9481240E94A324FC
:104B800068F39923B1F3552391F3951B550BBB277C
:104B9000AA2762177307840738F09F5F5F4F220FC1
:104BA000331F441FAA1FA9F335D00E2E3AF0E0E8B8
:104BB00032D091505040E695001CCAF72BD0FE2F02
:104BC00029D0660F771F881FBB1F26173707480796
:104BD000AB07B0E809F0BB0B802DBF01FF2793584E
:104BE0005F4F3AF09E3F510578F00C947B240C9473
:104BF000C6245F3FE4F3983ED4F386957795679596
:104C0000B795F7959F5FC9F7880F911D9695879582
:104C100097F90895E1E0660F771F881FBB1F6217A1
:104C200073078407BA0720F0621B730B840BBA0B5F
:104C3000EE1F88F7E09508950E94AB2488F09F57F7
:104C400098F0B92F9927B751B0F0E1F0660F771FB0
:104C5000881F991F1AF0BA95C9F714C0B13091F0A6
:104C60000E94C524B1E008950C94C524672F782FC5
:104C70008827B85F39F0B93FCCF38695779567956B
:104C8000B395D9F73EF490958095709561957F4FD7
:104C90008F4F9F4F08950E94EA2308F48FEF0895E5
:104CA0000E94EA23880B990B0895A1E21A2EAA1BF1
:104CB000BB1BFD010DC0AA1FBB1FEE1FFF1FA217CC
:104CC000B307E407F50720F0A21BB30BE40BF50BC9
:104CD000661F771F881F991F1A9469F76095709552
:104CE000809590959B01AC01BD01CF010895EE0F19
:104CF000FF1F0590F491E02D0994B0E0A0E0E3E8F7
:104D0000F6E20C9408258C01009751F4CB010E9427
:104D1000C21C8C01C801CDB7DEB7E0E10C9424259C
:104D2000FC01E60FF71F9C0122503109E217F3073F
:104D300008F49DC0D901CD91DC911197C617D70712
:104D400098F0C530D10530F3CE0104978617970748
:104D500008F3C61BD70B2297C193D1936D937C9315
:104D6000CF010E945E1DD6CF5B01AC1ABD0A4C017B
:104D70008C0E9D1EA091ED04B091EE04512C412C9F
:104D8000F12CE12C109731F58091EB049091EC041B
:104D90008815990509F05CC04616570608F058C0FA
:104DA00080912B0190912C01009741F48DB79EB713
:104DB00040912F0150913001841B950BE817F907A2
:104DC00008F055C0F093EC04E093EB04F901718313
:104DD0006083A0CF8D919C91119712966C90129741
:104DE00013967C901397A815B90559F56C0142E00C
:104DF000C40ED11CCA14DB0420F1AC014A195B09B2
:104E0000DA011296159780F0628273825183408393
:104E1000D9016D937C93E114F10471F0D7011396DD
:104E2000FC93EE93129776CF22968C0F9D1FF9017B
:104E300091838083F301EFCFF093EE04E093ED04D0
:104E400069CF4816590608F42C017D01D3019ACF89
:104E5000CB010E94C21C7C01009749F0AE01B80151
:104E60000E943A27C8010E945E1D870153CF10E0BF
:104E700000E050CFFB01DC0102C001900D924150D7
:104E80005040D8F70895FB01DC0101900D920020FD
:104E9000E1F70895FB01DC014150504048F00190DA
:104EA0000D920020C9F701C01D9241505040E0F71B
:104EB0000895AEE0B0E0EFE5F7E20C9414250D891B
:104EC0001E8986E08C831A8309838FEF9FE79E8378
:104ED0008D83AE01475E5F4F6F89788DCE0101965D
:104EE0000E94E31E2F813885020F131FF8011082E4
:0C4EF0002E96E4E00C943025F894FFCFDF
:104EFC00FFFFFF00FCE1A8A8FFC4169C16D717AD56
:104F0C001791173E17121700173418F917E3FF0003
:104F1C00040F01901953181F061F060000EF0480A0
:104F2C00000000000029059304C0049105F104CF92
:104F3C0004E3040D0A006E657750756C73653A20B6
:104F4C000020696E74657276616C3A200020666C84
:104F5C006F773A20006E616E00696E66006F766640
:104F6C000030002D003C4E4F4E43453E004F4B0051
:104F7C004E41434B003F0021006E6577204D657418
:104F8C00657256616C75652066726F6D20475700AF
:104F9C00476173204D6574657200332E30330032D7
:104FAC002E332E3200636865636B546872657368C8
:104FBC006F6C643A2000206F6C6456616C75653AB6
:104FCC0020002073656E736F7253746174653A20A0
:104FDC000020686954483A2000204C6F54483A200D
:104FEC0000696E666F726D4757002564202530325C
:104FFC00643A253032643A25303264004155544FBE
:02500C000000A2
:00000001FF
