:100000000C9429040C94431A0C941C1A0C9451045B
:100010000C9451040C9451040C946A1A0C945104DD
:100020000C9451040C9451040C9451040C945104FC
:100030000C9451040C9451040C9451040C945104EC
:100040000C94D2190C9451040C94A0190C947A19A4
:100050000C9451040C9451040C9451040C945104CC
:100060000C9451040C94510400407A10F35A00A0EF
:10007000724E18090010A5D4E80000E87648170071
:1000800000E40B54020000CA9A3B000000E1F505B1
:10009000000080969800000040420F000000A086FB
:1000A00001000000102700000000E803000000002D
:1000B0006400000000000A000000000001000000D1
:1000C00000002C76D888DC674F0823DFC1DFAE59EB
:1000D000E1B1B796E5E3E453C63AE651997696E87E
:1000E000E6C28426EB898C9B62ED407C6FFCEFBC02
:1000F0009C9F40F2BAA56FA5F490055A2AF75C932D
:100100006B6CF9676DC11BFCE0E40D47FEF520E662
:10011000B500D0ED902E0300943577050080841E45
:10012000080000204E0A000000C80C333333330FA0
:10013000986E12831141EF8D2114893BE65516CF3D
:10014000FEE6DB18D1844B381BF77C1D901DA4BB49
:10015000E424203284725E228100C9F124ECA1E5FE
:100160003D2754534D3A494E49540A0000000008B7
:10017000000201000003040700000000000000006E
:100180002154534D3A494E49543A54535020464114
:10019000494C0A005453463A5349443A4F4B2C4970
:1001A000443D25750A00215453463A5349443A4682
:1001B00041494C2C49443D25750A0054534D3A4958
:1001C0004E49543A5354415449443D25750A00540C
:1001D000534D3A494E49543A545350204F4B0A001C
:1001E00054534D3A465041520A002154534D3A4619
:1001F0005041523A4E4F205245504C590A0021541A
:10020000534D3A465041523A4641494C0A005453E4
:100210004D3A465041523A4F4B0A0054534D3A49D9
:10022000443A5245510A0054534D3A49440A002178
:1002300054534D3A49443A4641494C0A0054534DAF
:100240003A49443A4F4B0A0054534D3A55504C0AE0
:10025000002154534D3A55504C3A4641494C0A00FE
:1002600054534D3A55504C3A444757432C4F3D2533
:10027000752C4E3D25750A0054534D3A55504C3A55
:100280004F4B0A0054534D3A52454144593A494460
:100290003D25752C5041523D25752C4449533D2533
:1002A000750A002154534D3A52454144593A55502C
:1002B0004C204641494C2C534E500A005453463A68
:1002C0005444493A54534C0A0054534D3A46414918
:1002D0004C3A4449530A0054534D3A4641494C3A2A
:1002E000434E543D25750A0054534D3A4641494CFE
:1002F0003A52452D494E49540A00215453463A5228
:1003000054453A4E324E204641494C0A0054534619
:100310003A5254453A4E324E204F4B0A0021545324
:10032000463A5254453A4650415220414354495668
:10033000450A00215453463A534E443A544E520A09
:1003400000536176653A2064656275674C65766531
:100350006C20746F200068775265626F6F74007351
:10036000686F77454570726F6D48657800646267A5
:10037000332073656E642064756D6D790064626707
:10038000322073656E6420565F564152332D35001E
:10039000646267312073656E6420565F5641523542
:1003A0000064626720300025735453463A4D53472A
:1003B0003A53454E442C25752D25752D25752D2533
:1003C000752C733D25752C633D25752C743D257565
:1003D0002C70743D25752C6C3D25752C73673D255F
:1003E000752C66743D25752C73743D25733A257301
:1003F0000A004D434F3A5245473A5245510A0021AF
:100400004D434F3A50524F3A52433D25750A0062D0
:1004100065666F72650064656275674C6576656CCC
:10042000206C6576656C206665746368656420661B
:10043000726F6D20454550524F4D200053617665D7
:100440003A2064656275674C6576656C20746F2030
:10045000300072656164456570726F6D33323A20A9
:10046000454550524F4D5F4D455445525F56414CA6
:1004700055452000454550524F4D5F4D455445521E
:100480005F56414C554520746F2064656661756CFC
:1004900074007365747570005365744765744D65B9
:1004A00074657256616C756500487754696D6500B6
:1004B0004462675F52657475726E004462675F4C98
:1004C0006576656C0052465F4368616E6E656C00D0
:1004D00050415F4C6576656C0054585F52535349E8
:1004E00000506172656E744E6F6465005061737385
:1004F0006976654E6F646500436F6D70696C654425
:10050000617465006D7950726573656E74617469AC
:100510006F6E00416E616C6F674462670047617384
:100520006D657465720050726573656E7420476105
:100530007300214D434F3A5741493A52433D257587
:100540000A004E6F7620313120323032322031367F
:100550003A32373A353900524632345F50415F4CB7
:100560004F57006D794865617274426561744C6FD4
:100570006F7000466C7730002D2D2D0049553A20C4
:10058000577269746520454550524F4D5F4D455433
:1005900045525F56414C554500466C6F7720746F4D
:1005A00020686967680020666C6F77546F5A6572BF
:1005B0006F4379636C653A200053454E445F465261
:1005C000455155454E43592048423A2000322E337A
:1005D0002E320A00207C5F5C2F602C0A070220026A
:1005E00020B28710034001200024022210022202C0
:1005F00002200222002220020220222710134101A1
:100600000101032220304020305203402214020313
:100610001052240221710100101012101222101029
:1006200002240101032203002001010032203712BD
:1006300010012132260128403222121012122243C8
:100640002224121001222470C122240F0F54534679
:100650003A5755523A4D533D256C750A004D434F5C
:100660003A42474E3A494E4954204F4B2C5453502E
:100670003D25750A004D434F3A42474E3A53545078
:100680000A004D434F3A42474E3A4246520A004D05
:10069000434F3A42474E3A494E4954204E4F444503
:1006A0002C43503D524E4E4E412D2D2D2C46513D4A
:1006B00025752C52454C3D25752C5645523D322E04
:1006C000332E320A004D434F3A50494D3A4E4F4473
:1006D00045205245473D25750A00215453463A4D61
:1006E00053473A52454C204D53472C4E5245500AE1
:1006F000005453463A4D53473A5243562043420A18
:10070000005453463A4D53473A42430A0054534625
:100710003A4D53473A4543484F0A00215453463A0D
:100720004D53473A504F4E4720524543562C494E61
:100730004143544956450A005453463A4D53473AAB
:10074000504F4E4720524543562C48503D25750A80
:10075000005453463A4D53473A50494E4745442C6E
:1007600049443D25752C48503D25750A00215453B8
:10077000463A4D53473A4650415220494E41435420
:100780004956450A005453463A4D53473A4650415C
:1007900052204F4B2C49443D25752C443D25750A6C
:1007A000005453463A4D53473A4543484F2052452B
:1007B000510A005453463A4D53473A524541442C4E
:1007C00025752D25752D25752C733D25752C633DBF
:1007D00025752C743D25752C70743D25752C6C3D4C
:1007E00025752C73673D25753A25730A00214D4305
:1007F0004F3A5741493A52433D25750A00214D432E
:100800004F3A534E443A4E4F4445204E4F54205297
:1008100045470A0000000000250028002B000000CA
:100820000000240027002A00040404040404040433
:10083000020202020202030303030303010204088B
:10084000102040800102040810200102040810203A
:10085000891A11241FBECFEFD8E0DEBFCDBF12E052
:10086000A0E0B1E0E4E9FEE402C005900D92A431FD
:10087000B107D9F724E0A4E1B2E001C01D92A13F85
:10088000B207E1F714E0C9E2D4E004C02197FE0109
:100890000E944326C832D107C9F70E942F1B0C942F
:1008A00048270C94000090E0FC01E45CF74F249191
:1008B000885D974FFC018491882399F090E0880F20
:1008C000991FFC01E25EF74FA591B491FC01EC5E2B
:1008D000F74F859194918FB7F894EC91E22BEC93BC
:1008E0008FBF0895942FEBEAF4E030917E023183BC
:1008F0008283668325834481487F492B477E4483D6
:10090000CF01089580E480937C0080917A00806418
:1009100080937A0080917A0086FDFCCF80917800E8
:10092000909179000895AF92BF92CF92DF92EF92AB
:10093000FF920F931F93CF93DF936C017B018B0189
:10094000040F151FEB015E01AE18BF08C017D107D9
:1009500059F06991D601ED91FC910190F081E02D63
:10096000C6010995892B79F7C501DF91CF911F91B8
:100970000F91FF90EF90DF90CF90BF90AF900895D0
:10098000FC01538D448D252F30E0842F90E0821B95
:10099000930B541710F0CF96089501970895FC011A
:1009A000918D828D981761F0A28DAE0FBF2FB11D72
:1009B0005D968C91928D9F5F9F73928F90E00895CA
:1009C0008FEF9FEF0895FC01918D828D981731F084
:1009D000828DE80FF11D858D90E008958FEF9FEFD8
:1009E0000895FC01918D228D892F90E0805C9F4FAE
:1009F000821B91098F739927089582E892E00E94E3
:100A0000F10421E0892B09F420E0822F0895FC01F4
:100A1000A48DA80FB92FB11DA35ABF4F2C91848D5F
:100A200090E001968F739927848FA689B7892C93BC
:100A3000A089B1898C91837080648C93938D848D0F
:100A4000981306C00288F389E02D80818F7D808312
:100A50000895EF92FF920F931F93CF93DF93EC01D2
:100A600081E0888F9B8D8C8D98131AC0E889F98955
:100A7000808185FF15C09FB7F894EE89FF89608358
:100A8000E889F98980818370806480839FBF81E0D9
:100A900090E0DF91CF911F910F91FF90EF9008951B
:100AA000F62E0B8D10E00F5F1F4F0F731127E02EF6
:100AB0008C8D8E110CC00FB607FCFACFE889F9892E
:100AC000808185FFF5CFCE010E940705F1CFEB8D28
:100AD000EC0FFD2FF11DE35AFF4FF0829FB7F89402
:100AE0000B8FEA89FB8980818062CFCF0F931F93A0
:100AF000CF93DF938C01D0E0C0E0F801EC0FFD1F35
:100B00006491662341F082E892E00E942905892BD6
:100B100011F02196F2CFCE01DF91CF911F910F916D
:100B20000895CF93DF93EC01888D8823B9F0AA89CB
:100B3000BB89E889F9898C9185FD03C0808186FD98
:100B40000DC00FB607FCF7CF8C9185FFF2CF8081E7
:100B500085FFEDCFCE010E940705E9CFDF91CF9150
:100B6000089580E090E0892B29F00E94FD04811116
:100B70000C94000008953FB7F8948091440290913E
:100B80004502A0914602B091470226B5A89B05C038
:100B90002F3F19F00196A11DB11D3FBFBA2FA92FFC
:100BA000982F8827BC01CD01620F711D811D911DF9
:100BB00043E0660F771F881F991F4A95D1F7089564
:100BC0008F929F92AF92BF92CF92DF92EF92FF925D
:100BD0006B017C010E94BB054B015C01C114D10477
:100BE000E104F104B9F00E94BB05681979098A098A
:100BF0009B09683E73408105910580F321E0C21A8C
:100C0000D108E108F10888EE880E83E0981EA11C47
:100C1000B11CE4CFFF90EF90DF90CF90BF90AF90EA
:100C20009F908F9008952FB7F89460914002709133
:100C3000410280914202909143022FBF089508958E
:100C40000895FC01938197706A3108F069E188E0AA
:100C5000689FB0011124692B6383CF0108950F931E
:100C60001F93CF93DF93EC018B0162E00E9421067A
:100C70008C818F7180648C8318870F83CE01DF9104
:100C8000CF911F910F9108950F931F93CF93DF93EF
:100C9000EC018B0162E00E9421068C818F718066DD
:100CA0008C8318870F83CE01DF91CF911F910F9115
:100CB00008951F93CF93DF93EC01162F61E00E94FC
:100CC00021068C818F7180628C831F83CE01DF911E
:100CD000CF911F910895FC01838186958695869515
:100CE0008A3108F089E10895E0913202F0913302EF
:100CF000309721F00280F381E02D099408950F933D
:100D00001F930E9413060091340210913502209126
:100D1000360230913702601B710B820B930B1F91CF
:100D20000F9108959C0180913202909133028217B5
:100D30009307F1F090913C029F7190933C023093A5
:100D4000330220933202E0913202F0913302309765
:100D500021F00190F081E02D09950E941306609327
:100D600034027093350280933602909337020895CF
:100D700080913C02805E80933C02E5CF8EBD0000F6
:100D80000DB407FEFDCF8EB50895FC010190002043
:100D9000E9F73197AF01481B590BBC0182E892E09B
:100DA0000C949304CF93DF930E947605EC0183E4C7
:100DB00091E00E94C5068C0F9D1FDF91CF91089591
:100DC0008FE094E00C94D2068F929F92AF92BF92E4
:100DD0000F931F93CF93DF93CDB7DEB7A1970FB6D5
:100DE000F894DEBF0FBECDBF19A2423008F44AE02E
:100DF0008E010F5D1F4F842E912CB12CA12CA501CB
:100E000094010E942126E62FB901CA01EA30F4F4C8
:100E1000E05DD801EE938D01232B242B252B79F750
:100E200090E080E0109719F0CD010E94C506A196D0
:100E30000FB6F894DEBF0FBECDBFDF91CF911F91EB
:100E40000F91BF90AF909F908F900895E95CE1CF94
:100E50000C94C5060F931F93CF93DF93EC018B0186
:100E600060E00115110539F0F80101900020E9F763
:100E700031976E2F601BCE010E9421068C818F71ED
:100E80008C83CE010E946B06482F50E0B801CE0142
:100E900007960E941627CE010E946B068C0F9D2F8D
:100EA000911DFC011782CE01DF91CF911F910F910F
:100EB00008950F931F93CF93DF93EC018C8182955C
:100EC00086958770A9F4CE010E946B06482F50E0EA
:100ED000BE01695F7F4F8BE492E00E941627CE012E
:100EE0000E946B06E82FF0E0E55BFD4F108209C021
:100EF000813071F48F814AE06BE472E090E00E94EF
:100F0000101E8BE492E0DF91CF911F910F91089515
:100F1000823031F44AE06BE472E08F819885EFCF44
:100F2000833041F44AE06BE472E08F8198850E943F
:100F3000691EE7CF843051F46F81788589859A8561
:100F40002AE04BE452E00E941B1EDBCF853051F4B7
:100F50006F81788589859A852AE04BE452E00E946A
:100F6000471ECFCF10E0873071F42B85293008F071
:100F700028E06F81788589859A850BE412E042E04C
:100F80000E94701CBECFCE010E946B06181738F568
:100F9000E12FF0E09F01220F331FD901A55BBD4F68
:100FA000EC0FFD1F8781082E000C990B44E09595EE
:100FB00087954A95E1F78F708A3068F4805D8C934D
:100FC000245B3D4F87818F708A3038F4805DF90152
:100FD00080831F5FD8CF895CF2CF895CF8CFE82F80
:100FE000F0E0EE0FFF1F80CFCF92DF92EF92FF92E3
:100FF0006B017C0182EA91E00E94C02499278F2D29
:101000007E2D6D2D83EA91E00E94C024B7018827D0
:10101000992784EA91E00E94C0246F2D77278827C2
:10102000992785EA91E0FF90EF90DF90CF900C94A4
:10103000C024CF93DF93C82FD62F672F90E083561D
:101040009E4F0E94C024CF5F8C2F90E06D2F83565F
:101050009E4FDF91CF910C94C024CF93DF93682FE4
:1010600070E090E080E04AE00E94E406EC0183E456
:1010700091E00E94C5068C0F9D1FDF91CF910895CE
:101080008F929F92AF92BF92CF92DF92EF92FF9298
:101090000E9413064B015C0180912E0290912F0259
:1010A000A0913002B091310275016401C81AD90AC9
:1010B000EA0AFB0A81E080932D0210922C02C701FC
:1010C000B6010E9479239B01AC0160E070E68AE6DC
:1010D00097E40E94762520E030E040E251E40E944F
:1010E000DA23609328027093290280932A02909356
:1010F0002B0280922E0290922F02A0923002B09288
:1011000031028091240290912502A0912602B09193
:1011100027020196A11DB11D809324029093250200
:10112000A0932602B093270286E491E00E9428074C
:1011300060912402709125028091260290912702ED
:101140004AE00E94E40681E591E00E9428074AE017
:10115000C701B6010E94E4068DE591E00E942807D0
:10116000C0902802D0902902E0902A02F0902B0231
:10117000A7019601C701B6010E941C26882381F0B1
:1011800085E691E00E94C50683E491E0FF90EF9030
:10119000DF90CF90BF90AF909F908F900C94C5063A
:1011A00046015701E894B7F82FEF3FEF4FE75FE7AD
:1011B000C501B4010E941C2681110DC02FEF3FEF25
:1011C0004FE75FE7C501B4010E94742318161CF4B1
:1011D00089E691E0D7CF2FEF3FEF4FE75FE4C701FC
:1011E000B6010E94172618161CF48DE691E0CACFAE
:1011F0002FEF3FEF4FE75FECC701B6010E9474236A
:1012000087FDF3CF20E030E0A901C701B6010E94BD
:10121000742387FF09C06DE282E892E00E942905ED
:10122000F7FAF094F7F8F0942AE037ED43EA5BE33D
:10123000C701B6010E940A254B015C010E94E82506
:101240006B017C010E9479239B01AC01C501B401B3
:101250000E9409254B015C014AE0C701B6010E94CA
:10126000E4066EE282E892E00E94290520E030E088
:1012700040E251E4C501B4010E94DA234B015C0154
:101280000E94E8256B01F12CE12C4AE0C701B60170
:101290000E94E406C701B6010E9479239B01AC01BC
:1012A000C501B4010E94092520E030E040E251E48C
:1012B0000E94DA230E94E82590E080E04AE00E9444
:1012C000E40662CFCF93DF93C82F90E083569E4F02
:1012D0000E94A824D82FCF5F8C2F90E083569E4F7A
:1012E0000E94A8249D2FDF91CF910895BF92CF92A5
:1012F000DF92EF92FF920F931F93CF93DF937B01C7
:10130000042FB22E90E59CBD1DBC2A98E0E1F0E0D0
:101310003197F1F70E94BE06182FE7010150A8F09F
:10132000BB2051F08FEF0E94BE06182FE114F1048C
:10133000A9F388832196F2CF6E018FEFC81AD80ADD
:1013400088810E94BE06E601E9CF2A9A80E190E0FA
:101350000197F1F7812FDF91CF911F910F91FF90AE
:10136000EF90DF90CF90BF900895CF93DF931F92BF
:10137000CDB7DEB7698320E041E0BE016F5F7F4FEC
:101380000E9476090F90DF91CF9108956FE080E27F
:101390000E94B509609108016F3F19F08AE20E942E
:1013A000B509299A089521E041E070E060E00C94CD
:1013B000760986E00E94D309833231F485E00E94E9
:1013C000D30991E0803609F090E0892F089520E05C
:1013D00040E070E060E00C9476099F92AF92BF927B
:1013E000CF92DF92EF92FF920F931F93CF93DF93F1
:1013F000CDB7DEB729970FB6F894DEBF0FBECDBFCD
:1014000080E1C82E912CCE0101965C01D12C892D52
:101410008D0D90E083569E4F0E94A824182F803196
:1014200020F481E791E00E94280740E1B501812F77
:1014300090E00E94691EF50101900020E9F73197C4
:101440008F010A191B09B8016F5F7F4F90E080E0A0
:101450000E9449267C010097D1F1FC011082B50160
:101460000E940F27A801B70182E892E00E9493042E
:10147000E114F10419F0C7010E942A1DFFE0DF16F4
:1014800021F083E791E00E942807D39480E1D812ED
:10149000BECF980E85E491E00E94C50683E491E0FA
:1014A0000E94C506CA94C110B1CF29960FB6F89410
:1014B000DEBF0FBECDBFDF91CF911F910F91FF9087
:1014C000EF90DF90CF90BF90AF909F90089510E085
:1014D00000E0C8CFCF92DF92EF92FF92CF93DF93DD
:1014E00082E994E00E94D20682EA91E00E94A82458
:1014F000C82F83EA91E00E94A824C82E84EA91E0D4
:101500000E94A824D82F85EA91E00E94A824D12C1B
:10151000F12CE12CFE2CED2CDC2CCC244D2F50E0BA
:1015200070E060E0BA0155274427C40ED51EE61EC0
:10153000F71ECC0ED11CE11CF11C90E0B0E0A0E045
:10154000B82FAA2799278827C80ED91EEA1EFB1E86
:101550002FEFC216D206E206F20689F461EA74E6BB
:1015600089E090E00E94F40784E794E00E94760509
:1015700081EAC82E84E6D82E89E0E82EF12C82E597
:1015800094E00E9476054AE0C701B6010E94E40695
:1015900083E491E00E94C506C0922402D092250205
:1015A000E0922602F092270281EA91E00E94A824AC
:1015B0008A3030F580931B0286E194E00E94760524
:1015C00080911B020E942D0882E00E946209019610
:1015D00029F464EF71E082E00E94190880E00E9423
:1015E0006209019629F46EEE71E080E00E9419080C
:1015F000DF91CF91FF90EF90DF90CF900C94ED09A9
:1016000010921B028CE394E00E94D20660911B02B0
:1016100081EA91E00E94C024CFCF0F931F93CF9314
:10162000DF93EC018B0180E06115710519F0CB01AE
:101630000E94F81D682FCE010E9421068C818F71B7
:101640008C83CE010E946B06482F50E0B801CE017A
:1016500007960E94011ECE010E946B068C0F9D2FE3
:10166000911DFC011782CE01DF91CF911F910F9147
:101670000895FC019481929596959770953029F480
:1016800067817085818592850895911104C0CF018D
:1016900007960C94D11D60E070E0CB010895FC0129
:1016A0002481229526952770213011F48781089591
:1016B000211104C007960E94B31D089580E008958B
:1016C000EF92FF920F931F93CF93DF93CDB7DEB7C7
:1016D000C857D1090FB6F894DEBF0FBECDBF8E013B
:1016E0000F571F4FF801E190F1908F010E941306F0
:1016F0004AE00E94E4068AEE91E00E9428079801E1
:10170000A70168E770E0CE0101960E94831ECE011A
:1017100001960E94280782E892E00E949105C8582D
:10172000DF4F0FB6F894DEBF0FBECDBFDF91CF9174
:101730001F910F91FF90EF9008959F92AF92BF92EB
:10174000CF92DF92EF92FF920F931F93CF93DF938D
:10175000F82EEB0180917E0288838B8100E282FD6E
:1017600005C0CB010E946B0607E0080F8091810243
:1017700011E080FD03C08FEFF81210E0209709F40C
:10178000BBC0299880E091E00197F1F76EE080E21C
:101790000E94B50984EC90E00197F1F76F2D8AE281
:1017A0000E94B5096F2D80E30E94B50981EE0E9469
:1017B000E709112321F060E584E20E94B50920E0E9
:1017C000402FBE0180EA0E947609299AD12CC12CB3
:1017D0008FEF0E94E709807349F49FEFC916D9067D
:1017E00029F0A8958FEFC81AD80AF2CF299860E798
:1017F00087E20E94B509082F84FF03C081EE0E9492
:10180000E709112321F06FE584E20E94B5090E94E7
:10181000C60905FD73C0012F8C818770833039F4B0
:101820008D8125E7A22E21E0B22E813121F0CE015B
:101830000E9459075C0190E8C92E91E0D92E00233F
:1018400021F08DE7C82E81E0D82E80913D028F7067
:10185000982EEB80E2FAEE24E0F8CE010E946B06AF
:101860009C81F92FF295F695F770ED8197707E8146
:101870006A815881498125E831E0111106C027E8C5
:1018800031E0002311F025E431E0BF92AF92DF9206
:10189000CF921F929F921F92EF921F928F931F924F
:1018A000FF931F92EF931F929F931F927F931F921C
:1018B0006F931F92FF921F925F931F924F933F93DC
:1018C0002F9387EA93E09F938F930E94600B8DB7CD
:1018D0009EB74E960FB6F8949EBF0FBE8DBF802F59
:1018E000DF91CF911F910F91FF90EF90DF90CF90FC
:1018F000BF90AF909F90089500E08ECF01E08CCF15
:101900000F931F93CF93DF938C01FC018281909101
:101910003C0290FF12C08F3F09F443C08DE193E079
:101920009F938F930E94600B0F900F90C0E08C2FBD
:10193000DF91CF911F910F910895D0917F0288235D
:10194000D9F08F3F71F1B8010E949D0BC82F8823F9
:1019500049F08DE093E09F938F930E94600B0F906E
:101960000F90E5CF8AEF92E09F938F930E94600BD8
:10197000D0917F020F900F90B8018D2F0E949D0B88
:10198000C82F80917F028D13D2CF80913D02C1116B
:101990000AC091E0980F9F70807F892B80933D0251
:1019A000C6CFDFEFE9CF807F80933D02C1E0BFCF9C
:1019B00020913C0222FD0C94800C83E393E09F93E2
:1019C0008F930E94600B0F900F9080E00895CF924C
:1019D000DF92EF92FF92CF93DF930E947F066B011D
:1019E0007C0126E143E050E06FEF80E00E9472044A
:1019F000EC0164E00E9421068C818F71806A8C83E7
:101A0000CF82D886E986FA86CE01DF91CF91FF900A
:101A1000EF90DF90CF900C94D80CCF93DF93262FCC
:101A2000EA0150E040E0682F80E00E947204BE01AD
:101A30000E940D0BDF91CF910C94D80CFC0180918A
:101A40007E0281839481907F9160948380914A0289
:101A500080FF03C0CF010C94D80C8DEF97E09F93CB
:101A60008F930E94600B0F900F9080E00895CF93AA
:101A7000FC012681263441F4248124FD03C0258104
:101A80002F32B1F1CF910895273409F0A4C02481F9
:101A900024FDF8CF25812F32A9F70E94390B6093DE
:101AA000240270932502809326029093270289E8EE
:101AB00091E00E9428076091240270912502809194
:101AC0002602909127024AE00E94E40683E491E016
:101AD0000E94C50681E080932201609124027091EA
:101AE00025028091260290912702CF910C94F40751
:101AF0000E944F0B80931B02811108C061EA73E0C2
:101B000081E693E00E940D0B0E941E0D80911B0246
:101B1000813041F460E973E081E693E00E940D0BAF
:101B20000E941E0D80911B02823041F46DE773E02C
:101B300081E693E00E940D0B0E941E0D80911B0216
:101B4000833041F46DE673E081E693E00E940D0B73
:101B50000E941E0D80911B02843061F46FE573E0DA
:101B600081E693E00E940D0B0E941E0D0E94ED097C
:101B700010921B0280911B02853029F488E7809324
:101B80001C0210921B02C0911B02C93099F466E539
:101B900073E081E693E00E940D0B0E941E0D88E128
:101BA00098E00FB6F894A895809360000FBE9093CC
:101BB0006000FFCFC43008F065CF81E493E00E945D
:101BC00076058C2F0E942D0860911B0281EA91E01E
:101BD000CF910C94C024223009F054CF248124FDED
:101BE00051CF2581283139F0293109F04BCF0E949E
:101BF000390B82E003C00E94390B80E00E94190873
:101C000088E780931C023ECF0C94D80C2BE043E075
:101C100050E06FEF80E00E94720460EA71E00E9481
:101C20002A070E94D80C2CE043E050E06FEF80E0E0
:101C30000E9472046AEA71E00E942A070E94D80C8E
:101C400086E295E00E94D2064DE155E065E270E043
:101C500081E00E940D0D43E155E067E170E082E014
:101C60000E940D0D84E095E00E94D20681E08093F1
:101C7000210248EF54E064E270E089E50E940D0D16
:101C80004CEE54E064E270E080E50E940D0D41EE00
:101C900054E064E270E081E50E940D0D49ED54E0EE
:101CA00064E270E08BE50E940D0D40ED54E064E2CB
:101CB00070E08CE50E940D0D45EC54E064E270E0AC
:101CC0008DE50E940D0D4BEB54E064E270E086E47C
:101CD0000E940D0D40EB54E064E270E080E60E944B
:101CE0000D0D49EA54E064E270E08AE50E940D0DB2
:101CF00048E954E064E270E087E40C940D0D2FE0B5
:101D000043E050E06FEF80E00E94720465E471E010
:101D10000E942A0762E08BEA94E00E942106EBEA27
:101D2000F4E084818F71806C848381E087831086E6
:101D3000CF010E94D80C8FE00E94021221E150E0F6
:101D400040E06FEF80E00E94720462EB71E00E945D
:101D50002A070E94D80C26E043E050E06FEF80E0B5
:101D60000E94720460917F020E9459060E94040E34
:101D700086E00E9402120C94060E2F923F924F9220
:101D80005F926F927F928F929F92AF92BF92CF920B
:101D9000DF92EF92FF920F931F93CF93DF93CDB714
:101DA000DEB7A4970FB6F894DEBF0FBECDBF36E006
:101DB000E32E9E012F5F3F4F190140EA842E46E833
:101DC000942EAA24A394B12C44244A9452E0552E74
:101DD00053E0652E752C87E10E94D30980FDD6C2A1
:101DE000EA94EE2009F4D2C221E041E070E060E024
:101DF00080E60E947609182F813220F082EE0E9440
:101E0000E70910E021E0412F6CEC74E081E60E94CC
:101E1000760960E487E20E94B50981E2ECECF4E027
:101E2000D10101900D928A95E1F70C81802F83708A
:101E3000823089F6C1010E946B0602FD89E1895F4B
:101E40001813C9CF8CEC94E00E946B06F82E809199
:101E5000D00487708AA31091D1040091CD04D09052
:101E6000CC04C090CE04833021F485E791E0113199
:101E700021F08CEC94E00E945907EF2DF0E0FCA3D8
:101E8000EBA39F938F938091CF0482FB882780F9E7
:101E90001F928F931F92FF928091D0048295869516
:101EA00087701F928F931F921F931F92FAA1FF9327
:101EB0008091D2041F928F931F92CF921F92DF9234
:101EC0001F920F9323EB37E03F932F930E94600BF9
:101ED00080913D02806880933D020FB6F894DEBF8A
:101EE0000FBECDBF80917E02C8120CC2EBA1FCA137
:101EF000E453FB4F17828091D00483FF21C081EA15
:101F000097E09F938F930E94600B81E2ECECF4E0EA
:101F1000ABEAB4E001900D928A95E1F78091AF04AD
:101F2000877E80618093AF0480917E028093AC04B1
:101F30000093AD048BEA94E00E94D80C0F900F90B0
:101F40008091D00484FDD5C1FAA1F33009F0CCC151
:101F50008091D10491EF980F933008F43CCF143066
:101F600009F439CF183081F510913C0210FF27C0D9
:101F70008CEC94E00E944F0B8F3F09F42CCF8F5FC5
:101F80008F3F09F428CF90918002891708F023CF62
:101F900011FD21CF8093800200937F021F928F93C7
:101FA0001F920F9385E897E09F938F930E94600B99
:101FB0000F900F900F900F900F900F900CCF8DE619
:101FC00097E09F938F933DC01831D9F48CEC94E047
:101FD0000E944F0B1F928F931F920F9381E597E002
:101FE0009F938F930E94600B29E143E050E06FEFD5
:101FF000802F0E94720461E00E9459060E94800CAA
:10200000D7CF193109F580913C0283FF16C0877F35
:1020100080933C028CEC94E00E944F0B80933E0234
:102020001F928F9388E397E09F938F930E94600B9A
:102030000F900F900F900F90CECE2BE137E03F9393
:102040002F930E94600B9FC11E3109F4C4CE1D3135
:1020500071F42FE143E050E06FEF80E00E947204E2
:1020600060E07FEF0E942F060E94800CB4CE90911A
:10207000CD04911136C18D3059F488E198E00FB646
:10208000F894A895809360000FBE90936000FFCFF6
:102090008B31A9F48CEC94E00E944F0B91E08111FC
:1020A00001C090E080914A0290FB80F980934A023F
:1020B0001F929F93E5ECF6E0FF93EF93B7CF863046
:1020C00099F49091D30481E0992319F09D3409F09B
:1020D00080E08093490241E050E063E071E089E4F0
:1020E00092E00E94B02477CE833119F40E947F0ED3
:1020F00072CE823119F40E94E70C6DCE8230C1F4A9
:1021000022E043E050E06FEF80E00E9472048C0117
:1021100064E00E942106F80184818F71806A8483C3
:102120004782508661867286C8010E94040E53CE93
:10213000813061F420E030E0232B09F44CCE8CECAC
:1021400094E00E94390B0E94000045CE8A3009F4C9
:1021500042CE8C3109F0C8C08091D304823509F495
:102160003ACE863559F52CE143E050E06FEF80E040
:102170000E9472048C018EE480937C0066E470E01F
:1021800080E090E00E94E00580917A008064809376
:102190007A0080917A0086FDFCCF20917800309102
:1021A000790050E040E064EB7BE281E190E00E9446
:1021B0002126B901C8010E944406B7CF863409F030
:1021C00053C02CE143E050E06FEF80E00E947204C6
:1021D0008C01F89440916000309180002091810042
:1021E000909182008FEF86BB109285001092840040
:1021F000109280001092820088E15DE00FB6F894A2
:10220000A895809360000FBE50936000809160009D
:10221000806480936000A89585E080938100809120
:10222000600087FFFCCF10928100A895809160002C
:10223000886180936000409360007894609184008E
:1022400070918500309380002093810090938200EC
:1022500090E080E02BE0660F771F881F991F2A957A
:10226000D1F7A5019401A3CF8D34A1F42CE143E073
:1022700050E06FEF80E00E9472042091ED043091F5
:10228000EE042115310511F421EF34E0B101621B98
:10229000730B91CF853409F09ECD2CE143E050E0E3
:1022A0006FEF80E00E9472046DE771E00E942A07E0
:1022B0000E94040E10E000E06FEFC8010E94C024ED
:1022C0000F5F1F4F0D3931E01307B1F788E198E038
:1022D0000FB6F894A895809360000FBE90936000AD
:1022E000FFCF8A3109F477CD8CEC94E00E94370D52
:1022F00072CD8DE097E09F938F930E94600B0F90BB
:102300000F90F2CFFFEFCF122CC021E037E03F93C8
:102310002F930E94600B0F900F909AA1933029F594
:1023200080913C0282FF03C0173009F454CD143170
:1023300009F051CD80917F02D8124DCD0E94130635
:102340007370882799270E94E00525E143E050E05B
:102350006FEF802F0E94720460917F020E945906E5
:1023600083CE8AED96E09F932DCE80917F02D81286
:1023700032CDE1EFF6E0FF93EF930E94600B8CEC1F
:1023800094E00E94370D0F900F9025CDA4960FB6C4
:10239000F894DEBF0FBECDBFDF91CF911F910F919B
:1023A000FF90EF90DF90CF90BF90AF909F908F9075
:1023B0007F906F905F904F903F902F900895809105
:1023C0001502882361F01F928F938FEF93E09F9304
:1023D0008F930E94600B0F900F900F900F90809141
:1023E00015028F5F80931502A8950E947406809154
:1023F0003C0284FD0E94BD0E8091150281508093A5
:1024000015020895CF92DF92EF92FF92CF93DF9360
:10241000D82F80914802882361F01F928F938DEE10
:1024200097E09F938F930E94600B0F900F900F90F7
:102430000F90809148028F5F809348020E9413069C
:102440006B017C018091D00487608093D004C0E050
:102450000E9413066C197D098E099F09603D774023
:102460008105910578F4C1110DC00E94DF118091A2
:10247000D0048770833061F7C1E08091D1048D135F
:10248000E6CFE6CF809148028150809348028C2F9E
:10249000DF91CF91FF90EF90DF90CF9008958F92D2
:1024A0009F92AF92BF92CF92DF92EF92FF924B0139
:1024B0005C0180914802882361F01F928F9382E330
:1024C00095E09F938F930E94600B0F900F900F9059
:1024D0000F90809148028F5F809348020E941306FC
:1024E0006B017C010E9413066C197D098E099F09FE
:1024F000681579058A059B0518F40E94DF11F2CF53
:1025000080914802815080934802FF90EF90DF90C5
:10251000CF90BF90AF909F908F9008958F929F9291
:10252000AF92BF92CF92DF92EF92FF920F931F93E1
:10253000CF93DF93CDB7DEB760970FB6F894DEBFC9
:102540000FBECDBF0E9482048C0180E00E94620910
:102550007C0182E00E9462096C0137E0B32E0E9488
:102560008204080F191FBA94B110F9CF23E0169511
:1025700007952A95E1F780911F019091200180171E
:10258000910720F01093200100931F018091190200
:1025900090911A020817190720F010931A0200935D
:1025A000190280911802882339F00E151F0520F4B6
:1025B0000E9440081092180280911802811106C0F2
:1025C000C016D10618F481E080931802809116029B
:1025D000909117020817190709F446C09801281BA3
:1025E000390B2230310508F43FC088EB91E00E949E
:1025F0002807B80190E080E04AE00E94E40689ECF8
:1026000091E00E942807609116027091170290E0F5
:1026100080E04AE00E94E40685ED91E00E942807F0
:102620006091180270E090E080E04AE00E94E406C9
:1026300084EE91E00E942807B60190E080E04AE035
:102640000E94E4068CEE91E00E942807B70190E01A
:1026500080E04AE00E94E40683E491E00E94C5061F
:10266000109317020093160280911B02882309F42D
:1026700052C0813081F48CE180932403B8018FE152
:1026800093E00E9444060E941E0D62E370E080E029
:1026900090E00E944F1280911B02823051F58AE136
:1026A0008093240360911F01709120018FE193E0DA
:1026B0000E9444060E941E0D8BE1809324036091CA
:1026C000190270911A028FE193E00E9444060E9461
:1026D0001E0D8CE180932403B8018FE193E00E94EA
:1026E00044060E941E0D62E370E080E090E00E94CC
:1026F0004F1280911B02833041F40E94400860E435
:102700007FE180E090E00E944F126CE271E080E097
:1027100090E00E944F120E94130620912102222372
:1027200009F48DC200911D0210911E0220911F021A
:10273000309120026B017C01C01AD10AE20AF30A2F
:1027400097018601013315472105310528F42091B1
:102750002201222309F4DAC060931D0270931E0245
:1027600080931F02909320026091210111E0160FC7
:102770001093210180911C028F5F80931C02809135
:102780002C028F5F80932C0289EB95E00E947605E6
:10279000612F70E090E080E04AE00E94E40686EA63
:1027A00095E00E94760580912C020E942D08809170
:1027B0002D02882309F47DC010922D02C0902402BE
:1027C000D0902502E0902602F090270264E089E68E
:1027D00094E00E94210680916D048F71806A80933D
:1027E0006D04C0927004D0927104E0927204F09271
:1027F000730489E694E00E941E0DC0902402D090DC
:102800002502E0902602F090270283E280934503A0
:1028100065E080E493E00E94210680914403806E8D
:1028200080934403C701B6010E94792320E030E081
:1028300048EC52E40E947625609347037093480366
:102840008093490390934A0382E080934B0380E492
:1028500093E00E941E0DC0902802D0902902E090C3
:102860002A02F0902B0220E030E048E952E4C70150
:10287000B6010E94742387FFF5C182E2809345036D
:1028800065E080E493E00E94210680914403806E1D
:1028900080934403C0924703D0924803E0924903D7
:1028A000F0924A0381E080934B0380E493E00E941E
:1028B0001E0D80912201882349F184EF91E00E944E
:1028C000C50683E491E00E94C50610922201C090E3
:1028D0002402D0902502E0902602F090270264E0C6
:1028E00089E694E00E94210680916D048F71806AD0
:1028F00080936D04C0927004D0927104E0927204CF
:10290000F092730489E694E00E941E0D80912101EB
:102910008A3008F4B4C0109221010E94E70C83E6CB
:1029200095E00E94D2060E9413066B017C0128EEFE
:1029300033E040E050E00E942126CA01B9012CE3B7
:1029400030E040E050E00E9421267F936F93C70162
:10295000B60120E63AEE40E050E00E94212698E1E0
:10296000892E912CA12CB12CCA01B901A501940189
:102970000E9421267F936F93C701B60120E83EEEA7
:1029800046E350E00E942126CA01B901A501940145
:102990000E9421267F936F93C701B60120E03CE59A
:1029A00046E255E00E9421263F932F938DEF91E060
:1029B0009F938F938E010F5F1F4F1F930F930E9462
:1029C0002527B80185EE93E00E942A070E941E0D7C
:1029D00088E00E94D3098F7063EE7FEF98E0899FB3
:1029E00060197109112420911D0130911E0147E0E9
:1029F000429FC001439F900D1124680F791F0FB6AD
:102A0000F894DEBF0FBECDBF77FF02C0695F7F4F76
:102A100083E0759567958A95E1F770931E01609341
:102A20001D0184EC93E00E942F060E941E0D67E5B5
:102A300075E083EA93E00E940D0B0E941E0D60E694
:102A400070E082E893E00E942F060E941E0D70E065
:102A500060E088E494E00E942F060E941E0D6FE063
:102A600072E087E294E00E942A070E941E0D62E451
:102A700075E086E094E00E940D0B0E941E0D80918F
:102A80001C02883708F4A1C010921C028CE795E064
:102A90000E94D20660912402709125028091260244
:102AA000909127020E94F40760911B028AE894E04B
:102AB0000E9459060E941E0DC0902402D09025024B
:102AC000E0902602F090270264E089E694E00E94FC
:102AD000210680916D048F71806A80936D04C0928D
:102AE0007004D0927104E0927204F092730489E64B
:102AF00094E00E941E0DC0902402D0902502E09028
:102B00002602F090270283E28093450365E080E48B
:102B100093E00E94210680914403806E80934403D9
:102B2000C701B6010E94792320E030E048EC52E46E
:102B30000E9476256093470370934803809349036E
:102B400090934A0382E080934B0380E493E00E94D9
:102B50001E0D88E18093240380E00E946209BC017D
:102B60008FE193E00E9444060E941E0D89E180934C
:102B7000240382E00E946209BC018FE193E00E947D
:102B800044060E941E0D8AE18093240360911F0178
:102B9000709120018FE193E00E9444060E941E0D77
:102BA0008BE1809324036091190270911A028FE1E6
:102BB00093E00E9444060E941E0D68E775E081E6DE
:102BC00093E00E940D0B0E941E0D80912C02843018
:102BD000B0F110922C021092280210922902109249
:102BE0002A0210922B0263E775E081E693E00E94CF
:102BF0000D0B0E941E0D82E280934503C0902802B7
:102C0000D0902902E0902A02F0902B0265E080E447
:102C100093E00E94210680914403806E80934403D8
:102C2000C0924703D0924803E0924903F0924A03CE
:102C300081E080934B0380E493E00E941E0D609638
:102C40000FB6F894DEBF0FBECDBFDF91CF911F91BD
:102C50000F91FF90EF90DF90CF90BF90AF909F903B
:102C60008F90089569E975E081E693E00E940D0B6D
:102C70001ECECF9380914A0281FD28C00E947F0E14
:102C800082EF93E09F938F930E94600B80914A02A2
:102C9000816080934A020F900F90C4E02AE143E0E4
:102CA00050E06FEF80E00E94720462E00E945906DB
:102CB0000E94040E8BE10E940212811102C0C150D9
:102CC00069F780914A02826080934A02CF91089509
:102CD0000F931F930E947F0620913D02207720379B
:102CE000B9F000E117E220E030E0061717072807E7
:102CF000390798F488EE92E09F938F930E94600BBF
:102D00000F900F9083E291E01F910F910C94920627
:102D100000E61AEE20E030E0E8CF1F910F91089511
:102D200080913D02982F9077903759F0982F929587
:102D30009F709F5F97709295907F8F78892B80937B
:102D40003D0280913D02829587701F928F9387ED9F
:102D500092E09F938F930E94600B80913C028B7F47
:102D60008F7E80933C0289EC92E09F938F930E9428
:102D7000600B8CEB92E09F938F930E94600B2998DD
:102D80008DB79EB708960FB6F8949EBF0FBE8DBF45
:102D90006CE080E20C94B50980913D028F70863022
:102DA00060F083EA92E09F938F930E94600B0F90F4
:102DB0000F9089E191E00C94920608958091800231
:102DC0001F928F9380917F021F928F9380917E023A
:102DD0001F928F9384E892E09F938F930E94600BE1
:102DE00080913C02846080933C0280913D02807817
:102DF00080933D02E0912202F09123028DB79EB7AD
:102E000008960FB6F8949EBF0FBE8DBF309709F09D
:102E10000994089580913E028F3F81F10E9413062C
:102E2000609338027093390280933A0290933B0288
:102E300088E792E09F938F930E94600B90913E02EF
:102E4000809180020F900F909817A1F01F929F938E
:102E50001F928F9380E692E09F938F930E94600B66
:102E600080913E02809380020F900F900F900F9000
:102E70000F900F9085E191E00C9492060E947F06DE
:102E8000613D774081059105B8F080913C02803624
:102E900018F481E191E0F0CF81E592E09F938F9368
:102EA0000E94600B80913C02877F80933C020F90D0
:102EB0000F9089E191E0E0CF089588E492E09F933C
:102EC0008F930E94600B8FEF80933E02ECE3F2E061
:102ED00080818860808328E143E050E06FEF80E0EC
:102EE0000E94720461E00E9459060F900F900C94AA
:102EF000800C80917E028F3F61F08DE392E09F9382
:102F00008F930E94600B0F900F9081E191E00C94E1
:102F100092060E947F06613D77408105910590F001
:102F200080913C02803618F48DE091E0F0CF8FE282
:102F300092E09F938F930E94600B0F900F9089E017
:102F400091E0E5CF089587E292E09F938F930E94EE
:102F5000600B0F900F9080917E028F3FA9F48BE160
:102F600092E09F938F930E94600B23E043E050E038
:102F70006FEF80E00E94720465E471E00E942A070E
:102F80000F900F900C94800C08950E947F06613D75
:102F900077408105910520F480913C0281FF2FC08C
:102FA00080917F028F3F89F08EE092E09F938F9314
:102FB0000E94600B80913C028E7F80933C020F90B8
:102FC0000F908DE091E00C94920680913C02803647
:102FD00058F48AEE91E09F938F930E94600B0F90BC
:102FE0000F9089E191E0EFCF8EEF91E09F938F9367
:102FF0000E94600B0F900F9089E091E0E4CF08955C
:1030000080EE91E09F938F930E94600BECE3F2E0DF
:103010008081897F81608083EEE7F2E08FEF828399
:10302000818327E043E050E06FEF0E94720465E483
:1030300071E00E942A070F900F900C94800CCF93A0
:10304000219A229A29982A9ACFB7F894809114024B
:10305000811146C082E398E0FC01249146E458E0E7
:10306000FA013491E22FF0E0EE0FFF1FE25EF74F1E
:10307000A591B4912C91322321F5E6E7F1E024915A
:10308000FA014491FC0194919923D9F0222359F03B
:10309000233009F471C008F064C0213009F472C013
:1030A000223009F473C0E92FF0E0EE0FFF1FEC5E51
:1030B000F74FA591B4918FB7F8949C91492B4C93FD
:1030C0008FBF8AE00E9453048CB580618CBD8CB5A3
:1030D00080648CBD8DE00E9453048BE00E945304F9
:1030E000809114028F5F80931402CFBF29986EE005
:1030F00080E20E94B50984E293E20197F1F763E070
:1031000083E20E94B5096FE584E20E94B50960E69A
:1031100085E20E94B50963E286E20E94B50964E097
:103120008DE30E94B5098DE10E94D309843041F0FE
:1031300063E780E50E94B50964E08DE30E94B5096C
:103140000E94D90981112FC080E891E09F938F934D
:103150000E94600B0F900F9089E091E0CF910C944A
:1031600092062730B1F02830D1F0243009F09BCFFF
:10317000809180008F7D03C0809180008F77809345
:10318000800091CF84B58F7784BD8DCF84B58F7D3E
:10319000FBCF8091B0008F778093B00084CF809177
:1031A000B0008F7DF9CF62E082E20E94B50960E055
:1031B00081E20E94B50963E08CE30E94B5098FEFBC
:1031C0008093030120E045E063E071E08BE20E9420
:1031D000760920E045E063E071E08AE20E9476092A
:1031E00020E045E063E071E080E30E94760982EE32
:1031F0000E94E70981EE0E94E70960E787E20E94EA
:10320000B5098FEC91E09F938F930E94600B8091A2
:103210003C02806180933C02809181028E7F80938A
:1032200081021F92C6E6CF938BEB91E09F938F9321
:103230000E94600BC0937E0266E690E080E00E94F0
:10324000C024C0917E020F900F900F900F900F90AE
:103250000F90CF3F09F18FEF8C0F8E3F00F5C09399
:10326000080163E082E20E94B50961E081E20E9408
:10327000B5090E94C6096C2F90E080E00E94C0242E
:103280001F92CF9384E991E09F938F930E94600BEC
:103290000F900F900F900F9089E191E05FCF1F92F8
:1032A0001F9286EA91E09F938F930E94600B0F908C
:1032B0000F900F900F9050CF82E691E09F938F93E5
:1032C0000E94600BECE3F2E08081877F8F7E808339
:1032D000109238021092390210923A0210923B0278
:1032E0000F900F9044E050E070E060E08EE792E0D5
:1032F0000C9498241F920F920FB60F9211242F93C3
:103300003F934F935F936F937F938F939F93AF936D
:10331000BF93EF93FF9382E892E00E940705FF912D
:10332000EF91BF91AF919F918F917F916F915F913D
:103330004F913F912F910F900FBE0F901F901895B6
:103340001F920F920FB60F9211242F938F939F937A
:10335000EF93FF93E0919202F09193028081E091CC
:103360009802F091990282FD1BC0908180919B028E
:103370008F5F8F7320919C02821741F0E0919B0236
:10338000F0E0EE57FD4F958F80939B02FF91EF91F8
:103390009F918F912F910F900FBE0F901F901895B6
:1033A0008081F4CF1F920F920FB60F9211242F93AA
:1033B0003F938F939F93AF93BF93809140029091DF
:1033C0004102A0914202B091430230913F0226E0B7
:1033D000230F2D3758F50296A11DB11D20933F02F2
:1033E0008093400290934102A0934202B093430223
:1033F0008091440290914502A0914602B09147020B
:103400000196A11DB11D8093440290934502A093A3
:103410004602B0934702BF91AF919F918F913F9128
:103420002F910F900FBE0F901F90189529E8230F32
:103430000396A11DB11DD2CF1F920F920FB60F920E
:1034400011242F933F934F935F936F937F938F93A9
:103450009F93AF93BF93EF93FF93E0912901F09176
:103460002A010995FF91EF91BF91AF919F918F91A3
:103470007F916F915F914F913F912F910F900FBE70
:103480000F901F9018951F920F920FB60F92112454
:103490002F933F934F935F936F937F938F939F935C
:1034A000AF93BF93EF93FF93E0912701F091280131
:1034B0000995FF91EF91BF91AF919F918F917F916E
:1034C0006F915F914F913F912F910F900FBE0F9091
:1034D0001F9018951F920F920FB60F9211240F9004
:1034E0000FBE0F901F901895CF93DF93FC011082B1
:1034F00011821282148215821682DC0117968AE1EB
:10350000ED0119928A95E9F782E08383DF91CF91EB
:103510000895CF93E2E8F2E01382128288EE93E0FE
:10352000A0E0B0E084839583A683B78385E391E030
:103530009183808385EC90E09587848784EC90E08C
:103540009787868780EC90E0918B808B81EC90E070
:10355000938B828B82EC90E0958B848B86EC90E051
:10356000978B868B118E128E138E148E8CEC94E0BA
:103570000E94741A8BEA94E00E94741A8AE894E01C
:103580000E94741AEAE8F4E086E48683CFE2C583F9
:1035900089E694E00E94741AE9E6F4E087E4868301
:1035A000C58388E494E00E94741AE8E4F4E080E5BE
:1035B0008683C58387E294E00E94741AE7E2F4E010
:1035C00081E58683C58386E094E00E94741AE6E074
:1035D000F4E089E58683C58385EE93E00E94741A42
:1035E000E5EEF3E08AE58683C58384EC93E00E94F0
:1035F000741AE4ECF3E08BE58683C58383EA93E0F9
:103600000E94741AE3EAF3E08CE58683C58382E8BE
:1036100093E00E94741AE2E8F3E08DE58683C583A7
:1036200081E693E00E94741AE1E6F3E080E6868387
:10363000C58380E493E00E94741AE0E4F3E081E043
:10364000868383E285838FE193E00E94741AEFE121
:10365000F3E082E0868388E18583CF9108957894B2
:1036600084B5826084BD84B5816084BD85B5826087
:1036700085BD85B5816085BD80916E008160809338
:103680006E001092810080918100826080938100A1
:1036900080918100816080938100809180008160B1
:1036A000809380008091B10084608093B10080910C
:1036B000B00081608093B00080917A008460809334
:1036C0007A0080917A00826080937A0080917A00FB
:1036D0008E7F80937A0080917A00806880937A0050
:1036E0001092C100A895E0919202F091930282E0BD
:1036F0008083E0918E02F0918F021082E09190021F
:10370000F091910288E0808310929A02E0919602F3
:10371000F091970286E08083E0919402F091950207
:10372000808180618083E0919402F0919502808194
:1037300088608083E0919402F09195028081806896
:103740008083E0919402F091950280818F7D808347
:10375000C0E1D0E0F12CFE01F595E795EC52FA4F6F
:10376000E491C0FF9FC0EF70E83008F0ADC0F0E01A
:10377000EC52FA4FF4906F2D82E892E00E942905F6
:103780002196C23FD10539F78DEC95E00E94D20613
:103790001F928FEF8F931F9288E08F938FE896E0B0
:1037A0009F938F930E94600B80914A028D7F80933C
:1037B0004A0282E896E09F938F930E94600B0E94DA
:1037C000E00641E050E063E071E089E492E00E94AD
:1037D00098246FEF81E090E00E94C02480913D0228
:1037E0008F7880933D02109233021092320283E26E
:1037F00091E00E94920689E396E1909323028093E0
:1038000022021F921F9283E18F9388E88F938DE4A9
:1038100096E09F938F930E94600B0E9413066B01AA
:103820007C018DB79EB70E960FB6F8949EBF0FBE63
:103830008DBF0E9413066C197D098E099F09683897
:1038400073418105910580F185E796E09F938F9301
:103850000E94600B0E946A0A90913C020F900F90A8
:1038600092FB882780F992FD0E94D9091F928F93BD
:103870008DE596E09F938F930E94600BA8950F9023
:103880000F900F900F90C0E0D0E00E94DF110E94D7
:103890008E122097D1F30E94FD048823B1F30E9479
:1038A0000000F3CFE2955FCF0E94740680913C0246
:1038B00084FD0E94BD0E80913C0282FB882780F926
:1038C000A8958111C1CFB5CF1BEF1E0F00E06F2D62
:1038D00082E892E00E9429050F5F0117C0F350CFE4
:1038E000EF920F931F93CF93DF93E80134E047FDEE
:1038F00034E1042E000C550B57FF03C05195419540
:103900005109E32E022F242FAE010E948920CE01FF
:10391000DF91CF911F910F91EF9008950F931F9317
:10392000CF93DF938230910510F482E090E0E09134
:10393000EF04F091F00430E020E0B0E0A0E0309738
:1039400099F42115310509F44AC0281B390B24309C
:103950003105D8F58A819B816115710589F1FB01DB
:1039600093838283FE0111C04081518102811381C2
:1039700048175907E0F04817590799F4109761F074
:1039800012960C93129713961C933296CF01DF91E7
:10399000CF911F910F9108950093EF041093F004BD
:1039A000F4CF2115310551F04217530738F0A90122
:1039B000DB019A01BD01DF01F801C1CFEF01F9CFB1
:1039C0009093F0048093EF04CDCFFE01E20FF31F3C
:1039D000819391932250310939832883D7CF209145
:1039E000ED043091EE04232B41F420912D01309110
:1039F0002E013093EE042093ED0420912B013091A1
:103A00002C012115310541F42DB73EB740912F010E
:103A100050913001241B350BE091ED04F091EE0440
:103A2000E217F307A0F42E1B3F0B2817390778F095
:103A3000AC014E5F5F4F2417350748F04E0F5F1FF4
:103A40005093EE044093ED04819391939FCFF0E067
:103A5000E0E09CCFCF93DF930097E9F0FC01329731
:103A600013821282A091EF04B091F004ED0130E0D6
:103A700020E01097A1F420813181820F931F2091C3
:103A8000ED043091EE042817390709F061C0F09376
:103A9000EE04E093ED04DF91CF910895EA01CE1793
:103AA000DF07E8F54A815B819E0141155105B1F7B9
:103AB000E901FB83EA8349915991C40FD51FEC17A3
:103AC000FD0761F4808191810296840F951FE901C1
:103AD00099838883828193819B838A83F0E0E0E0ED
:103AE00012968D919C9113970097B9F52D913C9169
:103AF0001197CD010296820F931F2091ED04309112
:103B0000EE042817390739F6309751F51092F00472
:103B10001092EF04B093EE04A093ED04BCCFD383D6
:103B2000C28340815181840F951FC817D90761F462
:103B30004E5F5F4F88819981480F591F51834083A1
:103B40008A819B81938382832115310509F0B0CF4F
:103B5000F093F004E093EF049ECFFD01DC01C0CFB1
:103B600013821282D7CFFC0188279927E8942191EC
:103B70002032E9F3293010F02E30C8F32B3241F017
:103B80002D3239F4689404C00E943F1E820F911DAB
:103B9000219120532A30C0F31EF4909581959F4FB8
:103BA00008951F93FC0199278827BC01E89411917F
:103BB0001032E9F3193010F01E30C8F31B3251F007
:103BC0001D3249F4689406C00E942A1E610F711DBF
:103BD000811D911D119110531A30B0F33EF4909550
:103BE0008095709561957F4F8F4F9F4F1F910895DE
:103BF000FC0105900020E9F7809590958E0F9F1F9E
:103C00000895FB01DC014150504048F005900D92B1
:103C10000020C9F701C01D9241505040E0F70895BF
:103C2000BB274A3031F4992322F4BDE29095819567
:103C30009F4F0C946A1EBB272A3051F4992342F4FB
:103C4000BDE290958095709561957F4F8F4F9F4F06
:103C50000C94481E592F482F372F262F660F771F99
:103C6000881F991F660F771F881F991F620F731F88
:103C7000841F951F660F771F881F991F08957AE08C
:103C8000979F902D879F802D910D11240895BB271C
:103C9000FA01A62F6217710581059105330B30FBE0
:103CA00066F0AA27660F771F881F991FAA1FA21701
:103CB00010F0A21B63953850A9F7A05DAA3308F055
:103CC000A95DA19336F7B111B1931082CA010C948A
:103CD000D622BB27FB015527AA27880F991FAA1FA9
:103CE000A41710F0A41B83955051B9F7A05DAA3317
:103CF00008F0A95DA193009779F7B111B1931192E2
:103D0000CB010C94D622AEE0B0E0E9E8FEE10C94E1
:103D1000E0248C01FA018EE08C831A83098377FFFB
:103D200002C060E070E8615071097E836D83A90173
:103D3000BF01CE0101960E94AF1E4D815E8157FDED
:103D40000AC02F813885421753070CF49A01020FDD
:103D5000131FF80110822E96E4E00C94FC24ABE0D3
:103D6000B0E0E5EBFEE10C94D2247C013B018A013A
:103D7000FC0117821682838181FFC8C1CE010196A2
:103D80005C01F7019381F30193FD859193FF81918C
:103D90003F01882309F453C1853239F493FD85919D
:103DA00093FF81913F01853229F4B70190E00E9491
:103DB000E622E7CF912C212C312CFFE1F31538F0CE
:103DC0008B3211F190F4803209F1833229F137FC02
:103DD0003CC020ED280F2A3050F536FE20C08AE086
:103DE000989E200D1124922E06C08D3291F08033C2
:103DF00071F7689430F8F30193FD859193FF8191F9
:103E00003F018111DACF21C0689431F8689432F80B
:103E1000F2CF689433F8EFCF689434F8ECCFEAE04F
:103E20002E9E200D1124222E689435F8E4CF8E3278
:103E300029F436FC04C1689436F8DDCF8C3619F4C9
:103E4000689437F8D8CF8836B1F2982F9F7D955473
:103E50009330E0F08336A1F18337C1F1833509F067
:103E600063C02801F2E04F0E511CF801C080D180E0
:103E7000692D70E036FC02C06FEF7FEFC6010E9433
:103E8000C0224C01689437F882010AC00C5F1F4FB2
:103E9000FFE3F98388248394912C6501E89437F833
:103EA00033FE2DC0522C8114910471F5552009F474
:103EB00068CFB70180E290E00E94E6225A94F6CFE4
:103EC000F801808189830E5F1F4FE4CF2801F2E063
:103ED0004F0E511CF801C080D180692D70E036FC76
:103EE00002C06FEF7FEFC6010E94CB224C0182011E
:103EF000D5CFB70180E290E00E94E6222A942814F0
:103F0000190409F0B0F7CECFF60137FC859137FEE2
:103F100081916F01B70190E00E94E62251105A94FE
:103F2000F1E08F1A9108BFCF843619F0893609F075
:103F300077C0F80137FE6BC0608171818281938107
:103F40000C5F1F4FF32DFF763F2E97FF09C0909512
:103F50008095709561957F4F8F4F9F4F689437F88C
:103F60002AE030E0A5010E941623C82ECA188C2C26
:103F7000432C36FE0CC0E89440F8C91440F434FEDB
:103F800005C032FC03C0F32DFE7E4F2E892C44FE6B
:103F900095C0FE01EC0DF11D8081803309F087C0D2
:103FA000242D297E422E842D8870582E43FC95C0E6
:103FB00040FE8FC09C2C821418F42C0C922C981864
:103FC00044FE91C0B70180E390E00E94E62242FEE9
:103FD00009C088E790E041FE02C088E590E0B701A3
:103FE0000E94E622C91408F48AC0CA94D12C9FEF1B
:103FF000C91AD90ACA0CDB1CF60182916F01B701FC
:1040000090E00E94E622AC14BD04B1F74FCF60816E
:104010007181072E000C880B990B0E5F1F4F92CFFA
:10402000D32CE894D4F82AE030E0853739F1232DF9
:10403000297FD22E8F3601F148F48835A9F0F70197
:10404000868197812B96E2E10C94EE24803749F02B
:104050008837A9F7D4FE02C06894D2F820E130E096
:104060000DC06894D4F8F6CF34FE03C0822F86606A
:10407000D82E20E132E002C028E030E0F801D7FE7F
:104080000FC060817181828193810C5F1F4FA501F8
:104090000E941623C82ECA183D2CE89437F867CF23
:1040A0006081718190E080E00E5F1F4FF0CF42FC95
:1040B00002C0839478CF8394839475CF842D8678BF
:1040C00009F471CFF6CFB70180E290E00E94E622BA
:1040D00083948214C0F3512C73CF522C581882143D
:1040E00008F46ECFF8CF842D867809F47BCF8BE26D
:1040F00041FE80E247FC8DE2B70190E071CFB7014D
:1041000080E390E00E94E6229A946CCF8FEF9FEFBD
:1041100099CFA9E0B0E0EFE8F0E20C94D8246A016E
:10412000F22EB02E102FFBE3AF2EA01608F41BE3E7
:104130001F5F012F27E0AE014F5F5F4F0E94E82114
:10414000BC018981982F9970913009F43FC09BE29E
:10415000E1FC04C09E2D9170E0FC3AC05E2D5071D0
:10416000E82FE87083FF46C084E0911101C083E02E
:10417000EF2DE81B8F1508F0E0E0D6018E2F20E22E
:10418000552351F1992329F0D6019C93C60101963C
:104190006C0196012D5F3F4FE2FE24C08EE4D601F4
:1041A0008C9391E411969C93119712968C93D9015C
:1041B0008E2F90E281111BC0E20FF32FF11D1082B0
:1041C0008EEF9FEF2996ECE00C94F4249DE2C6CF8D
:1041D00090E2C4CF2D9381508111FCCFCE0ED11C23
:1041E000E0E0D0CF8EE6D6018C9391E6DBCF9D93B5
:1041F0008150E0CF482F447082FF3DC084E0911190
:1042000001C083E08F1510F4EF2DE81BD6018E2F2F
:1042100020E2552309F1992329F0D6019C93C60188
:1042200001966C0196012D5F3F4FE2FE1BC089E4B1
:10423000D6018C938EE411968C93119786E4129696
:104240008C93D9018E2F90E2882309F4B5CF9D93EA
:104250008150FACF2D9381508111FCCFCE0ED11C0D
:10426000E0E0D9CF89E6D6018C938EE611968C9347
:10427000119786E6E4CF9B0177FF02C030E020E093
:10428000A1E0B0E0911102C0B0E0A0E0F9013196E8
:10429000AE0FBF1F8B2C912CBB2009F461C05401C1
:1042A000EFEFAE1ABE0AAA0DBB1DFA161B0619F0D7
:1042B00014F04F2D4A1B511188C0E3FC59C0760100
:1042C000A42FB0E2A1114FC0C40ED11C992309F450
:1042D0005BC040E0D6011196F60190836D01552335
:1042E00009F448C0012F060F9A81582F507184FF9E
:1042F00003C0913309F4015010160CF047C0093087
:1043000008F008E0EEE2FE2E5B01A01AB10885017C
:104310009194819491082F3F320729F4D601FC92A1
:10432000F60131966F016217730794F102171307B4
:104330007CF5DB01A21BB30BAA24A394B12CAC0E19
:10434000BD1EAA0DBB1D11968C9121503109D601BD
:10435000119628153905F4F0F60180836D01DBCF45
:10436000B12CA12CA0CFF701B1937F01A150AACF0E
:104370009111B0CFD601942F50E302C05D939150BC
:104380009111FCCFC40ED11C40E0ACCF01E0BACFFC
:1043900080E3DBCF6217730731F4963388F49533EB
:1043A00011F4552369F0F6018083FD01842F90E21A
:1043B000811108C0A40FB11D1C9290E080E002CFD3
:1043C00081E3F1CF91938150F3CF911183CF8ACFC5
:1043D000283008F027E03327DA01990F311D87FDD7
:1043E000916000966105710539F432602E5F3D934E
:1043F00030E32A95E1F708959F3F30F0803871054A
:10440000610509F03C5F3C5F3D93913008F08068A6
:10441000911DDF93CF931F930F93FF92EF92192F6C
:10442000987F9695E92F96959695E90FFF27EE537D
:10443000FF4F99273327EE24FF24A701E7010590BA
:104440000894079428F4360FE71EF81E491F511DE3
:10445000660F771F881F991F0694A1F70590079490
:1044600028F4E70EF81E491F561FC11D770F881F3D
:10447000991F661F0694A1F70590079428F4F80E7B
:10448000491F561FC71FD11D880F991F661F771F11
:104490000694A1F70590079420F4490F561FC71FF3
:1044A000D81F990F661F771F881F0694A9F784915C
:1044B0001095177041F0D695C79557954795F79485
:1044C000E7941A95C1F7E8E6F0E068941590159125
:1044D00035916591959105907FE27395E118F10A08
:1044E000430B560BC90BD009C0F7E10CF11E431F5B
:1044F000561FC91FD01D7EF4703311F48A95E6CF84
:10450000E894015030F0080F0AF40027021708F46D
:10451000202F2395022F7A3328F079E37D932A9573
:10452000E9F710C07D932A9589F6069497956795CB
:10453000379517951794E118F10A430B560BC90BE1
:10454000D00998F023957E9173957A3308F070E343
:104550007C932013B8F77E9170617D9330F0839542
:1045600071E37D9370E32A95E1F71124EF90FF90BA
:104570000F911F91CF91DF91992787FD9095089515
:10458000FC010590615070400110D8F7809590951E
:104590008E0F9F1F0895FC01615070400190011023
:1045A000D8F7809590958E0F9F1F0895DC01FC0130
:1045B000672F71917723E1F7329704C07C916D9357
:1045C00070836291AE17BF07C8F308950F931F93CE
:1045D000CF93DF93182F092FEB018B8181FD09C049
:1045E0001FEF0FEF812F902FDF91CF911F910F9130
:1045F000089582FF14C02E813F818C819D812817F0
:1046000039073CF4E881F981CF01019699838883C9
:1046100010838E819F8101969F838E83E3CFE885EF
:10462000F985812F0995892BA1F3DACFFA01AA2701
:10463000283051F1203181F1E8946F936E7F6E5FE5
:104640007F4F8F4F9F4FAF4FB1E03ED0B4E03CD093
:10465000670F781F891F9A1FA11D680F791F8A1F76
:10466000911DA11D6A0F711D811D911DA11D20D0DD
:1046700009F468943F912AE0269F11243019305D97
:104680003193DEF6CF010895462F4770405D419388
:10469000B3E00FD0C9F7F6CF462F4F70405D4A33D5
:1046A00018F0495D31FD4052419302D0A9F7EACF9D
:1046B000B4E0A6959795879577956795BA95C9F7CC
:1046C00000976105710508959B01AC010A2E0694BF
:1046D0005795479537952795BA95C9F7620F731F78
:1046E000841F951FA01D08950E94B62308F481E041
:1046F0000895E89409C097FB3EF4909580957095D5
:1047000061957F4F8F4F9F4F9923A9F0F92F96E91D
:10471000BB279395F695879577956795B795F11192
:10472000F8CFFAF4BB0F11F460FF1BC06F5F7F4F2F
:104730008F4F9F4F16C0882311F096E911C0772341
:1047400021F09EE8872F762F05C0662371F096E84A
:10475000862F70E060E02AF09A95660F771F881F19
:10476000DAF7880F9695879597F90895990F0008BD
:10477000550FAA0BE0E8FEEF16161706E807F90733
:10478000C0F012161306E407F50798F0621B730BCE
:10479000840B950B39F40A2661F0232B242B252B4F
:1047A00021F408950A2609F4A140A6958FEF811DF2
:1047B000811D08950E94ED230C945E240E945024D4
:1047C00038F00E94572420F0952311F00C944724D0
:1047D0000C944D2411240C9492240E946F2470F3A5
:1047E000959FC1F3950F50E0551F629FF001729F96
:1047F000BB27F00DB11D639FAA27F00DB11DAA1FA5
:10480000649F6627B00DA11D661F829F2227B00DF1
:10481000A11D621F739FB00DA11D621F839FA00D7C
:10482000611D221F749F3327A00D611D231F849FCC
:10483000600D211D822F762F6A2F11249F57504023
:104840009AF0F1F088234AF0EE0FFF1FBB1F661F9E
:10485000771F881F91505040A9F79E3F510580F067
:104860000C9447240C9492245F3FE4F3983ED4F3D5
:10487000869577956795B795F795E7959F5FC1F70B
:10488000FE2B880F911D9695879597F9089597F9B6
:104890009F6780E870E060E008959FEF80EC0895E6
:1048A00000240A941616170618060906089500240F
:1048B0000A9412161306140605060895092E039489
:1048C000000C11F4882352F0BB0F40F4BF2B11F4FD
:1048D00060FF04C06F5F7F4F8F4F9F4F089557FD5C
:1048E0009058440F551F59F05F3F71F04795880F5E
:1048F00097FB991F61F09F3F79F0879508951216F5
:1049000013061406551FF2CF4695F1DF08C01616A0
:1049100017061806991FF1CF869571056105089451
:104920000895E894BB2766277727CB0197F9089568
:10493000DC01CB01FC01F999FECF06C0F2BDE1BD5F
:10494000F89A319600B40D9241505040B8F708954E
:10495000F999FECF92BD81BDF89A992780B5089547
:10496000DC01A40FB51F4150504048F0CB01840F2B
:10497000951F2E910E94C12441505040D0F70895B8
:10498000262FF999FECF92BD81BDF89A019700B408
:10499000021639F01FBA20BD0FB6F894FA9AF99AA8
:1049A0000FBE08952F923F924F925F926F927F9227
:1049B0008F929F92AF92BF92CF92DF92EF92FF922F
:1049C0000F931F93CF93DF93CDB7DEB7CA1BDB0BDB
:1049D0000FB6F894DEBF0FBECDBF09942A88398880
:1049E00048885F846E847D848C849B84AA84B98487
:1049F000C884DF80EE80FD800C811B81AA81B98193
:104A0000CE0FD11D0FB6F894DEBF0FBECDBFED01A6
:104A100008955058BB27AA270E9421250C945E2494
:104A20000E94502438F00E94572420F039F49F3F10
:104A300019F426F40C944D240EF4E095E7FB0C9445
:104A40004724E92F0E946F2458F3BA1762077307AF
:104A50008407950720F079F4A6F50C9491240EF4C0
:104A6000E0950B2EBA2FA02D0B01B90190010C017E
:104A7000CA01A0011124FF27591B99F0593F50F496
:104A8000503E68F11A16F040A22F232F342F4427EE
:104A9000585FF3CF469537952795A795F0405395E6
:104AA000C9F77EF41F16BA0B620B730B840BBAF0B6
:104AB0009150A1F0FF0FBB1F661F771F881FC2F721
:104AC0000EC0BA0F621F731F841F48F48795779535
:104AD0006795B795F7959E3F08F0B0CF9395880FEF
:104AE00008F09927EE0F9795879508950E948A25DB
:104AF0000C945E240E94572458F00E94502440F0E9
:104B000029F45F3F29F00C94472451110C9492240E
:104B10000C944D240E946F2468F39923B1F355231C
:104B200091F3951B550BBB27AA27621773078407C0
:104B300038F09F5F5F4F220F331F441FAA1FA9F356
:104B400035D00E2E3AF0E0E832D091505040E69544
:104B5000001CCAF72BD0FE2F29D0660F771F881FA5
:104B6000BB1F261737074807AB07B0E809F0BB0B98
:104B7000802DBF01FF2793585F4F3AF09E3F5105AC
:104B800078F00C9447240C9492245F3FE4F3983E11
:104B9000D4F3869577956795B795F7959F5FC9F795
:104BA000880F911D9695879597F90895E1E0660F16
:104BB000771F881FBB1F621773078407BA0720F08F
:104BC000621B730B840BBA0BEE1F88F7E0950895F8
:104BD0000E94772488F09F5798F0B92F9927B751F2
:104BE000B0F0E1F0660F771F881F991F1AF0BA9591
:104BF000C9F714C0B13091F00E949124B1E008953A
:104C00000C949124672F782F8827B85F39F0B93F2B
:104C1000CCF3869577956795B395D9F73EF4909543
:104C20008095709561957F4F8F4F9F4F08950E949B
:104C3000B62308F48FEF08950E94B623880B990BD2
:104C40000895A1E21A2EAA1BBB1BFD010DC0AA1FCD
:104C5000BB1FEE1FFF1FA217B307E407F50720F0E5
:104C6000A21BB30BE40BF50B661F771F881F991F60
:104C70001A9469F760957095809590959B01AC01A9
:104C8000BD01CF010895EE0FFF1F0590F491E02DB7
:104C90000994B0E0A0E0EFE4F6E20C94D4248C0197
:104CA000009751F4CB010E948E1C8C01C801CDB736
:104CB000DEB7E0E10C94F024FC01E60FF71F9C0145
:104CC00022503109E217F30708F49DC0D901CD91B4
:104CD000DC911197C617D70798F0C530D10530F38E
:104CE000CE0104978617970708F3C61BD70B2297A8
:104CF000C193D1936D937C93CF010E942A1DD6CF8F
:104D00005B01AC1ABD0A4C018C0E9D1EA091EF04F4
:104D1000B091F004512C412CF12CE12C109731F57D
:104D20008091ED049091EE048815990509F05CC01E
:104D30004616570608F058C080912B0190912C011F
:104D4000009741F48DB79EB740912F0150913001EB
:104D5000841B950BE817F90708F055C0F093EE0493
:104D6000E093ED04F90171836083A0CF8D919C9154
:104D7000119712966C90129713967C901397A81522
:104D8000B90559F56C0142E0C40ED11CCA14DB040C
:104D900020F1AC014A195B09DA011296159780F0EF
:104DA0006282738251834083D9016D937C93E114B5
:104DB000F10471F0D7011396FC93EE93129776CF1E
:104DC00022968C0F9D1FF90191838083F301EFCF11
:104DD000F093F004E093EF0469CF4816590608F405
:104DE0002C017D01D3019ACFCB010E948E1C7C0146
:104DF000009749F0AE01B8010E940627C8010E9441
:104E00002A1D870153CF10E000E050CFFB01DC01E9
:104E100002C001900D9241505040D8F70895FB0117
:104E2000DC0101900D920020E1F70895FB01DC0107
:104E30004150504048F001900D920020C9F701C048
:104E40001D9241505040E0F70895AEE0B0E0EBE233
:104E5000F7E20C94E0240D891E8986E08C831A8386
:104E600009838FEF9FE79E838D83AE01475E5F4F7F
:104E70006F89788DCE0101960E94AF1E2F813885F3
:104E8000020F131FF80110822E96E4E00C94FC240C
:044E9000F894FFCFC4
:104E9400FFFFFF00FCE1A8A8FF90166816A317798E
:104EA400175D170A17DE16CC160018C517E3FF00A6
:104EB400040A015C191F181F061F060000F1048074
:104EC400000000000029059304C0049105F104CFFB
:104ED40004E3040D0A006E657750756C73653A201F
:104EE4000020696E74657276616C3A200020666CED
:104EF4006F773A20006E616E00696E66006F7666A9
:104F04000030002D003C4E4F4E43453E004F4B00B9
:104F14004E41434B003F0021006E6577204D657480
:104F2400657256616C75652066726F6D2047570017
:104F3400476173204D6574657200332E302D303017
:104F44003100322E332E3200636865636B5468720D
:104F54006573686F6C643A2000206F6C6456616CF2
:104F640075653A20002073656E736F7253746174B3
:104F7400653A200020686954483A2000204C6F5458
:104F8400483A2000696E666F726D475700256420A9
:104F9400253032643A253032643A25303264004197
:044FA40055544F0011
:00000001FF
