:100000000C94E5010C9403140C94DC130C940D0275
:100010000C940D020C940D020C942A140C940D02F5
:100020000C940D020C940D020C940D020C940D0214
:100030000C940D020C940D020C940D020C940D0204
:100040000C9492130C940D020C9460130C943A13BC
:100050000C940D020C940D020C940D020C940D02E4
:100060000C940D020C940D02000000080002010027
:1000700000030407000000000000000068775265DC
:10008000626F6F740064626733206E6F7420706FEC
:10009000737369626C650064626733203100646267
:1000A00067332030007374617274696E6720736502
:1000B0007269616C20696E74657266616365207730
:1000C0006974686F757420646562756767696E67C7
:1000D00000547820455252005478204F4B0053650D
:1000E000744765744D6574657256616C756500483A
:1000F0007754696D65004462675F52657475726E0E
:10010000004462675F4C6576656C0052465F4368E9
:10011000616E6E656C0050415F4C6576656C005495
:10012000585F5253534900506172656E744E6F644C
:100130006500506173736976654E6F646500436F47
:100140006D70696C654461746500506F77657250BD
:100150006861736500506F7765724D6574657200F4
:10016000534D4C5F46494E414C004465632032324A
:1001700020323032322031333A33343A3533005280
:100180004632345F50415F4C4F57000000891112D6
:10019000239B322446AD573665BF74488CC19D5AA7
:1001A000AFD3BE6CCAE5DB7EE9F7F8811008019396
:1001B000331A22A5562C47B7753E64C99C408DDB87
:1001C000BF52AEEDDA64CBFFF976E802218B301036
:1001D0000299132667AF763444BD554AADC3BC5867
:1001E0008ED19F6EEBE7FA7CC8F5D983310A209156
:1001F000121803A7772E66B5543C45CBBD42ACD947
:100200009E508FEFFB66EAFDD874C904428D5316E9
:10021000619F702004A9153227BB364CCEC5DF5E26
:10022000EDD7FC6888E1997AABF3BA85520C439715
:10023000711E60A1142805B3373A26CDDE44CFDF06
:10024000FD56ECE9986089FBBB72AA06638F7214B5
:10025000409D512225AB343006B9174EEFC7FE5CE6
:10026000CCD5DD6AA9E3B8788AF19B87730E6295D5
:10027000501C41A3352A24B1163807CFFF46EEDDC6
:10028000DC54CDEBB962A8F99A708B088481951A79
:10029000A793B62CC2A5D33EE1B7F04008C91952C6
:1002A0002BDB3A644EED5F766DFF7C899400859B75
:1002B000B712A6ADD224C3BFF136E0C1184809D3A6
:1002C0003B5A2AE55E6C4FF77D7E6C0AA583B41815
:1002D0008691972EE3A7F23CC0B5D14229CB385086
:1002E0000AD91B666FEF7E744CFD5D8BB502A49935
:1002F000961087AFF326E2BDD034C1C3394A28D166
:100300001A580BE77F6E6EF55C7C4D0CC685D71EC8
:10031000E597F42880A1913AA3B3B2444ACD5B5645
:1003200069DF78600CE91D722FFB3E8DD604C79FF4
:10033000F516E4A9902081BBB332A2C55A4C4BD725
:10034000795E68E11C680DF33F7A2E0EE787F61C94
:10035000C495D52AA1A3B03882B193466BCF7A5405
:1003600048DD59622DEB3C700EF91F8FF706E69DB4
:10037000D414C5ABB122A0B9923083C77B4E6AD5E5
:10038000585C49E33D6A2CF11E780F0000000025FF
:100390000028002B0000000000240027002A000491
:1003A000040404040404040202020202020303031C
:1003B0000303030102040810204080010204081016
:1003C0002001020408102000491411241FBECFEFA1
:1003D000D8E0DEBFCDBF11E0A0E0B1E0E6EEF5E38E
:1003E00002C005900D92A63BB107D9F725E0A6EB18
:1003F000B1E001C01D92A830B207E1F711E0C5EEEF
:10040000D1E004C02197FE010E94661AC43ED107C4
:10041000C9F70E9401150C94F11A0C940000CF92B8
:10042000DF92EF92FF920F931F93CF938C01C091B5
:100430005602C7FF24C08AE0C82ED12CE12CF12C33
:10044000CF5FC130F1F0F8016081718182819381C9
:10045000A70196010E94471AF80120833183428345
:100460005383EECFF8012081318142815381AAE08C
:10047000B0E00E9462196083718382839383C150CC
:1004800088F7C0935602CF911F910F91FF90EF9084
:10049000DF90CF9008958F929F92AF92BF92CF92AC
:1004A000DF92EF92FF920F931F93CF93DF93FC01A4
:1004B0007B018FEF80838183828383838483858321
:1004C00086838783C0905502D090560210E0A0E04A
:1004D000AC1568F51F5FCA2FD0E0CB5FDD4FD88128
:1004E000C2E0CA0FAF5FB0E0AB5FBD4F8C9190E050
:1004F0008430910591F4DD2381F0AC2FB0E0AB5F47
:10050000BD4F9C919E5FA1E0AC0FB0E0AB5FBD4FD3
:100510008C91C90FD15089F790E01430B9F4AC2F09
:10052000B0E0AB5FBD4F8C918E151F04B1F0D0923F
:100530005602DF91CF911F910F91FF90EF90DF90C6
:10054000CF90BF90AF909F908F900895153041F459
:10055000AC2FB0E0AB5FBD4FDC90AC2FAD0FB8CF90
:100560001630D9F7AC2EB12C4097D9F5C5018B5F69
:100570009D4FDC012C91922F990F990B392F492F08
:10058000592F692F792F892F0FE30E94971A0E9404
:100590006C1A2083318342835383648375838683FB
:1005A0009783C5018B5F9D4F5C01912CD915A9F2F2
:1005B000D5018D905D01208131814281538164811B
:1005C00075818681978108E00E947C1A2829208302
:1005D00031834283538364837583868397839394A3
:1005E000E5CF20E030E040E050E060E070E080E007
:1005F00090E0CFCFE7E5F2E0A089B18982E08C936B
:10060000A485B5851C92A685B7858FEC8C93108E3A
:10061000A489B58986E08C93A289B3898C91806185
:100620008C93A289B3898C9188608C93A289B389B9
:100630008C9180688C930288F389E02D80818F7D76
:100640008083089590E0FC01ED54FC4F2491815685
:100650009C4FFC018491882399F090E0880F991FAA
:10066000FC01EB56FC4FA591B491FC01E557FC4F02
:10067000859194918FB7F894EC91E22BEC938FBF16
:100680000895942FE2ECF4E03091010231838283EB
:10069000668325834481487F492B477E4483CF016D
:1006A0000895AF92BF92CF92DF92EF92FF920F9395
:1006B0001F93CF93DF936C017B018B01040F151FF8
:1006C000EB015E01AE18BF08C017D10759F0699160
:1006D000D601ED91FC910190F081E02DC6010995C4
:1006E000892B79F7C501DF91CF911F910F91FF9071
:1006F000EF90DF90CF90BF90AF900895FC01538DA5
:10070000448D252F30E0842F90E0821B930B5417EB
:1007100010F0CF96089501970895FC01918D828D78
:10072000981761F0A28DAE0FBF2FB11D5D968C9111
:10073000928D9F5F9F73928F90E008958FEF9FEF50
:100740000895FC01918D828D981731F0828DE80F0C
:10075000F11D858D90E008958FEF9FEF0895FC01C6
:10076000918D228D892F90E0805C9F4F821B910993
:100770008F739927089587E592E00E94AF0321E0E7
:10078000892B09F420E0822F0895FC01A48DA80F85
:10079000B92FB11DA35ABF4F2C91848D90E00196C3
:1007A0008F739927848FA689B7892C93A089B189E3
:1007B0008C91837080648C93938D848D981306C084
:1007C0000288F389E02D80818F7D80830895EF92E8
:1007D000FF920F931F93CF93DF93EC0181E0888FFB
:1007E0009B8D8C8D98131AC0E889F989808185FFCB
:1007F00015C09FB7F894EE89FF896083E889F9896D
:1008000080818370806480839FBF81E090E0DF916E
:10081000CF911F910F91FF90EF900895F62E0B8DC1
:1008200010E00F5F1F4F0F731127E02E8C8D8E117C
:100830000CC00FB607FCFACFE889F989808185FFE3
:10084000F5CFCE010E94C503F1CFEB8DEC0FFD2F4C
:10085000F11DE35AFF4FF0829FB7F8940B8FEA899E
:10086000FB8980818062CFCF0F931F93CF93DF935B
:100870008C01D0E0C0E0F801EC0FFD1F649166230D
:1008800041F087E592E00E94E703892B11F0219661
:10089000F2CF42E050E06FE771E087E592E00E941E
:1008A00051038C0F9D1FDF91CF911F910F910895E0
:1008B000CF93DF93EC01888D8823B9F0AA89BB8997
:1008C000E889F9898C9185FD03C0808186FD0DC082
:1008D0000FB607FCF7CF8C9185FFF2CF808185FFA3
:1008E000EDCFCE010E94C503E9CFDF91CF910895EE
:1008F00080E090E0892B29F00E94BB0381110C94C9
:10090000000008953FB7F8948091FB019091FC019D
:10091000A091FD01B091FE0126B5A89B05C02F3F17
:1009200019F00196A11DB11D3FBFBA2FA92F982F15
:100930008827BC01CD01620F711D811D911D42E010
:10094000660F771F881F991F4A95D1F708958F92D8
:100950009F92AF92BF92CF92DF92EF92FF926B0184
:100960007C010E9482044B015C01C114D104E104AA
:10097000F104B9F00E948204681979098A099B0977
:10098000683E73408105910580F321E0C21AD108C9
:10099000E108F10888EE880E83E0981EA11CB11CC6
:1009A000E4CFFF90EF90DF90CF90BF90AF909F90FB
:1009B0008F9008952FB7F8946091F7017091F80126
:1009C0008091F9019091FA012FBF089508950F9336
:1009D0001F93CF93DF93CDB7DEB728970FB6F89468
:1009E000DEBF0FBECDBF8C016BE170E0CE01019682
:1009F0000E944B0289819A81AB81BC81F80180837E
:100A00009183A283B383C8010E940F0228960FB678
:100A1000F894DEBF0FBECDBFDF91CF911F910F9134
:100A200008950F931F93CF93DF93CDB7DEB7289729
:100A30000FB6F894DEBF0FBECDBF8C016EE170E043
:100A4000CE0101960E944B0289819A81AB81BC81C3
:100A5000F80180839183A283B383C8010E940F02AF
:100A600028960FB6F894DEBF0FBECDBFDF91CF91B1
:100A70001F910F910895E091F501F0E0E551FE4FCF
:100A80008081181614F4815080830895E0915502F6
:100A9000E03540F491E09E0F90935502F0E0EB5F5B
:100AA000FD4F808308952091660130916701FC011C
:100AB0008081F901E827FF27EE0FFF1FE557FE4F62
:100AC00085919491232F3327282739273093670165
:100AD00020936601089582E691E00C9411058EE55D
:100AE00091E00C94110587ED91E00C94E70483EDFF
:100AF00091E00C94E7048FEC91E00C94E7048BEC0C
:100B000091E00C94E70408950F931F930E94DA0478
:100B10006093BE017093BF018093C0019093C101A7
:100B20008B019C0100531547210931090093C40131
:100B30001093C5012093C6013093C7016093BA0199
:100B40007093BB018093BC019093BD011F910F91E5
:100B50000895FC01938197706A3108F069E188E09B
:100B6000689FB0011124692B6383CF0108950F930F
:100B70001F93CF93DF93EC018B0162E00E94A905E4
:100B80008C818F7180648C8318870F83CE01DF91F5
:100B9000CF911F910F9108951F93CF93DF93EC0195
:100BA000162F61E00E94A9058C818F7180628C8371
:100BB0001F83CE01DF91CF911F910895FC018381A6
:100BC0008695869586958A3108F089E10895E091A9
:100BD000DC01F091DD01309721F00280F381E02DFE
:100BE000099408950F931F930E94DA040091DE0187
:100BF0001091DF012091E0013091E101601B710B48
:100C0000820B930B1F910F9108959C018091DC0141
:100C10009091DD0182179307F1F09091E6019F71A9
:100C20009093E6013093DD012093DC01E091DC013B
:100C3000F091DD01309721F00190F081E02D0995D0
:100C40000E94DA046093DE017093DF018093E0017B
:100C50009093E10108958091E601805E8093E60122
:100C6000E5CF0F931F930E94F2052091E7012077B3
:100C7000203779F000E117E220E030E0061717078F
:100C80002807390758F488E591E01F910F910C94DB
:100C9000050600E61AEE20E030E0F0CF1F910F913C
:100CA00008958091E7018F70863020F089E191E00E
:100CB0000C94050608958091E60184608093E60116
:100CC0008091E70180788093E701E091C801F0917D
:100CD000C901309709F0099408958EBD00000DB444
:100CE00007FEFDCF8EB50895CF93C82F0E943B0518
:100CF0008091F5018A3018F48F5F8093F501E091BF
:100D0000F501F0E0E551FE4FC08384E090E0909360
:100D1000EA018093E901C0936801C63058F010924F
:100D20005502E5E0F2E080E5DF011D928A95E9F7E2
:100D3000CF9108958C2F0E94460584E0CF910C94AA
:100D40004605CF93C091E801CF3FA1F00E94DA049D
:100D50006093E2017093E3018093E4019093E501D5
:100D600080910302C813C093030285E191E0CF9103
:100D70000C9405060E94F205613D774081059105BE
:100D800068F08091E601803618F481E191E0EFCFC0
:100D9000877F8093E60189E191E0E9CFCF910895C3
:100DA000809101028F3F21F081E191E00C940506D2
:100DB0000E94F205613D77408105910550F08091D8
:100DC000E601803618F48DE091E0F0CF89E091E003
:100DD000EDCF08950E94F205613D774081059105B0
:100DE00020F48091E60181FF17C0809102028F3FBD
:100DF00049F08091E6018E7F8093E6018DE091E0DD
:100E00000C9405068091E601803618F489E191E0A2
:100E1000F7CF89E091E0F4CF0895E6EEF1E080812C
:100E2000877F8F7E80831092E2011092E3011092FF
:100E3000E4011092E50144E050E070E060E081E000
:100E400092E00C9428190E94FA0285EA90E00E9430
:100E500034048DE991E00E9438198A3018F48093A7
:100E6000B90108951092B90160E08DE991E00C9408
:100E700050190F931F93CF93DF93EC018B0180E008
:100E80006115710519F0CB010E94E715682FCE019D
:100E90000E94A9058C818F718C83CE010E94DE0592
:100EA000482F50E0B801CE0107960E94F015CE0100
:100EB0000E94DE058C0F9D2F911DFC011782CE0133
:100EC000DF91CF911F910F910895BF92CF92DF9242
:100ED000EF92FF920F931F93CF93DF937B01042F29
:100EE000B22E91E59CBD91E09DBD2A98E3E2F0E031
:100EF0003197F1F70E946D06182FE7010150A8F015
:100F0000BB2051F08FEF0E946D06182FE114F10401
:100F1000A9F388832196F2CF6E018FEFC81AD80A01
:100F200088810E946D06E601E9CF2A9A83E290E06B
:100F30000197F1F7812FDF91CF911F910F91FF90D2
:100F4000EF90DF90CF90BF900895CF93DF931F92E3
:100F5000CDB7DEB7698320E041E0BE016F5F7F4F10
:100F60000E9465070F90DF91CF9108958091E7016E
:100F7000982F9077903759F0982F92959F709F5F98
:100F800097709295907F8F78892B8093E70180915D
:100F9000E6018B7F8F7E8093E60129986CE080E2EA
:100FA0000C94A5076FE080E20E94A50760910801FC
:100FB0006F3F19F08AE20E94A507299A089521E05F
:100FC00041E070E060E00C94650720E040E070E0F4
:100FD00060E00C946507FF920F931F93CF93DF930C
:100FE000D82F8B0180910102FB018083838182FDD8
:100FF0004AC0CB010E94DE0597E0F92EF80E8091E1
:101000000402C1E080FD03C0DF3F09F0C0E0809131
:10101000CA018F5F8093CA010115110509F44DC003
:10102000299883E092E00197F1F76EE080E20E9458
:10103000A5078BE891E00197F1F76D2F8AE20E94F6
:10104000A5076D2F80E30E94A50781EE0E94E507AA
:10105000CC2321F060E584E20E94A50720E04F2D1B
:10106000B80180EA0E946507299A10E000E08FEF3E
:101070000E94E507807351F40F3F100739F0A895DF
:101080000F5F1F4FF4CF80E2F82EB9CF299860E7A9
:1010900087E20E94A507D82F84FF03C081EE0E943B
:1010A000E507CC2321F06FE584E20E94A5070E94AA
:1010B000D207D5FF03C0C1E001C0C0E08C2FDF9193
:1010C000CF911F910F91FF9008950F931F93CF938E
:1010D0008C01FC0182819091E60190FF04C08F3F5A
:1010E00079F5CFEF04C081111BC0C0910202B80195
:1010F0008C2F0E94EB07909102029C1318C09091D4
:10110000E701811118C02091DB012F5F2093DB01E3
:1011100021E0290F2F70907F922B9093E70107C059
:101120008F3FF9F2B8010E94EB078823F1F2CF91CB
:101130001F910F910895907F9093E70181E0F7CF81
:1011400080E0F5CF2091E60122FD0C94650880E057
:101150000895FC018091010281839481907F9160C8
:1011600094838091000280FF03C0CF010C94A208F9
:1011700080E00895CF92DF92EF92FF92CF93DF93BA
:101180000E94F2056B017C0126E143E050E06FEF25
:1011900080E00E944103EC0164E00E94A9058C817B
:1011A0008F71806A8C83CF82D886E986FA86CE01D9
:1011B000DF91CF91FF90EF90DF90CF900C94A20839
:1011C000CF93DF93262FEA0150E040E0682F80E0C4
:1011D0000E944103BE010E943907DF91CF910C9418
:1011E000A2080C94A2088FEF8093E801E6EEF1E0EC
:1011F00080818860808328E143E050E06FEF80E0E9
:101200000E94410361E00E94CC050C946508CF93D5
:10121000219A229A29982A9ACFB7F8948091B601F8
:10122000811146C089EA93E0FC0124914DEB53E023
:10123000FA013491E22FF0E0EE0FFF1FEB56FC4F66
:10124000A591B4912C91322321F5E2E7F0E02491AD
:10125000FA014491FC0194919923D9F0222359F089
:10126000233009F4B3C008F0A6C0213009F4B4C09B
:10127000223009F4B5C0E92FF0E0EE0FFF1FE5576B
:10128000FC4FA591B4918FB7F8949C91492B4C9346
:101290008FBF8AE00E9422038CB580618CBD8CB523
:1012A00080648CBD8DE00E9422038BE00E942203AB
:1012B0008091B6018F5F8093B601CFBF29986EE011
:1012C00080E20E94A5078BE496E40197F1F763E0C2
:1012D00083E20E94A5076FE584E20E94A50760E60D
:1012E00085E20E94A50763E286E20E94A50764E00A
:1012F0008DE30E94A5078DE10E94DF07843041F055
:1013000063E780E50E94A50764E08DE30E94A507DE
:1013100086E00E94DF07833209F06FC085E00E94FB
:10132000DF07803609F069C062E082E20E94A5070B
:1013300060E081E20E94A50763E08CE30E94A507BC
:101340008FEF8093030120E045E063E071E08BE2E2
:101350000E94650720E045E063E071E08AE20E94B8
:10136000650720E045E063E071E080E30E946507E7
:1013700082EE0E94E50781EE0E94E50760E787E2C2
:101380000E94A5078091E60180618093E60180912B
:1013900004028E7F8093040287E68093010267E651
:1013A00090E080E00E945019C0910102CF3F51F5BA
:1013B00089E191E024C02730B1F02830D1F0243009
:1013C00009F059CF809180008F7D03C0809180000B
:1013D0008F77809380004FCF84B58F7784BD4BCFBC
:1013E00084B58F7DFBCF8091B0008F778093B00064
:1013F00042CF8091B0008F7DF9CF89E091E0CF910D
:101400000C9405068FEF8C0F8E3FB8F7C093080140
:1014100063E082E20E94A50761E081E20E94A507E5
:101420000E94D2076C2F90E080E00E945019C0CF3C
:101430000F931F93CF93DF93EC018B0160E00115B5
:10144000110539F0F80101900020E9F731976E2F6E
:10145000601BCE010E94A9058C818F718C83CE0107
:101460000E94DE05482F50E0B801CE0107960E9489
:10147000BF1ACE010E94DE058C0F9D2F911DFC012D
:101480001782CE01DF91CF911F910F910895809126
:1014900001028F3F69F423E043E050E06FEF80E00A
:1014A0000E94410361E871E00E94180A0C946508EB
:1014B0000895E6EEF1E08081897F81608083E1E03C
:1014C000F2E08FEF8283818327E043E050E06FEF0B
:1014D0000E94410361E871E00E94180A0C946508BB
:1014E000FC012481229526952770213011F48781F3
:1014F0000895211104C007960E94A215089580E066
:101500000895FC012681263409F041C025812F323F
:1015100009F03DC00E94700A8093B901811108C092
:101520006EE970E084EF92E00E9439070E94A908FA
:101530008091B901813041F467E970E084EF92E075
:101540000E9439070E94A9088091B901833041F4B3
:1015500065E870E084EF92E00E9439070E94A908D4
:101560008091B901893099F46CE770E084EF92E0E2
:101570000E9439070E94A90888E198E00FB6F89404
:10158000A895809360000FBE90936000FFCF0895F0
:101590002F923F924F925F926F927F928F929F9283
:1015A000AF92BF92CF92DF92EF92FF920F931F9371
:1015B000CF93DF93CDB7DEB7A1970FB6F894DEBF18
:1015C0000FBECDBF36E0D32E9E012F5F3F4F1901D6
:1015D0004EE4C42E54EB452E5BE2552E51E1652EB0
:1015E000712C88248A9462E0962E63E0A62EB92C92
:1015F00087E10E94DF0780FD60C2DA94DD2009F4F4
:101600005CC221E041E070E060E080E60E94650796
:10161000182F813220F082EE0E94E50710E021E0D1
:10162000412F63EE74E081E60E94650760E487E283
:101630000E94A50781E2E3EEF4E0D10101900D9252
:101640008A95E1F70C81802F8370823089F6C10181
:101650000E94DE0502FD89E1895F1813C9CF83EE80
:1016600094E00E94DE059091E704392F3770F32E45
:101670001091E8040091E4043091E3042091E50422
:101680004091E70140684093E70140910102241333
:10169000EAC1E82FF0E0ED51FB4F178293FF15C030
:1016A00081E2E3EEF4E0A2ECB4E001900D928A95C1
:1016B000E1F7977E90619093C6042093C304009352
:1016C000C40482EC94E00E94A2089091E70494FD87
:1016D000C5C153E0F512C2C18091E80421EF280F83
:1016E000233008F485CF143009F482CF1830D9F4B0
:1016F0001091E60110FF7CCF83EE94E00E94700A07
:101700008F3F09F475CF8F5F8F3F09F471CF9091B0
:101710000302891708F06CCF11FD6ACF8093030292
:101720000093020265CF183159F429E143E050E0FB
:101730006FEF802F0E94410361E00E94CC0520C022
:10174000193171F48091E60183FF52CF877F809336
:10175000E60183EE94E00E94700A8093E80148CF8E
:101760001E3109F445CF1D3171F42FE143E050E003
:101770006FEF80E00E94410360E07FEF0E94B705B9
:101780000E94650835CF2091E404211164C18D3099
:1017900059F488E198E00FB6F894A895809360001A
:1017A0000FBE90936000FFCF8B3179F483EE94E00D
:1017B0000E94700A91E0811101C090E080910002C6
:1017C00090FB80F98093000213CF863099F49091BA
:1017D000EA0481E0992319F09D3409F080E08093B8
:1017E000FF0141E050E063E071E08FEF91E00E9483
:1017F0004019FECE833119F40E94D512F9CE823100
:1018000019F40E94BA08F4CE8230C1F422E043E019
:1018100050E06FEF80E00E9441038C0164E00E9481
:10182000A905F80184818F71806A848387829086FC
:10183000A186B286C8010E94F108DACE813001F596
:1018400020E030E0232B09F4D3CE92959695977043
:10185000953059F46091EA047091EB048091EC04A6
:101860009091ED040E940000C3CE911105C08AEE54
:1018700094E00E94C015F6CF60E070E0CB01F2CF9B
:101880008A3009F4B5CE8C3109F0E8C08091EA04C1
:10189000823509F4ADCE863589F52CE143E050E080
:1018A0006FEF80E00E9441038C01C0927C0066E4EF
:1018B00070E080E090E00E94A70480917A0080644C
:1018C00080937A0080917A0086FDFCCFE0907800CA
:1018D000F090790062E0C8010E94A905F8018481B6
:1018E0008F7180668483970150E040E0C301B201AC
:1018F0000E94251AF801308727839CCF863409F08F
:101900005FC02CE143E050E06FEF80E00E944103B4
:101910008C01F8944091600030918000209181000A
:10192000909182008FEF86BB109285001092840008
:101930001092800010928200F8E15DE00FB6F894FA
:10194000A895F09360000FBE5093600080916000F6
:10195000806480936000A89585E0809381008091E9
:10196000600087FFFCCF10928100A89580916000F5
:10197000886180936000409360007894E0908400D8
:10198000F090850030938000209381009093820036
:1019900062E0C8010E94A905F80184818F71806608
:1019A0008483B70190E080E02BE0660F771F881FEB
:1019B000991F2A95D1F720EA36E841E050E098CF08
:1019C0008D3411F52CE143E050E06FEF80E00E9490
:1019D00041038C01E0900405F0900505E114F10449
:1019E00021F488E0E82E85E0F82E62E0C8010E942C
:1019F000A905F80184818F7180668483C1018E19E5
:101A00009F099087878316CF853409F0F1CD2CE1AB
:101A100043E050E06FEF80E00E94410362E871E034
:101A20000E94180A0E94F10810E000E06FEFC80160
:101A30000E9450190F5F1F4F0D39F1E01F07B1F7DA
:101A400088E198E00FB6F894A895809360000FBEE7
:101A500090936000FFCF8A3109F4CACD83EE94E001
:101A60000E94810AC5CD2F3F09F0C2CD23E0F212BA
:101A70001FC08091E60182FF03C0173009F4B8CD82
:101A8000143109F0B5CD809102023813B1CD0E9416
:101A9000DA047370882799270E94A70425E143E0A0
:101AA00050E06FEF802F0E9441036091020245CE0B
:101AB0008091020238139CCDD1CFA1960FB6F89435
:101AC000DEBF0FBECDBFDF91CF911F910F91FF9071
:101AD000EF90DF90CF90BF90AF909F908F907F90CE
:101AE0006F905F904F903F902F9008958091E60106
:101AF00084FD0C94C80A0895CF92DF92EF92FF9272
:101B0000CF93DF93D82F0E94DA046B017C01809180
:101B1000E70487608093E704C0E00E94DA046C1950
:101B20007D098E099F09603D77408105910590F4FC
:101B3000C11110C0A8950E94E7050E94760D809102
:101B4000E7048770833049F7C1E08091E8048D1382
:101B5000E3CFE3CF8C2FDF91CF91FF90EF90DF9019
:101B6000CF900895CF92DF92EF92FF920E94DA0415
:101B70006B017C010E94DA046C197D098E099F09B2
:101B8000643671058105910530F4A8950E94E7053A
:101B90000E94760DEFCFFF90EF90DF90CF900895E9
:101BA0008F929F92AF92BF92CF92DF92EF92FF926D
:101BB0000F931F93CF93DF93CDB7DEB760970FB628
:101BC000F894DEBF0FBECDBF0E94BA080E94DA04AF
:101BD0006B017C0128EE33E040E050E00E94251AC2
:101BE000CA01B9012CE330E040E050E00E94251A20
:101BF0007F936F93C701B60120E63AEE40E050E0D4
:101C00000E94251A98E1892E912CA12CB12CCA0191
:101C1000B901A50194010E94251A7F936F93C70112
:101C2000B60120E83EEE46E350E00E94251ACA01C4
:101C3000B901A50194010E94251A7F936F93C701F2
:101C4000B60120E03CE546E255E00E94251A3F93AC
:101C50002F9385E891E09F938F938E010F5F1F4F25
:101C60001F930F930E94CE1AB80188E793E00E9459
:101C7000180A0E94A9080E94B20D88E00E94DF079E
:101C80008F7063EE7FEF98E0899F601971091124CE
:101C900020915C0130915D0147E0429FC001439F6C
:101CA000900D1124680F791F0FB6F894DEBF0FBE98
:101CB000CDBF77FF02C0695F7F4F83E07595679561
:101CC0008A95E1F770935D0160935C0187E593E08D
:101CD0000E94B7050E94A9080E94B20D6FE771E04B
:101CE00086E393E00E9439070E94A9080E94B20D82
:101CF00060E670E085E193E00E94B7050E94A908C4
:101D00000E94B20D70E060E08DE194E00E94B705A2
:101D10000E94A90867E971E08CEF93E00E94180A1D
:101D20000E94A9080E94B20D6AE671E089E993E079
:101D30000E9439070E94A9086091CA018BED93E0C7
:101D40000E94CC050E94A9080E94B20D6091DB019F
:101D50008AEB93E00E94CC050E94A9080E94B20D74
:101D60001092CA011092DB0160960FB6F894DEBFA4
:101D70000FBECDBFDF91CF911F910F91FF90EF90DC
:101D8000DF90CF90BF90AF909F908F9008958F92EB
:101D90009F92AF92BF92CF92DF92EF92FF920F93FA
:101DA0001F93CF93DF931F92CDB7DEB70E94DA0463
:101DB0006B017C018091C4019091C501A091C60185
:101DC000B091C701A7019601281B390B4A0B5B0B89
:101DD000DA01C90181339547A105B10508F06CC14D
:101DE0008091C2019091C3010F9709F019C180E65B
:101DF00091E00E94340481E18093A6048090CB019D
:101E00009090CC01A090CD01B090CE0164E081EA29
:101E100094E00E94A9058091A5048F718068809349
:101E2000A5048092A8049092A904A092AA04B0925A
:101E3000AB0481EA94E00E94A9080E94B20D86E3F7
:101E40008093A60480905E0190905F01A090600155
:101E5000B090610164E081EA94E00E94A90580915C
:101E6000A5048F7180688093A5048092A804909245
:101E7000A904A092AA04B092AB0481EA94E00E9463
:101E8000A9080E94B20D18E11093A6048090620187
:101E900090906301A0906401B090650164E081EAD4
:101EA00094E00E94A9058091A5048F7180688093B9
:101EB000A5048092A8049092A904A092AA04B092CA
:101EC000AB0481EA94E00E94A9080E94B20D10932D
:101ED00085048090CF019090D001A090D101B09066
:101EE000D20164E080E894E00E94A9058091840416
:101EF0008F71806880938404809287049092880414
:101F0000A0928904B0928A0480E894E00E94A90813
:101F10000E94B20D89E1809385048090D301909056
:101F2000D401A090D501B090D60164E080E894E09F
:101F30000E94A905809184048F7180688093840435
:101F40008092870490928804A0928904B0928A04B7
:101F500080E894E00E94A9080E94B20D8AE1809373
:101F600085048090D7019090D801A090D901B090BD
:101F7000DA0164E080E894E00E94A905809184047D
:101F80008F71806880938404809287049092880483
:101F9000A0928904B0928A0480E894E00E94A90883
:101FA0000E94B20D60915E0170915F0180916001AD
:101FB000909161010E949C1820E030E04AE754E4CF
:101FC0000E94B3194B015C0182E18093A60465E095
:101FD00081EA94E00E94A9058091A504806E809317
:101FE000A5048092A8049092A904A092AA04B09299
:101FF000AB0483E08093AC0481EA94E00E94A908DA
:102000000E94B20DC092C401D092C501E092C601F7
:10201000F092C7018EE090E09093C3018093C201DB
:102020008091BE019091BF01A091C001B091C1010A
:10203000A7019601281B390B4A0B5B0BDA01C9017A
:10204000813E9349A440B10550F0C092BE01D092A8
:10205000BF01E092C001F092C1010E94D00D8091B9
:10206000BA019091BB01A091BC01B091BD01A70143
:102070009601281B390B4A0B5B0BDA01C901813829
:102080009E4EA643B10528F480915701882309F498
:10209000F8C010925701C092BA01D092BB01E092F1
:1020A000BC01F092BD016091B9018FE594E00E94FE
:1020B000CC050E94A908E5C087E592E00E94AF0325
:1020C000181619060CF08CCE87E592E00E948D035D
:1020D000898380916801882319F081508093680179
:1020E000CE0101960E945305B090E901EB2DF091CD
:1020F000EA01E331F10508F09EC0EF57FF4E0C9462
:10210000661AAC10FA10E210941094109410971103
:102110009C1184119410941094100D11AC10AC10FB
:10212000AC109C119C119C11A090F501EA2DF0E0DF
:10213000E451FE4FAA2009F41CC18291882309F4BE
:1021400016C1A092F50109818FE8800F8E3008F04A
:1021500013C1802F8F70EDC01092EA011092E90137
:102160001092F50189818B3149F08EE090E09093D7
:10217000EA018093E90184E080936801809168011D
:10218000811159C08FEF9FEF909367018093660193
:102190008BE18983CE0101960E945305CE01019601
:1021A0000E945305CE0101960E945305CE0101966F
:1021B0000E94530582E090E09093EA018093E90148
:1021C00084E050C18981813049F08EE090E09093A5
:1021D000EA018093E90184E08093680180916801BD
:1021E000811129C08AE090E09093EA018093E9018F
:1021F00081E038C189818B3149F08EE090E0909385
:10220000EA018093E90184E080936801809168018C
:10221000811111C08CE090E0CFCF809168018230B5
:10222000F1F580916601909167018095909590936A
:102230001E0180931D018091E9019091EA01909324
:10224000C3018093C2010597A9F40FE111E0F801E1
:10225000A680B780A114B10469F046E050E067E0C1
:1022600072E0C8010E94B21A085F1F4F892B79F7EC
:10227000F50109958091C2019091C3010F9709F46E
:10228000AFCD0F90DF91CF911F910F91FF90EF9005
:10229000DF90CF90BF90AF909F908F900895813046
:1022A00069F489812091B7013091B801820F932F91
:1022B000911D9093B8018093B701BDCF8111DDC00E
:1022C00029818091B7019091B801922B20911D0135
:1022D00030911E0182179307A1F48FE090E0909354
:1022E000EA018093E90184E0809368018FEF9FEF1A
:1022F00090936701809366011092B8011092B70124
:102300009ACF8DE090E0EBCF898190916801890FA1
:10231000815027E030E03093EA012093E901809377
:1023200068010E94460587E00E94460584CF8981A6
:10233000805F0E9474067FCF89810E94460580914C
:102340006801E091F501F0E0E551FE4F90819111B7
:1023500009C0811170CF85E090E09093EA018093ED
:10236000E90169CF811167CF89E090E0F6CFAA94A7
:10237000E1CE1092F501E7CE8FEF800F8F3608F097
:1023800049C0EA2DF0E0E551FE4F108111160CF026
:102390004DC00130E1F480E00E9446058B2D0E9483
:1023A0004605113059F485E090E09093EA0180935E
:1023B000E901109368010E943B053DCF83E090E066
:1023C0009093EA018093E90100936801F4CF87E0DC
:1023D00090E09093EA018093E901802F8F70815003
:1023E00080936801007F20E130E0003541F021E179
:1023F00030E0003621F0011106C022E130E03093D8
:10240000EA012093E9010E9446058091E9010E94BA
:102410004605D1CF01110AC00E943B0583E090E040
:10242000AA2009F4E1CE8BE090E0DECE80E8800FB8
:10243000803168F488E090E09093EA018093E901AC
:1024400040E1049F8001112400936801F4CE0B3118
:1024500061F4A1100FC081E090E09093EA018093B5
:10246000E90183E080936801E6CE013F19F486E03C
:1024700090E0BACE8EE090E09FCE8091E9019091FD
:10248000EA019093C3018093C201F4CE2BE043E0B4
:1024900050E06FEF80E00E9441036CE971E00E9420
:1024A000180A0E94A2082CE043E050E06FEF80E0A1
:1024B0000E94410368EA71E00E94180A0E94A20883
:1024C0004EE351E064E270E089E50E94E0080E947A
:1024D000B20D42E351E064E270E080E50E94E00862
:1024E00047E251E064E270E081E50E94E0084FE1DC
:1024F00051E064E270E08BE50E94E0080E94B20DBA
:1025000046E151E064E270E08CE50E94E0080E9440
:10251000B20D4BE051E064E270E08DE50E94E0080E
:1025200041E051E064E270E086E40E94E0080E942D
:10253000B20D46EF50E064E270E080E60E94E008F1
:102540004FEE50E064E270E08AE50E94E0080E94ED
:10255000B20D4EED50E064E270E087E40E94E008C6
:1025600048ED50E064E270E082E50E94E0080E94DD
:10257000B20D41ED50E064E270E083E50E94E008B6
:1025800045E551E06DE070E083E20E94E0084AE436
:1025900051E067E170E084E20E94E0088091570119
:1025A000811102C00C94D00D08952FE043E050E05B
:1025B0006FEF80E00E94410361E871E00E94180A19
:1025C00062E082EC94E00E94A905E2ECF4E08481F0
:1025D0008F71806C848381E087831086CF010E9495
:1025E000A2088FE00E947C0D21E150E040E06FEFF7
:1025F00080E00E94410360EB71E00E94180A0E9493
:10260000A20826E043E050E06FEF80E00E94410323
:10261000609102020E94CC050E94F10886E00E94AF
:102620007C0D0C944612CF938091000281FD20C056
:102630000E94D51280910002816080930002C4E064
:102640002AE143E050E06FEF80E00E94410362E046
:102650000E94CC050E94F1088BE10E947C0D811143
:1026600002C0C15069F7809100028260809300022D
:10267000CF9108951F920F920FB60F9211242F93AE
:102680003F934F935F936F937F938F939F93AF93FA
:10269000BF93EF93FF9387E592E00E94C503FF91FC
:1026A000EF91BF91AF919F918F917F916F915F91CA
:1026B0004F913F912F910F900FBE0F901F90189543
:1026C0001F920F920FB60F9211242F938F939F9307
:1026D000EF93FF93E0916702F09168028081E091AF
:1026E0006D02F0916E0282FD1BC09081809170029C
:1026F0008F5F8F7320917102821741F0E091700219
:10270000F0E0E95AFD4F958F80937002FF91EF91B1
:102710009F918F912F910F900FBE0F901F90189542
:102720008081F4CF1F920F920FB60F9211242F9336
:102730003F938F939F93AF93BF938091F7019091B5
:10274000F801A091F901B091FA013091F60123E06E
:10275000230F2D3758F50196A11DB11D2093F601C9
:102760008093F7019093F801A093F901B093FA01D7
:102770008091FB019091FC01A091FD01B091FE01BF
:102780000196A11DB11D8093FB019093FC01A093C4
:10279000FD01B093FE01BF91AF919F918F913F9149
:1027A0002F910F900FBE0F901F90189526E8230FC2
:1027B0000296A11DB11DD2CF1F920F920FB60F929C
:1027C00011242F933F934F935F936F937F938F9336
:1027D0009F93AF93BF93EF93FF93E0916B01F091C1
:1027E0006C010995FF91EF91BF91AF919F918F91EE
:1027F0007F916F915F914F913F912F910F900FBEFD
:102800000F901F9018951F920F920FB60F921124E0
:102810002F933F934F935F936F937F938F939F93E8
:10282000AF93BF93EF93FF93E0916901F0916A0139
:102830000995FF91EF91BF91AF919F918F917F91FA
:102840006F915F914F913F912F910F900FBE0F901D
:102850001F9018951F920F920FB60F9211240F9090
:102860000FBE0F901F901895CF93DF93FC0110823D
:1028700011821282148215821682DC0117968AE177
:10288000ED0119928A95E9F782E08383DF91CF9178
:102890000895CF93E7E5F2E01382128288EE93E089
:1028A000A0E0B0E084839583A683B78381E791E0BD
:1028B0009183808385EC90E09587848784EC90E019
:1028C0009787868780EC90E0918B808B81EC90E0FD
:1028D000938B828B82EC90E0958B848B86EC90E0DE
:1028E000978B868B118E128E138E148E83EE94E04E
:1028F0000E94341482EC94E00E94341481EA94E043
:102900000E943414E1EAF4E083E2868381E1858366
:1029100080E894E00E943414E0E8F4E084E28683E6
:1029200088E185838FE594E00E943414EFE5F4E0BC
:1029300086E48683CFE2C5838EE394E00E9434145C
:10294000EEE3F4E087E48683C5838DE194E00E94A2
:102950003414EDE1F4E080E58683C5838CEF93E0E9
:102960000E943414ECEFF3E081E58683C5838BEDA0
:1029700093E00E943414EBEDF3E082E58683C58397
:102980008AEB93E00E943414EAEBF3E083E586835C
:10299000C58389E993E00E943414E9E9F3E089E50D
:1029A0008683C58388E793E00E943414E8E7F3E068
:1029B0008AE58683C58387E593E00E943414E7E5C2
:1029C000F3E08BE58683C58386E393E00E943414AD
:1029D000E6E3F3E08CE58683C58385E193E00E941E
:1029E0003414E5E1F3E08DE58683C58384EF92E05E
:1029F0000E943414E4EFF2E080E68683C583CF9131
:102A00000895789484B5826084BD84B5816084BD66
:102A100085B5826085BD85B5816085BD80916E007C
:102A2000816080936E0010928100809181008260AD
:102A300080938100809181008160809381008091EA
:102A400080008160809380008091B10084608093D9
:102A5000B1008091B00081608093B00080917A00D5
:102A6000846080937A0080917A00826080937A00FB
:102A700080917A00816080937A0080917A008068EA
:102A800080937A001092C100A8950E94FA0280916A
:102A900000028D7F809300020E94230741E050E0F6
:102AA00063E071E08FEF91E00E9428196FEF81E001
:102AB00090E00E9450198091E7018F788093E701A0
:102AC0001092DD011092DC0188E591E00E9405067C
:102AD00083E193E19093C9018093C8010E94DA04D5
:102AE0006B017C010E94DA046C197D098E099F0933
:102AF0006838734181059105C0F00E948405A8954E
:102B0000C0E0D0E0A8950E94E7058091E60184FD31
:102B10000E94C80A0E94C70E2097A1F30E94BB031F
:102B2000882381F30E940000EDCF0E94E7050E94F8
:102B3000760D8091E60182FB882780F9A8958111A6
:102B4000DCCFD0CFFC0188279927E894219120324F
:102B5000E9F3293010F02E30C8F32B3241F02D323A
:102B600039F4689404C00E941416820F911D2191BB
:102B700020532A30C0F31EF4909581959F4F0895FD
:102B80001F93FC0199278827BC01E894119110320A
:102B9000E9F3193010F01E30C8F31B3251F01D322A
:102BA00049F4689406C00E94FF15610F711D811DD4
:102BB000911D119110531A30B0F33EF49095809509
:102BC000709561957F4F8F4F9F4F1F910895FC0126
:102BD00005900020E9F7809590958E0F9F1F08952E
:102BE000FB01DC014150504048F005900D9200205F
:102BF000C9F701C01D9241505040E0F70895592F88
:102C0000482F372F262F660F771F881F991F660FB3
:102C1000771F881F991F620F731F841F951F660FF0
:102C2000771F881F991F08957AE0979F902D879F9F
:102C3000802D910D11240895ABE0B0E0E2E2F6E1C1
:102C40000C946D197C013B018A01FC0117821682EC
:102C5000838181FFC8C1CE0101965C01F701938198
:102C6000F30193FD859193FF81913F01882309F43E
:102C700053C1853239F493FD859193FF81913F01D2
:102C8000853229F4B70190E00E940C18E7CF912C0F
:102C9000212C312CFFE1F31538F08B3211F190F437
:102CA000803209F1833229F137FC3CC020ED280F36
:102CB0002A3050F536FE20C08AE0989E200D11245F
:102CC000922E06C08D3291F0803371F7689430F8FF
:102CD000F30193FD859193FF81913F018111DACF3B
:102CE00021C0689431F8689432F8F2CF689433F8D0
:102CF000EFCF689434F8ECCFEAE02E9E200D11243B
:102D0000222E689435F8E4CF8E3229F436FC04C1C3
:102D1000689436F8DDCF8C3619F4689437F8D8CF3C
:102D20008836B1F2982F9F7D95549330E0F083362A
:102D3000A1F18337C1F1833509F063C02801F2E0C6
:102D40004F0E511CF801C080D180692D70E036FC17
:102D500002C06FEF7FEFC6010E94F6174C01689426
:102D600037F882010AC00C5F1F4FFFE3F983882404
:102D70008394912C6501E89437F833FE2DC0522CD2
:102D80008114910471F5552009F468CFB70180E2F0
:102D900090E00E940C185A94F6CFF8018081898344
:102DA0000E5F1F4FE4CF2801F2E04F0E511CF801D7
:102DB000C080D180692D70E036FC02C06FEF7FEFDC
:102DC000C6010E9401184C018201D5CFB70180E2F3
:102DD00090E00E940C182A942814190409F0B0F706
:102DE000CECFF60137FC859137FE81916F01B70197
:102DF00090E00E940C1851105A94F1E08F1A91083B
:102E0000BFCF843619F0893609F077C0F80137FE54
:102E10006BC060817181828193810C5F1F4FF32DA4
:102E2000FF763F2E97FF09C090958095709561952C
:102E30007F4F8F4F9F4F689437F82AE030E0A5010D
:102E40000E943C18C82ECA188C2C432C36FE0CC08D
:102E5000E89440F8C91440F434FE05C032FC03C0C5
:102E6000F32DFE7E4F2E892C44FE95C0FE01EC0D05
:102E7000F11D8081803309F087C0242D297E422EE8
:102E8000842D8870582E43FC95C040FE8FC09C2C2A
:102E9000821418F42C0C922C981844FE91C0B7019F
:102EA00080E390E00E940C1842FE09C088E790E0A1
:102EB00041FE02C088E590E0B7010E940C18C914D9
:102EC00008F48AC0CA94D12C9FEFC91AD90ACA0C37
:102ED000DB1CF60182916F01B70190E00E940C1893
:102EE000AC14BD04B1F74FCF60817181072E000C87
:102EF000880B990B0E5F1F4F92CFD32CE894D4F818
:102F00002AE030E0853739F1232D297FD22E8F3604
:102F100001F148F48835A9F0F701868197812B9655
:102F2000E2E10C948919803749F08837A9F7D4FE7B
:102F300002C06894D2F820E130E00DC06894D4F863
:102F4000F6CF34FE03C0822F8660D82E20E132E017
:102F500002C028E030E0F801D7FE0FC06081718127
:102F6000828193810C5F1F4FA5010E943C18C82EDF
:102F7000CA183D2CE89437F867CF6081718190E0E2
:102F800080E00E5F1F4FF0CF42FC02C0839478CFE9
:102F90008394839475CF842D867809F471CFF6CF0E
:102FA000B70180E290E00E940C1883948214C0F371
:102FB000512C73CF522C5818821408F46ECFF8CFCE
:102FC000842D867809F47BCF8BE241FE80E247FCBA
:102FD0008DE2B70190E071CFB70180E390E00E94ED
:102FE0000C189A946CCF8FEF9FEF99CFFC0105904E
:102FF000615070400110D8F7809590958E0F9F1FFB
:103000000895FC016150704001900110D8F780953F
:1030100090958E0F9F1F08950F931F93CF93DF936B
:10302000182F092FEB018B8181FD09C01FEF0FEFD6
:10303000812F902FDF91CF911F910F91089582FFE3
:1030400014C02E813F818C819D81281739073CF463
:10305000E881F981CF0101969983888310838E815D
:103060009F8101969F838E83E3CFE885F985812F29
:103070000995892BA1F3DACFFA01AA27283051F15B
:10308000203181F1E8946F936E7F6E5F7F4F8F4F99
:103090009F4FAF4FB1E03ED0B4E03CD0670F781FF8
:1030A000891F9A1FA11D680F791F8A1F911DA11DDD
:1030B0006A0F711D811D911DA11D20D009F4689416
:1030C0003F912AE0269F11243019305D3193DEF6BE
:1030D000CF010895462F4770405D4193B3E00FD074
:1030E000C9F7F6CF462F4F70405D4A3318F0495D5F
:1030F00031FD4052419302D0A9F7EACFB4E0A69542
:103100009795879577956795BA95C9F70097610563
:10311000710508959B01AC010A2E069457954795B9
:1031200037952795BA95C9F7620F731F841F951FAE
:10313000A01D0895E89409C097FB3EF490958095F2
:10314000709561957F4F8F4F9F4F9923A9F0F92F6D
:1031500096E9BB279395F695879577956795B795EB
:10316000F111F8CFFAF4BB0F11F460FF1BC06F5FD1
:103170007F4F8F4F9F4F16C0882311F096E911C0E3
:10318000772321F09EE8872F762F05C0662371F004
:1031900096E8862F70E060E02AF09A95660F771F18
:1031A000881FDAF7880F9695879597F9089597F90C
:1031B0009F6780E870E060E008959FEF80EC0895DD
:1031C00000240A9416161706180609060895002406
:1031D0000A9412161306140605060895092E039480
:1031E000000C11F4882352F0BB0F40F4BF2B11F4F4
:1031F00060FF04C06F5F7F4F8F4F9F4F089557FD53
:103200009058440F551F59F05F3F71F04795880F54
:1032100097FB991F61F09F3F79F0879508951216EB
:1032200013061406551FF2CF4695F1DF08C0161697
:1032300017061806991FF1CF869571056105089448
:103240000895E894BB2766277727CB0197F908955F
:10325000DC01CB01FC01F999FECF06C0F2BDE1BD56
:10326000F89A319600B40D9241505040B8F7089545
:10327000F999FECF92BD81BDF89A992780B508953E
:10328000DC01A40FB51F4150504048F0CB01840F22
:10329000951F2E910E94511941505040D0F708952A
:1032A000262FF999FECF92BD81BDF89A019700B4FF
:1032B000021639F01FBA20BD0FB6F894FA9AF99A9F
:1032C0000FBE08950E94A419A59F900DB49F900D64
:1032D000A49F800D911D112408952F923F924F922B
:1032E0005F926F927F928F929F92AF92BF92CF9296
:1032F000DF92EF92FF920F931F93CF93DF93CDB79F
:10330000DEB7CA1BDB0B0FB6F894DEBF0FBECDBF16
:1033100009942A88398848885F846E847D848C84E7
:103320009B84AA84B984C884DF80EE80FD800C81F0
:103330001B81AA81B981CE0FD11D0FB6F894DEBFD3
:103340000FBECDBFED010895A29FB001B39FC00194
:10335000A39F700D811D1124911DB29F700D811DC1
:103360001124911D08950E94C7190C94EE180E9413
:10337000E71858F00E94E01840F029F45F3F29F068
:103380000C94D71851110C9422190C94DD180E943A
:10339000FF1868F39923B1F3552391F3951B550B4F
:1033A000BB27AA2762177307840738F09F5F5F4F18
:1033B000220F331F441FAA1FA9F335D00E2E3AF057
:1033C000E0E832D091505040E695001CCAF72BD06F
:1033D000FE2F29D0660F771F881FBB1F26173707C0
:1033E0004807AB07B0E809F0BB0B802DBF01FF27F2
:1033F00093585F4F3AF09E3F510578F00C94D718E0
:103400000C9422195F3FE4F3983ED4F386957795A8
:103410006795B795F7959F5FC9F7880F911D9695AA
:10342000879597F90895E1E0660F771F881FBB1F06
:10343000621773078407BA0720F0621B730B840BB3
:10344000BA0BEE1F88F7E0950895A1E21A2EAA1B89
:10345000BB1BFD010DC0AA1FBB1FEE1FFF1FA21744
:10346000B307E407F50720F0A21BB30BE40BF50B41
:10347000661F771F881F991F1A9469F760957095CA
:10348000809590959B01AC01BD01CF010895052E5B
:1034900097FB1EF400940E945E1A57FD07D00E940D
:1034A000251A07FC03D04EF40C945E1A50954095F3
:1034B000309521953F4F4F4F5F4F089590958095E0
:1034C000709561957F4F8F4F9F4F0895EE0FFF1FAF
:1034D0000590F491E02D09946095709580959095F4
:1034E00030954095509521953F4F4F4F5F4F6F4F0F
:1034F0007F4F8F4F9F4F0895002E083090F0982FE8
:10350000872F762F652F542F432F322F22270850D5
:10351000F4CF220F331F441F551F661F771F881FCC
:10352000991F0A95B2F7002D089597FD1094002E6B
:10353000083098F00850232F342F452F562F672F2F
:10354000782F892F912DF4CF15949795879577959E
:10355000679557954795379527950A95AAF71124AA
:10356000002D0895FB01DC0104C08D9101908019AC
:1035700021F441505040C8F7881B990B0895FB0176
:10358000DC014150504048F001900D920020C9F7F5
:1035900001C01D9241505040E0F70895AEE0B0E008
:1035A000E4EDFAE10C947B190D891E8986E08C8389
:1035B0001A8309838FEF9FE79E838D83AE01475E59
:1035C0005F4F6F89788DCE0101960E941C162F8166
:1035D0003885020F131FF80110822E96E4E00C9438
:0635E0009719F894FFCFDB
:1035E600FFFFFF00FCE1A8A8FFB6073106470AD097
:1035F60006F308A1065B065106590AEA06FFFF0113
:1036060000100700FF7F050100240700FF7B05016E
:1036160000380700FF770501004C0700FF7305011E
:1036260000010800FF6F050100020800FF6B05009E
:1036360000000000000000010D070709E3FFFEFF80
:10364600FFFFFEFFFFFFFFFF04E604E604000000A5
:1036560000E70351037E035804AF038D03A1030D56
:103666000A004F4B00256420253032643A2530325B
:10367600643A25303264004155544F00456E6572F8
:1036860067794D6574657200322E302D3030320008
:06369600322E332E32003B
:00000001FF
