:100000000C9406010C94ED0F0C94C60F0C942E0169
:100010000C942E010C942E010C9414100C942E01AF
:100020000C942E010C942E010C942E010C942E0194
:100030000C942E010C942E010C942E010C942E0184
:100040000C947C0F0C942E010C944A0F0C94240FEA
:100050000C942E010C942E010C942E010C942E0164
:100060000C942E010C942E014D7953656E736F72B2
:100070007320616C72656164792061637469766173
:100080007465642053657269616C20496E74657291
:10009000666163650054585F4552520054585F4F83
:1000A0004B00487754696D65004462675F52657420
:1000B00075726E004462675F4C6576656C005246EF
:1000C0005F4368616E6E656C0050415F4C6576659C
:1000D0006C0054585F525353490043707554656D1A
:1000E0007000506172656E744E6F6465005061738C
:1000F000736976654E6F646500436F6D70696C65FA
:10010000446174650053776974636800322E332E3E
:10011000320A00207C5F5C2F602C0A07022002203C
:10012000B2871003400120002402221002220202A2
:100130002002220022200202202227101341010166
:1001400001032220304020305203402214020310C9
:1001500052240221710100101012101222101002FC
:100160002401010322030020010100322037121074
:10017000012132260128403222121012122243227B
:1001800024121001222470C122240F0F4F63742007
:10019000313920323032332030393A31333A343247
:1001A000004175746F5265626F6F7400524632344D
:1001B0005F50415F484947480000000008000201C5
:1001C0000000030407000000000000000000000021
:1001D00000250028002B0000000000240027002A32
:1001E00000040404040404040402020202020203E0
:1001F00003030303030102040810204080010204EA
:1002000008102001020408102000331011241FBE22
:10021000CFEFD8E0DEBFCDBF11E0A0E0B1E0EAEA69
:10022000FEE202C005900D92A237B107D9F724E093
:10023000A2E7B1E001C01D92AA34B207E1F711E0D4
:10024000C6E0D1E004C02197FE010E941B17C53013
:10025000D107C9F70E94EB100C9453170C940000BF
:1002600090E0FC01EB50FE4F24918F519E4FFC011A
:100270008491882399F090E0880F991FFC01E9523E
:10028000FE4FA591B491FC01E353FE4F85919491EB
:100290008FB7F894EC91E22BEC938FBF0895942FD5
:1002A000E4E0F4E030919501318382836683258315
:1002B0004481487F492B477E4483CF010895AF9204
:1002C000BF92CF92DF92EF92FF920F931F93CF9343
:1002D000DF936C017B018B01040F151FEB015E01A5
:1002E000AE18BF08C017D10759F06991D601ED913A
:1002F000FC910190F081E02DC6010995892B79F7D9
:10030000C501DF91CF911F910F91FF90EF90DF908A
:10031000CF90BF90AF900895FC01538D448D252F51
:1003200030E0842F90E0821B930B541710F0CF968F
:10033000089501970895FC01918D828D981761F0C1
:10034000A28DAE0FBF2FB11D5D968C91928D9F5FD8
:100350009F73928F90E008958FEF9FEF0895FC01B7
:10036000918D828D981731F0828DE80FF11D858D6A
:1003700090E008958FEF9FEF0895FC01918D228DFD
:10038000892F90E0805C9F4F821B91098F73992782
:10039000089589E991E00E94BD0121E0892B09F4CB
:1003A00020E0822F0895FC01A48DA80FB92FB11D64
:1003B000A35ABF4F2C91848D90E001968F7399279B
:1003C000848FA689B7892C93A089B1898C91837079
:1003D00080648C93938D848D981306C00288F38972
:1003E000E02D80818F7D80830895EF92FF920F939F
:1003F0001F93CF93DF93EC0181E0888F9B8D8C8DD1
:1004000098131AC0E889F989808185FF15C09FB7C4
:10041000F894EE89FF896083E889F9898081837087
:10042000806480839FBF81E090E0DF91CF911F9136
:100430000F91FF90EF900895F62E0B8D10E00F5F57
:100440001F4F0F731127E02E8C8D8E110CC00FB62D
:1004500007FCFACFE889F989808185FFF5CFCE01C5
:100460000E94D301F1CFEB8DEC0FFD2FF11DE35A6C
:10047000FF4FF0829FB7F8940B8FEA89FB89808148
:100480008062CFCF0F931F93CF93DF938C01D0E087
:10049000C0E0F801EC0FFD1F6491662341F089E98B
:1004A00091E00E94F501892B11F02196F2CF42E0F4
:1004B00050E06CE371E089E991E00E945F018C0FEC
:1004C0009D1FDF91CF911F910F910895CF93DF93DF
:1004D000EC01888D8823B9F0AA89BB89E889F9895C
:1004E0008C9185FD03C0808186FD0DC00FB607FC91
:1004F000F7CF8C9185FFF2CF808185FFEDCFCE01C4
:100500000E94D301E9CFDF91CF91089580E090E080
:10051000892B29F00E94C90181110C9400000895D3
:1005200090E0FC01E754FE4F2491FC01EB50FE4F9C
:100530003491FC01EF51FE4FE491EE23C9F02223E8
:1005400039F0233001F1A8F4213019F1223029F1DA
:10055000F0E0EE0FFF1FE353FE4FA591B4918FB76C
:10056000F894EC91611126C030953E233C938FBFE7
:1005700008952730A9F02830C9F0243049F7809138
:1005800080008F7D03C0809180008F7780938000F2
:10059000DFCF84B58F7784BDDBCF84B58F7DFBCF74
:1005A0008091B0008F778093B000D2CF8091B0005F
:1005B0008F7DF9CF3E2BDACF3FB7F89480918F0132
:1005C00090919001A0919101B091920126B5A89BC4
:1005D00005C02F3F19F00196A11DB11D3FBFBA2FD5
:1005E000A92F982F8827BC01CD01620F711D811D95
:1005F000911D43E0660F771F881F991F4A95D1F719
:1006000008958F929F92AF92BF92CF92DF92EF9216
:10061000FF926B017C010E94DC024B015C01C11462
:10062000D104E104F104B9F00E94DC0268197909EF
:100630008A099B09683E73408105910580F321E09A
:10064000C21AD108E108F10888EE880E83E0981EEE
:10065000A11CB11CE4CFFF90EF90DF90CF90BF9032
:10066000AF909F908F9008952FB7F89460918B0171
:1006700070918C0180918D0190918E012FBF089512
:1006800008950895FC01938197706A3108F069E13B
:1006900088E0689FB0011124692B6383CF0108951E
:1006A0000F931F93CF93DF93EC018B0162E00E94C5
:1006B00042038C818F7180648C8318870F83CE01F5
:1006C000DF91CF911F910F9108951F93CF93DF93E7
:1006D000EC01162F61E00E9442038C818F718062D1
:1006E0008C831F83CE01DF91CF911F910895FC0170
:1006F00083818695869586958A3108F089E10895EB
:10070000E0917D01F0917E01309721F00280F3812C
:10071000E02D099408950F931F930E9434030091D4
:100720007F01109180012091810130918201601B35
:10073000710B820B930B1F910F9108959C01809177
:100740007D0190917E0182179307F1F090918701CE
:100750009F719093870130937E0120937D01E091FA
:100760007D01F0917E01309721F00190F081E02D24
:1007700009950E94340360937F01709380018093F8
:10078000810190938201089580918701805E80931A
:100790008701E5CF0F931F930E948B03209188015F
:1007A0002077203779F000E117E220E030E00617EB
:1007B00017072807390758F48FE191E01F910F912F
:1007C0000C949E0300E61AEE20E030E0F0CF1F917B
:1007D0000F91089580918801982F9F70963018F09E
:1007E000807F809388010895809187018460809341
:1007F000870180918801807880938801E091790158
:10080000F0917A01309709F009940895CF93C82F99
:1008100089E991E00E94660280917A008F77809347
:100820007A0020916000CF3F09F439C034E0C39FC3
:10083000C00111248072C770C860C82B88E10FB650
:10084000F894A895809360000FBEC09360008091DB
:10085000600080658093600083B7817F846083BF80
:10086000F89483B7816083BF85B7806685BF8F7D2D
:1008700085BF7894889583B78E7F83BFF894A895B9
:10088000809160008861809360002093600078947C
:1008900080917A00806880937A00CF9108950FB696
:1008A000F894A89580916000886180936000109210
:1008B00060000FBED1CF8EBD00000DB407FEFDCF8E
:1008C0008EB50895CF93C0918901CF3FA1F00E94CA
:1008D0003403609383017093840180938501909326
:1008E000860180919701C813C093970188E191E038
:1008F000CF910C949E030E948B03613D774081054C
:10090000910568F080918701803618F484E191E0C8
:10091000EFCF877F8093870180E191E0E9CFCF918E
:100920000895809195018F3F21F084E191E00C942E
:100930009E030E948B03613D77408105910550F035
:1009400080918701803618F48CE091E0F0CF88E048
:1009500091E0EDCF08958CE091E00C949E03E7E8E0
:10096000F1E08081897F8E7F8083E5E9F1E081E09D
:100970008283118260E081E090E00C949B15E7E8AF
:10098000F1E08081877F8F7E8083109283011092B7
:100990008401109285011092860144E050E070E0DD
:1009A00060E085E991E00C9473150F931F93CF934A
:1009B000DF93EC018B0180E06115710519F0CB012B
:1009C0000E943212682FCE010E9442038C818F71E7
:1009D0008C83CE010E947703482F50E0B801CE01EE
:1009E00007960E943B12CE010E9477038C0F9D2F29
:1009F000911DFC011782CE01DF91CF911F910F91C4
:100A00000895BF92CF92DF92EF92FF920F931F93C0
:100A1000CF93DF937B01042FB22E90E59CBD1DBCCC
:100A20002A98E0E1F0E03197F1F70E945B04182F7B
:100A3000E7010150A8F0BB2051F08FEF0E945B044A
:100A4000182FE114F104A9F388832196F2CF6E01E7
:100A50008FEFC81AD80A88810E945B04E601E9CFAB
:100A60002A9A80E190E00197F1F7812FDF91CF91F1
:100A70001F910F91FF90EF90DF90CF90BF9008955E
:100A8000CF93DF931F92CDB7DEB7698320E041E0BB
:100A9000BE016F5F7F4F0E9401050F90DF91CF91E4
:100AA000089529986EE080E20E94400584E293E276
:100AB0000197F1F7089529986CE080E20C944005C5
:100AC00080918801982F9077903759F0982F9295C0
:100AD0009F709F5F97709295907F8F78892B8093FE
:100AE0008801809187018B7F8F7E809387010C9492
:100AF0005B056FE080E20E944005609107016F3F57
:100B000019F08AE20E944005299A089521E041E007
:100B100070E060E00C94010520E040E070E060E0EF
:100B20000C940105FF920F931F93CF93DF93D82F5F
:100B30008B0180919501FB018083838182FD4AC0F6
:100B4000CB010E94770397E0F92EF80E809198016F
:100B5000C1E080FD03C0DF3F09F0C0E080917B0170
:100B60008F5F80937B010115110509F44DC0299811
:100B700080E091E00197F1F76EE080E20E9440058D
:100B800084EC90E00197F1F76D2F8AE20E94400516
:100B90006D2F80E30E94400581EE0E948C05CC23DE
:100BA00021F060E584E20E94400520E04F2DB8016D
:100BB00080EA0E940105299A10E000E08FEF0E9470
:100BC0008C05807351F40F3F100739F0A8950F5F23
:100BD0001F4FF4CF80E2F82EB9CF299860E787E263
:100BE0000E944005D82F84FF03C081EE0E948C052F
:100BF000CC2321F06FE584E20E9440050E94790534
:100C0000D5FF03C0C1E001C0C0E08C2FDF91CF91C0
:100C10001F910F91FF9008950F931F93CF938C0115
:100C2000FC0182819091870190FF04C08F3F79F58C
:100C3000CFEF04C081111BC0C0919601B8018C2F69
:100C40000E949205909196019C1318C09091880182
:100C5000811118C020917C012F5F20937C0121E03D
:100C6000290F2F70907F922B9093880107C08F3FA0
:100C7000F9F2B8010E9492058823F1F2CF911F91F9
:100C80000F910895907F9093880181E0F7CF80E0E5
:100C9000F5CF2091870122FD0C940C0680E0089589
:100CA000FC018091950181839481907F9160948370
:100CB0008091940180FF03C0CF010C94490680E02D
:100CC0000895CF93C82F60E08111682F85E00E94BE
:100CD00090026C2F82EC93E00E946503CF910C94FC
:100CE0005006CF92DF92EF92FF92CF93DF930E9454
:100CF0008B036B017C0126E143E050E06FEF80E065
:100D00000E944F01EC0164E00E9442038C818F71CC
:100D1000806A8C83CF82D886E986FA86CE01DF91FD
:100D2000CF91FF90EF90DF90CF900C944906CF9336
:100D3000DF93262FEA0150E040E0682F80E00E9418
:100D40004F01BE010E94D504DF91CF910C9449065A
:100D50000C9449068FEF80938901E7E8F1E08081E8
:100D60008860808328E143E050E06FEF80E00E94DC
:100D70004F0161E00E9465030C940C06CF93219A09
:100D8000229A29982A9ACFB7F894809172018111FA
:100D900024C0EBEEF1E08491EFEFF1E09491E82FC5
:100DA000F0E0EE0FFF1FE952FE4FA591B491EC91D8
:100DB000E92321F461E08AE00E9490028AE00E9427
:100DC00030018CB580618CBD8CB580648CBD8DE0AC
:100DD0000E9430018BE00E943001809172018F5F90
:100DE00080937201CFBF0E94510563E083E20E94AD
:100DF00040056FE584E20E94400560E685E20E94BE
:100E0000400565E286E20E94400564E08DE30E94B1
:100E100040058DE10E948605843041F063E780E55E
:100E20000E94400564E08DE30E94400586E00E9438
:100E30008605853209F04DC085E00E948605803622
:100E400009F047C062E082E20E94400560E081E272
:100E50000E94400563E08CE30E9440058FEF809381
:100E6000020120E045E062E071E08BE20E940105B2
:100E700020E045E062E071E08AE20E94010520E0A6
:100E800045E062E071E080E30E94010582EE0E948D
:100E90008C0581EE0E948C0560E787E20E94400588
:100EA00080918701806180938701809198018E7F76
:100EB000809398018EE6809395016EE690E080E045
:100EC0000E949B15C0919501CF3F41F480E191E0D4
:100ED00002C088E091E0CF910C949E038FEF8C0FBD
:100EE0008E3FB8F7C093070163E082E20E9440059D
:100EF00061E081E20E9440050E9479056C2F90E03C
:100F000080E00E949B15E2CF0F931F93CF93DF9356
:100F1000EC018B0160E00115110539F0F801019039
:100F20000020E9F731976E2F601BCE010E9442032B
:100F30008C818F718C83CE010E947703482F50E003
:100F4000B801CE0107960E942117CE010E947703B7
:100F50008C0F9D2F911DFC011782CE01DF91CF9147
:100F60001F910F910895809195018F3F69F423E0BF
:100F700043E050E06FEF80E00E944F016EE371E0CC
:100F80000E9484070C940C060895FC01248122958C
:100F900026952770213011F487810895211104C00E
:100FA00007960E94ED11089580E00895CF93FC010B
:100FB0002581223049F4C1E0C09378010E94C50721
:100FC000811104C010922501CF910895C09325018D
:100FD000FBCF2F923F924F925F926F927F928F92B0
:100FE0009F92AF92BF92CF92DF92EF92FF920F93B8
:100FF0001F93CF93DF93CDB7DEB7A1970FB6F894C9
:10100000DEBF0FBECDBF36E0D32E9E012F5F3F4F18
:1010100019014EE4C42E54EB452E5BE2552E51E1EE
:10102000652E712C88248A9462E0962E63E0A62EA9
:10103000B92C87E10E94860580FD43C2DA94DD2049
:1010400009F43FC221E041E070E060E080E60E94E8
:101050000105182F813220F082EE0E948C0510E0ED
:1010600021E0412F65E274E081E60E94010560E421
:1010700087E20E94400581E2E5E2F4E0D1010190BF
:101080000D928A95E1F70C81802F8370823089F66A
:10109000C1010E94770302FD89E1895F1813C9CF5E
:1010A00085E294E00E94770390912904392F3770EC
:1010B000F32E10912A0400912604309125042091EA
:1010C0002704409188014068409388014091950130
:1010D0002413CDC1E82FF0E0EB5DFB4F178293FFA7
:1010E00015C081E2E5E2F4E0A4E0B4E001900D92E5
:1010F0008A95E1F7977E9061909308042093050408
:101100000093060484E094E00E944906909129042B
:1011100094FDA8C153E0F512A5C180912A0421EFE6
:10112000280F233008F485CF143009F482CF18310A
:1011300059F429E143E050E06FEF802F0E944F0106
:1011400061E00E94650320C0193171F4809187012C
:1011500083FF6FCF877F8093870185E294E00E94B1
:10116000C5078093890165CF1E3109F462CF1D3117
:1011700071F42FE143E050E06FEF80E00E944F01F7
:1011800060E07FEF0E9450030E940C0652CF209136
:101190002604211164C18D3059F488E198E00FB61E
:1011A000F894A895809360000FBE90936000FFCFE5
:1011B0008B3179F485E294E00E94C50791E08111BA
:1011C00001C090E08091940190FB80F9809394019C
:1011D00030CF863099F490912C0481E0992319F056
:1011E0009D3409F080E08093930141E050E063E09A
:1011F00071E083E991E00E948B151BCF833119F4D4
:101200000E94AD0E16CF823119F40E94710611CFE3
:101210008230C1F422E043E050E06FEF80E00E94B2
:101220004F018C0164E00E944203F80184818F71B8
:10123000806A848387829086A186B286C8010E94D4
:10124000A806F7CE813001F520E030E0232B09F429
:10125000F0CE929596959770953059F460912C0444
:1012600070912D0480912E0490912F040E94000013
:10127000E0CE911105C08CE294E00E940B12F6CFF3
:1012800060E070E0CB01F2CF8A3009F4D2CE8C312D
:1012900009F0E8C080912C04823509F4CACE863565
:1012A00089F52CE143E050E06FEF80E00E944F01B0
:1012B0008C01C0927C0066E470E080E090E00E94C7
:1012C000010380917A00806480937A0080917A0093
:1012D00086FDFCCFE0907800F090790062E0C801D4
:1012E0000E944203F80184818F7180668483970194
:1012F00050E040E0C301B2010E94F916F8013087C6
:1013000027839CCF863409F05FC02CE143E050E096
:101310006FEF80E00E944F018C01F89440916000D3
:101320003091800020918100909182008FEF86BBE8
:10133000109285001092840010928000109282001A
:10134000F8E15DE00FB6F894A895F09360000FBE49
:101350005093600080916000806480936000A89545
:1013600085E0809381008091600087FFFCCF109220
:101370008100A8958091600088618093600040930F
:1013800060007894E0908400F090850030938000B5
:10139000209381009093820062E0C8010E94420382
:1013A000F80184818F7180668483B70190E080E0CA
:1013B0002BE0660F771F881F991F2A95D1F720EA27
:1013C00036E841E050E098CF8D3411F52CE143E050
:1013D00050E06FEF80E00E944F018C01E0904604E6
:1013E000F0904704E114F10421F48AE4E82E84E04B
:1013F000F82E62E0C8010E944203F80184818F71D7
:1014000080668483C1018E199F099087878316CFD8
:10141000853409F00ECE2CE143E050E06FEF80E020
:101420000E944F016FE371E00E9484070E94A806AA
:1014300010E000E06FEFC8010E949B150F5F1F4F87
:101440000D39F1E01F07B1F788E198E00FB6F89485
:10145000A895809360000FBE90936000FFCF8A3103
:1014600009F4E7CD85E294E00E94D607E2CD2F3F54
:1014700009F0DFCD23E0F2121FC08091870182FFC7
:1014800003C0173009F4D5CD143109F0D2CD8091C5
:1014900096013813CECD0E943403737088279927A4
:1014A0000E94010325E143E050E06FEF802F0E948E
:1014B0004F016091960145CE809196013813B9CDC8
:1014C000D1CFA1960FB6F894DEBF0FBECDBFDF918E
:1014D000CF911F910F91FF90EF90DF90CF90BF9031
:1014E000AF909F908F907F906F905F904F903F90C4
:1014F0002F9008958091870184FD0C94E907089549
:101500008F929F92AF92BF92CF92DF92EF92FF9213
:101510000F931F93CF93DF934B015C018A01D22F6E
:101520000E9434036B017C018091290487608093C1
:101530002904C0E00E9434036C197D098E099F09BB
:10154000681579058A059B0598F4C11111C0A89505
:101550000E9480030E947A0A809129048770801774
:10156000110641F7C1E080912A048D13E2CFE2CF4A
:101570008C2FDF91CF911F910F91FF90EF90DF9013
:10158000CF90BF90AF909F908F9008958F929F9231
:10159000AF92BF92CF92DF92EF92FF924B015C012C
:1015A0000E9434036B017C010E9434036C197D0995
:1015B0008E099F09681579058A059B0530F4A89561
:1015C0000E9480030E947A0AEFCFFF90EF90DF9095
:1015D000CF90BF90AF909F908F90089561E085E08D
:1015E0000E94900262E370E080E090E00E94C60AF0
:1015F00060E085E00E94900264E670E080E090E0A8
:101600000E94C60A6091250185E00C94900288E64C
:1016100090E00E94420285E00E9430010E94EE0AA2
:101620008DE991E00E948315809325018091250129
:10163000823020F480912501813049F081E080934F
:101640002501609125018DE991E00E949B15609133
:10165000250185E00C9490020C94EE0A8F929F92E3
:10166000AF92BF92CF92DF92EF92FF920F931F93B0
:10167000CF93DF93CDB7DEB760970FB6F894DEBF98
:101680000FBECDBF0E9471060E9434036B017C0126
:1016900028EE33E040E050E00E94F916CA01B9019B
:1016A0002CE330E040E050E00E94F9167F936F9306
:1016B000C701B60120E63AEE40E050E00E94F9167C
:1016C00098E1892E912CA12CB12CCA01B901A50158
:1016D00094010E94F9167F936F93C701B60120E829
:1016E0003EEE46E350E00E94F916CA01B901A50199
:1016F00094010E94F9167F936F93C701B60120E011
:101700003CE546E255E00E94F9163F932F9382E4B0
:1017100091E09F938F938E010F5F1F4F1F930F9345
:101720000E943017B8018BED92E00E9484070E945E
:10173000500664E670E080E090E00E94C60A88E00F
:101740000E9486058F7063EE7FEF28E0829F60190C
:10175000710911242091230130912401C901880FBE
:10176000991F820F931F680F791F0FB6F894DEBF81
:101770000FBECDBF77FF02C06D5F7F4F7595679538
:101780007595679570932401609323018AEB92E02D
:101790000E9450030E94500664E670E080E090E0F2
:1017A0000E94C60A6CEA71E089E992E00E94D504C1
:1017B0000E94500664E670E080E090E00E94C60A55
:1017C00060E670E088E792E00E9450030E945006B5
:1017D00064E670E080E090E00E94C60A80912301F8
:1017E000909124018A3B9F4FCCF461EA71E086E33B
:1017F00092E00E94D5040E94500664E670E080E00A
:1018000090E00E94C60A88E198E00FB6F894A89587
:10181000809360000FBE90936000FFCF70E060E0A7
:1018200081EA93E00E9450030E94500664E571E053
:1018300080E893E00E9484070E94500664E670E00E
:1018400080E090E00E94C60A88EC80937C00809142
:101850007A00806880937A0064E170E080E090E034
:101860000E94010380917A00806480937A008091C5
:101870007A0086FDFCCF609178007091790090E04D
:1018800080E00E94E5142EEA37E242EA53E40E9427
:10189000E41526EF38E24CE95FE30E9451160E94FE
:1018A000C316062E000C770B8FE593E00E945003C1
:1018B0000E94500664E670E080E090E00E94C60A54
:1018C0006CE871E08EE393E00E94D5040E9450061C
:1018D00060917B018DE193E00E9465030E945006B8
:1018E00064E670E080E090E00E94C60A60917C01AE
:1018F0008CEF92E00E9465030E94500664E670E05F
:1019000080E090E00E94C60A10927B0110927C0158
:1019100060960FB6F894DEBF0FBECDBFDF91CF91BA
:101920001F910F91FF90EF90DF90CF90BF90AF90FD
:101930009F908F9008954F925F926F927F928F92B7
:101940009F92AF92BF92CF92DF92EF92FF92CF938E
:10195000DF930E9434036B017C0180911E01882378
:1019600041F0809125010E9461060E942E0B109289
:101970001E018091780181111092780180912501DA
:1019800090911D01981741F08091250180931D01D0
:10199000809125010E9461068091250181110CC171
:1019A0008091870182FD6BC00E9434036B017C0132
:1019B00080E090E0DC012091870122FD36C0803379
:1019C00025E79207A105B105B0F5803137E293070D
:1019D000A105B105E0F020E3C22E25E7D22EE12CCF
:1019E000F12CC81AD90AEA0AFB0AD701C6010197E5
:1019F000A109B109873E9340A105B10508F046C091
:101A000060E375E780E090E00E94C60A14C0A895E4
:101A10000E9480030E947A0A0E943403DC01CB01F9
:101A20008C199D09AE09BF09C6CF803345E79407DD
:101A3000A105B10580F2809177018F5F80937701D6
:101A400080917701843008F4E0C00E947106109202
:101A500077016091250182EC93E00E946503DF919C
:101A6000CF91FF90EF90DF90CF90BF90AF909F907D
:101A70008F907F906F905F904F900C94500680E312
:101A8000C82E85E7D82EE12CF12CAFCF20E243E021
:101A900050E06FEF80E00E944F01EC0164E00E9493
:101AA00042038C818F71806A8C8388EE93E0A0E082
:101AB000B0E08F839887A987BA87CE010E94A806D5
:101AC00022E041E050E068EE73E080E090E00E94A8
:101AD000800A882309F16CEB72E080E090E00E94BC
:101AE000C60A21E243E050E06FEF80E00E944F0120
:101AF000EC0164E00E9442038C818F71806A8C83C8
:101B000084EA96E0A0E0B0E08F839887A987BA873F
:101B1000CE010E94A8068FCF0E945B0546015701A7
:101B20008FE0880E911CA11CB11CC1E0D0E0809117
:101B30001C018F3F31F420E182169104A104B1040D
:101B4000F8F480911C0180911C018F3F91F58FEF7B
:101B500080931C010E94510521E243E050E06FEFA9
:101B600080E00E944F01EC0164E00E9442038C81FE
:101B70008F71806A8C83CF82D886E986FA86C8CF37
:101B800089E094E0980F2E0102C0440C551C9A95F0
:101B9000E2F7712C612C84149504A604B70438F084
:101BA0000E94060484189508A608B708C0CF815083
:101BB000E8CF80911C01CBCF80917301909174018B
:101BC000A0917501B0917601A7019601281B390BF0
:101BD0004A0B5B0BDA01C90181349747AB41B10570
:101BE00008F42ECFC0927301D0927401E092750177
:101BF000F09276010E942E0B6091250182EC93E019
:101C00000E9465030E9450061BCFDF91CF91FF9089
:101C1000EF90DF90CF90BF90AF909F908F907F908C
:101C20006F905F904F9008952BE043E050E06FEF8E
:101C300080E00E944F016AE571E00E9484070E94E3
:101C400049062CE043E050E06FEF80E00E944F0136
:101C500064E671E00E9484070E94490645E051E075
:101C600063E070E083E30E94970649EF50E064E28E
:101C700070E089E50E94970664E670E080E090E0FD
:101C80000E94C60A4DEE50E064E270E080E50E94DA
:101C9000970642EE50E064E270E081E50E9497060C
:101CA0004AED50E064E270E088E50E94970642ED5C
:101CB00050E064E270E08BE50E94970664E670E015
:101CC00080E090E00E94C60A49EC50E064E270E0D7
:101CD0008CE50E94970664E670E080E090E00E9448
:101CE000C60A4EEB50E064E270E08DE50E94970674
:101CF00044EB50E064E270E086E40E94970664E6FC
:101D000070E080E090E00E94C60A49EA50E064E298
:101D100070E080E60E94970642EA50E064E270E0DC
:101D20008AE50E94970664E670E080E090E00E94F9
:101D3000C60A4CE950E064E270E082E50E94970632
:101D400064E670E080E090E00E94C60A45E950E059
:101D500064E270E083E50C9497062FE043E050E0E6
:101D60006FEF80E00E944F016EE371E00E948407F4
:101D700062E084E094E00E944203E4E0F4E08481C5
:101D80008F71806C848381E087831086CF010E94ED
:101D900049062FE043E050E060ED77E080E090E01E
:101DA0000E94800A21E150E040E06FEF80E00E9455
:101DB0004F016CE671E00E9484070E94490626E00C
:101DC00043E050E06FEF80E00E944F016091960188
:101DD0000E9465030E94A80626E043E050E060ED03
:101DE00077E080E090E00E94800A0C94140ECF937C
:101DF0008091940181FD26C00E94AD0E80919401D6
:101E0000816080939401C4E02AE143E050E06FEFE9
:101E100080E00E944F0162E00E9465030E94A806D4
:101E20002BE143E050E060ED77E080E090E00E943D
:101E3000800A811102C0C15039F7809194018260FB
:101E400080939401CF9108951F920F920FB60F9235
:101E500011242F933F934F935F936F937F938F93AF
:101E60009F93AF93BF93EF93FF9389E991E00E9413
:101E7000D301FF91EF91BF91AF919F918F917F918E
:101E80006F915F914F913F912F910F900FBE0F90E7
:101E90001F9018951F920F920FB60F9211242F9337
:101EA0008F939F93EF93FF93E091A901F091AA0183
:101EB0008081E091AF01F091B00182FD1BC0908163
:101EC0008091B2018F5F8F732091B301821741F02F
:101ED000E091B201F0E0E756FE4F958F8093B2019A
:101EE000FF91EF919F918F912F910F900FBE0F90C7
:101EF0001F9018958081F4CF1F920F920FB60F920A
:101F000011242F933F938F939F93AF93BF9380910F
:101F10008B0190918C01A0918D01B0918E01309137
:101F20008A0126E0230F2D3758F50296A11DB11D19
:101F300020938A0180938B0190938C01A0938D0153
:101F4000B0938E0180918F0190919001A0919101A9
:101F5000B09192010196A11DB11D80938F019093C4
:101F60009001A0939101B0939201BF91AF919F9185
:101F70008F913F912F910F900FBE0F901F9018954A
:101F800029E8230F0396A11DB11DD2CF1F920F92F6
:101F90000FB60F9211242F933F934F935F936F933C
:101FA0007F938F939F93AF93BF93EF93FF93E091B2
:101FB0002801F09129010995FF91EF91BF91AF910F
:101FC0009F918F917F916F915F914F913F912F9151
:101FD0000F900FBE0F901F9018951F920F920FB683
:101FE0000F9211242F933F934F935F936F937F939F
:101FF0008F939F93AF93BF93EF93FF93E09126014D
:10200000F09127010995FF91EF91BF91AF919F91B9
:102010008F917F916F915F914F913F912F910F9091
:102020000FBE0F901F9018951F920F920FB60F9230
:1020300011240F900FBE0F901F901895CF93DF9330
:10204000FC01108211821282148215821682DC0138
:1020500017968AE1ED0119928A95E9F782E0838368
:10206000DF91CF910895CF93E9E9F1E013821282D5
:1020700088EE93E0A0E0B0E084839583A683B783E5
:102080008EE291E09183808385EC90E09587848750
:1020900084EC90E09787868780EC90E0918B808B32
:1020A00081EC90E0938B828B82EC90E0958B848B1B
:1020B00086EC90E0978B868B118E128E138E148E89
:1020C00085E294E00E941E1084E094E00E941E10BD
:1020D00083EE93E00E941E10E3EEF3E082E386833A
:1020E00083E0858382EC93E00E941E10E2ECF3E033
:1020F00083E3868382E0858381EA93E00E941E1059
:10210000E1EAF3E080E58683CFE2C58380E893E0EF
:102110000E941E10E0E8F3E081E58683C5838FE529
:1021200093E00E941E10EFE5F3E088E58683C58307
:102130008EE393E00E941E10EEE3F3E089E58683D0
:10214000C5838DE193E00E941E10EDE1F3E082E58E
:102150008683C5838CEF92E00E941E10ECEFF2E0C4
:1021600083E58683C5838BED92E00E941E10EBED24
:10217000F2E08AE58683C5838AEB92E00E941E1016
:10218000EAEBF2E08BE58683C58389E992E00E9461
:102190001E10E9E9F2E08CE58683C58388E792E0CA
:1021A0000E941E10E8E7F2E08DE58683C58387E58F
:1021B00092E00E941E10E7E5F2E086E48683C58384
:1021C00086E392E00E941E10E6E3F2E080E686835A
:1021D000C583CF910895789484B5826084BD84B519
:1021E000816084BD85B5826085BD85B5816085BD12
:1021F00080916E00816080936E00109281008091CA
:102200008100826080938100809181008160809351
:102210008100809180008160809380008091B10076
:1022200084608093B1008091B00081608093B000A1
:1022300080917A00846080937A0080917A00826035
:1022400080937A0080917A008E7F80937A008091CB
:102250007A00806880937A001092C100A895E0917E
:10226000A901F091AA0182E08083E091A501F0919B
:10227000A6011082E091A701F091A80188E0808377
:102280001092B101E091AD01F091AE0186E0808342
:10229000E091AB01F091AC01808180618083E0919D
:1022A000AB01F091AC01808188608083E091AB014B
:1022B000F091AC01808180688083E091AB01F09166
:1022C000AC0180818F7D8083C0E1D0E0F12CFE01E4
:1022D000F595E795ED5EFE4FE491C0FF63C0EF70AA
:1022E000E83008F06EC0F0E0ED5EFE4FF4906F2D28
:1022F00089E991E00E94F5012196C23FD10539F7A5
:102300008CE091E00E944202809194018D7F809345
:1023100094010E94070B41E050E063E071E083E923
:1023200091E00E94731560E081E090E00E949B15AF
:10233000809188018F788093880110927E0110929D
:102340007D018FE191E00E949E0387EF9EE09093D4
:102350007A01809379010E9434036B017C010E9411
:1023600034036C197D098E099F0968387341810512
:102370009105D0F00E94EE0AA895C0E0D0E0A895A3
:102380000E9480038091870184FD0E94E9070E94DA
:102390009B0C2097A1F30E94C901882381F30E941E
:1023A0000000EDCFE2959BCF0E9480030E947A0A45
:1023B0008091870182FB882780F9A8958111DACF67
:1023C000CECF1BEF1E0F00E06F2D89E991E00E9438
:1023D000F5010F5F0117C0F38FCFFC018827992704
:1023E000E89421912032E9F3293010F02E30C8F31F
:1023F0002B3241F02D3239F4689404C00E945F12F0
:10240000820F911D219120532A30C0F31EF4909524
:1024100081959F4F08951F93FC0199278827BC0140
:10242000E89411911032E9F3193010F01E30C8F31E
:102430001B3251F01D3249F4689406C00E944A12C2
:10244000610F711D811D911D119110531A30B0F350
:102450003EF490958095709561957F4F8F4F9F4F7B
:102460001F910895FC0105900020E9F78095909553
:102470008E0F9F1F0895FB01DC014150504048F032
:1024800005900D920020C9F701C01D9241505040A7
:10249000E0F70895592F482F372F262F660F771F03
:1024A000881F991F660F771F881F991F620F731F60
:1024B000841F951F660F771F881F991F08957AE064
:1024C000979F902D879F802D910D11240895ABE04B
:1024D000B0E0EDE6F2E10C94AD157C013B018A0120
:1024E000FC0117821682838181FFC8C1CE0101964B
:1024F0005C01F7019381F30193FD859193FF819135
:102500003F01882309F453C1853239F493FD859145
:1025100093FF81913F01853229F4B70190E00E9439
:102520005714E7CF912C212C312CFFE1F31538F013
:102530008B3211F190F4803209F1833229F137FCAA
:102540003CC020ED280F2A3050F536FE20C08AE02E
:10255000989E200D1124922E06C08D3291F080336A
:1025600071F7689430F8F30193FD859193FF8191A1
:102570003F018111DACF21C0689431F8689432F8B4
:10258000F2CF689433F8EFCF689434F8ECCFEAE0F8
:102590002E9E200D1124222E689435F8E4CF8E3221
:1025A00029F436FC04C1689436F8DDCF8C3619F472
:1025B000689437F8D8CF8836B1F2982F9F7D95541C
:1025C0009330E0F08336A1F18337C1F1833509F010
:1025D00063C02801F2E04F0E511CF801C080D18089
:1025E000692D70E036FC02C06FEF7FEFC6010E94DC
:1025F00041144C01689437F882010AC00C5F1F4FE8
:10260000FFE3F98388248394912C6501E89437F8DB
:1026100033FE2DC0522C8114910471F5552009F41C
:1026200068CFB70180E290E00E9457145A94F6CF29
:10263000F801808189830E5F1F4FE4CF2801F2E00B
:102640004F0E511CF801C080D180692D70E036FC1E
:1026500002C06FEF7FEFC6010E944C144C01820153
:10266000D5CFB70180E290E00E9457142A94281435
:10267000190409F0B0F7CECFF60137FC859137FE8B
:1026800081916F01B70190E00E94571451105A9444
:10269000F1E08F1A9108BFCF843619F0893609F01E
:1026A00077C0F80137FE6BC06081718182819381B0
:1026B0000C5F1F4FF32DFF763F2E97FF09C09095BB
:1026C0008095709561957F4F8F4F9F4F689437F835
:1026D0002AE030E0A5010E948714C82ECA188C2C6D
:1026E000432C36FE0CC0E89440F8C91440F434FE84
:1026F00005C032FC03C0F32DFE7E4F2E892C44FE14
:1027000095C0FE01EC0DF11D8081803309F087C07A
:10271000242D297E422E842D8870582E43FC95C08E
:1027200040FE8FC09C2C821418F42C0C922C98180C
:1027300044FE91C0B70180E390E00E94571442FE2E
:1027400009C088E790E041FE02C088E590E0B7014B
:102750000E945714C91408F48AC0CA94D12C9FEF60
:10276000C91AD90ACA0CDB1CF60182916F01B701A4
:1027700090E00E945714AC14BD04B1F74FCF6081B4
:102780007181072E000C880B990B0E5F1F4F92CFA3
:10279000D32CE894D4F82AE030E0853739F1232DA2
:1027A000297FD22E8F3601F148F48835A9F0F70140
:1027B000868197812B96E2E10C94C915803749F008
:1027C0008837A9F7D4FE02C06894D2F820E130E03F
:1027D0000DC06894D4F8F6CF34FE03C0822F866013
:1027E000D82E20E132E002C028E030E0F801D7FE28
:1027F0000FC060817181828193810C5F1F4FA501A1
:102800000E948714C82ECA183D2CE89437F867CF69
:102810006081718190E080E00E5F1F4FF0CF42FC3D
:1028200002C0839478CF8394839475CF842D867867
:1028300009F471CFF6CFB70180E290E00E945714FF
:1028400083948214C0F3512C73CF522C58188214E5
:1028500008F46ECFF8CF842D867809F47BCF8BE215
:1028600041FE80E247FC8DE2B70190E071CFB701F5
:1028700080E390E00E9457149A946CCF8FEF9FEF03
:1028800099CFFC010590615070400110D8F78095F8
:1028900090958E0F9F1F0895FC016150704001902C
:1028A0000110D8F7809590958E0F9F1F08950F9374
:1028B0001F93CF93DF93182F092FEB018B8181FD9D
:1028C00009C01FEF0FEF812F902FDF91CF911F9144
:1028D0000F91089582FF14C02E813F818C819D81CC
:1028E000281739073CF4E881F981CF0101969983D3
:1028F000888310838E819F8101969F838E83E3CF8F
:10290000E885F985812F0995892BA1F3DACFFA01A2
:10291000AA27283051F1203181F1E8946F936E7F1E
:102920006E5F7F4F8F4F9F4FAF4FB1E03ED0B4E00F
:102930003CD0670F781F891F9A1FA11D680F791F50
:102940008A1F911DA11D6A0F711D811D911DA11D61
:1029500020D009F468943F912AE0269F1124301971
:10296000305D3193DEF6CF010895462F4770405D0C
:102970004193B3E00FD0C9F7F6CF462F4F70405DBB
:102980004A3318F0495D31FD4052419302D0A9F716
:10299000EACFB4E0A6959795879577956795BA9510
:1029A000C9F700976105710508959B01AC010A2ED6
:1029B00006945795479537952795BA95C9F7620FAD
:1029C000731F841F951FA01D0895E89409C097FBED
:1029D0003EF490958095709561957F4F8F4F9F4FF6
:1029E0009923A9F0F92F96E9BB279395F69587953A
:1029F00077956795B795F111F8CFFAF4BB0F11F4FD
:102A000060FF1BC06F5F7F4F8F4F9F4F16C08823A3
:102A100011F096E911C0772321F09EE8872F762FD9
:102A200005C0662371F096E8862F70E060E02AF01A
:102A30009A95660F771F881FDAF7880F9695879506
:102A400097F9089597F99F6780E870E060E008952E
:102A50009FEF80EC089500240A94161617061806B6
:102A60000906089500240A94121613061406050692
:102A70000895092E0394000C11F4882352F0BB0F23
:102A800040F4BF2B11F460FF04C06F5F7F4F8F4F86
:102A90009F4F089557FD9058440F551F59F05F3FC1
:102AA00071F04795880F97FB991F61F09F3F79F070
:102AB00087950895121613061406551FF2CF4695F2
:102AC000F1DF08C0161617061806991FF1CF869574
:102AD0007105610508940895E894BB276627772758
:102AE000CB0197F90895DC01CB01FC01F999FECFE8
:102AF00006C0F2BDE1BDF89A319600B40D92415086
:102B00005040B8F70895F999FECF92BD81BDF89A6B
:102B1000992780B50895DC01A40FB51F415050409E
:102B200048F0CB01840F951F2E910E949C154150B7
:102B30005040D0F70895262FF999FECF92BD81BD60
:102B4000F89A019700B4021639F01FBA20BD0FB6EB
:102B5000F894FA9AF99A0FBE08952F923F924F92E5
:102B60005F926F927F928F929F92AF92BF92CF921D
:102B7000DF92EF92FF920F931F93CF93DF93CDB726
:102B8000DEB7CA1BDB0B0FB6F894DEBF0FBECDBF9E
:102B900009942A88398848885F846E847D848C846F
:102BA0009B84AA84B984C884DF80EE80FD800C8178
:102BB0001B81AA81B981CE0FD11D0FB6F894DEBF5B
:102BC0000FBECDBFED0108955058BB27AA270E9424
:102BD000FC150C9439150E942B1538F00E94321503
:102BE00020F039F49F3F19F426F40C9428150EF4C4
:102BF000E095E7FB0C942215E92F0E944A1558F343
:102C0000BA17620773078407950720F079F4A6F5D1
:102C10000C946C150EF4E0950B2EBA2FA02D0B0121
:102C2000B90190010C01CA01A0011124FF27591B11
:102C300099F0593F50F4503E68F11A16F040A22F17
:102C4000232F342F4427585FF3CF46953795279588
:102C5000A795F0405395C9F77EF41F16BA0B620B87
:102C6000730B840BBAF09150A1F0FF0FBB1F661FCE
:102C7000771F881FC2F70EC0BA0F621F731F841F11
:102C800048F4879577956795B795F7959E3F08F037
:102C9000B0CF9395880F08F09927EE0F97958795F9
:102CA00008950E9465160C9439150E94321558F04B
:102CB0000E942B1540F029F45F3F29F00C94221557
:102CC00051110C946D150C9428150E944A1568F347
:102CD0009923B1F3552391F3951B550BBB27AA27D5
:102CE00062177307840738F09F5F5F4F220F331F0F
:102CF000441FAA1FA9F335D00E2E3AF0E0E832D0D7
:102D000091505040E695001CCAF72BD0FE2F29D0D9
:102D1000660F771F881FBB1F261737074807AB07AB
:102D2000B0E809F0BB0B802DBF01FF2793585F4F20
:102D30003AF09E3F510578F00C9422150C946D15D5
:102D40005F3FE4F3983ED4F3869577956795B79502
:102D5000F7959F5FC9F7880F911D9695879597F90D
:102D60000895E1E0660F771F881FBB1F6217730786
:102D70008407BA0720F0621B730B840BBA0BEE1F9B
:102D800088F7E09508950E94CA166894B1110C94D2
:102D90006D1508950E94521588F09F5798F0B92F2D
:102DA0009927B751B0F0E1F0660F771F881F991F80
:102DB0001AF0BA95C9F714C0B13091F00E946C15A1
:102DC000B1E008950C946C15672F782F8827B85FB1
:102DD00039F0B93FCCF3869577956795B395D9F7D8
:102DE0003EF490958095709561957F4F8F4F9F4FE2
:102DF0000895A1E21A2EAA1BBB1BFD010DC0AA1F3C
:102E0000BB1FEE1FFF1FA217B307E407F50720F053
:102E1000A21BB30BE40BF50B661F771F881F991FCE
:102E20001A9469F760957095809590959B01AC0117
:102E3000BD01CF010895EE0FFF1F0590F491E02D25
:102E40000994FB01DC014150504048F001900D9283
:102E50000020C9F701C01D9241505040E0F708958D
:102E6000AEE0B0E0E6E3F7E10C94BB150D891E89F6
:102E700086E08C831A8309838FEF9FE79E838D837F
:102E8000AE01475E5F4F6F89788DCE0101960E943B
:102E900067122F813885020F131FF80110822E96BA
:0A2EA000E4E00C94D715F894FFCF7E
:102EAA00FFFF00FCE1A8A8FF6005CA03B30791046D
:102EBA00AF04AB04AA066204F403EA03FF0101BFEC
:102ECA0004BE06E3FF014003400300000000F501D1
:102EDA005F018C016602BD019B01AF010D0A004F23
:102EEA004B00256420253032643A253032643A2575
:102EFA00303264006669786564004C4544537769EA
:102F0A0074636800312E302D30303900322E332E62
:022F1A00320083
:00000001FF
