:100000000C9467010C94B5110C948E110C948F0113
:100010000C948F010C948F010C94A9050C948F0102
:100020000C948F010C948F010C948F010C948F0110
:100030000C948F010C948F010C948F010C948F0100
:100040000C9495100C948F010C944D120C94DC11AF
:100050000C948F010C948F010C948F010C948F01E0
:100060000C948F010C948F016364696E6F707375CB
:1000700078585B000000000800020100000304073C
:100080000000000000000000536176654E616D6560
:1000900000454550524F4D20636C656172656400A8
:1000A00068775265626F6F740044626733204465FD
:1000B0007374726F79204F57494420300073686F12
:1000C00077454570726F6D48657800726563656944
:1000D000766520666F722053656E736F723A2000EA
:1000E000446576436865636B53756D2066726F6D0A
:1000F00020454550524F4D20004462675F52657461
:1001000075726E004462675F4C6576656C0052469E
:100110005F4368616E6E656C0050415F4C6576654B
:100120006C0054585F5253534900487754696D65C9
:1001300000506172656E744E6F6465005061737338
:100140006976654E6F6465006D7950726573656E92
:10015000746174696F6E004F575F5265736F6C7591
:1001600074696F6E004F575F4465765F436E74002D
:100170004F575F436F6E5F4C737400524632345F6B
:1001800050415F4C4F57006D79486561727442650C
:1001900061744C6F6F700000000000250028002B78
:1001A0000000000000240027002A00204D5953457C
:1001B0004E534F52535F4C4942524152595F56453C
:1001C0005253494F4E200000000000230026002912
:1001D00000040404040404040402020202020203F0
:1001E00003030303030102040810204080010204FA
:1001F000081020010204081020005EBCE2613FDD0F
:1002000083C29C7E20A3FD1F41009D23BE46DB656B
:10021000F88C11AF32CA57E974322E332E310A00EE
:10022000207C5F5C2F602C0A0702200220B287101E
:100230000340012000240222100222020220022296
:100240000022200202202227101341010101032273
:100250002030402030520340221402031052240266
:10026000217101001010121012221010022401013D
:100270000322030020010100322037121001213235
:100280002601284032221210121222432224121078
:1002900001222470C122240F0F536176654F7749E4
:1002A0004400537065696368657220454550524F3C
:1002B0004D2069737420766F6C6C004E65756573A4
:1002C000204F57204465766963650000FA171124B2
:1002D0001FBECFEFD8E0DEBFCDBF12E0A0E0B1E09F
:1002E000E0EFF8E402C005900D92A43AB107D9F707
:1002F00026E0A4EAB2E001C01D92A339B207E1F7FB
:1003000011E0C7E6D1E004C02197FE010E941A2047
:10031000C636D107C9F70E941A190C9476240C949A
:10032000000080917B06846080937B0680917C0630
:10033000807880937C06E0918406F0918506309762
:1003400009F009940895EBE7F6E08081877F8F7EBE
:100350008083109277061092780610927906109298
:100360007A060E94511060938006709381068093F4
:1003700082069093830644E050E060E070E08EEAED
:1003800092E00C945F1FFC0184818F7180648483F0
:10039000838187708061838370876783CF0108952D
:1003A000FC01838187708860838384818F71806280
:1003B00084836783CF010895EF92FF920F931F9379
:1003C000CF93DF93EC017B016115710541F0CB0107
:1003D0000E94341B8931910518F089E101C080E049
:1003E000082F10E02B81922F9770980143E0220F85
:1003F000331F4A95E1F7292B2B839C819F719C83A6
:10040000882331F0A801B701CE0107960E943D1B59
:10041000FE01E00FF11F1782CE01DF91CF911F91F6
:100420000F91FF90EF9008950F931F93CF93DF9359
:10043000EC016115710561F0FB0101900020E9F705
:100440003197E61BF70BE931F10518F0E9E101C03E
:10045000E0E00E2F10E08B81282F2770C80133E0D9
:10046000880F991F3A95E1F7822B8B838C818F71CE
:100470008C83EE2329F0A801CE0107960E94032168
:10048000FE01E00FF11F1782CE01DF91CF911F9186
:100490000F910895FC012481229526952770213023
:1004A00011F487810895211104C007960E94EF1A64
:1004B000089580E0089580917B0684FD0C941114CA
:1004C0000895E0917106F0917206309721F0028054
:1004D000F381E02D099408950F931F930E9451100A
:1004E000009173061091740620917506309176067E
:1004F000601B710B820B930B1F910F9108959C0150
:1005000080917106909172068217930751F0909135
:100510007B069F7190937B06309372062093710641
:1005200005C080917B06805E80937B06E09171061A
:10053000F0917206309721F00190F081E02D09953D
:100540000E94511060937306709374068093750631
:100550009093760608950F931F930E946C0220914A
:100560007C062077203729F000E117E220E030E018
:1005700004C000E61AEE20E030E00617170728074F
:10058000390730F48CE291E01F910F910C947F02B7
:100590001F910F91089580917C068F70863020F016
:1005A00085E191E00C947F02089580917D068F3F54
:1005B000A1F00E94511060937706709378068093A3
:1005C000790690937A0680917D069091B002891306
:1005D0008093B00281E191E013C00E946C02613D02
:1005E00077408105910570F080917B06803618F484
:1005F0008DE091E005C0877F80937B0685E191E0E7
:100600000C947F0208958091AE028F3F19F08DE027
:1006100091E010C00E946C02613D77408105910518
:1006200058F080917B06803618F489E091E002C092
:1006300088E291E00C947F0208950E946C02613D73
:1006400077408105910520F480917B0681FF089514
:100650008091AF028F3F41F080917B068E7F809327
:100660007B0689E091E009C080917B06803618F412
:1006700085E191E002C088E291E00C947F0291E56F
:100680009CBD91E09DBD2A98E3E2F0E03197F1F73F
:100690008EBD00000DB407FEFDCF8EB5FB019FEFB0
:1006A0004150C8F0222361F09EBD00000DB407FE4A
:1006B000FDCF8EB56115710599F380833196F0CF2A
:1006C000DF01119680818EBD00000DB407FEFDCFC5
:1006D0008EB5FD01E5CF2A9AE3E2F0E03197F1F71C
:1006E0000895CF93DF931F92CDB7DEB7698320E0E3
:1006F00041E0BE016F5F7F4F0E943F030F90DF918B
:10070000CF91089580917C06982F9077903759F07B
:10071000982F92959F709F5F97709295907F8F789A
:10072000892B80937C0680917B068B7F8F7E8093C4
:100730007B0629986CE080E20C9471036FE080E204
:100740000E947103609108016F3F19F08AE20E94D4
:100750007103299A089521E041E060E070E00C9473
:100760003F0320E040E060E070E00C943F03EF9234
:10077000FF921F93CF93DF93182F7B018091AE02DE
:10078000FB018083438142FD06C046954695469510
:10079000C7E0C40F01C0C0E2D091B102D170299866
:1007A00083E092E00197F1F76EE080E20E9471032E
:1007B0008BE891E00197F1F7612F8AE20E947103C3
:1007C000612F80E30E94710381EE0E94B1031F3FFD
:1007D00011F0DD2311F080EB01C080EA4C2FC13213
:1007E00008F040E220E0B7010E943F03299AE12C83
:1007F000F12C8FEF0E94B103C82F807321F4F1E038
:10080000EF1AF108B1F7299860E387E20E947103BB
:10081000C4FF03C081EE0E94B1030E949E03C5FD88
:10082000D1E081E01F3F09F080E08D2BDF91CF9177
:100830001F91FF90EF9008950F931F93CF938C011A
:10084000FC01828190917B0690FF03C08F3F39F5B8
:100850000CC0882339F08F3F41F0B8010E94B703E4
:1008600081111EC0C091AF0201C0CFEFB8018C2F23
:100870000E94B7039091AF02C91312C090917C06F9
:10088000811108C081E0890F8F70907F982B909321
:100890007C0605C0907F90937C0681E001C080E0DB
:1008A000CF911F910F91089520917B0622FD0C940A
:1008B0001C0480E008958FEF80937D06EBE7F6E05F
:1008C00080818860808328E143E06FEF80E00E94B0
:1008D000880D61E00E94D0010C941C048091AE024E
:1008E0008F3F61F423E043E06FEF80E00E94880DCA
:1008F0006FE472E00E9414020C941C040895EBE76C
:10090000F6E08081897F81608083EEEAF2E08FEFFC
:100910008283818327E043E06FEF0E94880D6FE4BC
:1009200072E00E9414020C941C04CF93DF93219A6E
:10093000229A29982A9ACFB7F8948091A40281111B
:1009400066C08BED91E0FC0124914FEE51E0FA017D
:100950003491E22FF0E0EE0FFF1FEF55FE4FA5910F
:10096000B4912C91232309F040C0EEE7F0E02491EC
:10097000FA014491FC0194919923B9F1222339F1B0
:10098000233091F038F42130A9F0223001F584B5FC
:100990008F7D12C0273091F02830A1F02430B9F4B7
:1009A000809180008F7D03C0809180008F7780933D
:1009B00080000DC084B58F7784BD09C08091B000E0
:1009C0008F7703C08091B0008F7D8093B000E92FB6
:1009D000F0E0EE0FFF1FE956FE4FA591B4919FB7CF
:1009E000F8948C91482B4C939FBF61E08AE00E9461
:1009F000DB0F8CB580618CBD8CB580648CBD61E0F3
:100A00008DE00E94DB0F61E08BE00E94DB0F8091A4
:100A1000A4028F5F8093A402CFBF29986EE080E28A
:100A20000E9471038BE496E40197F1F763E083E29F
:100A30000E9471036FE584E20E94710360E685E223
:100A40000E94710363E286E20E94710364E08DE319
:100A50000E9471038DE10E94AB03843041F063E793
:100A600080E50E94710364E08DE30E94710386E0DB
:100A70000E94AB03833209F066C085E00E94AB039D
:100A8000803609F060C062E082E20E94710360E09B
:100A900081E20E94710363E08CE30E947103DFEF47
:100AA000D093030120E045E063E071E08BE20E9417
:100AB0003F0320E045E063E071E08AE20E943F03EB
:100AC00020E045E063E071E080E30E943F0382EEB6
:100AD0000E94B10381EE0E94B10360E787E20E94A9
:100AE000710380917B06806180937B068091B102C7
:100AF0008E7F8093B10286E98093AE0266E980E042
:100B000090E00E94871FC091AE02CF3FC9F08FEFE7
:100B10008C0F8E3F90F4C093080163E082E20E9444
:100B2000710361E081E20E9471030E949E036C2FB9
:100B300080E090E00E94871F03C0D093AE0203C004
:100B400085E191E002C088E291E0DF91CF910C94C1
:100B50007F021F920F920FB60F9211240F900FBEBB
:100B60000F901F9018956F927F928F929F92AF92E5
:100B7000BF92CF92DF92EF92FF920F931F93CF938A
:100B8000DF9300D000D000D0CDB7DEB78C018BEC66
:100B900090E00E94DF0DF80186810E94010F80E342
:100BA000A82E81E0B82E98E1792E24E1C22ED12C16
:100BB0004801F7E08F0E911CF50181915F018935A5
:100BC00009F057C0F801868190E08C159D0509F069
:100BD00050C085818F3209F04CC084818295869502
:100BE000877011F4B40102C060E070E01A821982CB
:100BF0001C821B821E821D826115710561F0FB0142
:100C000001900020E9F73197AF01461B570BCE0149
:100C100001960E94181168E870E081E793E00E9455
:100C2000DC010E940D0E672CE12CF12C8D819E8140
:100C3000E816F90620F4E981FA81309729F4109238
:100C4000A502E5EAF2E002C0EE0DFF1D862D90E060
:100C5000608183569E4F0E94871FFFEFEF1AFF0AA5
:100C6000639488E0E816F10409F7CE0101960E942A
:100C70008911EFEFCE1ADE0AF0E17F0E88E97812D3
:100C80009BCFF8018681863409F077C085818F3249
:100C900009F073C0C8010E944A028093A602833003
:100CA00051F46DEB70E081E793E00E94DC010E945B
:100CB0000D0E0E94FC158091A6028430C1F561E9F9
:100CC00070E081E793E00E94DC010E940D0E00EAD3
:100CD00011E08EE891E00E94970D83E6800F0E945C
:100CE000010F6FEFC8010E94871F0F5F1F4F0D326A
:100CF000F2E01F0771F71092A60260E08DE991E023
:100D00000E94871F6091A60288E594E00E94D001AE
:100D10000E940D0E0E94FC1598E088E10FB6F89431
:100D2000A895809360000FBE90936000FFCF853040
:100D300069F469EA70E081E793E00E94DC010E94B7
:100D40000D0E61E48DEA91E00E94871F8091A6025A
:100D5000893099F460EA70E081E793E00E94DC0159
:100D60000E940D0E98E088E10FB6F894A895809344
:100D700060000FBE90936000FFCF26960FB6F894E8
:100D8000DEBF0FBECDBFDF91CF911F910F91FF90BE
:100D9000EF90DF90CF90BF90AF909F908F907F901B
:100DA0006F9008958DE991E00E94A90D1092510372
:100DB00008958F929F92AF92BF92CF92DF92EF925F
:100DC000FF924B015C010E9451106B017C010E945B
:100DD0005110DC01CB018C199D09AE09BF098815A2
:100DE0009905AA05BB0530F4A8950E9461020E94EE
:100DF0005B02EDCFFF90EF90DF90CF90BF90AF9070
:100E00009F908F9008955F926F927F928F929F92A2
:100E1000AF92BF92CF92DF92EF92FF920F931F9308
:100E2000CF93DF93CDB7DEB7CE54D1090FB6F89488
:100E3000DEBF0FBECDBF83EA91E00E94A90D88E01E
:100E4000EFE3F1E0DE01D39601900D928A95E1F790
:100E50001BAE88E0E8E4F1E0DE01DC9601900D9243
:100E60008A95E1F725961FAE25971B8E1A8E37E1DE
:100E7000B32EFE017C96DF012B2D1D922A95E9F7FA
:100E8000CE0101967C019F938F936E019DE4C90E64
:100E9000D11CDF92CF928E010B5B1F4F1F930F93DC
:100EA00083EB91E09F938F938CEB91E09F938F93D3
:100EB0000E944E21B80181E591E00E941221D601E5
:100EC00011962C9111972F932C912F93815591402E
:100ED00063E070E00E94F21F6F5F7F4F7F936F931C
:100EE0008A818F9389818F9388EC91E09F938F9370
:100EF0001F930F930E942C21FE013396DF011D9258
:100F0000BA94E9F781E389838EE28A8387E38B834E
:100F10008DE28C8380E38D838E8385E38F8380E2F3
:100F20008887F801DE011996CE0141960FB6F89434
:100F3000DEBF0FBECDBF21912D938A179B07D9F736
:100F400080E2898B82E38A8B90E39B8B9AE39C8B74
:100F50008D8B87E38E8B2BE043E06FEF80E00E9468
:100F6000880D63ED71E00E9414020E9454042CE08D
:100F700043E06FEF80E00E94880DB7010E941402E9
:100F80000E94540488E491E00E94FA0D6CE371E041
:100F900080E50E94550E61E371E081E50E94550EE7
:100FA0006AE271E08AE50E94550E62E271E08BE52B
:100FB0000E94550E69E171E08CE50E94550E6EE0CD
:100FC00071E08DE50E94550E64E071E086E40E94B8
:100FD000550E69EF70E080E60E94550E60E771E003
:100FE00082E10E94550E65E671E083E10E94550E94
:100FF00067E571E08CE10E94550E80E3A82E81E048
:10100000B82E9AE0592E3E0133E3630E711C21EE97
:10101000E22E21E0F22E8E01065E1F4F4E018CE380
:10102000880E911CD501A053B1406D01F50181914D
:101030005F01893521F5DF92AF937F926F92FF9226
:10104000EF921F930F930E942C21A80166E0852D3B
:101050000E94400EDF92CF929F928F92FF92EF926A
:101060001F930F930E942C21A80164E28AE0850D52
:101070000E94400E0FB6F894DEBF0FBECDBF539452
:1010800032E15312CFCFC25BDF4F0FB6F894DEBF11
:101090000FBECDBFDF91CF911F910F91FF90EF90C9
:1010A000DF90CF90BF90AF909F908F907F906F9088
:1010B0005F9008952F923F924F925F926F927F922E
:1010C0008F929F92AF92BF92CF92DF92EF92FF9258
:1010D0000F931F93CF93DF93CDB7DEB760970FB613
:1010E000F894DEBF0FBECDBF0E941E0E87E891E0D0
:1010F0000E94FA0D0E9451106B017C0128EE33E032
:1011000040E050E00E94D01FCA01B9012CE330E05A
:1011100040E050E00E94D01F7F936F93C701B6015B
:1011200020E63AEE40E050E00E94D01F68E1862EB3
:10113000912CA12CB12CCA01B901A50194010E94E6
:10114000D01F7F936F93C701B60120E83EEE46E3C0
:1011500050E00E94D01FCA01B901A50194010E946C
:10116000D01F7F936F93C701B60120E03CE546E2B4
:1011700055E00E94D01F3F932F9387EE91E09F93FD
:101180008F93AE014F5F5F4F6A015F934F930E9451
:101190002C21B60185EF93E00E9414020E940D0EEF
:1011A00088E00E94AB038F704091190150911A01A1
:1011B00097E0949F9001959F300D112463EE7FEF8F
:1011C00058E0859F601971091124620F731F0FB6D3
:1011D000F894DEBF0FBECDBF77FF02C0695F7F4FBF
:1011E00093E0759567959A95E1F770931A0160936E
:1011F000190184ED93E00E94C3010E940D0E6BE77C
:1012000071E083EB93E00E94DC010E940D0E60E62A
:1012100070E082E993E00E94C3010E940D0E60E03D
:1012200070E087E394E00E94C3010E940D0E69EF15
:1012300071E086E194E00E9414020E940D0E0E946B
:10124000481680915503909156030E94DA1340E0AE
:101250006CEC80915503909156030E948713409146
:101260004F0364E480915503909156030E948713C5
:10127000809151038823D9F1E0915003E950E33084
:1012800040F4F0E0EE0FFF1FEA58FE4F008111819D
:1012900002C00EEE12E080915203882311F180917A
:1012A0004F0381111EC00E9451102B013C014801C7
:1012B000110FAA08BB0880915503909156030E9414
:1012C00034138130A1F00E945110DC01CB01881948
:1012D0009909AA09BB0984159505A605B70558F310
:1012E00006C0B801110F880B990B0E9417106EEE03
:1012F00072E080E090E00E94D9069091860680918D
:10130000AB02981771F08EEF91E00E94A90D6091E9
:1013100086066093AB028EE991E00E94871F0E94CF
:101320000307E0E3AE2EE1E0BE2EF0E2EF2EA4E1F3
:10133000FA2E99249394BAE28B2E10E2712E0DE2CC
:10134000602EF50181915F01893509F0D8C070EFF9
:10135000472E4E0C07E816E0512C842D850D90E0A9
:1013600083569E4F0E946F1FF80181938F01539403
:10137000F8E05F12F2CFB60187E896E00E94460FD0
:10138000882369F12A8130E0C901982F8827990FB5
:10139000990F990F698128E0629FB00111249C0187
:1013A000262B372B809187068031E1F4688570E029
:1013B0008F81AB01481B5109CA019695982F882748
:1013C000979587950E94F21F60517109207F53E025
:1013D000220F331F5A95E1F7620F731F04C060E8B4
:1013E00074EE01C0B901613854EE75070CF487C082
:1013F000072E000C880B990B0E943F1E20E030E066
:1014000040E05CE30E949E1E1B012C0120E030E0C6
:101410004EEF52EC0E94381E882309F470C020E081
:1014200030E04AEA52E4C201B1010E94381E88232A
:1014300009F465C016EF1F0D109303051092020505
:101440008091000587708862809300058091010576
:10145000806E80930105209204053092050540922C
:10146000060550920705909208058DEF94E00E94C2
:101470000D0E109303058092020580910005877080
:10148000806480930005809101058F71806C80934A
:10149000010548E050E067E876E084E095E00E94CE
:1014A000F3208DEF94E00E940D0E88EF582E5E0C15
:1014B0000BE111E0852D90E083569E4F0E946F1F37
:1014C00091E0980FF801923010F0808301C0708293
:1014D000F8018081803210F0813810F0F8016082CC
:1014E00053940F5F1F4FE510E5CFF092A0046BE11E
:1014F00071E08AE994E00E9414020E940D0EF394B8
:10150000F0E1EF0E2CE1F2121CCF6091A60288E50B
:1015100094E00E94D0010E940D0E60E371E08CED1A
:1015200094E00E9414020E940D0E6CE070E089E7C6
:1015300094E00E94C3010E940D0E60EE73E984E006
:1015400090E00E94D90660960FB6F894DEBF0FBEF9
:10155000CDBFDF91CF911F910F91FF90EF90DF9062
:10156000CF90BF90AF909F908F907F906F905F9043
:101570004F903F902F9008950C94B70DCF932FE08C
:1015800043E06FEF80E00E94880D6FE472E00E94FC
:101590001402EEE1F5E083818770806183838481AA
:1015A0008F71806C848381E087831086CF010E94D5
:1015B00054048FE00E945D104FE452E061E18FEF30
:1015C0000E94400EC091AF0226E043E06FEF80E042
:1015D0000E94880D6C2F0E94D0010E94540486E066
:1015E0000E945D10CF910C940307CF938091AD02C0
:1015F00081FD1FC00E94BE0A8091AD028160809370
:10160000AD02C4E02AE143E06FEF80E00E94880D64
:1016100062E00E94D0010E9454048BE10E945D10A0
:10162000811102C0C15071F78091AD028260809338
:10163000AD02CF9108957F928F929F92AF92BF9209
:10164000CF92DF92EF92FF920F931F93CF93DF938E
:10165000CDB7DEB76A970FB6F894DEBF0FBECDBF29
:101660008DE192E00E94A90D8DE991E00E946F1F2B
:10167000182F8093A6028EE991E00E946F1F80933D
:1016800086068093AB021A3038F01092A60260E012
:101690008DE991E00E94871F80EE90E00E94DF0DAF
:1016A000809186060E94010F809155039091560308
:1016B0000E94281310925303109254038E010F5F5F
:1016C0001F4FFF24F394B801809155039091560366
:1016D0000E947F0E882309F457C067E0C8010E946A
:1016E000101398858913EFCF80914F03811125C086
:1016F00080915503909156030E94DA13B8018091AE
:101700005503909156030E94BB1340E064EB809117
:101710005503909156030E94871380915503909131
:1017200056030E943413E82E80915503909156037E
:101730000E94DA13EE2009F463C1E0905003C8015F
:101740000E94A90F8E1518F48091500303C0C801A0
:101750000E94A90F80935003809153038F5F809361
:1017600053038981883209F44EC138F4803109F479
:101770004AC1823209F0A7CF46C18B3309F443C175
:10178000823409F0A0CF3FC180E090E3A1E1B0E056
:101790008093A7029093A802A093A902B093AA02F3
:1017A0000E94FC1550E1E52ED12CF12C8F2D8D0DD2
:1017B00090E083569E4F0E946F1F90EE980F9136D7
:1017C00008F08FE50E94080E8FE0F81619F080E20D
:1017D0000E94080EF394E0E1FE12E8CFDE0E8FE4E3
:1017E00092E00E94A90DEA94E110DFCF0E94481612
:1017F00084E292E00E94A90D90E3C92E91E0D92ED7
:1018000020E1F22E3FE7832E4CE0942EF6018191E9
:101810006F01893509F0DBC087E8A82E86E0B82E75
:10182000E12C8F2D8E0D90E083569E4F0E946F1FEE
:10183000F50181935F01E394F8E0EF12F2CF87E8BE
:1018400096E00E94A90F8C3009F4C1C087E896E0A9
:101850000E94A90F8C3009F48FC0B80187E896E088
:101860000E94460F882309F487C080918706803143
:1018700009F482C08D8280915503909156030E9495
:10188000DA1367E876E080915503909156030E9441
:10189000BB1340E06EE480915503909156030E9483
:1018A000871340E06B8180915503909156030E940D
:1018B000871340E06C8180915503909156030E94FC
:1018C000871380918706803141F040E06D818091DF
:1018D0005503909156030E94871380915503909170
:1018E00056030E94DA1367E876E0809155039091E1
:1018F00056030E94BB1340914F0368E48091550347
:10190000909156030E94871364E170E080E090E0BC
:101910000E94171080914F03882331F06AE070E035
:1019200080E090E00E94171080915503909156033B
:101930000E94DA1380915003909250038D30E0F0B2
:10194000A12CB12C8091530390E0A816B906A4F401
:101950007A2C80915503909156030E942813E12C14
:10196000BE016D5E7F4F80915503909156030E949A
:101970007F0E81114EC057C084E392E00E94970D04
:101980001C8A1B8A1E8A1D8A188E1F8A4AE0B8018B
:101990008CE090E00E944C1BF80101900020E9F7D8
:1019A0003197AF01401B510BB801CE0143960E9405
:1019B0001811CE0143960E946A0ECE0143960E94F2
:1019C000891164E670E080E090E00E94D906E0E1D1
:1019D000FE0EF0E9FF121ACF6A960FB6F894DEBF3A
:1019E0000FBECDBFDF91CF911F910F91FF90EF9070
:1019F000DF90CF90BF90AF909F908F907F90089591
:101A0000F0924F039ACE809154038F5F80935403DA
:101A10005ACE7E101DC067E0CE0143960E9410137F
:101A20009A8D891315C0E0905003CE0143960E9411
:101A3000A90F8E1518F48091500304C0CE0143966F
:101A40000E94A90F809350038FEFA81AB80A7ACF8B
:101A5000E3947E1440F384CF3FB7F89480916505FA
:101A600090916605A0916705B091680526B5A89B81
:101A700005C02F3F19F00196A11DB11D3FBFBA2F20
:101A8000A92F982F8827820F911DA11DB11DBC0180
:101A9000CD0142E0660F771F881F991F4A95D1F745
:101AA00008950895CF92DF92EF92FF920F931F93C4
:101AB000CF93DF936C017A018B01C0E0D0E0CE15AB
:101AC000DF0581F0D8016D918D01D601ED91FC917A
:101AD0000190F081E02DC6010995892B11F0219626
:101AE000EECF7E01C701DF91CF911F910F91FF9043
:101AF000EF90DF90CF90089582EB92E00E94371232
:101B000021E0892B09F420E0822F08950E94E6202D
:101B1000EEE1F5E09091AE029183828366832583A6
:101B200084814770807E482B4483CF0108950097BD
:101B300069F0FC0101900020E9F73197AF01481BE3
:101B4000590BBC0182EB92E00C94520D80E090E0C6
:101B50000895CF93DF930E94970DEC018DE492E0FE
:101B60000E94970D8C0F9D1FDF91CF910895E2EB9E
:101B7000F2E0A089B18982E08C93A485B5851C929E
:101B8000A685B78580E18C93108EA489B58986E0FF
:101B90008C93A289B3898C9180618C93A289B3893B
:101BA0008C9188608C93A289B3898C9180688C9386
:101BB0000288F389E02D80818F7D808308950F93C3
:101BC0001F93CF93DF938C01C0E0D0E0F801EC0FBE
:101BD000FD1F6491662341F082EB92E00E94A11206
:101BE000892B11F02196F2CFCE01DF91CF911F9179
:101BF0000F910895CF93DF930E94DF0DEC018DE4E8
:101C000092E00E94970D8C0F9D1FDF91CF91089558
:101C1000682F82EB92E00C94A112FC018091AE023D
:101C200081839481907F916094838091AD0280FF45
:101C300003C0CF010C94540480E00895CF92DF924A
:101C4000EF92FF920E946C026B017C0126E143E05F
:101C50006FEF80E00E94880DFC0184818F71806AA3
:101C600084838381877080628383C782D086E18684
:101C7000F286CF01FF90EF90DF90CF900C94540448
:101C8000CF93DF93262F8F3F11F0EA0102C0C0E50A
:101C9000D2E040E0682F80E00E94880DBE010E94E3
:101CA0001402DF91CF910C945404CF93DF938F3FB4
:101CB00011F0EB0102C0CBEAD1E024E240E0682F52
:101CC00080E00E94880DBE010E94DC01DF91CF916F
:101CD0000C945404CF93DF93FC01448155816081BF
:101CE000718182EB92E00E94520DEC018DE492E052
:101CF0000E94970D8C0F9D1FDF91CF910895BF9289
:101D0000CF92DF92EF92FF920F931F93CF93DF93C7
:101D1000EC016B018D85811105C0CE010E94DA13A3
:101D2000811105C01B861D861C8680E060C040E0D6
:101D300060EFCE010E94871301E0E12CB12C11E08D
:101D4000CE010E943413F82ECE010E94341391E08C
:101D5000F91203C08130B1F434C02E2D30E0F812F6
:101D60001BC08B85181738F4FE01E20FF31F838127
:101D7000802341F402C0811729F0F12C193058F466
:101D80001C8709C0FE01EE0DF11D8381802B83832A
:101D9000FF24F39409C0B12EFE01E20FF31F9381DB
:101DA000802F8095892383836F2DCE010E94581345
:101DB0001F5F000F11F4E39401E087E08E1508F037
:101DC000BFCF113408F4AECFBB86B11002C081E0A2
:101DD0008D878B81882309F4A5CFDE011396F60148
:101DE0002B968D918193CA17DB07D9F781E0DF919C
:101DF000CF911F910F91FF90EF90DF90CF90BF9008
:101E00000895CF92DF92EF92FF920F931F93CF939B
:101E1000DF93CDB7DEB7A1970FB6F894DEBF0FBE44
:101E2000CDBF282F30E040E050E019A28E010F5DB9
:101E30001F4F8AE0C82ED12CE12CF12CCA01B90128
:101E4000A70196010E94D01F605DF80162938F0187
:101E5000211531054105510589F7CF010E94970DE4
:101E60008C018DE492E00E94970D800F911FA19646
:101E70000FB6F894DEBF0FBECDBFDF91CF911F919B
:101E80000F91FF90EF90DF90CF9008958F929F92E7
:101E9000AF92BF92CF92DF92EF92FF920F931F9378
:101EA000CF93DF938C01EB01809155039091560302
:101EB0000E94DA13882309F43DC0B80180915503CC
:101EC000909156030E94BB1340E06EEB8091550346
:101ED000909156030E9487138E015E0189E0A80E3F
:101EE000B11C809055039090560388E0C82ED12CE9
:101EF000F12CEE24E394C4010E9434138111FE28D6
:101F0000EE0CE1E0CE1AD108B1F7F801F1928F01A1
:101F1000EA15FB0531F780915503909156030E9415
:101F2000DA13813039F468E0CE010E94101391E099
:101F30002885281390E0892FDF91CF911F910F9171
:101F4000FF90EF90DF90CF90BF90AF909F908F90D9
:101F50000895CF93DF93CDB7DEB729970FB6F894E6
:101F6000DEBF0FBECDBFFC0120812031D1F0BE010C
:101F70006F5F7F4F0E94460F882389F08D818F33DA
:101F800061F020F48F3159F489E00CC08F3519F0DD
:101F90008F3739F004C08BE005C08AE003C080E0D1
:101FA00001C08CE029960FB6F894DEBF0FBECDBFFE
:101FB000DF91CF910895CF93DF9390E0FC01EB5137
:101FC000FE4F2491FC01EF52FE4F8491882361F172
:101FD00090E0880F991FFC01EF55FE4FC591D491F9
:101FE000FC01E956FE4FA591B491611109C09FB75C
:101FF000F8948881209582238883EC912E230BC04E
:10200000623061F49FB7F8948881322F3095832332
:102010008883EC912E2B2C939FBF06C08FB7F8942A
:10202000E8812E2B28838FBFDF91CF9108958F9267
:102030009F92AF92BF92CF92DF92EF92FF926B018D
:102040007C010E942C0D4B015C01C114D104E10400
:10205000F104F1F00E942C0DDC01CB0188199909E3
:10206000AA09BB09883E9340A105B10570F321E0A0
:10207000C21AD108E108F10888EE880E83E0981EA4
:10208000A11CB11CC114D104E104F10419F7DDCF86
:10209000FF90EF90DF90CF90BF90AF909F908F9088
:1020A00008952FB7F8946091610570916205809151
:1020B0006305909164052FBF0895CF92DF92EF9250
:1020C000FF92CF93DF93D82F0E9451106B017C01B8
:1020D00081E0D11180E080934405C0E00E9451105E
:1020E000DC01CB018C199D09AE09BF09803D9740E9
:1020F000A105B10590F4C11110C0A8950E9461021C
:102100000E945B02809143058770833039F7C1E0FC
:10211000809144058D13E1CFE1CF8C2FDF91CF91DA
:10212000FF90EF90DF90CF9008951F920F920FB61F
:102130000F9211242F933F938F939F93AF93BF934D
:102140008091610590916205A0916305B09164054D
:102150003091600523E0230F2D3720F40196A11D57
:10216000B11D05C026E8230F0296A11DB11D2093C5
:1021700060058093610590936205A0936305B09319
:1021800064058091650590916605A0916705B09101
:1021900068050196A11DB11D8093650590936605A4
:1021A000A0936705B0936805BF91AF919F918F9100
:1021B0003F912F910F900FBE0F901F9018950F9386
:1021C0001F93CF93DF93EC0188819981009729F0C9
:1021D0002A813B812617370788F48B016F5F7F4F79
:1021E0000E942020009761F0998388831B830A83D3
:1021F0002C813D81232B11F4FC01108281E001C070
:1022000080E0DF91CF911F910F910895CF93DF93DD
:10221000EC0188819981009711F00E94661A198259
:1022200018821D821C821B821A82DF91CF91089531
:10223000EF92FF920F931F93CF93DF93EC017B01FB
:102240008A01BA010E94DF10811104C0CE010E94F0
:10225000061107C01D830C83B701888199810E94F4
:10226000FC20CE01DF91CF911F910F91FF90EF9055
:102270000895EF92FF920F931F93CF93DF93CDB703
:10228000DEB729970FB6F894DEBF0FBECDBF8C0125
:10229000862FF80111821082138212821582148215
:1022A00040E19E012F5F3F4F7901B90190E00E940C
:1022B000741BF70101900020E9F73197AF014E1927
:1022C0005F09B701C8010E94181129960FB6F8944A
:1022D000DEBF0FBECDBFDF91CF911F910F91FF9059
:1022E000EF900895CF93DF93EC01FB0186179707DA
:1022F00061F0608171816115710529F0448155811A
:102300000E94181102C00E940611CE01DF91CF91E8
:102310000895FC01808191810C94661A1F920F929E
:102320000FB60F9211242F933F934F935F936F93A8
:102330007F938F939F93AF93BF93EF93FF93E0911E
:102340002601F09127010995FF91EF91BF91AF917F
:102350009F918F917F916F915F914F913F912F91BD
:102360000F900FBE0F901F9018951F920F920FB6EF
:102370000F9211242F933F934F935F936F937F930B
:102380008F939F93AF93BF93EF93FF93E0912401BB
:10239000F09125010995FF91EF91BF91AF919F9128
:1023A0008F917F916F915F914F913F912F910F90FE
:1023B0000FBE0F901F9018951F920F920FB60F929D
:1023C00011242F933F934F935F936F937F938F933A
:1023D0009F93AF93BF93EF93FF9382EB92E00E94A2
:1023E0007F12FF91EF91BF91AF919F918F917F915C
:1023F0006F915F914F913F912F910F900FBE0F9072
:102400001F901895089580E090E00895FC01538D89
:10241000448D252F30E0842F90E0821B930B5417BE
:1024200010F0CF96089501970895FC01918D828D4B
:10243000981761F0828DDF01A80FB11D5D968C9118
:10244000928D9F5F9F73928F90E008958FEF9FEF23
:102450000895FC01918D828D981731F0828DE80FDF
:10246000F11D858D90E008958FEF9FEF0895FC0199
:10247000918D228D892F90E0805C9F4F821B910966
:102480008F739927089580E090E0892B29F00E94AE
:102490007C0D81110C94000008951F920F920FB6CD
:1024A0000F9211242F938F939F93EF93FF93E091BB
:1024B000C202F091C3028081E091C802F091C9028A
:1024C00082FD12C090818091CB028F5F8F7320912B
:1024D000CC02821751F0E091CB02F0E0EE54FD4FB8
:1024E000958F8093CB0201C08081FF91EF919F91E6
:1024F0008F912F910F900FBE0F901F901895FC0198
:10250000848DDF01A80FB11DA35ABF4F2C91848D7C
:1025100090E001968F739927848FA689B7892C93B1
:10252000A089B1898C91837080648C93938D848D04
:10253000981306C00288F389E02D80818F7D808307
:102540000895EF92FF920F931F93CF93DF93EC01C7
:1025500081E0888F9B8D8C8D981305C0E889F9895F
:10256000808185FD26C0F62E0B8D10E00F5F1F4F7A
:102570000F731127E02E8C8DE8120CC00FB607FCEC
:10258000FACFE889F989808185FFF5CFCE010E94D5
:102590007F12F1CF8B8DFE01E80FF11DE35AFF4F43
:1025A000F0829FB7F8940B8FEA89FB898081806263
:1025B0000AC09FB7F894EE89FF896083E889F9899A
:1025C00080818370806480839FBF81E090E0DF9191
:1025D000CF911F910F91FF90EF900895CF93DF93CC
:1025E000EC01888D8823C9F0EA89FB89808185FD0B
:1025F00005C0A889B9898C9186FD0FC00FB607FC6C
:10260000F5CF808185FFF2CFA889B9898C9185FFAC
:10261000EDCFCE010E947F12E7CFDF91CF910895D9
:10262000DC0180E0615098F02D91982F9227E92FDE
:10263000EF70F0E0E750FE4F249192959F70E92FE4
:10264000F0E0E75FFD4FE491822F8E27EBCF0895F6
:10265000FC01138615861486DC011B9633961E92A8
:10266000AE17BF07E1F70895FC0190810180F28168
:10267000E02DF8948181892B81832281892F809597
:1026800028232283A7E0B0E01197F1F7218182236C
:102690008183A3E2B0E01197F1F780817894EFECA9
:1026A000F0E03197F1F7982381E009F480E0089594
:1026B000FC0190810180F281E02D892F809560FFDF
:1026C00012C0F8942281822382838181892B8183A5
:1026D000A3E2B0E01197F1F78281982B928378946E
:1026E00087ED90E011C0F89422818223828381815A
:1026F000892B8183AFEFB0E01197F1F78281982B9E
:10270000928378948FE090E00197F1F70895DF923B
:10271000EF92FF920F931F93CF93DF93EC01D62E8E
:10272000E42E08E010E0FF24F39461E08D2D8F216A
:1027300009F460E0CE010E945813FF0C015011090A
:10274000A1F7E11010C0F894E981FA8191818881A4
:10275000809589238183E981FA819281888180959E
:10276000892382837894DF91CF911F910F91FF90FD
:10277000EF90DF900895EF92FF920F931F93CF9306
:10278000DF938C017B0140E065E50E948713E70140
:1027900088E0E80EF11C699140E0C8010E948713AF
:1027A000CE15DF05C1F7DF91CF911F910F91FF90FB
:1027B000EF900895DC012C911196ED91FC91129708
:1027C000F8948181922F90958923818378948DE765
:1027D00043E050E0815021F1DA011197F1F73081A7
:1027E0003223C1F3F8948281892382838181822BF1
:1027F00081837894ABE7B7E01197F1F7F894818182
:102800009823918383E191E00197F1F78081282358
:1028100081E009F080E07894E3E6F6E03197F1F7A3
:102820000895BF92CF92DF92EF92FF920F931F9382
:10283000CF93DF9300D01F92CDB7DEB70E94511027
:1028400000918006109181062091820630918306C6
:10285000DC01CB01801B910BA20BB30B813A9B4B8C
:10286000AD40B105A0F00E945110609380067093B6
:102870008106809382069093830686E00E94AB03D4
:102880008332E1F485E00E94AB038036B9F486E040
:102890008B8300E010E0CC24CA94DD24D39463E061
:1028A000E62E62E0F62E87E10E94AB0380FD97C121
:1028B0009B8191509B83911106C091C188E291E068
:1028C0000E947F02E4CF21E041E060E070E080E61A
:1028D0000E943F038983813220F082EE0E94B1037F
:1028E000198221E049816FE375E081E60E943F0390
:1028F00060E487E20E94710330914205832F869540
:10290000869586958A3108F089E132FD03C097E00B
:10291000980F01C090E229819213C5CF932F937035
:10292000923009F620914305922F977099839091E8
:1029300044059A83B090400590913F054091410530
:1029400050917C06506850937C065091AE0245131E
:1029500043C090E03770BC0153E0660F771F5A9573
:10296000E1F7362B30934205FC01E15CFA4F178208
:1029700023FF15C081E2EFE3F5E0AEE1B5E00190A1
:102980000D928A95E1F7277F2061209322054093DD
:102990001F05B09220058EE195E00E9454049091AD
:1029A000430594FD14C02981233089F480914405A6
:1029B00021EF280F233008F043C075CF813009F490
:1029C000EBC08A3009F46FCF8C3109F46CCF8FE300
:1029D00095E00E94B30567CF4F3F09F064CF89812E
:1029E000833049F580917B0682FF04C02A8127301D
:1029F00009F459CF8A81883009F455CF843109F020
:102A000052CF8091AF0298134ECF0E945110737035
:102A1000882799270E9417109091AF02998325E18A
:102A200043E06FEF8B2D0E94880D69810E94D001D9
:102A30000E941C0438CF8091AF02981334CFC7CFC7
:102A40002A81243009F42FCF2A812830E9F480919B
:102A50007B06898380FF27CF8FE395E00E944A029F
:102A60008F3F09F420CF8F5F8F3F09F41CCF9091E7
:102A7000B002891708F017CF998191FD14CF809388
:102A8000B002B092AF020FCF2A81283141F429E180
:102A900043E06FEF8B2D0E94880D61E0C7CF2A8144
:102AA000293171F480917B0683FFFDCE877F80936F
:102AB0007B068FE395E00E944A0280937D06F3CE69
:102AC0002A812E3109F4EFCE2D3159F42FE143E064
:102AD0006FEF80E00E94880D60E07FEF0E94C301ED
:102AE000A7CF20914005211176C08D3059F498E090
:102AF00088E10FB6F894A895809360000FBE90937C
:102B00006000FFCF8B3179F48FE395E00E944A0299
:102B100091E0811101C090E08091AD0290FB80F9BD
:102B20008093AD02C0CE863099F49091460581E045
:102B3000992319F09D3409F080E08093AC0241E0C4
:102B400050E063E071E08CEA92E00E94771FABCE28
:102B5000833119F40E94BE0AA6CE823119F40E9474
:102B60001E0EA1CE823009F029CF22E043E06FEFA4
:102B700080E00E94880DFC0184818F71806A8483CB
:102B80008381877080628383C782D086E186F286E4
:102B9000CF010E94540487CE0115110509F483CE9C
:102BA000929596959770953049F46091460570918D
:102BB000470580914805909149050AC0911105C0CB
:102BC00086E495E00E940D1B03C060E070E0CB013D
:102BD0000E94000068CE8A3109F0F9CE64CE0F90D1
:102BE0000F900F90DF91CF911F910F91FF90EF9079
:102BF000DF90CF90BF900895EF92FF920F931F93B5
:102C0000CF93DF9300D000D000D0CDB7DEB700E186
:102C1000F12C10E08F2D810F90E083569E4F0E9483
:102C20006F1FE82E8FE08E1520F086E592E00E945F
:102C3000970D6E2DCE0101960E9439114D815E8156
:102C400069817A8182EB92E00E94520DCE01019659
:102C50000E9489111F3021F088E592E00E94970DB3
:102C60001F5F1031B9F680E1F80E8FE492E00E9408
:102C7000A90D015071F626960FB6F894DEBF0FBE6F
:102C8000CDBFDF91CF911F910F91FF90EF900895ED
:102C90003F924F925F926F927F928F929F92AF92EC
:102CA000BF92CF92DF92EF92FF920F931F93CF9339
:102CB000DF93CDB7DEB764970FB6F894DEBF0FBED3
:102CC000CDBF83E693E00E9428138AE592E00E943C
:102CD000A90D512CE12CF12C8E010F5F1F4F59E5EE
:102CE000452E6EE4362E67E876E083E693E00E9498
:102CF0007F0E882309F42AC181E792E00E94970D94
:102D0000188A1F861A8A198A1C8A1B8A40E050E09A
:102D10006FE472E0CE010F960E94181147E8842EEE
:102D200046E0942E64013601F6018081803108F07E
:102D300041C01A8619861C861B861E861D86BE010A
:102D4000615F7F4FCE0109960E9472114AE0B8017F
:102D500080E090E00E944C1BF80101900020E9F710
:102D60003197E01BF10BD9F0AD84BE84AE0EBF1ECF
:102D7000B501CE0109960E94DF10882361F02985F4
:102D80003A858D859E85B801820F931F0E94FC2095
:102D9000BE86AD8604C0CE0109960E940611BE0112
:102DA000675F7F4FCE010F960E947211CE01099688
:102DB0000E948911FFEFCF1ADF0AF3016081CE0173
:102DC00009960E9439111A8219821C821B821E8266
:102DD0001D82BE01615F7F4FC8010E9472118D8507
:102DE0009E8569847A846114710409F4D8C00097BF
:102DF000B1F0AD80BE80A80EB91EB501C8010E9419
:102E0000DF10882309F4CBC029813A818D819E810E
:102E1000B301820F931F0E94FC20BE82AD82B801D5
:102E2000CE010F960E947211C8010E948911CE0135
:102E300009960E948911FFE8CF16F6E0DF0609F037
:102E400072CFCF84D888C114D10469F0F601808193
:102E5000882349F0082E000C990B0E94EB20F60104
:102E600081936F01F3CFCE010F960E946A0ECE01BF
:102E70000F960E948911F7E0FE1508F45AC0F12C54
:102E800030E1B32E27E8C22E26E0D22EA12C8B2DC6
:102E90008A0D90E083569E4F0E946F1FF60191911C
:102EA0006F01981307C0A394F8E0AF12F0CFEF2D95
:102EB000F0E03BC0F39480E1B80EE0E9BE12E2CF4F
:102EC00088E0F812F4CF9DEAA92EBB24B394C12C5C
:102ED000C5010E946F1F8F3F09F065C06BEB72E068
:102EE00081E793E00E94DC010E940D0E69E972E027
:102EF00081E793E00E94DC010E940D0ED12CC601F7
:102F00000196A82EA29480EFA822B12CF401619121
:102F10004F018A2D8B0D90E083569E4F0E94871F94
:102F2000B394F8E0BF12F2CFF601E05DFE4F4082AD
:102F300004C08EE792E00E94A90D909188068091CE
:102F40008906890F580E5F0CE394CDCEE11006C0C0
:102F50006AE972E080E391E00E94FC2050928606CC
:102F60006E2D8BEB94E00E94D0010E940D0E6496B2
:102F70000FB6F894DEBF0FBECDBFDF91CF911F918A
:102F80000F91FF90EF90DF90CF90BF90AF909F9008
:102F90008F907F906F905F904F903F900895C80101
:102FA0000E9406113CCFC394E0E1AE0EB11CF8E0E4
:102FB000CF128ECF3092380162EA72E081E793E05F
:102FC0000E94DC010E940D0EB8CFCF93DF93FC016D
:102FD000108211821282148215821682DC011796E9
:102FE0008AE1ED0119928A95E9F782E08383DF9106
:102FF000CF910895CF93DF93E2EBF2E01382128238
:1030000088EE93E0A0E0B0E084839583A683B78345
:1030100080E891E09183808385EC90E095878487B8
:1030200084EC90E09787868780EC90E0918B808B92
:1030300081EC90E0938B828B82EC90E0958B848B7B
:1030400086EC90E0978B868B118E128E138E148EE9
:103050008FE395E00E94E5178EE195E00E94E51769
:103060008DEF94E00E94E517EDEFF4E08AE08683AF
:1030700015828CED94E00E94E517ECEDF4E082E11E
:103080008683CFE2C5838BEB94E00E94E517EBEBE0
:10309000F4E083E18683C5838AE994E00E94E51722
:1030A000EAE9F4E084E18683C58389E794E00E943D
:1030B000E517E9E7F4E08CE18683C58380E596E0D7
:1030C0000E94E517E0E5F6E08EE18683C5838FE296
:1030D00096E00E94E517EFE2F6E083E2868381E165
:1030E00085838EE096E00E94E517EEE0F6E088E248
:1030F0008683C58388E594E00E94E517E8E5F4E05F
:1031000086E48683C5838DEE95E00E94E517EDEE9B
:10311000F5E087E48683C58387E394E00E94E517A2
:10312000E7E3F4E080E58683C58386E194E00E94CE
:10313000E517E6E1F4E081E58683C58385EF93E05A
:103140000E94E517E5EFF3E08AE58683C58384ED09
:1031500093E00E94E517E4EDF3E08BE58683C583F9
:1031600083EB93E00E94E517E3EBF3E08CE58683C5
:10317000C58382E993E00E94E517E2E9F3E08DE57B
:103180008683C5838CEC95E00E94E517ECECF5E0B6
:103190008EE58683C5838BEA95E00E94E517EBEA0E
:1031A000F5E08FE58683C58381E793E00E94E5170C
:1031B000E1E7F3E080E68683C5838AE895E00E9434
:1031C000E517EAE8F5E081E68683C58389E695E0C0
:1031D0000E94E517E9E6F5E083E6868386E28583CB
:1031E00060E084E00E94DB0FE9EEF1E0E491C3E6E9
:1031F000D3E0E883E5EDF1E0E491F0E0EE0FFF1FAE
:10320000E953FE4F859194919A838983CE010E9460
:103210002813EFE4F3E0D783C6831482158210826B
:1032200089E0818381E082838383138A128ADF911C
:10323000CF910895789484B5826084BD84B581600F
:1032400084BD85B5826085BD85B5816085BD809171
:103250006E00816080936E001092810080918100E9
:1032600082608093810080918100816080938100E1
:10327000809180008160809380008091B1008460A3
:103280008093B1008091B00081608093B000809104
:103290007A00846080937A0080917A0082608093C3
:1032A0007A0080917A00816080937A0080917A0020
:1032B000806880937A001092C100A8950E94BC0A91
:1032C0000E94B70DC0E1D0E0F12CFE01F595E79525
:1032D000E05EFD4FE491C0FFE295EF70E83008F04A
:1032E00053C0F0E0E05EFD4FF4908F2D0E94080E79
:1032F0002196C23FD10549F789E192E00E94FA0D7B
:103300008091AD028D7F8093AD020E941B0B41E046
:1033100050E063E071E08CEA92E00E945F1F6FEF83
:1033200081E090E00E94871F80917C068F788093D7
:103330007C0610927206109271068CE291E00E9457
:103340007F0285EF9AE090938506809384060E9421
:1033500051100E9451100E9461020E945B02A895C8
:1033600080917B0682FFF5CF0E94D206A895A89592
:103370000E94610280917B0684FD0E9411140E94CC
:103380005A080E944312F3CF1BEF1E0F00E08F2D4F
:103390000E94080E0F5F0117D0F3AACF0F931F935F
:1033A000CF93DF938230910510F482E090E0E091BA
:1033B0009106F091920620E030E0A0E0B0E0309776
:1033C00019F1408151810281138148175907C8F0D2
:1033D0008417950769F4109731F012960C931297A1
:1033E00013961C9327C0009391061093920622C057
:1033F0002115310519F04217530718F49A01BD0140
:10340000EF01DF01F801DBCF21153105F9F0281BB1
:10341000390B2430310580F48A819B816115710557
:1034200021F0FB019383828304C0909392068093E2
:103430009106FE01329644C0FE01E20FF31F819314
:10344000919322503109398328833AC020918F0605
:1034500030919006232B41F420913B0130913C01A7
:103460003093900620938F062091390130913A01D4
:103470002115310541F42DB73EB740913D015091E2
:103480003E01241B350BE0918F06F0919006E21768
:10349000F307A0F42E1B3F0B2817390778F0AC0177
:1034A0004E5F5F4F2417350748F04E0F5F1F509354
:1034B000900640938F068193919302C0E0E0F0E084
:1034C000CF01DF91CF911F910F910895CF93DF939B
:1034D000009709F481C0FC01329713821282A091F7
:1034E0009106B0919206109781F420813181820F6C
:1034F000931F20918F06309190062817390751F5B8
:10350000F0939006E0938F0667C0ED0120E030E075
:10351000CE17DF0740F44A815B819E0141155105BA
:10352000F1F0EA01F5CFD383C28340815181840F4A
:10353000951FC817D90759F488819981840F951F61
:103540000296918380838A819B8193838283211554
:10355000310529F4F0939206E09391063DC0E9010C
:10356000FB83EA8349915991C40FD51FEC17FD07DE
:1035700061F480819181840F951F0296E9019983FE
:103580008883828193819B838A83E0E0F0E01296B6
:103590008D919C911397009719F0FD01DC01F7CFF5
:1035A0008D919C9111979D012E5F3F4F820F931F2C
:1035B00020918F06309190062817390769F43097CB
:1035C00029F4109292061092910602C01382128280
:1035D000B0939006A0938F06DF91CF910895FC01E0
:1035E00088279927E89421912032E9F3293010F0B7
:1035F0002E30C8F32B3241F02D3239F4689404C0D8
:103600000E946C1B820F911D219120532A30C0F320
:103610001EF4909581959F4F08951F93FC01992763
:103620008827BC01E89411911032E9F3193010F0A9
:103630001E30C8F31B3251F01D3249F4689406C0A5
:103640000E94571B610F711D811D911D1191105317
:103650001A30B0F33EF490958095709561957F4F48
:103660008F4F9F4F1F910895FC0105900020E9F7AF
:10367000809590958E0F9F1F0895FB01DC014150AE
:10368000504048F005900D920020C9F701C01D92EE
:1036900041505040E0F70895BB274A3031F4992358
:1036A00022F4BDE2909581959F4F0C94751B592F84
:1036B000482F372F262F660F771F881F991F660FF9
:1036C000771F881F991F620F731F841F951F660F36
:1036D000771F881F991F08957AE0979F902D879FE5
:1036E000802D910D11240895BB27FB015527AA2792
:1036F000880F991FAA1FA41710F0A41B839550517F
:10370000B9F7A05DAA3308F0A95DA193009779F7F6
:10371000B111B1931192CB010C948E1DABE0B0E0CE
:10372000E4E9FBE10C94991F6C017B018A01FC0127
:1037300017821682838181FFCCC1CE0101963C01A4
:10374000F6019381F70193FD859193FF81917F01AC
:10375000882309F4BAC1853239F493FD859193FF2A
:1037600081917F01853229F4B60190E00E949E1D6F
:10377000E7CF912C212C312CFFE1F315D8F08B32BF
:1037800079F038F4803279F08332A1F4232D20616E
:103790001DC08D3261F0803369F4232D216016C085
:1037A000832D8260382EE32DE4603E2E2AC0F32D57
:1037B000F8601DC037FC2DC020ED280F2A3040F0E6
:1037C0008E32B9F436FC81C1232D2064322E19C00B
:1037D00036FE06C08AE0989E200D1124922E11C05C
:1037E000EAE02E9E200D1124222EF32DF0623F2EB2
:1037F00008C08C3621F4832D8068382E02C08836AC
:1038000041F4F70193FD859193FF81917F0181112F
:10381000B3CF982F9F7D9554933028F40C5F1F4FA2
:103820009FE399830DC0833631F0833771F0833580
:1038300009F059C021C0F801808189830E5F1F4FB4
:1038400088248394912C530113C02801F2E04F0E79
:10385000511CF801A080B18036FE03C0692D70E0D4
:1038600002C06FEF7FEFC5010E94831D4C018201F2
:10387000F32DFF773F2E16C0280122E0420E511C87
:10388000F801A080B18036FE03C0692D70E002C04F
:103890006FEF7FEFC5010E94781D4C01F32DF0689A
:1038A0003F2E820133FC1BC0822D90E088169906C2
:1038B000B0F4B60180E290E00E949E1D2A94F4CFFD
:1038C000F50137FC859137FE81915F01B60190E0EB
:1038D0000E949E1D21102A9421E0821A91088114D1
:1038E000910471F7E8C0843611F0893641F5F8018A
:1038F00037FE07C060817181828193810C5F1F4F09
:1039000008C060817181072E000C880B990B0E5F37
:103910001F4FF32DFF763F2E97FF09C0909580959E
:10392000709561957F4F8F4F9F4FF0683F2E2AE033
:1039300030E0A3010E94DA1D882E861845C0853725
:1039400031F4232D2F7EB22E2AE030E025C0932DB6
:10395000997FB92E8F36C1F018F4883579F0B5C04B
:10396000803719F0883721F0B0C0E92FE061BE2E12
:10397000B4FE0DC0FB2DF460BF2E09C034FE0AC09A
:10398000292F2660B22E06C028E030E005C020E1D5
:1039900030E002C020E132E0F801B7FE07C06081EC
:1039A0007181828193810C5F1F4F06C0608171819C
:1039B00080E090E00E5F1F4FA3010E94DA1D882E69
:1039C0008618FB2DFF773F2E36FE0DC0232D2E7F50
:1039D000A22E891458F434FE0BC032FC09C0832D8A
:1039E0008E7EA82E05C0B82CA32C03C0B82C01C015
:1039F000B92CA4FE0FC0FE01E80DF11D80818033BB
:103A000021F49A2D997EA92E09C0A2FE06C0B39476
:103A1000B39404C08A2D867809F0B394A3FC11C036
:103A2000A0FE06C0B21488F4280C922C9B180EC07D
:103A3000B21460F4B60180E290E00E949E1DB3943F
:103A4000F7CFB21418F42B1802C0982C212CA4FE26
:103A500010C0B60180E390E00E949E1DA2FE17C038
:103A6000A1FC03C088E790E002C088E590E0B601C1
:103A70000CC08A2D867859F0A1FE02C08BE201C0ED
:103A800080E2A7FC8DE2B60190E00E949E1D8914A1
:103A900038F4B60180E390E00E949E1D9A94F7CF1F
:103AA0008A94F301E80DF11D8081B60190E00E9437
:103AB0009E1D8110F5CF222009F442CEB60180E28E
:103AC00090E00E949E1D2A94F6CFF6018681978190
:103AD00002C08FEF9FEF2B96E2E10C94B51F91117E
:103AE0000C940B1F803219F089508550C8F7089547
:103AF000FC010590615070400110D8F780959095B9
:103B00008E0F9F1F0895FC016150704001900110BD
:103B1000D8F7809590958E0F9F1F0895DC01FC01CA
:103B2000672F71917723E1F7329704C07C916D93F1
:103B300070836291AE17BF07C8F308950F931F9368
:103B4000CF93DF93FB01238121FD03C08FEF9FEF14
:103B50002CC022FF16C0468157812481358142172F
:103B6000530744F4A081B1819D012F5F3F4F318302
:103B700020838C93268137812F5F3F4F37832683A5
:103B800014C08B01EC01FB010084F185E02D099547
:103B9000892BE1F6D80116968D919C911797019685
:103BA00017969C938E931697CE01DF91CF911F911C
:103BB0000F910895FA01AA27283051F1203181F19F
:103BC000E8946F936E7F6E5F7F4F8F4F9F4FAF4F25
:103BD000B1E03ED0B4E03CD0670F781F891F9A1F38
:103BE000A11D680F791F8A1F911DA11D6A0F711DEC
:103BF000811D911DA11D20D009F468943F912AE0F8
:103C0000269F11243019305D3193DEF6CF010895DF
:103C1000462F4770405D4193B3E00FD0C9F7F6CF10
:103C2000462F4F70405D4A3318F0495D31FD4052D8
:103C3000419302D0A9F7EACFB4E0A695979587956E
:103C400077956795BA95C9F700976105710508954D
:103C50009B01AC010A2E06945795479537952795F9
:103C6000BA95C9F7620F731F841F951FA01D089591
:103C70000E947A1E08F481E00895E89409C097FB39
:103C80003EF490958095709561957F4F8F4F9F4F33
:103C90009923A9F0F92F96E9BB279395F695879577
:103CA00077956795B795F111F8CFFAF4BB0F11F43A
:103CB00060FF1BC06F5F7F4F8F4F9F4F16C08823E1
:103CC00011F096E911C0772321F09EE8872F762F17
:103CD00005C0662371F096E8862F70E060E02AF058
:103CE0009A95660F771F881FDAF7880F9695879544
:103CF00097F90895990F0008550FAA0BE0E8FEEF19
:103D000016161706E807F907C0F012161306E4079F
:103D1000F50798F0621B730B840B950B39F40A2698
:103D200061F0232B242B252B21F408950A2609F476
:103D3000A140A6958FEF811D811D08950E94B11E9F
:103D40000C94251F0E94171F38F00E941E1F20F0A0
:103D5000952311F00C940E1F0C94141F11240C9435
:103D6000591F0E94361F70F3959FC1F3950F50E0C5
:103D7000551F629FF001729FBB27F00DB11D639F1D
:103D8000AA27F00DB11DAA1F649F6627B00DA11DC3
:103D9000661F829F2227B00DA11D621F739FB00D69
:103DA000A11D621F839FA00D611D221F749F3327D9
:103DB000A00D611D231F849F600D211D822F762F72
:103DC0006A2F11249F5750409AF0F1F088234AF04F
:103DD000EE0FFF1FBB1F661F771F881F91505040BB
:103DE000A9F79E3F510580F00C940E1F0C94591FAB
:103DF0005F3FE4F3983ED4F3869577956795B79542
:103E0000F795E7959F5FC1F7FE2B880F911D96955B
:103E1000879597F9089599278827089597F99F67B7
:103E200080E870E060E008959FEF80EC0895002442
:103E30000A941616170618060906089500240A940F
:103E400012161306140605060895092E0394000C95
:103E500011F4882352F0BB0F40F4BF2B11F460FF24
:103E600004C06F5F7F4F8F4F9F4F089557FD90584D
:103E7000440F551F59F05F3F71F04795880F97FB2E
:103E8000991F61F09F3F79F08795089512161306E8
:103E90001406551FF2CF4695F1DF08C01616170617
:103EA0001806991FF1CF869571056105089408954C
:103EB000E894BB2766277727CB0197F90895DC01A3
:103EC000CB01FC01F999FECF06C0F2BDE1BDF89A25
:103ED000319600B40D9241505040B8F70895F999C9
:103EE000FECF92BD81BDF89A992780B50895DC0177
:103EF000A40FB51F4150504048F0CB01840F951FCF
:103F00002E910E94881F41505040D0F70895262FCF
:103F1000F999FECF92BD81BDF89A019700B40216BF
:103F200039F01FBA20BD0FB6F894FA9AF99A0FBE6D
:103F300008952F923F924F925F926F927F928F924D
:103F40009F92AF92BF92CF92DF92EF92FF920F9328
:103F50001F93CF93DF93CDB7DEB7CA1BDB0B0FB632
:103F6000F894DEBF0FBECDBF09942A8839884888EF
:103F70005F846E847D848C849B84AA84B984C88485
:103F8000DF80EE80FD800C811B81AA81B981CE0F7C
:103F9000D11D0FB6F894DEBF0FBECDBFED01089561
:103FA000A1E21A2EAA1BBB1BFD010DC0AA1FBB1F3D
:103FB000EE1FFF1FA217B307E407F50720F0A21BAF
:103FC000B30BE40BF50B661F771F881F991F1A941C
:103FD00069F760957095809590959B01AC01BD0146
:103FE000CF01089597FB072E16F4009407D077FDB4
:103FF00009D00E94062007FC05D03EF490958195DB
:104000009F4F0895709561957F4F0895AA1BBB1B24
:1040100051E107C0AA1FBB1FA617B70710F0A61BC8
:10402000B70B881F991F5A95A9F780959095BC01E9
:10403000CD010895EE0FFF1F0590F491E02D099436
:10404000A0E0B0E0E6E2F0E20C949D1FEC010097E6
:1040500021F4CB010E94CE19B4C0FC01E60FF71F7A
:104060009C0122503109E217F30708F4A8C0D901D6
:104070000D911C91119706171707B0F00530110527
:1040800008F49BC0C80104978617970708F495C0E9
:1040900002501109061B170B019311936D937C932A
:1040A000CF010E94661A89C05B01A01AB10A4C01B7
:1040B000800E911EA0919106B0919206612C712CF8
:1040C000E12CF12C109709F446C08D919C91119729
:1040D000A815B905B1F56C0142E0C40ED11CCA1493
:1040E000DB0478F14C018A189B08640142E0C40E9D
:1040F000D11C1296BC9012971396AC91B5E0CB16DA
:10410000D10440F0B282A38391828082D9016D9361
:104110007C9309C00E5F1F4F800F911FF90191839F
:104120008083EB2DFA2FE114F10431F0D7011396BF
:10413000FC93EE93129741C0F0939206E0939106A0
:104140003CC06816790608F43C017D0112960D907A
:10415000BC91A02DB7CF80918F06909190068816C4
:104160009906E1F466167706C8F4809139019091BA
:104170003A01009741F48DB79EB740913D015091AF
:104180003E01841B950BE817F907C8F4F0939006DD
:10419000E0938F06F901718360830FC0CB010E9409
:1041A000CE197C01009759F0A801BE010E94F320AE
:1041B000CE010E94661AC70104C0CE0102C080E091
:1041C00090E0CDB7DEB7EEE00C94B91F81E090E04F
:1041D000F8940C9476249111089581568A5108F42C
:1041E000805285580895FB01DC0102C001900D92B8
:1041F00041505040D8F70895FB01DC0101900D9229
:104200000020E1F70895FB01DC014150504048F0E7
:1042100001900D920020C9F701C01D9241505040FD
:10422000E0F70895FB0151915523A9F0BF01DC018E
:104230004D9145174111E1F759F4CD01019000204E
:1042400049F04D9140154111C9F3FB014111EFCFE8
:1042500081E090E001970895AEE0B0E0E2E3F1E2A2
:104260000C94A71F0D891E8986E08C831A8309830D
:104270008FEF9FE79E838D83AE01475E5F4F6F890F
:10428000788DCE0101960E948E1BEF81F885E00F9C
:10429000F11F10822E96E4E00C94C31FAEE0B0E054
:1042A000E4E5F1E20C94A91F85E08C838B899C895D
:1042B0009A838983AE01495E5F4F6D897E89CE0105
:1042C00001960E9403232E96E2E00C94C51F20FD68
:1042D00009C0FC0123FD05C022FF02C07383628375
:1042E00051834083089544FD17C046FD17C0AB01BC
:1042F000BC01DA01FB01AA0FBB1FEE1FFF1F1094C8
:10430000D1F74A0F5B1F6E1F7F1FCB01BA01660FEB
:10431000771F881F991F09C033E001C034E0660F82
:10432000771F881F991F3150D1F7620F711D811DB2
:10433000911D08950F931F93CF93DF938C01C801B4
:104340000E941F24EC0197FD08C00E946F1D892B5D
:10435000B1F7B801CE010E945D24CE01DF91CF916B
:104360001F910F9108958F929F92AF92BF92EF92FB
:10437000FF920F931F93CF93DF938C01D62F7A0177
:10438000B22E0E941F249C0133272B32310531F0BD
:104390002D32310561F48B2D8068B82ED15011F487
:1043A00080E068C0C8010E941F2497FDF9CFCB2D83
:1043B000CD7F2B2D207309F58033F9F4AA24AA941C
:1043C000AD0E09F443C0C8010E941F2497FD3EC0F2
:1043D0009C012F7D33272835310549F4C264D25022
:1043E000A9F1C8010E941F2497FF07C02FC0B6FE85
:1043F00002C0C26001C0C261DA2D812C912C54012F
:1044000020ED280F283080F0C4FF04C0B8010E94BE
:104410005D2419C02A3040F0C6FFF8CF2F7D3FEE53
:10442000320F363098F727504C2FC501B4010E9447
:1044300073214B015C01C260D15059F0C8010E9448
:104440001F2497FFDDCFC1FD04C0AACF812C912C82
:104450005401C7FF08C0B094A09490948094811C2C
:10446000911CA11CB11C2C2FB501A401C7010E94F5
:10447000672181E0DF91CF911F910F91FF90EF9025
:10448000BF90AF909F908F900895A0E2B0E0EBE4D2
:10449000F2E20C949C1F5C01962E7A01F9018E01C8
:1044A0000F5F1F4F680180E2D8011D928A95E9F7DE
:1044B000D50113968C9080E090E0612C712C30E057
:1044C00061E070E083FC259183FE21918F01522EE3
:1044D000211103C080E090E092C02E3511F40097C6
:1044E00051F1432F50E0481759073CF42D3559F14D
:1044F0002D3219F4772009F103C0772009F46AC03E
:10450000452D469546954695D601A40FB11D452DDE
:1045100047708B0102C0000F111F4A95E2F7A801F6
:104520005C91452B4C93651459F0561410F4539438
:10453000E7CF5A94E5CF31E004C07724739401C0EB
:10454000712C0196BFCF772019F08E8180628E8307
:10455000311103C08824839417C0F6019E012F5D9A
:104560003F4F8081809581932E173F07D1F7F2CF7F
:10457000E114F10429F0D7018C93F70131967F0102
:104580009A94812C9920F9F0C5010E941F2497FD6F
:1045900018C0FC01FF2723E0F595E7952A95E1F780
:1045A000EC0DFD1D208130E0AC014770552702C0A5
:1045B000359527954A95E2F720FDDACFB5010E949F
:1045C0005D24811087CFE114F10411F0D7011C9212
:1045D000C80115C0422F469546954695D601A40FB1
:1045E000B11D422F47708B0102C0000F111F4A9569
:1045F000E2F7A8015C91452B4C93622EA2CFA096C6
:10460000EFE00C94B81FA0E0B0E0E9E0F3E20C9416
:104610009C1F6C01EB015A01FC0117821682512C80
:10462000F601E380FE01E3FC8591E3FE8191182F02
:10463000EF01882309F4EEC090E00E946F1D892BE2
:1046400021F0C6010E949A21EBCF153241F4FE0100
:10465000E3FC1591E3FE1191EF01153281F4C601DF
:104660000E941F2497FDD4C0412F50E09C013327A6
:1046700024173507A9F2B6010E945D24CBC01A3277
:1046800039F4E3FC1591E3FE1191EF0101E001C063
:1046900000E0F12C20ED210F2A3080F402606F2D14
:1046A00070E080E090E040E20E947321F62EFE016F
:1046B000E3FC1591E3FE1191EF01ECCF01FF03C084
:1046C000F11003C0A7C0FF24FA94183619F01C3665
:1046D00051F010C0FE01E3FC1591E3FE1191EF01D2
:1046E000183641F408600460FE01E3FC1591E3FE16
:1046F0001191EF01112309F48DC0612F70E088E65C
:1047000090E00E941424892B09F484C000FD07C0A6
:10471000F50180809180C50102965C0102C0812C68
:10472000912C1E3651F4F6014681578160E070E00D
:10473000202FC4010E94672173CF1336A9F401FD15
:1047400002C0FF24F394C6010E941F2497FD60C09D
:104750008114910429F0F4018083C40101964C0175
:10476000FA94F110F0CF50C01B3559F49E01A4010A
:104770006F2DC6010E944522EC01892B09F044C02F
:104780003EC0C6010E949A2197FD42C01F3661F1CA
:1047900028F4143639F1193651F128C0133771F065
:1047A000153701F123C08114910429F0F4016082CE
:1047B000C40101964C01FA94FF2071F0C6010E94D9
:1047C0001F243C0197FD08C00E946F1D892B59F3DF
:1047D000B601C3010E945D2481149104A9F0F40183
:1047E000108212C0006203C0006101C00064202F6B
:1047F000A4016F2DC6010E94B321811105C0F601ED
:104800008381807329F406C000FD0ACF539408CF3A
:10481000552019F0852D90E002C08FEF9FEFCDB7A6
:10482000DEB7EFE00C94B81FFC010590061621F0EE
:104830000020D9F7C00108953197CF010895CF9393
:10484000DF93EC012B8120FF33C026FF0AC02F7BB2
:104850002B838E819F8101969F838E838A8190E036
:1048600029C022FF0FC0E881F9818081082E000C49
:10487000990B009719F420622B831AC03196F983A3
:10488000E8830EC0EA85FB85099597FF09C02B8157
:10489000019611F080E201C080E1822B8B8308C079
:1048A0002E813F812F5F3F4F3F832E83992702C088
:1048B0008FEF9FEFDF91CF910895FB01238120FFC0
:1048C00012C026FD10C08F3F3FEF930761F0828337
:1048D0002F7D20642383268137812150310937833E
:1048E0002683992708958FEF9FEF0895F894FFCFBF
:1048F000FFFFFF00FCE1A8A8FF6E0403035B04D5E3
:10490000029101CB027F041D03E3FF2D384E616D40
:1049100065382D00510D510D8203AB02A3019504A2
:104920004E4E4E4E4E4E4E4E000000930680004FAF
:10493000575F54656D7000004F575F4E616D6500A5
:10494000004A616E4665624D61724170724D6179D7
:104950004A756E4A756C4175675365704F63744E46
:104960006F76446563005E00BC00770100000000C4
:10497000A112520D0612EE12371215122912436CB3
:10498000656172696E6720506F733A2000536574D9
:1049900075700070726573656E746174696F6E2EE8
:1049A0002E2E002573202564202564004665622094
:1049B00032352032303139002564253032642530DB
:1049C0003264004F6E65576972654D61737465722C
:1049D0000025735F256400256420253032643A2564
:1049E0003032643A25303264004155544F004465FA
:1049F00076436865636B53756D20213D2044657671
:104A00004C617374436865636B53756D00626566D2
:104A10006F726500636865636B5265736F6C757464
:104A2000696F6E004368616E67696E6720526573D7
:104A30006F6C7574696F6E20746F3A20000D0A00F8
:104A4000322E332E310030002D004C6F6F6B696EAB
:104A50006720666F72204F572044657669636573DF
:104A600000466F756E64204F7749443A20004F6EC0
:104A70006557697265204275732069737420756586
:104A80006265726675656C6C74004E4E4E4E4E4E8D
:044A90004E4E000086
:00000001FF
