:100000000C94C9020C948B1D0C94641D0C94F10289
:100010000C94F1020C94F1020C94B21D0C94F102B8
:100020000C94F1020C94F1020C94F1020C94F10284
:100030000C94F1020C94F1020C94F1020C94F10274
:100040000C941A1D0C94F1020C94E81C0C94C21C24
:100050000C94F1020C94F1020C94F1020C94F10254
:100060000C94F1020C94F102536176654E616D655A
:100070000044657374726F7920454550524F4D208E
:1000800053656E736F720044657374726F79456562
:1000900070726F6D2053656E736F72206669727334
:1000A0007420506F7300636C656172204545505237
:1000B0004F4D2053656E736F7200436C65617245DE
:1000C0006570726F6D2053656E736F72204164644A
:1000D0007265737320616E64204E616D65004672B7
:1000E00065652053656E736F7220454550524F4DC4
:1000F000200064657374726F792053656E736F723C
:10010000200068775265626F6F7400526573657482
:100110004F6E655769726500646F50726573656EE6
:10012000746174696F6E0073686F77454570726FA4
:100130006D4865780064626730007263763A2067C4
:100140006F74200053656E736F72206E6F74206938
:100150006E204C697374007265636569766520660C
:100160006F722053656E736F723A20004368616E40
:1001700067696E67205265736F6C7574696F6E2066
:10018000746F3A2000636865636B5265736F6C75BA
:1001900074696F6E00446576436865636B53756D73
:1001A0002066726F6D20454550524F4D20005361BF
:1001B00076653A2064656275674C6576656C207477
:1001C0006F203000524632345F4348414E4E454C1A
:1001D00020006265666F7265004D7953656E736FBE
:1001E000727320616C7265616479206163746976F1
:1001F000617465642053657269616C20496E746531
:1002000072666163650073657475700054585F456C
:1002100052520054585F4F4B00487754696D650047
:100220004462675F52657475726E004462675F4C2A
:100230006576656C0052465F4368616E6E656C0062
:1002400050415F4C6576656C0054585F525353497A
:100250000043707554656D7000506172656E744E28
:100260006F646500506173736976654E6F646500F5
:10027000436F6D70696C6544617465006D7950728F
:100280006573656E746174696F6E0053656E645357
:100290007472696E67204368696C64546578744E43
:1002A000616D65200053656E64537472696E6720DA
:1002B0004368696C645465787454656D7020004FB0
:1002C000575F5265736F6C7574696F6E004F575F3F
:1002D0004465765F436E74004F575F436F6E5F4CAB
:1002E00073740050726573656E74204F6E65576944
:1002F0007265002074784552523A200074784F4B52
:100300003A20004D617220323420323032332031B5
:10031000353A32323A3338004175746F5265626F44
:100320006F74004175746F5265626F6F743A20008C
:10033000524632345F50415F4D4158006D794865F7
:10034000617274426561744C6F6F700048656172D0
:100350007462656174204C6F6F7000204E6D3A209E
:1003600000204964783A2000476F6F6454656D70CF
:100370003A200057726F6E672054656D70203C20E4
:100380002D3530206F7572203E2038300057726F47
:100390006E6754656D703A200053617665206E6516
:1003A0007720446576436865636B53756D200077ED
:1003B0006169742037353000322E332E320A002026
:1003C0007C5F5C2F602C0A0702200220B28710039A
:1003D00040012000240222100222020220022200F8
:1003E00022200202202227101341010101032220B2
:1003F00030402030520340221402031052240221C4
:1004000071010010101210122210100224010103B9
:100410002203002001010032203712100121322670
:1004200001284032221210121222432224121001FB
:10043000222470C122240F0F536176654F774944FF
:100440000063546865726D6F4B6E6F776E3A200073
:100450004F6E655769726520427573206973742009
:1004600075656265726675656C6C74004F6E655774
:1004700069726520427573206973742075656265C1
:10048000726675656C6C740053706569636865723B
:100490002069737420766F6C6C00454550524F4D47
:1004A0002066756C6C004E65756573204F5720444F
:1004B00065766963650053617665204E6577204FE8
:1004C0005720446576696365204964783A20004482
:1004D0006576206973206B6E6F776E204964783A79
:1004E0002000466F756E64204F7749443A20000A19
:1004F0004C6F6F6B696E6720666F72204F57204498
:1005000065766963657300454550524F4D20636CB5
:10051000656172656400005EBCE2613FDD83C29C80
:100520007E20A3FD1F41009D23BE46DB65F88C1194
:10053000AF32CA57E97400000000240027002A00E7
:1005400000000000250028002B0000000008000229
:10055000010000030407000000000000000000008C
:1005600000002300260029000404040404040404F9
:10057000020202020202030303030303010204084E
:1005800010204080010204081020010204081020FD
:10059000D11D11241FBECFEFD8E0DEBFCDBF11E0CB
:1005A000A0E0B1E0E4E5F0E502C005900D92A63DC3
:1005B000B107D9F725E0A6EDB1E001C01D92A03446
:1005C000B207E1F712E0C9ECD2E004C02197FE01C6
:1005D0000E941B27C83CD107C9F70E94CD1E0C946E
:1005E00028280C940000942FEAEFF4E030910302E5
:1005F00031838283668325834481487F492B477EEC
:100600004483CF010895AF92BF92CF92DF92EF92D1
:10061000FF920F931F93CF93DF936C017B018B01AC
:10062000040F151FEB015E01AE18BF08C017D107FC
:1006300059F06991D601ED91FC910190F081E02D86
:10064000C6010995892B79F7C501DF91CF911F91DB
:100650000F91FF90EF90DF90CF90BF90AF900895F3
:10066000FC01538D448D252F30E0842F90E0821BB8
:10067000930B541710F0CF96089501970895FC013D
:10068000918D828D981761F0A28DAE0FBF2FB11D95
:100690005D968C91928D9F5F9F73928F90E00895ED
:1006A0008FEF9FEF0895FC01918D828D981731F0A7
:1006B000828DE80FF11D858D90E008958FEF9FEFFB
:1006C0000895FC01918D228D892F90E0805C9F4FD1
:1006D000821B91098F739927089587E092E00E9409
:1006E000610321E0892B09F420E0822F0895FC01A9
:1006F000A48DA80FB92FB11DA35ABF4F2C91848D83
:1007000090E001968F739927848FA689B7892C93DF
:10071000A089B1898C91837080648C93938D848D32
:10072000981306C00288F389E02D80818F7D808335
:100730000895EF92FF920F931F93CF93DF93EC01F5
:1007400081E0888F9B8D8C8D98131AC0E889F98978
:10075000808185FF15C09FB7F894EE89FF8960837B
:10076000E889F98980818370806480839FBF81E0FC
:1007700090E0DF91CF911F910F91FF90EF9008953E
:10078000F62E0B8D10E00F5F1F4F0F731127E02E19
:100790008C8D8E110CC00FB607FCFACFE889F98951
:1007A000808185FFF5CFCE010E947703F1CFEB8DDD
:1007B000EC0FFD2FF11DE35AFF4FF0829FB7F89425
:1007C0000B8FEA89FB8980818062CFCF0F931F93C3
:1007D000CF93DF938C01D0E0C0E0F801EC0FFD1F58
:1007E0006491662341F087E092E00E949903892B8F
:1007F00011F02196F2CFCE01DF91CF911F910F9191
:100800000895682F87E092E00C949903CF93DF93CB
:10081000EC01888D8823B9F0AA89BB89E889F98918
:100820008C9185FD03C0808186FD0DC00FB607FC4D
:10083000F7CF8C9185FFF2CF808185FFEDCFCE0180
:100840000E947703E9CFDF91CF91089580E090E097
:10085000892B29F00E946D0381110C9400000895EA
:1008600090E0FC01E65BFA4F2491FC01E458FA4F5A
:100870003491FC01E859FA4FE491EE23C9F02223A8
:1008800039F0233001F1A8F4213019F1223029F197
:10089000F0E0EE0FFF1FE05CFA4FA591B4918FB727
:1008A000F894EC91611126C030953E233C938FBFA4
:1008B00008952730A9F02830C9F0243049F78091F5
:1008C00080008F7D03C0809180008F7780938000AF
:1008D000DFCF84B58F7784BDDBCF84B58F7DFBCF31
:1008E0008091B0008F778093B000D2CF8091B0001C
:1008F0008F7DF9CF3E2BDACFCF93DF9390E0FC01D1
:10090000E458FA4F249188599A4FFC018491882326
:10091000D1F090E0880F991FFC01EA5CFA4FA59195
:10092000B491FC01E05CFA4FC591D49161110EC005
:100930009FB7F8948C91E22FE0958E238C932881B9
:10094000E223E8839FBFDF91CF9108958FB7F8949A
:10095000EC91E22BEC938FBFF6CF3FB7F8948091E8
:10096000FD019091FE01A091FF01B091000226B51A
:10097000A89B05C02F3F19F00196A11DB11D3FBFD7
:10098000BA2FA92F982F8827BC01CD01620F711DA6
:10099000811D911D42E0660F771F881F991F4A95A0
:1009A000D1F708958F929F92AF92BF92CF92DF922C
:1009B000EF92FF926B017C010E94AD044B015C0140
:1009C000C114D104E104F104B9F00E94AD04681926
:1009D00079098A099B09683E73408105910580F376
:1009E00021E0C21AD108E108F10888EE880E83E000
:1009F000981EA11CB11CE4CFFF90EF90DF90CF9028
:100A0000BF90AF909F908F9008952FB7F89460910A
:100A1000F9017091FA018091FB019091FC012FBFC7
:100A200008950895DC0180E0615090F09D91982731
:100A3000E92FEF70F0E0EA5EFA4F2491E92FE2959A
:100A4000EF70F0E0EA5DFA4FE491822F8E27ECCF51
:100A50000895FC0113861586148612861186108669
:100A6000178216821582148213820895DC012C915C
:100A70001196ED91FC91F8948181822B8183928172
:100A8000322F30959323928387E090E00197F1F71E
:100A900081818323818383E290E00197F1F7908144
:100AA0007894EFECF0E03197F1F7922381E009F4CC
:100AB00080E00895FC0190810180F281E02D292FD2
:100AC000209560FF14C0F894828182238283818103
:100AD000892B8183A3E2B0E01197F1F78281982BF3
:100AE0009283789487ED90E00197F1F70895F89458
:100AF0008281822382838181892B8183AFEFB0E061
:100B00001197F1F78281982B928378948FE090E08F
:100B1000EBCFDF92EF92FF920F931F93CF93DF9370
:100B2000EC01D62EE42E08E010E0FF24F39461E0FF
:100B30008D2D8F2109F460E0CE010E945A05FF0C33
:100B400001501109A1F7E11010C0F894E981FA8170
:100B500091818881809589238183E981FA819281BD
:100B600088818095892382837894DF91CF911F912A
:100B70000F91FF90EF90DF900895EF92FF920F9307
:100B80001F93CF93DF938C017B0140E065E50E94CA
:100B90008905E70188E0E80EF11C699140E0C80191
:100BA0000E948905CE15DF05C1F7DF91CF911F9116
:100BB0000F91FF90EF900895FC0190810180F281E8
:100BC000E02DF8948181292F2095822381837894C8
:100BD0003DE743E050E0315029F1DA011197F1F798
:100BE00080818923C1F3F894828182238283818169
:100BF000892B81837894ABE7B7E01197F1F7F894EC
:100C0000818182238183A3E1B1E01197F1F7808193
:100C1000982381E009F080E07894E3E6F6E03197EC
:100C2000F1F7089580E008956F927F928F929F92DE
:100C3000AF92BF92CF92DF92EF92FF920F931F93EA
:100C4000CF93DF938C01EB018091AD029091AE02C6
:100C50000E94DC05882309F43FC0B8018091AD02F1
:100C60009091AE020E94BD0540E06EEB8091AD0216
:100C70009091AE020E9489057E016E0189E0C80E46
:100C8000D11C8E01A090AD02B090AE0288E0882EFB
:100C9000912C712C66246394C5010E943605811144
:100CA0007628660CE1E08E1A9108B1F7F80171928E
:100CB0008F01CE16DF0631F78091AD029091AE0222
:100CC0000E94DC05813041F4F70181917F0181119F
:100CD00005C0E017F107C1F790E008C068E0CE0159
:100CE0000E94120591E028852813F6CF892FDF9105
:100CF000CF911F910F91FF90EF90DF90CF90BF9019
:100D0000AF909F908F907F906F900895CF93DF93D7
:100D1000CDB7DEB729970FB6F894DEBF0FBECDBFB3
:100D2000BE016F5F7F4F0E941406882331F08D81D2
:100D30008F33A9F020F48F31A1F080E007C08F3508
:100D400021F08F37D1F78CE001C08BE029960FB6E8
:100D5000F894DEBF0FBECDBFDF91CF9108958AE03A
:100D6000F5CF89E0F3CF0895FC01938197706A3144
:100D700008F069E188E0689FB0011124692B638362
:100D8000CF0108950F931F93CF93DF93EC018B0155
:100D900062E00E94B4068C818F7180648C83188716
:100DA0000F83CE01DF91CF911F910F9108951F9373
:100DB000CF93DF93EC01162F61E00E94B4068C8183
:100DC0008F7180628C831F83CE01DF91CF911F9141
:100DD0000895FC0183818695869586958A3108F071
:100DE00089E10895E091EB01F091EC01309721F059
:100DF0000280F381E02D099408950F931F930E94C0
:100E000005050091ED011091EE012091EF01309167
:100E1000F001601B710B820B930B1F910F910895D2
:100E20009C018091EB019091EC0182179307F1F006
:100E30009091F5019F719093F5013093EC0120930F
:100E4000EB01E091EB01F091EC01309721F0019082
:100E5000F081E02D09950E9405056093ED017093E6
:100E6000EE018093EF019093F00108958091F501D8
:100E7000805E8093F501E5CF0F931F930E94FD06DE
:100E80002091F6012077203779F000E117E220E089
:100E900030E0061717072807390758F482E291E077
:100EA0001F910F910C94100700E61AEE20E030E03D
:100EB000F0CF1F910F9108958091F601982F9F70A8
:100EC000963018F0807F8093F60108958091F501A7
:100ED00084608093F5018091F60180788093F6011B
:100EE000E091DF01F091E001309709F00994089555
:100EF0008EBD00000DB407FEFDCF8EB50895FC0138
:100F000001900020E9F73197AF01481B590BBC0154
:100F100087E092E00C940303CF93DF930E94E603F3
:100F2000EC018CE691E00E947F078C0F9D1FDF9102
:100F3000CF91089586E092E00E948C071092A8025B
:100F400008958F929F92AF92BF920F931F93CF936A
:100F5000DF93CDB7DEB7A1970FB6F894DEBF0FBE13
:100F6000CDBF19A2423008F44AE08E010F5D1F4F39
:100F7000842E912CB12CA12CA50194010E94E52670
:100F8000E62FB901CA01EA30F4F4E05DD801EE932E
:100F90008D01232B242B252B79F790E080E01097EF
:100FA00019F0CD010E947F07A1960FB6F894DEBF1D
:100FB0000FBECDBFDF91CF911F910F91BF90AF902A
:100FC0009F908F900895E95CE1CFCF93DF930E94CB
:100FD0007F07EC018CE691E00E947F078C0F9D1F3C
:100FE000DF91CF910895CF93DF93FC014481558128
:100FF0006081718187E092E00E940303EC018CE63E
:1010000091E00E947F078C0F9D1FDF91CF91089583
:10101000CF93DF93682F70E090E080E04AE00E9479
:10102000A107EC018CE691E00E947F078C0F9D1FC9
:10103000DF91CF910895BF92CF92DF92EF92FF920E
:101040000F931F93CF93DF93EC01B62EC72E8D85A0
:10105000811105C0CE010E94DC0581110EC01B86E6
:101060001D861C8680E0DF91CF911F910F91FF902C
:10107000EF90DF90CF90BF90089540E060EFCE01F9
:101080000E94890501E0E12CD12C11E0CE010E94E3
:101090003605F82ECE010E94360591E0F91218C0EF
:1010A000813099F51134D8F2DB86D11002C081E08D
:1010B0008D878B81882399F22396EB2DFC2DCF0110
:1010C000089629912193E817F907D9F781E0CBCF4A
:1010D000EE2DF0E0F8120FC08B851817A0F4DE019A
:1010E000AE0FBF1F13968C91802379F4F12C193029
:1010F00008F41C87D12EEC0FFD1F8381902F909553
:10110000892383830AC08113F1CFFE01EE0DF11D07
:101110008381802B8383FF24F3946F2DCE010E9463
:101120005A051F5F000F11F4E39401E087E08E156C
:1011300008F0ACCFB7CF4F925F926F927F928F92B1
:101140009F92AF92BF92CF92DF92EF92FF920F9356
:101150001F93CF936B017C01742EAC019B010E9405
:10116000CC26882399F08FE691E0CF911F910F91C3
:10117000FF90EF90DF90CF90BF90AF909F908F90B7
:101180007F906F905F904F900C947F0746015701BE
:10119000E894B7F82FEF3FEF4FE75FE7C501B401E1
:1011A0000E94CC2681110DC02FEF3FEF4FE75FE784
:1011B000C501B4010E941D2418161CF483E791E0B8
:1011C000D4CF2FEF3FEF4FE75FE4C701B6010E9496
:1011D000C72618161CF487E791E0C7CF2FEF3FEF23
:1011E0004FE75FECC701B6010E941D2487FDF3CFD6
:1011F00020E030E0A901C701B6010E941D2410E0E3
:1012000000E087FF08C08DE20E9401048C01F7FA1C
:10121000F094F7F8F094C0E060E070E080E09FE3C5
:101220007C1641F020E030E040E251E40E941F26AD
:10123000CF5FF6CFA70196010E94B3252B013C0199
:101240000E9498264B015C014AE00E94A1077C01A4
:10125000E00EF11ECC23B1F1C501B4010E9422249D
:101260009B01AC01C301B2010E94B2254B015C019C
:101270008EE20E940104E80EF91EC15018F120E030
:1012800030E040E251E4C501B4010E9483242B0107
:101290003C010E9498264B01B12CA12C4AE0C501CB
:1012A000B4010E94A107E80EF91EC501B4010E9415
:1012B00022249B01AC01C301B2010E94B2254B0163
:1012C0005C01DBCFC701CF911F910F91FF90EF9091
:1012D000DF90CF90BF90AF909F908F907F906F9056
:1012E0005F904F900895CF93C091F701CF3FA1F049
:1012F0000E9405056093F1017093F2018093F30160
:101300009093F40180910502C813C093050289E10E
:1013100091E0CF910C9410070E94FD06613D77404B
:101320008105910568F08091F501803618F485E11A
:1013300091E0EFCF877F8093F50181E191E0E9CFE4
:10134000CF910895809103028F3F21F085E191E0D4
:101350000C9410070E94FD06613D774081059105C0
:1013600050F08091F501803618F48DE091E0F0CFD7
:1013700089E091E0EDCF08958DE091E00C941007A5
:10138000BF92CF92DF92EF92FF920F931F93CF9372
:10139000DF937B01042FB22E91E59CBD91E09DBDB2
:1013A0002A98E3E2F0E03197F1F70E947807182FCE
:1013B000E7010150A8F0BB2051F08FEF0E947807A1
:1013C000182FE114F104A9F388832196F2CF6E015E
:1013D0008FEFC81AD80A88810E947807E601E9CF02
:1013E0002A9A83E290E00197F1F7812FDF91CF9164
:1013F0001F910F91FF90EF90DF90CF90BF900895D5
:10140000CF93DF931F92CDB7DEB7698320E041E031
:10141000BE016F5F7F4F0E94C0090F90DF91CF9197
:1014200008958091F601982F9077903759F0982F72
:1014300092959F709F5F97709295907F8F78892B80
:101440008093F6018091F5018B7F8F7E8093F5016B
:1014500029986CE080E20C94000A6FE080E20E9420
:10146000000A609108016F3F19F08AE20E94000AA9
:10147000299A089521E041E070E060E00C94C009F1
:1014800020E040E070E060E00C94C009FF920F9310
:101490001F93CF93DF93D82F8B0180910302FB0121
:1014A0008083838182FD4AC0CB010E94E90697E0D8
:1014B000F92EF80E80910602C1E080FD03C0DF3FE7
:1014C00009F0C0E08091D8018F5F8093D8010115A9
:1014D000110509F44DC0299883E092E00197F1F7D6
:1014E0006EE080E20E94000A8BE891E00197F1F73C
:1014F0006D2F8AE20E94000A6D2F80E30E94000A8D
:1015000081EE0E94400ACC2321F060E584E20E9433
:10151000000A20E04F2DB80180EA0E94C009299AF4
:1015200010E000E08FEF0E94400A807351F40F3FFB
:10153000100739F0A8950F5F1F4FF4CF80E2F82E07
:10154000B9CF299860E787E20E94000AD82F84FF6C
:1015500003C081EE0E94400ACC2321F06FE584E2B3
:101560000E94000A0E942D0AD5FF03C0C1E001C0FD
:10157000C0E08C2FDF91CF911F910F91FF900895C4
:101580000F931F93CF938C01FC0182819091F50101
:1015900090FF04C08F3F79F5CFEF04C081111BC0CD
:1015A000C0910402B8018C2F0E94460A9091040257
:1015B0009C1318C09091F601811118C02091EA0186
:1015C0002F5F2093EA0121E0290F2F70907F922B4B
:1015D0009093F60107C08F3FF9F2B8010E94460AC6
:1015E0008823F1F2CF911F910F910895907F9093EE
:1015F000F60181E0F7CF80E0F5CF2091F50122FDE3
:101600000C94C00A80E00895FC018091030281835C
:101610009481907F916094838091020280FF03C047
:10162000CF010C94FD0A80E00895CF92DF92EF92F3
:10163000FF92CF93DF930E94FD066B017C0126E1B0
:1016400043E050E06FEF80E00E94F302EC0164E0C1
:101650000E94B4068C818F71806A8C83CF82D88679
:10166000E986FA86CE01DF91CF91FF90EF90DF906F
:10167000CF900C94FD0A0C94FD0A8FEF8093F70134
:10168000E5EFF1E080818860808328E143E050E06D
:101690006FEF80E00E94F30261E00E94D7060C9495
:1016A000C00A0F931F93CF93DF93EC018881998138
:1016B000009759F02A813B812617370730F081E0E7
:1016C000DF91CF911F910F9108958B016F5F7F4F35
:1016D0000E942127009759F0998388831B830A83EE
:1016E0002C813D81232B59F7FC011082E8CF80E04B
:1016F000E7CFCF93DF93EC0188819981009711F0B8
:101700000E946720198218821D821C821B821A8205
:10171000DF91CF910895EF92FF920F931F93CF9394
:10172000DF93EC017B018A01BA010E94510B811108
:101730000BC0CE010E94790BCE01DF91CF911F919A
:101740000F91FF90EF9008951D830C83B70188815E
:1017500099810E94EF27F0CFEF92FF920F931F9392
:10176000CF93DF93CDB7DEB729970FB6F894DEBFDE
:101770000FBECDBF8C01862FF8011182108213821B
:1017800012821582148240E19E012F5F3F4F790142
:10179000B90190E00E947521F70101900020E9F75E
:1017A0003197AF014E195F09B701C8010E948B0B39
:1017B00029960FB6F894DEBF0FBECDBFDF91CF9153
:1017C0001F910F91FF90EF900895CF93DF93EC015D
:1017D000FB018617970749F06081718161157105DA
:1017E00041F0448155810E948B0BCE01DF91CF9156
:1017F00008950E94790BF9CFFC01118210821382A7
:101800001282158214826115710551F0FB0101905D
:101810000020E9F73197AF01461B570B0C948B0B57
:101820000895FC0180819181009711F00C9467204C
:101830000895E5EFF1E08081897F8E7F8083E3E08A
:10184000F2E081E08283118260E081E090E00C941C
:101850006925CF93219A229A29982A9ACFB7F8948A
:101860008091D601811127C0E2E7F5E08491E6E896
:10187000F5E09491E82FF0E0EE0FFF1FEA5CFA4FDD
:10188000A591B491EC91E92321F461E08AE00E94F2
:10189000300461E08AE00E947C048CB580618CBDDC
:1018A0008CB580648CBD61E08DE00E947C0461E0B9
:1018B0008BE00E947C048091D6018F5F8093D601DB
:1018C000CFBF29986EE080E20E94000A8BE496E484
:1018D0000197F1F763E083E20E94000A6FE584E27A
:1018E0000E94000A60E685E20E94000A67E286E242
:1018F0000E94000A64E08DE30E94000A8DE10E94CC
:101900003A0A843041F063E780E50E94000A64E00F
:101910008DE30E94000A86E00E943A0A873209F0AD
:101920004DC085E00E943A0A803609F047C062E067
:1019300082E20E94000A60E081E20E94000A63E005
:101940008CE30E94000A8FEF8093030120E045E0C2
:1019500063E071E08BE20E94C00920E045E063E0B3
:1019600071E08AE20E94C00920E045E063E071E096
:1019700080E30E94C00982EE0E94400A81EE0E942C
:10198000400A60E787E20E94000A8091F5018061C9
:101990008093F501809106028E7F8093060286E98E
:1019A0008093030266E990E080E00E946925C0917F
:1019B0000302CF3F41F481E191E002C089E091E070
:1019C000CF910C9410078FEF8C0F8E3FB8F7C09318
:1019D000080163E082E20E94000A61E081E20E9465
:1019E000000A0E942D0A6C2F90E080E00E94692579
:1019F000E2CFE5EFF1E08081877F8F7E80831092D8
:101A0000F1011092F2011092F3011092F40144E0FE
:101A100050E070E060E083E092E00C94412590E0BB
:101A200083569E4F0C945125FF920F931F93CF9393
:101A3000DF938295807F08E1080FCFE2D1E010E2CA
:101A4000180F8DE2F82E802F0E940F0D91E0980F55
:101A5000923090F088838991803210F0813818F0AC
:101A6000FE013197F0820F5F0113EDCFDF91CF912F
:101A70001F910F91FF900895F882EDCFEF92FF92A2
:101A80000F931F93CF93DF9300D000D000D0CDB73A
:101A9000DEB700E1F12C10E08F2D810F0E940F0DB9
:101AA000E82E8FE08E1520F08BE791E00E947F07F3
:101AB0006E2DCE0101960E94AC0B4D815E81698135
:101AC0007A8187E092E00E940303CE0101960E9492
:101AD000110C1F3021F08DE791E00E947F071F5FFE
:101AE0001031D1F680E1F80E8EE691E00E94E50714
:101AF000015089F626960FB6F894DEBF0FBECDBF13
:101B0000DF91CF911F910F91FF90EF9008950F9368
:101B10001F93CF93DF93EC018B0180E0611571057A
:101B200019F0CB010E943521682FCE010E94B40626
:101B30008C818F718C83CE010E94E906482F50E082
:101B4000B801CE0107960E943E21CE010E94E9060F
:101B50008C0F9D2F911DFC011782CE01DF91CF913B
:101B60001F910F910895CF93DF93EB0124E250E092
:101B700040E0682F80E00E94F302BE010E94870DC2
:101B8000DF91CF910C94FD0ACF93DF9367E075E06E
:101B900089EC92E00E94870D0E94040BCDEAD1E00F
:101BA0008FE791E00E947F078C2F8D590E940808D3
:101BB0006FEFCE010E9469252196CD3282E0D807D1
:101BC00079F76EE871E086E291E0DF91CF910C94B5
:101BD000EF273F924F925F926F927F928F929F92E8
:101BE000AF92BF92CF92DF92EF92FF920F931F932B
:101BF000CF93DF93CDB7DEB764970FB6F894DEBF0F
:101C00000FBECDBF8BEB92E00E942905E6E2EE2EDF
:101C1000E1E0FE2E10E104E4F6E4DF2E812F0E94C5
:101C20000F0DF7018F3F09F0CAC0D082105FFFEFA0
:101C3000EF1AFF0A103991F78FEE94E00E948C079B
:101C4000512CE12CF12C8E010F5F1F4F8CE991E09C
:101C50009C01225E3140490173E4472E62EE71E03F
:101C60008BEB92E00E941B08882309F404C182EEEA
:101C700094E00E94E6036EE671E0CE010F960E94AA
:101C8000FC0B62EEC62E61E0D62EF60181916F014B
:101C90008031E8F51A8619861C861B861E861D86ED
:101CA000BE01615F7F4FCE0109960E94E50B4AE0BD
:101CB000B80190E080E00E944D21F80101900020E1
:101CC000E9F73197E01BF10BB9F0AD84BE84AE0E9D
:101CD000BF1EB501CE0109960E94510B882309F45D
:101CE00070C029853A858D859E85B801820F931F26
:101CF0000E94EF27BE86AD86BE01675F7F4FCE0193
:101D00000F960E94E50BCE0109960E94110CF60178
:101D100031976081CE0109960E94AC0B1A8219821C
:101D20001C821B821E821D82BE01615F7F4FC80123
:101D30000E94E50B69847A846114710409F446C039
:101D4000AD84BE84A114B104A9F08D819E81A80E3A
:101D5000B91EB501C8010E94510B8823B9F1298130
:101D60003A818D819E81B301820F931F0E94EF27DC
:101D7000BE82AD82B801CE010F960E94E50BC8016C
:101D80000E94110CCE0109960E94110CFAEECF169A
:101D9000F1E0DF0609F079CFAF84B888A114B1046F
:101DA000C9F0F50181915F018823A1F0082E000C94
:101DB000990B0E94DE27F50131978083F2CF0083D3
:101DC00035CFCE0109960E94790B96CFC8010E94AB
:101DD000790BD0CFCE010F960E94F307CE010F965C
:101DE0000E94110CF7E0FE15C8F1F12C50E1752EA0
:101DF00042EEA42E41E0B42E612C872D860D0E9468
:101E00000F0DF50191915F0189135EC06394F8E0B5
:101E10006F12F3CFEF2DF0E0EA5DFE4F40828FECC2
:101E200094E00E94E6038F2D0E9408088091E30150
:101E30009091E401890F580E5F0CE3940FCF8AE96B
:101E400094E00E948C0768E874E089EC92E00E94BC
:101E5000870D0E94040B88E0F82EE8CF8CE694E012
:101E60000E948C0760E574E089EC92E00E94870D87
:101E70000E94040BDBCF81E494E00E94E60386E23B
:101E800091E00E94E5075092E1016E2D87E994E010
:101E90000E94D7060E94040B64960FB6F894DEBF2A
:101EA0000FBECDBFDF91CF911F910F91FF90EF90AB
:101EB000DF90CF90BF90AF909F908F907F906F906A
:101EC0005F904F903F900895F394F0E17F0E20E9EA
:101ED00072128ECF28E0312C30E1B32EF2129ACF5D
:101EE0008B2D0E940F0D8F3F51F0339430E1B30ED4
:101EF00080E9B812F5CFE8E03E1609F4A0CF86EBF2
:101F000094E00E94E603832D0E94080866EA74E0CC
:101F100089EC92E00E94870D0E94040B68E374E054
:101F200089EC92E00E94870D0E94040BAA24A394DE
:101F3000A30CA29490EFA92222EE622E21E0722E31
:101F4000A80CB92CB11CF30161913F01C5018E0FA2
:101F50009F1F0E946925C614D704A9F7E32DF0E05E
:101F6000EA5DFE4F408262CF0F931F93CF93DF93C2
:101F7000EC018B0160E00115110539F0F8010190C9
:101F80000020E9F731976E2F601BCE010E94B40646
:101F90008C818F718C83CE010E94E906482F50E01E
:101FA000B801CE0107960E94F627CE010E94E906ED
:101FB0008C0F9D2F911DFC011782CE01DF91CF91D7
:101FC0001F910F9108951F93CF93DF93182F262F02
:101FD000EA0150E040E0682F80E00E94F3021F3FDA
:101FE00011F4C7E9D1E0BE010E94B40FDF91CF9197
:101FF0001F910C94FD0A809103028F3F69F423E046
:1020000043E050E06FEF80E00E94F3026EE671E083
:102010000E94B40F0C94C00A0895FC0124812295FB
:1020200026952770213011F487810895211104C06D
:1020300007960E94F020089580E008953F924F9205
:102040005F926F927F928F929F92AF92BF92CF9248
:10205000DF92EF92FF920F931F93CF93DF9300D005
:1020600000D000D0CDB7DEB78C0187E591E00E94AB
:10207000E603F80186810E940808F80186818451F0
:10208000893008F071C086E2A82E81E0B82E98E170
:10209000C92ED12C80E023E130E0A9014652514005
:1020A0002A012AE0322E380157E0650E711CF50135
:1020B00091915F01933409F049C0F8019681920132
:1020C0002A0D3B1D9217130609F040C095819F32DF
:1020D000E9F58481829586958770B30111F060E0FF
:1020E00070E0CE0101960E94FC0B68E670E089EC7E
:1020F00092E00E94870D0E94040BF12CE12C460116
:10210000F3E68F1AFEEF9F0A8D819E81E816F9068D
:1021100028F4E981FA81309709F0C2C01092D70102
:10212000E7EDF1E06081C4018E0D9F1D0E946925DD
:102130004FEFE41AF40A58E0E516F10429F7CE014E
:1021400001960E94110C30921F0181E090E1C90EAE
:10215000D11CE8E9CE16D10409F0A9CF811104C041
:1021600084E491E00E94E603F8018681863409F058
:1021700022C185818F3209F01EC1C8010E940D1055
:10218000F82E8093D901F801848182958695877015
:10219000B801695F7F4F882311F070E060E0CE01E5
:1021A00001960E94FC0B8AE391E00E94E6038F2DCA
:1021B0000E9408088091D90181110DC060E08DE96D
:1021C00091E00E94692565E371E089EC92E00E944C
:1021D000870D0E94040B8091D901813061F4109227
:1021E000D90167E271E089EC92E00E94870D0E94BC
:1021F000040B0E943E0D8091D9018230A1F410920F
:10220000D90168E171E089EC92E00E94870D0E949B
:10221000040B81E080932101809320018AE0809368
:102220001F010E943E0D8091D9018330B1F41092BC
:10223000D9016BE071E089EC92E00E94870D0E9469
:10224000040B0E94C40D81E0809321018093200142
:102250008AE080931F010E943E0D8091D901843055
:1022600011F51092D9010E94C40D6091D9018DE938
:1022700091E00E9469256091D9018AEE92E00E9466
:10228000D7060E94040B0E943E0D88E198E00FB62D
:10229000F894A895809360000FBE90936000FFCFE4
:1022A000EE0DFF1D3FCF863029F41092D9018AE050
:1022B00080931F011091D901193099F462E071E007
:1022C00089EC92E00E94870D0E94040B88E198E05F
:1022D0000FB6F894A895809360000FBE90936000AD
:1022E000FFCF0CEE010F083028F582EF90E00E943E
:1022F000E603802F0E94080887E890E00E948C0780
:1023000061E770E089EC92E00E94870D0E94040B67
:1023100013511295107F812F90E06DED83569E4FE3
:102320000E94692581E080932101809320018AE049
:1023300080931F011091D90102EE010F0830B8F50A
:102340008EED90E00E94E603802F0E9408088AEB41
:1023500090E00E94E60366EA70E089EC92E00E9459
:10236000870D0E94040B1D511295107FE12EF12C58
:10237000FFE0EF0EF11CC12ED12CEC14FD047CF01B
:102380008FE791E00E947F07812F0E9408086FEF7E
:10239000C60183569E4F0E9469251F5FECCF81E0E6
:1023A00080932101809320018AE080931F01CE0158
:1023B00001960E94110C26960FB6F894DEBF0FBE50
:1023C000CDBFDF91CF911F910F91FF90EF90DF90E4
:1023D000CF90BF90AF909F908F907F906F905F90C5
:1023E0004F903F9008952F923F924F925F926F923D
:1023F0007F928F929F92AF92BF92CF92DF92EF9295
:10240000FF920F931F93CF93DF93CDB7DEB7A197C2
:102410000FB6F894DEBF0FBECDBF36E0D32E9E01BF
:102420002F5F3F4F19014EE4C42E54EB452E5BE263
:10243000552E51E1652E712C88248A9462E0962EE7
:1024400063E0A62EB92C87E10E943A0A80FD43C2C0
:10245000DA94DD2009F43FC221E041E070E060E061
:1024600080E60E94C009182F813220F082EE0E947F
:10247000400A10E021E0412F6BE175E081E60E9407
:10248000C00960E487E20E94000A81E2EBE1F5E026
:10249000D10101900D928A95E1F70C81802F837014
:1024A000823089F6C1010E94E90602FD89E1895F57
:1024B0001813C9CF8BE195E00E94E90690911F05A2
:1024C000392F3770F32E1091200500911C053091A3
:1024D0001B0520911D054091F60140684093F601CF
:1024E000409103022413CDC1E82FF0E0E55EFA4FDE
:1024F000178293FF15C081E2EBE1F5E0AAEFB4E0AB
:1025000001900D928A95E1F7977E90619093FE0479
:102510002093FB040093FC048AEF94E00E94FD0AE0
:1025200090911F0594FDA8C153E0F512A5C18091BB
:10253000200521EF280F233008F485CF143009F44B
:1025400082CF183159F429E143E050E06FEF802F3A
:102550000E94F30261E00E94D70620C0193171F495
:102560008091F50183FF6FCF877F8093F5018BE129
:1025700095E00E940D108093F70165CF1E3109F49C
:1025800062CF1D3171F42FE143E050E06FEF80E046
:102590000E94F30260E07FEF0E94C2060E94C00A20
:1025A00052CF20911C05211164C18D3059F488E16E
:1025B00098E00FB6F894A895809360000FBE9093B2
:1025C0006000FFCF8B3179F48BE195E00E940D1014
:1025D00091E0811101C090E08091020290FB80F9AE
:1025E0008093020230CF863099F49091220581E0E9
:1025F000992319F09D3409F080E08093010241E0B5
:1026000050E063E071E081E092E00E9459251BCF29
:10261000833119F40E943B1A16CF823119F40E94BB
:10262000150B11CF8230C1F422E043E050E06FEF90
:1026300080E00E94F3028C0164E00E94B406F8017D
:1026400084818F71806A848387829086A186B28616
:10265000C8010E943B0BF7CE813001F520E030E04D
:10266000232B09F4F0CE929596959770953059F4F6
:102670006091220570912305809124059091250594
:102680000E940000E0CE911105C082E295E00E9418
:102690000E21F6CF60E070E0CB01F2CF8A3009F472
:1026A000D2CE8C3109F0E8C080912205823509F440
:1026B000CACE863589F52CE143E050E06FEF80E02B
:1026C0000E94F3028C01C0927C0066E470E080E01E
:1026D00090E00E94D20480917A00806480937A0016
:1026E00080917A0086FDFCCFE0907800F090790030
:1026F00062E0C8010E94B406F80184818F7180668F
:102700008483970150E040E0C301B2010E94E526B6
:10271000F801308727839CCF863409F05FC02CE115
:1027200043E050E06FEF80E00E94F3028C01F894E8
:102730004091600030918000209181009091820052
:102740008FEF86BB1092850010928400109280005B
:1027500010928200F8E15DE00FB6F894A895F0932E
:1027600060000FBE50936000809160008064809391
:102770006000A89585E0809381008091600087FFCC
:10278000FCCF10928100A8958091600088618093B1
:102790006000409360007894E0908400F0908500A1
:1027A00030938000209381009093820062E0C80102
:1027B0000E94B406F80184818F7180668483B7011A
:1027C00090E080E02BE0660F771F881F991F2A9505
:1027D000D1F720EA36E841E050E098CF8D3411F58A
:1027E0002CE143E050E06FEF80E00E94F3028C01A7
:1027F000E0903C05F0903D05E114F10421F480E403
:10280000E82E85E0F82E62E0C8010E94B406F801C7
:1028100084818F7180668483C1018E199F0990879E
:10282000878316CF853409F00ECE2CE143E050E0CB
:102830006FEF80E00E94F3026DE971E00E94B40F37
:102840000E943B0B10E000E06FEFC8010E94692579
:102850000F5F1F4F0D39F1E01F07B1F788E198E0D6
:102860000FB6F894A895809360000FBE9093600017
:10287000FFCF8A3109F4E7CD8BE195E00E941E106D
:10288000E2CD2F3F09F0DFCD23E0F2121FC080918F
:10289000F50182FF03C0173009F4D5CD143109F0DA
:1028A000D2CD809104023813CECD0E9405057370FD
:1028B000882799270E94D20425E143E050E06FEF7A
:1028C000802F0E94F3026091040245CE80910402A1
:1028D0003813B9CDD1CFA1960FB6F894DEBF0FBE95
:1028E000CDBFDF91CF911F910F91FF90EF90DF90BF
:1028F000CF90BF90AF909F908F907F906F905F90A0
:102900004F903F902F9008958091F50184FD0C9495
:10291000F3110895CF92DF92EF92FF92CF93DF935E
:10292000D82F0E9405056B017C0180911F058760EF
:1029300080931F05C0E00E9405056C197D098E0972
:102940009F09603D77408105910590F4C11110C049
:10295000A8950E94F2060E94841480911F0587703A
:10296000833049F7C1E0809120058D13E3CFE3CF99
:102970008C2FDF91CF91FF90EF90DF90CF90089553
:102980008F929F92AF92BF92CF92DF92EF92FF927F
:102990004B015C010E9405056B017C010E9405054D
:1029A0006C197D098E099F09681579058A059B05B3
:1029B00030F4A8950E94F2060E948414EFCFFF9095
:1029C000EF90DF90CF90BF90AF909F908F90089541
:1029D0006F927F928F929F92AF92BF92CF92DF922F
:1029E000EF92FF920F931F93CF93DF93CDB7DEB794
:1029F000AB970FB6F894DEBF0FBECDBF109221018A
:102A000083EE92E00E948C072BE043E050E06FEFF2
:102A100080E00E94F30260EA71E00E94B40F0E941D
:102A2000FD0A2CE043E050E06FEF80E00E94F302EB
:102A30006EEA71E00E94B40F0E94FD0A88E0E2E4B1
:102A4000F1E0DE015A9601900D928A95E1F71AA203
:102A500088E0EBE4F1E0DE01939601900D928A9517
:102A6000E1F71BA61A821982FE01339687E1DF0186
:102A70001D928A95E9F764E670E080E090E00E949C
:102A8000C01468ED72E082E10E94B30D64E670E06C
:102A900080E090E00E94C0146DEC72E083E10E943F
:102AA000B30D64E670E080E090E00E94C0146FEB2C
:102AB00072E08CE10E94B30D86E2682E81E0782EF0
:102AC00010E000E05E01BAE1AB0EB11C93EBC92E41
:102AD00091E0D92EFE0131967F014E01F3E28F0E77
:102AE000911CD3018D913D01833409F041C01F93A6
:102AF0000F93BF92AF92DF92CF92FF92EF920E941C
:102B0000052885EA92E00E94E603C7010E94E507D6
:102B1000A70166E070E08AE0800F0E94E30F64E6A0
:102B200070E080E090E00E94C0141F930F939F928A
:102B30008F92DF92CF92FF92EF920E9405288BE84E
:102B400092E00E94E603C7010E94E507A70164E244
:102B500070E084E1800F0E94E30F64E670E080E0A3
:102B600090E00E94C0140FB6F894DEBF0FBECDBF38
:102B70000F5F1F4F0830110509F0B3CF8CE792E0CB
:102B80000E948C0760E772E089E50E94B30D64E65D
:102B900070E080E090E00E94C01464E672E080E59E
:102BA0000E94B30D69E572E081E50E94B30D61E515
:102BB00072E088E50E94B30D69E472E08BE50E9443
:102BC000B30D64E670E080E090E00E94C01460E421
:102BD00072E08CE50E94B30D64E670E080E090E066
:102BE0000E94C01465E372E08DE50E94B30D6BE2B4
:102BF00072E086E40E94B30D64E670E080E090E04D
:102C00000E94C01460E272E080E60E94B30D69E1A8
:102C100072E08AE50E94B30D64E670E080E090E027
:102C20000E94C01463E172E082E50E94B30D64E685
:102C300070E080E090E00E94C0146CE072E083E5F8
:102C40000E94B30DAB960FB6F894DEBF0FBECDBF9A
:102C5000DF91CF911F910F91FF90EF90DF90CF9078
:102C6000BF90AF909F908F907F906F9008952F921C
:102C70003F924F925F926F927F928F929F92AF920C
:102C8000BF92CF92DF92EF92FF920F931F93CF9359
:102C9000DF93CDB7DEB760970FB6F894DEBF0FBEF7
:102CA000CDBF80912101882321F00E94E90D0E946F
:102CB000E8140E9405050091DB011091DC012091D0
:102CC000DD013091DE016B017C01C01AD10AE20AFC
:102CD000F30A9701860101321F4B2240310558F05B
:102CE0006093DB017093DC018093DD019093DE0142
:102CF00081E08093200180912001882309F4CBC0DA
:102D00000E9405056093DB017093DC018093DD0177
:102D10009093DE010E94E90D8091AD029091AE0288
:102D20000E94DC0540E06CEC8091AD029091AE0217
:102D30000E9489054091A40264E48091AD029091C3
:102D4000AE020E9489058091A802882311F1E091CA
:102D5000A7028091A902882309F424C28091A402C9
:102D6000811120C20E9405056B017C018091AD029A
:102D70009091AE020E943605813059F00E940505FF
:102D80006C197D098E099F096E3E7240810591057F
:102D900068F38FEA93E00E948C076EEE72E080E0A9
:102DA00090E00E94C0141091E1018091DA0118179F
:102DB00089F089E993E00E94E603812F0E940808C8
:102DC0006091E1016093DA018EE991E00E9469254A
:102DD0000E94E81406E211E0C12CD12C7601AA244D
:102DE000A394BC2CF80181918F01833409F040C079
:102DF000662463946C0C629440EF642252EE852E3C
:102E000051E0952E712C862D870D0E940F0DF40137
:102E100081934F017394F8E07F12F5CFBE016F5F8D
:102E20007F4F82EE91E00E9414068111E3C1212CB4
:102E3000312CFEEF4F2EA2EC5A2E8DE893E00E942B
:102E4000E60342E0B101C2010E949B088CE691E0DA
:102E50000E947F0763E773E089EC92E00E94870D90
:102E60000E94040B64E670E080E090E00E94C014D1
:102E70002FEFC21AD20AE20AF20A48E0C416D104BD
:102E8000E104F10409F0ADCF1092200180911F01FF
:102E90008F5F80931F0180911F018A3008F4D2C296
:102EA0008CE493E00E948C0710921F016091D9017D
:102EB0008AEE92E00E94D7060E94040B64E670E05E
:102EC00080E090E00E94C01466E271E088EB94E03C
:102ED0000E94B40F0E94040B64E670E080E090E072
:102EE0000E94C0146BE070E085E594E00E94C20689
:102EF0000E94040B64E670E080E090E00E94C01441
:102F000076E2E72E71E0F72E812C912C5401EAE253
:102F10007E2E182DF70181917F01833409F061C065
:102F200089EB91E00E947F074AE0C501B4010E944D
:102F3000A1078CE891E00E947F0766246394680CE7
:102F4000629450EF652262EEC62E61E0D62E00E05C
:102F5000862D800F0E940F0DF60181936F010F5F88
:102F60000830B1F7812F0E94140D8FE291E00E948A
:102F7000E50784E1810F80937C046FE271E086E7CE
:102F800094E00E94B40F0E94040B64E670E080E0BD
:102F900090E00E94C014165F1093DF047092DE046C
:102FA00068E089ED94E00E94B4068091DD048F71A1
:102FB000806C8093DD0489ED94E00E94E906482F3F
:102FC00050E062EE71E080EE94E00E94E62789ED29
:102FD00094E00E94040B64E670E080E090E00E94C0
:102FE000C014FFEF8F1A9F0AAF0ABF0A28E08216AB
:102FF0009104A104B10409F08CCF0E94150B8CE35D
:1030000093E00E948C070E9405056B017C0128EE6D
:1030100033E040E050E00E94E526CA01B9012CE30C
:1030200030E040E050E00E94E5267F936F93C701B7
:10303000B60120E63AEE40E050E00E94E52698E135
:10304000892E912CA12CB12CCA01B901A5019401A2
:103050000E94E5267F936F93C701B60120E83EEEFC
:1030600046E350E00E94E526CA01B901A50194019A
:103070000E94E5267F936F93C701B60120E03CE5EF
:1030800046E255E00E94E5263F932F938EEB91E0B8
:103090009F938F938E010F5F1F4F1F930F930E947B
:1030A0000528B8018EE693E00E94B40F0E94040B3D
:1030B00064E670E080E090E00E94C01488E00E9426
:1030C0003A0A8F7063EE7FEF48E0849F60197109C0
:1030D000112420911D0130911E01C901880F991FF3
:1030E000820F931F680F791F0FB6F894DEBF0FBED3
:1030F000CDBF77FF02C06D5F7F4F75956795759562
:10310000679570931E0160931D018DE493E00E940A
:10311000C2060E94040B64E670E080E090E00E942A
:10312000C01460E373E08CE293E00E94870D0E947C
:10313000040B64E670E080E090E00E94C01460E65A
:1031400070E08BE093E00E94C2060E94040B64E6EC
:1031500070E080E090E00E94C01480911D01909189
:103160001E018A3B9F4F0CF0DFC083E293E00E9478
:103170008C0768E173E089EC92E00E94870D0E9461
:10318000040B64E670E080E090E00E94C01488E1E7
:1031900098E00FB6F894A895809360000FBE9093C6
:1031A0006000FFCFE9508EEE92E0E33038F4F0E0BB
:1031B000EE0FFF1FEC5AFE4F808191816C01990F39
:1031C000EE08FF088091A502882329F060E0809135
:1031D000A6020E943004C701B6010E94D204809169
:1031E000A502882309F4D5CD61E08091A6020E9452
:1031F0003004CFCD6A8170E0762F6627770F770F86
:10320000770F298148E0249F90011124262B372B2A
:103210008091E2018031E1F468856623C9F070E0B5
:103220008F81FB01E81BF109CF019695982F882724
:10323000979587950E94D126CB018097B90123E00D
:10324000660F771F2A95E1F760789C01260F371FDC
:103250002138F4EE3F070CF4EACDB901330F880BA7
:10326000990B0E94242420E030E040E05CE30E94BF
:1032700083243B014C011B012C0120E030E048E499
:1032800052EC0E941D2487FDD8CD20E030E040EABA
:1032900052E4B301C4010E94C72618160CF4CDCD28
:1032A0008AE08B0D8093DF041092DE0465E089EDE7
:1032B00094E00E94B4068091DD04806E8093DD046A
:1032C000C301D4018093E0049093E104A093E2044D
:1032D000B093E304A092E40489ED94E00E94040B0F
:1032E00064E670E080E090E00E94C01488E693E01D
:1032F0000E94E60342E0B301C4010E949B088B2DAB
:103300000E94140D81E693E00E94E6034AE0C701A3
:10331000B6010E94A1078BE593E00E94E6038FE2CD
:1033200091E00E94E507A4CD70E060E084E394E0C2
:103330000E94C2060E94040B60ED71E083E194E0FC
:103340000E94B40F0E94040B64E670E080E090E0FD
:103350000E94C01488EC80937C0080917A00806881
:1033600080937A0064E170E080E090E00E94D204F3
:1033700080917A00806480937A0080917A0086FD43
:10338000FCCF609178007091790090E080E00E941D
:1033900022242EEA37E242EA53E40E94B22526EFC5
:1033A00038E24CE95FE30E941F260E949126062E18
:1033B000000C770B82EF93E00E94C2060E94040B80
:1033C00064E670E080E090E00E94C01463E073E087
:1033D00081ED93E00E94870D0E94040B8CEF92E038
:1033E0000E94E6036091D80170E090E080E04AE03E
:1033F0000E94A10783EF92E00E94E6038091EA0118
:103400000E9408086091D80180EB93E00E94D706E3
:103410000E94040B64E670E080E090E00E94C0141B
:103420006091EA018FE893E00E94D7060E94040BA6
:1034300064E670E080E090E00E94C0141092D80131
:103440001092EA0160960FB6F894DEBF0FBECDBFB2
:10345000DF91CF911F910F91FF90EF90DF90CF9070
:10346000BF90AF909F908F907F906F905F904F90A4
:103470003F902F9008952FE043E050E06FEF80E001
:103480000E94F3026EE671E00E94B40F62E08AEFE0
:1034900094E00E94B406EAEFF4E084818F71806CBE
:1034A000848381E087831086CF010E94FD0A8FE02C
:1034B0000E948A144EE651E061E170E08FEF0E94B5
:1034C000E30F26E043E050E06FEF80E00E94F3025C
:1034D000609104020E94D7060E943B0B86E00E9486
:1034E0008A140C94E814CF938091020281FD20C0CD
:1034F0000E943B1A80910202816080930202C4E024
:103500002AE143E050E06FEF80E00E94F30262E0C6
:103510000E94D7060E943B0B8BE10E948A14811106
:1035200002C0C15069F7809102028260809302025A
:10353000CF9108958F929F92AF92BF92CF92DF92D8
:10354000EF92FF920F931F93CF93DF93CDB7DEB728
:1035500068970FB6F894DEBF0FBECDBF89ED91E03E
:103560000E948C0782ED91E00E948C0784EC91E030
:103570000E94E6034AE060E670E080E090E00E948E
:10358000A1078CE691E00E947F078DE991E00E94FF
:103590005125182F8093D9018EE991E00E94512581
:1035A0008093E1018093DA011A3060F01092D90122
:1035B0008EEA91E00E948C076091D9018DE991E03B
:1035C0000E94692585E991E00E94E6038091E1016E
:1035D0000E9408088091AD029091AE020E942905D8
:1035E0001092AB021092AC028E010F5F1F4FFF24AE
:1035F000F394B8018091AD029091AE020E941B0835
:10360000882309F45AC067E0C8010E941205988512
:103610008913EFCF8091AB028F5F8093AB028981DA
:10362000883231F008F041C0803111F0823209F760
:103630008091AC028F5F8093AC028091A4028111D3
:1036400026C08091AD029091AE020E94DC05B801C7
:103650008091AD029091AE020E94BD0540E064EB06
:103660008091AD029091AE020E9489058091AD02D9
:103670009091AE020E943605E82E8091AD029091A5
:10368000AE020E94DC05E11002C0F092A402898122
:10369000803189F0C8010E9486069091A702981790
:1036A00008F0A7CF8093A702A4CF8B3309F282340E
:1036B00009F09FCFBDCF8CE0F0CF0E943E0D40E1DE
:1036C000E42ED12CF12C8D2D8F0D0E940F0D90EE3C
:1036D000980F913608F078C00E9401048FE0F81628
:1036E00019F080E20E940104F394E0E1FE12EBCFB6
:1036F000DE0E8EE691E00E94E507EA94E110E2CF4B
:103700000E94E90D85E891E00E948C0796E2C92E9F
:1037100091E0D92E2BE0922E3FE5832EF601819188
:103720006F01833409F059C082EEA82E81E0B82ED3
:10373000E12C8E2D8F0D0E940F0DF50181935F01FD
:10374000E394F8E0EF12F5CF8091E2018031F1F5DA
:103750008091E201803109F058C09092A7028091D7
:10376000AB02823008F4E2C0E12C8091AB02E81693
:1037700008F0DCC08091A7028C3009F4D7C080919A
:10378000AD029091AE020E942905B12CB801809142
:10379000AD029091AE020E941B08882331F0EB1419
:1037A00009F4BAC0B394EB1488F78981803109F425
:1037B000BBC0C8010E9486069091A702981710F41A
:1037C0008093A702E394D1CF8FE586CF82EE91E07C
:1037D0000E9486068B3009F0BBCF80E1F80EE0E94D
:1037E000FE129CCF68960FB6F894DEBF0FBECDBF19
:1037F000DF91CF911F910F91FF90EF90DF90CF90CD
:10380000BF90AF909F908F900895B80182EE91E0A5
:103810000E941406882309F4A0CF8D818F3509F406
:103820009CCF8D828091AD029091AE020E94DC050A
:1038300062EE71E08091AD029091AE020E94BD05F2
:1038400040E06EE48091AD029091AE020E94890545
:1038500040E06B818091AD029091AE020E9489059B
:1038600040E06C818091AD029091AE020E9489058A
:103870008091E201803141F040E06D818091AD02A4
:103880009091AE020E9489058091AD029091AE02A6
:103890002091AA02222321F10E94DC05882309F449
:1038A0005CCF62EE71E08091AD029091AE020E9419
:1038B000BD054091A40268E48091AD029091AE02F2
:1038C0000E9489058091A40281110DC064E170E01D
:1038D00080E090E00E94D2048091AD029091AE020F
:1038E0000E94DC053ACF8091A502882329F060E090
:1038F0008091A6020E94300464E170E080E090E0D4
:103900000E94D2048091A502882331F361E0809166
:10391000A6020E943004E0CF67E0C8010E941205B1
:10392000988589133FCF41CF8CE046CF8CE691E05C
:103930000E94E6031C8A1B8A1E8A1D8A188E1F8A13
:103940004AE0B8018BE090E00E944D21F80101901F
:103950000020E9F73197AF01401B510BB801CE01B0
:1039600043960E948B0BCE0143960E94F307CE0133
:1039700043960E94110C64E670E080E090E00E94A3
:10398000C0142BCF1F920F920FB60F9211242F93BA
:103990003F934F935F936F937F938F939F93AF93D7
:1039A000BF93EF93FF9387E092E00E947703FF912C
:1039B000EF91BF91AF919F918F917F916F915F91A7
:1039C0004F913F912F910F900FBE0F901F90189520
:1039D0001F920F920FB60F9211242F938F939F93E4
:1039E000EF93FF93E0911702F09118028081E0912C
:1039F0001D02F0911E0282FD1BC090818091200269
:103A00008F5F8F7320912102821741F0E091200295
:103A1000F0E0E95FFD4F958F80932002FF91EF91D9
:103A20009F918F912F910F900FBE0F901F9018951F
:103A30008081F4CF1F920F920FB60F9211242F9313
:103A40003F938F939F93AF93BF938091F901909190
:103A5000FA01A091FB01B091FC013091F80123E043
:103A6000230F2D3758F50196A11DB11D2093F801A4
:103A70008093F9019093FA01A093FB01B093FC01AC
:103A80008091FD019091FE01A091FF01B091000293
:103A90000196A11DB11D8093FD019093FE01A0939D
:103AA000FF01B0930002BF91AF919F918F913F9121
:103AB0002F910F900FBE0F901F90189526E8230F9F
:103AC0000296A11DB11DD2CF1F920F920FB60F9279
:103AD00011242F933F934F935F936F937F938F9313
:103AE0009F93AF93BF93EF93FF93E0913A01F091CF
:103AF0003B010995FF91EF91BF91AF919F918F91FC
:103B00007F916F915F914F913F912F910F900FBED9
:103B10000F901F9018951F920F920FB60F921124BD
:103B20002F933F934F935F936F937F938F939F93C5
:103B3000AF93BF93EF93FF93E0913801F091390178
:103B40000995FF91EF91BF91AF919F918F917F91D7
:103B50006F915F914F913F912F910F900FBE0F90FA
:103B60001F9018951F920F920FB60F9211240F906D
:103B70000FBE0F901F901895CF93DF93FC0110821A
:103B800011821282148215821682DC0117968AE154
:103B9000ED0119928A95E9F782E08383DF91CF9155
:103BA0000895CF93DF93E7E0F2E01382128288EE6C
:103BB00093E0A0E0B0E084839583A683B7838EE58D
:103BC00091E09183808385EC90E09587848784ECF5
:103BD00090E09787868780EC90E0918B808B81ECDA
:103BE00090E0938B828B82EC90E0958B848B86ECBB
:103BF00090E0978B868B118E128E138E148E8BE134
:103C000095E00E94BC1D8AEF94E00E94BC1D89EDE6
:103C100094E00E94BC1DE9EDF4E08AE08683158201
:103C200088EB94E00E94BC1DE8EBF4E082E186831F
:103C3000CFE2C58387E994E00E94BC1DE7E9F4E088
:103C400083E18683C58386E794E00E94BC1DE6E796
:103C5000F4E084E18683C58385E594E00E94BC1D81
:103C6000E5E5F4E08CE18683C58384E394E00E947B
:103C7000BC1DE4E3F4E080E58683C58383E194E042
:103C80000E94BC1DE3E1F4E081E58683C58382EFF9
:103C900093E00E94BC1DE2EFF3E088E58683C583D4
:103CA00081ED93E00E94BC1DE1EDF3E089E58683A0
:103CB000C58380EB93E00E94BC1DE0EBF3E082E55E
:103CC0008683C5838FE893E00E94BC1DEFE8F3E094
:103CD00083E58683C5838EE693E00E94BC1DEEE6F5
:103CE000F3E08AE58683C5838DE493E00E94BC1DE2
:103CF000EDE4F3E08BE58683C5838CE293E00E94DC
:103D0000BC1DECE2F3E08CE58683C5838BE093E099
:103D10000E94BC1DEBE0F3E08DE58683C5838AEE4F
:103D200092E00E94BC1DEAEEF2E086E48683C58341
:103D300089EC92E00E94BC1DE9ECF2E080E686830B
:103D4000C58360E084E00E947C04E0E8F5E0E49153
:103D5000CBEBD2E0E883ECE6F5E0E491F0E0EE0FA7
:103D6000FF1FE25AFA4F859194919A838983CE017D
:103D70000E942905E4EAF2E0168A158A1182D287A8
:103D8000C18717821086108289E0838381E0848353
:103D900085838683DF91CF910895789484B582607E
:103DA00084BD84B5816084BD85B5826085BD85B5DF
:103DB000816085BD80916E00816080936E0010925D
:103DC00081008091810082608093810080918100D8
:103DD0008160809381008091800081608093800069
:103DE0008091B10084608093B1008091B0008160C7
:103DF0008093B00080917A00846080937A008091F3
:103E00007A00826080937A0080917A00816080934A
:103E10007A0080917A00806880937A001092C100C5
:103E2000A895E0911702F091180282E08083E0915A
:103E30001302F09114021082E0911502F091160223
:103E400080E1808310921F02E0911B02F0911C021E
:103E500086E08083E0911902F0911A0280818061EE
:103E60008083E0911902F0911A028081886080833A
:103E7000E0911902F0911A02808180688083E091BC
:103E80001902F0911A0280818F7D8083C0E1D0E019
:103E9000F12CFE01F595E795E154FC4FE491C0FF4C
:103EA00061C0EF70E83008F06CC0F0E0E154FC4F06
:103EB000F4908F2D0E9401042196C23FD10549F74D
:103EC00088EB93E00E948C07809102028D7F8093A3
:103ED00002020E949A1A41E050E063E071E081E042
:103EE00092E00E94412560E081E090E00E94692517
:103EF0008091F6018F788093F6011092EC01109278
:103F0000EB0182E291E00E94100783E79AE190932F
:103F1000E0018093DF010E9405056B017C010E9496
:103F200005056C197D098E099F0968387341810563
:103F30009105D0F00E949A07A895C0E0D0E0A8951E
:103F40000E94F2068091F50184FD0E94F3110E9407
:103F500037162097A1F30E946D03882381F30E94F6
:103F60000000EDCFE2959DCF0E94F2060E948414DE
:103F70008091F50182FB882780F9A8958111DACF1D
:103F8000CECF1BEF1E0F00E08F2D0E9401040F5FAC
:103F90000117D0F391CF0F931F93CF93DF9382300C
:103FA000910510F482E090E0E0913E05F0913F052C
:103FB00030E020E0B0E0A0E0309799F42115310521
:103FC00009F44AC0281B390B24303105D8F58A8101
:103FD0009B816115710589F1FB0193838283FE0149
:103FE00011C0408151810281138148175907E0F0C7
:103FF0004817590799F4109761F012960C9312978D
:1040000013961C933296CF01DF91CF911F910F91A0
:10401000089500933E0510933F05F4CF2115310517
:1040200051F04217530738F0A901DB019A01BD0195
:10403000DF01F801C1CFEF01F9CF90933F058093E5
:104040003E05CDCFFE01E20FF31F819391932250E5
:10405000310939832883D7CF20913C0530913D0524
:10406000232B41F420913E0130913F0130933D05D7
:1040700020933C0520913C0130913D0121153105F3
:1040800041F42DB73EB74091400150914101241BAE
:10409000350BE0913C05F0913D05E217F307A0F4E4
:1040A0002E1B3F0B2817390778F0AC014E5F5F4F8E
:1040B0002417350748F04E0F5F1F50933D0540937E
:1040C0003C05819391939FCFF0E0E0E09CCFCF93AC
:1040D000DF930097E9F0FC01329713821282A091DE
:1040E0003E05B0913F05ED0130E020E01097A1F4CE
:1040F00020813181820F931F20913C0530913D0535
:104100002817390709F061C0F0933D05E0933C059D
:10411000DF91CF910895EA01CE17DF07E8F54A81D4
:104120005B819E0141155105B1F7E901FB83EA83EB
:1041300049915991C40FD51FEC17FD0761F4808197
:1041400091810296840F951FE9019983888382816A
:1041500093819B838A83F0E0E0E012968D919C919D
:1041600013970097B9F52D913C911197CD010296C7
:10417000820F931F20913C0530913D052817390788
:1041800039F6309751F510923F0510923E05B093E5
:104190003D05A0933C05BCCFD383C28340815181B0
:1041A000840F951FC817D90761F44E5F5F4F888150
:1041B0009981480F591F518340838A819B81938342
:1041C00082832115310509F0B0CFF0933F05E093CC
:1041D0003E059ECFFD01DC01C0CF13821282D7CFF6
:1041E000FC0188279927E89421912032E9F32930AE
:1041F00010F02E30C8F32B3241F02D3239F4689490
:1042000004C00E946D21820F911D219120532A30FC
:10421000C0F31EF4909581959F4F08951F93FC0164
:1042200099278827BC01E89411911032E9F31930DD
:1042300010F01E30C8F31B3251F01D3249F468945F
:1042400006C00E945821610F711D811D911D1191A1
:1042500010531A30B0F33EF49095809570956195A7
:104260007F4F8F4F9F4F1F910895FC0105900020B5
:10427000E9F7809590958E0F9F1F0895FB01DC0153
:104280004150504048F005900D920020C9F701C000
:104290001D9241505040E0F70895BB274A3031F459
:1042A000992322F4BDE2909581959F4F0C9476213D
:1042B000592F482F372F262F660F771F881F991FDA
:1042C000660F771F881F991F620F731F841F951F2A
:1042D000660F771F881F991F08957AE0979F902D8A
:1042E000879F802D910D11240895BB27FB01552731
:1042F000AA27880F991FAA1FA41710F0A41B839543
:104300005051B9F7A05DAA3308F0A95DA1930097B9
:1043100079F7B111B1931192CB010C947F23ABE0EB
:10432000B0E0E5E9F1E20C947B257C013B018A01D8
:10433000FC0117821682838181FFC8C1CE010196DC
:104340005C01F7019381F30193FD859193FF8191C6
:104350003F01882309F453C1853239F493FD8591D7
:1043600093FF81913F01853229F4B70190E00E94CB
:104370008F23E7CF912C212C312CFFE1F31538F05E
:104380008B3211F190F4803209F1833229F137FC3C
:104390003CC020ED280F2A3050F536FE20C08AE0C0
:1043A000989E200D1124922E06C08D3291F08033FC
:1043B00071F7689430F8F30193FD859193FF819133
:1043C0003F018111DACF21C0689431F8689432F846
:1043D000F2CF689433F8EFCF689434F8ECCFEAE08A
:1043E0002E9E200D1124222E689435F8E4CF8E32B3
:1043F00029F436FC04C1689436F8DDCF8C3619F404
:10440000689437F8D8CF8836B1F2982F9F7D9554AD
:104410009330E0F08336A1F18337C1F1833509F0A1
:1044200063C02801F2E04F0E511CF801C080D1801A
:10443000692D70E036FC02C06FEF7FEFC6010E946D
:1044400069234C01689437F882010AC00C5F1F4F42
:10445000FFE3F98388248394912C6501E89437F86D
:1044600033FE2DC0522C8114910471F5552009F4AE
:1044700068CFB70180E290E00E948F235A94F6CF74
:10448000F801808189830E5F1F4FE4CF2801F2E09D
:104490004F0E511CF801C080D180692D70E036FCB0
:1044A00002C06FEF7FEFC6010E9474234C018201AE
:1044B000D5CFB70180E290E00E948F232A94281480
:1044C000190409F0B0F7CECFF60137FC859137FE1D
:1044D00081916F01B70190E00E948F2351105A948F
:1044E000F1E08F1A9108BFCF843619F0893609F0B0
:1044F00077C0F80137FE6BC0608171818281938142
:104500000C5F1F4FF32DFF763F2E97FF09C090954C
:104510008095709561957F4F8F4F9F4F689437F8C6
:104520002AE030E0A5010E94BF23C82ECA188C2CB7
:10453000432C36FE0CC0E89440F8C91440F434FE15
:1045400005C032FC03C0F32DFE7E4F2E892C44FEA5
:1045500095C0FE01EC0DF11D8081803309F087C00C
:10456000242D297E422E842D8870582E43FC95C020
:1045700040FE8FC09C2C821418F42C0C922C98189E
:1045800044FE91C0B70180E390E00E948F2342FE79
:1045900009C088E790E041FE02C088E590E0B701DD
:1045A0000E948F23C91408F48AC0CA94D12C9FEFAB
:1045B000C91AD90ACA0CDB1CF60182916F01B70136
:1045C00090E00E948F23AC14BD04B1F74FCF6081FF
:1045D0007181072E000C880B990B0E5F1F4F92CF35
:1045E000D32CE894D4F82AE030E0853739F1232D34
:1045F000297FD22E8F3601F148F48835A9F0F701D2
:10460000868197812B96E2E10C949725803749F0BB
:104610008837A9F7D4FE02C06894D2F820E130E0D0
:104620000DC06894D4F8F6CF34FE03C0822F8660A4
:10463000D82E20E132E002C028E030E0F801D7FEB9
:104640000FC060817181828193810C5F1F4FA50132
:104650000E94BF23C82ECA183D2CE89437F867CFB4
:104660006081718190E080E00E5F1F4FF0CF42FCCF
:1046700002C0839478CF8394839475CF842D8678F9
:1046800009F471CFF6CFB70180E290E00E948F234A
:1046900083948214C0F3512C73CF522C5818821477
:1046A00008F46ECFF8CF842D867809F47BCF8BE2A7
:1046B00041FE80E247FC8DE2B70190E071CFB70187
:1046C00080E390E00E948F239A946CCF8FEF9FEF4E
:1046D00099CFFC010590615070400110D8F780958A
:1046E00090958E0F9F1F0895FC01615070400190BE
:1046F0000110D8F7809590958E0F9F1F0895DC01CB
:10470000FC01672F71917723E1F7329704C07C9108
:104710006D9370836291AE17BF07C8F308950F932E
:104720001F93CF93DF93182F092FEB018B8181FD0E
:1047300009C01FEF0FEF812F902FDF91CF911F91B5
:104740000F91089582FF14C02E813F818C819D813D
:10475000281739073CF4E881F981CF010196998344
:10476000888310838E819F8101969F838E83E3CF00
:10477000E885F985812F0995892BA1F3DACFFA0114
:10478000AA27283051F1203181F1E8946F936E7F90
:104790006E5F7F4F8F4F9F4FAF4FB1E03ED0B4E081
:1047A0003CD0670F781F891F9A1FA11D680F791FC2
:1047B0008A1F911DA11D6A0F711D811D911DA11DD3
:1047C00020D009F468943F912AE0269F11243019E3
:1047D000305D3193DEF6CF010895462F4770405D7E
:1047E0004193B3E00FD0C9F7F6CF462F4F70405D2D
:1047F0004A3318F0495D31FD4052419302D0A9F788
:10480000EACFB4E0A6959795879577956795BA9581
:10481000C9F700976105710508959B01AC010A2E47
:1048200006945795479537952795BA95C9F7620F1E
:10483000731F841F951FA01D08950E945F2408F414
:1048400081E00895E89409C097FB3EF49095809527
:10485000709561957F4F8F4F9F4F9923A9F0F92F46
:1048600096E9BB279395F695879577956795B795C4
:10487000F111F8CFFAF4BB0F11F460FF1BC06F5FAA
:104880007F4F8F4F9F4F16C0882311F096E911C0BC
:10489000772321F09EE8872F762F05C0662371F0DD
:1048A00096E8862F70E060E02AF09A95660F771FF1
:1048B000881FDAF7880F9695879597F90895990FCD
:1048C0000008550FAA0BE0E8FEEF16161706E807DA
:1048D000F907C0F012161306E407F50798F0621BFB
:1048E000730B840B950B39F40A2661F0232B242BD0
:1048F000252B21F408950A2609F4A140A6958FEFEF
:10490000811D811D08950E9496240C9407250E9404
:10491000F92438F00E94002520F0952311F00C9422
:10492000F0240C94F62411240C943B250E941825A5
:1049300070F3959FC1F3950F50E0551F629FF001F2
:10494000729FBB27F00DB11D639FAA27F00DB11D0B
:10495000AA1F649F6627B00DA11D661F829F222794
:10496000B00DA11D621F739FB00DA11D621F839F1B
:10497000A00D611D221F749F3327A00D611D231FF1
:10498000849F600D211D822F762F6A2F11249F573F
:1049900050409AF0F1F088234AF0EE0FFF1FBB1F42
:1049A000661F771F881F91505040A9F79E3F510501
:1049B00080F00C94F0240C943B255F3FE4F3983E88
:1049C000D4F3869577956795B795F795E7959F5FAB
:1049D000C1F7FE2B880F911D9695879597F908953D
:1049E00097F99F6780E870E060E008959FEF80ECA2
:1049F000089500240A941616170618060906089545
:104A000000240A9412161306140605060895092EAA
:104A10000394000C11F4882352F0BB0F40F4BF2B19
:104A200011F460FF04C06F5F7F4F8F4F9F4F089559
:104A300057FD9058440F551F59F05F3F71F047954F
:104A4000880F97FB991F61F09F3F79F08795089534
:104A5000121613061406551FF2CF4695F1DF08C053
:104A6000161617061806991FF1CF86957105610570
:104A700008940895E894BB2766277727CB0197F918
:104A80000895DC01CB01FC01F999FECF06C0F2BD0F
:104A9000E1BDF89A319600B40D9241505040B8F7FC
:104AA0000895F999FECF92BD81BDF89A992780B5F6
:104AB0000895DC01A40FB51F4150504048F0CB01D0
:104AC000840F951F2E910E946A2541505040D0F7C7
:104AD0000895262FF999FECF92BD81BDF89A0197CE
:104AE00000B4021639F01FBA20BD0FB6F894FA9A36
:104AF000F99A0FBE08952F923F924F925F926F9254
:104B00007F928F929F92AF92BF92CF92DF92EF925D
:104B1000FF920F931F93CF93DF93CDB7DEB7CA1BDE
:104B2000DB0B0FB6F894DEBF0FBECDBF09942A8809
:104B3000398848885F846E847D848C849B84AA84B1
:104B4000B984C884DF80EE80FD800C811B81AA813E
:104B5000B981CE0FD11D0FB6F894DEBF0FBECDBF09
:104B6000ED0108955058BB27AA270E94CA250C942E
:104B700007250E94F92438F00E94002520F039F41E
:104B80009F3F19F426F40C94F6240EF4E095E7FB0D
:104B90000C94F024E92F0E94182558F3BA176207E5
:104BA00073078407950720F079F4A6F50C943A254D
:104BB0000EF4E0950B2EBA2FA02D0B01B901900138
:104BC0000C01CA01A0011124FF27591B99F0593F7C
:104BD00050F4503E68F11A16F040A22F232F342FC4
:104BE0004427585FF3CF469537952795A795F04012
:104BF0005395C9F77EF41F16BA0B620B730B840B27
:104C0000BAF09150A1F0FF0FBB1F661F771F881FDE
:104C1000C2F70EC0BA0F621F731F841F48F4879536
:104C200077956795B795F7959E3F08F0B0CF939528
:104C3000880F08F09927EE0F9795879508950E94A1
:104C400033260C9407250E94002558F00E94F92471
:104C500040F029F45F3F29F00C94F02451110C949A
:104C60003B250C94F6240E94182568F39923B1F390
:104C7000552391F3951B550BBB27AA276217730782
:104C8000840738F09F5F5F4F220F331F441FAA1F16
:104C9000A9F335D00E2E3AF0E0E832D091505040D2
:104CA000E695001CCAF72BD0FE2F29D0660F771F80
:104CB000881FBB1F261737074807AB07B0E809F066
:104CC000BB0B802DBF01FF2793585F4F3AF09E3FEB
:104CD000510578F00C94F0240C943B255F3FE4F3ED
:104CE000983ED4F3869577956795B795F7959F5F2E
:104CF000C9F7880F911D9695879597F90895E1E07A
:104D0000660F771F881FBB1F621773078407BA07D8
:104D100020F0621B730B840BBA0BEE1F88F7E09533
:104D200008950E9498266894B1110C943B2508952B
:104D30000E94202588F09F5798F0B92F9927B751E6
:104D4000B0F0E1F0660F771F881F991F1AF0BA952F
:104D5000C9F714C0B13091F00E943A25B1E008952E
:104D60000C943A25672F782F8827B85F39F0B93F20
:104D7000CCF3869577956795B395D9F73EF49095E2
:104D80008095709561957F4F8F4F9F4F08950E943A
:104D90005F2408F48FEF08950E945F24880B990B1D
:104DA000089597FB072E16F4009407D077FD09D0DD
:104DB0000E94072707FC05D03EF4909581959F4FF0
:104DC0000895709561957F4F0895A1E21A2EAA1B50
:104DD000BB1BFD010DC0AA1FBB1FEE1FFF1FA217AB
:104DE000B307E407F50720F0A21BB30BE40BF50BA8
:104DF000661F771F881F991F1A9469F76095709531
:104E0000809590959B01AC01BD01CF010895AA1B2F
:104E1000BB1B51E107C0AA1FBB1FA617B70710F0A5
:104E2000A61BB70B881F991F5A95A9F780959095D7
:104E3000BC01CD010895EE0FFF1F0590F491E02D08
:104E40000994B0E0A0E0E7E2F7E20C947D258C0144
:104E5000009751F4CB010E94CB1F8C01C801CDB744
:104E6000DEB7E0E10C949925FC01E60FF71F9C01E9
:104E700022503109E217F30708F49DC0D901CD9102
:104E8000DC911197C617D70798F0C530D10530F3DC
:104E9000CE0104978617970708F3C61BD70B2297F6
:104EA000C193D1936D937C93CF010E946720D6CF9D
:104EB0005B01AC1ABD0A4C018C0E9D1EA0913E05F3
:104EC000B0913F05512C412CF12CE12C109731F57C
:104ED00080913C0590913D058815990509F05CC0CD
:104EE0004616570608F058C080913C0190913D014C
:104EF000009741F48DB79EB7409140015091410118
:104F0000841B950BE817F90708F055C0F0933D0591
:104F1000E0933C05F90171836083A0CF8D919C9152
:104F2000119712966C90129713967C901397A81570
:104F3000B90559F56C0142E0C40ED11CCA14DB045A
:104F400020F1AC014A195B09DA011296159780F03D
:104F50006282738251834083D9016D937C93E11403
:104F6000F10471F0D7011396FC93EE93129776CF6C
:104F700022968C0F9D1FF90191838083F301EFCF5F
:104F8000F0933F05E0933E0569CF4816590608F4B3
:104F90002C017D01D3019ACFCB010E94CB1F7C0154
:104FA000009749F0AE01B8010E94E627C8010E94AF
:104FB0006720870153CF10E000E050CF9111089592
:104FC00081568A5108F4805285580895FB01DC010E
:104FD00002C001900D9241505040D8F70895FB0156
:104FE000DC0101900D920020E1F70895FB01DC0146
:104FF0004150504048F001900D920020C9F701C087
:105000001D9241505040E0F70895AEE0B0E0EBE073
:10501000F8E20C9489250D891E8986E08C831A8319
:1050200009838FEF9FE79E838D83AE01475E5F4FBD
:105030006F89788DCE0101960E948F212F8138854E
:10504000020F131FF80110822E96E4E00C94A525A0
:04505000F894FFCF02
:10505400FFFFFF00FCE1A8A8FF110A3C07FB0FA219
:1050640009190CBC093D0B730966075C07E3FF0AC9
:105074000101F90C290C4646464646464646002D93
:10508400384E616D65382D0011051105000040058D
:1050940080004F575F54656D7000004F575F4E613D
:1050A4006D6500005E00BC007701000000009903FC
:1050B40003033003060461033F0353030D0A006E28
:1050C400616E00696E66006F76660030002D0043E5
:1050D4006C656172696E6720506F733A20004646B2
:1050E40046464646464600322E332E32004F4B008B
:1050F4004F6E65576972654D617374657200322E27
:1051040030380025735F256400506F7320002564D8
:1051140020253032643A253032643A253032640036
:0651240066697865640075
:00000001FF
