:100000000C9477010C94FA160C94D3160C949F015F
:100010000C949F010C949F010C9421170C949F0148
:100020000C949F010C949F010C949F010C949F01D0
:100030000C949F010C949F010C949F010C949F01C0
:100040000C9489160C949F010C9457160C9431163D
:100050000C949F010C949F010C949F010C949F01A0
:100060000C949F010C949F01536176654E616D6500
:1000700000454550524F4D20636C656172656400C8
:1000800068775265626F6F7400446267352044651B
:100090007374726F79204F5749442030006462674F
:1000A00031206E6F7420706F737369626C65004DE0
:1000B0007953656E736F727320616C7265616479D8
:1000C0002061637469766174656420536572696147
:1000D0006C20496E746572666163650054782045D2
:1000E0005252005478204F4B00487754696D650098
:1000F0004462675F52657475726E004462675F4C5C
:100100006576656C0052465F4368616E6E656C0093
:1001100050415F4C6576656C0054585F52535349AB
:1001200000506172656E744E6F6465005061737348
:100130006976654E6F646500436F6D70696C6544E8
:10014000617465004F575F5265736F6C7574696FAA
:100150006E004F575F4465765F436E74004F575F84
:10016000436F6E5F4C7374004A616E2032352032EB
:100170003032332031323A32313A30300052463266
:10018000345F50415F4D494E0057726F6E67205487
:10019000656D70203C202D3530206F7572203E201B
:1001A000383000322E332E320A00207C5F5C2F6004
:1001B0002C0A0702200220B28710034001200024ED
:1001C0000222100222020220022200222002022029
:1001D0002227101341010101032220304020305218
:1001E0000340221402031052240221710100101056
:1001F0001210122210100224010103220300200118
:10020000010032203712100121322601284032220B
:100210001210121222432224121001222470C12231
:10022000240F0F536176654F774944004F6E655731
:100230006972652042757320697374207565626503
:10024000726675656C6C740053706569636865727D
:1002500020454550524F4D2069737420766F6C6C69
:10026000004E65756573204F572044657669636558
:1002700000005EBCE2613FDD83C29C7E20A3FD1FC7
:1002800041009D23BE46DB65F88C11AF32CA57E9A9
:100290007400000000240027002A00000000002550
:1002A0000028002B000000000800020100000304E9
:1002B00007000000000000000000000000230026EE
:1002C00000290004040404040404040202020202DB
:1002D000020303030303030102040810204080010A
:1002E0000204081020010204081020004017112405
:1002F0001FBECFEFD8E0DEBFCDBF11E0A0E0B1E080
:10030000EAE7F0E402C005900D92AE3BB107D9F7E1
:1003100025E0AEEBB1E001C01D92A330B207E1F7DA
:1003200011E0C7E7D1E004C02197FE010E94361F0B
:10033000C637D107C9F70E9433180C943B200C94A0
:100340000000942FEDEBF4E03091E70131838283DC
:10035000668325834481487F492B477E4483CF01B0
:100360000895AF92BF92CF92DF92EF92FF920F93D8
:100370001F93CF93DF936C017B018B01040F151F3B
:10038000EB015E01AE18BF08C017D10759F06991A3
:10039000D601ED91FC910190F081E02DC601099507
:1003A000892B79F7C501DF91CF911F910F91FF90B4
:1003B000EF90DF90CF90BF90AF900895FC01538DE8
:1003C000448D252F30E0842F90E0821B930B54172F
:1003D00010F0CF96089501970895FC01918D828DBC
:1003E000981761F0A28DAE0FBF2FB11D5D968C9155
:1003F000928D9F5F9F73928F90E008958FEF9FEF94
:100400000895FC01918D828D981731F0828DE80F4F
:10041000F11D858D90E008958FEF9FEF0895FC0109
:10042000918D228D892F90E0805C9F4F821B9109D6
:100430008F73992708958BEE91E00E940F0221E0BF
:10044000892B09F420E0822F0895FC01A48DA80FC8
:10045000B92FB11DA35ABF4F2C91848D90E0019606
:100460008F739927848FA689B7892C93A089B18926
:100470008C91837080648C93938D848D981306C0C7
:100480000288F389E02D80818F7D80830895EF922B
:10049000FF920F931F93CF93DF93EC0181E0888F3E
:1004A0009B8D8C8D98131AC0E889F989808185FF0E
:1004B00015C09FB7F894EE89FF896083E889F989B0
:1004C00080818370806480839FBF81E090E0DF91B2
:1004D000CF911F910F91FF90EF900895F62E0B8D05
:1004E00010E00F5F1F4F0F731127E02E8C8D8E11C0
:1004F0000CC00FB607FCFACFE889F989808185FF27
:10050000F5CFCE010E942502F1CFEB8DEC0FFD2F30
:10051000F11DE35AFF4FF0829FB7F8940B8FEA89E1
:10052000FB8980818062CFCFCF93DF93EC01888DF0
:100530008823B9F0AA89BB89E889F9898C9185FD5E
:1005400003C0808186FD0DC00FB607FCF7CF8C91EC
:1005500085FFF2CF808185FFEDCFCE010E9425027D
:10056000E9CFDF91CF91089580E090E0892B29F0C9
:100570000E941B0281110C940000089590E0FC0180
:10058000EB55FD4F2491FC01E952FD4F3491FC01E4
:10059000ED53FD4FE491EE23C9F0222339F02330CF
:1005A00001F1A8F4213019F1223029F1F0E0EE0F29
:1005B000FF1FE556FD4FA591B4918FB7F894EC91CC
:1005C000611126C030953E233C938FBF089527309C
:1005D000A9F02830C9F0243049F7809180008F7D40
:1005E00003C0809180008F7780938000DFCF84B537
:1005F0008F7784BDDBCF84B58F7DFBCF8091B0003A
:100600008F778093B000D2CF8091B0008F7DF9CFEB
:100610003E2BDACFCF93DF9390E0FC01E952FD4F00
:1006200024918D539D4FFC0184918823D1F090E05B
:10063000880F991FFC01EF56FD4FA591B491FC0165
:10064000E556FD4FC591D49161110EC09FB7F89446
:100650008C91E22FE0958E238C932881E223E8830E
:100660009FBFDF91CF9108958FB7F894EC91E22B63
:10067000EC938FBFF6CF3FB7F8948091E101909152
:10068000E201A091E301B091E40126B5A89B05C069
:100690002F3F19F00196A11DB11D3FBFBA2FA92F01
:1006A000982F8827BC01CD01620F711D811D911DFE
:1006B00042E0660F771F881F991F4A95D1F708956A
:1006C0008F929F92AF92BF92CF92DF92EF92FF9262
:1006D0006B017C010E943B034B015C01C114D104FE
:1006E000E104F104B9F00E943B03681979098A0911
:1006F0009B09683E73408105910580F321E0C21A91
:10070000D108E108F10888EE880E83E0981EA11C4C
:10071000B11CE4CFFF90EF90DF90CF90BF90AF90EF
:100720009F908F9008952FB7F8946091DD0170919C
:10073000DE018091DF019091E0012FBF08950895BF
:10074000DC0180E0615090F09D919827E92FEF70D7
:10075000F0E0EF58FD4F2491E92FE295EF70F0E0C3
:10076000EF57FD4FE491822F8E27ECCF0895FC01C7
:1007700013861586148612861186108617821682B5
:100780001582148213820895DC012C911196ED914B
:10079000FC91F8948181822B81839281322F309554
:1007A0009323928387E090E00197F1F7818183237F
:1007B000818383E290E00197F1F790817894EFECE8
:1007C000F0E03197F1F7922381E009F480E0089599
:1007D000FC0190810180F281E02D292F209560FF9E
:1007E00014C0F8948281822382838181892B818342
:1007F000A3E2B0E01197F1F78281982B928378946D
:1008000087ED90E00197F1F70895F89482818223B3
:1008100082838181892B8183AFEFB0E01197F1F75B
:100820008281982B928378948FE090E0EBCFDF92D7
:10083000EF92FF920F931F93CF93DF93EC01D62E8D
:10084000E42E08E010E0FF24F39461E08D2D8F2169
:1008500009F460E0CE010E94E803FF0C0150110989
:10086000A1F7E11010C0F894E981FA8191818881A3
:10087000809589238183E981FA819281888180959D
:10088000892382837894DF91CF911F910F91FF90FC
:10089000EF90DF900895EF92FF920F931F93CF9305
:1008A000DF938C017B0140E065E50E941704E701BE
:1008B00088E0E80EF11C699140E0C8010E9417042D
:1008C000CE15DF05C1F7DF91CF911F910F91FF90FA
:1008D000EF900895FC0190810180F281E02DF89461
:1008E0008181292F20958223818378943DE743E0FD
:1008F00050E0315029F1DA011197F1F78081892315
:10090000C1F3F8948281822382838181892B818340
:100910007894ABE7B7E01197F1F7F89481818223DF
:100920008183A3E1B1E01197F1F78081982381E001
:1009300009F080E07894E3E6F6E03197F1F7089566
:1009400080E008956F927F928F929F92AF92BF92B4
:10095000CF92DF92EF92FF920F931F93CF93DF938B
:100960008C01EB0180919102909192020E946A04A5
:10097000882309F43FC0B8018091910290919202BE
:100980000E944B0440E06EEB8091910290919202A4
:100990000E9417047E016E0189E0C80ED11C8E01F1
:1009A000A0909102B090920288E0882E912C712C38
:1009B00066246394C5010E94C40381117628660CE5
:1009C000E1E08E1A9108B1F7F80171928F01CE160D
:1009D000DF0631F780919102909192020E946A04A1
:1009E000813041F4F70181917F01811105C0E01749
:1009F000F107C1F790E008C068E0CE010E94A003B3
:100A000091E028852813F6CF892FDF91CF911F9190
:100A10000F91FF90EF90DF90CF90BF90AF909F909D
:100A20008F907F906F900895CF93DF93CDB7DEB70F
:100A300029970FB6F894DEBF0FBECDBFBE016F5F22
:100A40007F4F0E94A204882331F08D818F33A9F05B
:100A500020F48F31A1F080E007C08F3521F08F376F
:100A6000D1F78CE001C08BE029960FB6F894DEBF79
:100A70000FBECDBFDF91CF9108958AE0F5CF89E019
:100A8000F3CF089510928C020895FC019381977022
:100A90006A3108F069E188E0689FB0011124692B90
:100AA0006383CF0108950F931F93CF93DF93EC01DE
:100AB0008B0162E00E9445058C818F7180648C837C
:100AC00018870F83CE01DF91CF911F910F91089569
:100AD0001F93CF93DF93EC01162F61E00E94450531
:100AE0008C818F7180628C831F83CE01DF91CF91C7
:100AF0001F910895FC0183818695869586958A319C
:100B000008F089E10895E091CF01F091D00130978C
:100B100021F00280F381E02D099408950F931F9333
:100B20000E9493030091D1011091D2012091D30131
:100B30003091D401601B710B820B930B1F910F91AD
:100B400008959C018091CF019091D0018217930765
:100B5000F1F09091D9019F719093D9013093D00118
:100B60002093CF01E091CF01F091D001309721F097
:100B70000190F081E02D09950E9493036093D101CB
:100B80007093D2018093D3019093D4010895809102
:100B9000D901805E8093D901E5CF0F931F930E9406
:100BA0008E052091DA012077203779F000E117E2F5
:100BB00020E030E0061717072807390758F489E2C4
:100BC00091E01F910F910C94A10500E61AEE20E030
:100BD00030E0F0CF1F910F9108958091DA018F706E
:100BE000863020F089E191E00C94A1050895809170
:100BF000D90184608093D9018091DA018078809353
:100C0000DA01E091C301F091C401309709F0099431
:100C100008958EBD00000DB407FEFDCF8EB508957A
:100C2000FC0101900020E9F73197AF01481B590BF7
:100C3000BC018BEE91E00C94B1010F931F93CF9305
:100C4000DF938C01D0E0C0E0F801EC0FFD1F649150
:100C5000662341F08BEE91E00E944702892B11F050
:100C60002196F2CF8AE691E00E9410068C0F9D1F1C
:100C7000DF91CF911F910F910895BF92CF92DF9294
:100C8000EF92FF920F931F93CF93DF93EC01B62E59
:100C9000C72E8D85811105C0CE010E946A04811185
:100CA0000EC01B861D861C8680E0DF91CF911F91B0
:100CB0000F91FF90EF90DF90CF90BF90089540E0AC
:100CC00060EFCE010E94170401E0E12CD12C11E06D
:100CD000CE010E94C403F82ECE010E94C40391E00D
:100CE000F91218C0813099F51134D8F2DB86D11091
:100CF00002C081E08D878B81882399F22396EB2DAA
:100D0000FC2DCF01089629912193E817F907D9F70F
:100D100081E0CBCFEE2DF0E0F8120FC08B851817D5
:100D2000A0F4DE01AE0FBF1F13968C91802379F4DF
:100D3000F12C193008F41C87D12EEC0FFD1F838194
:100D4000902F9095892383830AC08113F1CFFE01F0
:100D5000EE0DF11D8381802B8383FF24F3946F2D8F
:100D6000CE010E94E8031F5F000F11F4E39401E03D
:100D700087E08E1508F0ACCFB7CFCF93C091DB01E1
:100D8000CF3FA1F00E9493036093D5017093D601E9
:100D90008093D7019093D8018091E901C813C09343
:100DA000E90185E191E0CF910C94A1050E948E05A7
:100DB000613D77408105910568F08091D9018036C9
:100DC00018F481E191E0EFCF877F8093D90189E129
:100DD00091E0E9CFCF9108958091E7018F3F21F015
:100DE00081E191E00C94A1050E948E05613D774060
:100DF0008105910550F08091D901803618F48DE07D
:100E000091E0F0CF89E091E0EDCF08950E948E054A
:100E1000613D77408105910520F48091D90181FFE2
:100E200017C08091E8018F3F49F08091D9018E7FF2
:100E30008093D9018DE091E00C94A1058091D901B6
:100E4000803618F489E191E0F7CF89E091E0F4CFA2
:100E50000895E9EDF1E08081877F8F7E8083109295
:100E6000D5011092D6011092D7011092D80144E01A
:100E700050E070E060E087EE91E00C94761E0F93F6
:100E80001F93CF93DF93EC018B0180E06115710517
:100E900019F0CB010E949F1A682FCE010E944505D0
:100EA0008C818F718C83CE010E947A05482F50E08F
:100EB000B801CE0107960E94A81ACE010E947A05B9
:100EC0008C0F9D2F911DFC011782CE01DF91CF91D8
:100ED0001F910F910895BF92CF92DF92EF92FF92F0
:100EE0000F931F93CF93DF937B01042FB22E91E5D5
:100EF0009CBD91E09DBD2A98E3E2F0E03197F1F7C7
:100F00000E940906182FE7010150A8F0BB2051F0FC
:100F10008FEF0E940906182FE114F104A9F38883CA
:100F20002196F2CF6E018FEFC81AD80A88810E94ED
:100F30000906E601E9CF2A9A83E290E00197F1F7EA
:100F4000812FDF91CF911F910F91FF90EF90DF9054
:100F5000CF90BF900895CF93DF931F92CDB7DEB7A8
:100F6000698320E041E0BE016F5F7F4F0E946B0705
:100F70000F90DF91CF9108958091DA01982F9077AB
:100F8000903759F0982F92959F709F5F9770929528
:100F9000907F8F78892B8093DA018091D9018B7FA4
:100FA0008F7E8093D90129986CE080E20C94AB0786
:100FB0006FE080E20E94AB07609108016F3F19F07B
:100FC0008AE20E94AB07299A089521E041E070E08F
:100FD00060E00C946B0720E040E070E060E00C946F
:100FE0006B07FF920F931F93CF93DF93D82F8B0143
:100FF0008091E701FB018083838182FD4AC0CB01A0
:101000000E947A0597E0F92EF80E8091EA01C1E07E
:1010100080FD03C0DF3F09F0C0E08091C0018F5F19
:101020008093C0010115110509F44DC0299883E092
:1010300092E00197F1F76EE080E20E94AB078BE847
:1010400091E00197F1F76D2F8AE20E94AB076D2FB7
:1010500080E30E94AB0781EE0E94EB07CC2321F0D6
:1010600060E584E20E94AB0720E04F2DB80180EAE2
:101070000E946B07299A10E000E08FEF0E94EB07B7
:10108000807351F40F3F100739F0A8950F5F1F4F81
:10109000F4CF80E2F82EB9CF299860E787E20E946A
:1010A000AB07D82F84FF03C081EE0E94EB07CC234F
:1010B00021F06FE584E20E94AB070E94D807D5FFBC
:1010C00003C0C1E001C0C0E08C2FDF91CF911F9120
:1010D0000F91FF9008950F931F93CF938C01FC0104
:1010E00082819091D90190FF04C08F3F79F5CFEFB5
:1010F00004C081111BC0C091E801B8018C2F0E946F
:10110000F1079091E8019C1318C09091DA018111C8
:1011100018C02091CE012F5F2093CE0121E0290F2E
:101120002F70907F922B9093DA0107C08F3FF9F2D6
:10113000B8010E94F1078823F1F2CF911F910F911E
:101140000895907F9093DA0181E0F7CF80E0F5CFAA
:101150002091D90122FD0C946B0880E00895FC01D8
:101160008091E70181839481907F91609483809145
:10117000E60180FF03C0CF010C94A80880E0089529
:101180005F926F927F928F929F92AF92BF92CF9217
:10119000DF92EF92FF920F931F93CF93DF938FE92C
:1011A00092E00E94B703712CD0E0C0E08DE991E09D
:1011B0009C01265C314059018CE991E0FC01E65C20
:1011C000F1406F0129E5622E3EE4532E66EC71E09A
:1011D0008FE992E00E943D06882321F1D830C8F4BF
:1011E00090E1892E912CC0E006EC11E07501E80C2D
:1011F000F91CC701800F911F0E94861EF801919172
:101200008F0198132FC0F1E00E3C1F0791F7EC2FD0
:101210007DC06CE272E08DEA92E00E943F070E947E
:10122000AF0843C0D11106C06DE671E08DE291E0D8
:101230000E9402207092C5016D2F8AE594E00E9401
:101240006805DF91CF911F910F91FF90EF90DF9094
:10125000CF90BF90AF909F908F907F906F905F9056
:101260000C94AF08CF5F20E1820E911CC83009F0CA
:10127000BBCF0DEA11E0912CC8010E94861EFF240D
:10128000F394F90C8F3FD1F09F2C005F1F4F28E0A3
:10129000F212F2CF5092350168E472E08DEA92E0EA
:1012A0000E943F070E94AF08C8E08091C70190915B
:1012B000C801890F780E7C0EDF5F88CF61E672E08F
:1012C0008DEA92E00E943F070E94AF0863E272E05D
:1012D0008DEA92E00E943F070E94AF080F2D029511
:1012E000007F86ECE82E81E0F82E0C0D1D2D111DDF
:1012F000F70161917F01C8018E0F9F1F0E949E1E02
:10130000FEECEF16F1E0FF0699F7E92DF0E0E35D62
:10131000FE4F6082CACFCF92DF92EF92FF92CF93BF
:10132000DF930E948E056B017C0126E143E050E0D3
:101330006FEF80E00E94A101EC0164E00E9445058E
:101340008C818F71806A8C83CF82D886E986FA86F9
:10135000CE01DF91CF91FF90EF90DF90CF900C9472
:10136000A808CF93DF93EB0124E250E040E0682F20
:1013700080E00E94A101BE010E943F07DF91CF9152
:101380000C94A8080C94A8088FEF8093DB01E9ED7A
:10139000F1E080818860808328E143E050E06FEFD6
:1013A00080E00E94A10161E00E9468050C946B0836
:1013B000CF93219A229A29982A9ACFB7F8948091AC
:1013C000BE01811127C0EDECF2E08491E1EEF2E084
:1013D0009491E82FF0E0EE0FFF1FEF56FD4FA5911F
:1013E000B491EC91E92321F461E08AE00E94BE020D
:1013F00061E08AE00E940A038CB580618CBD8CB5E7
:1014000080648CBD61E08DE00E940A0361E08BE0A6
:101410000E940A038091BE018F5F8093BE01CFBFFF
:1014200029986EE080E20E94AB078BE496E4019776
:10143000F1F763E083E20E94AB076FE584E20E946C
:10144000AB0760E685E20E94AB0761E286E20E949C
:10145000AB0764E08DE30E94AB078DE10E94E507D6
:10146000843041F063E780E50E94AB0764E08DE3E0
:101470000E94AB0786E00E94E507813209F04DC06B
:1014800085E00E94E507803609F047C062E082E20D
:101490000E94AB0760E081E20E94AB0763E08CE34F
:1014A0000E94AB078FEF8093030120E045E063E0EB
:1014B00071E08BE20E946B0720E045E063E071E0A1
:1014C0008AE20E946B0720E045E063E071E080E380
:1014D0000E946B0782EE0E94EB0781EE0E94EB07F1
:1014E00060E787E20E94AB078091D9018061809319
:1014F000D9018091EA018E7F8093EA0186E9809389
:10150000E70166E990E080E00E949E1EC091E7013D
:10151000CF3F41F489E191E002C089E091E0CF91B1
:101520000C94A1058FEF8C0F8E3FB8F7C093080184
:1015300063E082E20E94AB0761E081E20E94AB07B8
:101540000E94D8076C2F90E080E00E949E1EE2CFA0
:101550000F931F93CF93DF93EC018B0160E0011594
:10156000110539F0F80101900020E9F731976E2F4D
:10157000601BCE010E9445058C818F718C83CE014A
:101580000E947A05482F50E0B801CE0107960E94CC
:101590000920CE010E947A058C0F9D2F911DFC0120
:1015A0001782CE01DF91CF911F910F9108951F9364
:1015B000CF93DF93182F262FEA0150E040E0682FE9
:1015C00080E00E94A1011F3F11F4C6E7D1E0BE01F7
:1015D0000E94A80ADF91CF911F910C94A8088091D6
:1015E000E7018F3F69F423E043E050E06FEF80E0D4
:1015F0000E94A1016CE671E00E94A80A0C946B089D
:101600000895E9EDF1E08081897F81608083E7EED4
:10161000F1E08FEF8283818327E043E050E06FEFBA
:101620000E94A1016CE671E00E94A80A0C946B086C
:10163000FC012481229526952770213011F48781A1
:101640000895211104C007960E945A1A089580E057
:1016500008952F923F924F925F926F927F928F9256
:101660009F92AF92BF92CF92DF92EF92FF920F9331
:101670001F93CF93DF93CDB7DEB7A3970FB6F89440
:10168000DEBF0FBECDBF6C012DE2222E21E0322E37
:1016900038E1632E712C83E190E09C012D523140A2
:1016A0003BA32AA3260137E0430E511CF10181918F
:1016B0001F01893509F062C0F60126818AA19BA12C
:1016C000820D931D2817190609F058C085818F32A5
:1016D00009F054C0848182958695877029F0F12C99
:1016E000E12C10E000E01BC041145104C1F3F201F1
:1016F00001900020E9F731977F01E418F508B70160
:101700006F5F7F4F90E080E00E943C1F8C0100974C
:1017100009F4B3C0FC011082B2010E94022068E605
:1017200070E08DEA92E00E943F070E94AF08B12C62
:10173000A12C4301F3E68F1AFEEF9F0AAE14BF04FB
:1017400030F4F801EA0DFB1D0115110521F410928A
:10175000BF01EFEBF1E06081C4018A0D9B1D0E9487
:101760009E1E2FEFA21AB20A38E0A316B10431F779
:101770000115110519F0C8010E94D11980E1680E08
:10178000711CE8E96E16710409F090CFF6018681AC
:10179000863409F0A8C085818F3209F0A4C0C60143
:1017A0000E94180B813009F46BC08093C1018091B5
:1017B000C101843009F06FC01092C10161E770E08F
:1017C0008DEA92E00E943F070E94AF0880E1882ED8
:1017D000912CA12CB12C0DEA11E09AE0492E512C4C
:1017E000612C712C8CE791E00E94100619A2A501D2
:1017F00094017E01F1E2EF0EF11CCA01B901A301CF
:1018000092010E94001F605DF70162937F01211524
:1018100031054105510589F7309719F0CF010E9434
:1018200010068AE691E00E9410066FEFC8010E9440
:101830009E1E0F5F1F4FFFEF8F1A9F0AAF0ABF0A4E
:101840000D3222E0120771F66091C1018DE991E03D
:101850000E949E1E6091C10187EF93E00E9468057F
:101860000E94AF0888E198E00FB6F894A89580939D
:1018700060000FBE90936000FFCFF12CE12C4FCFA2
:101880001092C1016DE970E08DEA92E00E943F077D
:101890000E94AF088CCF853079F41092C10169E8BD
:1018A00070E08DEA92E00E943F070E94AF0861E479
:1018B0008DEA91E00E949E1E8091C101893099F4C9
:1018C00060E870E08DEA92E00E943F070E94AF0856
:1018D00088E198E00FB6F894A895809360000FBE59
:1018E00090936000FFCFA3960FB6F894DEBF0FBEB3
:1018F000CDBFDF91CF911F910F91FF90EF90DF90BF
:10190000CF90BF90AF909F908F907F906F905F909F
:101910004F903F902F9008952F923F924F925F9259
:101920006F927F928F929F92AF92BF92CF92DF92EF
:10193000EF92FF920F931F93CF93DF93CDB7DEB754
:10194000A1970FB6F894DEBF0FBECDBF36E0D32E01
:101950009E012F5F3F4F19014EE4C42E54EB452EDC
:101960005BE2552E51E1652E712C88248A9462E049
:10197000962E63E0A62EB92C87E10E94E50780FD34
:1019800060C2DA94DD2009F45CC221E041E070E03D
:1019900060E080E60E946B07182F813220F082EE13
:1019A0000E94EB0710E021E0412F6EED74E081E62C
:1019B0000E946B0760E487E20E94AB0781E2EEEDD4
:1019C000F4E0D10101900D928A95E1F70C81802F0E
:1019D0008370823089F6C1010E947A0502FD89E197
:1019E000895F1813C9CF8EED94E00E947A0590911B
:1019F000E204392F3770F32E1091E3040091DF04D5
:101A00003091DE042091E0044091DA014068409377
:101A1000DA014091E7012413EAC1E82FF0E0E25235
:101A2000FB4F178293FF15C081E2EEEDF4E0ADEBC2
:101A3000B4E001900D928A95E1F7977E90619093C2
:101A4000C1042093BE040093BF048DEB94E00E9478
:101A5000A8089091E20494FDC5C153E0F512C2C1FB
:101A60008091E30421EF280F233008F485CF143050
:101A700009F482CF1830D9F41091D90110FF7CCF2E
:101A80008EED94E00E94180B8F3F09F475CF8F5FA5
:101A90008F3F09F471CF9091E901891708F06CCF5D
:101AA00011FD6ACF8093E9010093E80165CF1831F9
:101AB00059F429E143E050E06FEF802F0E94A1012B
:101AC00061E00E94680520C0193171F48091D9014C
:101AD00083FF52CF877F8093D9018EED94E00E94DF
:101AE000180B8093DB0148CF1E3109F445CF1D311F
:101AF00071F42FE143E050E06FEF80E00E94A1011C
:101B000060E07FEF0E9453050E946B0835CF209163
:101B1000DF04211164C18D3059F488E198E00FB6DB
:101B2000F894A895809360000FBE90936000FFCF5B
:101B30008B3179F48EED94E00E94180B91E08111C5
:101B400001C090E08091E60190FB80F98093E6016E
:101B500013CF863099F49091E50481E0992319F030
:101B60009D3409F080E08093E50141E050E063E0BE
:101B700071E085EE91E00E948E1EFECE833119F455
:101B80000E94F713F9CE823119F40E948B09F4CE2A
:101B90008230C1F422E043E050E06FEF80E00E9429
:101BA000A1018C0164E00E944505F80184818F71D8
:101BB000806A848387829086A186B286C8010E944B
:101BC000C209DACE813001F520E030E0232B09F4A0
:101BD000D3CE929596959770953059F46091E5041F
:101BE0007091E6048091E7049091E8040E9400005F
:101BF000C3CE911105C085EE94E00E94781AF6CF0D
:101C000060E070E0CB01F2CF8A3009F4B5CE8C31C0
:101C100009F0E8C08091E504823509F4ADCE86353F
:101C200089F52CE143E050E06FEF80E00E94A101D4
:101C30008C01C0927C0066E470E080E090E00E943D
:101C4000600380917A00806480937A0080917A00AA
:101C500086FDFCCFE0907800F090790062E0C8014A
:101C60000E944505F80184818F7180668483970105
:101C700050E040E0C301B2010E94001FF80130872C
:101C800027839CCF863409F05FC02CE143E050E00D
:101C90006FEF80E00E94A1018C01F89440916000F8
:101CA0003091800020918100909182008FEF86BB5F
:101CB0001092850010928400109280001092820091
:101CC000F8E15DE00FB6F894A895F09360000FBEC0
:101CD0005093600080916000806480936000A895BC
:101CE00085E0809381008091600087FFFCCF109297
:101CF0008100A89580916000886180936000409386
:101D000060007894E0908400F0908500309380002B
:101D1000209381009093820062E0C8010E944505F3
:101D2000F80184818F7180668483B70190E080E040
:101D30002BE0660F771F881F991F2A95D1F720EA9D
:101D400036E841E050E098CF8D3411F52CE143E0C6
:101D500050E06FEF80E00E94A1018C01E090FF0451
:101D6000F0900005E114F10421F483E0E82E85E011
:101D7000F82E62E0C8010E944505F80184818F7148
:101D800080668483C1018E199F099087878316CF4F
:101D9000853409F0F1CD2CE143E050E06FEF80E0B5
:101DA0000E94A1016BE871E00E94A80A0E94C2098A
:101DB00010E000E06FEFC8010E949E1E0F5F1F4FF2
:101DC0000D39F1E01F07B1F788E198E00FB6F894FC
:101DD000A895809360000FBE90936000FFCF8A317A
:101DE00009F4CACD8EED94E00E94290BC5CD2F3F9A
:101DF00009F0C2CD23E0F2121FC08091D90182FF09
:101E000003C0173009F4B8CD143109F0B5CD809175
:101E1000E8013813B1CD0E94930373708827992786
:101E20000E94600325E143E050E06FEF802F0E94A5
:101E3000A1016091E80145CE8091E80138139CCD65
:101E4000D1CFA1960FB6F894DEBF0FBECDBFDF9104
:101E5000CF911F910F91FF90EF90DF90CF90BF90A7
:101E6000AF909F908F907F906F905F904F903F903A
:101E70002F9008958091D90184FD0C948C0C0895C5
:101E8000CF92DF92EF92FF92CF93DF93D82F0E94F1
:101E900093036B017C018091E20487608093E204EC
:101EA000C0E00E9493036C197D098E099F09603D73
:101EB00077408105910590F4C11110C0A8950E944A
:101EC00083050E943A0F8091E2048770833049F7BE
:101ED000C1E08091E3048D13E3CFE3CF8C2FDF913A
:101EE000CF91FF90EF90DF90CF9008958F929F92C7
:101EF000AF92BF92CF92DF92EF92FF924B015C01C3
:101F00000E9493036B017C010E9493036C197D096D
:101F10008E099F09681579058A059B0530F4A895F7
:101F20000E9483050E943A0FEFCFFF90EF90DF9061
:101F3000CF90BF90AF909F908F9008956F927F92B7
:101F40008F929F92AF92BF92CF92DF92EF92FF92C9
:101F50000F931F93CF93DF93CDB7DEB7AB970FB639
:101F6000F894DEBF0FBECDBF68E371E089E50E9443
:101F7000B10964E670E080E090E00E94760F6CE2C8
:101F800071E080E50E94B10961E271E081E50E94A3
:101F9000B10969E171E08BE50E94B10964E670E086
:101FA00080E090E00E94760F60E171E08CE50E9495
:101FB000B10964E670E080E090E00E94760F65E091
:101FC00071E08DE50E94B1096BEF70E086E40E943C
:101FD000B10964E670E080E090E00E94760F60EF67
:101FE00070E080E60E94B10969EE70E08AE50E9427
:101FF000B10964E670E080E090E00E94760F63EE45
:1020000070E082E50E94B10964E670E080E090E053
:102010000E94760F6CED70E083E50E94B10988E0C4
:10202000E0E4F1E0DE015A9601900D928A95E1F725
:102030001AA288E0E9E4F1E0DE01939601900D92A6
:102040008A95E1F71BA61A821982FE01339687E171
:10205000DF011D928A95E9F72BE043E050E06FEF36
:1020600080E00E94A1016EE871E00E94A80A0E942F
:10207000A8082CE043E050E06FEF80E00E94A1014F
:102080006CE971E00E94A80A0E94A80864E670E06A
:1020900080E090E00E94760F6DE571E082E10E94A1
:1020A000B10964E670E080E090E00E94760F62E59E
:1020B00071E083E10E94B10964E670E080E090E0A5
:1020C0000E94760F64E471E08CE10E94B1098DE218
:1020D000682E81E0782E10E000E05E01BAE1AB0EE0
:1020E000B11C91EAE92E91E0F92EFE0131966F01C3
:1020F0004E01F3E28F0E911CD3018D913D01893584
:1021000099F51F930F93BF92AF92FF92EF92DF92D8
:10211000CF920E941820A60166E070E08AE0800F4E
:102120000E94D70A64E670E080E090E00E94760F9B
:102130001F930F939F928F92FF92EF92DF92CF9215
:102140000E941820A60164E270E084E1800F0E94E2
:10215000D70A64E670E080E090E00E94760F0FB648
:10216000F894DEBF0FBECDBF0F5F1F4F08301105C3
:1021700019F6AB960FB6F894DEBF0FBECDBFDF9158
:10218000CF911F910F91FF90EF90DF90CF90BF9074
:10219000AF909F908F907F906F9008952F923F9275
:1021A0004F925F926F927F928F929F92AF92BF9267
:1021B000CF92DF92EF92FF920F931F93CF93DF9313
:1021C000CDB7DEB762970FB6F894DEBF0FBECDBFB6
:1021D0000E94C00880919102909192020E946A042C
:1021E00040E06CEC80919102909192020E94170461
:1021F0004091880264E480919102909192020E9441
:10220000170480918C02882311F1E0918B02809158
:102210008D02882309F4A2C28091880281119EC296
:102220000E9493036B017C01809191029091920234
:102230000E94C403813059F00E9493036C197D09F8
:102240008E099F096E3E72408105910568F36EEE1E
:1022500072E080E090E00E94760F6091C50180916D
:10226000C201681741F06093C2018EE991E00E94BB
:102270009E1E0E949E0FBDE22B2EB1E03B2E3A8A9D
:10228000298A10E1E12EF12C08E0702E8DE991E011
:10229000FC01E65CF1406F0182E1682E5524539405
:1022A000E989FA898191FA8BE98B893509F07CC03B
:1022B00006EC11E046018E0C9F1CC401800F911F9B
:1022C0000E94861EF80181938F01F1E00E3C1F07EA
:1022D000A1F7BE016F5F7F4F86EC91E00E94A204E0
:1022E000882309F453C06A8170E0762F6627770F40
:1022F000770F770F298148E0249F90011124262B26
:10230000372B8091C6018031E1F468856623C9F0DE
:1023100070E08F81FB01E81BF109CF019695982FA2
:102320008827979587950E94EC1ECB018097B9016D
:10233000F3E0660F771FFA95E1F760789C01260FAE
:10234000371F2138F4EE3F070CF1B901330F880B2A
:10235000990B0E94591D20E030E040E05CE30E94B0
:10236000B81D4B015C0120E030E048E452EC0E94D3
:10237000521D87FD0BC020E030E040EA52E4C50169
:10238000B4010E94E71E18160CF010C269E871E053
:102390008DEA92E00E943F070E94AF0864E670E079
:1023A00080E090E00E94760F7A9420E1E20EF11C2A
:1023B000711076CF809128018A3008F4ABC1109259
:1023C00028016091C10187EF93E00E9468050E9497
:1023D000AF0864E670E080E090E00E94760F6DE266
:1023E00071E08BE794E00E94A80A0E94AF0864E6BF
:1023F00070E080E090E00E94760F6BE070E088E192
:1024000094E00E9453050E94AF0864E670E080E00B
:1024100090E00E94760F48E1E42EF12C10E08DE967
:1024200091E0AC01465C51402A0157E2A52E51E0F3
:10243000B52EFC01EF51F1406F010DE2F1018191E8
:102440001F01F1E0F10FF98B893509F070C036EC0E
:10245000632E31E0732E470128E0821A9108840C24
:10246000951CC401860D971D0E94861EF301819361
:102470003F01FEEC6F16F1E07F0699F78AE0810FCD
:102480008093A2042AE22093A10468E08CE994E0FE
:102490000E9445058091A0048F71806C8093A004F8
:1024A0008CE994E00E947A05482F50E066EC71E0D8
:1024B00083EA94E00E94F91F8CE994E00E94AF083F
:1024C00064E670E080E090E00E94760F2FE1622EDB
:1024D00021E0722E46018E0C9F1CC401860D971DB3
:1024E0000E94861E91E0980F923008F47CC1F3019F
:1024F0008083F30181913F01803210F0813818F020
:10250000F30131970083A614B70439F71C5E1093CA
:102510003F046FE171E089E394E00E94A80A0E9401
:10252000AF0864E670E080E090E00E94760FF0E192
:10253000EF0EF11C1989183009F080CF0E948B0929
:102540000E9493036B017C0128EE33E040E050E0F1
:102550000E94001FCA01B9012CE330E040E050E0C6
:102560000E94001F7F936F93C701B60120E63AEEE9
:1025700040E050E00E94001F98E1892E912CA12C90
:10258000B12CCA01B901A50194010E94001F7F93DB
:102590006F93C701B60120E83EEE46E350E00E948B
:1025A000001FCA01B901A50194010E94001F7F9379
:1025B0006F93C701B60120E03CE546E255E00E947A
:1025C000001F3F932F9387EA91E09F938F938E0193
:1025D0000F5F1F4F1F930F930E941820B80181E3D4
:1025E00093E00E94A80A0E94AF0864E670E080E0D1
:1025F00090E00E94760F88E00E94E5078F7063EEFE
:102600007FEF28E0829F60197109112420911D013C
:1026100030911E0147E0429FC001439F900D11245D
:10262000680F791F0FB6F894DEBF0FBECDBF77FFDE
:1026300002C0695F7F4F83E0759567958A95E1F7E2
:1026400070931E0160931D0180E193E00E94530589
:102650000E94AF0864E670E080E090E00E94760F90
:102660006DE771E08FEE92E00E943F070E94AF0895
:1026700064E670E080E090E00E94760F60E670E033
:102680008EEC92E00E9453050E94AF0864E670E071
:1026900080E090E00E94760F70E060E086ED93E0CD
:1026A0000E9453050E94AF0869EB71E085EB93E04F
:1026B0000E94A80A0E94AF0864E670E080E090E003
:1026C0000E94760F68E671E082E593E00E943F0782
:1026D0000E94AF086091C00184E993E00E94680500
:1026E0000E94AF0864E670E080E090E00E94760F00
:1026F0006091CE0183E793E00E9468050E94AF08D5
:1027000064E670E080E090E00E94760F1092C001D5
:102710001092CE0160E27FEB82E090E00E94760FA3
:10272000809128018F5F8093280162960FB6F894FC
:10273000DEBF0FBECDBFDF91CF911F910F91FF90F4
:10274000EF90DF90CF90BF90AF909F908F907F9051
:102750006F905F904F903F902F900895E9508EEECC
:1027600092E0E33038F4F0E0EE0FFF1FEE5AFE4F38
:10277000808191816C01990FEE08FF088091890298
:10278000882329F060E080918A020E94BE02C7017E
:10279000B6010E94600380918902882309F457CD15
:1027A00061E080918A020E94BE0251CD862D871978
:1027B0008093A2041092A10465E08CE994E00E9449
:1027C00045058091A004806E8093A0048092A304AC
:1027D0009092A404A092A504B092A6045092A704DB
:1027E0008CE994E0D9CD20E2F301208382CE2FE062
:1027F00043E050E06FEF80E00E94A1016CE671E0E1
:102800000E94A80A62E08DEB94E00E944505EDEB82
:10281000F4E084818F71806C848381E087831086EB
:10282000CF010E94A8088FE00E94400F4CE651E0C3
:1028300061E170E08FEF0E94D70A26E043E050E0AC
:102840006FEF80E00E94A1016091E8010E9468059D
:102850000E94C20986E00E94400F0C949E0FCF9305
:102860008091E60181FD20C00E94F7138091E6016E
:1028700081608093E601C4E02AE143E050E06FEF1D
:1028800080E00E94A10162E00E9468050E94C209E6
:102890008BE10E94400F811102C0C15069F7809105
:1028A000E60182608093E601CF9108954F925F9296
:1028B0006F927F928F929F92AF92BF92CF92DF9250
:1028C000EF92FF920F931F93CF93DF93CDB7DEB7B5
:1028D00029970FB6F894DEBF0FBECDBF8FEA90E008
:1028E0000E941D068DE991E00E94861E182F80939C
:1028F000C1018EE991E00E94861E8093C5018093FC
:10290000C2011A3038F01092C10160E08DE991E007
:102910000E949E1E80919102909192020E94B703A4
:1029200010928F021092900211E0BE016F5F7F4FF4
:1029300080919102909192020E943D06882309F4B1
:102940005FC067E0CE0101960E94A00398858913BD
:10295000ECCF80918F028F5F80938F0289818832C4
:1029600031F008F044C0803111F08232F1F68091EC
:1029700090028F5F8093900280918802811128C01D
:1029800080919102909192020E946A04BE016F5F51
:102990007F4F80919102909192020E944B0440E0FF
:1029A00064EB80919102909192020E9417048091B1
:1029B0009102909192020E94C403082F809191028B
:1029C000909192020E946A04011102C01093880241
:1029D0008981803199F0CE0101960E941405909171
:1029E0008B02981708F0A1CF80938B029ECF8B3378
:1029F00009F4BDCF823409F098CFB9CF8CE0EFCF86
:102A00000E94C0089DE2692E91E0792E00E110E05D
:102A10002EECA22E21E0B22E8DE991E09C01265CE5
:102A2000314069013BE0532E4FE5442EF301819183
:102A30003F01893509F05DC086ECE82E81E0F82E73
:102A40004601800E911EC4018E0D9F1D0E94861EA0
:102A5000F70181937F01AE16BF06A9F78091C601E9
:102A6000803109F03FC08091C601803109F05EC01D
:102A700050928B0280918F02823008F4EBC0F12CCF
:102A800080918F02F81608F0E5C080918B028C309F
:102A900009F4E0C080919102909192020E94B703E4
:102AA000E12CBE016F5F7F4F809191029091920265
:102AB0000E943D06882331F0FE1409F4C0C0E3945F
:102AC000FE1478F78981803109F4C2C0CE010196E5
:102AD0000E94140590918B02981710F480938B023A
:102AE000F394CECF86EC91E00E9414058B3009F070
:102AF000BACF005F1F4F0039110509F097CF299613
:102B00000FB6F894DEBF0FBECDBFDF91CF911F91FE
:102B10000F91FF90EF90DF90CF90BF90AF909F907C
:102B20008F907F906F905F904F900895BE016F5F80
:102B30007F4F86EC91E00E94A204882309F498CF8D
:102B40008D818F3509F494CF4D82809191029091BF
:102B500092020E946A0466EC71E080919102909169
:102B600092020E944B0440E06EE4809191029091A9
:102B700092020E94170440E06B8180919102909133
:102B800092020E94170440E06C8180919102909122
:102B900092020E9417048091C601803141F040E00A
:102BA0006D8180919102909192020E941704809110
:102BB00091029091920220918E02222321F10E9493
:102BC0006A04882309F454CF66EC71E08091910285
:102BD000909192020E944B044091880268E4809197
:102BE0009102909192020E941704809188028111B3
:102BF0000DC064E170E080E090E00E94600380918D
:102C00009102909192020E946A0432CF80918902CF
:102C1000882329F060E080918A020E94BE0264E16C
:102C200070E080E090E00E94600380918902882338
:102C300031F361E080918A020E94BE02E0CF67E03A
:102C4000CE0101960E94A0039885891338CF3ACF10
:102C50008CE040CF64E670E080E090E00E94760F68
:102C600048CF1F920F920FB60F9211242F933F93CC
:102C70004F935F936F937F938F939F93AF93BF9384
:102C8000EF93FF938BEE91E00E942502FF91EF916D
:102C9000BF91AF919F918F917F916F915F914F9174
:102CA0003F912F910F900FBE0F901F9018951F927C
:102CB0000F920FB60F9211242F938F939F93EF9340
:102CC000FF93E091FB01F091FC018081E091010212
:102CD000F091020282FD1BC09081809104028F5FFF
:102CE0008F7320910502821741F0E0910402F0E019
:102CF000E551FE4F958F80930402FF91EF919F91D4
:102D00008F912F910F900FBE0F901F90189580817B
:102D1000F4CF1F920F920FB60F9211242F933F936F
:102D20008F939F93AF93BF938091DD019091DE01CC
:102D3000A091DF01B091E0013091DC0123E0230F8D
:102D40002D3758F50196A11DB11D2093DC0180930C
:102D5000DD019093DE01A093DF01B093E00180914B
:102D6000E1019091E201A091E301B091E4010196AB
:102D7000A11DB11D8093E1019093E201A093E301B5
:102D8000B093E401BF91AF919F918F913F912F91AB
:102D90000F900FBE0F901F90189526E8230F0296F4
:102DA000A11DB11DD2CF1F920F920FB60F92112409
:102DB0002F933F934F935F936F937F938F939F9343
:102DC000AF93BF93EF93FF93E0913801F0913901F6
:102DD0000995FF91EF91BF91AF919F918F917F9155
:102DE0006F915F914F913F912F910F900FBE0F9078
:102DF0001F9018951F920F920FB60F9211242F93C8
:102E00003F934F935F936F937F938F939F93AF9372
:102E1000BF93EF93FF93E0913601F091370109954D
:102E2000FF91EF91BF91AF919F918F917F916F91A2
:102E30005F914F913F912F910F900FBE0F901F9078
:102E400018951F920F920FB60F9211240F900FBE7C
:102E50000F901F901895CF93DF93FC011082118281
:102E60001282148215821682DC0117968AE1ED0126
:102E700019928A95E9F782E08383DF91CF910895D3
:102E8000CF93DF93EBEEF1E01382128288EE93E0B2
:102E9000A0E0B0E084839583A683B7838CE591E0BE
:102EA0009183808385EC90E09587848784EC90E023
:102EB0009787868780EC90E0918B808B81EC90E007
:102EC000938B828B82EC90E0958B848B86EC90E0E8
:102ED000978B868B118E128E138E148E8EED94E04E
:102EE0000E942B178DEB94E00E942B178CE994E045
:102EF0000E942B17ECE9F4E08AE0868315828BE7C9
:102F000094E00E942B17EBE7F4E082E18683CFE2A6
:102F1000C5838AE594E00E942B17EAE5F4E083E19B
:102F20008683C58389E394E00E942B17E9E3F4E0EC
:102F300084E18683C58388E194E00E942B17E8E151
:102F4000F4E08CE18683C58387EF93E00E942B1722
:102F5000E7EFF3E086E48683C58386ED93E00E9485
:102F60002B17E6EDF3E080E58683C58385EB93E0E0
:102F70000E942B17E5EBF3E081E58683C58384E9A6
:102F800093E00E942B17E4E9F3E082E58683C58392
:102F900083E793E00E942B17E3E7F3E083E5868362
:102FA000C58382E593E00E942B17E2E5F3E089E513
:102FB0008683C58381E393E00E942B17E1E3F3E06E
:102FC0008AE58683C58380E193E00E942B17E0E1C8
:102FD000F3E08BE58683C5838FEE92E00E942B178A
:102FE000EFEEF2E08CE58683C5838EEC92E00E94E2
:102FF0002B17EEECF2E08DE58683C5838DEA92E037
:103000000E942B17EDEAF2E080E68683C58360E03C
:1030100084E00E940A03EBEDF2E0E491CFE9D2E014
:10302000E883E7ECF2E0E491F0E0EE0FFF1FE754F5
:10303000FD4F859194919A838983CE010E94B703B5
:10304000E8E8F2E0168A158A1182D287C1871782D2
:103050001086108289E0838381E084838583868360
:10306000DF91CF910895789484B5826084BD84B552
:10307000816084BD85B5826085BD85B5816085BD73
:1030800080916E00816080936E001092810080912B
:1030900081008260809381008091810081608093B3
:1030A0008100809180008160809380008091B100D8
:1030B00084608093B1008091B00081608093B00003
:1030C00080917A00846080937A0080917A00826097
:1030D00080937A0080917A00816080937A00809159
:1030E0007A00806880937A001092C100A895E091E0
:1030F000FB01F091FC0182E08083E091F701F09107
:10310000F8011082E091F901F091FA0180E18083E9
:1031100010920302E091FF01F091000286E08083AB
:10312000E091FD01F091FE01808180618083E0915A
:10313000FD01F091FE01808188608083E091FD01B6
:10314000F091FE01808180688083E091FD01F09123
:10315000FE0180818F7D8083C0E1D0E0F12CFE01F3
:10316000F595E795E655FE4FE491C0FF63C0EF701B
:10317000E83008F06EC0F0E0E655FE4FF4906F2D99
:103180008BEE91E00E9447022196C23FD10539F7AC
:1031900083EA91E00E941D068091E6018D7F809375
:1031A000E6010E94561441E050E063E071E085EED4
:1031B00091E00E94761E6FEF81E090E00E949E1EDB
:1031C0008091DA018F788093DA011092D001109209
:1031D000CF0189E291E00E94A1058FE294E19093F2
:1031E000C4018093C3010E9493036B017C010E9480
:1031F00093036C197D098E099F0968387341810515
:103200009105D0F010928C02A895C0E0D0E0A8956E
:103210000E9483058091D90184FD0E948C0C0E943C
:10322000CE102097A1F30E941B02882381F30E94F5
:103230000000EDCFE2959BCF0E9483050E943A0FDC
:103240008091D90182FB882780F9A8958111DACF76
:10325000CECF1BEF1E0F00E06F2D8BEE91E00E9492
:1032600047020F5F0117C0F38FCF0F931F93CF93C8
:10327000DF938230910510F482E090E0E091010547
:10328000F091020530E020E0B0E0A0E0309799F442
:103290002115310509F44AC0281B390B24303105AA
:1032A000D8F58A819B816115710589F1FB019383B2
:1032B0008283FE0111C04081518102811381481730
:1032C0005907E0F04817590799F4109761F01296E2
:1032D0000C93129713961C933296CF01DF91CF91E6
:1032E0001F910F9108950093010510930205F4CFEB
:1032F0002115310551F04217530738F0A901DB01C0
:103300009A01BD01DF01F801C1CFEF01F9CF909320
:10331000020580930105CDCFFE01E20FF31F8193DB
:1033200091932250310939832883D7CF2091FF040C
:1033300030910005232B41F420913C0130913D0157
:10334000309300052093FF0420913A0130913B0116
:103350002115310541F42DB73EB740913E01509102
:103360003F01241B350BE091FF04F0910005E217AB
:10337000F307A0F42E1B3F0B2817390778F0AC0198
:103380004E5F5F4F2417350748F04E0F5F1F509375
:1033900000054093FF04819391939FCFF0E0E0E01C
:1033A0009CCFCF93DF930097E9F0FC013297138213
:1033B0001282A0910105B0910205ED0130E020E0FC
:1033C0001097A1F420813181820F931F2091FF0477
:1033D000309100052817390709F061C0F093000506
:1033E000E093FF04DF91CF910895EA01CE17DF0744
:1033F000E8F54A815B819E0141155105B1F7E9016C
:10340000FB83EA8349915991C40FD51FEC17FD073F
:1034100061F4808191810296840F951FE90199835F
:103420008883828193819B838A83F0E0E0E0129617
:103430008D919C9113970097B9F52D913C9111971F
:10344000CD010296820F931F2091FF043091000559
:103450002817390739F6309751F510920205109266
:103460000105B0930005A093FF04BCCFD383C283B2
:1034700040815181840F951FC817D90761F44E5FB1
:103480005F4F88819981480F591F518340838A81FA
:103490009B81938382832115310509F0B0CFF0938E
:1034A0000205E09301059ECFFD01DC01C0CF138230
:1034B0001282D7CFFC0188279927E89421912032E6
:1034C000E9F3293010F02E30C8F32B3241F02D32C1
:1034D00039F4689404C00E94CC1A820F911D219186
:1034E00020532A30C0F31EF4909581959F4F089584
:1034F0001F93FC0199278827BC01E8941191103291
:10350000E9F3193010F01E30C8F31B3251F01D32B0
:1035100049F4689406C00E94B71A610F711D811D9D
:10352000911D119110531A30B0F33EF4909580958F
:10353000709561957F4F8F4F9F4F1F910895FC01AC
:1035400005900020E9F7809590958E0F9F1F0895B4
:10355000FB01DC014150504048F005900D920020E5
:10356000C9F701C01D9241505040E0F70895592F0E
:10357000482F372F262F660F771F881F991F660F3A
:10358000771F881F991F620F731F841F951F660F77
:10359000771F881F991F08957AE0979F902D879F26
:1035A000802D910D11240895ABE0B0E0EAEDFAE131
:1035B0000C94B01E7C013B018A01FC01178216822B
:1035C000838181FFC8C1CE0101965C01F70193811F
:1035D000F30193FD859193FF81913F01882309F4C5
:1035E00053C1853239F493FD859193FF81913F0159
:1035F000853229F4B70190E00E94C41CE7CF912CDA
:10360000212C312CFFE1F31538F08B3211F190F4BD
:10361000803209F1833229F137FC3CC020ED280FBC
:103620002A3050F536FE20C08AE0989E200D1124E5
:10363000922E06C08D3291F0803371F7689430F885
:10364000F30193FD859193FF81913F018111DACFC1
:1036500021C0689431F8689432F8F2CF689433F856
:10366000EFCF689434F8ECCFEAE02E9E200D1124C1
:10367000222E689435F8E4CF8E3229F436FC04C14A
:10368000689436F8DDCF8C3619F4689437F8D8CFC3
:103690008836B1F2982F9F7D95549330E0F08336B1
:1036A000A1F18337C1F1833509F063C02801F2E04D
:1036B0004F0E511CF801C080D180692D70E036FC9E
:1036C00002C06FEF7FEFC6010E94AE1C4C016894F0
:1036D00037F882010AC00C5F1F4FFFE3F98388248B
:1036E0008394912C6501E89437F833FE2DC0522C59
:1036F0008114910471F5552009F468CFB70180E277
:1037000090E00E94C41C5A94F6CFF801808189830E
:103710000E5F1F4FE4CF2801F2E04F0E511CF8015D
:10372000C080D180692D70E036FC02C06FEF7FEF62
:10373000C6010E94B91C4C018201D5CFB70180E2BD
:1037400090E00E94C41C2A942814190409F0B0F7D0
:10375000CECFF60137FC859137FE81916F01B7011D
:1037600090E00E94C41C51105A94F1E08F1A910805
:10377000BFCF843619F0893609F077C0F80137FEDB
:103780006BC060817181828193810C5F1F4FF32D2B
:10379000FF763F2E97FF09C09095809570956195B3
:1037A0007F4F8F4F9F4F689437F82AE030E0A50194
:1037B0000E94F41CC82ECA188C2C432C36FE0CC058
:1037C000E89440F8C91440F434FE05C032FC03C04C
:1037D000F32DFE7E4F2E892C44FE95C0FE01EC0D8C
:1037E000F11D8081803309F087C0242D297E422E6F
:1037F000842D8870582E43FC95C040FE8FC09C2CB1
:10380000821418F42C0C922C981844FE91C0B70125
:1038100080E390E00E94C41C42FE09C088E790E06B
:1038200041FE02C088E590E0B7010E94C41CC914A3
:1038300008F48AC0CA94D12C9FEFC91AD90ACA0CBD
:10384000DB1CF60182916F01B70190E00E94C41C5D
:10385000AC14BD04B1F74FCF60817181072E000C0D
:10386000880B990B0E5F1F4F92CFD32CE894D4F89E
:103870002AE030E0853739F1232D297FD22E8F368B
:1038800001F148F48835A9F0F701868197812B96DC
:10389000E2E10C94CC1E803749F08837A9F7D4FEBA
:1038A00002C06894D2F820E130E00DC06894D4F8EA
:1038B000F6CF34FE03C0822F8660D82E20E132E09E
:1038C00002C028E030E0F801D7FE0FC060817181AE
:1038D000828193810C5F1F4FA5010E94F41CC82EAA
:1038E000CA183D2CE89437F867CF6081718190E069
:1038F00080E00E5F1F4FF0CF42FC02C0839478CF70
:103900008394839475CF842D867809F471CFF6CF94
:10391000B70180E290E00E94C41C83948214C0F33B
:10392000512C73CF522C5818821408F46ECFF8CF54
:10393000842D867809F47BCF8BE241FE80E247FC40
:103940008DE2B70190E071CFB70180E390E00E9473
:10395000C41C9A946CCF8FEF9FEF99CFFC01059018
:10396000615070400110D8F7809590958E0F9F1F81
:103970000895FC016150704001900110D8F78095C6
:1039800090958E0F9F1F08950F931F93CF93DF93F2
:10399000182F092FEB018B8181FD09C01FEF0FEF5D
:1039A000812F902FDF91CF911F910F91089582FF6A
:1039B00014C02E813F818C819D81281739073CF4EA
:1039C000E881F981CF0101969983888310838E81E4
:1039D0009F8101969F838E83E3CFE885F985812FB0
:1039E0000995892BA1F3DACFFA01AA27283051F1E2
:1039F000203181F1E8946F936E7F6E5F7F4F8F4F20
:103A00009F4FAF4FB1E03ED0B4E03CD0670F781F7E
:103A1000891F9A1FA11D680F791F8A1F911DA11D63
:103A20006A0F711D811D911DA11D20D009F468949C
:103A30003F912AE0269F11243019305D3193DEF644
:103A4000CF010895462F4770405D4193B3E00FD0FA
:103A5000C9F7F6CF462F4F70405D4A3318F0495DE5
:103A600031FD4052419302D0A9F7EACFB4E0A695C8
:103A70009795879577956795BA95C9F700976105EA
:103A8000710508959B01AC010A2E06945795479540
:103A900037952795BA95C9F7620F731F841F951F35
:103AA000A01D08950E94941D08F481E00895E894F3
:103AB00009C097FB3EF490958095709561957F4F76
:103AC0008F4F9F4F9923A9F0F92F96E9BB27939524
:103AD000F695879577956795B795F111F8CFFAF434
:103AE000BB0F11F460FF1BC06F5F7F4F8F4F9F4F65
:103AF00016C0882311F096E911C0772321F09EE8C3
:103B0000872F762F05C0662371F096E8862F70E028
:103B100060E02AF09A95660F771F881FDAF7880F02
:103B20009695879597F90895990F0008550FAA0B58
:103B3000E0E8FEEF16161706E807F907C0F01216C0
:103B40001306E407F50798F0621B730B840B950BC3
:103B500039F40A2661F0232B242B252B21F4089518
:103B60000A2609F4A140A6958FEF811D811D0895B5
:103B70000E94CB1D0C943C1E0E942E1E38F00E9409
:103B8000351E20F0952311F00C94251E0C942B1E4D
:103B900011240C94701E0E944D1E70F3959FC1F36A
:103BA000950F50E0551F629FF001729FBB27F00DEB
:103BB000B11D639FAA27F00DB11DAA1F649F662740
:103BC000B00DA11D661F829F2227B00DA11D621F8F
:103BD000739FB00DA11D621F839FA00D611D221F49
:103BE000749F3327A00D611D231F849F600D211D2D
:103BF000822F762F6A2F11249F5750409AF0F1F0B0
:103C000088234AF0EE0FFF1FBB1F661F771F881F18
:103C100091505040A9F79E3F510580F00C94251E0D
:103C20000C94701E5F3FE4F3983ED4F3869577952D
:103C30006795B795F795E7959F5FC1F7FE2B880FBE
:103C4000911D9695879597F9089597F99F6780E854
:103C500070E060E008959FEF80EC089500240A94DE
:103C60001616170618060906089500240A94121657
:103C70001306140605060895092E0394000C11F48A
:103C8000882352F0BB0F40F4BF2B11F460FF04C037
:103C90006F5F7F4F8F4F9F4F089557FD9058440F90
:103CA000551F59F05F3F71F04795880F97FB991F9B
:103CB00061F09F3F79F08795089512161306140658
:103CC000551FF2CF4695F1DF08C0161617061806E5
:103CD000991FF1CF86957105610508940895E894C0
:103CE000BB2766277727CB0197F90895DC01CB0125
:103CF000FC01F999FECF06C0F2BDE1BDF89A3196FC
:103D000000B40D9241505040B8F70895F999FECF94
:103D100092BD81BDF89A992780B50895DC01A40F62
:103D2000B51F4150504048F0CB01840F951F2E9194
:103D30000E949F1E41505040D0F70895262FF999B8
:103D4000FECF92BD81BDF89A019700B4021639F0FA
:103D50001FBA20BD0FB6F894FA9AF99A0FBE0895CB
:103D60002F923F924F925F926F927F928F929F928B
:103D7000AF92BF92CF92DF92EF92FF920F931F9379
:103D8000CF93DF93CDB7DEB7CA1BDB0B0FB6F8942A
:103D9000DEBF0FBECDBF09942A88398848885F846A
:103DA0006E847D848C849B84AA84B984C884DF80DB
:103DB000EE80FD800C811B81AA81B981CE0FD11DBF
:103DC0000FB6F894DEBF0FBECDBFED0108950E947F
:103DD000941D08F48FEF089597FB072E16F40094B6
:103DE00007D077FD09D00E94221F07FC05D03EF4C2
:103DF000909581959F4F0895709561957F4F089597
:103E0000A1E21A2EAA1BBB1BFD010DC0AA1FBB1FDE
:103E1000EE1FFF1FA217B307E407F50720F0A21B50
:103E2000B30BE40BF50B661F771F881F991F1A94BD
:103E300069F760957095809590959B01AC01BD01E7
:103E4000CF010895AA1BBB1B51E107C0AA1FBB1FCE
:103E5000A617B70710F0A61BB70B881F991F5A9516
:103E6000A9F780959095BC01CD010895EE0FFF1F35
:103E70000590F491E02D0994B0E0A0E0E2E4FFE1C8
:103E80000C94B21E8C01009751F4CB010E9435199D
:103E90008C01C801CDB7DEB7E0E10C94CE1EFC0169
:103EA000E60FF71F9C0122503109E217F30708F4CF
:103EB0009DC0D901CD91DC911197C617D70798F015
:103EC000C530D10530F3CE0104978617970708F364
:103ED000C61BD70B2297C193D1936D937C93CF01CF
:103EE0000E94D119D6CF5B01AC1ABD0A4C018C0ED1
:103EF0009D1EA0910105B0910205512C412CF12C81
:103F0000E12C109731F58091FF0490910005881500
:103F1000990509F05CC04616570608F058C0809114
:103F20003A0190913B01009741F48DB79EB74091C3
:103F30003E0150913F01841B950BE817F90708F0EB
:103F400055C0F0930005E093FF04F901718360838D
:103F5000A0CF8D919C91119712966C901297139609
:103F60007C901397A815B90559F56C0142E0C40E71
:103F7000D11CCA14DB0420F1AC014A195B09DA0137
:103F80001296159780F06282738251834083D90123
:103F90006D937C93E114F10471F0D7011396FC93B7
:103FA000EE93129776CF22968C0F9D1FF901918385
:103FB0008083F301EFCFF0930205E093010569CF11
:103FC0004816590608F42C017D01D3019ACFCB0184
:103FD0000E9435197C01009749F0AE01B8010E949A
:103FE000F91FC8010E94D119870153CF10E000E0EA
:103FF00050CFFB01DC0102C001900D9241505040B6
:10400000D8F70895FB01DC0101900D920020E1F743
:104010000895FB01DC014150504048F001900D92A1
:104020000020C9F701C01D9241505040E0F70895AB
:10403000AEE0B0E0EEE1F0E20C94BE1E0D891E8908
:1040400086E08C831A8309838FEF9FE79E838D839D
:10405000AE01475E5F4F6F89788DCE0101960E9459
:10406000D41A2F813885020F131FF80110822E9663
:0A407000E4E00C94DA1EF894FFCF90
:10407A00FFFFFF00FCE1A8A8FFBC07CD05EF0AEC93
:10408A0006C409BD06F705ED05010B0607E3FF2D7A
:10409A00384E616D65382D000A2907D8094E4E4EF3
:1040AA004E4E4E4E4E009F039F03000003058000B4
:1040BA004F575F54656D7000004F575F4E616D65D5
:1040CA0000005E00BC007701000000004702B10159
:1040DA00DE0194020F02ED0101020D0A004E4E4E5E
:1040EA004E4E4E4E4E00322E332E3200436C6561D8
:1040FA0072696E6720506F733A20004F4B004F6E03
:10410A0065576972654D617374657200322E303479
:10411A000025735F256400256420253032643A2522
:0E412A003032643A25303264004155544F0063
:00000001FF
