:100000000C945C010C94B0110C9489110C94840133
:100010000C9484010C9484010C94B7050C94840115
:100020000C9484010C9484010C9484010C9484013C
:100030000C9484010C9484010C9484010C9484012C
:100040000C9490100C9484010C9448120C94D711C9
:100050000C9484010C9484010C9484010C9484010C
:100060000C9484010C9484016364696E6F707375E1
:1000700078585B000000000800020100000304073C
:100080000000000000000000536176654E616D6560
:1000900000454550524F4D20636C656172656400A8
:1000A00068775265626F6F740044626733204465FD
:1000B0007374726F79204F57494420300073686F12
:1000C00077454570726F6D48657800446576436882
:1000D00065636B53756D206C6576656C2066657421
:1000E000636865642066726F6D20454550524F4DC0
:1000F00020004462675F52657475726E00446267E7
:100100005F4C6576656C0052465F4368616E6E6554
:100110006C0050415F4C6576656C0054585F5253DB
:10012000534900487754696D6500506172656E747B
:100130004E6F646500506173736976654E6F6465D8
:10014000006D7950726573656E746174696F6E00CD
:100150004F575F4465765F436E74004F575F436F40
:100160006E5F4C737400524632345F50415F4C4FA7
:1001700057006D794865617274426561744C6F6FA8
:10018000700000000000250028002B000000000087
:10019000240027002A00204D5953454E534F5253F7
:1001A0005F4C4942524152595F56455253494F4E56
:1001B000200000000000230026002900040404049D
:1001C0000404040402020202020203030303030301
:1001D00001020408102040800102040810200102DE
:1001E00004081020005EBCE2613FDD83C29C7E20DB
:1001F000A3FD1F41009D23BE46DB65F88C11AF3285
:10020000CA57E974322E332E310A00207C5F5C2FEE
:10021000602C0A0702200220B28710034001200050
:1002200024022210022202022002220022200202C4
:1002300020222710134101010103222030402030E9
:1002400052034022140203105224022171010010B3
:1002500010121012221010022401010322030020A8
:1002600001010032203712100121322601284032CC
:10027000221210121222432224121001222470C1D1
:1002800022240F0F536176654F7749440053706500
:10029000696368657220454550524F4D20697374FB
:1002A00020766F6C6C004E65756573204F57204447
:1002B000657669636500131811241FBECFEFD8E07F
:1002C000DEBFCDBF12E0A0E0B1E0EEE0F9E402C095
:1002D00005900D92A03CB107D9F726E0A0ECB2E062
:1002E00001C01D92AE38B207E1F711E0CCE5D1E0D4
:1002F00004C02197FE010E942920CB35D107C9F700
:100300000E9429190C9485240C9400008091760693
:100310008460809376068091770680788093770654
:10032000E0917F06F0918006309709F009940895D6
:10033000E6E7F6E08081877F8F7E808310927206E9
:100340001092730610927406109275060E944C105B
:1003500060937B0670937C0680937D0690937E0667
:1003600044E050E060E070E08AEC92E00C946E1F94
:10037000FC01838187708860838384818F718062B0
:1003800084836783CF010895EF92FF920F931F93A9
:10039000CF93DF93EC017B016115710541F0CB0137
:1003A0000E94431B8931910518F089E101C080E06A
:1003B000082F10E02B81922F9770980143E0220FB5
:1003C000331F4A95E1F7292B2B839C819F719C83D6
:1003D000882331F0A801B701CE0107960E944C1B7B
:1003E000FE01E00FF11F1782CE01DF91CF911F9127
:1003F0000F91FF90EF9008950F931F93CF93DF938A
:10040000EC016115710561F0FB0101900020E9F735
:100410003197E61BF70BE931F10518F0E9E101C06E
:10042000E0E00E2F10E08B81282F2770C80133E009
:10043000880F991F3A95E1F7822B8B838C818F71FE
:100440008C83EE2329F0A801CE0107960E94122189
:10045000FE01E00FF11F1782CE01DF91CF911F91B6
:100460000F910895FC012481229526952770213053
:1004700011F487810895211104C007960E94FE1A85
:10048000089580E008958091760684FD0C940C1404
:100490000895E0916C06F0916D06309721F002808E
:1004A000F381E02D099408950F931F930E944C103F
:1004B00000916E0610916F062091700630917106C2
:1004C000601B710B820B930B1F910F9108959C0180
:1004D00080916C0690916D068217930751F0909170
:1004E00076069F719093760630936D0620936C0686
:1004F00005C080917606805E80937606E0916C065A
:10050000F0916D06309721F00190F081E02D099572
:100510000E944C1060936E0670936F068093700675
:100520009093710608950F931F930E945402209197
:1005300077062077203729F000E117E220E030E04D
:1005400004C000E61AEE20E030E00617170728077F
:10055000390730F48CE291E01F910F910C946702FF
:100560001F910F910895809177068F70863020F04B
:1005700085E191E00C9467020895809178068F3FA1
:10058000A1F00E944C1060937206709373068093E2
:10059000740690937506809178069091CC02891329
:1005A0008093CC0281E191E013C00E945402613D2E
:1005B00077408105910570F080917606803618F4B9
:1005C0008DE091E005C0877F8093760685E191E01C
:1005D0000C94670208958091CA028F3F19F08DE054
:1005E00091E010C00E945402613D77408105910561
:1005F00058F080917606803618F489E091E002C0C8
:1006000088E291E00C94670208950E945402613DD3
:1006100077408105910520F48091760681FF089549
:100620008091CB028F3F41F0809176068E7F809340
:10063000760689E091E009C080917606803618F44C
:1006400085E191E002C088E291E00C94670291E5B7
:100650009CBD91E09DBD2A98E3E2F0E03197F1F76F
:100660008EBD00000DB407FEFDCF8EB5FB019FEFE0
:100670004150C8F0222361F09EBD00000DB407FE7A
:10068000FDCF8EB56115710599F380833196F0CF5A
:10069000DF01119680818EBD00000DB407FEFDCFF5
:1006A0008EB5FD01E5CF2A9AE3E2F0E03197F1F74C
:1006B0000895CF93DF931F92CDB7DEB7698320E013
:1006C00041E0BE016F5F7F4F0E9427030F90DF91D3
:1006D000CF91089580917706982F9077903759F0B1
:1006E000982F92959F709F5F97709295907F8F78CB
:1006F000892B80937706809176068B7F8F7E8093FF
:10070000760629986CE080E20C9459036FE080E251
:100710000E945903609108016F3F19F08AE20E941C
:100720005903299A089521E041E060E070E00C94BB
:10073000270320E040E060E070E00C942703EF9294
:10074000FF921F93CF93DF93182F7B018091CA02F2
:10075000FB018083438142FD06C046954695469540
:10076000C7E0C40F01C0C0E2D091CD02D17029987A
:1007700083E092E00197F1F76EE080E20E94590376
:100780008BE891E00197F1F7612F8AE20E9459030B
:10079000612F80E30E94590381EE0E9499031F3F5D
:1007A00011F0DD2311F080EB01C080EA4C2FC13243
:1007B00008F040E220E0B7010E942703299AE12CCB
:1007C000F12C8FEF0E949903C82F807321F4F1E080
:1007D000EF1AF108B1F7299860E387E20E94590304
:1007E000C4FF03C081EE0E9499030E948603C5FDE9
:1007F000D1E081E01F3F09F080E08D2BDF91CF91A8
:100800001F91FF90EF9008950F931F93CF938C014A
:10081000FC0182819091760690FF03C08F3F39F5ED
:100820000CC0882339F08F3F41F0B8010E949F032C
:1008300081111EC0C091CB0201C0CFEFB8018C2F37
:100840000E949F039091CB02C91312C0909177062A
:10085000811108C081E0890F8F70907F982B909351
:10086000770605C0907F9093770681E001C080E015
:10087000CF911F910F9108952091760622FD0C943F
:10088000040480E00895CF938091C90281FD1FC0C8
:100890000E94DF0A8091C90281608093C902C4E08E
:1008A0002AE143E06FEF80E00E94830D62E00E9446
:1008B000B8010E943C048BE10E945810811102C0D3
:1008C000C15071F78091C90282608093C902CF91B3
:1008D00008958FEF80937806E6E7F6E080818860E0
:1008E000808328E143E06FEF80E00E94830D61E0A8
:1008F0000E94B8010C9404048091CA028F3F61F4F5
:1009000023E043E06FEF80E00E94830D6FE472E02C
:100910000E94FC010C9404040895E6E7F6E080814F
:10092000897F81608083EAECF2E08FEF82838183AC
:1009300027E043E06FEF0E94830D6FE472E00E94B6
:10094000FC010C940404CF93DF93219A229A2998F6
:100950002A9ACFB7F8948091C002811166C086ECC4
:1009600091E0FC0124914AED51E0FA013491E22F2B
:10097000F0E0EE0FFF1FE457FE4FA591B4912C91CC
:10098000232309F040C0EEE7F0E02491FA014491FE
:10099000FC0194919923B9F1222339F1233091F08C
:1009A00038F42130A9F0223001F584B58F7D12C0D2
:1009B000273091F02830A1F02430B9F480918000E4
:1009C0008F7D03C0809180008F77809380000DC061
:1009D00084B58F7784BD09C08091B0008F7703C044
:1009E0008091B0008F7D8093B000E92FF0E0EE0F92
:1009F000FF1FEE57FE4FA591B4919FB7F8948C91CD
:100A0000482B4C939FBF61E08AE00E94D60F8CB5C3
:100A100080618CBD8CB580648CBD61E08DE00E94EE
:100A2000D60F61E08BE00E94D60F8091C0028F5FED
:100A30008093C002CFBF29986EE080E20E945903E4
:100A40008BE496E40197F1F763E083E20E94590397
:100A50006FE584E20E94590360E685E20E94590333
:100A600063E286E20E94590364E08DE30E94590329
:100A70008DE10E949303843041F063E780E50E949A
:100A8000590364E08DE30E94590386E00E949303BA
:100A9000833209F066C085E00E949303803609F036
:100AA00060C062E082E20E94590360E081E20E943D
:100AB000590363E08CE30E945903DFEFD0930301F5
:100AC00020E045E063E071E08BE20E94270320E034
:100AD00045E063E071E08AE20E94270320E045E000
:100AE00063E071E080E30E94270382EE0E94990395
:100AF00081EE0E94990360E787E20E94590380918A
:100B000076068061809376068091CD028E7F8093F9
:100B1000CD0286E98093CA0266E980E090E00E94F7
:100B2000961FC091CA02CF3FC9F08FEF8C0F8E3F46
:100B300090F4C093080163E082E20E94590361E0EF
:100B400081E20E9459030E9486036C2F80E090E0AE
:100B50000E94961F03C0D093CA0203C085E191E0B2
:100B600002C088E291E0DF91CF910C9467021F925E
:100B70000F920FB60F9211240F900FBE0F901F907F
:100B800018956F927F928F929F92AF92BF92CF9261
:100B9000DF92EF92FF920F931F93CF93DF9300D0DA
:100BA00000D000D0CDB7DEB78C0180E3A82E81E065
:100BB000B82E98E1792E24E1C22ED12C480187E08D
:100BC000880E911CF50181915F01893509F057C0AC
:100BD000F801868190E08C159D0509F050C0858153
:100BE0008F3209F04CC0848182958695877011F40C
:100BF000B40102C060E070E01A8219821C821B827C
:100C00001E821D826115710561F0FB0101900020BB
:100C1000E9F73197AF01461B570BCE0101960E94B1
:100C2000131168E870E08DE893E00E94C4010E940F
:100C3000080E672CE12CF12C8D819E81E816F906B7
:100C400020F4E981FA81309729F41092C102E1EC95
:100C5000F2E002C0EE0DFF1D862D90E0608183560C
:100C60009E4F0E94961FFFEFEF1AFF0A639488E0E1
:100C7000E816F10409F7CE0101960E948411EFEF06
:100C8000CE1ADE0AF0E17F0E88E978129BCFF801D8
:100C90008681863409F077C085818F3209F073C070
:100CA000C8010E9432028093C202833051F46DEB7E
:100CB00070E08DE893E00E94C4010E94080E0E943B
:100CC00006168091C2028430C1F561E970E08DE8BA
:100CD00093E00E94C4010E94080E00EA11E08EE831
:100CE00091E00E94920D83E6800F0E94650E6FEFE7
:100CF000C8010E94961F0F5F1F4F0D32F2E01F07C1
:100D000071F71092C20260E08DE991E00E94961F97
:100D10006091C20284E794E00E94B8010E94080E2C
:100D20000E94061698E088E10FB6F894A895809383
:100D300060000FBE90936000FFCF853069F469EAD0
:100D400070E08DE893E00E94C4010E94080E61E407
:100D50008DEA91E00E94961F8091C202893099F439
:100D600060EA70E08DE893E00E94C4010E94080EE2
:100D700098E088E10FB6F894A895809360000FBEC4
:100D800090936000FFCF26960FB6F894DEBF0FBE9B
:100D9000CDBFDF91CF911F910F91FF90EF90DF902A
:100DA000CF90BF90AF909F908F907F906F9008955D
:100DB0008DE991E00E94A40D10926D0308958F9229
:100DC0009F92AF92BF92CF92DF92EF92FF924B0130
:100DD0005C010E944C106B017C010E944C10DC01F4
:100DE000CB018C199D09AE09BF0988159905AA0583
:100DF000BB0530F4A8950E9449020E944302EDCF42
:100E0000FF90EF90DF90CF90BF90AF909F908F902A
:100E100008955F926F927F928F929F92AF92BF924E
:100E2000CF92DF92EF92FF920F931F93CF93DF93B6
:100E3000CDB7DEB7CE54D1090FB6F894DEBF0FBEE2
:100E4000CDBF83EA91E00E94A40D88E0EFE3F1E0DA
:100E5000DE01D39601900D928A95E1F71BAE88E0F2
:100E6000E8E4F1E0DE01DC9601900D928A95E1F76D
:100E700025961FAE25971B8E1A8E37E1B32EFE01E5
:100E80007C96DF012B2D1D922A95E9F7CE01019664
:100E90007C019F938F936E019DE4C90ED11CDF925C
:100EA000CF928E010B5B1F4F1F930F9383EB91E04B
:100EB0009F938F938CEB91E09F938F930E945D2182
:100EC000B80181E591E00E942121D60111962C9173
:100ED00011972F932C912F938155914063E070E0EF
:100EE0000E9401206F5F7F4F7F936F938A818F9362
:100EF00089818F9388EC91E09F938F931F930F9339
:100F00000E943B21FE013396DF011D92BA94E9F75E
:100F100081E389838EE28A8387E38B838DE28C83EE
:100F200080E38D838E8384E38F8380E28887F8015A
:100F3000DE011996CE0141960FB6F894DEBF0FBEC2
:100F4000CDBF21912D938A179B07D9F780E2898B1A
:100F500081E38A8B80E38B8B8AE38C8B84E38D8B9C
:100F600088E38E8B2BE043E06FEF80E00E94830DDF
:100F700063ED71E00E94FC010E943C042CE043E020
:100F80006FEF80E00E94830DB7010E94FC010E9478
:100F90003C0481E491E00E94F50D65E371E080E599
:100FA0000E94500E6AE271E081E50E94500E63E2F9
:100FB00071E08AE50E94500E6BE171E08BE50E94C2
:100FC000500E62E171E08CE50E94500E67E071E026
:100FD0008DE50E94500E6DEF70E086E40E94500E89
:100FE00062EF70E080E60E94500E6BE571E082E1F6
:100FF0000E94500E60E571E083E10E94500E80E394
:10100000A82E81E0B82E9AE0592E3E0133E3630EFC
:10101000711C21EEE22E21E0F22E8E01065E1F4FA2
:101020004E018CE3880E911CD501A053B1406D0197
:10103000F50181915F01893521F5DF92AF937F92B0
:101040006F92FF92EF921F930F930E943B21A80192
:1010500066E0852D0E943B0EDF92CF929F928F9289
:10106000FF92EF921F930F930E943B21A80164E22D
:101070008AE0850D0E943B0E0FB6F894DEBF0FBECE
:10108000CDBF539432E15312CFCFC25BDF4F0FB6C7
:10109000F894DEBF0FBECDBFDF91CF911F910F91AE
:1010A000FF90EF90DF90CF90BF90AF909F908F9088
:1010B0007F906F905F9008952F923F924F925F9232
:1010C0006F927F928F929F92AF92BF92CF92DF9258
:1010D000EF92FF920F931F93CF93DF93CDB7DEB7BD
:1010E00060970FB6F894DEBF0FBECDBF0E94190EF9
:1010F00082E791E00E94F50D0E944C106B017C018B
:1011000028EE33E040E050E00E94DF1FCA01B90141
:101110002CE330E040E050E00E94DF1F7F936F93AC
:10112000C701B60120E63AEE40E050E00E94DF1F22
:1011300068E1862E912CA12CB12CCA01B901A50120
:1011400094010E94DF1F7F936F93C701B60120E8CF
:101150003EEE46E350E00E94DF1FCA01B901A5013F
:1011600094010E94DF1F7F936F93C701B60120E0B7
:101170003CE546E255E00E94DF1F3F932F9387EE48
:1011800091E09F938F939E012F5F3F4F69013F93A3
:101190002F930E943B21B60181E194E00E94FC0163
:1011A0000E94080E88E00E949303482F4F708091A0
:1011B000190190911A0157E0589F9001599F300DE5
:1011C000112483EE9FEF58E0459F80199109112467
:1011D000820F931F0FB6F894DEBF0FBECDBF97FDF1
:1011E000079623E0959587952A95E1F790931A0144
:1011F000809319012091F4032F7120642093F4034C
:101200002091F303277020612093F3039093F80358
:101210008093F70380EF93E00E94080E66E671E08A
:101220008FEC93E00E94C4010E94080E8091B203EB
:101230008F7180648093B2038091B1038770806165
:101240008093B10380E690E09093B6038093B5035A
:101250008EEA93E00E94080E809157048F7180649B
:101260008093570480915604877080618093560460
:1012700010925B0410925A0483E594E00E94080ED9
:1012800069EF71E082E394E00E94FC010E94080E85
:101290000E94521680917103909172030E94D5139F
:1012A00040E06CEC80917103909172030E94821374
:1012B00040916B0364E480917103909172030E94EA
:1012C000821380916D038823D9F1E0916C03E9507A
:1012D000E33040F4F0E0EE0FFF1FEA58FE4F0081CC
:1012E000118102C00EEE12E080916E03882311F18D
:1012F00080916B0381111EC00E944C102B013C0198
:101300004801110FAA08BB088091710390917203E4
:101310000E942F138130A1F00E944C10DC01CB0100
:1013200088199909AA09BB0984159505A605B70569
:1013300058F306C0B801110F880B990B0E941210C8
:101340006EEE72E080E090E00E94DF0690918106F0
:101350008091C702981771F08EEF91E00E94A40D62
:10136000609181066093C7028EE991E00E94961F0A
:101370000E940907E0E3AE2EE1E0BE2EF0E2EF2E80
:10138000A4E1FA2E99249394BAE28B2E10E2712EE6
:101390000DE2602EF50181915F01893509F0D8C019
:1013A00070EF472E4E0C02E816E0512C842D850D6F
:1013B00090E083569E4F0E947E1FF80181938F011B
:1013C0005394F8E05F12F2CFB60182E896E00E94F3
:1013D000410F882369F12A8130E0C901982F8827BD
:1013E000990F990F990F698128E0629FB00111242C
:1013F0009C01262B372B809182068031E1F4688591
:1014000070E08F81AB01481B5109CA019695982F56
:101410008827979587950E94012060517109207F48
:1014200053E0220F331F5A95E1F7620F731F04C078
:1014300060E874EE01C0B901613854EE75070CF430
:1014400087C0072E000C880B990B0E944E1E20E0CF
:1014500030E040E05CE30E94AD1E1B012C0120E067
:1014600030E04EEF52EC0E94471E882309F470C012
:1014700020E030E04AEA52E4C201B1010E94471E76
:10148000882309F465C016EF1F0D1093FE04109217
:10149000FD048091FB04877088628093FB04809137
:1014A000FC04806E8093FC042092FF0430920005BF
:1014B00040920105509202059092030588EF94E056
:1014C0000E94080E1093FE048092FD048091FB049C
:1014D000877080648093FB048091FC048F71806C22
:1014E0008093FC0448E050E062E876E08FEF94E0FF
:1014F0000E94022188EF94E00E94080E88EF582E87
:101500005E0C0BE111E0852D90E083569E4F0E940A
:101510007E1F91E0980FF801923010F0808301C097
:101520007082F8018081803210F0813810F0F8016B
:10153000608253940F5F1F4FE510E5CFF0929B043C
:101540006BE171E085E994E00E94FC010E94080EC5
:10155000F394F0E1EF0E2CE1F2121CCF6091C20285
:1015600084E794E00E94B8010E94080E60E371E0F5
:1015700087ED94E00E94FC010E94080E60EE73E982
:1015800084E090E00E94DF0660960FB6F894DEBF1C
:101590000FBECDBFDF91CF911F910F91FF90EF90C4
:1015A000DF90CF90BF90AF909F908F907F906F9083
:1015B0005F904F903F902F9008950C94B20DCF9371
:1015C0002FE043E06FEF80E00E94830D6FE472E054
:1015D0000E94FC01E9E1F5E08381877080618383EB
:1015E00084818F71806C848381E087831086CF0132
:1015F0000E943C048FE00E9458104FE452E061E1E9
:101600008FEF0E943B0EC091CB0226E043E06FEFCC
:1016100080E00E94830D6C2F0E94B8010E943C0460
:1016200086E00E945810CF910C9409077F928F9208
:101630009F92AF92BF92CF92DF92EF92FF920F9361
:101640001F93CF93DF93CDB7DEB76A970FB6F894A9
:10165000DEBF0FBECDBF8DE192E00E94A40D8DE9EB
:1016600091E00E947E1F182F8093C2028EE991E0C4
:101670000E947E1F809381068093C7021A3038F043
:101680001092C20260E08DE991E00E94961F8BECFF
:1016900090E00E94DA0D809181060E94650E809193
:1016A0007103909172030E94231310926F031092A2
:1016B00070038E010F5F1F4FFF24F394B8018091D8
:1016C0007103909172030E94BF0E882309F457C0E2
:1016D00067E0C8010E940B1398858913EFCF8091B2
:1016E0006B03811125C080917103909172030E9458
:1016F000D513B80180917103909172030E94B613C3
:1017000040E064EB80917103909172030E94821318
:1017100080917103909172030E942F13E82E8091A3
:101720007103909172030E94D513EE2009F463C1F6
:10173000E0906C03C8010E94A40F8E1518F48091EC
:101740006C0303C0C8010E94A40F80936C038091B6
:101750006F038F5F80936F038981883209F44EC1D4
:1017600038F4803109F44AC1823209F0A7CF46C16A
:101770008B3309F443C1823409F0A0CF3FC180E02C
:1017800090E3A1E1B0E08093C3029093C402A093E0
:10179000C502B093C6020E94061650E1E52ED12C78
:1017A000F12C8F2D8D0D90E083569E4F0E947E1F51
:1017B00090EE980F913608F08FE50E94030E8FE0AF
:1017C000F81619F080E20E94030EF394E0E1FE1295
:1017D000E8CFDE0E8FE492E00E94A40DEA94E110BF
:1017E000DFCF0E94521684E292E00E94A40D90E3A3
:1017F000C92E91E0D92E20E1F22E3FE7832E4CE056
:10180000942EF60181916F01893509F0DBC082E8E1
:10181000A82E86E0B82EE12C8F2D8E0D90E08356F9
:101820009E4F0E947E1FF50181935F01E394F8E0D3
:10183000EF12F2CF82E896E00E94A40F8C3009F4F8
:10184000C1C082E896E00E94A40F8C3009F48FC0DA
:10185000B80182E896E00E94410F882309F487C00E
:1018600080918206803109F482C08D82809171035B
:10187000909172030E94D51362E876E08091710323
:10188000909172030E94B61340E06EE48091710360
:10189000909172030E94821340E06B8180917103EA
:1018A000909172030E94821340E06C8180917103D9
:1018B000909172030E94821380918206803141F0E0
:1018C00040E06D8180917103909172030E948213B8
:1018D00080917103909172030E94D51362E876E0C3
:1018E00080917103909172030E94B61340916B0333
:1018F00068E480917103909172030E94821364E105
:1019000070E080E090E00E94121080916B038823C9
:1019100031F06AE070E080E090E00E941210809167
:101920007103909172030E94D51380916C03909281
:101930006C038D30E0F0A12CB12C80916F0390E00E
:10194000A816B906A4F47A2C8091710390917203C1
:101950000E942313E12CBE016D5E7F4F80917103C5
:10196000909172030E94BF0E81114EC057C084E354
:1019700092E00E94920D1C8A1B8A1E8A1D8A188E74
:101980001F8A4AE0B8018CE090E00E945B1BF801DE
:1019900001900020E9F73197AF01401B510BB801CE
:1019A000CE0143960E941311CE0143960E94AA0EC7
:1019B000CE0143960E94841164E670E080E090E0DE
:1019C0000E94DF06E0E1FE0EF0E9FF121ACF6A96F0
:1019D0000FB6F894DEBF0FBECDBFDF91CF911F9140
:1019E0000F91FF90EF90DF90CF90BF90AF909F90BE
:1019F0008F907F900895F0926B039ACE8091700340
:101A00008F5F809370035ACE7E101DC067E0CE01B9
:101A100043960E940B139A8D891315C0E0906C03B6
:101A2000CE0143960E94A40F8E1518F480916C038A
:101A300004C0CE0143960E94A40F80936C038FEFE5
:101A4000A81AB80A7ACFE3947E1440F384CF3FB744
:101A5000F8948091600590916105A0916205B09124
:101A6000630526B5A89B05C02F3F19F00196A11D5F
:101A7000B11D3FBFBA2FA92F982F8827820F911D24
:101A8000A11DB11DBC01CD0142E0660F771F881F6B
:101A9000991F4A95D1F708950895CF92DF92EF925A
:101AA000FF920F931F93CF93DF936C017A018B0109
:101AB000C0E0D0E0CE15DF0581F0D8016D918D0139
:101AC000D601ED91FC910190F081E02DC6010995C0
:101AD000892B11F02196EECF7E01C701DF91CF91C6
:101AE0001F910F91FF90EF90DF90CF9008958EECB3
:101AF00092E00E94321221E0892B09F420E0822F2B
:101B000008950E94F520E9E1F5E09091CA029183E1
:101B100082836683258384814770807E482B44833B
:101B2000CF010895009769F0FC0101900020E9F7CA
:101B30003197AF01481B590BBC018EEC92E00C941D
:101B40004D0D80E090E00895CF93DF930E94920DB9
:101B5000EC018DE492E00E94920D8C0F9D1FDF91AD
:101B6000CF910895EEECF2E0A089B18982E08C93E8
:101B7000A485B5851C92A685B78580E18C93108ECF
:101B8000A489B58986E08C93A289B3898C91806100
:101B90008C93A289B3898C9188608C93A289B38934
:101BA0008C9180688C930288F389E02D80818F7DF1
:101BB000808308950F931F93CF93DF938C01C0E030
:101BC000D0E0F801EC0FFD1F6491662341F08EEC2C
:101BD00092E00E949C12892B11F02196F2CFCE0147
:101BE000DF91CF911F910F910895CF93DF930E94C2
:101BF000DA0DEC018DE492E00E94920D8C0F9D1F96
:101C0000DF91CF910895682F8EEC92E00C949C1296
:101C1000FC018091CA0281839481907F91609483BA
:101C20008091C90280FF03C0CF010C943C0480E086
:101C30000895CF92DF92EF92FF920E9454026B01BF
:101C40007C0126E143E06FEF80E00E94830DFC0100
:101C500084818F71806A84838381877080628383AB
:101C6000C782D086E186F286CF01FF90EF90DF90A9
:101C7000CF900C943C04CF93DF93262F8F3F11F02D
:101C8000EA0102C0C0E5D2E040E0682F80E00E9497
:101C9000830DBE010E94FC01DF91CF910C943C04A6
:101CA000CF93DF938F3F11F0EB0102C0C6E9D1E083
:101CB00024E240E0682F80E00E94830DBE010E9474
:101CC000C401DF91CF910C943C04CF92DF92EF924C
:101CD000FF920F931F93CF93DF93CDB7DEB7A197FA
:101CE0000FB6F894DEBF0FBECDBF282F30E040E026
:101CF00050E019A28E010F5D1F4F8AE0C82ED12C33
:101D0000E12CF12CCA01B901A70196010E94DF1F45
:101D1000605DF80162938F01211531054105510580
:101D200089F7CF010E94920D8C018DE492E00E9410
:101D3000920D800F911FA1960FB6F894DEBF0FBED3
:101D4000CDBFDF91CF911F910F91FF90EF90DF906A
:101D5000CF900895CF93DF93FC014481558160813A
:101D600071818EEC92E00E944D0DEC018DE492E0C9
:101D70000E94920D8C0F9D1FDF91CF910895BF920D
:101D8000CF92DF92EF92FF920F931F93CF93DF9347
:101D9000EC016B018D85811105C0CE010E94D51328
:101DA000811105C01B861D861C8680E060C040E056
:101DB00060EFCE010E94821301E0E12CB12C11E012
:101DC000CE010E942F13F82ECE010E942F1391E016
:101DD000F91203C08130B1F434C02E2D30E0F81276
:101DE0001BC08B85181738F4FE01E20FF31F8381A7
:101DF000802341F402C0811729F0F12C193058F4E6
:101E00001C8709C0FE01EE0DF11D8381802B8383A9
:101E1000FF24F39409C0B12EFE01E20FF31F93815A
:101E2000802F8095892383836F2DCE010E945313C9
:101E30001F5F000F11F4E39401E087E08E1508F0B6
:101E4000BFCF113408F4AECFBB86B11002C081E021
:101E50008D878B81882309F4A5CFDE011396F601C7
:101E60002B968D918193CA17DB07D9F781E0DF911B
:101E7000CF911F910F91FF90EF90DF90CF90BF9087
:101E800008958F929F92AF92BF92CF92DF92EF927E
:101E9000FF920F931F93CF93DF938C01EB018091FF
:101EA0007103909172030E94D513882309F43DC0F9
:101EB000B80180917103909172030E94B61340E0C3
:101EC0006EEB80917103909172030E9482138E01D8
:101ED0005E0189E0A80EB11C80907103909072039E
:101EE00088E0C82ED12CF12CEE24E394C4010E948A
:101EF0002F138111FE28EE0CE1E0CE1AD108B1F7C4
:101F0000F801F1928F01EA15FB0531F78091710319
:101F1000909172030E94D513813039F468E0CE01AC
:101F20000E940B1391E02885281390E0892FDF9100
:101F3000CF911F910F91FF90EF90DF90CF90BF90C6
:101F4000AF909F908F900895CF93DF93CDB7DEB77A
:101F500029970FB6F894DEBF0FBECDBFFC012081DC
:101F60002031D1F0BE016F5F7F4F0E94410F882367
:101F700089F08D818F3361F020F48F3159F489E03D
:101F80000CC08F3519F08F3739F004C08BE005C0D5
:101F90008AE003C080E001C08CE029960FB6F89477
:101FA000DEBF0FBECDBFDF91CF910895CF93DF93FA
:101FB00090E0FC01E053FE4F2491FC01E454FE4FFD
:101FC0008491882361F190E0880F991FFC01E45708
:101FD000FE4FC591D491FC01EE57FE4FA591B491EF
:101FE000611109C09FB7F894888120958223888366
:101FF000EC912E230BC0623061F49FB7F894888176
:10200000322F309583238883EC912E2B2C939FBF06
:1020100006C08FB7F894E8812E2B28838FBFDF91FD
:10202000CF9108958F929F92AF92BF92CF92DF92FD
:10203000EF92FF926B017C010E94270D4B015C0126
:10204000C114D104E104F104F1F00E94270DDC0178
:10205000CB0188199909AA09BB09883E9340A105BB
:10206000B10570F321E0C21AD108E108F10888EE49
:10207000880E83E0981EA11CB11CC114D104E10498
:10208000F10419F7DDCFFF90EF90DF90CF90BF9074
:10209000AF909F908F9008952FB7F89460915C0552
:1020A00070915D0580915E0590915F052FBF089549
:1020B000CF92DF92EF92FF92CF93DF93D82F0E94BF
:1020C0004C106B017C0181E0D11180E080933F05D1
:1020D000C0E00E944C10DC01CB018C199D09AE09B7
:1020E000BF09803D9740A105B10590F4C11110C012
:1020F000A8950E9449020E94430280913E05877084
:10210000833039F7C1E080913F058D13E1CFE1CFF6
:102110008C2FDF91CF91FF90EF90DF90CF900895BB
:102120001F920F920FB60F9211242F933F938F930C
:102130009F93AF93BF9380915C0590915D05A091B3
:102140005E05B0915F0530915B0523E0230F2D37CD
:1021500020F40196A11DB11D05C026E8230F0296AB
:10216000A11DB11D20935B0580935C0590935D05D7
:10217000A0935E05B0935F05809160059091610525
:10218000A0916205B09163050196A11DB11D8093D8
:10219000600590936105A0936205B0936305BF91BC
:1021A000AF919F918F913F912F910F900FBE0F9004
:1021B0001F9018950F931F93CF93DF93EC018881A5
:1021C0009981009729F02A813B812617370788F4E7
:1021D0008B016F5F7F4F0E942F20009761F09983E2
:1021E00088831B830A832C813D81232B11F4FC01FE
:1021F000108281E001C080E0DF91CF911F910F91AB
:102200000895CF93DF93EC0188819981009711F0B5
:102210000E94751A198218821D821C821B821A82E2
:10222000DF91CF910895EF92FF920F931F93CF9379
:10223000DF93EC017B018A01BA010E94DA1081115F
:1022400004C0CE010E94011107C01D830C83B70199
:10225000888199810E940B21CE01DF91CF911F913E
:102260000F91FF90EF900895EF92FF920F931F93BD
:10227000CF93DF93CDB7DEB729970FB6F894DEBFC3
:102280000FBECDBF8C01862FF80111821082138200
:1022900012821582148240E19E012F5F3F4F790127
:1022A000B90190E00E94831BF70101900020E9F73B
:1022B0003197AF014E195F09B701C8010E94131190
:1022C00029960FB6F894DEBF0FBECDBFDF91CF9138
:1022D0001F910F91FF90EF900895CF93DF93EC0142
:1022E000FB018617970761F06081718161157105A7
:1022F00029F0448155810E94131102C00E940111EE
:10230000CE01DF91CF910895FC01808191810C94E1
:10231000751A1F920F920FB60F9211242F933F93AD
:102320004F935F936F937F938F939F93AF93BF93DD
:10233000EF93FF93E0912601F09127010995FF911A
:10234000EF91BF91AF919F918F917F916F915F912D
:102350004F913F912F910F900FBE0F901F901895A6
:102360001F920F920FB60F9211242F933F934F930A
:102370005F936F937F938F939F93AF93BF93EF93ED
:10238000FF93E0912401F09125010995FF91EF91D0
:10239000BF91AF919F918F917F916F915F914F917D
:1023A0003F912F910F900FBE0F901F9018951F9285
:1023B0000F920FB60F9211242F933F934F935F9379
:1023C0006F937F938F939F93AF93BF93EF93FF93FD
:1023D0008EEC92E00E947A12FF91EF91BF91AF9143
:1023E0009F918F917F916F915F914F913F912F912D
:1023F0000F900FBE0F901F901895089580E090E009
:102400000895FC01538D448D252F30E0842F90E0FA
:10241000821B930B541710F0CF96089501970895DF
:10242000FC01918D828D981761F0828DDF01A80FDC
:10243000B11D5D968C91928D9F5F9F73928F90E0FE
:1024400008958FEF9FEF0895FC01918D828D98176D
:1024500031F0828DE80FF11D858D90E008958FEFAA
:102460009FEF0895FC01918D228D892F90E0805C73
:102470009F4F821B91098F739927089580E090E008
:10248000892B29F00E94770D81110C94000008958A
:102490001F920F920FB60F9211242F938F939F9339
:1024A000EF93FF93E091DE02F091DF028081E091F3
:1024B000E402F091E50282FD12C090818091E70272
:1024C0008F5F8F732091E802821751F0E091E7024D
:1024D000F0E0E253FD4F958F8093E70201C08081C9
:1024E000FF91EF919F918F912F910F900FBE0F90C1
:1024F0001F901895FC01848DDF01A80FB11DA35A10
:10250000BF4F2C91848D90E001968F739927848F13
:10251000A689B7892C93A089B1898C918370806436
:102520008C93938D848D981306C00288F389E02DD7
:1025300080818F7D80830895EF92FF920F931F9388
:10254000CF93DF93EC0181E0888F9B8D8C8D981366
:1025500005C0E889F989808185FD26C0F62E0B8D9E
:1025600010E00F5F1F4F0F731127E02E8C8DE812C4
:102570000CC00FB607FCFACFE889F989808185FF86
:10258000F5CFCE010E947A12F1CF8B8DFE01E80FBC
:10259000F11DE35AFF4FF0829FB7F8940B8FEA8941
:1025A000FB89808180620AC09FB7F894EE89FF8919
:1025B0006083E889F98980818370806480839FBF0C
:1025C00081E090E0DF91CF911F910F91FF90EF900C
:1025D0000895CF93DF93EC01888D8823C9F0EA89B1
:1025E000FB89808185FD05C0A889B9898C9186FD0C
:1025F0000FC00FB607FCF5CF808185FFF2CFA88909
:10260000B9898C9185FFEDCFCE010E947A12E7CF78
:10261000DF91CF910895DC0180E0615098F02D9119
:10262000982F9227E92FEF70F0E0EC51FE4F2491A4
:1026300092959F70E92FF0E0EC50FE4FE491822FCD
:102640008E27EBCF0895FC01138615861486DC01D6
:102650001B9633961E92AE17BF07E1F70895FC0153
:1026600090810180F281E02DF8948181892B818312
:102670002281892F809528232283A7E0B0E011973B
:10268000F1F7218182238183A3E2B0E01197F1F772
:1026900080817894EFECF0E03197F1F7982381E0B6
:1026A00009F480E00895FC0190810180F281E02D21
:1026B000892F809560FF12C0F89422818223828343
:1026C0008181892B8183A3E2B0E01197F1F78281A8
:1026D000982B9283789487ED90E011C0F894228132
:1026E000822382838181892B8183AFEFB0E01197B0
:1026F000F1F78281982B928378948FE090E0019794
:10270000F1F70895DF92EF92FF920F931F93CF930B
:10271000DF93EC01D62EE42E08E010E0FF24F394C2
:1027200061E08D2D8F2109F460E0CE010E945313EA
:10273000FF0C01501109A1F7E11010C0F894E981D4
:10274000FA8191818881809589238183E981FA8149
:10275000928188818095892382837894DF91CF91BB
:102760001F910F91FF90EF90DF900895EF92FF92ED
:102770000F931F93CF93DF938C017B0140E065E5BE
:102780000E948213E70188E0E80EF11C699140E0A5
:10279000C8010E948213CE15DF05C1F7DF91CF91EA
:1027A0001F910F91FF90EF900895DC012C911196ED
:1027B000ED91FC911297F8948181922F9095892345
:1027C000818378948DE743E050E0815021F1DA0174
:1027D0001197F1F730813223C1F3F8948281892374
:1027E00082838181822B81837894ABE7B7E0119754
:1027F000F1F7F89481819823918383E191E0019727
:10280000F1F78081282381E009F080E07894E3E605
:10281000F6E03197F1F708958F929F92AF92BF92B1
:10282000DF92EF92FF920F931F93CF93DF9300D02D
:102830001F92CDB7DEB70E944C1000917B0610911D
:102840007C0620917D0630917E06DC01CB01801B49
:10285000910BA20BB30B813A9B4BAD40B105A0F09D
:102860000E944C1060937B0670937C0680937D06DB
:1028700090937E0686E00E9493038332F9F485E00C
:102880000E9493038036D1F486E08B8300E010E051
:1028900088248A9499249394E3E0AE2EE2E0BE2E3D
:1028A000E12CFF24FA9487E10E94930380FD9FC1ED
:1028B0009B8191509B83911106C099C188E291E060
:1028C0000E946702E1CF21E041E060E070E080E635
:1028D0000E9427038983813220F082EE0E949903AF
:1028E000198221E049816AE375E081E60E942703AD
:1028F00060E487E20E94590330913D05832F86955D
:10290000869586958A3108F089E132FD03C097E00B
:10291000980F01C090E229819213C5CF932F937035
:10292000923009F620913E05922F977099839091ED
:102930003F059A83D0903B0590913A0560913C0504
:10294000409177064068409377064091CA0264132D
:1029500043C090E03770AC0173E0440F551F7A9587
:10296000E1F7342B30933D05FC01E65CFA4F17820A
:1029700023FF15C081E2EAE3F5E0A9E1B5E00190AB
:102980000D928A95E1F7277F206120931D056093C2
:102990001A05D0921B0589E195E00E943C049091B4
:1029A0003E0594FD14C02981233089F480913F05B0
:1029B00021EF280F233008F043C075CF813009F490
:1029C000F3C08A3009F46FCF8C3109F46CCF8AE3FD
:1029D00095E00E94C10567CF6F3F09F064CF898100
:1029E000833049F58091760682FF04C02A81273022
:1029F00009F459CF8A81883009F455CF843109F020
:102A000052CF8091CB0298134ECF0E944C1073701E
:102A1000882799270E9412109091CB02998325E173
:102A200043E06FEF8D2D0E94830D69810E94B801F4
:102A30000E94040438CF8091CB02981334CFC7CFC3
:102A40002A81243009F42FCF2A812830E9F480919B
:102A50007606898380FF27CF8AE395E00E943202C1
:102A60008F3F09F420CF8F5F8F3F09F41CCF9091E7
:102A7000CC02891708F017CF998191FD14CF80936C
:102A8000CC02D092CB020FCF2A81283141F429E128
:102A900043E06FEF8D2D0E94830D61E0C7CF2A8147
:102AA000293171F48091760683FFFDCE877F809374
:102AB00076068AE395E00E94320280937806F3CE90
:102AC0002A812E3109F4EFCE2D3199F42FE143E024
:102AD0006FEF80E00E94830DFC0184818F71806420
:102AE00084838381877080618383F086E782CF014E
:102AF0009FCF20913B05211176C08D3059F498E08D
:102B000088E10FB6F894A895809360000FBE90936B
:102B10006000FFCF8B3179F48AE395E00E943202A6
:102B200091E0811101C090E08091C90290FB80F991
:102B30008093C902B8CE863099F49091410581E026
:102B4000992319F09D3409F080E08093C80241E098
:102B500050E063E071E088EC92E00E94861FA3CE13
:102B6000833119F40E94DF0A9ECE823119F40E944B
:102B7000190E99CE823009F021CF22E043E06FEFA9
:102B800080E00E94830DFC0184818F71806A8483C0
:102B9000838187708062838387829086A186B286D4
:102BA000CF010E943C047FCE0115110509F47BCEB4
:102BB000929596959770953049F460914105709182
:102BC000420580914305909144050AC0911105C0CA
:102BD00081E495E00E941C1B03C060E070E0CB0123
:102BE0000E94000060CE8A3109F0F1CE5CCE0F90D9
:102BF0000F900F90DF91CF911F910F91FF90EF9069
:102C0000DF90BF90AF909F908F900895EF92FF92CA
:102C10000F931F93CF93DF9300D000D000D0CDB798
:102C2000DEB700E1F12C10E08F2D810F90E083568C
:102C30009E4F0E947E1FE82E8FE08E1520F086E5C5
:102C400092E00E94920D6E2DCE0101960E943411E9
:102C50004D815E8169817A818EEC92E00E944D0DFA
:102C6000CE0101960E9484111F3021F088E592E088
:102C70000E94920D1F5F1031B9F680E1F80E8FE4CB
:102C800092E00E94A40D015071F626960FB6F894BA
:102C9000DEBF0FBECDBFDF91CF911F910F91FF908F
:102CA000EF9008953F924F925F926F927F928F9232
:102CB0009F92AF92BF92CF92DF92EF92FF920F93CB
:102CC0001F93CF93DF93CDB7DEB764970FB6F89419
:102CD000DEBF0FBECDBF8FE793E00E9423138AE5CE
:102CE00092E00E94A40D512CE12CF12C8E010F5F7B
:102CF0001F4F59E5452E6EE4362E62E876E08FE7E9
:102D000093E00E94BF0E882309F431C181E792E06D
:102D10000E94920D188A1F861A8A198A1C8A1B8A99
:102D200040E050E06FE472E0CE010F960E94131174
:102D300042E8842E46E0942E64013601F60180813B
:102D4000803108F041C01A8619861C861B861E86B3
:102D50001D86BE01615F7F4FCE0109960E946D11F5
:102D60004AE0B80180E090E00E945B1BF80101900E
:102D70000020E9F73197E01BF10BD9F0AD84BE8458
:102D8000AE0EBF1EB501CE0109960E94DA1088234F
:102D900061F029853A858D859E85B801820F931F44
:102DA0000E940B21BE86AD8604C0CE0109960E940A
:102DB0000111BE01675F7F4FCE010F960E946D111A
:102DC000CE0109960E948411FFEFCF1ADF0AF301AA
:102DD0006081CE0109960E9434111A8219821C82E8
:102DE0001B821E821D82BE01615F7F4FC8010E944F
:102DF0006D118D859E8569847A846114710409F44E
:102E0000E7C00097B1F0AD80BE80A80EB91EB50135
:102E1000C8010E94DA10882309F4DAC029813A81B6
:102E20008D819E81B301820F931F0E940B21BE8270
:102E3000AD82B801CE010F960E946D11C8010E94AB
:102E40008411CE0109960E948411FAE8CF16F6E0AB
:102E5000DF0609F072CFCF84D888C114D10469F09D
:102E6000F6018081882349F0082E000C990B0E94FE
:102E7000FA20F60181936F01F3CFCE010F960E94E5
:102E8000AA0ECE010F960E948411F7E0FE1508F4F9
:102E90005AC0F12C30E1B32E22E8C22E26E0D22E09
:102EA000A12C8B2D8A0D90E083569E4F0E947E1F91
:102EB000F60191916F01981307C0A394F8E0AF1247
:102EC000F0CFEF2DF0E03BC0F39480E1B80EE0E9E5
:102ED000BE12E2CF88E0F812F4CF9DEAA92EBB24FF
:102EE000B394C12CC5010E947E1F8F3F09F074C0AE
:102EF00066EA72E08DE893E00E94C4010E94080E29
:102F000064E872E08DE893E00E94C4010E94080E1C
:102F1000D12CC6010196A82EA29480EFA822B12C34
:102F2000F40161914F018A2D8B0D90E083569E4FE5
:102F30000E94961FB394F8E0BF12F2CFF601E05D55
:102F4000FE4F408204C08EE792E00E94A40D909153
:102F5000830680918406890F580E5F0C8AE992E0FF
:102F60000E94920D852D0E94650EE394C6CEE1105D
:102F700006C069EA72E080E391E00E940B2182EBD7
:102F800092E00E94920D809181060E94650E5092FF
:102F900081066E2D86EB94E00E94B8010E94080E17
:102FA00064960FB6F894DEBF0FBECDBFDF91CF9110
:102FB0001F910F91FF90EF90DF90CF90BF90AF9057
:102FC0009F908F907F906F905F904F903F9008956B
:102FD000C8010E9401112DCFC394E0E1AE0EB11CD7
:102FE000F8E0CF127FCF309238016DE872E08DE8C3
:102FF00093E00E94C4010E94080EA9CFCF93DF93F3
:10300000FC01108211821282148215821682DC0168
:1030100017968AE1ED0119928A95E9F782E0838398
:10302000DF91CF910895CF93DF93EEECF2E013821E
:10303000128288EE93E0A0E0B0E084839583A683BB
:10304000B78380E891E09183808385EC90E0958759
:10305000848784EC90E09787868780EC90E0918B62
:10306000808B81EC90E0938B828B82EC90E0958B4F
:10307000848B86EC90E0978B868B118E128E138E4C
:10308000148E8AE395E00E94FE1789E195E00E9484
:10309000FE1788EF94E00E94FE17E8EFF4E08AE064
:1030A0008683158287ED94E00E94FE17E7EDF4E039
:1030B00082E18683CFE2C58386EB94E00E94FE170F
:1030C000E6EBF4E083E18683C58385E994E00E9422
:1030D000FE17E5E9F4E0D4E1D683C5838BE496E0FE
:1030E0000E94FE17EBE4F6E08EE18683C5838AE258
:1030F00096E00E94FE17EAE2F6E083E2868381E131
:10310000858389E096E00E94FE17E9E0F6E0D68329
:10311000C58384E794E00E94FE17E4E7F4E086E4C8
:103120008683C58388EE95E00E94FE17E8EEF5E001
:1031300087E48683C58383E594E00E94FE17E3E578
:10314000F4E080E58683C58382E394E00E94FE1765
:10315000E2E3F4E081E58683C58381E194E00E94A7
:10316000FE17E1E1F4E08AE58683C58380EF93E012
:103170000E94FE17E0EFF3E08BE58683C5838FECBA
:1031800093E00E94FE17EFECF3E08CE58683C583A5
:103190008EEA93E00E94FE17EEEAF3E08DE5868367
:1031A000C58387EC95E00E94FE17E7ECF5E08EE51D
:1031B0008683C58386EA95E00E94FE17E6EAF5E07D
:1031C0008FE58683C5838DE893E00E94FE17EDE8C6
:1031D000F3E080E68683C58385E895E00E94FE17CC
:1031E000E5E8F5E081E68683C58384E695E00E9404
:1031F000FE17E4E6F5E083E6868386E2858360E0F9
:1032000084E00E94D60FE4EDF1E0E491CFE7D3E053
:10321000E883E0ECF1E0E491F0E0EE0FFF1FEE5404
:10322000FE4F859194919A838983CE010E94231346
:10323000EBE6F3E0D783C68314821582108289E01F
:10324000818381E082838383138A128ADF91CF9105
:103250000895789484B5826084BD84B5816084BD0E
:1032600085B5826085BD85B5816085BD80916E0024
:10327000816080936E001092810080918100826055
:103280008093810080918100816080938100809192
:1032900080008160809380008091B1008460809381
:1032A000B1008091B00081608093B00080917A007D
:1032B000846080937A0080917A00826080937A00A3
:1032C00080917A00816080937A0080917A00806892
:1032D00080937A001092C100A8950E94DD0A0E9496
:1032E000B20DC0E1D0E0F12CFE01F595E795E55F68
:1032F000FD4FE491C0FFE295EF70E83008F053C055
:10330000F0E0E55FFD4FF4908F2D0E94030E2196B3
:10331000C23FD10549F784E092E00E94F50D80910B
:10332000C9028D7F8093C9020E94160B41E050E0D4
:1033300063E071E088EC92E00E946E1F6FEF81E025
:1033400090E00E94961F809177068F788093770691
:1033500010926D0610926C068CE291E00E9467025A
:1033600083E494E09093800680937F060E944C1043
:103370000E944C100E9449020E944302A89580912D
:10338000760682FFF5CF0E94D806A895A8950E94E0
:1033900049028091760684FD0E940C140E945C080C
:1033A0000E943E12F3CF1BEF1E0F00E08F2D0E94F4
:1033B000030E0F5F0117D0F3AACF0F931F93CF9384
:1033C000DF938230910510F482E090E0E0918C066A
:1033D000F0918D0620E030E0A0E0B0E0309719F1E8
:1033E000408151810281138148175907C8F0841721
:1033F000950769F4109731F012960C931297139673
:103400001C9327C000938C0610938D0622C02115B3
:10341000310519F04217530718F49A01BD01EF0165
:10342000DF01F801DBCF21153105F9F0281B390B3D
:103430002430310580F48A819B816115710521F06A
:10344000FB019383828304C090938D0680938C0646
:10345000FE01329644C0FE01E20FF31F8193919367
:1034600022503109398328833AC020918A0630914D
:103470008B06232B41F420913B0130913C0130938A
:103480008B0620938A062091390130913A0121154B
:10349000310541F42DB73EB740913D0150913E01B9
:1034A000241B350BE0918A06F0918B06E217F30797
:1034B000A0F42E1B3F0B2817390778F0AC014E5FA4
:1034C0005F4F2417350748F04E0F5F1F50938B0650
:1034D00040938A068193919302C0E0E0F0E0CF012F
:1034E000DF91CF911F910F910895CF93DF930097B4
:1034F00009F481C0FC01329713821282A0918C06DC
:10350000B0918D06109781F420813181820F931F35
:1035100020918A0630918B062817390751F5F093D0
:103520008B06E0938A0667C0ED0120E030E0CE17FD
:10353000DF0740F44A815B819E0141155105F1F09E
:10354000EA01F5CFD383C28340815181840F951F57
:10355000C817D90759F488819981840F951F02965D
:10356000918380838A819B81938382832115310596
:1035700029F4F0938D06E0938C063DC0E901FB83AE
:10358000EA8349915991C40FD51FEC17FD0761F4E7
:1035900080819181840F951F0296E9019983888328
:1035A000828193819B838A83E0E0F0E012968D9183
:1035B0009C911397009719F0FD01DC01F7CF8D91D5
:1035C0009C9111979D012E5F3F4F820F931F209179
:1035D0008A0630918B062817390769F4309729F449
:1035E00010928D0610928C0602C013821282B09344
:1035F0008B06A0938A06DF91CF910895FC0188275E
:103600009927E89421912032E9F3293010F02E30E7
:10361000C8F32B3241F02D3239F4689404C00E9473
:103620007B1B820F911D219120532A30C0F31EF481
:10363000909581959F4F08951F93FC0199278827A6
:10364000BC01E89411911032E9F3193010F01E30EA
:10365000C8F31B3251F01D3249F4689406C00E9431
:10366000661B610F711D811D911D119110531A3040
:10367000B0F33EF490958095709561957F4F8F4F94
:103680009F4F1F910895FC0105900020E9F7809558
:1036900090958E0F9F1F0895FB01DC014150504013
:1036A00048F005900D920020C9F701C01D924150CD
:1036B0005040E0F70895BB274A3031F4992322F4B3
:1036C000BDE2909581959F4F0C94841B592F482FF4
:1036D000372F262F660F771F881F991F660F771FBA
:1036E000881F991F620F731F841F951F660F771F16
:1036F000881F991F08957AE0979F902D879F802DAE
:10370000910D11240895BB27FB015527AA27880F87
:10371000991FAA1FA41710F0A41B83955051B9F745
:10372000A05DAA3308F0A95DA193009779F7B111C4
:10373000B1931192CB010C949D1DABE0B0E0E3EA94
:10374000FBE10C94A81F6C017B018A01FC0117822C
:103750001682838181FFCCC1CE0101963C01F60126
:103760009381F70193FD859193FF81917F018823D8
:1037700009F4BAC1853239F493FD859193FF8191A3
:103780007F01853229F4B60190E00E94AD1DE7CF9C
:10379000912C212C312CFFE1F315D8F08B3279F0EC
:1037A00038F4803279F08332A1F4232D20611DC0DA
:1037B0008D3261F0803369F4232D216016C0832D92
:1037C0008260382EE32DE4603E2E2AC0F32DF8608F
:1037D0001DC037FC2DC020ED280F2A3040F08E325E
:1037E000B9F436FC81C1232D2064322E19C036FE77
:1037F00006C08AE0989E200D1124922E11C0EAE0A6
:103800002E9E200D1124222EF32DF0623F2E08C093
:103810008C3621F4832D8068382E02C0883641F41E
:10382000F70193FD859193FF81917F018111B3CFC2
:10383000982F9F7D9554933028F40C5F1F4F9FE382
:1038400099830DC0833631F0833771F0833509F0E9
:1038500059C021C0F801808189830E5F1F4F8824E1
:103860008394912C530113C02801F2E04F0E511C98
:10387000F801A080B18036FE03C0692D70E002C05F
:103880006FEF7FEFC5010E94921D4C018201F32D65
:10389000FF773F2E16C0280122E0420E511CF8018E
:1038A000A080B18036FE03C0692D70E002C06FEFCA
:1038B0007FEFC5010E94871D4C01F32DF0683F2E5C
:1038C000820133FC1BC0822D90E088169906B0F46B
:1038D000B60180E290E00E94AD1D2A94F4CFF5017C
:1038E00037FC859137FE81915F01B60190E00E941F
:1038F000AD1D21102A9421E0821A910881149104AF
:1039000071F7E8C0843611F0893641F5F80137FEC9
:1039100007C060817181828193810C5F1F4F08C055
:1039200060817181072E000C880B990B0E5F1F4F71
:10393000F32DFF763F2E97FF09C0909580957095E7
:1039400061957F4F8F4F9F4FF0683F2E2AE030E008
:10395000A3010E94E91D882E861845C0853731F4E1
:10396000232D2F7EB22E2AE030E025C0932D997FA3
:10397000B92E8F36C1F018F4883579F0B5C080378C
:1039800019F0883721F0B0C0E92FE061BE2EB4FEF7
:103990000DC0FB2DF460BF2E09C034FE0AC0292FD4
:1039A0002660B22E06C028E030E005C020E130E0FD
:1039B00002C020E132E0F801B7FE07C060817181EA
:1039C000828193810C5F1F4F06C06081718180E00E
:1039D00090E00E5F1F4FA3010E94E91D882E8618FC
:1039E000FB2DFF773F2E36FE0DC0232D2E7FA22EFE
:1039F000891458F434FE0BC032FC09C0832D8E7E2E
:103A0000A82E05C0B82CA32C03C0B82C01C0B92C1B
:103A1000A4FE0FC0FE01E80DF11D8081803321F46A
:103A20009A2D997EA92E09C0A2FE06C0B394B39424
:103A300004C08A2D867809F0B394A3FC11C0A0FEBF
:103A400006C0B21488F4280C922C9B180EC0B21435
:103A500060F4B60180E290E00E94AD1DB394F7CF10
:103A6000B21418F42B1802C0982C212CA4FE10C0FC
:103A7000B60180E390E00E94AD1DA2FE17C0A1FC3C
:103A800003C088E790E002C088E590E0B6010CC072
:103A90008A2D867859F0A1FE02C08BE201C080E237
:103AA000A7FC8DE2B60190E00E94AD1D891438F4A8
:103AB000B60180E390E00E94AD1D9A94F7CF8A94FE
:103AC000F301E80DF11D8081B60190E00E94AD1D6B
:103AD0008110F5CF222009F442CEB60180E290E0B9
:103AE0000E94AD1D2A94F6CFF6018681978102C00F
:103AF0008FEF9FEF2B96E2E10C94C41F91110C9471
:103B00001A1F803219F089508550C8F70895FC01BA
:103B10000590615070400110D8F7809590958E0FF8
:103B20009F1F0895FC016150704001900110D8F76B
:103B3000809590958E0F9F1F0895DC01FC01672FE3
:103B400071917723E1F7329704C07C916D93708374
:103B50006291AE17BF07C8F308950F931F93CF93D9
:103B6000DF93FB01238121FD03C08FEF9FEF2CC06A
:103B700022FF16C0468157812481358142175307A1
:103B800044F4A081B1819D012F5F3F4F3183208399
:103B90008C93268137812F5F3F4F3783268314C054
:103BA0008B01EC01FB010084F185E02D0995892B47
:103BB000E1F6D80116968D919C911797019617966C
:103BC0009C938E931697CE01DF91CF911F910F9109
:103BD0000895FA01AA27283051F1203181F1E894A3
:103BE0006F936E7F6E5F7F4F8F4F9F4FAF4FB1E0F0
:103BF0003ED0B4E03CD0670F781F891F9A1FA11DEB
:103C0000680F791F8A1F911DA11D6A0F711D811DEB
:103C1000911DA11D20D009F468943F912AE0269FB0
:103C200011243019305D3193DEF6CF010895462F0F
:103C30004770405D4193B3E00FD0C9F7F6CF462FF0
:103C40004F70405D4A3318F0495D31FD4052419359
:103C500002D0A9F7EACFB4E0A69597958795779516
:103C60006795BA95C9F700976105710508959B019D
:103C7000AC010A2E06945795479537952795BA9526
:103C8000C9F7620F731F841F951FA01D08950E941E
:103C9000891E08F481E00895E89409C097FB3EF47A
:103CA00090958095709561957F4F8F4F9F4F992389
:103CB000A9F0F92F96E9BB279395F6958795779507
:103CC0006795B795F111F8CFFAF4BB0F11F460FFC7
:103CD0001BC06F5F7F4F8F4F9F4F16C0882311F01F
:103CE00096E911C0772321F09EE8872F762F05C033
:103CF000662371F096E8862F70E060E02AF09A95CE
:103D0000660F771F881FDAF7880F9695879597F9C2
:103D10000895990F0008550FAA0BE0E8FEEF16165C
:103D20001706E807F907C0F012161306E407F507AF
:103D300098F0621B730B840B950B39F40A2661F023
:103D4000232B242B252B21F408950A2609F4A140C6
:103D5000A6958FEF811D811D08950E94C01E0C94B1
:103D6000341F0E94261F38F00E942D1F20F095233B
:103D700011F00C941D1F0C94231F11240C94681F28
:103D80000E94451F70F3959FC1F3950F50E0551F9A
:103D9000629FF001729FBB27F00DB11D639FAA27A0
:103DA000F00DB11DAA1F649F6627B00DA11D661FEF
:103DB000829F2227B00DA11D621F739FB00DA11D10
:103DC000621F839FA00D611D221F749F3327A00DCA
:103DD000611D231F849F600D211D822F762F6A2F66
:103DE00011249F5750409AF0F1F088234AF0EE0FCB
:103DF000FF1FBB1F661F771F881F91505040A9F7F8
:103E00009E3F510580F00C941D1F0C94681F5F3F6E
:103E1000E4F3983ED4F3869577956795B795F79533
:103E2000E7959F5FC1F7FE2B880F911D96958795AB
:103E300097F9089599278827089597F99F6780E84B
:103E400070E060E008959FEF80EC089500240A94EC
:103E50001616170618060906089500240A94121665
:103E60001306140605060895092E0394000C11F498
:103E7000882352F0BB0F40F4BF2B11F460FF04C045
:103E80006F5F7F4F8F4F9F4F089557FD9058440F9E
:103E9000551F59F05F3F71F04795880F97FB991FA9
:103EA00061F09F3F79F08795089512161306140666
:103EB000551FF2CF4695F1DF08C0161617061806F3
:103EC000991FF1CF86957105610508940895E894CE
:103ED000BB2766277727CB0197F90895DC01CB0133
:103EE000FC01F999FECF06C0F2BDE1BDF89A31960A
:103EF00000B40D9241505040B8F70895F999FECFA3
:103F000092BD81BDF89A992780B50895DC01A40F70
:103F1000B51F4150504048F0CB01840F951F2E91A2
:103F20000E94971F41505040D0F70895262FF999CD
:103F3000FECF92BD81BDF89A019700B4021639F008
:103F40001FBA20BD0FB6F894FA9AF99A0FBE0895D9
:103F50002F923F924F925F926F927F928F929F9299
:103F6000AF92BF92CF92DF92EF92FF920F931F9387
:103F7000CF93DF93CDB7DEB7CA1BDB0B0FB6F89438
:103F8000DEBF0FBECDBF09942A88398848885F8478
:103F90006E847D848C849B84AA84B984C884DF80E9
:103FA000EE80FD800C811B81AA81B981CE0FD11DCD
:103FB0000FB6F894DEBF0FBECDBFED010895A1E2AC
:103FC0001A2EAA1BBB1BFD010DC0AA1FBB1FEE1F93
:103FD000FF1FA217B307E407F50720F0A21BB30BDE
:103FE000E40BF50B661F771F881F991F1A9469F75A
:103FF00060957095809590959B01AC01BD01CF01B6
:10400000089597FB072E16F4009407D077FD09D08A
:104010000E94152007FC05D03EF4909581959F4F96
:104020000895709561957F4F0895AA1BBB1B51E1C0
:1040300007C0AA1FBB1FA617B70710F0A61BB70B18
:10404000881F991F5A95A9F780959095BC01CD01BD
:104050000895EE0FFF1F0590F491E02D0994A0E064
:10406000B0E0E5E3F0E20C94AC1FEC01009721F422
:10407000CB010E94DD19B4C0FC01E60FF71F9C01C3
:1040800022503109E217F30708F4A8C0D9010D91B5
:104090001C91119706171707B0F00530110508F4A9
:1040A0009BC0C80104978617970708F495C0025073
:1040B0001109061B170B019311936D937C93CF018C
:1040C0000E94751A89C05B01A01AB10A4C01800ECA
:1040D000911EA0918C06B0918D06612C712CE12C63
:1040E000F12C109709F446C08D919C911197A81559
:1040F000B905B1F56C0142E0C40ED11CCA14DB0451
:1041000078F14C018A189B08640142E0C40ED11C6E
:104110001296BC9012971396AC91B5E0CB16D104D1
:1041200040F0B282A38391828082D9016D937C9307
:1041300009C00E5F1F4F800F911FF901918380838B
:10414000EB2DFA2FE114F10431F0D7011396FC9313
:10415000EE93129741C0F0938D06E0938C063CC01D
:104160006816790608F43C017D0112960D90BC9109
:10417000A02DB7CF80918A0690918B06881699065C
:10418000E1F466167706C8F48091390190913A01FE
:10419000009741F48DB79EB740913D0150913E018B
:1041A000841B950BE817F907C8F4F0938B06E0938E
:1041B0008A06F901718360830FC0CB010E94DD196B
:1041C0007C01009759F0A801BE010E940221CE0196
:1041D0000E94751AC70104C0CE0102C080E090E0C1
:1041E000CDB7DEB7EEE00C94C81F81E090E0F89404
:1041F0000C9485249111089581568A5108F48052B7
:1042000085580895FB01DC0102C001900D924150D8
:104210005040D8F70895FB01DC0101900D92002079
:10422000E1F70895FB01DC014150504048F0019056
:104230000D920020C9F701C01D9241505040E0F797
:104240000895FB0151915523A9F0BF01DC014D9167
:1042500045174111E1F759F4CD010190002049F0D3
:104260004D9140154111C9F3FB014111EFCF81E0A0
:1042700090E001970895AEE0B0E0E1E4F1E20C9443
:10428000B61F0D891E8986E08C831A8309838FEF00
:104290009FE79E838D83AE01475E5F4F6F89788D68
:1042A000CE0101960E949D1BEF81F885E00FF11F62
:1042B00010822E96E4E00C94D21FAEE0B0E0E3E66C
:1042C000F1E20C94B81F85E08C838B899C899A83DA
:1042D0008983AE01495E5F4F6D897E89CE0101966B
:1042E0000E9412232E96E2E00C94D41F20FD09C0F8
:1042F000FC0123FD05C022FF02C07383628351834A
:104300004083089544FD17C046FD17C0AB01BC01B2
:10431000DA01FB01AA0FBB1FEE1FFF1F1094D1F79C
:104320004A0F5B1F6E1F7F1FCB01BA01660F771FFD
:10433000881F991F09C033E001C034E0660F771F62
:10434000881F991F3150D1F7620F711D811D911D7A
:1043500008950F931F93CF93DF938C01C8010E94A0
:104360002E24EC0197FD08C00E947E1D892BB1F719
:10437000B801CE010E946C24CE01DF91CF911F9134
:104380000F9108958F929F92AF92BF92EF92FF92FA
:104390000F931F93CF93DF938C01D62F7A01B22E08
:1043A0000E942E249C0133272B32310531F02D320F
:1043B000310561F48B2D8068B82ED15011F480E066
:1043C00068C0C8010E942E2497FDF9CFCB2DCD7F68
:1043D0002B2D207309F58033F9F4AA24AA94AD0E8D
:1043E00009F443C0C8010E942E2497FD3EC09C01E1
:1043F0002F7D33272835310549F4C264D250A9F105
:10440000C8010E942E2497FF07C02FC0B6FE02C02D
:10441000C26001C0C261DA2D812C912C540120EDC3
:10442000280F283080F0C4FF04C0B8010E946C241B
:1044300019C02A3040F0C6FFF8CF2F7D3FEE320F73
:10444000363098F727504C2FC501B4010E948221C5
:104450004B015C01C260D15059F0C8010E942E246A
:1044600097FFDDCFC1FD04C0AACF812C912C540150
:10447000C7FF08C0B094A09490948094811C911CB4
:10448000A11CB11C2C2FB501A401C7010E947621EB
:1044900081E0DF91CF911F910F91FF90EF90BF903E
:1044A000AF909F908F900895A0E2B0E0EAE5F2E22D
:1044B0000C94AB1F5C01962E7A01F9018E010F5FFF
:1044C0001F4F680180E2D8011D928A95E9F7D50156
:1044D00013968C9080E090E0612C712C30E061E0CC
:1044E00070E083FC259183FE21918F01522E2111D2
:1044F00003C080E090E092C02E3511F4009751F196
:10450000432F50E0481759073CF42D3559F12D320F
:1045100019F4772009F103C0772009F46AC0452D0A
:10452000469546954695D601A40FB11D452D477079
:104530008B0102C0000F111F4A95E2F7A8015C91A0
:10454000452B4C93651459F0561410F45394E7CF4F
:104550005A94E5CF31E004C07724739401C0712CE4
:104560000196BFCF772019F08E8180628E83311142
:1045700003C08824839417C0F6019E012F5D3F4F2E
:104580008081809581932E173F07D1F7F2CFE114F8
:10459000F10429F0D7018C93F70131967F019A94A9
:1045A000812C9920F9F0C5010E942E2497FD18C096
:1045B000FC01FF2723E0F595E7952A95E1F7EC0D3F
:1045C000FD1D208130E0AC014770552702C03595B4
:1045D00027954A95E2F720FDDACFB5010E946C24B9
:1045E000811087CFE114F10411F0D7011C92C801AA
:1045F00015C0422F469546954695D601A40FB11D8C
:10460000422F47708B0102C0000F111F4A95E2F73D
:10461000A8015C91452B4C93622EA2CFA096EFE0AF
:104620000C94C71FA0E0B0E0E8E1F3E20C94AB1FEC
:104630006C01EB015A01FC0117821682512CF60124
:10464000E380FE01E3FC8591E3FE8191182FEF01E9
:10465000882309F4EEC090E00E947E1D892B21F092
:10466000C6010E94A921EBCF153241F4FE01E3FC03
:104670001591E3FE1191EF01153281F4C6010E94FC
:104680002E2497FDD4C0412F50E09C0133272417DE
:104690003507A9F2B6010E946C24CBC01A3239F456
:1046A000E3FC1591E3FE1191EF0101E001C000E090
:1046B000F12C20ED210F2A3080F402606F2D70E084
:1046C00080E090E040E20E948221F62EFE01E3FCB1
:1046D0001591E3FE1191EF01ECCF01FF03C0F11042
:1046E00003C0A7C0FF24FA94183619F01C3651F005
:1046F00010C0FE01E3FC1591E3FE1191EF011836A5
:1047000041F408600460FE01E3FC1591E3FE1191A1
:10471000EF01112309F48DC0612F70E088E690E06D
:104720000E942324892B09F484C000FD07C0F501F1
:1047300080809180C50102965C0102C0812C912C81
:104740001E3651F4F6014681578160E070E0202F5B
:10475000C4010E94762173CF1336A9F401FD02C073
:10476000FF24F394C6010E942E2497FD60C081149B
:10477000910429F0F4018083C40101964C01FA945C
:10478000F110F0CF50C01B3559F49E01A4016F2DDC
:10479000C6010E945422EC01892B09F044C03EC09E
:1047A000C6010E94A92197FD42C01F3661F128F47D
:1047B000143639F1193651F128C0133771F0153715
:1047C00001F123C08114910429F0F4016082C40135
:1047D00001964C01FA94FF2071F0C6010E942E242C
:1047E0003C0197FD08C00E947E1D892B59F3B6013C
:1047F000C3010E946C2481149104A9F0F401108279
:1048000012C0006203C0006101C00064202FA40137
:104810006F2DC6010E94C221811105C0F60183815E
:10482000807329F406C000FD0ACF539408CF5520A9
:1048300019F0852D90E002C08FEF9FEFCDB7DEB766
:10484000EFE00C94C71FFC010590061621F0002034
:10485000D9F7C00108953197CF010895CF93DF9321
:10486000EC012B8120FF33C026FF0AC02F7B2B8356
:104870008E819F8101969F838E838A8190E029C0DB
:1048800022FF0FC0E881F9818081082E000C990B6E
:10489000009719F420622B831AC03196F983E883BC
:1048A0000EC0EA85FB85099597FF09C02B8101960B
:1048B00011F080E201C080E1822B8B8308C02E8141
:1048C0003F812F5F3F4F3F832E83992702C08FEF99
:1048D0009FEFDF91CF910895FB01238120FF12C04C
:1048E00026FD10C08F3F3FEF930761F082832F7D3D
:1048F0002064238326813781215031093783268321
:0E490000992708958FEF9FEF0895F894FFCF49
:10490E00FFFFFF00FCE1A8A8FF7C04EB026904BDD9
:10491E00028601B3028D040503E3FF2D384E616D4F
:10492E0065382D004C0D4C0D6A0393029801A304BB
:10493E004E4E4E4E4E4E4E4E0000008E0680004F96
:10494E00575F54656D7000004F575F4E616D650087
:10495E00004A616E4665624D61724170724D6179B9
:10496E004A756E4A756C4175675365704F63744E28
:10497E006F76446563005E00BC00770100000000A6
:10498E009C124D0D0112E912321210122412436CB8
:10499E00656172696E6720506F733A2000536574BB
:1049AE0075700070726573656E746174696F6E2ECA
:1049BE002E2E002573202564202564004665622076
:1049CE0031392032303139002564253032642530BA
:1049DE003264004F6E65576972654D61737465720E
:1049EE000025735F256400256420253032643A2546
:1049FE003032643A25303264004155544F004465DC
:104A0E0076436865636B53756D20213D2044657652
:104A1E004C617374436865636B53756D00626566B4
:104A2E006F726500636865636B5265736F6C757446
:104A3E00696F6E004368616E67696E6720526573B9
:104A4E006F6C7574696F6E20746F3A20000D0A00DA
:104A5E00322E332E310030002D004C6F6F6B696E8D
:104A6E006720666F72204F572044657669636573C1
:104A7E0000466F756E64204F7749443A20004F6EA2
:104A8E006557697265204275732069737420756568
:104A9E006265726675656C6C74004E65772043684E
:104AAE0065636B73756D3A20004E4E4E4E4E4E4EF4
:104ABE004E00446576436865636B53756D3A20000E
:00000001FF
